{
  "address": "0xd761D538240E23B465c9c08236D781029DC3cc96",
  "abi": [
    {
      "inputs": [
        {
          "internalType": "contract IBancorNetwork",
          "name": "initNetwork",
          "type": "address"
        },
        {
          "internalType": "contract INetworkSettings",
          "name": "initNetworkSettings",
          "type": "address"
        },
        {
          "internalType": "contract IERC20",
          "name": "initBNT",
          "type": "address"
        }
      ],
      "stateMutability": "nonpayable",
      "type": "constructor"
    },
    {
      "inputs": [],
      "name": "InvalidAddress",
      "type": "error"
    },
    {
      "anonymous": false,
      "inputs": [
        {
          "indexed": true,
          "internalType": "address",
          "name": "provider",
          "type": "address"
        },
        {
          "indexed": false,
          "internalType": "contract IPoolToken",
          "name": "poolToken",
          "type": "address"
        },
        {
          "indexed": true,
          "internalType": "contract Token",
          "name": "tokenA",
          "type": "address"
        },
        {
          "indexed": true,
          "internalType": "contract Token",
          "name": "tokenB",
          "type": "address"
        },
        {
          "indexed": false,
          "internalType": "uint256",
          "name": "amountA",
          "type": "uint256"
        },
        {
          "indexed": false,
          "internalType": "uint256",
          "name": "amountB",
          "type": "uint256"
        },
        {
          "indexed": false,
          "internalType": "bool",
          "name": "migratedA",
          "type": "bool"
        },
        {
          "indexed": false,
          "internalType": "bool",
          "name": "migratedB",
          "type": "bool"
        }
      ],
      "name": "PositionMigrated",
      "type": "event"
    },
    {
      "inputs": [
        {
          "internalType": "contract IPoolToken",
          "name": "poolToken",
          "type": "address"
        },
        {
          "internalType": "uint256",
          "name": "amount",
          "type": "uint256"
        }
      ],
      "name": "migratePoolTokens",
      "outputs": [],
      "stateMutability": "nonpayable",
      "type": "function"
    },
    {
      "inputs": [],
      "name": "version",
      "outputs": [
        {
          "internalType": "uint16",
          "name": "",
          "type": "uint16"
        }
      ],
      "stateMutability": "pure",
      "type": "function"
    },
    {
      "stateMutability": "payable",
      "type": "receive"
    }
  ],
  "transactionHash": "0x68b96c3c97cf374013b3a083fde19056565a428b88ee0e55b215636fa2b3e170",
  "args": [
    "0xeEF417e1D5CC832e619ae18D2F140De2999dD4fB",
    "0x83E1814ba31F7ea95D216204BB45FE75Ce09b14F",
    "0x1F573D6Fb3F13d689FF844B4cE37794d79a7FF1C"
  ],
  "numDeployments": 1,
  "solcInputHash": "5b93454da0d19532f3d57b46d6368097",
  "bytecode": "0x60e06040523480156200001157600080fd5b5060405162001235380380620012358339810160408190526200003491620000bf565b60016000558262000045816200007e565b8262000051816200007e565b826200005d816200007e565b5050506001600160a01b0392831660805290821660a0521660c05262000113565b6001600160a01b038116620000a65760405163e6c4247b60e01b815260040160405180910390fd5b50565b6001600160a01b0381168114620000a657600080fd5b600080600060608486031215620000d557600080fd5b8351620000e281620000a9565b6020850151909350620000f581620000a9565b60408501519092506200010881620000a9565b809150509250925092565b60805160a05160c0516110e46200015160003960006102b70152600061030f0152600081816104490152818161054b01526105b801526110e46000f3fe60806040526004361061002d5760003560e01c806354fd4d5014610039578063775e7c3f1461005a57600080fd5b3661003457005b600080fd5b34801561004557600080fd5b50604080516001815290519081900360200190f35b34801561006657600080fd5b5061007a610075366004610d87565b61007c565b005b6002600054036100d35760405162461bcd60e51b815260206004820152601f60248201527f5265656e7472616e637947756172643a207265656e7472616e742063616c6c0060448201526064015b60405180910390fd5b60026000556100ed6001600160a01b038316333084610878565b6000826001600160a01b0316638da5cb5b6040518163ffffffff1660e01b8152600401602060405180830381865afa15801561012d573d6000803e3d6000fd5b505050506040513d601f19601f820116820180604052508101906101519190610db3565b90506000816001600160a01b03166327ac36c46040518163ffffffff1660e01b8152600401600060405180830381865afa158015610193573d6000803e3d6000fd5b505050506040513d6000823e601f3d908101601f191682016040526101bb9190810190610e3b565b60408051600280825260608201835292935060009290916020830190803683370190505090506001816000815181106101f6576101f6610ecf565b60200260200101818152505060018160018151811061021757610217610ecf565b602090810291909101015260405163b127c0a560e01b81526000906001600160a01b0385169063b127c0a59061025590889087908790600401610ee5565b6000604051808303816000875af1158015610274573d6000803e3d6000fd5b505050506040513d6000823e601f3d908101601f1916820160405261029c9190810190610f74565b90506102a6610d51565b60005b6002811015610763576103077f00000000000000000000000000000000000000000000000000000000000000008683815181106102e8576102e8610ecf565b60200260200101516001600160a01b03166108e990919063ffffffff16565b806103c257507f00000000000000000000000000000000000000000000000000000000000000006001600160a01b031663b5af090f86838151811061034e5761034e610ecf565b60200260200101516040518263ffffffff1660e01b815260040161038191906001600160a01b0391909116815260200190565b602060405180830381865afa15801561039e573d6000803e3d6000fd5b505050506040513d601f19601f820116820180604052508101906103c29190610ffa565b8282600281106103d4576103d4610ecf565b911515602090920201528181600281106103f0576103f0610ecf565b6020020151156106955761044285828151811061040f5761040f610ecf565b60200260200101516001600160a01b03166001600160a01b031673eeeeeeeeeeeeeeeeeeeeeeeeeeeeeeeeeeeeeeee1490565b15610546577f00000000000000000000000000000000000000000000000000000000000000006001600160a01b031663b3db428b84838151811061048857610488610ecf565b6020026020010151338885815181106104a3576104a3610ecf565b60200260200101518786815181106104bd576104bd610ecf565b60209081029190910101516040516001600160e01b031960e087901b1681526001600160a01b039384166004820152929091166024830152604482015260640160206040518083038185885af115801561051b573d6000803e3d6000fd5b50505050506040513d601f19601f82011682018060405250810190610540919061101c565b50610751565b6105b67f000000000000000000000000000000000000000000000000000000000000000084838151811061057c5761057c610ecf565b602002602001015187848151811061059657610596610ecf565b60200260200101516001600160a01b03166108fa9092919063ffffffff16565b7f00000000000000000000000000000000000000000000000000000000000000006001600160a01b031663b3db428b338784815181106105f8576105f8610ecf565b602002602001015186858151811061061257610612610ecf565b60209081029190910101516040516001600160e01b031960e086901b1681526001600160a01b03938416600482015292909116602483015260448201526064016020604051808303816000875af1158015610671573d6000803e3d6000fd5b505050506040513d601f19601f82011682018060405250810190610540919061101c565b6106aa85828151811061040f5761040f610ecf565b1561070157336001600160a01b03166108fc8483815181106106ce576106ce610ecf565b60200260200101519081150290604051600060405180830381858888f19350505050158015610540573d6000803e3d6000fd5b6107513384838151811061071757610717610ecf565b602002602001015187848151811061073157610731610ecf565b60200260200101516001600160a01b031661093c9092919063ffffffff16565b8061075b81611035565b9150506102a9565b508360018151811061077757610777610ecf565b60200260200101516001600160a01b03168460008151811061079b5761079b610ecf565b60200260200101516001600160a01b0316336001600160a01b03167fcd6c4dbf45154fb31e3a85a8598e5f7a25e4b07c93d450740af9d975635a603f8a866000815181106107eb576107eb610ecf565b60200260200101518760018151811061080657610806610ecf565b60200260200101518760006002811061082157610821610ecf565b602002015188600160209081029190910151604080516001600160a01b03909716875291860194909452840191909152151560608301521515608082015260a00160405180910390a4505060016000555050505050565b6040516001600160a01b03808516602483015283166044820152606481018290526108e39085906323b872dd60e01b906084015b60408051601f198184030181529190526020810180516001600160e01b03166001600160e01b0319909316929092179091526109b7565b50505050565b6001600160a01b0391821691161490565b73eeeeeeeeeeeeeeeeeeeeeeeeeeeeeeeeeeeeeeee6001600160a01b0384160361092357505050565b6109376001600160a01b0384168383610a89565b505050565b8060000361094957505050565b73eeeeeeeeeeeeeeeeeeeeeeeeeeeeeeeeeeeeeeee6001600160a01b038416036109a3576040516001600160a01b0383169082156108fc029083906000818181858888f193505050501580156108e3573d6000803e3d6000fd5b6109376001600160a01b0384168383610b9e565b6000610a0c826040518060400160405280602081526020017f5361666545524332303a206c6f772d6c6576656c2063616c6c206661696c6564815250856001600160a01b0316610bce9092919063ffffffff16565b8051909150156109375780806020019051810190610a2a9190610ffa565b6109375760405162461bcd60e51b815260206004820152602a60248201527f5361666545524332303a204552433230206f7065726174696f6e20646964206e6044820152691bdd081cdd58d8d9595960b21b60648201526084016100ca565b801580610b035750604051636eb1769f60e11b81523060048201526001600160a01b03838116602483015284169063dd62ed3e90604401602060405180830381865afa158015610add573d6000803e3d6000fd5b505050506040513d601f19601f82011682018060405250810190610b01919061101c565b155b610b6e5760405162461bcd60e51b815260206004820152603660248201527f5361666545524332303a20617070726f76652066726f6d206e6f6e2d7a65726f60448201527520746f206e6f6e2d7a65726f20616c6c6f77616e636560501b60648201526084016100ca565b6040516001600160a01b03831660248201526044810182905261093790849063095ea7b360e01b906064016108ac565b6040516001600160a01b03831660248201526044810182905261093790849063a9059cbb60e01b906064016108ac565b6060610bdd8484600085610be7565b90505b9392505050565b606082471015610c485760405162461bcd60e51b815260206004820152602660248201527f416464726573733a20696e73756666696369656e742062616c616e636520666f6044820152651c8818d85b1b60d21b60648201526084016100ca565b6001600160a01b0385163b610c9f5760405162461bcd60e51b815260206004820152601d60248201527f416464726573733a2063616c6c20746f206e6f6e2d636f6e747261637400000060448201526064016100ca565b600080866001600160a01b03168587604051610cbb9190611088565b60006040518083038185875af1925050503d8060008114610cf8576040519150601f19603f3d011682016040523d82523d6000602084013e610cfd565b606091505b5091509150610d0d828286610d18565b979650505050505050565b60608315610d27575081610be0565b825115610d375782518084602001fd5b8160405162461bcd60e51b81526004016100ca91906110a4565b60405180604001604052806002906020820280368337509192915050565b6001600160a01b0381168114610d8457600080fd5b50565b60008060408385031215610d9a57600080fd5b8235610da581610d6f565b946020939093013593505050565b600060208284031215610dc557600080fd5b8151610be081610d6f565b634e487b7160e01b600052604160045260246000fd5b604051601f8201601f1916810167ffffffffffffffff81118282101715610e0f57610e0f610dd0565b604052919050565b600067ffffffffffffffff821115610e3157610e31610dd0565b5060051b60200190565b60006020808385031215610e4e57600080fd5b825167ffffffffffffffff811115610e6557600080fd5b8301601f81018513610e7657600080fd5b8051610e89610e8482610e17565b610de6565b81815260059190911b82018301908381019087831115610ea857600080fd5b928401925b82841015610d0d578351610ec081610d6f565b82529284019290840190610ead565b634e487b7160e01b600052603260045260246000fd5b6000606082018583526020606081850152818651808452608086019150828801935060005b81811015610f2f5784516001600160a01b031683529383019391830191600101610f0a565b50508481036040860152855180825290820192508186019060005b81811015610f6657825185529383019391830191600101610f4a565b509298975050505050505050565b60006020808385031215610f8757600080fd5b825167ffffffffffffffff811115610f9e57600080fd5b8301601f81018513610faf57600080fd5b8051610fbd610e8482610e17565b81815260059190911b82018301908381019087831115610fdc57600080fd5b928401925b82841015610d0d57835182529284019290840190610fe1565b60006020828403121561100c57600080fd5b81518015158114610be057600080fd5b60006020828403121561102e57600080fd5b5051919050565b60006001820161105557634e487b7160e01b600052601160045260246000fd5b5060010190565b60005b8381101561107757818101518382015260200161105f565b838111156108e35750506000910152565b6000825161109a81846020870161105c565b9190910192915050565b60208152600082518060208401526110c381604085016020870161105c565b601f01601f1916919091016040019291505056fea164736f6c634300080d000a",
  "devdoc": {
    "details": "this contract supports V1 liquidity migration",
    "kind": "dev",
    "methods": {
      "constructor": {
        "details": "a \"virtual\" constructor that is only used to set immutable state variables"
      },
      "migratePoolTokens(address,uint256)": {
        "details": "migrates pool tokens from v1 to v3 requirements: - the caller must have approved this contract to transfer the pool tokens on its behalf"
      }
    },
    "version": 1
  },
  "userdoc": {
    "kind": "user",
    "methods": {},
    "version": 1
  },
  "storageLayout": {
    "storage": [
      {
        "astId": 3415,
        "contract": "contracts/network/BancorV1Migration.sol:BancorV1Migration",
        "label": "_status",
        "offset": 0,
        "slot": "0",
        "type": "t_uint256"
      }
    ],
    "types": {
      "t_uint256": {
        "encoding": "inplace",
        "label": "uint256",
        "numberOfBytes": "32"
      }
    }
  }
}