{
  "address": "0x14D0746086361f9d177583F36e1517f1618cCfd5",
  "abi": [
    {
      "inputs": [
        {
          "internalType": "contract IBancorNetworkV3",
          "name": "networkV3",
          "type": "address"
        },
        {
          "internalType": "address payable",
          "name": "vaultV3",
          "type": "address"
        },
        {
          "internalType": "contract ILiquidityProtectionSettings",
          "name": "settings",
          "type": "address"
        },
        {
          "internalType": "contract ILiquidityProtectionStore",
          "name": "store",
          "type": "address"
        },
        {
          "internalType": "contract ILiquidityProtectionStats",
          "name": "stats",
          "type": "address"
        },
        {
          "internalType": "contract ILiquidityProtectionSystemStore",
          "name": "systemStore",
          "type": "address"
        },
        {
          "internalType": "contract ITokenHolder",
          "name": "wallet",
          "type": "address"
        },
        {
          "internalType": "contract ITokenGovernance",
          "name": "networkTokenGovernance",
          "type": "address"
        },
        {
          "internalType": "contract ITokenGovernance",
          "name": "govTokenGovernance",
          "type": "address"
        }
      ],
      "stateMutability": "nonpayable",
      "type": "constructor"
    },
    {
      "anonymous": false,
      "inputs": [
        {
          "indexed": true,
          "internalType": "address",
          "name": "prevOwner",
          "type": "address"
        },
        {
          "indexed": true,
          "internalType": "address",
          "name": "newOwner",
          "type": "address"
        }
      ],
      "name": "OwnerUpdate",
      "type": "event"
    },
    {
      "inputs": [],
      "name": "acceptOwnership",
      "outputs": [],
      "stateMutability": "nonpayable",
      "type": "function"
    },
    {
      "inputs": [],
      "name": "acceptStoreOwnership",
      "outputs": [],
      "stateMutability": "nonpayable",
      "type": "function"
    },
    {
      "inputs": [],
      "name": "acceptWalletOwnership",
      "outputs": [],
      "stateMutability": "nonpayable",
      "type": "function"
    },
    {
      "inputs": [
        {
          "internalType": "contract IConverterAnchor",
          "name": "poolAnchor",
          "type": "address"
        },
        {
          "internalType": "contract IReserveToken",
          "name": "reserveToken",
          "type": "address"
        },
        {
          "internalType": "uint256",
          "name": "amount",
          "type": "uint256"
        }
      ],
      "name": "addLiquidity",
      "outputs": [
        {
          "internalType": "uint256",
          "name": "",
          "type": "uint256"
        }
      ],
      "stateMutability": "payable",
      "type": "function"
    },
    {
      "inputs": [
        {
          "internalType": "address",
          "name": "owner",
          "type": "address"
        },
        {
          "internalType": "contract IConverterAnchor",
          "name": "poolAnchor",
          "type": "address"
        },
        {
          "internalType": "contract IReserveToken",
          "name": "reserveToken",
          "type": "address"
        },
        {
          "internalType": "uint256",
          "name": "amount",
          "type": "uint256"
        }
      ],
      "name": "addLiquidityFor",
      "outputs": [
        {
          "internalType": "uint256",
          "name": "",
          "type": "uint256"
        }
      ],
      "stateMutability": "payable",
      "type": "function"
    },
    {
      "inputs": [
        {
          "internalType": "uint256",
          "name": "startIndex",
          "type": "uint256"
        },
        {
          "internalType": "uint256",
          "name": "endIndex",
          "type": "uint256"
        }
      ],
      "name": "claimBalance",
      "outputs": [],
      "stateMutability": "nonpayable",
      "type": "function"
    },
    {
      "inputs": [
        {
          "internalType": "bool",
          "name": "state",
          "type": "bool"
        }
      ],
      "name": "enableDepositing",
      "outputs": [],
      "stateMutability": "nonpayable",
      "type": "function"
    },
    {
      "inputs": [
        {
          "internalType": "bool",
          "name": "state",
          "type": "bool"
        }
      ],
      "name": "enableRemoving",
      "outputs": [],
      "stateMutability": "nonpayable",
      "type": "function"
    },
    {
      "inputs": [
        {
          "components": [
            {
              "internalType": "contract IDSToken",
              "name": "poolToken",
              "type": "address"
            },
            {
              "internalType": "contract IReserveToken",
              "name": "reserveToken",
              "type": "address"
            },
            {
              "internalType": "uint256[]",
              "name": "positionIds",
              "type": "uint256[]"
            }
          ],
          "internalType": "struct LiquidityProtection.PositionList[]",
          "name": "positionLists",
          "type": "tuple[]"
        }
      ],
      "name": "migratePositions",
      "outputs": [],
      "stateMutability": "nonpayable",
      "type": "function"
    },
    {
      "inputs": [
        {
          "internalType": "contract IConverterAnchor[]",
          "name": "poolAnchors",
          "type": "address[]"
        }
      ],
      "name": "migrateSystemPoolTokens",
      "outputs": [],
      "stateMutability": "nonpayable",
      "type": "function"
    },
    {
      "inputs": [],
      "name": "newOwner",
      "outputs": [
        {
          "internalType": "address",
          "name": "",
          "type": "address"
        }
      ],
      "stateMutability": "view",
      "type": "function"
    },
    {
      "inputs": [],
      "name": "owner",
      "outputs": [
        {
          "internalType": "address",
          "name": "",
          "type": "address"
        }
      ],
      "stateMutability": "view",
      "type": "function"
    },
    {
      "inputs": [
        {
          "internalType": "contract IConverterAnchor",
          "name": "poolAnchor",
          "type": "address"
        }
      ],
      "name": "poolAvailableSpace",
      "outputs": [
        {
          "internalType": "uint256",
          "name": "",
          "type": "uint256"
        },
        {
          "internalType": "uint256",
          "name": "",
          "type": "uint256"
        }
      ],
      "stateMutability": "view",
      "type": "function"
    },
    {
      "inputs": [
        {
          "internalType": "contract IDSToken",
          "name": "poolToken",
          "type": "address"
        },
        {
          "internalType": "contract IReserveToken",
          "name": "reserveToken",
          "type": "address"
        },
        {
          "internalType": "uint256",
          "name": "reserveAmount",
          "type": "uint256"
        },
        {
          "internalType": "uint256",
          "name": "poolRateN",
          "type": "uint256"
        },
        {
          "internalType": "uint256",
          "name": "poolRateD",
          "type": "uint256"
        },
        {
          "internalType": "uint256",
          "name": "reserveRateN",
          "type": "uint256"
        },
        {
          "internalType": "uint256",
          "name": "reserveRateD",
          "type": "uint256"
        }
      ],
      "name": "poolROI",
      "outputs": [
        {
          "internalType": "uint256",
          "name": "",
          "type": "uint256"
        }
      ],
      "stateMutability": "view",
      "type": "function"
    },
    {
      "inputs": [
        {
          "internalType": "uint256",
          "name": "id",
          "type": "uint256"
        },
        {
          "internalType": "uint32",
          "name": "portion",
          "type": "uint32"
        }
      ],
      "name": "removeLiquidity",
      "outputs": [],
      "stateMutability": "nonpayable",
      "type": "function"
    },
    {
      "inputs": [
        {
          "internalType": "uint256",
          "name": "id",
          "type": "uint256"
        },
        {
          "internalType": "uint32",
          "name": "portion",
          "type": "uint32"
        },
        {
          "internalType": "uint256",
          "name": "removeTimestamp",
          "type": "uint256"
        }
      ],
      "name": "removeLiquidityReturn",
      "outputs": [
        {
          "internalType": "uint256",
          "name": "",
          "type": "uint256"
        },
        {
          "internalType": "uint256",
          "name": "",
          "type": "uint256"
        },
        {
          "internalType": "uint256",
          "name": "",
          "type": "uint256"
        }
      ],
      "stateMutability": "view",
      "type": "function"
    },
    {
      "inputs": [],
      "name": "settings",
      "outputs": [
        {
          "internalType": "contract ILiquidityProtectionSettings",
          "name": "",
          "type": "address"
        }
      ],
      "stateMutability": "view",
      "type": "function"
    },
    {
      "inputs": [],
      "name": "stats",
      "outputs": [
        {
          "internalType": "contract ILiquidityProtectionStats",
          "name": "",
          "type": "address"
        }
      ],
      "stateMutability": "view",
      "type": "function"
    },
    {
      "inputs": [],
      "name": "store",
      "outputs": [
        {
          "internalType": "contract ILiquidityProtectionStore",
          "name": "",
          "type": "address"
        }
      ],
      "stateMutability": "view",
      "type": "function"
    },
    {
      "inputs": [
        {
          "internalType": "address",
          "name": "newOwner",
          "type": "address"
        }
      ],
      "name": "transferOwnership",
      "outputs": [],
      "stateMutability": "nonpayable",
      "type": "function"
    },
    {
      "inputs": [
        {
          "internalType": "uint256",
          "name": "id",
          "type": "uint256"
        },
        {
          "internalType": "address",
          "name": "newProvider",
          "type": "address"
        }
      ],
      "name": "transferPosition",
      "outputs": [
        {
          "internalType": "uint256",
          "name": "",
          "type": "uint256"
        }
      ],
      "stateMutability": "nonpayable",
      "type": "function"
    },
    {
      "inputs": [
        {
          "internalType": "uint256",
          "name": "id",
          "type": "uint256"
        },
        {
          "internalType": "address",
          "name": "newProvider",
          "type": "address"
        },
        {
          "internalType": "contract ITransferPositionCallback",
          "name": "callback",
          "type": "address"
        },
        {
          "internalType": "bytes",
          "name": "data",
          "type": "bytes"
        }
      ],
      "name": "transferPositionAndNotify",
      "outputs": [
        {
          "internalType": "uint256",
          "name": "",
          "type": "uint256"
        }
      ],
      "stateMutability": "nonpayable",
      "type": "function"
    },
    {
      "inputs": [
        {
          "internalType": "address",
          "name": "newOwner",
          "type": "address"
        }
      ],
      "name": "transferStoreOwnership",
      "outputs": [],
      "stateMutability": "nonpayable",
      "type": "function"
    },
    {
      "inputs": [
        {
          "internalType": "address",
          "name": "newOwner",
          "type": "address"
        }
      ],
      "name": "transferWalletOwnership",
      "outputs": [],
      "stateMutability": "nonpayable",
      "type": "function"
    },
    {
      "stateMutability": "payable",
      "type": "receive"
    }
  ],
  "transactionHash": "0x146ab774e1f5c0cfdef4d076eb52eb83641585097597ef130328b4d7b3aff46b",
  "args": [
    "0xeEF417e1D5CC832e619ae18D2F140De2999dD4fB",
    "0x649765821D9f64198c905eC0B2B037a4a52Bc373",
    "0xf7d28faa1fe9ea53279fe6e3cde75175859bdf46",
    "0xf5fab5dbd2f3bf675de4cb76517d4767013cfb55",
    "0x9712bb50dc6efb8a3d7d12cea500a50967d2d471",
    "0xc4C5634De585d43DaEC8fA2a6Fb6286cd9B87131",
    "0xd1d846312b819743974786050848d9b3d06b9b55",
    "0xa489C2b5b36835A327851Ab917A80562B5AFC244",
    "0x0887ae1251E180d7D453aeDEBee26e1639f20113"
  ],
  "numDeployments": 2,
  "solcInputHash": "652ef0f7a5d18980bff5708c16349df7",
  "bytecode": "0x6101e06040526003805461ff001960ff19909116600117166101001790553480156200002a57600080fd5b50604051620061ec380380620061ec8339810160408190526200004d916200026c565b600080546001600160a01b0319163317905560016002556200006f8962000237565b6200007a8862000237565b620000858762000237565b620000908662000237565b6200009b8562000237565b620000a68462000237565b620000b18362000237565b6001600160601b031960608a811b821660805289811b821660a05288811b821660c05287811b821660e05286811b82166101005285811b82166101205284811b82166101405283811b82166101805282901b166101c05260408051637e062a3560e11b815290516001600160a01b0384169163fc0c546a916004808301926020929190829003018186803b1580156200014957600080fd5b505afa1580156200015e573d6000803e3d6000fd5b505050506040513d601f19601f8201168201806040525081019062000184919062000342565b6001600160a01b0316610160816001600160a01b031660601b81525050806001600160a01b031663fc0c546a6040518163ffffffff1660e01b815260040160206040518083038186803b158015620001db57600080fd5b505afa158015620001f0573d6000803e3d6000fd5b505050506040513d601f19601f8201168201806040525081019062000216919062000342565b60601b6001600160601b0319166101a05250620003b5975050505050505050565b6001600160a01b038116620002695760405162461bcd60e51b8152600401620002609062000368565b60405180910390fd5b50565b60008060008060008060008060006101208a8c0312156200028b578485fd5b895162000298816200039f565b60208b0151909950620002ab816200039f565b60408b0151909850620002be816200039f565b60608b0151909750620002d1816200039f565b60808b0151909650620002e4816200039f565b60a08b0151909550620002f7816200039f565b60c08b01519094506200030a816200039f565b60e08b01519093506200031d816200039f565b6101008b015190925062000331816200039f565b809150509295985092959850929598565b60006020828403121562000354578081fd5b815162000361816200039f565b9392505050565b60208082526013908201527f4552525f494e56414c49445f4144445245535300000000000000000000000000604082015260600190565b6001600160a01b03811681146200026957600080fd5b60805160601c60a05160601c60c05160601c60e05160601c6101005160601c6101205160601c6101405160601c6101605160601c6101805160601c6101a05160601c6101c05160601c615c5a620005926000398061234352806140e25250806122fd52508061171c528061260b5280613bc452508061055252806105775280610b805280611a0e5280611b285280611ec452806124db5280612565528061268452806126f152806129f65280612ae45280612b775280612ca65280613fa85280614099528061415d5250806107c65280610b535280610f7a528061138e528061245052806126a652806143d65250806104975280611310528061169e5280611a5e5280611b7a52806120625280612271528061295d5280613b46528061400a528061426e528061440a5250806111c15280613338528061342c52806134b05250806109a95280610a975280610e6f5280610ed952806110035280611d3b528061321a52806132c6528061355a5280613cec52508061106d52806111e552806118a2528061195d52806121935280612d9b528061301c52806130c2528061377052806138055280613a105280613c3b528061419c5250806106b152806106f1525080612a235280612ab75280612be15280612c1d5250615c5a6000f3fe60806040526004361061014f5760003560e01c80638da5cb5b116100b6578063caee4c8f1161006f578063caee4c8f146103a6578063d4ee1d90146103b9578063d80528ae146103ce578063e06174e4146103e3578063e4a76726146103f8578063f2fde38b1461040b57610156565b80638da5cb5b146102ef578063975057e714610311578063b55bb6c014610326578063bf3b110114610346578063c2250a9914610366578063c83df6631461038657610156565b80635e718c37116101085780635e718c3714610236578063630d8c63146102565780636d533e9b14610276578063782ed90c146102a557806379ba5097146102c557806389d94b46146102da57610156565b80631e83958b1461015b57806324afe2d91461017d57806326e6b697146101b457806328790b5a146101d457806340083480146101e957806355bd513f1461021657610156565b3661015657005b600080fd5b34801561016757600080fd5b5061017b610176366004614fcc565b61042b565b005b34801561018957600080fd5b5061019d610198366004614ec8565b61076f565b6040516101ab929190615b6c565b60405180910390f35b3480156101c057600080fd5b5061017b6101cf3660046150a0565b6107a1565b3480156101e057600080fd5b5061017b6107bc565b3480156101f557600080fd5b506102096102043660046151c0565b610839565b6040516101ab9190615500565b34801561022257600080fd5b50610209610231366004615191565b6108fb565b34801561024257600080fd5b5061017b6102513660046150a0565b610945565b34801561026257600080fd5b5061017b61027136600461525a565b610967565b34801561028257600080fd5b506102966102913660046152c2565b610bec565b6040516101ab93929190615b7a565b3480156102b157600080fd5b5061017b6102c036600461529e565b610d8a565b3480156102d157600080fd5b5061017b610dd7565b3480156102e657600080fd5b5061017b610e65565b3480156102fb57600080fd5b50610304610ec8565b6040516101ab9190615392565b34801561031d57600080fd5b50610304610ed7565b34801561033257600080fd5b5061017b610341366004614fcc565b610efb565b34801561035257600080fd5b5061017b610361366004614ec8565b610f5b565b34801561037257600080fd5b5061017b610381366004614ec8565b610fe4565b34801561039257600080fd5b506102096103a1366004615118565b611038565b6102096103b4366004614f00565b611136565b3480156103c557600080fd5b506103046111b0565b3480156103da57600080fd5b506103046111bf565b3480156103ef57600080fd5b506103046111e3565b6102096104063660046150d8565b611207565b34801561041757600080fd5b5061017b610426366004614ec8565b611275565b6002805414156104565760405162461bcd60e51b815260040161044d906159eb565b60405180910390fd5b600280556104626112cd565b8060005b8181101561076457600084848381811061047c57fe5b90506020020160208101906104919190614ec8565b905060007f00000000000000000000000000000000000000000000000000000000000000006001600160a01b0316635121220c836040518263ffffffff1660e01b81526004016104e19190615392565b60206040518083038186803b1580156104f957600080fd5b505afa15801561050d573d6000803e3d6000fd5b505050506040513d601f19601f820116820180604052508101906105319190615179565b905061053d82826112f9565b6000610548836113ff565b90506060806105a07f000000000000000000000000000000000000000000000000000000000000000061059b857f0000000000000000000000000000000000000000000000000000000000000000611478565b6115a0565b915091506060836001600160a01b031663b127c0a58685856040518463ffffffff1660e01b81526004016105d693929190615b41565b600060405180830381600087803b1580156105f057600080fd5b505af1158015610604573d6000803e3d6000fd5b505050506040513d6000823e601f3d908101601f1916820160405261062c919081019061500c565b905061066c8a8a8981811061063d57fe5b90506020020160208101906106529190614ec8565b8260008151811061065f57fe5b6020026020010151611687565b6106928360018151811061067c57fe5b60200260200101516001600160a01b0316611753565b156106ec576106e7816001815181106106a757fe5b60200260200101517f00000000000000000000000000000000000000000000000000000000000000006001600160a01b031661177890919063ffffffff16565b610752565b6107527f00000000000000000000000000000000000000000000000000000000000000008260018151811061071d57fe5b60200260200101518560018151811061073257fe5b60200260200101516001600160a01b03166118199092919063ffffffff16565b50506001909401935061046692505050565b505060016002555050565b6000808261077c8161188b565b61078581611946565b61078e846119fe565b61079785611b23565b9250925050915091565b6107a96112cd565b6003805460ff1916911515919091179055565b6107c46112cd565b7f00000000000000000000000000000000000000000000000000000000000000006001600160a01b03166379ba50976040518163ffffffff1660e01b8152600401600060405180830381600087803b15801561081f57600080fd5b505af1158015610833573d6000803e3d6000fd5b50505050565b600060028054141561085d5760405162461bcd60e51b815260040161044d906159eb565b600280558461086b81611c2f565b8461087581611c2f565b6000610882338a8a611c55565b604051635c2ba84560e01b81529091506001600160a01b03881690635c2ba845906108b790849033908b908b90600401615afa565b600060405180830381600087803b1580156108d157600080fd5b505af11580156108e5573d6000803e3d6000fd5b5050600160025550909998505050505050505050565b600060028054141561091f5760405162461bcd60e51b815260040161044d906159eb565b600280558161092d81611c2f565b610938338585611c55565b6001600255949350505050565b61094d6112cd565b600380549115156101000261ff0019909216919091179055565b6002805414156109895760405162461bcd60e51b815260040161044d906159eb565b60028055604051637a1036f560e11b815260609081906001600160a01b037f0000000000000000000000000000000000000000000000000000000000000000169063f4206dea906109e2903390889088906004016153bf565b60006040518083038186803b1580156109fa57600080fd5b505afa158015610a0e573d6000803e3d6000fd5b505050506040513d6000823e601f3d908101601f19168201604052610a36919081019061503f565b915091506000808351905082518114610a4b57fe5b805b8015610b35576000198101610a60611c9c565b858281518110610a6c57fe5b60200260200101511115610a805750610b2c565b6040516390e0661b60e01b81526001600160a01b037f000000000000000000000000000000000000000000000000000000000000000016906390e0661b90610ad09033908c8601906004016153a6565b600060405180830381600087803b158015610aea57600080fd5b505af1158015610afe573d6000803e3d6000fd5b50505050610b28868281518110610b1157fe5b602002602001015185611ca090919063ffffffff16565b9350505b60001901610a4d565b508115610bdf57604051632f1a9acf60e11b81526001600160a01b037f00000000000000000000000000000000000000000000000000000000000000001690635e35359e90610bac907f000000000000000000000000000000000000000000000000000000000000000090339087906004016153fa565b600060405180830381600087803b158015610bc657600080fd5b505af1158015610bda573d6000803e3d6000fd5b505050505b5050600160025550505050565b6000806000610bf9611cc5565b84610c0381611cd9565b610c0b614d44565b610c1488611d14565b80519091506001600160a01b0316610c3e5760405162461bcd60e51b815260040161044d90615a78565b8060e00151861015610c625760405162461bcd60e51b815260040161044d90615acb565b63ffffffff8716620f424014610c9657610c8b816060015182608001518963ffffffff16611dfb565b608083015260608201525b610c9e614da4565b610cba826020015183604001518460a001518560c00151611e27565b90506000610ce18360200151846040015185606001518660800151868860e001518e611e8b565b9050610cf08360400151611ec2565b15610d0657955085945060009350610d80915050565b610d0e614dd9565b610d2084602001518560400151611ef4565b90506000610d38838387602001518860600151612030565b90506000610d62828460000151610d5d6002876020015161210b90919063ffffffff16565b612145565b90506000610d71858388612155565b949a5090985092965050505050505b5093509350939050565b600280541415610dac5760405162461bcd60e51b815260040161044d906159eb565b60028055610db8611cc5565b80610dc281611cd9565b610dcd33848461223a565b5050600160025550565b6001546001600160a01b03163314610e015760405162461bcd60e51b815260040161044d90615aa0565b600154600080546040516001600160a01b0393841693909116917f343765429aea5a34b3ff6a3785a98a5abb2597aca87bfbb58632c173d585373a91a360018054600080546001600160a01b03199081166001600160a01b03841617909155169055565b610e6d6112cd565b7f00000000000000000000000000000000000000000000000000000000000000006001600160a01b03166379ba50976040518163ffffffff1660e01b8152600401600060405180830381600087803b15801561081f57600080fd5b6000546001600160a01b031690565b7f000000000000000000000000000000000000000000000000000000000000000090565b600280541415610f1d5760405162461bcd60e51b815260040161044d906159eb565b600280558060005b8181101561076457610f53848483818110610f3c57fe5b9050602002810190610f4e9190615bd7565b612799565b600101610f25565b610f636112cd565b60405163f2fde38b60e01b81526001600160a01b037f0000000000000000000000000000000000000000000000000000000000000000169063f2fde38b90610faf908490600401615392565b600060405180830381600087803b158015610fc957600080fd5b505af1158015610fdd573d6000803e3d6000fd5b5050505050565b610fec6112cd565b60405163f2fde38b60e01b81526001600160a01b037f0000000000000000000000000000000000000000000000000000000000000000169063f2fde38b90610faf908490600401615392565b600080611046878688612145565b9050611050614da4565b61105c8a8a8787611e27565b905060006111178b8b858c8661110a7f00000000000000000000000000000000000000000000000000000000000000006001600160a01b031663ce3f3adb6040518163ffffffff1660e01b815260040160206040518083038186803b1580156110c457600080fd5b505afa1580156110d8573d6000803e3d6000fd5b505050506040513d601f19601f820116820180604052508101906110fc9190615179565b611104611c9c565b90612d4f565b611112611c9c565b611e8b565b905061112781620f42408b612145565b9b9a5050505050505050505050565b600060028054141561115a5760405162461bcd60e51b815260040161044d906159eb565b600280558461116881611c2f565b846111728161188b565b61117b81611946565b85856111878282612d77565b8561119181612e44565b61119d8a8a8a8a612e64565b60016002559a9950505050505050505050565b6001546001600160a01b031690565b7f000000000000000000000000000000000000000000000000000000000000000090565b7f000000000000000000000000000000000000000000000000000000000000000090565b600060028054141561122b5760405162461bcd60e51b815260040161044d906159eb565b60028055836112398161188b565b61124281611946565b848461124e8282612d77565b8461125881612e44565b61126433898989612e64565b600160025598975050505050505050565b61127d6112cd565b6000546001600160a01b03828116911614156112ab5760405162461bcd60e51b815260040161044d90615573565b600180546001600160a01b0319166001600160a01b0392909216919091179055565b6000546001600160a01b031633146112f75760405162461bcd60e51b815260040161044d90615aa0565b565b604051630671a97960e21b81526001600160a01b037f000000000000000000000000000000000000000000000000000000000000000016906319c6a5e49061134790859085906004016153a6565b600060405180830381600087803b15801561136157600080fd5b505af1158015611375573d6000803e3d6000fd5b5050604051632f1a9acf60e11b81526001600160a01b037f0000000000000000000000000000000000000000000000000000000000000000169250635e35359e91506113c9908590309086906004016153fa565b600060405180830381600087803b1580156113e357600080fd5b505af11580156113f7573d6000803e3d6000fd5b505050505050565b6000816001600160a01b0316638da5cb5b6040518163ffffffff1660e01b815260040160206040518083038186803b15801561143a57600080fd5b505afa15801561144e573d6000803e3d6000fd5b505050506040513d601f19601f820116820180604052508101906114729190614ee4565b92915050565b600080836001600160a01b03166319b6401560006040518263ffffffff1660e01b81526004016114a89190615500565b60206040518083038186803b1580156114c057600080fd5b505afa1580156114d4573d6000803e3d6000fd5b505050506040513d601f19601f820116820180604052508101906114f89190614ee4565b9050826001600160a01b0316816001600160a01b03161415611596576040516319b6401560e01b81526001600160a01b038516906319b640159061154190600190600401615500565b60206040518083038186803b15801561155957600080fd5b505afa15801561156d573d6000803e3d6000fd5b505050506040513d601f19601f820116820180604052508101906115919190614ee4565b611598565b805b949350505050565b6040805160028082526060828101909352829182918160200160208202803683375050604080516002808252606080830184529495509092509060208301908036833701905050905085826000815181106115f757fe5b60200260200101906001600160a01b031690816001600160a01b031681525050848260018151811061162557fe5b60200260200101906001600160a01b031690816001600160a01b03168152505060018160008151811061165457fe5b60200260200101818152505060018160018151811061166f57fe5b602090810291909101015290925090505b9250929050565b604051634017d1dd60e11b81526001600160a01b037f0000000000000000000000000000000000000000000000000000000000000000169063802fa3ba906116d590859085906004016153a6565b600060405180830381600087803b1580156116ef57600080fd5b505af1158015611703573d6000803e3d6000fd5b5050604051630852cd8d60e31b81526001600160a01b037f00000000000000000000000000000000000000000000000000000000000000001692506342966c6891506113c9908490600401615500565b6001600160a01b03811673eeeeeeeeeeeeeeeeeeeeeeeeeeeeeeeeeeeeeeee14919050565b804710156117985760405162461bcd60e51b815260040161044d9061569d565b6000826001600160a01b0316826040516117b190612ec3565b60006040518083038185875af1925050503d80600081146117ee576040519150601f19603f3d011682016040523d82523d6000602084013e6117f3565b606091505b50509050806118145760405162461bcd60e51b815260040161044d90615640565b505050565b8061182357611814565b61182c83611753565b1561186d576040516001600160a01b0383169082156108fc029083906000818181858888f19350505050158015611867573d6000803e3d6000fd5b50611814565b611814828261187b86612ec3565b6001600160a01b03169190612ec6565b604051631a9ec62960e31b81526001600160a01b037f0000000000000000000000000000000000000000000000000000000000000000169063d4f63148906118d7908490600401615392565b60206040518083038186803b1580156118ef57600080fd5b505afa158015611903573d6000803e3d6000fd5b505050506040513d601f19601f8201168201806040525081019061192791906150bc565b6119435760405162461bcd60e51b815260040161044d9061583b565b50565b60405163159354c160e11b81526001600160a01b037f00000000000000000000000000000000000000000000000000000000000000001690632b26a98290611992908490600401615392565b60206040518083038186803b1580156119aa57600080fd5b505afa1580156119be573d6000803e3d6000fd5b505050506040513d601f19601f820116820180604052508101906119e291906150bc565b6119435760405162461bcd60e51b815260040161044d9061559b565b600080611a0a836113ff565b90507f00000000000000000000000000000000000000000000000000000000000000006000611a398383611478565b9050600080611a49858486612f1c565b915091506000611a5888613017565b905060007f00000000000000000000000000000000000000000000000000000000000000006001600160a01b031663350ed8e78a6040518263ffffffff1660e01b8152600401611aa89190615392565b60206040518083038186803b158015611ac057600080fd5b505afa158015611ad4573d6000803e3d6000fd5b505050506040513d601f19601f82011682018060405250810190611af89190615179565b9050600081611b078484613156565b039050611b15818686612145565b9a9950505050505050505050565b6000817f0000000000000000000000000000000000000000000000000000000000000000611b4f614dd9565b611b598383611ef4565b9050611c268160200151611c2060016111048560000151611c1a87600001517f00000000000000000000000000000000000000000000000000000000000000006001600160a01b0316635121220c8c6040518263ffffffff1660e01b8152600401611bc49190615392565b60206040518083038186803b158015611bdc57600080fd5b505afa158015611bf0573d6000803e3d6000fd5b505050506040513d601f19601f82011682018060405250810190611c149190615179565b9061210b565b90611ca0565b9061316d565b95945050505050565b6001600160a01b0381166119435760405162461bcd60e51b815260040161044d906158a2565b6000611c5f614d44565b611c6d8585620f424061319f565b9050611c918382602001518360400151846060015185608001518660e001516133d9565b9150505b9392505050565b4290565b6000828201838110156115965760405162461bcd60e51b815260040161044d9061553c565b600354610100900460ff166112f757600080fd5b60008163ffffffff16118015611cf85750620f424063ffffffff821611155b6119435760405162461bcd60e51b815260040161044d906159be565b611d1c614d44565b611d24614d44565b604051635290ffbb60e01b81526001600160a01b037f00000000000000000000000000000000000000000000000000000000000000001690635290ffbb90611d70908690600401615500565b6101006040518083038186803b158015611d8957600080fd5b505afa158015611d9d573d6000803e3d6000fd5b505050506040513d601f19601f82011682018060405250810190611dc19190614f50565b60e089015260c088015260a0870152608086015260608501526001600160a01b039081166040850152908116602084015216815292915050565b600080611e0c8584620f4240612145565b611e1a8585620f4240612145565b915091505b935093915050565b611e2f614da4565b611e37614dd9565b611e3f614dd9565b611e4987876135fa565b915091506001600160801b0381602001518260000151846020015185600001511717171115611e7457fe5b611e80858584846136eb565b979650505050505050565b6000611e95614dd9565b611e9f8989611ef4565b9050611ea9614dd9565b611eb38585613756565b9050611b158289898985613901565b7f00000000000000000000000000000000000000000000000000000000000000006001600160a01b0390811691161490565b611efc614dd9565b6000836001600160a01b03166318160ddd6040518163ffffffff1660e01b815260040160206040518083038186803b158015611f3757600080fd5b505afa158015611f4b573d6000803e3d6000fd5b505050506040513d601f19601f82011682018060405250810190611f6f9190615179565b90506000611f7c856113ff565b90506000816001600160a01b031663d8959512866040518263ffffffff1660e01b8152600401611fac9190615392565b60206040518083038186803b158015611fc457600080fd5b505afa158015611fd8573d6000803e3d6000fd5b505050506040513d601f19601f82011682018060405250810190611ffc9190615179565b9050604051806040016040528061201d60028461210b90919063ffffffff16565b8152602001939093525090949350505050565b6000806120568661204f6002886020015161210b90919063ffffffff16565b8751612145565b9050612101816120fc857f00000000000000000000000000000000000000000000000000000000000000006001600160a01b0316635121220c896040518263ffffffff1660e01b81526004016120ac9190615392565b60206040518083038186803b1580156120c457600080fd5b505afa1580156120d8573d6000803e3d6000fd5b505050506040513d601f19601f82011682018060405250810190611c1a9190615179565b6139dc565b9695505050505050565b60008261211a57506000611472565b8282028284828161212757fe5b04146115965760405162461bcd60e51b815260040161044d906157fa565b600061159882611c20868661210b565b600082841161216657506000611c95565b600061218f84860384608001516001600160801b03168560a001516001600160801b0316612145565b90507f00000000000000000000000000000000000000000000000000000000000000006001600160a01b031663a80c76ff6040518163ffffffff1660e01b815260040160206040518083038186803b1580156121ea57600080fd5b505afa1580156121fe573d6000803e3d6000fd5b505050506040513d601f19601f820116820180604052508101906122229190615179565b811061222f579050611c95565b506000949350505050565b612242614d44565b61224d84848461319f565b60208101516060820151604051631990807d60e11b81529293506001600160a01b037f0000000000000000000000000000000000000000000000000000000000000000169263332100fa926122a69290916004016153a6565b600060405180830381600087803b1580156122c057600080fd5b505af11580156122d4573d6000803e3d6000fd5b505050506122e58160400151611ec2565b156123aa576080810151612327906001600160a01b037f00000000000000000000000000000000000000000000000000000000000000001690869030906139eb565b6080810151604051630852cd8d60e31b81526001600160a01b037f000000000000000000000000000000000000000000000000000000000000000016916342966c68916123779190600401615500565b600060405180830381600087803b15801561239157600080fd5b505af11580156123a5573d6000803e3d6000fd5b505050505b6123b2614da4565b6123ce826020015183604001518460a001518560c00151611e27565b905061241081604001516001600160801b031682606001516001600160801b031683608001516001600160801b03168460a001516001600160801b0316613a0c565b60006124378360200151846040015185606001518660800151868860e00151611112611c9c565b90506124468360400151611ec2565b1561248c5761247a7f0000000000000000000000000000000000000000000000000000000000000000846020015183613b2f565b6124848682613c34565b505050611814565b612494614dd9565b6124a684602001518560400151611ef4565b905060006124bb838387602001516000612030565b90506124cb8560200151826112f9565b6124ff85602001518287604001517f0000000000000000000000000000000000000000000000000000000000000000613d77565b604085015160009061251a906001600160a01b031630613e1c565b6040870151909150612536906001600160a01b03168a83611819565b6000612543858388612155565b905080156126d7576040516370a0823160e01b81526000906001600160a01b037f000000000000000000000000000000000000000000000000000000000000000016906370a082319061259a903090600401615392565b60206040518083038186803b1580156125b257600080fd5b505afa1580156125c6573d6000803e3d6000fd5b505050506040513d601f19601f820116820180604052508101906125ea9190615179565b905081811015612677576040516340c10f1960e01b81526001600160a01b037f000000000000000000000000000000000000000000000000000000000000000016906340c10f1990612644903090858703906004016153a6565b600060405180830381600087803b15801561265e57600080fd5b505af1158015612672573d6000803e3d6000fd5b505050505b6126cb6001600160a01b037f0000000000000000000000000000000000000000000000000000000000000000167f000000000000000000000000000000000000000000000000000000000000000084612ec6565b6126d58b83613c34565b505b6040516370a0823160e01b81526000906001600160a01b037f000000000000000000000000000000000000000000000000000000000000000016906370a0823190612726903090600401615392565b60206040518083038186803b15801561273e57600080fd5b505afa158015612752573d6000803e3d6000fd5b505050506040513d601f19601f820116820180604052508101906127769190615179565b9050801561278c5761278c886020015182611687565b5050505050505050505050565b60006127a86020830183614ec8565b905060006127bc6040840160208501614ec8565b90506127c6614dd9565b6127d08383611ef4565b90506127da614dd9565b6127e2614dd9565b6127ec85856135fa565b9150915061280c8260000151836020015183600001518460200151613a0c565b600080808061281e60408b018b615b90565b9050905060005b8181101561294557612835614d44565b6128603361284660408f018f615b90565b8581811061285057fe5b90506020020135620f424061319f565b90508a6001600160a01b031681602001516001600160a01b031614801561289c5750896001600160a01b031681604001516001600160a01b0316145b6128b85760405162461bcd60e51b815260040161044d9061586b565b60608101516128c8908790611ca0565b95506128e1816080015186611ca090919063ffffffff16565b94506128eb614da4565b6128ff8260a001518360c001518b8b6136eb565b905061293661292f8b84606001518560800151856040518060400160405280600181526020016001815250613901565b8690611ca0565b94505050806001019050612825565b50604051631990807d60e11b81526001600160a01b037f0000000000000000000000000000000000000000000000000000000000000000169063332100fa90612994908c9088906004016153a6565b600060405180830381600087803b1580156129ae57600080fd5b505af11580156129c2573d6000803e3d6000fd5b505050506129cf88611ec2565b15612b54576129df308a84613b2f565b60405163095ea7b360e01b81526001600160a01b037f0000000000000000000000000000000000000000000000000000000000000000169063095ea7b390612a4d907f00000000000000000000000000000000000000000000000000000000000000009086906004016153a6565b602060405180830381600087803b158015612a6757600080fd5b505af1158015612a7b573d6000803e3d6000fd5b505050506040513d601f19601f82011682018060405250810190612a9f91906150bc565b50604051633d1c24e760e01b81526001600160a01b037f00000000000000000000000000000000000000000000000000000000000000001690633d1c24e790612b14907f0000000000000000000000000000000000000000000000000000000000000000903390879081908a906004016154cf565b600060405180830381600087803b158015612b2e57600080fd5b505af1158015612b42573d6000803e3d6000fd5b50505050505050505050505050611943565b6000612b6383898c6000612030565b9050612b6f8a826112f9565b612b9b8a828b7f0000000000000000000000000000000000000000000000000000000000000000613d77565b6000612bb06001600160a01b038b1630613e1c565b90506000612bc68b6001600160a01b0316611753565b15612bd2575080612c06565b612c066001600160a01b038c167f000000000000000000000000000000000000000000000000000000000000000084613ec1565b604051633d1c24e760e01b81526001600160a01b037f00000000000000000000000000000000000000000000000000000000000000001690633d1c24e7908390612c5c908f9033908b9089908e906004016154cf565b6000604051808303818588803b158015612c7557600080fd5b505af1158015612c89573d6000803e3d6000fd5b50506040516370a0823160e01b8152600093506001600160a01b037f00000000000000000000000000000000000000000000000000000000000000001692506370a082319150612cdd903090600401615392565b60206040518083038186803b158015612cf557600080fd5b505afa158015612d09573d6000803e3d6000fd5b505050506040513d601f19601f82011682018060405250810190612d2d9190615179565b90508015612d3f57612d3f8d82611687565b5050505050505050505050505050565b600082821115612d715760405162461bcd60e51b815260040161044d90615609565b50900390565b60035460ff168015612e245750604051634f2b8d3560e11b81526001600160a01b037f00000000000000000000000000000000000000000000000000000000000000001690639e571a6a90612dd290859085906004016153e0565b60206040518083038186803b158015612dea57600080fd5b505afa158015612dfe573d6000803e3d6000fd5b505050506040513d601f19601f82011682018060405250810190612e2291906150bc565b155b612e405760405162461bcd60e51b815260040161044d906155d2565b5050565b600081116119435760405162461bcd60e51b815260040161044d90615781565b6000612e6f83611ec2565b15612e9057612e7e6000613f84565b612e89858584613fa3565b9050611598565b612eb7612ea5846001600160a01b0316611753565b612eb0576000612eb2565b825b613f84565b611c2685858585614158565b90565b6118148363a9059cbb60e01b8484604051602401612ee59291906153a6565b60408051601f198184030181529190526020810180516001600160e01b03166001600160e01b0319909316929092179091526144ac565b600080846001600160a01b031663d8959512856040518263ffffffff1660e01b8152600401612f4b9190615392565b60206040518083038186803b158015612f6357600080fd5b505afa158015612f77573d6000803e3d6000fd5b505050506040513d601f19601f82011682018060405250810190612f9b9190615179565b604051636c4aca8960e11b81526001600160a01b0387169063d895951290612fc7908790600401615392565b60206040518083038186803b158015612fdf57600080fd5b505afa158015612ff3573d6000803e3d6000fd5b505050506040513d601f19601f82011682018060405250810190611e1a9190615179565b6000807f00000000000000000000000000000000000000000000000000000000000000006001600160a01b031663943fd08a846040518263ffffffff1660e01b81526004016130669190615392565b60206040518083038186803b15801561307e57600080fd5b505afa158015613092573d6000803e3d6000fd5b505050506040513d601f19601f820116820180604052508101906130b69190615179565b905060008111611472577f00000000000000000000000000000000000000000000000000000000000000006001600160a01b031663b97b55ce6040518163ffffffff1660e01b815260040160206040518083038186803b15801561311957600080fd5b505afa15801561312d573d6000803e3d6000fd5b505050506040513d601f19601f820116820180604052508101906131519190615179565b611c95565b6000818310156131665781611c95565b5090919050565b600080821161318e5760405162461bcd60e51b815260040161044d9061574a565b81838161319757fe5b049392505050565b6131a7614d44565b6131af614d44565b6131b9848661453b565b90506131c88160200151611946565b6131d0611c9c565b8160e00151106131f25760405162461bcd60e51b815260040161044d906157a9565b63ffffffff8316620f4240141561328657604051636f366b7160e01b81526001600160a01b037f00000000000000000000000000000000000000000000000000000000000000001690636f366b719061324f908790600401615500565b600060405180830381600087803b15801561326957600080fd5b505af115801561327d573d6000803e3d6000fd5b50505050613336565b606081015160808201516132a1828263ffffffff8816611dfb565b608085018190526060850182905260405163161139bd60e31b81526001600160a01b037f0000000000000000000000000000000000000000000000000000000000000000169263b089cde892613301928b92880391870390600401615b7a565b600060405180830381600087803b15801561331b57600080fd5b505af115801561332f573d6000803e3d6000fd5b5050505050505b7f00000000000000000000000000000000000000000000000000000000000000006001600160a01b03166327396b6d826000015183602001518460400151856060015186608001516040518663ffffffff1660e01b815260040161339e95949392919061541e565b600060405180830381600087803b1580156133b857600080fd5b505af11580156133cc573d6000803e3d6000fd5b5092979650505050505050565b60006133e3614dd9565b6133eb614dd9565b6133f588886135fa565b915091506134158260000151836020015183600001518460200151613a0c565b604051630aa558ef60e41b81526001600160a01b037f0000000000000000000000000000000000000000000000000000000000000000169063aa558ef090613469908c908c908c908c908c9060040161541e565b600060405180830381600087803b15801561348357600080fd5b505af1158015613497573d6000803e3d6000fd5b5050604051637ea5e0f360e11b81526001600160a01b037f000000000000000000000000000000000000000000000000000000000000000016925063fd4bc1e691506134e9908c908c906004016153e0565b602060405180830381600087803b15801561350357600080fd5b505af1158015613517573d6000803e3d6000fd5b505050506040513d601f19601f8201168201806040525081019061353b91906150bc565b50815160208301516040516361d5f08760e01b81526001600160a01b037f000000000000000000000000000000000000000000000000000000000000000016926361d5f0879261359b928e928e928e928e928e9290918e90600401615452565b602060405180830381600087803b1580156135b557600080fd5b505af11580156135c9573d6000803e3d6000fd5b505050506040513d601f19601f820116820180604052508101906135ed9190615179565b9998505050505050505050565b613602614dd9565b61360a614dd9565b6000613615856113ff565b905060006136238286611478565b9050600080613633848489612f1c565b91509150600080856001600160a01b0316631f0181bc8a6040518263ffffffff1660e01b81526004016136669190615392565b604080518083038186803b15801561367d57600080fd5b505afa158015613691573d6000803e3d6000fd5b505050506040513d601f19601f820116820180604052508101906136b5919061527b565b60408051808201825296875260208088019690965280518082019091529182529381019390935250919890975095505050505050565b6136f3614da4565b6001600160801b03848617111561370657fe5b506040805160c0810182526001600160801b03958616815293851660208086019190915283518616918501919091529182015184166060840152805184166080840152015190911660a082015290565b61375e614dd9565b600061376a8385612d4f565b905060007f00000000000000000000000000000000000000000000000000000000000000006001600160a01b0316632c560f896040518163ffffffff1660e01b815260040160206040518083038186803b1580156137c757600080fd5b505afa1580156137db573d6000803e3d6000fd5b505050506040513d601f19601f820116820180604052508101906137ff9190615179565b905060007f00000000000000000000000000000000000000000000000000000000000000006001600160a01b031663ce3f3adb6040518163ffffffff1660e01b815260040160206040518083038186803b15801561385c57600080fd5b505afa158015613870573d6000803e3d6000fd5b505050506040513d601f19601f820116820180604052508101906138949190615179565b9050818310156138bf5760405180604001604052806000815260200160018152509350505050611472565b8083106138e75760405180604001604052806001815260200160018152509350505050611472565b604080518082019091529283526020830152509392505050565b600061390b614dd9565b604051806040016040528085600001516001600160801b0316815260200185602001516001600160801b03168152509050613944614dd9565b50604080518082018252908501516001600160801b0390811682526060860151166020820152613972614dd9565b604051806040016040528087608001516001600160801b031681526020018760a001516001600160801b0316815250905060006139b1898b868661458b565b90506139bb614dd9565b6139c58584614690565b9050611127896139d58b85613156565b838a61475e565b60008183106131665781611c95565b610833846323b872dd60e01b858585604051602401612ee5939291906153fa565b60007f00000000000000000000000000000000000000000000000000000000000000006001600160a01b03166324a088686040518163ffffffff1660e01b815260040160206040518083038186803b158015613a6757600080fd5b505afa158015613a7b573d6000803e3d6000fd5b505050506040513d601f19601f82011682018060405250810190613a9f91906152e8565b620f42400363ffffffff1690506000613ac982611c1484611c14878b61210b90919063ffffffff16565b90506000613ae0620f4240611c1485818a8a61210b565b90506000613af7620f4240611c1481818c8a61210b565b9050818311158015613b095750808211155b613b255760405162461bcd60e51b815260040161044d906157d0565b5050505050505050565b604051636f566c2760e11b81526001600160a01b037f0000000000000000000000000000000000000000000000000000000000000000169063deacd84e90613b7d90859085906004016153a6565b600060405180830381600087803b158015613b9757600080fd5b505af1158015613bab573d6000803e3d6000fd5b50506040516340c10f1960e01b81526001600160a01b037f00000000000000000000000000000000000000000000000000000000000000001692506340c10f199150613bfd90869085906004016153a6565b600060405180830381600087803b158015613c1757600080fd5b505af1158015613c2b573d6000803e3d6000fd5b50505050505050565b6000613cd27f00000000000000000000000000000000000000000000000000000000000000006001600160a01b031663045544436040518163ffffffff1660e01b815260040160206040518083038186803b158015613c9257600080fd5b505afa158015613ca6573d6000803e3d6000fd5b505050506040513d601f19601f82011682018060405250810190613cca9190615179565b611c1a611c9c565b60405163dbae3a5d60e01b81529091506001600160a01b037f0000000000000000000000000000000000000000000000000000000000000000169063dbae3a5d90613d25908690869086906004016153bf565b602060405180830381600087803b158015613d3f57600080fd5b505af1158015613d53573d6000803e3d6000fd5b505050506040513d601f19601f820116820180604052508101906108339190615179565b6000613d82856113ff565b9050606080613d9185856115a0565b60405163b127c0a560e01b815291935091506001600160a01b0384169063b127c0a590613dc690899086908690600401615b41565b600060405180830381600087803b158015613de057600080fd5b505af1158015613df4573d6000803e3d6000fd5b505050506040513d6000823e601f3d908101601f19168201604052613b25919081019061500c565b6000613e2783611753565b15613e3d57506001600160a01b03811631611472565b613e4683612ec3565b6001600160a01b03166370a08231836040518263ffffffff1660e01b8152600401613e719190615392565b60206040518083038186803b158015613e8957600080fd5b505afa158015613e9d573d6000803e3d6000fd5b505050506040513d601f19601f82011682018060405250810190611c959190615179565b801580613f495750604051636eb1769f60e11b81526001600160a01b0384169063dd62ed3e90613ef790309086906004016153e0565b60206040518083038186803b158015613f0f57600080fd5b505afa158015613f23573d6000803e3d6000fd5b505050506040513d601f19601f82011682018060405250810190613f479190615179565b155b613f655760405162461bcd60e51b815260040161044d90615a22565b6118148363095ea7b360e01b8484604051602401612ee59291906153a6565b8034146119435760405162461bcd60e51b815260040161044d906158cf565b6000827f0000000000000000000000000000000000000000000000000000000000000000613fcf614dd9565b613fd98383611ef4565b90506000613ff08683602001518460000151612145565b604051630671a97960e21b81529091506001600160a01b037f000000000000000000000000000000000000000000000000000000000000000016906319c6a5e49061404190879085906004016153a6565b600060405180830381600087803b15801561405b57600080fd5b505af115801561406f573d6000803e3d6000fd5b50505050600061408a898686858b614085611c9c565b6133d9565b90506140c16001600160a01b037f00000000000000000000000000000000000000000000000000000000000000001633308a6139eb565b6140cb8888611687565b6040516340c10f1960e01b81526001600160a01b037f000000000000000000000000000000000000000000000000000000000000000016906340c10f1990614119908c908b906004016153a6565b600060405180830381600087803b15801561413357600080fd5b505af1158015614147573d6000803e3d6000fd5b50929b9a5050505050505050505050565b6000837f000000000000000000000000000000000000000000000000000000000000000082614186836113ff565b9050600080614196838986612f1c565b915091507f00000000000000000000000000000000000000000000000000000000000000006001600160a01b03166312588d0e6040518163ffffffff1660e01b815260040160206040518083038186803b1580156141f357600080fd5b505afa158015614207573d6000803e3d6000fd5b505050506040513d601f19601f8201168201806040525081019061422b9190615179565b81101561424a5760405162461bcd60e51b815260040161044d90615906565b6000614257888385612145565b905060006142648b613017565b905060006142b8837f00000000000000000000000000000000000000000000000000000000000000006001600160a01b031663350ed8e78f6040518263ffffffff1660e01b81526004016120ac9190615392565b9050818111156142da5760405162461bcd60e51b815260040161044d9061571a565b6142e5308d85613b2f565b6142f96001600160a01b03881687856147e0565b61430b8b6001600160a01b0316611753565b614338576143246001600160a01b038c1633308d614811565b6143386001600160a01b038c16878c6147e0565b614346868c898d873461484c565b6040516370a0823160e01b81526000906001600160a01b038a16906370a0823190614375903090600401615392565b60206040518083038186803b15801561438d57600080fd5b505afa1580156143a1573d6000803e3d6000fd5b505050506040513d601f19601f820116820180604052508101906143c59190615179565b90506143fb6001600160a01b038a167f000000000000000000000000000000000000000000000000000000000000000083612ec6565b604051631990807d60e11b81527f00000000000000000000000000000000000000000000000000000000000000006001600160a01b03169063332100fa9061444e908c90600286048603906004016153a6565b600060405180830381600087803b15801561446857600080fd5b505af115801561447c573d6000803e3d6000fd5b5050505061449a8e8a8e6002858161449057fe5b048f614085611c9c565b9e9d5050505050505050505050505050565b6060614501826040518060400160405280602081526020017f5361666545524332303a206c6f772d6c6576656c2063616c6c206661696c6564815250856001600160a01b031661498c9092919063ffffffff16565b805190915015611814578080602001905181019061451f91906150bc565b6118145760405162461bcd60e51b815260040161044d90615974565b614543614d44565b61454b614d44565b61455484611d14565b9050826001600160a01b031681600001516001600160a01b0316146115965760405162461bcd60e51b815260040161044d90615aa0565b82518151602084015160009283926145b092611c14916145ab919061210b565b61499b565b905060006145df8660200151611c146145da8760200151896000015161210b90919063ffffffff16565b6149bb565b9050818702878382816145ee57fe5b041415614609578181816145fe57fe5b049350505050611598565b60008089851161461a57898561461d565b848a5b9150915060008061463a8487856000198161463457fe5b04614a11565b9150915060006146548488878161464d57fe5b049061210b565b905081156146805761467181838686028161466b57fe5b04613156565b98505050505050505050611598565b9c9b505050505050505050505050565b614698614dd9565b602083015182516000916146ac919061210b565b845160208501519192506000916146c29161210b565b90508181026000828483816146d357fe5b04146146f1576146e2836149bb565b6146eb856149bb565b026146fa565b6146fa826149bb565b905060006147088585611ca0565b90506002810661473b57600281049050604051806040016040528083830381526020018281525095505050505050611472565b604080518082019091526002909202810382526020820152935050505092915050565b8051600090819061476f908761210b565b6020840151909150600061478c6147868484613156565b88613156565b90506000806147a988600001518960200151856000198161463457fe5b9092509050611b156147c86147be838761210b565b611c20858961210b565b611c1a83611c206147d98288612d4f565b8e9061210b565b6147e983611753565b156147f357611814565b611814828261480186612ec3565b6001600160a01b03169190614a59565b801580614822575061482284611753565b1561482c57610833565b61083383838361483b88612ec3565b6001600160a01b03169291906139eb565b604080516002808252606080830184529260208301908036833750506040805160028082526060808301845294955090925090602083019080368337019050509050868260008151811061489c57fe5b60200260200101906001600160a01b031690816001600160a01b03168152505085826001815181106148ca57fe5b60200260200101906001600160a01b031690816001600160a01b03168152505084816000815181106148f857fe5b602002602001018181525050838160018151811061491257fe5b6020908102919091010152604051637d8916bd60e01b81526001600160a01b03891690637d8916bd9085906149509086908690600190600401615499565b6000604051808303818588803b15801561496957600080fd5b505af115801561497d573d6000803e3d6000fd5b50505050505050505050505050565b60606115988484600085614b22565b6000806149a7836149bb565b905082818202146114725780600101611c95565b600080600283046001019050600060028285816149d457fe5b048301816149de57fe5b0490505b80821115614a0a5780915060028285816149f857fe5b04830181614a0257fe5b0490506149e2565b5092915050565b600080848484821180614a2357508481115b15614a3957614a33828287614bd8565b90925090505b808214614a4a579092509050611e1f565b50600196879650945050505050565b80614a6357611814565b604051636eb1769f60e11b81526000906001600160a01b0385169063dd62ed3e90614a9490309087906004016153e0565b60206040518083038186803b158015614aac57600080fd5b505afa158015614ac0573d6000803e3d6000fd5b505050506040513d601f19601f82011682018060405250810190614ae49190615179565b9050818110614af35750611814565b8015614b0e57614b0e6001600160a01b038516846000613ec1565b6108336001600160a01b0385168484613ec1565b606082471015614b445760405162461bcd60e51b815260040161044d906156d4565b614b4d85614c11565b614b695760405162461bcd60e51b815260040161044d9061593d565b60006060866001600160a01b03168587604051614b869190615376565b60006040518083038185875af1925050503d8060008114614bc3576040519150601f19603f3d011682016040523d82523d6000602084013e614bc8565b606091505b5091509150611e80828286614c17565b600080838511614bf657614bed858585614c50565b91509150611e1f565b600080614c04868887614c50565b9890975095505050505050565b3b151590565b60608315614c26575081611c95565b825115614c365782518084602001fd5b8160405162461bcd60e51b815260040161044d9190615509565b60008060008360001981614c6057fe5b04905080861115614c99576000816001018781614c7957fe5b046001019050808781614c8857fe5b049650808681614c9457fe5b049550505b848614614d04578584026000614caf8888614d14565b9050878110614cd5576000614cc48383614d18565b955050508385039250611e1f915050565b6002888803048703821015614cf35760008694509450505050611e1f565b600180870394509450505050611e1f565b5050600290910493849350915050565b0190565b6000600282048203828481614d2957fe5b0681614d3157fe5b04828481614d3b57fe5b04019392505050565b60405180610100016040528060006001600160a01b0316815260200160006001600160a01b0316815260200160006001600160a01b0316815260200160008152602001600081526020016000815260200160008152602001600081525090565b6040805160c081018252600080825260208201819052918101829052606081018290526080810182905260a081019190915290565b604051806040016040528060008152602001600081525090565b60008083601f840112614e04578182fd5b50813567ffffffffffffffff811115614e1b578182fd5b602083019150836020808302850101111561168057600080fd5b600082601f830112614e45578081fd5b815167ffffffffffffffff80821115614e5c578283fd5b602080830260405182828201018181108582111715614e79578687fd5b604052848152945081850192508582018187018301881015614e9a57600080fd5b600091505b84821015614ebd578051845292820192600191909101908201614e9f565b505050505092915050565b600060208284031215614ed9578081fd5b813561159681615c18565b600060208284031215614ef5578081fd5b815161159681615c18565b60008060008060808587031215614f15578283fd5b8435614f2081615c18565b93506020850135614f3081615c18565b92506040850135614f4081615c18565b9396929550929360600135925050565b600080600080600080600080610100898b031215614f6c578384fd5b8851614f7781615c18565b60208a0151909850614f8881615c18565b60408a0151909750614f9981615c18565b60608a015160808b015160a08c015160c08d015160e0909d01519b9e9a9d50929b919a9099929850909650945092505050565b60008060208385031215614fde578182fd5b823567ffffffffffffffff811115614ff4578283fd5b61500085828601614df3565b90969095509350505050565b60006020828403121561501d578081fd5b815167ffffffffffffffff811115615033578182fd5b61159884828501614e35565b60008060408385031215615051578182fd5b825167ffffffffffffffff80821115615068578384fd5b61507486838701614e35565b93506020850151915080821115615089578283fd5b5061509685828601614e35565b9150509250929050565b6000602082840312156150b1578081fd5b813561159681615c2d565b6000602082840312156150cd578081fd5b815161159681615c2d565b6000806000606084860312156150ec578081fd5b83356150f781615c18565b9250602084013561510781615c18565b929592945050506040919091013590565b600080600080600080600060e0888a031215615132578081fd5b873561513d81615c18565b9650602088013561514d81615c18565b96999698505050506040850135946060810135946080820135945060a0820135935060c0909101359150565b60006020828403121561518a578081fd5b5051919050565b600080604083850312156151a3578182fd5b8235915060208301356151b581615c18565b809150509250929050565b6000806000806000608086880312156151d7578283fd5b8535945060208601356151e981615c18565b935060408601356151f981615c18565b9250606086013567ffffffffffffffff80821115615215578283fd5b818801915088601f830112615228578283fd5b813581811115615236578384fd5b896020828501011115615247578384fd5b9699959850939650602001949392505050565b6000806040838503121561526c578182fd5b50508035926020909101359150565b6000806040838503121561528d578182fd5b505080516020909101519092909150565b600080604083850312156152b0578182fd5b8235915060208301356151b581615c3b565b6000806000606084860312156152d6578081fd5b83359250602084013561510781615c3b565b6000602082840312156152f9578081fd5b815161159681615c3b565b6000815180845260208085019450808401835b8381101561533c5781516001600160a01b031687529582019590820190600101615317565b509495945050505050565b6000815180845260208085019450808401835b8381101561533c5781518752958201959082019060010161535a565b60008251615388818460208701615bec565b9190910192915050565b6001600160a01b0391909116815260200190565b6001600160a01b03929092168252602082015260400190565b6001600160a01b039390931683526020830191909152604082015260600190565b6001600160a01b0392831681529116602082015260400190565b6001600160a01b039384168152919092166020820152604081019190915260600190565b6001600160a01b03958616815293851660208501529190931660408301526060820192909252608081019190915260a00190565b6001600160a01b03988916815296881660208801529490961660408601526060850192909252608084015260a083015260c082019290925260e08101919091526101000190565b6000606082526154ac6060830186615304565b82810360208401526154be8186615347565b915050826040830152949350505050565b6001600160a01b03958616815293909416602084015260408301919091526060820152608081019190915260a00190565b90815260200190565b6000602082528251806020840152615528816040850160208701615bec565b601f01601f19169190910160400192915050565b6020808252601b908201527f536166654d6174683a206164646974696f6e206f766572666c6f770000000000604082015260600190565b6020808252600e908201526d22a9292fa9a0a6a2afa7aba722a960911b604082015260600190565b60208082526018908201527f4552525f504f4f4c5f4e4f545f57484954454c49535445440000000000000000604082015260600190565b6020808252601a908201527f4552525f4144445f4c49515549444954595f44495341424c4544000000000000604082015260600190565b6020808252601e908201527f536166654d6174683a207375627472616374696f6e206f766572666c6f770000604082015260600190565b6020808252603a908201527f416464726573733a20756e61626c6520746f2073656e642076616c75652c207260408201527f6563697069656e74206d61792068617665207265766572746564000000000000606082015260800190565b6020808252601d908201527f416464726573733a20696e73756666696369656e742062616c616e6365000000604082015260600190565b60208082526026908201527f416464726573733a20696e73756666696369656e742062616c616e636520666f6040820152651c8818d85b1b60d21b606082015260800190565b60208082526016908201527511549497d3505617d05353d5539517d4915050d2115160521b604082015260600190565b6020808252601a908201527f536166654d6174683a206469766973696f6e206279207a65726f000000000000604082015260600190565b6020808252600e908201526d4552525f5a45524f5f56414c554560901b604082015260600190565b6020808252600d908201526c4552525f544f4f5f4541524c5960981b604082015260600190565b60208082526010908201526f4552525f494e56414c49445f5241544560801b604082015260600190565b60208082526021908201527f536166654d6174683a206d756c7469706c69636174696f6e206f766572666c6f6040820152607760f81b606082015260800190565b60208082526016908201527511549497d413d3d317d393d517d4d5541413d495115160521b604082015260600190565b60208082526019908201527f4552525f494e56414c49445f504f534954494f4e5f4c49535400000000000000604082015260600190565b6020808252601390820152724552525f494e56414c49445f4144445245535360681b604082015260600190565b60208082526017908201527f4552525f4554485f414d4f554e545f4d49534d41544348000000000000000000604082015260600190565b60208082526018908201527f4552525f4e4f545f454e4f5547485f4c49515549444954590000000000000000604082015260600190565b6020808252601d908201527f416464726573733a2063616c6c20746f206e6f6e2d636f6e7472616374000000604082015260600190565b6020808252602a908201527f5361666545524332303a204552433230206f7065726174696f6e20646964206e6040820152691bdd081cdd58d8d9595960b21b606082015260800190565b60208082526013908201527222a9292fa4a72b20a624a22fa827a92a24a7a760691b604082015260600190565b6020808252601f908201527f5265656e7472616e637947756172643a207265656e7472616e742063616c6c00604082015260600190565b60208082526036908201527f5361666545524332303a20617070726f76652066726f6d206e6f6e2d7a65726f60408201527520746f206e6f6e2d7a65726f20616c6c6f77616e636560501b606082015260800190565b6020808252600e908201526d11549497d253959053125117d25160921b604082015260600190565b60208082526011908201527011549497d050d0d154d4d7d11153925151607a1b604082015260600190565b60208082526015908201527404552525f494e56414c49445f54494d455354414d5605c1b604082015260600190565b8481526001600160a01b03841660208201526060604082018190528101829052600082846080840137818301608090810191909152601f909201601f191601019392505050565b600084825260606020830152615b5a6060830185615304565b82810360408401526121018185615347565b918252602082015260400190565b9283526020830191909152604082015260600190565b6000808335601e19843603018112615ba6578283fd5b83018035915067ffffffffffffffff821115615bc0578283fd5b602090810192508102360382131561168057600080fd5b60008235605e19833603018112615388578182fd5b60005b83811015615c07578181015183820152602001615bef565b838111156108335750506000910152565b6001600160a01b038116811461194357600080fd5b801515811461194357600080fd5b63ffffffff8116811461194357600080fdfea164736f6c634300060c000a"
}