{
  "address": "0x73ED6d3f4941F7B3B065C5e7D37365167A0c2898",
  "abi": [
    {
      "inputs": [
        {
          "internalType": "contract IBancorNetwork",
          "name": "initNetwork",
          "type": "address"
        },
        {
          "internalType": "contract INetworkSettings",
          "name": "initNetworkSettings",
          "type": "address"
        },
        {
          "internalType": "contract IERC20",
          "name": "initBNT",
          "type": "address"
        },
        {
          "internalType": "contract IBNTPool",
          "name": "initBNTPool",
          "type": "address"
        },
        {
          "internalType": "contract IExternalRewardsVault",
          "name": "initExternalRewardsVault",
          "type": "address"
        }
      ],
      "stateMutability": "nonpayable",
      "type": "constructor"
    },
    {
      "inputs": [],
      "name": "AccessDenied",
      "type": "error"
    },
    {
      "inputs": [],
      "name": "AlreadyExists",
      "type": "error"
    },
    {
      "inputs": [],
      "name": "AlreadyInitialized",
      "type": "error"
    },
    {
      "inputs": [],
      "name": "DoesNotExist",
      "type": "error"
    },
    {
      "inputs": [],
      "name": "InsufficientFunds",
      "type": "error"
    },
    {
      "inputs": [],
      "name": "InvalidAddress",
      "type": "error"
    },
    {
      "inputs": [],
      "name": "InvalidParam",
      "type": "error"
    },
    {
      "inputs": [],
      "name": "NotWhitelisted",
      "type": "error"
    },
    {
      "inputs": [],
      "name": "Overflow",
      "type": "error"
    },
    {
      "inputs": [],
      "name": "ZeroValue",
      "type": "error"
    },
    {
      "anonymous": false,
      "inputs": [
        {
          "indexed": false,
          "internalType": "uint256",
          "name": "prevCount",
          "type": "uint256"
        },
        {
          "indexed": false,
          "internalType": "uint256",
          "name": "newCount",
          "type": "uint256"
        }
      ],
      "name": "AutoProcessRewardsCountUpdated",
      "type": "event"
    },
    {
      "anonymous": false,
      "inputs": [
        {
          "indexed": true,
          "internalType": "contract Token",
          "name": "pool",
          "type": "address"
        },
        {
          "indexed": false,
          "internalType": "uint256",
          "name": "totalRewards",
          "type": "uint256"
        },
        {
          "indexed": false,
          "internalType": "uint32",
          "name": "startTime",
          "type": "uint32"
        },
        {
          "indexed": false,
          "internalType": "uint32",
          "name": "halfLife",
          "type": "uint32"
        }
      ],
      "name": "ExpDecayProgramCreated",
      "type": "event"
    },
    {
      "anonymous": false,
      "inputs": [
        {
          "indexed": true,
          "internalType": "contract Token",
          "name": "pool",
          "type": "address"
        },
        {
          "indexed": false,
          "internalType": "uint256",
          "name": "totalRewards",
          "type": "uint256"
        },
        {
          "indexed": false,
          "internalType": "uint32",
          "name": "startTime",
          "type": "uint32"
        },
        {
          "indexed": false,
          "internalType": "uint32",
          "name": "endTime",
          "type": "uint32"
        }
      ],
      "name": "FlatProgramCreated",
      "type": "event"
    },
    {
      "anonymous": false,
      "inputs": [
        {
          "indexed": true,
          "internalType": "contract Token",
          "name": "pool",
          "type": "address"
        },
        {
          "indexed": false,
          "internalType": "bool",
          "name": "paused",
          "type": "bool"
        }
      ],
      "name": "ProgramPaused",
      "type": "event"
    },
    {
      "anonymous": false,
      "inputs": [
        {
          "indexed": true,
          "internalType": "contract Token",
          "name": "pool",
          "type": "address"
        },
        {
          "indexed": false,
          "internalType": "uint32",
          "name": "endTime",
          "type": "uint32"
        },
        {
          "indexed": false,
          "internalType": "uint256",
          "name": "remainingRewards",
          "type": "uint256"
        }
      ],
      "name": "ProgramTerminated",
      "type": "event"
    },
    {
      "anonymous": false,
      "inputs": [
        {
          "indexed": true,
          "internalType": "contract Token",
          "name": "pool",
          "type": "address"
        },
        {
          "indexed": false,
          "internalType": "uint256",
          "name": "rewardsAmount",
          "type": "uint256"
        },
        {
          "indexed": false,
          "internalType": "uint256",
          "name": "poolTokenAmount",
          "type": "uint256"
        },
        {
          "indexed": false,
          "internalType": "uint256",
          "name": "remainingRewards",
          "type": "uint256"
        }
      ],
      "name": "RewardsDistributed",
      "type": "event"
    },
    {
      "anonymous": false,
      "inputs": [
        {
          "indexed": true,
          "internalType": "bytes32",
          "name": "role",
          "type": "bytes32"
        },
        {
          "indexed": true,
          "internalType": "bytes32",
          "name": "previousAdminRole",
          "type": "bytes32"
        },
        {
          "indexed": true,
          "internalType": "bytes32",
          "name": "newAdminRole",
          "type": "bytes32"
        }
      ],
      "name": "RoleAdminChanged",
      "type": "event"
    },
    {
      "anonymous": false,
      "inputs": [
        {
          "indexed": true,
          "internalType": "bytes32",
          "name": "role",
          "type": "bytes32"
        },
        {
          "indexed": true,
          "internalType": "address",
          "name": "account",
          "type": "address"
        },
        {
          "indexed": true,
          "internalType": "address",
          "name": "sender",
          "type": "address"
        }
      ],
      "name": "RoleGranted",
      "type": "event"
    },
    {
      "anonymous": false,
      "inputs": [
        {
          "indexed": true,
          "internalType": "bytes32",
          "name": "role",
          "type": "bytes32"
        },
        {
          "indexed": true,
          "internalType": "address",
          "name": "account",
          "type": "address"
        },
        {
          "indexed": true,
          "internalType": "address",
          "name": "sender",
          "type": "address"
        }
      ],
      "name": "RoleRevoked",
      "type": "event"
    },
    {
      "inputs": [],
      "name": "DEFAULT_ADMIN_ROLE",
      "outputs": [
        {
          "internalType": "bytes32",
          "name": "",
          "type": "bytes32"
        }
      ],
      "stateMutability": "view",
      "type": "function"
    },
    {
      "inputs": [],
      "name": "autoProcessRewards",
      "outputs": [],
      "stateMutability": "nonpayable",
      "type": "function"
    },
    {
      "inputs": [],
      "name": "autoProcessRewardsCount",
      "outputs": [
        {
          "internalType": "uint256",
          "name": "",
          "type": "uint256"
        }
      ],
      "stateMutability": "view",
      "type": "function"
    },
    {
      "inputs": [
        {
          "internalType": "contract Token",
          "name": "pool",
          "type": "address"
        },
        {
          "internalType": "uint256",
          "name": "totalRewards",
          "type": "uint256"
        },
        {
          "internalType": "uint32",
          "name": "startTime",
          "type": "uint32"
        },
        {
          "internalType": "uint32",
          "name": "halfLife",
          "type": "uint32"
        }
      ],
      "name": "createExpDecayProgram",
      "outputs": [],
      "stateMutability": "nonpayable",
      "type": "function"
    },
    {
      "inputs": [
        {
          "internalType": "contract Token",
          "name": "pool",
          "type": "address"
        },
        {
          "internalType": "uint256",
          "name": "totalRewards",
          "type": "uint256"
        },
        {
          "internalType": "uint32",
          "name": "startTime",
          "type": "uint32"
        },
        {
          "internalType": "uint32",
          "name": "endTime",
          "type": "uint32"
        }
      ],
      "name": "createFlatProgram",
      "outputs": [],
      "stateMutability": "nonpayable",
      "type": "function"
    },
    {
      "inputs": [
        {
          "internalType": "bytes32",
          "name": "role",
          "type": "bytes32"
        }
      ],
      "name": "getRoleAdmin",
      "outputs": [
        {
          "internalType": "bytes32",
          "name": "",
          "type": "bytes32"
        }
      ],
      "stateMutability": "view",
      "type": "function"
    },
    {
      "inputs": [
        {
          "internalType": "bytes32",
          "name": "role",
          "type": "bytes32"
        },
        {
          "internalType": "uint256",
          "name": "index",
          "type": "uint256"
        }
      ],
      "name": "getRoleMember",
      "outputs": [
        {
          "internalType": "address",
          "name": "",
          "type": "address"
        }
      ],
      "stateMutability": "view",
      "type": "function"
    },
    {
      "inputs": [
        {
          "internalType": "bytes32",
          "name": "role",
          "type": "bytes32"
        }
      ],
      "name": "getRoleMemberCount",
      "outputs": [
        {
          "internalType": "uint256",
          "name": "",
          "type": "uint256"
        }
      ],
      "stateMutability": "view",
      "type": "function"
    },
    {
      "inputs": [
        {
          "internalType": "bytes32",
          "name": "role",
          "type": "bytes32"
        },
        {
          "internalType": "address",
          "name": "account",
          "type": "address"
        }
      ],
      "name": "grantRole",
      "outputs": [],
      "stateMutability": "nonpayable",
      "type": "function"
    },
    {
      "inputs": [
        {
          "internalType": "bytes32",
          "name": "role",
          "type": "bytes32"
        },
        {
          "internalType": "address",
          "name": "account",
          "type": "address"
        }
      ],
      "name": "hasRole",
      "outputs": [
        {
          "internalType": "bool",
          "name": "",
          "type": "bool"
        }
      ],
      "stateMutability": "view",
      "type": "function"
    },
    {
      "inputs": [],
      "name": "initialize",
      "outputs": [],
      "stateMutability": "nonpayable",
      "type": "function"
    },
    {
      "inputs": [
        {
          "internalType": "contract Token",
          "name": "pool",
          "type": "address"
        }
      ],
      "name": "isProgramActive",
      "outputs": [
        {
          "internalType": "bool",
          "name": "",
          "type": "bool"
        }
      ],
      "stateMutability": "view",
      "type": "function"
    },
    {
      "inputs": [
        {
          "internalType": "contract Token",
          "name": "pool",
          "type": "address"
        }
      ],
      "name": "isProgramPaused",
      "outputs": [
        {
          "internalType": "bool",
          "name": "",
          "type": "bool"
        }
      ],
      "stateMutability": "view",
      "type": "function"
    },
    {
      "inputs": [
        {
          "internalType": "contract Token",
          "name": "pool",
          "type": "address"
        },
        {
          "internalType": "bool",
          "name": "pause",
          "type": "bool"
        }
      ],
      "name": "pauseProgram",
      "outputs": [],
      "stateMutability": "nonpayable",
      "type": "function"
    },
    {
      "inputs": [],
      "name": "pools",
      "outputs": [
        {
          "internalType": "address[]",
          "name": "",
          "type": "address[]"
        }
      ],
      "stateMutability": "view",
      "type": "function"
    },
    {
      "inputs": [
        {
          "internalType": "bytes",
          "name": "data",
          "type": "bytes"
        }
      ],
      "name": "postUpgrade",
      "outputs": [],
      "stateMutability": "nonpayable",
      "type": "function"
    },
    {
      "inputs": [
        {
          "internalType": "contract Token",
          "name": "pool",
          "type": "address"
        }
      ],
      "name": "processRewards",
      "outputs": [],
      "stateMutability": "nonpayable",
      "type": "function"
    },
    {
      "inputs": [
        {
          "internalType": "contract Token",
          "name": "pool",
          "type": "address"
        }
      ],
      "name": "program",
      "outputs": [
        {
          "components": [
            {
              "internalType": "uint32",
              "name": "startTime",
              "type": "uint32"
            },
            {
              "internalType": "uint32",
              "name": "endTime",
              "type": "uint32"
            },
            {
              "internalType": "uint32",
              "name": "halfLife",
              "type": "uint32"
            },
            {
              "internalType": "uint32",
              "name": "prevDistributionTimestamp",
              "type": "uint32"
            },
            {
              "internalType": "contract IPoolToken",
              "name": "poolToken",
              "type": "address"
            },
            {
              "internalType": "bool",
              "name": "isPaused",
              "type": "bool"
            },
            {
              "internalType": "uint8",
              "name": "distributionType",
              "type": "uint8"
            },
            {
              "internalType": "uint256",
              "name": "totalRewards",
              "type": "uint256"
            },
            {
              "internalType": "uint256",
              "name": "remainingRewards",
              "type": "uint256"
            }
          ],
          "internalType": "struct ProgramData",
          "name": "",
          "type": "tuple"
        }
      ],
      "stateMutability": "view",
      "type": "function"
    },
    {
      "inputs": [],
      "name": "programs",
      "outputs": [
        {
          "components": [
            {
              "internalType": "uint32",
              "name": "startTime",
              "type": "uint32"
            },
            {
              "internalType": "uint32",
              "name": "endTime",
              "type": "uint32"
            },
            {
              "internalType": "uint32",
              "name": "halfLife",
              "type": "uint32"
            },
            {
              "internalType": "uint32",
              "name": "prevDistributionTimestamp",
              "type": "uint32"
            },
            {
              "internalType": "contract IPoolToken",
              "name": "poolToken",
              "type": "address"
            },
            {
              "internalType": "bool",
              "name": "isPaused",
              "type": "bool"
            },
            {
              "internalType": "uint8",
              "name": "distributionType",
              "type": "uint8"
            },
            {
              "internalType": "uint256",
              "name": "totalRewards",
              "type": "uint256"
            },
            {
              "internalType": "uint256",
              "name": "remainingRewards",
              "type": "uint256"
            }
          ],
          "internalType": "struct ProgramData[]",
          "name": "",
          "type": "tuple[]"
        }
      ],
      "stateMutability": "view",
      "type": "function"
    },
    {
      "inputs": [
        {
          "internalType": "bytes32",
          "name": "role",
          "type": "bytes32"
        },
        {
          "internalType": "address",
          "name": "account",
          "type": "address"
        }
      ],
      "name": "renounceRole",
      "outputs": [],
      "stateMutability": "nonpayable",
      "type": "function"
    },
    {
      "inputs": [
        {
          "internalType": "bytes32",
          "name": "role",
          "type": "bytes32"
        },
        {
          "internalType": "address",
          "name": "account",
          "type": "address"
        }
      ],
      "name": "revokeRole",
      "outputs": [],
      "stateMutability": "nonpayable",
      "type": "function"
    },
    {
      "inputs": [],
      "name": "roleAdmin",
      "outputs": [
        {
          "internalType": "bytes32",
          "name": "",
          "type": "bytes32"
        }
      ],
      "stateMutability": "pure",
      "type": "function"
    },
    {
      "inputs": [
        {
          "internalType": "uint256",
          "name": "newCount",
          "type": "uint256"
        }
      ],
      "name": "setAutoProcessRewardsCount",
      "outputs": [],
      "stateMutability": "nonpayable",
      "type": "function"
    },
    {
      "inputs": [
        {
          "internalType": "bytes4",
          "name": "interfaceId",
          "type": "bytes4"
        }
      ],
      "name": "supportsInterface",
      "outputs": [
        {
          "internalType": "bool",
          "name": "",
          "type": "bool"
        }
      ],
      "stateMutability": "view",
      "type": "function"
    },
    {
      "inputs": [
        {
          "internalType": "contract Token",
          "name": "pool",
          "type": "address"
        }
      ],
      "name": "terminateProgram",
      "outputs": [],
      "stateMutability": "nonpayable",
      "type": "function"
    },
    {
      "inputs": [],
      "name": "version",
      "outputs": [
        {
          "internalType": "uint16",
          "name": "",
          "type": "uint16"
        }
      ],
      "stateMutability": "pure",
      "type": "function"
    }
  ],
  "transactionHash": "0x7d642a7cfbd11b8ecc192fb860dc7a24c418d81e583b38e229ff924b7c3340aa",
  "args": [
    "0xeEF417e1D5CC832e619ae18D2F140De2999dD4fB",
    "0x83E1814ba31F7ea95D216204BB45FE75Ce09b14F",
    "0x1F573D6Fb3F13d689FF844B4cE37794d79a7FF1C",
    "0x02651E355D26f3506C1E644bA393FDD9Ac95EaCa",
    "0x2A2A2BE5cCf20F3633c6ca2D429Ac51186a631e1"
  ],
  "numDeployments": 1,
  "solcInputHash": "d39fbe611977aa2f76f0f92072f1d3a3",
  "bytecode": "0x6101406040523480156200001257600080fd5b50604051620034ff380380620034ff83398101604081905262000035916200015c565b8462000041816200011b565b846200004d816200011b565b8462000059816200011b565b8462000065816200011b565b8462000071816200011b565b6001600160a01b03808b1660805289811660a05288811660c052871660e0819052604080516332f7ce0b60e21b8152905163cbdf382c916004808201926020929091908290030181865afa158015620000ce573d6000803e3d6000fd5b505050506040513d601f19601f82011682018060405250810190620000f49190620001dc565b6001600160a01b039081166101005295909516610120525062000203975050505050505050565b6001600160a01b038116620001435760405163e6c4247b60e01b815260040160405180910390fd5b50565b6001600160a01b03811681146200014357600080fd5b600080600080600060a086880312156200017557600080fd5b8551620001828162000146565b6020870151909550620001958162000146565b6040870151909450620001a88162000146565b6060870151909350620001bb8162000146565b6080870151909250620001ce8162000146565b809150509295509295909350565b600060208284031215620001ef57600080fd5b8151620001fc8162000146565b9392505050565b60805160a05160c05160e05161010051610120516132896200027660003960008181611bfb0152611d3301526000611022015260008181611ad20152611d59015260008181610ff601528181611a930152611cff0152600061106501526000818161110c0152611b6b01526132896000f3fe608060405234801561001057600080fd5b506004361061018e5760003560e01c80639010d07c116100de578063afc73e5611610097578063ca15c87311610071578063ca15c8731461037c578063ce2714901461038f578063d547741f146103af578063fce6be0b146103c257600080fd5b8063afc73e561461034b578063bfdbb4ac1461035e578063c5c51dca1461036757600080fd5b80639010d07c146102d657806391d148541461030157806393867fb514610314578063a217fddf14610328578063a24ef3fb14610330578063ae47796a1461033857600080fd5b806336568abe1161014b5780635cfc29f6116101255780635cfc29f6146102955780638129fc1c146102a85780638cd2403d146102b05780638ed68fb4146102c357600080fd5b806336568abe1461023c57806354fd4d501461024f578063557f07e21461025e57600080fd5b806301ffc9a714610193578063066ca449146101bb578063228dea4c146101d057806323cfcb10146101e5578063248a9ca3146101f85780632f2ff15d14610229575b600080fd5b6101a66101a1366004612c09565b6103d5565b60405190151581526020015b60405180910390f35b6101ce6101c9366004612c61565b610400565b005b6101d86104f8565b6040516101b29190612d46565b6101ce6101f3366004612d95565b61065b565b61021b610206366004612db2565b60009081526097602052604090206001015490565b6040519081526020016101b2565b6101ce610237366004612dcb565b610696565b6101ce61024a366004612dcb565b6106c1565b604051600181526020016101b2565b6101a661026c366004612d95565b6001600160a01b0316600090815261012d6020526040902060010154600160a01b900460ff1690565b6101ce6102a3366004612e09565b61073f565b6101ce6108d7565b6101ce6102be366004612e37565b610998565b6101ce6102d1366004612db2565b6109e9565b6102e96102e4366004612ea9565b610a14565b6040516001600160a01b0390911681526020016101b2565b6101a661030f366004612dcb565b610a33565b60008051602061325d83398151915261021b565b61021b600081565b6101ce610a5e565b6101ce610346366004612c61565b610b40565b6101a6610359366004612d95565b610c1c565b6101305461021b565b61036f610d2c565b6040516101b29190612ecb565b61021b61038a366004612db2565b610d3e565b6103a261039d366004612d95565b610d55565b6040516101b29190612f0c565b6101ce6103bd366004612dcb565b610e09565b6101ce6103d0366004612d95565b610e2f565b60006001600160e01b03198216635a05180f60e01b14806103fa57506103fa82610e7f565b92915050565b8361040a81610eb4565b8361041481610edb565b61042c60008051602061325d83398151915233610efc565b6002603354036104575760405162461bcd60e51b815260040161044e90612f1b565b60405180910390fd5b600260335563ffffffff8084169085161061048557604051633494a40d60e21b815260040160405180910390fd5b6104958686600087876000610f23565b6040805186815263ffffffff80871660208301528516918101919091526001600160a01b038716907f427740e0cc2a83abf623cd0c7b5914311900113df8c32f2111e117af7ec27b0b906060015b60405180910390a25050600160335550505050565b6060600061050761012e6113a0565b905060008167ffffffffffffffff81111561052457610524612f52565b60405190808252806020026020018201604052801561055d57816020015b61054a612bbd565b8152602001906001900390816105425790505b50905060005b828110156106545761012d600061057c61012e846113aa565b6001600160a01b0390811682526020808301939093526040918201600020825161012081018452815463ffffffff8082168352600160201b8204811696830196909652600160401b8104861694820194909452600160601b90930490931660608301526001830154908116608083015260ff600160a01b82048116151560a0840152600160a81b9091041660c0820152600282015460e0820152600390910154610100820152825183908390811061063657610636612f68565b6020026020010181905250808061064c90612f94565b915050610563565b5092915050565b60026033540361067d5760405162461bcd60e51b815260040161044e90612f1b565b600260335561068d8160006113b6565b50506001603355565b6000828152609760205260409020600101546106b281336117a6565b6106bc838361180a565b505050565b6001600160a01b03811633146107315760405162461bcd60e51b815260206004820152602f60248201527f416363657373436f6e74726f6c3a2063616e206f6e6c792072656e6f756e636560448201526e103937b632b9903337b91039b2b63360891b606482015260840161044e565b61073b828261182c565b5050565b61075760008051602061325d83398151915233610efc565b6002603354036107795760405162461bcd60e51b815260040161044e90612f1b565b600260338190556001600160a01b03838116600090815261012d6020908152604091829020825161012081018452815463ffffffff8082168352600160201b8204811694830194909452600160401b8104841694820194909452600160601b909304909116606083015260018101549283166080830181905260ff600160a01b85048116151560a0850152600160a81b90940490931660c08301529283015460e08201526003909201546101008301526108465760405163b0ce759160e01b815260040160405180910390fd5b60a08101518215158115150361085d57505061068d565b6001600160a01b038416600081815261012d6020526040908190206001018054861515600160a01b0260ff60a01b19909116179055517ff04e5ae6485687a4fd92bd206c45059bbc50fbd71bd6d103deee02c0e4858aa3906108c490861515815260200190565b60405180910390a2505050506001603355565b600054610100900460ff166108f25760005460ff16156108f6565b303b155b6109595760405162461bcd60e51b815260206004820152602e60248201527f496e697469616c697a61626c653a20636f6e747261637420697320616c72656160448201526d191e481a5b9a5d1a585b1a5e995960921b606482015260840161044e565b600054610100900460ff1615801561097b576000805461ffff19166101011790555b61098361184e565b8015610995576000805461ff00191690555b50565b60fb546000906109ad9061ffff166001612fad565b905061ffff81166001146109d35760405162dc149f60e41b815260040160405180910390fd5b60fb805461ffff191661ffff8316179055505050565b806109f381610edb565b610a0b60008051602061325d83398151915233610efc565b61073b8261188f565b600082815260c960205260408120610a2c90836113aa565b9392505050565b60009182526097602090815260408084206001600160a01b0393909316845291905290205460ff1690565b600260335403610a805760405162461bcd60e51b815260040161044e90612f1b565b60026033556000610a9261012e6113a0565b6101315461013054919250906000610ab4610aae600284612fd3565b856118e1565b905060005b81811015610b26576000610ae3610adc610ad38888613008565b61012e906113aa565b60016113b6565b905084610aef81612f94565b9550508015610b135783610b028161301c565b94505083600003610b135750610b26565b5080610b1e81612f94565b915050610ab9565b50610b318484613008565b61013155505060016033555050565b83610b4a81610eb4565b83610b5481610edb565b610b6c60008051602061325d83398151915233610efc565b600260335403610b8e5760405162461bcd60e51b815260040161044e90612f1b565b600260335563ffffffff8316600003610bba57604051633494a40d60e21b815260040160405180910390fd5b610bca8686600187600088610f23565b6040805186815263ffffffff80871660208301528516918101919091526001600160a01b038716907fef1b64d71be160c09852378cab79535f4e053cf73defcf8df2a402ba77a4dd0a906060016104e3565b6001600160a01b03818116600090815261012d60209081526040808320815161012081018352815463ffffffff8082168352600160201b8204811695830195909552600160401b8104851693820193909352600160601b909204909216606082015260018201549384166080820181905260ff600160a01b86048116151560a0840152600160a81b90950490941660c0820152600282015460e08201526003909101546101008201529091610cd45750600092915050565b60c0810151429060ff1660001901610cfa57905163ffffffff9182169116111592915050565b815163ffffffff808316911611801590610d245750816020015163ffffffff168163ffffffff1611155b949350505050565b6060610d3961012e6118f7565b905090565b600081815260c9602052604081206103fa906113a0565b610d5d612bbd565b506001600160a01b03908116600090815261012d6020908152604091829020825161012081018452815463ffffffff8082168352600160201b8204811694830194909452600160401b8104841694820194909452600160601b90930490911660608301526001810154928316608083015260ff600160a01b84048116151560a0840152600160a81b90930490921660c0820152600282015460e082015260039091015461010082015290565b600082815260976020526040902060010154610e2581336117a6565b6106bc838361182c565b610e4760008051602061325d83398151915233610efc565b600260335403610e695760405162461bcd60e51b815260040161044e90612f1b565b6002603355610e7781611904565b506001603355565b60006001600160e01b03198216637965db0b60e01b14806103fa57506301ffc9a760e01b6001600160e01b03198316146103fa565b6001600160a01b0381166109955760405163e6c4247b60e01b815260040160405180910390fd5b8060000361099557604051637c946ed760e01b815260040160405180910390fd5b610f068282610a33565b61073b57604051634ca8886760e01b815260040160405180910390fd5b6001600160a01b03868116600090815261012d6020908152604091829020825161012081018452815463ffffffff8082168352600160201b8204811694830194909452600160401b8104841694820194909452600160601b909304909116606083015260018101549283166080830181905260ff600160a01b85048116151560a0850152600160a81b90940490931660c0830152600281015460e0830152600301546101009091015215610fea5760405163119b4fd360e11b815260040160405180910390fd5b60006001600160a01b037f000000000000000000000000000000000000000000000000000000000000000081169088160361104657507f00000000000000000000000000000000000000000000000000000000000000006111e6565b60405163b5af090f60e01b81526001600160a01b0388811660048301527f0000000000000000000000000000000000000000000000000000000000000000169063b5af090f90602401602060405180830381865afa1580156110ac573d6000803e3d6000fd5b505050506040513d601f19601f820116820180604052508101906110d09190613033565b6110ed57604051630b094f2760e31b815260040160405180910390fd5b6040516309bca0e760e41b81526001600160a01b0388811660048301527f00000000000000000000000000000000000000000000000000000000000000001690639bca0e7090602401602060405180830381865afa158015611153573d6000803e3d6000fd5b505050506040513d601f19601f820116820180604052508101906111779190613050565b604051635768adcf60e01b81526001600160a01b0389811660048301529190911690635768adcf90602401602060405180830381865afa1580156111bf573d6000803e3d6000fd5b505050506040513d601f19601f820116820180604052508101906111e39190613050565b90505b4263ffffffff168463ffffffff16101561121357604051633494a40d60e21b815260040160405180910390fd5b604080516101208101825263ffffffff808716825285811660208301528416918101919091526000606082018190526001600160a01b038316608083015260a082015260ff861660c082015260e08101879052610100810187905261128b61127c89838a611a87565b836112868b611cfb565b611d7e565b6001600160a01b03808916600090815261012d6020908152604091829020845181549286015193860151606087015163ffffffff908116600160601b0263ffffffff60601b19928216600160401b029290921667ffffffffffffffff60401b19968216600160201b0267ffffffffffffffff1990961693821693909317949094179490941617929092178255608084015160018301805460a087015160c088015160ff16600160a81b0260ff60a81b19911515600160a01b026001600160a81b0319909316949097169390931717919091169390931790925560e0830151600282015561010083015160039091015561138a9061012e908a90611e0816565b6113965761139661306d565b5050505050505050565b60006103fa825490565b6000610a2c8383611e1d565b6001600160a01b03808316600090815261012d60209081526040808320815161012081018352815463ffffffff8082168352600160201b8204811695830195909552600160401b8104851693820193909352600160601b90920490921660608201526001820154938416608082015260ff600160a01b85048116151560a0830152600160a81b90940490931660c0840152600281015460e08401526003015461010083015290816114644290565b90508160a00151806114855750816000015163ffffffff168163ffffffff16105b15611495576000925050506103fa565b8380156114be575060608201516114af90610e1090613083565b63ffffffff168163ffffffff16105b156114ce576000925050506103fa565b60006114da8383611e47565b9050806000036114f057600193505050506103fa565b60006114fd878584611a87565b9050806000036115145760019450505050506103fa565b6207a12063ffffffff1684608001516001600160a01b03166318160ddd6040518163ffffffff1660e01b8152600401602060405180830381865afa158015611560573d6000803e3d6000fd5b505050506040513d601f19601f8201168201806040525081019061158491906130a2565b61158e9190612fd3565b61159b620f424083612fd3565b106115b6576115a987611904565b60009450505050506103fa565b60006115c188611cfb565b90506115d282866080015183611d7e565b6080850151604051632770a7eb60e21b81526001600160a01b0391821660048201526024810184905290821690639dc29fac90604401600060405180830381600087803b15801561162257600080fd5b505af1158015611636573d6000803e3d6000fd5b5050505082856101000181815161164d91906130bb565b90525063ffffffff808516606087019081526001600160a01b03808b16600081815261012d60209081526040918290208b518154928d0151848e015197518916600160601b0263ffffffff60601b19988a16600160401b029890981667ffffffffffffffff60401b19918a16600160201b0267ffffffffffffffff199095169290991691909117929092179190911695909517939093178455608089015160018501805460a08c015160c08d015160ff16600160a81b0260ff60a81b19911515600160a01b026001600160a81b0319909316949096169390931717919091169290921790915560e088015160028401556101008801516003909301839055905190917f881da94e6d36e6bae1699f239cad069496fff81144d5970fe1525092e308e001916117909187918791909283526020830191909152604082015260600190565b60405180910390a2506001979650505050505050565b6117b08282610a33565b61073b576117c8816001600160a01b03166014611f58565b6117d3836020611f58565b6040516020016117e4929190613102565b60408051601f198184030181529082905262461bcd60e51b825261044e91600401613177565b61181482826120f4565b600082815260c9602052604090206106bc9082611e08565b611836828261217a565b600082815260c9602052604090206106bc90826121e1565b600054610100900460ff166118755760405162461bcd60e51b815260040161044e906131aa565b61187d6121f6565b611885612225565b61188d61225c565b565b6101305481810361189e575050565b61013082905560408051828152602081018490527fa231dc0799ea771270f5df10c137661dd8ae27ca9a881de34df22f2a41642e9c910160405180910390a15050565b60008183106118f05781610a2c565b5090919050565b60606000610a2c8361228d565b6001600160a01b03818116600090815261012d6020908152604091829020825161012081018452815463ffffffff8082168352600160201b8204811694830194909452600160401b8104841694820194909452600160601b909304909116606083015260018101549283166080830181905260ff600160a01b85048116151560a0850152600160a81b90940490931660c0830152600281015460e083015260030154610100820152906119ca5760405163b0ce759160e01b815260040160405180910390fd5b6001600160a01b038216600090815261012d6020526040812080546fffffffffffffffffffffffffffffffff191681556001810180546001600160b01b03191690556002810182905560030155611a2361012e836121e1565b611a2f57611a2f61306d565b6020808201516101008301516040805163ffffffff9093168352928201526001600160a01b038416917fcb39668bfa9686199ed9b4f9d196329d1d4a171d4d96fe7a05d2f364174d8c2c910160405180910390a25050565b60006001600160a01b037f0000000000000000000000000000000000000000000000000000000000000000811690851603611b4c5760405163e80e8a7d60e01b8152600481018390527f00000000000000000000000000000000000000000000000000000000000000006001600160a01b03169063e80e8a7d90602401602060405180830381865afa158015611b21573d6000803e3d6000fd5b505050506040513d601f19601f82011682018060405250810190611b4591906130a2565b9050610a2c565b6040516309bca0e760e41b81526001600160a01b0385811660048301527f00000000000000000000000000000000000000000000000000000000000000001690639bca0e7090602401602060405180830381865afa158015611bb2573d6000803e3d6000fd5b505050506040513d601f19601f82011682018060405250810190611bd69190613050565b6001600160a01b031663921a929e858486608001516001600160a01b03166370a082317f00000000000000000000000000000000000000000000000000000000000000006040518263ffffffff1660e01b8152600401611c4591906001600160a01b0391909116815260200190565b602060405180830381865afa158015611c62573d6000803e3d6000fd5b505050506040513d601f19601f82011682018060405250810190611c8691906130a2565b6040516001600160e01b031960e086901b1681526001600160a01b03909316600484015260248301919091526044820152606401602060405180830381865afa158015611cd7573d6000803e3d6000fd5b505050506040513d601f19601f82011682018060405250810190610d2491906130a2565b60007f00000000000000000000000000000000000000000000000000000000000000006001600160a01b0390811690831614611d57577f00000000000000000000000000000000000000000000000000000000000000006103fa565b7f000000000000000000000000000000000000000000000000000000000000000092915050565b6040516370a0823160e01b81526001600160a01b0382811660048301528316906370a0823190602401602060405180830381865afa158015611dc4573d6000803e3d6000fd5b505050506040513d601f19601f82011682018060405250810190611de891906130a2565b8311156106bc5760405163356680b760e01b815260040160405180910390fd5b6000610a2c836001600160a01b0384166122e9565b6000826000018281548110611e3457611e34612f68565b9060005260206000200154905092915050565b600080611e68846060015163ffffffff16856000015163ffffffff16612338565b60c085015190915060ff16611f055760008460000151611e988563ffffffff16876020015163ffffffff166118e1565b611ea291906131f5565b905060008560000151611ec58463ffffffff16886020015163ffffffff166118e1565b611ecf91906131f5565b9050611efb8660e001518284611ee591906131f5565b885160208a0151611ef691906131f5565b612348565b93505050506103fa565b8351600090611f1490856131f5565b8551909150600090611f2690846131f5565b9050611f3b8660e0015182886040015161237d565b611f4e8760e0015184896040015161237d565b611efb91906130bb565b60606000611f67836002612fd3565b611f7290600261321a565b67ffffffffffffffff811115611f8a57611f8a612f52565b6040519080825280601f01601f191660200182016040528015611fb4576020820181803683370190505b509050600360fc1b81600081518110611fcf57611fcf612f68565b60200101906001600160f81b031916908160001a905350600f60fb1b81600181518110611ffe57611ffe612f68565b60200101906001600160f81b031916908160001a9053506000612022846002612fd3565b61202d90600161321a565b90505b60018111156120a5576f181899199a1a9b1b9c1cb0b131b232b360811b85600f166010811061206157612061612f68565b1a60f81b82828151811061207757612077612f68565b60200101906001600160f81b031916908160001a90535060049490941c9361209e8161301c565b9050612030565b508315610a2c5760405162461bcd60e51b815260206004820181905260248201527f537472696e67733a20686578206c656e67746820696e73756666696369656e74604482015260640161044e565b6120fe8282610a33565b61073b5760008281526097602090815260408083206001600160a01b03851684529091529020805460ff191660011790556121363390565b6001600160a01b0316816001600160a01b0316837f2f8788117e7eff1d82e926ec794901d17c78024a50270940304540a733656f0d60405160405180910390a45050565b6121848282610a33565b1561073b5760008281526097602090815260408083206001600160a01b0385168085529252808320805460ff1916905551339285917ff6391f5c32d9c69d2a47ea670b442974b53935d1edc7fd64eb21e047a839171b9190a45050565b6000610a2c836001600160a01b0384166123d0565b600054610100900460ff1661221d5760405162461bcd60e51b815260040161044e906131aa565b61188d6124c3565b600054610100900460ff1661224c5760405162461bcd60e51b815260040161044e906131aa565b6122546124f1565b61188d612518565b600054610100900460ff166122835760405162461bcd60e51b815260040161044e906131aa565b61188d600361188f565b6060816000018054806020026020016040519081016040528092919081815260200182805480156122dd57602002820191906000526020600020905b8154815260200190600101908083116122c9575b50505050509050919050565b6000818152600183016020526040812054612330575081546001818101845560008481526020808220909301849055845484825282860190935260409020919091556103fa565b5060006103fa565b6000818310156118f05781610a2c565b60008163ffffffff168363ffffffff1611156123665761236661306d565b610d24848463ffffffff168463ffffffff1661257d565b6040805180820190915263ffffffff808416825282166020820152600090816123a582612649565b90506123c686826020015183600001516123bf91906130bb565b835161257d565b9695505050505050565b600081815260018301602052604081205480156124b95760006123f46001836130bb565b8554909150600090612408906001906130bb565b905081811461246d57600086600001828154811061242857612428612f68565b906000526020600020015490508087600001848154811061244b5761244b612f68565b6000918252602080832090910192909255918252600188019052604090208390555b855486908061247e5761247e613232565b6001900381819060005260206000200160009055905585600101600086815260200190815260200160002060009055600193505050506103fa565b60009150506103fa565b600054610100900460ff166124ea5760405162461bcd60e51b815260040161044e906131aa565b6001603355565b600054610100900460ff1661188d5760405162461bcd60e51b815260040161044e906131aa565b600054610100900460ff1661253f5760405162461bcd60e51b815260040161044e906131aa565b60fb805461ffff1916600117905561256560008051602061325d833981519152806129d0565b61188d60008051602061325d83398151915233612a1b565b60008061258a8585612a25565b80519091506000036125ae578281602001516125a69190613248565b915050610a2c565b805183116125cf57604051631a93c68960e11b815260040160405180910390fd5b60006125dc868686612aac565b905060006125ea8383612ac7565b8051909150600003612610578481602001516126069190613248565b9350505050610a2c565b60008581038616906126228383612b4c565b90506000612638612633848a613248565b612b83565b919091029998505050505050505050565b604080518082019091526000808252602082015260006126826f58b90bfbe8e7bcd5e4f1d9cc01f97b578460000151856020015161257d565b905060008080600160831b84106126ac57604051631a93c68960e11b815260040160405180910390fd5b6001607c1b840692508291506001607f1b8280020491506710e1b3be415a00008202016001607f1b8383020491506705a0913f6b1e00008202016001607f1b838302049150670168244fdac780008202016001607f1b838302049150664807432bc180008202016001607f1b838302049150660c0135dca040008202016001607f1b8383020491506601b707b1cdc0008202016001607f1b8383020491506536e0f639b8008202016001607f1b838302049150650618fee9f8008202016001607f1b838302049150649c197dcc008202016001607f1b838302049150640e30dce4008202016001607f1b83830204915064012ebd13008202016001607f1b8383020491506317499f008202016001607f1b8383020491506301a9d4808202016001607f1b838302049150621c63808202016001607f1b8383020491506201c6388202016001607f1b838302049150611ab88202016001607f1b83830204915061017c8202016001607f1b83830204915060148202016001607f1b83830204915081016001607f1b836721c3677c82b400008304010190506001607c1b8416156128795770018ebef9eac820ae8682b9793ac6d1e7767001c3d6a24ed82218787d624d3e5eba95f982020490505b6001607d1b8416156128af577001368b2fc6f9609fe7aceb46aa619baed470018ebef9eac820ae8682b9793ac6d1e77882020490505b6001607e1b8416156128e4576fbc5ab1b16779be3575bd8f0520a9f21f7001368b2fc6f9609fe7aceb46aa619baed582020490505b6001607f1b841615612918576f454aaa8efe072e7f6ddbab84b40a55c96fbc5ab1b16779be3575bd8f0520a9f21e82020490505b600160801b84161561294c576f0960aadc109e7a3bf4578099615711ea6f454aaa8efe072e7f6ddbab84b40a55c582020490505b600160811b84161561297f576e2bf84208204f5977f9a8cf01fdce3d6f0960aadc109e7a3bf4578099615711d782020490505b600160821b8416156129b0576d03c6ab775dd0b95b4cbee7e65d116e2bf84208204f5977f9a8cf01fdc30782020490505b604080518082019091529081526001607f1b602082015295945050505050565b600082815260976020526040808220600101805490849055905190918391839186917fbd79b86ffe0ab8e8776151514217cd7cacd52c909f66475c3af44e129f0b00ff9190a4505050565b61073b828261180a565b60408051808201909152600080825260208201526000612a458484612bae565b9050838302808210612a7a5760405180604001604052808284612a6891906130bb565b815260200182815250925050506103fa565b60405180604001604052806001612a918585900390565b612a9b91906130bb565b815260200191909152949350505050565b60008180612abc57612abc612ff2565b838509949350505050565b604080518082019091526000808252602082015281836020015110612b1457604051806040016040528084600001518152602001838560200151612b0b91906130bb565b905290506103fa565b604051806040016040528060018560000151612b3091906130bb565b8152602001612b43856020015185900390565b90529392505050565b600080612b64612b5e84808403613248565b60010190565b9050828460200151612b769190613248565b8451820217949350505050565b60006001815b6008811015610654578382026002038202915080612ba681612f94565b915050612b89565b60006000198284099392505050565b6040805161012081018252600080825260208201819052918101829052606081018290526080810182905260a0810182905260c0810182905260e0810182905261010081019190915290565b600060208284031215612c1b57600080fd5b81356001600160e01b031981168114610a2c57600080fd5b6001600160a01b038116811461099557600080fd5b803563ffffffff81168114612c5c57600080fd5b919050565b60008060008060808587031215612c7757600080fd5b8435612c8281612c33565b935060208501359250612c9760408601612c48565b9150612ca560608601612c48565b905092959194509250565b63ffffffff808251168352806020830151166020840152806040830151166040840152506060810151612ceb606084018263ffffffff169052565b506080810151612d0660808401826001600160a01b03169052565b5060a0810151612d1a60a084018215159052565b5060c0810151612d2f60c084018260ff169052565b5060e0818101519083015261010090810151910152565b6020808252825182820181905260009190848201906040850190845b81811015612d8957612d75838551612cb0565b928401926101209290920191600101612d62565b50909695505050505050565b600060208284031215612da757600080fd5b8135610a2c81612c33565b600060208284031215612dc457600080fd5b5035919050565b60008060408385031215612dde57600080fd5b823591506020830135612df081612c33565b809150509250929050565b801515811461099557600080fd5b60008060408385031215612e1c57600080fd5b8235612e2781612c33565b91506020830135612df081612dfb565b60008060208385031215612e4a57600080fd5b823567ffffffffffffffff80821115612e6257600080fd5b818501915085601f830112612e7657600080fd5b813581811115612e8557600080fd5b866020828501011115612e9757600080fd5b60209290920196919550909350505050565b60008060408385031215612ebc57600080fd5b50508035926020909101359150565b6020808252825182820181905260009190848201906040850190845b81811015612d895783516001600160a01b031683529284019291840191600101612ee7565b61012081016103fa8284612cb0565b6020808252601f908201527f5265656e7472616e637947756172643a207265656e7472616e742063616c6c00604082015260600190565b634e487b7160e01b600052604160045260246000fd5b634e487b7160e01b600052603260045260246000fd5b634e487b7160e01b600052601160045260246000fd5b600060018201612fa657612fa6612f7e565b5060010190565b600061ffff808316818516808303821115612fca57612fca612f7e565b01949350505050565b6000816000190483118215151615612fed57612fed612f7e565b500290565b634e487b7160e01b600052601260045260246000fd5b60008261301757613017612ff2565b500690565b60008161302b5761302b612f7e565b506000190190565b60006020828403121561304557600080fd5b8151610a2c81612dfb565b60006020828403121561306257600080fd5b8151610a2c81612c33565b634e487b7160e01b600052600160045260246000fd5b600063ffffffff808316818516808303821115612fca57612fca612f7e565b6000602082840312156130b457600080fd5b5051919050565b6000828210156130cd576130cd612f7e565b500390565b60005b838110156130ed5781810151838201526020016130d5565b838111156130fc576000848401525b50505050565b7f416363657373436f6e74726f6c3a206163636f756e742000000000000000000081526000835161313a8160178501602088016130d2565b7001034b99036b4b9b9b4b733903937b6329607d1b601791840191820152835161316b8160288401602088016130d2565b01602801949350505050565b60208152600082518060208401526131968160408501602087016130d2565b601f01601f19169190910160400192915050565b6020808252602b908201527f496e697469616c697a61626c653a20636f6e7472616374206973206e6f74206960408201526a6e697469616c697a696e6760a81b606082015260800190565b600063ffffffff8381169083168181101561321257613212612f7e565b039392505050565b6000821982111561322d5761322d612f7e565b500190565b634e487b7160e01b600052603160045260246000fd5b60008261325757613257612ff2565b50049056fe2172861495e7b85edac73e3cd5fbb42dd675baadf627720e687bcfdaca025096a164736f6c634300080d000a",
  "devdoc": {
    "details": "Auto-compounding Rewards contract",
    "events": {
      "AutoProcessRewardsCountUpdated(uint256,uint256)": {
        "details": "triggered when the number of programs to auto-process the rewards for is updated"
      },
      "ExpDecayProgramCreated(address,uint256,uint32,uint32)": {
        "details": "triggered when an exponential-decay program is created"
      },
      "FlatProgramCreated(address,uint256,uint32,uint32)": {
        "details": "triggered when a flat program is created"
      },
      "ProgramPaused(address,bool)": {
        "details": "triggered when a program is paused/resumed"
      },
      "ProgramTerminated(address,uint32,uint256)": {
        "details": "triggered when a program is terminated prematurely"
      },
      "RewardsDistributed(address,uint256,uint256,uint256)": {
        "details": "triggered when rewards are distributed"
      }
    },
    "kind": "dev",
    "methods": {
      "autoProcessRewards()": {
        "details": "processes program rewards based on internal logic, without requiring any input"
      },
      "autoProcessRewardsCount()": {
        "details": "returns the number of programs to auto-process the rewards for"
      },
      "constructor": {
        "details": "a \"virtual\" constructor that is only used to set immutable state variables"
      },
      "createExpDecayProgram(address,uint256,uint32,uint32)": {
        "details": "creates a rewards program with exponential-decay distribution for a given pool requirements: - the caller must be the admin of the contract - the pool must not have an active program"
      },
      "createFlatProgram(address,uint256,uint32,uint32)": {
        "details": "creates a rewards program with flat distribution for a given pool requirements: - the caller must be the admin of the contract - the pool must not have an active program"
      },
      "getRoleAdmin(bytes32)": {
        "details": "Returns the admin role that controls `role`. See {grantRole} and {revokeRole}. To change a role's admin, use {_setRoleAdmin}."
      },
      "getRoleMember(bytes32,uint256)": {
        "details": "Returns one of the accounts that have `role`. `index` must be a value between 0 and {getRoleMemberCount}, non-inclusive. Role bearers are not sorted in any particular way, and their ordering may change at any point. WARNING: When using {getRoleMember} and {getRoleMemberCount}, make sure you perform all queries on the same block. See the following https://forum.openzeppelin.com/t/iterating-over-elements-on-enumerableset-in-openzeppelin-contracts/2296[forum post] for more information."
      },
      "getRoleMemberCount(bytes32)": {
        "details": "Returns the number of accounts that have `role`. Can be used together with {getRoleMember} to enumerate all bearers of a role."
      },
      "grantRole(bytes32,address)": {
        "details": "Grants `role` to `account`. If `account` had not been already granted `role`, emits a {RoleGranted} event. Requirements: - the caller must have ``role``'s admin role."
      },
      "hasRole(bytes32,address)": {
        "details": "Returns `true` if `account` has been granted `role`."
      },
      "initialize()": {
        "details": "fully initializes the contract and its parents"
      },
      "isProgramActive(address)": {
        "details": "returns whether a program is currently active"
      },
      "isProgramPaused(address)": {
        "details": "returns whether the specified program is paused"
      },
      "pauseProgram(address,bool)": {
        "details": "pauses or resumes a program requirements: - the caller must be the admin of the contract"
      },
      "pools()": {
        "details": "returns a list of all the pools which have a program associated with them"
      },
      "postUpgrade(bytes)": {
        "details": "performs post-upgrade initialization requirements: - this must can be called only once per-upgrade"
      },
      "processRewards(address)": {
        "details": "processes program rewards"
      },
      "program(address)": {
        "details": "returns the program data of a pool"
      },
      "programs()": {
        "details": "returns a list of all pools' program data"
      },
      "renounceRole(bytes32,address)": {
        "details": "Revokes `role` from the calling account. Roles are often managed via {grantRole} and {revokeRole}: this function's purpose is to provide a mechanism for accounts to lose their privileges if they are compromised (such as when a trusted device is misplaced). If the calling account had been revoked `role`, emits a {RoleRevoked} event. Requirements: - the caller must be `account`."
      },
      "revokeRole(bytes32,address)": {
        "details": "Revokes `role` from `account`. If `account` had been granted `role`, emits a {RoleRevoked} event. Requirements: - the caller must have ``role``'s admin role."
      },
      "roleAdmin()": {
        "details": "returns the admin role"
      },
      "setAutoProcessRewardsCount(uint256)": {
        "details": "sets the number of programs to auto-process the rewards for requirements: - the caller must be the admin of the contract"
      },
      "supportsInterface(bytes4)": {
        "details": "See {IERC165-supportsInterface}."
      },
      "terminateProgram(address)": {
        "details": "terminates a rewards program requirements: - the caller must be the admin of the contract - the program must be active"
      }
    },
    "version": 1
  },
  "userdoc": {
    "kind": "user",
    "methods": {},
    "version": 1
  },
  "storageLayout": {
    "storage": [
      {
        "astId": 644,
        "contract": "contracts/rewards/AutoCompoundingRewards.sol:AutoCompoundingRewards",
        "label": "_initialized",
        "offset": 0,
        "slot": "0",
        "type": "t_bool"
      },
      {
        "astId": 647,
        "contract": "contracts/rewards/AutoCompoundingRewards.sol:AutoCompoundingRewards",
        "label": "_initializing",
        "offset": 1,
        "slot": "0",
        "type": "t_bool"
      },
      {
        "astId": 1165,
        "contract": "contracts/rewards/AutoCompoundingRewards.sol:AutoCompoundingRewards",
        "label": "__gap",
        "offset": 0,
        "slot": "1",
        "type": "t_array(t_uint256)50_storage"
      },
      {
        "astId": 836,
        "contract": "contracts/rewards/AutoCompoundingRewards.sol:AutoCompoundingRewards",
        "label": "_status",
        "offset": 0,
        "slot": "51",
        "type": "t_uint256"
      },
      {
        "astId": 880,
        "contract": "contracts/rewards/AutoCompoundingRewards.sol:AutoCompoundingRewards",
        "label": "__gap",
        "offset": 0,
        "slot": "52",
        "type": "t_array(t_uint256)49_storage"
      },
      {
        "astId": 1412,
        "contract": "contracts/rewards/AutoCompoundingRewards.sol:AutoCompoundingRewards",
        "label": "__gap",
        "offset": 0,
        "slot": "101",
        "type": "t_array(t_uint256)50_storage"
      },
      {
        "astId": 250,
        "contract": "contracts/rewards/AutoCompoundingRewards.sol:AutoCompoundingRewards",
        "label": "_roles",
        "offset": 0,
        "slot": "151",
        "type": "t_mapping(t_bytes32,t_struct(RoleData)245_storage)"
      },
      {
        "astId": 538,
        "contract": "contracts/rewards/AutoCompoundingRewards.sol:AutoCompoundingRewards",
        "label": "__gap",
        "offset": 0,
        "slot": "152",
        "type": "t_array(t_uint256)49_storage"
      },
      {
        "astId": 99,
        "contract": "contracts/rewards/AutoCompoundingRewards.sol:AutoCompoundingRewards",
        "label": "_roleMembers",
        "offset": 0,
        "slot": "201",
        "type": "t_mapping(t_bytes32,t_struct(AddressSet)1737_storage)"
      },
      {
        "astId": 209,
        "contract": "contracts/rewards/AutoCompoundingRewards.sol:AutoCompoundingRewards",
        "label": "__gap",
        "offset": 0,
        "slot": "202",
        "type": "t_array(t_uint256)49_storage"
      },
      {
        "astId": 31643,
        "contract": "contracts/rewards/AutoCompoundingRewards.sol:AutoCompoundingRewards",
        "label": "_initializations",
        "offset": 0,
        "slot": "251",
        "type": "t_uint16"
      },
      {
        "astId": 31649,
        "contract": "contracts/rewards/AutoCompoundingRewards.sol:AutoCompoundingRewards",
        "label": "__gap",
        "offset": 0,
        "slot": "252",
        "type": "t_array(t_uint256)49_storage"
      },
      {
        "astId": 25669,
        "contract": "contracts/rewards/AutoCompoundingRewards.sol:AutoCompoundingRewards",
        "label": "_programs",
        "offset": 0,
        "slot": "301",
        "type": "t_mapping(t_contract(Token)29515,t_struct(ProgramData)29063_storage)"
      },
      {
        "astId": 25672,
        "contract": "contracts/rewards/AutoCompoundingRewards.sol:AutoCompoundingRewards",
        "label": "_pools",
        "offset": 0,
        "slot": "302",
        "type": "t_struct(AddressSet)1737_storage"
      },
      {
        "astId": 25674,
        "contract": "contracts/rewards/AutoCompoundingRewards.sol:AutoCompoundingRewards",
        "label": "_autoProcessRewardsCount",
        "offset": 0,
        "slot": "304",
        "type": "t_uint256"
      },
      {
        "astId": 25676,
        "contract": "contracts/rewards/AutoCompoundingRewards.sol:AutoCompoundingRewards",
        "label": "_autoProcessRewardsIndex",
        "offset": 0,
        "slot": "305",
        "type": "t_uint256"
      },
      {
        "astId": 25682,
        "contract": "contracts/rewards/AutoCompoundingRewards.sol:AutoCompoundingRewards",
        "label": "__gap",
        "offset": 0,
        "slot": "306",
        "type": "t_array(t_uint256)45_storage"
      }
    ],
    "types": {
      "t_address": {
        "encoding": "inplace",
        "label": "address",
        "numberOfBytes": "20"
      },
      "t_array(t_bytes32)dyn_storage": {
        "base": "t_bytes32",
        "encoding": "dynamic_array",
        "label": "bytes32[]",
        "numberOfBytes": "32"
      },
      "t_array(t_uint256)45_storage": {
        "base": "t_uint256",
        "encoding": "inplace",
        "label": "uint256[45]",
        "numberOfBytes": "1440"
      },
      "t_array(t_uint256)49_storage": {
        "base": "t_uint256",
        "encoding": "inplace",
        "label": "uint256[49]",
        "numberOfBytes": "1568"
      },
      "t_array(t_uint256)50_storage": {
        "base": "t_uint256",
        "encoding": "inplace",
        "label": "uint256[50]",
        "numberOfBytes": "1600"
      },
      "t_bool": {
        "encoding": "inplace",
        "label": "bool",
        "numberOfBytes": "1"
      },
      "t_bytes32": {
        "encoding": "inplace",
        "label": "bytes32",
        "numberOfBytes": "32"
      },
      "t_contract(IPoolToken)24480": {
        "encoding": "inplace",
        "label": "contract IPoolToken",
        "numberOfBytes": "20"
      },
      "t_contract(Token)29515": {
        "encoding": "inplace",
        "label": "contract Token",
        "numberOfBytes": "20"
      },
      "t_mapping(t_address,t_bool)": {
        "encoding": "mapping",
        "key": "t_address",
        "label": "mapping(address => bool)",
        "numberOfBytes": "32",
        "value": "t_bool"
      },
      "t_mapping(t_bytes32,t_struct(AddressSet)1737_storage)": {
        "encoding": "mapping",
        "key": "t_bytes32",
        "label": "mapping(bytes32 => struct EnumerableSetUpgradeable.AddressSet)",
        "numberOfBytes": "32",
        "value": "t_struct(AddressSet)1737_storage"
      },
      "t_mapping(t_bytes32,t_struct(RoleData)245_storage)": {
        "encoding": "mapping",
        "key": "t_bytes32",
        "label": "mapping(bytes32 => struct AccessControlUpgradeable.RoleData)",
        "numberOfBytes": "32",
        "value": "t_struct(RoleData)245_storage"
      },
      "t_mapping(t_bytes32,t_uint256)": {
        "encoding": "mapping",
        "key": "t_bytes32",
        "label": "mapping(bytes32 => uint256)",
        "numberOfBytes": "32",
        "value": "t_uint256"
      },
      "t_mapping(t_contract(Token)29515,t_struct(ProgramData)29063_storage)": {
        "encoding": "mapping",
        "key": "t_contract(Token)29515",
        "label": "mapping(contract Token => struct ProgramData)",
        "numberOfBytes": "32",
        "value": "t_struct(ProgramData)29063_storage"
      },
      "t_struct(AddressSet)1737_storage": {
        "encoding": "inplace",
        "label": "struct EnumerableSetUpgradeable.AddressSet",
        "members": [
          {
            "astId": 1736,
            "contract": "contracts/rewards/AutoCompoundingRewards.sol:AutoCompoundingRewards",
            "label": "_inner",
            "offset": 0,
            "slot": "0",
            "type": "t_struct(Set)1436_storage"
          }
        ],
        "numberOfBytes": "64"
      },
      "t_struct(ProgramData)29063_storage": {
        "encoding": "inplace",
        "label": "struct ProgramData",
        "members": [
          {
            "astId": 29045,
            "contract": "contracts/rewards/AutoCompoundingRewards.sol:AutoCompoundingRewards",
            "label": "startTime",
            "offset": 0,
            "slot": "0",
            "type": "t_uint32"
          },
          {
            "astId": 29047,
            "contract": "contracts/rewards/AutoCompoundingRewards.sol:AutoCompoundingRewards",
            "label": "endTime",
            "offset": 4,
            "slot": "0",
            "type": "t_uint32"
          },
          {
            "astId": 29049,
            "contract": "contracts/rewards/AutoCompoundingRewards.sol:AutoCompoundingRewards",
            "label": "halfLife",
            "offset": 8,
            "slot": "0",
            "type": "t_uint32"
          },
          {
            "astId": 29051,
            "contract": "contracts/rewards/AutoCompoundingRewards.sol:AutoCompoundingRewards",
            "label": "prevDistributionTimestamp",
            "offset": 12,
            "slot": "0",
            "type": "t_uint32"
          },
          {
            "astId": 29054,
            "contract": "contracts/rewards/AutoCompoundingRewards.sol:AutoCompoundingRewards",
            "label": "poolToken",
            "offset": 0,
            "slot": "1",
            "type": "t_contract(IPoolToken)24480"
          },
          {
            "astId": 29056,
            "contract": "contracts/rewards/AutoCompoundingRewards.sol:AutoCompoundingRewards",
            "label": "isPaused",
            "offset": 20,
            "slot": "1",
            "type": "t_bool"
          },
          {
            "astId": 29058,
            "contract": "contracts/rewards/AutoCompoundingRewards.sol:AutoCompoundingRewards",
            "label": "distributionType",
            "offset": 21,
            "slot": "1",
            "type": "t_uint8"
          },
          {
            "astId": 29060,
            "contract": "contracts/rewards/AutoCompoundingRewards.sol:AutoCompoundingRewards",
            "label": "totalRewards",
            "offset": 0,
            "slot": "2",
            "type": "t_uint256"
          },
          {
            "astId": 29062,
            "contract": "contracts/rewards/AutoCompoundingRewards.sol:AutoCompoundingRewards",
            "label": "remainingRewards",
            "offset": 0,
            "slot": "3",
            "type": "t_uint256"
          }
        ],
        "numberOfBytes": "128"
      },
      "t_struct(RoleData)245_storage": {
        "encoding": "inplace",
        "label": "struct AccessControlUpgradeable.RoleData",
        "members": [
          {
            "astId": 242,
            "contract": "contracts/rewards/AutoCompoundingRewards.sol:AutoCompoundingRewards",
            "label": "members",
            "offset": 0,
            "slot": "0",
            "type": "t_mapping(t_address,t_bool)"
          },
          {
            "astId": 244,
            "contract": "contracts/rewards/AutoCompoundingRewards.sol:AutoCompoundingRewards",
            "label": "adminRole",
            "offset": 0,
            "slot": "1",
            "type": "t_bytes32"
          }
        ],
        "numberOfBytes": "64"
      },
      "t_struct(Set)1436_storage": {
        "encoding": "inplace",
        "label": "struct EnumerableSetUpgradeable.Set",
        "members": [
          {
            "astId": 1431,
            "contract": "contracts/rewards/AutoCompoundingRewards.sol:AutoCompoundingRewards",
            "label": "_values",
            "offset": 0,
            "slot": "0",
            "type": "t_array(t_bytes32)dyn_storage"
          },
          {
            "astId": 1435,
            "contract": "contracts/rewards/AutoCompoundingRewards.sol:AutoCompoundingRewards",
            "label": "_indexes",
            "offset": 0,
            "slot": "1",
            "type": "t_mapping(t_bytes32,t_uint256)"
          }
        ],
        "numberOfBytes": "64"
      },
      "t_uint16": {
        "encoding": "inplace",
        "label": "uint16",
        "numberOfBytes": "2"
      },
      "t_uint256": {
        "encoding": "inplace",
        "label": "uint256",
        "numberOfBytes": "32"
      },
      "t_uint32": {
        "encoding": "inplace",
        "label": "uint32",
        "numberOfBytes": "4"
      },
      "t_uint8": {
        "encoding": "inplace",
        "label": "uint8",
        "numberOfBytes": "1"
      }
    }
  }
}