{
  "address": "0xFD47C74A8030520BACd364FB8e08ACB28766aE7b",
  "abi": [
    {
      "inputs": [
        {
          "internalType": "contract IBancorNetwork",
          "name": "initNetwork",
          "type": "address"
        },
        {
          "internalType": "contract ITokenGovernance",
          "name": "initBNTGovernance",
          "type": "address"
        },
        {
          "internalType": "contract ITokenGovernance",
          "name": "initVBNTGovernance",
          "type": "address"
        },
        {
          "internalType": "contract INetworkSettings",
          "name": "initNetworkSettings",
          "type": "address"
        },
        {
          "internalType": "contract IMasterVault",
          "name": "initMasterVault",
          "type": "address"
        },
        {
          "internalType": "contract IExternalProtectionVault",
          "name": "initExternalProtectionVault",
          "type": "address"
        },
        {
          "internalType": "contract IExternalRewardsVault",
          "name": "initExternalRewardsVault",
          "type": "address"
        },
        {
          "internalType": "contract IBNTPool",
          "name": "initBNTPool",
          "type": "address"
        },
        {
          "internalType": "contract IPendingWithdrawals",
          "name": "initPendingWithdrawals",
          "type": "address"
        },
        {
          "internalType": "contract IPoolMigrator",
          "name": "initPoolMigrator",
          "type": "address"
        }
      ],
      "stateMutability": "nonpayable",
      "type": "constructor"
    },
    {
      "inputs": [],
      "name": "AlreadyInitialized",
      "type": "error"
    },
    {
      "inputs": [],
      "name": "InvalidAddress",
      "type": "error"
    },
    {
      "inputs": [],
      "name": "InvalidParam",
      "type": "error"
    },
    {
      "inputs": [],
      "name": "InvalidToken",
      "type": "error"
    },
    {
      "inputs": [],
      "name": "ZeroValue",
      "type": "error"
    },
    {
      "anonymous": false,
      "inputs": [
        {
          "indexed": true,
          "internalType": "bytes32",
          "name": "role",
          "type": "bytes32"
        },
        {
          "indexed": true,
          "internalType": "bytes32",
          "name": "previousAdminRole",
          "type": "bytes32"
        },
        {
          "indexed": true,
          "internalType": "bytes32",
          "name": "newAdminRole",
          "type": "bytes32"
        }
      ],
      "name": "RoleAdminChanged",
      "type": "event"
    },
    {
      "anonymous": false,
      "inputs": [
        {
          "indexed": true,
          "internalType": "bytes32",
          "name": "role",
          "type": "bytes32"
        },
        {
          "indexed": true,
          "internalType": "address",
          "name": "account",
          "type": "address"
        },
        {
          "indexed": true,
          "internalType": "address",
          "name": "sender",
          "type": "address"
        }
      ],
      "name": "RoleGranted",
      "type": "event"
    },
    {
      "anonymous": false,
      "inputs": [
        {
          "indexed": true,
          "internalType": "bytes32",
          "name": "role",
          "type": "bytes32"
        },
        {
          "indexed": true,
          "internalType": "address",
          "name": "account",
          "type": "address"
        },
        {
          "indexed": true,
          "internalType": "address",
          "name": "sender",
          "type": "address"
        }
      ],
      "name": "RoleRevoked",
      "type": "event"
    },
    {
      "inputs": [],
      "name": "DEFAULT_ADMIN_ROLE",
      "outputs": [
        {
          "internalType": "bytes32",
          "name": "",
          "type": "bytes32"
        }
      ],
      "stateMutability": "view",
      "type": "function"
    },
    {
      "inputs": [],
      "name": "bnt",
      "outputs": [
        {
          "internalType": "contract IERC20",
          "name": "",
          "type": "address"
        }
      ],
      "stateMutability": "view",
      "type": "function"
    },
    {
      "inputs": [],
      "name": "bntGovernance",
      "outputs": [
        {
          "internalType": "contract ITokenGovernance",
          "name": "",
          "type": "address"
        }
      ],
      "stateMutability": "view",
      "type": "function"
    },
    {
      "inputs": [],
      "name": "bntPool",
      "outputs": [
        {
          "internalType": "contract IBNTPool",
          "name": "",
          "type": "address"
        }
      ],
      "stateMutability": "view",
      "type": "function"
    },
    {
      "inputs": [
        {
          "internalType": "contract Token",
          "name": "pool",
          "type": "address"
        }
      ],
      "name": "depositingEnabled",
      "outputs": [
        {
          "internalType": "bool",
          "name": "",
          "type": "bool"
        }
      ],
      "stateMutability": "view",
      "type": "function"
    },
    {
      "inputs": [],
      "name": "externalProtectionVault",
      "outputs": [
        {
          "internalType": "contract IExternalProtectionVault",
          "name": "",
          "type": "address"
        }
      ],
      "stateMutability": "view",
      "type": "function"
    },
    {
      "inputs": [],
      "name": "externalRewardsVault",
      "outputs": [
        {
          "internalType": "contract IExternalRewardsVault",
          "name": "",
          "type": "address"
        }
      ],
      "stateMutability": "view",
      "type": "function"
    },
    {
      "inputs": [
        {
          "internalType": "bytes32",
          "name": "role",
          "type": "bytes32"
        }
      ],
      "name": "getRoleAdmin",
      "outputs": [
        {
          "internalType": "bytes32",
          "name": "",
          "type": "bytes32"
        }
      ],
      "stateMutability": "view",
      "type": "function"
    },
    {
      "inputs": [
        {
          "internalType": "bytes32",
          "name": "role",
          "type": "bytes32"
        },
        {
          "internalType": "uint256",
          "name": "index",
          "type": "uint256"
        }
      ],
      "name": "getRoleMember",
      "outputs": [
        {
          "internalType": "address",
          "name": "",
          "type": "address"
        }
      ],
      "stateMutability": "view",
      "type": "function"
    },
    {
      "inputs": [
        {
          "internalType": "bytes32",
          "name": "role",
          "type": "bytes32"
        }
      ],
      "name": "getRoleMemberCount",
      "outputs": [
        {
          "internalType": "uint256",
          "name": "",
          "type": "uint256"
        }
      ],
      "stateMutability": "view",
      "type": "function"
    },
    {
      "inputs": [
        {
          "internalType": "bytes32",
          "name": "role",
          "type": "bytes32"
        },
        {
          "internalType": "address",
          "name": "account",
          "type": "address"
        }
      ],
      "name": "grantRole",
      "outputs": [],
      "stateMutability": "nonpayable",
      "type": "function"
    },
    {
      "inputs": [
        {
          "internalType": "bytes32",
          "name": "role",
          "type": "bytes32"
        },
        {
          "internalType": "address",
          "name": "account",
          "type": "address"
        }
      ],
      "name": "hasRole",
      "outputs": [
        {
          "internalType": "bool",
          "name": "",
          "type": "bool"
        }
      ],
      "stateMutability": "view",
      "type": "function"
    },
    {
      "inputs": [],
      "name": "initialize",
      "outputs": [],
      "stateMutability": "nonpayable",
      "type": "function"
    },
    {
      "inputs": [
        {
          "internalType": "contract Token",
          "name": "pool",
          "type": "address"
        }
      ],
      "name": "isPoolStable",
      "outputs": [
        {
          "internalType": "bool",
          "name": "",
          "type": "bool"
        }
      ],
      "stateMutability": "view",
      "type": "function"
    },
    {
      "inputs": [
        {
          "internalType": "uint256",
          "name": "id",
          "type": "uint256"
        }
      ],
      "name": "isReadyForWithdrawal",
      "outputs": [
        {
          "internalType": "bool",
          "name": "",
          "type": "bool"
        }
      ],
      "stateMutability": "view",
      "type": "function"
    },
    {
      "inputs": [],
      "name": "masterVault",
      "outputs": [
        {
          "internalType": "contract IMasterVault",
          "name": "",
          "type": "address"
        }
      ],
      "stateMutability": "view",
      "type": "function"
    },
    {
      "inputs": [],
      "name": "network",
      "outputs": [
        {
          "internalType": "contract IBancorNetwork",
          "name": "",
          "type": "address"
        }
      ],
      "stateMutability": "view",
      "type": "function"
    },
    {
      "inputs": [],
      "name": "networkSettings",
      "outputs": [
        {
          "internalType": "contract INetworkSettings",
          "name": "",
          "type": "address"
        }
      ],
      "stateMutability": "view",
      "type": "function"
    },
    {
      "inputs": [],
      "name": "pendingWithdrawals",
      "outputs": [
        {
          "internalType": "contract IPendingWithdrawals",
          "name": "",
          "type": "address"
        }
      ],
      "stateMutability": "view",
      "type": "function"
    },
    {
      "inputs": [],
      "name": "poolMigrator",
      "outputs": [
        {
          "internalType": "contract IPoolMigrator",
          "name": "",
          "type": "address"
        }
      ],
      "stateMutability": "view",
      "type": "function"
    },
    {
      "inputs": [
        {
          "internalType": "contract Token",
          "name": "pool",
          "type": "address"
        }
      ],
      "name": "poolToken",
      "outputs": [
        {
          "internalType": "contract IPoolToken",
          "name": "",
          "type": "address"
        }
      ],
      "stateMutability": "view",
      "type": "function"
    },
    {
      "inputs": [
        {
          "internalType": "contract Token",
          "name": "pool",
          "type": "address"
        },
        {
          "internalType": "uint256",
          "name": "poolTokenAmount",
          "type": "uint256"
        }
      ],
      "name": "poolTokenToUnderlying",
      "outputs": [
        {
          "internalType": "uint256",
          "name": "",
          "type": "uint256"
        }
      ],
      "stateMutability": "view",
      "type": "function"
    },
    {
      "inputs": [
        {
          "internalType": "bytes",
          "name": "data",
          "type": "bytes"
        }
      ],
      "name": "postUpgrade",
      "outputs": [],
      "stateMutability": "nonpayable",
      "type": "function"
    },
    {
      "inputs": [
        {
          "internalType": "bytes32",
          "name": "role",
          "type": "bytes32"
        },
        {
          "internalType": "address",
          "name": "account",
          "type": "address"
        }
      ],
      "name": "renounceRole",
      "outputs": [],
      "stateMutability": "nonpayable",
      "type": "function"
    },
    {
      "inputs": [
        {
          "internalType": "bytes32",
          "name": "role",
          "type": "bytes32"
        },
        {
          "internalType": "address",
          "name": "account",
          "type": "address"
        }
      ],
      "name": "revokeRole",
      "outputs": [],
      "stateMutability": "nonpayable",
      "type": "function"
    },
    {
      "inputs": [],
      "name": "roleAdmin",
      "outputs": [
        {
          "internalType": "bytes32",
          "name": "",
          "type": "bytes32"
        }
      ],
      "stateMutability": "pure",
      "type": "function"
    },
    {
      "inputs": [
        {
          "internalType": "contract Token",
          "name": "pool",
          "type": "address"
        }
      ],
      "name": "stakedBalance",
      "outputs": [
        {
          "internalType": "uint256",
          "name": "",
          "type": "uint256"
        }
      ],
      "stateMutability": "view",
      "type": "function"
    },
    {
      "inputs": [
        {
          "internalType": "bytes4",
          "name": "interfaceId",
          "type": "bytes4"
        }
      ],
      "name": "supportsInterface",
      "outputs": [
        {
          "internalType": "bool",
          "name": "",
          "type": "bool"
        }
      ],
      "stateMutability": "view",
      "type": "function"
    },
    {
      "inputs": [
        {
          "internalType": "contract Token",
          "name": "sourceToken",
          "type": "address"
        },
        {
          "internalType": "contract Token",
          "name": "targetToken",
          "type": "address"
        },
        {
          "internalType": "uint256",
          "name": "targetAmount",
          "type": "uint256"
        }
      ],
      "name": "tradeInputByTargetAmount",
      "outputs": [
        {
          "internalType": "uint256",
          "name": "",
          "type": "uint256"
        }
      ],
      "stateMutability": "view",
      "type": "function"
    },
    {
      "inputs": [
        {
          "internalType": "contract Token",
          "name": "sourceToken",
          "type": "address"
        },
        {
          "internalType": "contract Token",
          "name": "targetToken",
          "type": "address"
        },
        {
          "internalType": "uint256",
          "name": "sourceAmount",
          "type": "uint256"
        }
      ],
      "name": "tradeOutputBySourceAmount",
      "outputs": [
        {
          "internalType": "uint256",
          "name": "",
          "type": "uint256"
        }
      ],
      "stateMutability": "view",
      "type": "function"
    },
    {
      "inputs": [
        {
          "internalType": "contract Token",
          "name": "pool",
          "type": "address"
        }
      ],
      "name": "tradingEnabled",
      "outputs": [
        {
          "internalType": "bool",
          "name": "",
          "type": "bool"
        }
      ],
      "stateMutability": "view",
      "type": "function"
    },
    {
      "inputs": [
        {
          "internalType": "contract Token",
          "name": "pool",
          "type": "address"
        }
      ],
      "name": "tradingFeePPM",
      "outputs": [
        {
          "internalType": "uint32",
          "name": "",
          "type": "uint32"
        }
      ],
      "stateMutability": "view",
      "type": "function"
    },
    {
      "inputs": [
        {
          "internalType": "contract Token",
          "name": "pool",
          "type": "address"
        }
      ],
      "name": "tradingLiquidity",
      "outputs": [
        {
          "components": [
            {
              "internalType": "uint128",
              "name": "bntTradingLiquidity",
              "type": "uint128"
            },
            {
              "internalType": "uint128",
              "name": "baseTokenTradingLiquidity",
              "type": "uint128"
            }
          ],
          "internalType": "struct TradingLiquidity",
          "name": "",
          "type": "tuple"
        }
      ],
      "stateMutability": "view",
      "type": "function"
    },
    {
      "inputs": [
        {
          "internalType": "contract Token",
          "name": "pool",
          "type": "address"
        },
        {
          "internalType": "uint256",
          "name": "tokenAmount",
          "type": "uint256"
        }
      ],
      "name": "underlyingToPoolToken",
      "outputs": [
        {
          "internalType": "uint256",
          "name": "",
          "type": "uint256"
        }
      ],
      "stateMutability": "view",
      "type": "function"
    },
    {
      "inputs": [],
      "name": "vbnt",
      "outputs": [
        {
          "internalType": "contract IERC20",
          "name": "",
          "type": "address"
        }
      ],
      "stateMutability": "view",
      "type": "function"
    },
    {
      "inputs": [],
      "name": "vbntGovernance",
      "outputs": [
        {
          "internalType": "contract ITokenGovernance",
          "name": "",
          "type": "address"
        }
      ],
      "stateMutability": "view",
      "type": "function"
    },
    {
      "inputs": [],
      "name": "version",
      "outputs": [
        {
          "internalType": "uint16",
          "name": "",
          "type": "uint16"
        }
      ],
      "stateMutability": "pure",
      "type": "function"
    },
    {
      "inputs": [
        {
          "internalType": "contract Token",
          "name": "pool",
          "type": "address"
        },
        {
          "internalType": "uint256",
          "name": "poolTokenAmount",
          "type": "uint256"
        }
      ],
      "name": "withdrawalAmounts",
      "outputs": [
        {
          "components": [
            {
              "internalType": "uint256",
              "name": "totalAmount",
              "type": "uint256"
            },
            {
              "internalType": "uint256",
              "name": "baseTokenAmount",
              "type": "uint256"
            },
            {
              "internalType": "uint256",
              "name": "bntAmount",
              "type": "uint256"
            }
          ],
          "internalType": "struct WithdrawalAmounts",
          "name": "",
          "type": "tuple"
        }
      ],
      "stateMutability": "view",
      "type": "function"
    }
  ],
  "transactionHash": "0x8c04ab8eee1811540473b2ca4544d6ae3878fdef72768d463fc5c9d37993ed04",
  "args": [
    "0xeEF417e1D5CC832e619ae18D2F140De2999dD4fB",
    "0xa489C2b5b36835A327851Ab917A80562B5AFC244",
    "0x0887ae1251E180d7D453aeDEBee26e1639f20113",
    "0x83E1814ba31F7ea95D216204BB45FE75Ce09b14F",
    "0x649765821D9f64198c905eC0B2B037a4a52Bc373",
    "0xFd31662b3d54eddE9B6Bdd32c9c27C8E292cAD57",
    "0x2A2A2BE5cCf20F3633c6ca2D429Ac51186a631e1",
    "0x02651E355D26f3506C1E644bA393FDD9Ac95EaCa",
    "0x857Eb0Eb2572F7092C417CD386BA82e45EbA9B8a",
    "0x97CeC0F2D355BF073619A5093F989709caE4a191"
  ],
  "numDeployments": 2,
  "solcInputHash": "9578fd8607a4510b6c94f9286634e821",
  "bytecode": "0x6102206040523480156200001257600080fd5b50604051620028ff380380620028ff833981016040819052620000359162000291565b620000408a62000250565b6200004b8962000250565b620000568862000250565b620000618762000250565b6200006c8662000250565b620000778562000250565b620000828462000250565b6200008d8362000250565b620000988262000250565b620000a38162000250565b6001600160a01b03808b16608052891660c081905260408051637e062a3560e11b8152905163fc0c546a916004808201926020929091908290030181865afa158015620000f4573d6000803e3d6000fd5b505050506040513d601f19601f820116820180604052508101906200011a91906200037f565b6001600160a01b0390811660a052881661010081905260408051637e062a3560e11b8152905163fc0c546a916004808201926020929091908290030181865afa1580156200016c573d6000803e3d6000fd5b505050506040513d601f19601f820116820180604052508101906200019291906200037f565b6001600160a01b0390811660e0528781166101205286811661014052858116610160528481166101805283166101a0819052604080516332f7ce0b60e21b8152905163cbdf382c916004808201926020929091908290030181865afa15801562000200573d6000803e3d6000fd5b505050506040513d601f19601f820116820180604052508101906200022691906200037f565b6001600160a01b039081166101c0529182166101e052166102005250620003a69650505050505050565b6001600160a01b038116620002785760405163e6c4247b60e01b815260040160405180910390fd5b50565b6001600160a01b03811681146200027857600080fd5b6000806000806000806000806000806101408b8d031215620002b257600080fd5b8a51620002bf816200027b565b60208c0151909a50620002d2816200027b565b60408c0151909950620002e5816200027b565b60608c0151909850620002f8816200027b565b60808c01519097506200030b816200027b565b60a08c01519096506200031e816200027b565b60c08c015190955062000331816200027b565b60e08c015190945062000344816200027b565b6101008c015190935062000358816200027b565b6101208c01519092506200036c816200027b565b809150509295989b9194979a5092959850565b6000602082840312156200039257600080fd5b81516200039f816200027b565b9392505050565b60805160a05160c05160e05161010051610120516101405161016051610180516101a0516101c0516101e05161020051612429620004d6600039600061064301526000818161053901526111ca01526000610c810152600081816105e4015281816109b001528181610aaf01528181610d5c01526112c9015260006103bf015260006104bf015260006102f50152600061043901526000610669015260006105ab0152600061057201526000818161032f015281816106bc015281816107a8015281816108e601528181610a6d01528181610bd801528181610caa01528181610f3c0152818161109a0152818161110901528181611241015281816115300152818161169f0152818161173a015281816117e1015261187e0152600081816103f8015261135901526124296000f3fe608060405234801561001057600080fd5b50600436106102325760003560e01c80638ed8225a11610130578063c2a9a837116100b8578063d547741f1161007c578063d547741f14610608578063ed249d051461061b578063ee4808fe1461062e578063f32191cd14610641578063fa5a9e2d1461066757600080fd5b8063c2a9a83714610570578063c2cf425214610596578063c9da6993146105a9578063ca15c873146105cf578063cdab39ce146105e257600080fd5b806393867fb5116100ff57806393867fb5146104f6578063a217fddf1461051c578063a940edac14610524578063beca03d514610537578063bedf95251461055d57600080fd5b80638ed8225a146104705780639010d07c146104aa57806391cc57a9146104bd57806391d14854146104e357600080fd5b8063541868c8116101be5780636739afca116101825780636739afca146103f65780636e1a20be1461041c5780638129fc1c1461042f5780638bcab632146104375780638cd2403d1461045d57600080fd5b8063541868c81461036657806354fd4d501461039b5780635768adcf146103aa5780635c9e82e8146103bd57806360217267146103e357600080fd5b806330cdb3081161020557806330cdb308146102b857806336568abe146102e05780633b7e3775146102f357806340ab7b8c1461032d5780634ceea7531461035357600080fd5b806301ffc9a7146102375780632258cc691461025f578063248a9ca3146102725780632f2ff15d146102a3575b600080fd5b61024a610245366004611eb6565b61068d565b60405190151581526020015b60405180910390f35b61024a61026d366004611ef5565b6106b8565b610295610280366004611f12565b60009081526065602052604090206001015490565b604051908152602001610256565b6102b66102b1366004611f2b565b610771565b005b6102cb6102c6366004611ef5565b61079c565b60405163ffffffff9091168152602001610256565b6102b66102ee366004611f2b565b61085f565b7f00000000000000000000000000000000000000000000000000000000000000005b6040516001600160a01b039091168152602001610256565b7f0000000000000000000000000000000000000000000000000000000000000000610315565b610295610361366004611f5b565b6108e2565b610379610374366004611f5b565b610a2b565b6040805182518152602080840151908201529181015190820152606001610256565b60405160028152602001610256565b6103156103b8366004611ef5565b610bd4565b7f0000000000000000000000000000000000000000000000000000000000000000610315565b6102956103f1366004611ef5565b610ca6565b7f0000000000000000000000000000000000000000000000000000000000000000610315565b61029561042a366004611f87565b610ddc565b6102b6610e0c565b7f0000000000000000000000000000000000000000000000000000000000000000610315565b6102b661046b366004611fc8565b610ecd565b61048361047e366004611ef5565b610f1e565b6040805182516001600160801b039081168252602093840151169281019290925201610256565b6103156104b836600461203a565b61102e565b7f0000000000000000000000000000000000000000000000000000000000000000610315565b61024a6104f1366004611f2b565b611046565b7f2172861495e7b85edac73e3cd5fbb42dd675baadf627720e687bcfdaca025096610295565b610295600081565b610295610532366004611f87565b611071565b7f0000000000000000000000000000000000000000000000000000000000000000610315565b61024a61056b366004611ef5565b611096565b7f0000000000000000000000000000000000000000000000000000000000000000610315565b61024a6105a4366004611ef5565b611105565b7f0000000000000000000000000000000000000000000000000000000000000000610315565b6102956105dd366004611f12565b611174565b7f0000000000000000000000000000000000000000000000000000000000000000610315565b6102b6610616366004611f2b565b61118b565b61024a610629366004611f12565b6111b1565b61029561063c366004611f5b565b61123d565b7f0000000000000000000000000000000000000000000000000000000000000000610315565b7f0000000000000000000000000000000000000000000000000000000000000000610315565b60006001600160e01b03198216635a05180f60e01b14806106b257506106b282611300565b92915050565b60007f00000000000000000000000000000000000000000000000000000000000000006001600160a01b0390811690831614610769576106f782611335565b604051632258cc6960e01b81526001600160a01b0384811660048301529190911690632258cc69906024015b602060405180830381865afa158015610740573d6000803e3d6000fd5b505050506040513d601f19601f82011682018060405250810190610764919061205c565b6106b2565b600192915050565b60008281526065602052604090206001015461078d81336113ed565b6107978383611451565b505050565b60006001600160a01b037f00000000000000000000000000000000000000000000000000000000000000008116908316036107ea57604051633494a40d60e21b815260040160405180910390fd5b6107f382611335565b604051630619b66160e31b81526001600160a01b03848116600483015291909116906330cdb30890602401602060405180830381865afa15801561083b573d6000803e3d6000fd5b505050506040513d601f19601f820116820180604052508101906106b2919061207e565b6001600160a01b03811633146108d45760405162461bcd60e51b815260206004820152602f60248201527f416363657373436f6e74726f6c3a2063616e206f6e6c792072656e6f756e636560448201526e103937b632b9903337b91039b2b63360891b60648201526084015b60405180910390fd5b6108de8282611473565b5050565b60007f00000000000000000000000000000000000000000000000000000000000000006001600160a01b039081169084161461099a5761092183611335565b604051634ceea75360e01b81526001600160a01b038581166004830152602482018590529190911690634ceea753906044015b602060405180830381865afa158015610971573d6000803e3d6000fd5b505050506040513d601f19601f8201168201806040525081019061099591906120a4565b610a24565b6040516303c5513160e21b8152600481018390527f00000000000000000000000000000000000000000000000000000000000000006001600160a01b031690630f1544c4906024015b602060405180830381865afa158015610a00573d6000803e3d6000fd5b505050506040513d601f19601f82011682018060405250810190610a2491906120a4565b9392505050565b610a4f60405180606001604052806000815260200160008152602001600081525090565b82610a5981611495565b82610a63816114bc565b6001600160a01b037f0000000000000000000000000000000000000000000000000000000000000000811690861603610b48576040516308fc338560e01b8152600481018590526000907f00000000000000000000000000000000000000000000000000000000000000006001600160a01b0316906308fc338590602401602060405180830381865afa158015610afe573d6000803e3d6000fd5b505050506040513d601f19601f82011682018060405250810190610b2291906120a4565b905060405180606001604052808281526020016000815260200182815250935050610bcc565b6000610b5386611335565b604051630a830d1960e31b81526001600160a01b038881166004830152602482018890529192509082169063541868c890604401606060405180830381865afa158015610ba4573d6000803e3d6000fd5b505050506040513d601f19601f82011682018060405250810190610bc8919061213d565b9350505b505092915050565b60007f00000000000000000000000000000000000000000000000000000000000000006001600160a01b0390811690831614610c7f57610c1382611335565b604051635768adcf60e01b81526001600160a01b0384811660048301529190911690635768adcf90602401602060405180830381865afa158015610c5b573d6000803e3d6000fd5b505050506040513d601f19601f820116820180604052508101906107649190612159565b7f000000000000000000000000000000000000000000000000000000000000000092915050565b60007f00000000000000000000000000000000000000000000000000000000000000006001600160a01b0390811690831614610d5a57610ce582611335565b60405163a135ef1760e01b81526001600160a01b038481166004830152919091169063a135ef1790602401606060405180830381865afa158015610d2d573d6000803e3d6000fd5b505050506040513d601f19601f82011682018060405250810190610d519190612192565b604001516106b2565b7f00000000000000000000000000000000000000000000000000000000000000006001600160a01b0316635b9f00166040518163ffffffff1660e01b8152600401602060405180830381865afa158015610db8573d6000803e3d6000fd5b505050506040513d601f19601f820116820180604052508101906106b291906120a4565b60008383610dea82826114dd565b83610df4816114bc565b610e018787876001611521565b979650505050505050565b600054610100900460ff16610e275760005460ff1615610e2b565b303b155b610e8e5760405162461bcd60e51b815260206004820152602e60248201527f496e697469616c697a61626c653a20636f6e747261637420697320616c72656160448201526d191e481a5b9a5d1a585b1a5e995960921b60648201526084016108cb565b600054610100900460ff16158015610eb0576000805461ffff19166101011790555b610eb861190c565b8015610eca576000805461ff00191690555b50565b60c954600090610ee29061ffff16600161221e565b905061ffff8116600214610f085760405162dc149f60e41b815260040160405180910390fd5b60c9805461ffff191661ffff8316179055505050565b60408051808201909152600080825260208201526001600160a01b037f0000000000000000000000000000000000000000000000000000000000000000811690831603610f7e57604051633494a40d60e21b815260040160405180910390fd5b6000610f8983611335565b60405163a135ef1760e01b81526001600160a01b038581166004830152919091169063a135ef1790602401606060405180830381865afa158015610fd1573d6000803e3d6000fd5b505050506040513d601f19601f82011682018060405250810190610ff59190612192565b9050604051806040016040528082600001516001600160801b0316815260200182602001516001600160801b0316815250915050919050565b6000828152609760205260408120610a249083611945565b60009182526065602090815260408084206001600160a01b0393909316845291905290205460ff1690565b6000838361107f82826114dd565b83611089816114bc565b610e018787876000611521565b60007f00000000000000000000000000000000000000000000000000000000000000006001600160a01b0390811690831614610769576110d582611335565b60405163bedf952560e01b81526001600160a01b038481166004830152919091169063bedf952590602401610723565b60007f00000000000000000000000000000000000000000000000000000000000000006001600160a01b03908116908316146107695761114482611335565b604051636167a12960e11b81526001600160a01b038481166004830152919091169063c2cf425290602401610723565b60008181526097602052604081206106b290611951565b6000828152606560205260409020600101546111a781336113ed565b6107978383611473565b60405163ed249d0560e01b8152600481018290526000907f00000000000000000000000000000000000000000000000000000000000000006001600160a01b03169063ed249d0590602401602060405180830381865afa158015611219573d6000803e3d6000fd5b505050506040513d601f19601f820116820180604052508101906106b2919061205c565b60007f00000000000000000000000000000000000000000000000000000000000000006001600160a01b03908116908416146112b35761127c83611335565b604051637724047f60e11b81526001600160a01b03858116600483015260248201859052919091169063ee4808fe90604401610954565b60405163d7882fdf60e01b8152600481018390527f00000000000000000000000000000000000000000000000000000000000000006001600160a01b03169063d7882fdf906024016109e3565b60006001600160e01b03198216637965db0b60e01b14806106b257506301ffc9a760e01b6001600160e01b03198316146106b2565b6040516309bca0e760e41b81526001600160a01b03828116600483015260009182917f00000000000000000000000000000000000000000000000000000000000000001690639bca0e7090602401602060405180830381865afa1580156113a0573d6000803e3d6000fd5b505050506040513d601f19601f820116820180604052508101906113c49190612159565b90506001600160a01b0381166106b25760405163c1ab6dc160e01b815260040160405180910390fd5b6113f78282611046565b6108de5761140f816001600160a01b0316601461195b565b61141a83602061195b565b60405160200161142b929190612274565b60408051601f198184030181529082905262461bcd60e51b82526108cb916004016122e9565b61145b8282611af7565b60008281526097602052604090206107979082611b7d565b61147d8282611b92565b60008281526097602052604090206107979082611bf9565b6001600160a01b038116610eca5760405163e6c4247b60e01b815260040160405180910390fd5b80600003610eca57604051637c946ed760e01b815260040160405180910390fd5b6114e682611495565b6114ef81611495565b806001600160a01b0316826001600160a01b0316036108de5760405163c1ab6dc160e01b815260040160405180910390fd5b60006001600160a01b038581167f000000000000000000000000000000000000000000000000000000000000000082169081149186161481806115615750805b1561167d576000826115735787611575565b865b9050600061158282611335565b9050856115ff576040516334afba2b60e01b81526001600160a01b038216906334afba2b906115b9908c908c908c9060040161231c565b606060405180830381865afa1580156115d6573d6000803e3d6000fd5b505050506040513d601f19601f820116820180604052508101906115fa919061213d565b611670565b6040516372d960e160e01b81526001600160a01b038216906372d960e19061162f908c908c908c9060040161231c565b606060405180830381865afa15801561164c573d6000803e3d6000fd5b505050506040513d601f19601f82011682018060405250810190611670919061213d565b5194506119049350505050565b83156117c657600061168e88611335565b6001600160a01b03166372d960e1897f0000000000000000000000000000000000000000000000000000000000000000896040518463ffffffff1660e01b81526004016116dd9392919061231c565b606060405180830381865afa1580156116fa573d6000803e3d6000fd5b505050506040513d601f19601f8201168201806040525081019061171e919061213d565b51905061172a87611335565b6001600160a01b03166372d960e17f000000000000000000000000000000000000000000000000000000000000000089846040518463ffffffff1660e01b81526004016117799392919061231c565b606060405180830381865afa158015611796573d6000803e3d6000fd5b505050506040513d601f19601f820116820180604052508101906117ba919061213d565b51935061190492505050565b60006117d187611335565b6001600160a01b03166334afba2b7f000000000000000000000000000000000000000000000000000000000000000089896040518463ffffffff1660e01b81526004016118209392919061231c565b606060405180830381865afa15801561183d573d6000803e3d6000fd5b505050506040513d601f19601f82011682018060405250810190611861919061213d565b51905061186d88611335565b6001600160a01b03166334afba2b897f0000000000000000000000000000000000000000000000000000000000000000846040518463ffffffff1660e01b81526004016118bc9392919061231c565b606060405180830381865afa1580156118d9573d6000803e3d6000fd5b505050506040513d601f19601f820116820180604052508101906118fd919061213d565b5193505050505b949350505050565b600054610100900460ff166119335760405162461bcd60e51b81526004016108cb90612340565b61193b611c0e565b611943611c45565b565b6000610a248383611c6c565b60006106b2825490565b6060600061196a83600261238b565b6119759060026123aa565b67ffffffffffffffff81111561198d5761198d6120bd565b6040519080825280601f01601f1916602001820160405280156119b7576020820181803683370190505b509050600360fc1b816000815181106119d2576119d26123c2565b60200101906001600160f81b031916908160001a905350600f60fb1b81600181518110611a0157611a016123c2565b60200101906001600160f81b031916908160001a9053506000611a2584600261238b565b611a309060016123aa565b90505b6001811115611aa8576f181899199a1a9b1b9c1cb0b131b232b360811b85600f1660108110611a6457611a646123c2565b1a60f81b828281518110611a7a57611a7a6123c2565b60200101906001600160f81b031916908160001a90535060049490941c93611aa1816123d8565b9050611a33565b508315610a245760405162461bcd60e51b815260206004820181905260248201527f537472696e67733a20686578206c656e67746820696e73756666696369656e7460448201526064016108cb565b611b018282611046565b6108de5760008281526065602090815260408083206001600160a01b03851684529091529020805460ff19166001179055611b393390565b6001600160a01b0316816001600160a01b0316837f2f8788117e7eff1d82e926ec794901d17c78024a50270940304540a733656f0d60405160405180910390a45050565b6000610a24836001600160a01b038416611c96565b611b9c8282611046565b156108de5760008281526065602090815260408083206001600160a01b0385168085529252808320805460ff1916905551339285917ff6391f5c32d9c69d2a47ea670b442974b53935d1edc7fd64eb21e047a839171b9190a45050565b6000610a24836001600160a01b038416611ce5565b600054610100900460ff16611c355760405162461bcd60e51b81526004016108cb90612340565b611c3d611c45565b611943611dd8565b600054610100900460ff166119435760405162461bcd60e51b81526004016108cb90612340565b6000826000018281548110611c8357611c836123c2565b9060005260206000200154905092915050565b6000818152600183016020526040812054611cdd575081546001818101845560008481526020808220909301849055845484825282860190935260409020919091556106b2565b5060006106b2565b60008181526001830160205260408120548015611dce576000611d096001836123ef565b8554909150600090611d1d906001906123ef565b9050818114611d82576000866000018281548110611d3d57611d3d6123c2565b9060005260206000200154905080876000018481548110611d6057611d606123c2565b6000918252602080832090910192909255918252600188019052604090208390555b8554869080611d9357611d93612406565b6001900381819060005260206000200160009055905585600101600086815260200190815260200160002060009055600193505050506106b2565b60009150506106b2565b600054610100900460ff16611dff5760405162461bcd60e51b81526004016108cb90612340565b60c9805461ffff19166001179055611e377f2172861495e7b85edac73e3cd5fbb42dd675baadf627720e687bcfdaca02509680611e61565b6119437f2172861495e7b85edac73e3cd5fbb42dd675baadf627720e687bcfdaca02509633611eac565b600082815260656020526040808220600101805490849055905190918391839186917fbd79b86ffe0ab8e8776151514217cd7cacd52c909f66475c3af44e129f0b00ff9190a4505050565b6108de8282611451565b600060208284031215611ec857600080fd5b81356001600160e01b031981168114610a2457600080fd5b6001600160a01b0381168114610eca57600080fd5b600060208284031215611f0757600080fd5b8135610a2481611ee0565b600060208284031215611f2457600080fd5b5035919050565b60008060408385031215611f3e57600080fd5b823591506020830135611f5081611ee0565b809150509250929050565b60008060408385031215611f6e57600080fd5b8235611f7981611ee0565b946020939093013593505050565b600080600060608486031215611f9c57600080fd5b8335611fa781611ee0565b92506020840135611fb781611ee0565b929592945050506040919091013590565b60008060208385031215611fdb57600080fd5b823567ffffffffffffffff80821115611ff357600080fd5b818501915085601f83011261200757600080fd5b81358181111561201657600080fd5b86602082850101111561202857600080fd5b60209290920196919550909350505050565b6000806040838503121561204d57600080fd5b50508035926020909101359150565b60006020828403121561206e57600080fd5b81518015158114610a2457600080fd5b60006020828403121561209057600080fd5b815163ffffffff81168114610a2457600080fd5b6000602082840312156120b657600080fd5b5051919050565b634e487b7160e01b600052604160045260246000fd5b6000606082840312156120e557600080fd5b6040516060810181811067ffffffffffffffff8211171561211657634e487b7160e01b600052604160045260246000fd5b80604052508091508251815260208301516020820152604083015160408201525092915050565b60006060828403121561214f57600080fd5b610a2483836120d3565b60006020828403121561216b57600080fd5b8151610a2481611ee0565b80516001600160801b038116811461218d57600080fd5b919050565b6000606082840312156121a457600080fd5b6040516060810181811067ffffffffffffffff821117156121d557634e487b7160e01b600052604160045260246000fd5b6040526121e183612176565b81526121ef60208401612176565b6020820152604083015160408201528091505092915050565b634e487b7160e01b600052601160045260246000fd5b600061ffff80831681851680830382111561223b5761223b612208565b01949350505050565b60005b8381101561225f578181015183820152602001612247565b8381111561226e576000848401525b50505050565b7f416363657373436f6e74726f6c3a206163636f756e74200000000000000000008152600083516122ac816017850160208801612244565b7001034b99036b4b9b9b4b733903937b6329607d1b60179184019182015283516122dd816028840160208801612244565b01602801949350505050565b6020815260008251806020840152612308816040850160208701612244565b601f01601f19169190910160400192915050565b6001600160a01b039384168152919092166020820152604081019190915260600190565b6020808252602b908201527f496e697469616c697a61626c653a20636f6e7472616374206973206e6f74206960408201526a6e697469616c697a696e6760a81b606082015260800190565b60008160001904831182151516156123a5576123a5612208565b500290565b600082198211156123bd576123bd612208565b500190565b634e487b7160e01b600052603260045260246000fd5b6000816123e7576123e7612208565b506000190190565b60008282101561240157612401612208565b500390565b634e487b7160e01b600052603160045260246000fdfea164736f6c634300080d000a",
  "devdoc": {
    "details": "Bancor Network Information contract",
    "kind": "dev",
    "methods": {
      "bnt()": {
        "details": "returns the BNT contract"
      },
      "bntGovernance()": {
        "details": "returns the BNT governance contract"
      },
      "bntPool()": {
        "details": "returns the BNT pool contract"
      },
      "constructor": {
        "details": "a \"virtual\" constructor that is only used to set immutable state variables"
      },
      "depositingEnabled(address)": {
        "details": "returns whether depositing is enabled"
      },
      "externalProtectionVault()": {
        "details": "returns the address of the external protection vault"
      },
      "externalRewardsVault()": {
        "details": "returns the address of the external rewards vault"
      },
      "getRoleAdmin(bytes32)": {
        "details": "Returns the admin role that controls `role`. See {grantRole} and {revokeRole}. To change a role's admin, use {_setRoleAdmin}."
      },
      "getRoleMember(bytes32,uint256)": {
        "details": "Returns one of the accounts that have `role`. `index` must be a value between 0 and {getRoleMemberCount}, non-inclusive. Role bearers are not sorted in any particular way, and their ordering may change at any point. WARNING: When using {getRoleMember} and {getRoleMemberCount}, make sure you perform all queries on the same block. See the following https://forum.openzeppelin.com/t/iterating-over-elements-on-enumerableset-in-openzeppelin-contracts/2296[forum post] for more information."
      },
      "getRoleMemberCount(bytes32)": {
        "details": "Returns the number of accounts that have `role`. Can be used together with {getRoleMember} to enumerate all bearers of a role."
      },
      "grantRole(bytes32,address)": {
        "details": "Grants `role` to `account`. If `account` had not been already granted `role`, emits a {RoleGranted} event. Requirements: - the caller must have ``role``'s admin role."
      },
      "hasRole(bytes32,address)": {
        "details": "Returns `true` if `account` has been granted `role`."
      },
      "initialize()": {
        "details": "fully initializes the contract and its parents"
      },
      "isPoolStable(address)": {
        "details": "returns whether the pool is stable"
      },
      "isReadyForWithdrawal(uint256)": {
        "details": "returns whether the given request is ready for withdrawal"
      },
      "masterVault()": {
        "details": "returns the master vault contract"
      },
      "network()": {
        "details": "returns the network contract"
      },
      "networkSettings()": {
        "details": "returns the network settings contract"
      },
      "pendingWithdrawals()": {
        "details": "returns the pending withdrawals contract"
      },
      "poolMigrator()": {
        "details": "returns the pool migrator contract"
      },
      "poolToken(address)": {
        "details": "returns the pool token contract for a given pool"
      },
      "poolTokenToUnderlying(address,uint256)": {
        "details": "converts the specified pool token amount to the underlying token amount"
      },
      "postUpgrade(bytes)": {
        "details": "performs post-upgrade initialization requirements: - this must can be called only once per-upgrade"
      },
      "renounceRole(bytes32,address)": {
        "details": "Revokes `role` from the calling account. Roles are often managed via {grantRole} and {revokeRole}: this function's purpose is to provide a mechanism for accounts to lose their privileges if they are compromised (such as when a trusted device is misplaced). If the calling account had been revoked `role`, emits a {RoleRevoked} event. Requirements: - the caller must be `account`."
      },
      "revokeRole(bytes32,address)": {
        "details": "Revokes `role` from `account`. If `account` had been granted `role`, emits a {RoleRevoked} event. Requirements: - the caller must have ``role``'s admin role."
      },
      "roleAdmin()": {
        "details": "returns the admin role"
      },
      "stakedBalance(address)": {
        "details": "returns the staked balance in a given pool"
      },
      "supportsInterface(bytes4)": {
        "details": "See {IERC165-supportsInterface}."
      },
      "tradeInputByTargetAmount(address,address,uint256)": {
        "details": "returns the input amount when trading by providing the target amount"
      },
      "tradeOutputBySourceAmount(address,address,uint256)": {
        "details": "returns the output amount when trading by providing the source amount"
      },
      "tradingEnabled(address)": {
        "details": "returns whether trading is enabled"
      },
      "tradingFeePPM(address)": {
        "details": "returns the trading fee (in units of PPM)"
      },
      "tradingLiquidity(address)": {
        "details": "returns the trading liquidity in a given pool"
      },
      "underlyingToPoolToken(address,uint256)": {
        "details": "converts the specified underlying base token amount to pool token amount"
      },
      "vbnt()": {
        "details": "returns the vBNT contract"
      },
      "vbntGovernance()": {
        "details": "returns the vBNT governance contract"
      },
      "withdrawalAmounts(address,uint256)": {
        "details": "returns the amounts that would be returned if the position is currently withdrawn, along with the breakdown of the base token and the BNT compensation"
      }
    },
    "version": 1
  },
  "userdoc": {
    "kind": "user",
    "methods": {},
    "version": 1
  },
  "storageLayout": {
    "storage": [
      {
        "astId": 644,
        "contract": "contracts/network/BancorNetworkInfo.sol:BancorNetworkInfo",
        "label": "_initialized",
        "offset": 0,
        "slot": "0",
        "type": "t_bool"
      },
      {
        "astId": 647,
        "contract": "contracts/network/BancorNetworkInfo.sol:BancorNetworkInfo",
        "label": "_initializing",
        "offset": 1,
        "slot": "0",
        "type": "t_bool"
      },
      {
        "astId": 1165,
        "contract": "contracts/network/BancorNetworkInfo.sol:BancorNetworkInfo",
        "label": "__gap",
        "offset": 0,
        "slot": "1",
        "type": "t_array(t_uint256)50_storage"
      },
      {
        "astId": 1412,
        "contract": "contracts/network/BancorNetworkInfo.sol:BancorNetworkInfo",
        "label": "__gap",
        "offset": 0,
        "slot": "51",
        "type": "t_array(t_uint256)50_storage"
      },
      {
        "astId": 250,
        "contract": "contracts/network/BancorNetworkInfo.sol:BancorNetworkInfo",
        "label": "_roles",
        "offset": 0,
        "slot": "101",
        "type": "t_mapping(t_bytes32,t_struct(RoleData)245_storage)"
      },
      {
        "astId": 538,
        "contract": "contracts/network/BancorNetworkInfo.sol:BancorNetworkInfo",
        "label": "__gap",
        "offset": 0,
        "slot": "102",
        "type": "t_array(t_uint256)49_storage"
      },
      {
        "astId": 99,
        "contract": "contracts/network/BancorNetworkInfo.sol:BancorNetworkInfo",
        "label": "_roleMembers",
        "offset": 0,
        "slot": "151",
        "type": "t_mapping(t_bytes32,t_struct(AddressSet)1737_storage)"
      },
      {
        "astId": 209,
        "contract": "contracts/network/BancorNetworkInfo.sol:BancorNetworkInfo",
        "label": "__gap",
        "offset": 0,
        "slot": "152",
        "type": "t_array(t_uint256)49_storage"
      },
      {
        "astId": 31877,
        "contract": "contracts/network/BancorNetworkInfo.sol:BancorNetworkInfo",
        "label": "_initializations",
        "offset": 0,
        "slot": "201",
        "type": "t_uint16"
      },
      {
        "astId": 31883,
        "contract": "contracts/network/BancorNetworkInfo.sol:BancorNetworkInfo",
        "label": "__gap",
        "offset": 0,
        "slot": "202",
        "type": "t_array(t_uint256)49_storage"
      },
      {
        "astId": 14941,
        "contract": "contracts/network/BancorNetworkInfo.sol:BancorNetworkInfo",
        "label": "__gap",
        "offset": 0,
        "slot": "251",
        "type": "t_array(t_uint256)50_storage"
      }
    ],
    "types": {
      "t_address": {
        "encoding": "inplace",
        "label": "address",
        "numberOfBytes": "20"
      },
      "t_array(t_bytes32)dyn_storage": {
        "base": "t_bytes32",
        "encoding": "dynamic_array",
        "label": "bytes32[]",
        "numberOfBytes": "32"
      },
      "t_array(t_uint256)49_storage": {
        "base": "t_uint256",
        "encoding": "inplace",
        "label": "uint256[49]",
        "numberOfBytes": "1568"
      },
      "t_array(t_uint256)50_storage": {
        "base": "t_uint256",
        "encoding": "inplace",
        "label": "uint256[50]",
        "numberOfBytes": "1600"
      },
      "t_bool": {
        "encoding": "inplace",
        "label": "bool",
        "numberOfBytes": "1"
      },
      "t_bytes32": {
        "encoding": "inplace",
        "label": "bytes32",
        "numberOfBytes": "32"
      },
      "t_mapping(t_address,t_bool)": {
        "encoding": "mapping",
        "key": "t_address",
        "label": "mapping(address => bool)",
        "numberOfBytes": "32",
        "value": "t_bool"
      },
      "t_mapping(t_bytes32,t_struct(AddressSet)1737_storage)": {
        "encoding": "mapping",
        "key": "t_bytes32",
        "label": "mapping(bytes32 => struct EnumerableSetUpgradeable.AddressSet)",
        "numberOfBytes": "32",
        "value": "t_struct(AddressSet)1737_storage"
      },
      "t_mapping(t_bytes32,t_struct(RoleData)245_storage)": {
        "encoding": "mapping",
        "key": "t_bytes32",
        "label": "mapping(bytes32 => struct AccessControlUpgradeable.RoleData)",
        "numberOfBytes": "32",
        "value": "t_struct(RoleData)245_storage"
      },
      "t_mapping(t_bytes32,t_uint256)": {
        "encoding": "mapping",
        "key": "t_bytes32",
        "label": "mapping(bytes32 => uint256)",
        "numberOfBytes": "32",
        "value": "t_uint256"
      },
      "t_struct(AddressSet)1737_storage": {
        "encoding": "inplace",
        "label": "struct EnumerableSetUpgradeable.AddressSet",
        "members": [
          {
            "astId": 1736,
            "contract": "contracts/network/BancorNetworkInfo.sol:BancorNetworkInfo",
            "label": "_inner",
            "offset": 0,
            "slot": "0",
            "type": "t_struct(Set)1436_storage"
          }
        ],
        "numberOfBytes": "64"
      },
      "t_struct(RoleData)245_storage": {
        "encoding": "inplace",
        "label": "struct AccessControlUpgradeable.RoleData",
        "members": [
          {
            "astId": 242,
            "contract": "contracts/network/BancorNetworkInfo.sol:BancorNetworkInfo",
            "label": "members",
            "offset": 0,
            "slot": "0",
            "type": "t_mapping(t_address,t_bool)"
          },
          {
            "astId": 244,
            "contract": "contracts/network/BancorNetworkInfo.sol:BancorNetworkInfo",
            "label": "adminRole",
            "offset": 0,
            "slot": "1",
            "type": "t_bytes32"
          }
        ],
        "numberOfBytes": "64"
      },
      "t_struct(Set)1436_storage": {
        "encoding": "inplace",
        "label": "struct EnumerableSetUpgradeable.Set",
        "members": [
          {
            "astId": 1431,
            "contract": "contracts/network/BancorNetworkInfo.sol:BancorNetworkInfo",
            "label": "_values",
            "offset": 0,
            "slot": "0",
            "type": "t_array(t_bytes32)dyn_storage"
          },
          {
            "astId": 1435,
            "contract": "contracts/network/BancorNetworkInfo.sol:BancorNetworkInfo",
            "label": "_indexes",
            "offset": 0,
            "slot": "1",
            "type": "t_mapping(t_bytes32,t_uint256)"
          }
        ],
        "numberOfBytes": "64"
      },
      "t_uint16": {
        "encoding": "inplace",
        "label": "uint16",
        "numberOfBytes": "2"
      },
      "t_uint256": {
        "encoding": "inplace",
        "label": "uint256",
        "numberOfBytes": "32"
      }
    }
  }
}