{
  "address": "0x00Bfa047eC1c5e849779107900AfD948eFCA8e63",
  "abi": [
    {
      "inputs": [
        {
          "internalType": "contract ITokenGovernance",
          "name": "initBNTGovernance",
          "type": "address"
        },
        {
          "internalType": "contract ITokenGovernance",
          "name": "initVBNTGovernance",
          "type": "address"
        },
        {
          "internalType": "contract INetworkSettings",
          "name": "initNetworkSettings",
          "type": "address"
        },
        {
          "internalType": "contract IMasterVault",
          "name": "initMasterVault",
          "type": "address"
        },
        {
          "internalType": "contract IExternalProtectionVault",
          "name": "initExternalProtectionVault",
          "type": "address"
        },
        {
          "internalType": "contract IPoolToken",
          "name": "initBNTPoolToken",
          "type": "address"
        }
      ],
      "stateMutability": "nonpayable",
      "type": "constructor"
    },
    {
      "inputs": [],
      "name": "AccessDenied",
      "type": "error"
    },
    {
      "inputs": [],
      "name": "AlreadyExists",
      "type": "error"
    },
    {
      "inputs": [],
      "name": "AlreadyInitialized",
      "type": "error"
    },
    {
      "inputs": [],
      "name": "DeadlineExpired",
      "type": "error"
    },
    {
      "inputs": [],
      "name": "DoesNotExist",
      "type": "error"
    },
    {
      "inputs": [],
      "name": "InsufficientFlashLoanReturn",
      "type": "error"
    },
    {
      "inputs": [],
      "name": "InvalidAddress",
      "type": "error"
    },
    {
      "inputs": [],
      "name": "InvalidPoolCollection",
      "type": "error"
    },
    {
      "inputs": [],
      "name": "InvalidToken",
      "type": "error"
    },
    {
      "inputs": [],
      "name": "InvalidType",
      "type": "error"
    },
    {
      "inputs": [],
      "name": "NativeTokenAmountMismatch",
      "type": "error"
    },
    {
      "inputs": [],
      "name": "NotEmpty",
      "type": "error"
    },
    {
      "inputs": [],
      "name": "NotWhitelisted",
      "type": "error"
    },
    {
      "inputs": [],
      "name": "Overflow",
      "type": "error"
    },
    {
      "inputs": [],
      "name": "PermitUnsupported",
      "type": "error"
    },
    {
      "inputs": [],
      "name": "ZeroValue",
      "type": "error"
    },
    {
      "anonymous": false,
      "inputs": [
        {
          "indexed": true,
          "internalType": "contract Token",
          "name": "token",
          "type": "address"
        },
        {
          "indexed": true,
          "internalType": "address",
          "name": "borrower",
          "type": "address"
        },
        {
          "indexed": false,
          "internalType": "uint256",
          "name": "amount",
          "type": "uint256"
        },
        {
          "indexed": false,
          "internalType": "uint256",
          "name": "feeAmount",
          "type": "uint256"
        }
      ],
      "name": "FlashLoanCompleted",
      "type": "event"
    },
    {
      "anonymous": false,
      "inputs": [
        {
          "indexed": true,
          "internalType": "bytes32",
          "name": "contextId",
          "type": "bytes32"
        },
        {
          "indexed": true,
          "internalType": "contract Token",
          "name": "token",
          "type": "address"
        },
        {
          "indexed": true,
          "internalType": "address",
          "name": "provider",
          "type": "address"
        },
        {
          "indexed": false,
          "internalType": "uint256",
          "name": "amount",
          "type": "uint256"
        },
        {
          "indexed": false,
          "internalType": "uint256",
          "name": "availableAmount",
          "type": "uint256"
        },
        {
          "indexed": false,
          "internalType": "uint256",
          "name": "originalAmount",
          "type": "uint256"
        }
      ],
      "name": "FundsMigrated",
      "type": "event"
    },
    {
      "anonymous": false,
      "inputs": [
        {
          "indexed": true,
          "internalType": "uint16",
          "name": "poolType",
          "type": "uint16"
        },
        {
          "indexed": true,
          "internalType": "contract IPoolCollection",
          "name": "prevPoolCollection",
          "type": "address"
        },
        {
          "indexed": true,
          "internalType": "contract IPoolCollection",
          "name": "newPoolCollection",
          "type": "address"
        }
      ],
      "name": "LatestPoolCollectionReplaced",
      "type": "event"
    },
    {
      "anonymous": false,
      "inputs": [
        {
          "indexed": true,
          "internalType": "address",
          "name": "caller",
          "type": "address"
        },
        {
          "indexed": true,
          "internalType": "address",
          "name": "recipient",
          "type": "address"
        },
        {
          "indexed": false,
          "internalType": "uint256",
          "name": "amount",
          "type": "uint256"
        }
      ],
      "name": "NetworkFeesWithdrawn",
      "type": "event"
    },
    {
      "anonymous": false,
      "inputs": [
        {
          "indexed": false,
          "internalType": "address",
          "name": "account",
          "type": "address"
        }
      ],
      "name": "Paused",
      "type": "event"
    },
    {
      "anonymous": false,
      "inputs": [
        {
          "indexed": true,
          "internalType": "contract Token",
          "name": "pool",
          "type": "address"
        },
        {
          "indexed": true,
          "internalType": "contract IPoolCollection",
          "name": "poolCollection",
          "type": "address"
        }
      ],
      "name": "PoolAdded",
      "type": "event"
    },
    {
      "anonymous": false,
      "inputs": [
        {
          "indexed": true,
          "internalType": "uint16",
          "name": "poolType",
          "type": "uint16"
        },
        {
          "indexed": true,
          "internalType": "contract IPoolCollection",
          "name": "poolCollection",
          "type": "address"
        }
      ],
      "name": "PoolCollectionAdded",
      "type": "event"
    },
    {
      "anonymous": false,
      "inputs": [
        {
          "indexed": true,
          "internalType": "uint16",
          "name": "poolType",
          "type": "uint16"
        },
        {
          "indexed": true,
          "internalType": "contract IPoolCollection",
          "name": "poolCollection",
          "type": "address"
        }
      ],
      "name": "PoolCollectionRemoved",
      "type": "event"
    },
    {
      "anonymous": false,
      "inputs": [
        {
          "indexed": true,
          "internalType": "contract Token",
          "name": "pool",
          "type": "address"
        },
        {
          "indexed": true,
          "internalType": "contract IPoolCollection",
          "name": "poolCollection",
          "type": "address"
        }
      ],
      "name": "PoolCreated",
      "type": "event"
    },
    {
      "anonymous": false,
      "inputs": [
        {
          "indexed": true,
          "internalType": "contract Token",
          "name": "pool",
          "type": "address"
        },
        {
          "indexed": true,
          "internalType": "contract IPoolCollection",
          "name": "poolCollection",
          "type": "address"
        }
      ],
      "name": "PoolRemoved",
      "type": "event"
    },
    {
      "anonymous": false,
      "inputs": [
        {
          "indexed": true,
          "internalType": "bytes32",
          "name": "role",
          "type": "bytes32"
        },
        {
          "indexed": true,
          "internalType": "bytes32",
          "name": "previousAdminRole",
          "type": "bytes32"
        },
        {
          "indexed": true,
          "internalType": "bytes32",
          "name": "newAdminRole",
          "type": "bytes32"
        }
      ],
      "name": "RoleAdminChanged",
      "type": "event"
    },
    {
      "anonymous": false,
      "inputs": [
        {
          "indexed": true,
          "internalType": "bytes32",
          "name": "role",
          "type": "bytes32"
        },
        {
          "indexed": true,
          "internalType": "address",
          "name": "account",
          "type": "address"
        },
        {
          "indexed": true,
          "internalType": "address",
          "name": "sender",
          "type": "address"
        }
      ],
      "name": "RoleGranted",
      "type": "event"
    },
    {
      "anonymous": false,
      "inputs": [
        {
          "indexed": true,
          "internalType": "bytes32",
          "name": "role",
          "type": "bytes32"
        },
        {
          "indexed": true,
          "internalType": "address",
          "name": "account",
          "type": "address"
        },
        {
          "indexed": true,
          "internalType": "address",
          "name": "sender",
          "type": "address"
        }
      ],
      "name": "RoleRevoked",
      "type": "event"
    },
    {
      "anonymous": false,
      "inputs": [
        {
          "indexed": true,
          "internalType": "bytes32",
          "name": "contextId",
          "type": "bytes32"
        },
        {
          "indexed": true,
          "internalType": "contract Token",
          "name": "sourceToken",
          "type": "address"
        },
        {
          "indexed": true,
          "internalType": "contract Token",
          "name": "targetToken",
          "type": "address"
        },
        {
          "indexed": false,
          "internalType": "uint256",
          "name": "sourceAmount",
          "type": "uint256"
        },
        {
          "indexed": false,
          "internalType": "uint256",
          "name": "targetAmount",
          "type": "uint256"
        },
        {
          "indexed": false,
          "internalType": "uint256",
          "name": "bntAmount",
          "type": "uint256"
        },
        {
          "indexed": false,
          "internalType": "uint256",
          "name": "targetFeeAmount",
          "type": "uint256"
        },
        {
          "indexed": false,
          "internalType": "uint256",
          "name": "bntFeeAmount",
          "type": "uint256"
        },
        {
          "indexed": false,
          "internalType": "address",
          "name": "trader",
          "type": "address"
        }
      ],
      "name": "TokensTraded",
      "type": "event"
    },
    {
      "anonymous": false,
      "inputs": [
        {
          "indexed": false,
          "internalType": "address",
          "name": "account",
          "type": "address"
        }
      ],
      "name": "Unpaused",
      "type": "event"
    },
    {
      "inputs": [],
      "name": "DEFAULT_ADMIN_ROLE",
      "outputs": [
        {
          "internalType": "bytes32",
          "name": "",
          "type": "bytes32"
        }
      ],
      "stateMutability": "view",
      "type": "function"
    },
    {
      "inputs": [
        {
          "internalType": "contract IPoolCollection",
          "name": "poolCollection",
          "type": "address"
        }
      ],
      "name": "addPoolCollection",
      "outputs": [],
      "stateMutability": "nonpayable",
      "type": "function"
    },
    {
      "inputs": [
        {
          "internalType": "uint256",
          "name": "id",
          "type": "uint256"
        }
      ],
      "name": "cancelWithdrawal",
      "outputs": [
        {
          "internalType": "uint256",
          "name": "",
          "type": "uint256"
        }
      ],
      "stateMutability": "nonpayable",
      "type": "function"
    },
    {
      "inputs": [
        {
          "internalType": "contract Token",
          "name": "pool",
          "type": "address"
        }
      ],
      "name": "collectionByPool",
      "outputs": [
        {
          "internalType": "contract IPoolCollection",
          "name": "",
          "type": "address"
        }
      ],
      "stateMutability": "view",
      "type": "function"
    },
    {
      "inputs": [
        {
          "internalType": "uint16",
          "name": "poolType",
          "type": "uint16"
        },
        {
          "internalType": "contract Token",
          "name": "token",
          "type": "address"
        }
      ],
      "name": "createPool",
      "outputs": [],
      "stateMutability": "nonpayable",
      "type": "function"
    },
    {
      "inputs": [
        {
          "internalType": "uint16",
          "name": "poolType",
          "type": "uint16"
        },
        {
          "internalType": "contract Token[]",
          "name": "tokens",
          "type": "address[]"
        }
      ],
      "name": "createPools",
      "outputs": [],
      "stateMutability": "nonpayable",
      "type": "function"
    },
    {
      "inputs": [
        {
          "internalType": "contract Token",
          "name": "pool",
          "type": "address"
        },
        {
          "internalType": "uint256",
          "name": "tokenAmount",
          "type": "uint256"
        }
      ],
      "name": "deposit",
      "outputs": [
        {
          "internalType": "uint256",
          "name": "",
          "type": "uint256"
        }
      ],
      "stateMutability": "payable",
      "type": "function"
    },
    {
      "inputs": [
        {
          "internalType": "address",
          "name": "provider",
          "type": "address"
        },
        {
          "internalType": "contract Token",
          "name": "pool",
          "type": "address"
        },
        {
          "internalType": "uint256",
          "name": "tokenAmount",
          "type": "uint256"
        }
      ],
      "name": "depositFor",
      "outputs": [
        {
          "internalType": "uint256",
          "name": "",
          "type": "uint256"
        }
      ],
      "stateMutability": "payable",
      "type": "function"
    },
    {
      "inputs": [
        {
          "internalType": "address",
          "name": "provider",
          "type": "address"
        },
        {
          "internalType": "contract Token",
          "name": "pool",
          "type": "address"
        },
        {
          "internalType": "uint256",
          "name": "tokenAmount",
          "type": "uint256"
        },
        {
          "internalType": "uint256",
          "name": "deadline",
          "type": "uint256"
        },
        {
          "internalType": "uint8",
          "name": "v",
          "type": "uint8"
        },
        {
          "internalType": "bytes32",
          "name": "r",
          "type": "bytes32"
        },
        {
          "internalType": "bytes32",
          "name": "s",
          "type": "bytes32"
        }
      ],
      "name": "depositForPermitted",
      "outputs": [
        {
          "internalType": "uint256",
          "name": "",
          "type": "uint256"
        }
      ],
      "stateMutability": "nonpayable",
      "type": "function"
    },
    {
      "inputs": [
        {
          "internalType": "contract Token",
          "name": "pool",
          "type": "address"
        },
        {
          "internalType": "uint256",
          "name": "tokenAmount",
          "type": "uint256"
        },
        {
          "internalType": "uint256",
          "name": "deadline",
          "type": "uint256"
        },
        {
          "internalType": "uint8",
          "name": "v",
          "type": "uint8"
        },
        {
          "internalType": "bytes32",
          "name": "r",
          "type": "bytes32"
        },
        {
          "internalType": "bytes32",
          "name": "s",
          "type": "bytes32"
        }
      ],
      "name": "depositPermitted",
      "outputs": [
        {
          "internalType": "uint256",
          "name": "",
          "type": "uint256"
        }
      ],
      "stateMutability": "nonpayable",
      "type": "function"
    },
    {
      "inputs": [
        {
          "internalType": "contract Token",
          "name": "token",
          "type": "address"
        },
        {
          "internalType": "uint256",
          "name": "amount",
          "type": "uint256"
        },
        {
          "internalType": "contract IFlashLoanRecipient",
          "name": "recipient",
          "type": "address"
        },
        {
          "internalType": "bytes",
          "name": "data",
          "type": "bytes"
        }
      ],
      "name": "flashLoan",
      "outputs": [],
      "stateMutability": "nonpayable",
      "type": "function"
    },
    {
      "inputs": [
        {
          "internalType": "bytes32",
          "name": "role",
          "type": "bytes32"
        }
      ],
      "name": "getRoleAdmin",
      "outputs": [
        {
          "internalType": "bytes32",
          "name": "",
          "type": "bytes32"
        }
      ],
      "stateMutability": "view",
      "type": "function"
    },
    {
      "inputs": [
        {
          "internalType": "bytes32",
          "name": "role",
          "type": "bytes32"
        },
        {
          "internalType": "uint256",
          "name": "index",
          "type": "uint256"
        }
      ],
      "name": "getRoleMember",
      "outputs": [
        {
          "internalType": "address",
          "name": "",
          "type": "address"
        }
      ],
      "stateMutability": "view",
      "type": "function"
    },
    {
      "inputs": [
        {
          "internalType": "bytes32",
          "name": "role",
          "type": "bytes32"
        }
      ],
      "name": "getRoleMemberCount",
      "outputs": [
        {
          "internalType": "uint256",
          "name": "",
          "type": "uint256"
        }
      ],
      "stateMutability": "view",
      "type": "function"
    },
    {
      "inputs": [
        {
          "internalType": "bytes32",
          "name": "role",
          "type": "bytes32"
        },
        {
          "internalType": "address",
          "name": "account",
          "type": "address"
        }
      ],
      "name": "grantRole",
      "outputs": [],
      "stateMutability": "nonpayable",
      "type": "function"
    },
    {
      "inputs": [
        {
          "internalType": "bytes32",
          "name": "role",
          "type": "bytes32"
        },
        {
          "internalType": "address",
          "name": "account",
          "type": "address"
        }
      ],
      "name": "hasRole",
      "outputs": [
        {
          "internalType": "bool",
          "name": "",
          "type": "bool"
        }
      ],
      "stateMutability": "view",
      "type": "function"
    },
    {
      "inputs": [
        {
          "internalType": "contract IPoolToken",
          "name": "poolToken",
          "type": "address"
        },
        {
          "internalType": "uint256",
          "name": "poolTokenAmount",
          "type": "uint256"
        }
      ],
      "name": "initWithdrawal",
      "outputs": [
        {
          "internalType": "uint256",
          "name": "",
          "type": "uint256"
        }
      ],
      "stateMutability": "nonpayable",
      "type": "function"
    },
    {
      "inputs": [
        {
          "internalType": "contract IPoolToken",
          "name": "poolToken",
          "type": "address"
        },
        {
          "internalType": "uint256",
          "name": "poolTokenAmount",
          "type": "uint256"
        },
        {
          "internalType": "uint256",
          "name": "deadline",
          "type": "uint256"
        },
        {
          "internalType": "uint8",
          "name": "v",
          "type": "uint8"
        },
        {
          "internalType": "bytes32",
          "name": "r",
          "type": "bytes32"
        },
        {
          "internalType": "bytes32",
          "name": "s",
          "type": "bytes32"
        }
      ],
      "name": "initWithdrawalPermitted",
      "outputs": [
        {
          "internalType": "uint256",
          "name": "",
          "type": "uint256"
        }
      ],
      "stateMutability": "nonpayable",
      "type": "function"
    },
    {
      "inputs": [
        {
          "internalType": "contract IBNTPool",
          "name": "initBNTPool",
          "type": "address"
        },
        {
          "internalType": "contract IPendingWithdrawals",
          "name": "initPendingWithdrawals",
          "type": "address"
        },
        {
          "internalType": "contract IPoolMigrator",
          "name": "initPoolMigrator",
          "type": "address"
        }
      ],
      "name": "initialize",
      "outputs": [],
      "stateMutability": "nonpayable",
      "type": "function"
    },
    {
      "inputs": [],
      "name": "isPaused",
      "outputs": [
        {
          "internalType": "bool",
          "name": "",
          "type": "bool"
        }
      ],
      "stateMutability": "view",
      "type": "function"
    },
    {
      "inputs": [
        {
          "internalType": "contract Token",
          "name": "pool",
          "type": "address"
        }
      ],
      "name": "isPoolValid",
      "outputs": [
        {
          "internalType": "bool",
          "name": "",
          "type": "bool"
        }
      ],
      "stateMutability": "view",
      "type": "function"
    },
    {
      "inputs": [
        {
          "internalType": "uint16",
          "name": "poolType",
          "type": "uint16"
        }
      ],
      "name": "latestPoolCollection",
      "outputs": [
        {
          "internalType": "contract IPoolCollection",
          "name": "",
          "type": "address"
        }
      ],
      "stateMutability": "view",
      "type": "function"
    },
    {
      "inputs": [],
      "name": "liquidityPools",
      "outputs": [
        {
          "internalType": "contract Token[]",
          "name": "",
          "type": "address[]"
        }
      ],
      "stateMutability": "view",
      "type": "function"
    },
    {
      "inputs": [
        {
          "internalType": "contract Token",
          "name": "token",
          "type": "address"
        },
        {
          "internalType": "address",
          "name": "provider",
          "type": "address"
        },
        {
          "internalType": "uint256",
          "name": "amount",
          "type": "uint256"
        },
        {
          "internalType": "uint256",
          "name": "availableAmount",
          "type": "uint256"
        },
        {
          "internalType": "uint256",
          "name": "originalAmount",
          "type": "uint256"
        }
      ],
      "name": "migrateLiquidity",
      "outputs": [],
      "stateMutability": "payable",
      "type": "function"
    },
    {
      "inputs": [
        {
          "internalType": "contract Token[]",
          "name": "pools",
          "type": "address[]"
        }
      ],
      "name": "migratePools",
      "outputs": [],
      "stateMutability": "nonpayable",
      "type": "function"
    },
    {
      "inputs": [],
      "name": "pause",
      "outputs": [],
      "stateMutability": "nonpayable",
      "type": "function"
    },
    {
      "inputs": [],
      "name": "paused",
      "outputs": [
        {
          "internalType": "bool",
          "name": "",
          "type": "bool"
        }
      ],
      "stateMutability": "view",
      "type": "function"
    },
    {
      "inputs": [],
      "name": "pendingNetworkFeeAmount",
      "outputs": [
        {
          "internalType": "uint256",
          "name": "",
          "type": "uint256"
        }
      ],
      "stateMutability": "view",
      "type": "function"
    },
    {
      "inputs": [],
      "name": "poolCollections",
      "outputs": [
        {
          "internalType": "contract IPoolCollection[]",
          "name": "",
          "type": "address[]"
        }
      ],
      "stateMutability": "view",
      "type": "function"
    },
    {
      "inputs": [
        {
          "internalType": "bytes",
          "name": "data",
          "type": "bytes"
        }
      ],
      "name": "postUpgrade",
      "outputs": [],
      "stateMutability": "nonpayable",
      "type": "function"
    },
    {
      "inputs": [
        {
          "internalType": "contract IPoolCollection",
          "name": "poolCollection",
          "type": "address"
        },
        {
          "internalType": "contract IPoolCollection",
          "name": "newLatestPoolCollection",
          "type": "address"
        }
      ],
      "name": "removePoolCollection",
      "outputs": [],
      "stateMutability": "nonpayable",
      "type": "function"
    },
    {
      "inputs": [
        {
          "internalType": "bytes32",
          "name": "role",
          "type": "bytes32"
        },
        {
          "internalType": "address",
          "name": "account",
          "type": "address"
        }
      ],
      "name": "renounceRole",
      "outputs": [],
      "stateMutability": "nonpayable",
      "type": "function"
    },
    {
      "inputs": [],
      "name": "resume",
      "outputs": [],
      "stateMutability": "nonpayable",
      "type": "function"
    },
    {
      "inputs": [
        {
          "internalType": "bytes32",
          "name": "role",
          "type": "bytes32"
        },
        {
          "internalType": "address",
          "name": "account",
          "type": "address"
        }
      ],
      "name": "revokeRole",
      "outputs": [],
      "stateMutability": "nonpayable",
      "type": "function"
    },
    {
      "inputs": [],
      "name": "roleAdmin",
      "outputs": [
        {
          "internalType": "bytes32",
          "name": "",
          "type": "bytes32"
        }
      ],
      "stateMutability": "pure",
      "type": "function"
    },
    {
      "inputs": [],
      "name": "roleEmergencyStopper",
      "outputs": [
        {
          "internalType": "bytes32",
          "name": "",
          "type": "bytes32"
        }
      ],
      "stateMutability": "pure",
      "type": "function"
    },
    {
      "inputs": [],
      "name": "roleMigrationManager",
      "outputs": [
        {
          "internalType": "bytes32",
          "name": "",
          "type": "bytes32"
        }
      ],
      "stateMutability": "pure",
      "type": "function"
    },
    {
      "inputs": [],
      "name": "roleNetworkFeeManager",
      "outputs": [
        {
          "internalType": "bytes32",
          "name": "",
          "type": "bytes32"
        }
      ],
      "stateMutability": "pure",
      "type": "function"
    },
    {
      "inputs": [
        {
          "internalType": "contract IPoolCollection",
          "name": "poolCollection",
          "type": "address"
        }
      ],
      "name": "setLatestPoolCollection",
      "outputs": [],
      "stateMutability": "nonpayable",
      "type": "function"
    },
    {
      "inputs": [
        {
          "internalType": "bytes4",
          "name": "interfaceId",
          "type": "bytes4"
        }
      ],
      "name": "supportsInterface",
      "outputs": [
        {
          "internalType": "bool",
          "name": "",
          "type": "bool"
        }
      ],
      "stateMutability": "view",
      "type": "function"
    },
    {
      "inputs": [
        {
          "internalType": "contract Token",
          "name": "sourceToken",
          "type": "address"
        },
        {
          "internalType": "contract Token",
          "name": "targetToken",
          "type": "address"
        },
        {
          "internalType": "uint256",
          "name": "sourceAmount",
          "type": "uint256"
        },
        {
          "internalType": "uint256",
          "name": "minReturnAmount",
          "type": "uint256"
        },
        {
          "internalType": "uint256",
          "name": "deadline",
          "type": "uint256"
        },
        {
          "internalType": "address",
          "name": "beneficiary",
          "type": "address"
        }
      ],
      "name": "tradeBySourceAmount",
      "outputs": [
        {
          "internalType": "uint256",
          "name": "",
          "type": "uint256"
        }
      ],
      "stateMutability": "payable",
      "type": "function"
    },
    {
      "inputs": [
        {
          "internalType": "contract Token",
          "name": "sourceToken",
          "type": "address"
        },
        {
          "internalType": "contract Token",
          "name": "targetToken",
          "type": "address"
        },
        {
          "internalType": "uint256",
          "name": "sourceAmount",
          "type": "uint256"
        },
        {
          "internalType": "uint256",
          "name": "minReturnAmount",
          "type": "uint256"
        },
        {
          "internalType": "uint256",
          "name": "deadline",
          "type": "uint256"
        },
        {
          "internalType": "address",
          "name": "beneficiary",
          "type": "address"
        },
        {
          "internalType": "uint8",
          "name": "v",
          "type": "uint8"
        },
        {
          "internalType": "bytes32",
          "name": "r",
          "type": "bytes32"
        },
        {
          "internalType": "bytes32",
          "name": "s",
          "type": "bytes32"
        }
      ],
      "name": "tradeBySourceAmountPermitted",
      "outputs": [
        {
          "internalType": "uint256",
          "name": "",
          "type": "uint256"
        }
      ],
      "stateMutability": "nonpayable",
      "type": "function"
    },
    {
      "inputs": [
        {
          "internalType": "contract Token",
          "name": "sourceToken",
          "type": "address"
        },
        {
          "internalType": "contract Token",
          "name": "targetToken",
          "type": "address"
        },
        {
          "internalType": "uint256",
          "name": "targetAmount",
          "type": "uint256"
        },
        {
          "internalType": "uint256",
          "name": "maxSourceAmount",
          "type": "uint256"
        },
        {
          "internalType": "uint256",
          "name": "deadline",
          "type": "uint256"
        },
        {
          "internalType": "address",
          "name": "beneficiary",
          "type": "address"
        }
      ],
      "name": "tradeByTargetAmount",
      "outputs": [
        {
          "internalType": "uint256",
          "name": "",
          "type": "uint256"
        }
      ],
      "stateMutability": "payable",
      "type": "function"
    },
    {
      "inputs": [
        {
          "internalType": "contract Token",
          "name": "sourceToken",
          "type": "address"
        },
        {
          "internalType": "contract Token",
          "name": "targetToken",
          "type": "address"
        },
        {
          "internalType": "uint256",
          "name": "targetAmount",
          "type": "uint256"
        },
        {
          "internalType": "uint256",
          "name": "maxSourceAmount",
          "type": "uint256"
        },
        {
          "internalType": "uint256",
          "name": "deadline",
          "type": "uint256"
        },
        {
          "internalType": "address",
          "name": "beneficiary",
          "type": "address"
        },
        {
          "internalType": "uint8",
          "name": "v",
          "type": "uint8"
        },
        {
          "internalType": "bytes32",
          "name": "r",
          "type": "bytes32"
        },
        {
          "internalType": "bytes32",
          "name": "s",
          "type": "bytes32"
        }
      ],
      "name": "tradeByTargetAmountPermitted",
      "outputs": [
        {
          "internalType": "uint256",
          "name": "",
          "type": "uint256"
        }
      ],
      "stateMutability": "nonpayable",
      "type": "function"
    },
    {
      "inputs": [],
      "name": "version",
      "outputs": [
        {
          "internalType": "uint16",
          "name": "",
          "type": "uint16"
        }
      ],
      "stateMutability": "pure",
      "type": "function"
    },
    {
      "inputs": [
        {
          "internalType": "uint256",
          "name": "id",
          "type": "uint256"
        }
      ],
      "name": "withdraw",
      "outputs": [
        {
          "internalType": "uint256",
          "name": "",
          "type": "uint256"
        }
      ],
      "stateMutability": "nonpayable",
      "type": "function"
    },
    {
      "inputs": [
        {
          "internalType": "address",
          "name": "recipient",
          "type": "address"
        }
      ],
      "name": "withdrawNetworkFees",
      "outputs": [
        {
          "internalType": "uint256",
          "name": "",
          "type": "uint256"
        }
      ],
      "stateMutability": "nonpayable",
      "type": "function"
    },
    {
      "stateMutability": "payable",
      "type": "receive"
    }
  ],
  "transactionHash": "0x6b1730043826e4a010fd96345cf5ae97211d947004d049cb004b9cb4e835171a",
  "args": [
    "0xa489C2b5b36835A327851Ab917A80562B5AFC244",
    "0x0887ae1251E180d7D453aeDEBee26e1639f20113",
    "0x83E1814ba31F7ea95D216204BB45FE75Ce09b14F",
    "0x649765821D9f64198c905eC0B2B037a4a52Bc373",
    "0xFd31662b3d54eddE9B6Bdd32c9c27C8E292cAD57",
    "0xAB05Cf7C6c3a288cd36326e4f7b8600e7268E344"
  ],
  "numDeployments": 3,
  "solcInputHash": "9578fd8607a4510b6c94f9286634e821",
  "bytecode": "0x6101806040523480156200001257600080fd5b5060405162006021380380620060218339810160408190526200003591620001df565b8562000041816200019e565b856200004d816200019e565b8562000059816200019e565b8562000065816200019e565b8562000071816200019e565b856200007d816200019e565b6001600160a01b038c1660a081905260408051637e062a3560e11b8152905163fc0c546a916004808201926020929091908290030181865afa158015620000c8573d6000803e3d6000fd5b505050506040513d601f19601f82011682018060405250810190620000ee919062000273565b6001600160a01b039081166080528b1660e081905260408051637e062a3560e11b8152905163fc0c546a916004808201926020929091908290030181865afa1580156200013f573d6000803e3d6000fd5b505050506040513d601f19601f8201168201806040525081019062000165919062000273565b6001600160a01b0390811660c052998a16610100525050505093851661012052509083166101405290911661016052506200029a915050565b6001600160a01b038116620001c65760405163e6c4247b60e01b815260040160405180910390fd5b50565b6001600160a01b0381168114620001c657600080fd5b60008060008060008060c08789031215620001f957600080fd5b86516200020681620001c9565b60208801519096506200021981620001c9565b60408801519095506200022c81620001c9565b60608801519094506200023f81620001c9565b60808801519093506200025281620001c9565b60a08801519092506200026581620001c9565b809150509295509295509295565b6000602082840312156200028657600080fd5b81516200029381620001c9565b9392505050565b60805160a05160c05160e05161010051610120516101405161016051615c946200038d6000396000610ad50152600081816137c40152613a71015260008181610eb301528181611b0501528181611c6001528181611c9a015281816130b601528181613735015281816139e201528181614723015261479d0152600081816119a50152611a5801526000505060006128f201526000505060008181610ee00152818161107c0152818161195001528181611cc90152818161268f01528181612e5b01528181612f300152818161324c015281816134ae01528181613df2015281816142e401526143210152615c946000f3fe60806040526004361061028c5760003560e01c80638456cb591161015a578063b992d405116100c1578063d3a4acd31161007a578063d3a4acd3146107dc578063d547741f146107ef578063d6efd7c31461080f578063e597e12d14610824578063e6aac07e14610844578063f6c578611461087757600080fd5b8063b992d40514610709578063c0c53b8b14610729578063c844748714610749578063c997e47e1461077c578063ca15c8731461079c578063cfcb9e3b146107bc57600080fd5b8063a217fddf11610113578063a217fddf1461066c578063a7fb8f1b14610681578063adf51de1146106a1578063b187bd26146106c1578063b3db428b146106d6578063b8350e27146106e957600080fd5b80638456cb591461059c5780638cd2403d146105b15780639010d07c146105d157806391d14854146105f157806393867fb5146106115780639bca0e701461063257600080fd5b80633d1c24e7116101fe57806347e7ef24116101b757806347e7ef24146104cb57806354fd4d50146104de5780635c975abb146104fa57806363f80c1514610513578063673cea69146105335780637bf6a4251461058657600080fd5b80633d1c24e7146104245780633efcfda41461043757806340fbd5fb1461045757806341f435b31461047757806345d6602c1461049857806345f2d040146104ab57600080fd5b80632f2ff15d116102505780632f2ff15d1461036257806333a801aa14610382578063357a0333146103a257806336568abe146103c257806339fadf98146103e25780633cd119241461040457600080fd5b806301ffc9a714610298578063046f7da2146102cd5780631fb6376b146102e4578063248a9ca3146103125780632e1a7d4d1461034257600080fd5b3661029357005b600080fd5b3480156102a457600080fd5b506102b86102b33660046150f1565b610897565b60405190151581526020015b60405180910390f35b3480156102d957600080fd5b506102e26108c2565b005b3480156102f057600080fd5b506103046102ff366004615146565b6108e6565b6040519081526020016102c4565b34801561031e57600080fd5b5061030461032d3660046151b4565b60009081526065602052604090206001015490565b34801561034e57600080fd5b5061030461035d3660046151b4565b61099b565b34801561036e57600080fd5b506102e261037d3660046151cd565b610b40565b34801561038e57600080fd5b5061030461039d3660046151fd565b610b6b565b3480156103ae57600080fd5b506103046103bd366004615288565b610c74565b3480156103ce57600080fd5b506102e26103dd3660046151cd565b610cee565b3480156103ee57600080fd5b506103f7610d6c565b6040516102c491906152b4565b34801561041057600080fd5b5061030461041f366004615301565b610e1e565b6102e261043236600461531e565b610f88565b34801561044357600080fd5b506103046104523660046151b4565b61112a565b34801561046357600080fd5b506102e2610472366004615301565b6111fe565b34801561048357600080fd5b50600080516020615c28833981519152610304565b6103046104a636600461536f565b6112c4565b3480156104b757600080fd5b506103046104c63660046153d6565b611389565b6103046104d9366004615288565b611440565b3480156104ea57600080fd5b50604051600481526020016102c4565b34801561050657600080fd5b5061012d5460ff166102b8565b34801561051f57600080fd5b5061030461052e3660046151fd565b6114ad565b34801561053f57600080fd5b5061056e61054e366004615440565b61ffff16600090815261016460205260409020546001600160a01b031690565b6040516001600160a01b0390911681526020016102c4565b34801561059257600080fd5b5061016854610304565b3480156105a857600080fd5b506102e26115a3565b3480156105bd57600080fd5b506102e26105cc3660046154a6565b6115c4565b3480156105dd57600080fd5b5061056e6105ec3660046154e8565b611615565b3480156105fd57600080fd5b506102b861060c3660046151cd565b611634565b34801561061d57600080fd5b50600080516020615c68833981519152610304565b34801561063e57600080fd5b5061056e61064d366004615301565b6001600160a01b03908116600090815261016760205260409020541690565b34801561067857600080fd5b50610304600081565b34801561068d57600080fd5b506102e261069c36600461550a565b61165f565b3480156106ad57600080fd5b506102e26106bc366004615538565b6118e5565b3480156106cd57600080fd5b506102b8611e33565b6103046106e43660046155ab565b611e47565b3480156106f557600080fd5b506102e2610704366004615631565b611ebe565b34801561071557600080fd5b506102e2610724366004615667565b61204f565b34801561073557600080fd5b506102e26107443660046156bc565b6120e8565b34801561075557600080fd5b507f657d38169ed9612cb2d9de7040b7b6a1adebf7a8433a66ccb49c08554ac9b8a5610304565b34801561078857600080fd5b506102e2610797366004615301565b6121d0565b3480156107a857600080fd5b506103046107b73660046151b4565b612417565b3480156107c857600080fd5b506103046107d73660046153d6565b61242e565b6103046107ea36600461536f565b6124bc565b3480156107fb57600080fd5b506102e261080a3660046151cd565b612571565b34801561081b57600080fd5b506103f7612597565b34801561083057600080fd5b506102e261083f366004615707565b612642565b34801561085057600080fd5b507fdf8c9529ea4b244b569bac557a549516f317e7b5cf82dc5e0d8b6d874930a3f5610304565b34801561088357600080fd5b506102b8610892366004615301565b61268b565b60006001600160e01b03198216635a05180f60e01b14806108bc57506108bc826126d4565b92915050565b600080516020615c288339815191526108db8133612709565b6108e3612730565b50565b6000876108f2816127c5565b876108fc816127c5565b87610906816127ec565b61012d5460ff16156109335760405162461bcd60e51b815260040161092a90615725565b60405180910390fd5b600260fb54036109555760405162461bcd60e51b815260040161092a9061574f565b600260fb819055506109878b8b8b8b60405180606001604052808d60ff1681526020018c81526020018b81525061280d565b600160fb559b9a5050505050505050505050565b60006109aa61012d5460ff1690565b156109c75760405162461bcd60e51b815260040161092a90615725565b600260fb54036109e95760405162461bcd60e51b815260040161092a9061574f565b600260fb55336000610a4c84836000814260405160609290921b6001600160601b031916602083015260e01b6001600160e01b03191660348201526038810184905260580160405160208183030381529060405280519060200120905092915050565b6101605460405163158591ab60e11b8152600481018390526001600160a01b0385811660248301526044820188905292935060009290911690632b0b2356906064016060604051808303816000875af1158015610aad573d6000803e3d6000fd5b505050506040513d601f19601f82011682018060405250810190610ad191906157d3565b90507f00000000000000000000000000000000000000000000000000000000000000006001600160a01b031681600001516001600160a01b031603610b2557610b1b82848361284b565b9350505050610b36565b610b30828483612a05565b93505050505b600160fb55919050565b600082815260656020526040902060010154610b5c8133612b83565b610b668383612be7565b505050565b6000610b7a61012d5460ff1690565b15610b975760405162461bcd60e51b815260040161092a90615725565b600260fb5403610bb95760405162461bcd60e51b815260040161092a9061574f565b600260fb55610bcb8a8a8a8a8a612c09565b610c0c3330898960405180606001604052808a60ff168152602001898152602001888152508f6001600160a01b0316612c8d9095949392919063ffffffff16565b6040805180820182526001600160a01b03808d1682528b811660208084019190915283516060810185528c81528082018c9052600081860152845180860190955233855291891690840152610c619289612d51565b600160fb559a9950505050505050505050565b600082610c80816127c5565b82610c8a816127ec565b61012d5460ff1615610cae5760405162461bcd60e51b815260040161092a90615725565b600260fb5403610cd05760405162461bcd60e51b815260040161092a9061574f565b600260fb55610ce033868661315a565b600160fb5595945050505050565b6001600160a01b0381163314610d5e5760405162461bcd60e51b815260206004820152602f60248201527f416363657373436f6e74726f6c3a2063616e206f6e6c792072656e6f756e636560448201526e103937b632b9903337b91039b2b63360891b606482015260840161092a565b610d6882826131f2565b5050565b60606000610d7b610162613214565b905060008167ffffffffffffffff811115610d9857610d98615786565b604051908082528060200260200182016040528015610dc1578160200160208202803683370190505b50905060005b82811015610e1757610ddb6101628261321e565b828281518110610ded57610ded615817565b6001600160a01b039092166020928302919091019091015280610e0f81615843565b915050610dc7565b5092915050565b6000610e2d61012d5460ff1690565b15610e4a5760405162461bcd60e51b815260040161092a90615725565b7f657d38169ed9612cb2d9de7040b7b6a1adebf7a8433a66ccb49c08554ac9b8a5610e758133612709565b82610e7f816127c5565b610168546000819003610e96576000935050610f81565b600061016855604051631c20fadd60e01b81526001600160a01b037f00000000000000000000000000000000000000000000000000000000000000001690631c20fadd90610f0c907f0000000000000000000000000000000000000000000000000000000000000000908990869060040161585c565b600060405180830381600087803b158015610f2657600080fd5b505af1158015610f3a573d6000803e3d6000fd5b50506040518381526001600160a01b03881692503391507f328c9cc28e75030423307e732b07659ae452a620281f3e54e838000a7f4675389060200160405180910390a392505b5050919050565b61012d5460ff1615610fac5760405162461bcd60e51b815260040161092a90615725565b7fdf8c9529ea4b244b569bac557a549516f317e7b5cf82dc5e0d8b6d874930a3f5610fd78133612709565b600260fb5403610ff95760405162461bcd60e51b815260040161092a9061574f565b600260fb55604080516001600160601b031933606090811b82166020808501919091526001600160e01b03194260e01b1660348501528a821b8316603885015289821b909216604c84015282018790526080820186905260a08083018690528351808403909101815260c090920190925280519101206001600160a01b038088167f000000000000000000000000000000000000000000000000000000000000000091909116036110b9576110b38187873360018861322a565b506110c9565b6110c7818789883389613361565b505b60408051868152602081018690529081018490526001600160a01b03808816919089169083907f102bce4e43a6a8cf0306fde6154221c1f5460f64ba63b92b156bce998ef0db569060600160405180910390a45050600160fb555050505050565b600061113961012d5460ff1690565b156111565760405162461bcd60e51b815260040161092a90615725565b600260fb54036111785760405162461bcd60e51b815260040161092a9061574f565b600260fb5561016054604051635f23b6c560e11b8152336004820152602481018490526001600160a01b039091169063be476d8a906044016020604051808303816000875af11580156111cf573d6000803e3d6000fd5b505050506040513d601f19601f820116820180604052508101906111f39190615880565b600160fb5592915050565b80611208816127c5565b611220600080516020615c6883398151915233612709565b600260fb54036112425760405162461bcd60e51b815260040161092a9061574f565b600260fb55611250826133c1565b6112bb826001600160a01b031663b1dd61b66040518163ffffffff1660e01b8152600401602060405180830381865afa158015611291573d6000803e3d6000fd5b505050506040513d601f19601f820116820180604052508101906112b59190615899565b83613400565b5050600160fb55565b60006112d361012d5460ff1690565b156112f05760405162461bcd60e51b815260040161092a90615725565b600260fb54036113125760405162461bcd60e51b815260040161092a9061574f565b600260fb556113248787878787612c09565b6040805180820182526001600160a01b03808a16825288811660208084019190915283516060810185528981528082018990526000818601528451808601909552338552918616908401526113799286612d51565b600160fb55979650505050505050565b600086611395816127c5565b8661139f816127ec565b61012d5460ff16156113c35760405162461bcd60e51b815260040161092a90615725565b600260fb54036113e55760405162461bcd60e51b815260040161092a9061574f565b600260fb556040805160608101825260ff8816815260208101879052908101859052611423906001600160a01b038b1690339030908c908c90612c8d565b61142e338a8a61315a565b600160fb559998505050505050505050565b60008261144c816127c5565b82611456816127ec565b61012d5460ff161561147a5760405162461bcd60e51b815260040161092a90615725565b600260fb540361149c5760405162461bcd60e51b815260040161092a9061574f565b600260fb55610ce033868682613493565b60006114bc61012d5460ff1690565b156114d95760405162461bcd60e51b815260040161092a90615725565b600260fb54036114fb5760405162461bcd60e51b815260040161092a9061574f565b600260fb5561150d8a8a8a8a8a612c09565b61154e33308a8960405180606001604052808a60ff168152602001898152602001888152508f6001600160a01b0316612c8d9095949392919063ffffffff16565b6040805180820182526001600160a01b03808d1682528b811660208084019190915283516060810185528c81528082018c9052600181860152845180860190955233855291891690840152610c619289612d51565b600080516020615c288339815191526115bc8133612709565b6108e36134fc565b60c9546000906115d99061ffff1660016158b6565b905061ffff81166004146115ff5760405162dc149f60e41b815260040160405180910390fd5b60c9805461ffff191661ffff8316179055505050565b600082815260976020526040812061162d908361321e565b9392505050565b60009182526065602090815260408084206001600160a01b0393909316845291905290205460ff1690565b81611669816127c5565b611681600080516020615c6883398151915233612709565b600260fb54036116a35760405162461bcd60e51b815260040161092a9061574f565b600260fb556001600160a01b03808316908416036116d45760405163386c33d760e11b815260040160405180910390fd5b6116dd826133c1565b826001600160a01b031663f525cb686040518163ffffffff1660e01b8152600401602060405180830381865afa15801561171b573d6000803e3d6000fd5b505050506040513d601f19601f8201168201806040525081019061173f9190615880565b1561175d576040516332e7879360e01b815260040160405180910390fd5b61176961016284613556565b6117865760405163b0ce759160e01b815260040160405180910390fd5b6000836001600160a01b031663b1dd61b66040518163ffffffff1660e01b8152600401602060405180830381865afa1580156117c6573d6000803e3d6000fd5b505050506040513d601f19601f820116820180604052508101906117ea9190615899565b90506001600160a01b0383161561188b576000836001600160a01b031663b1dd61b66040518163ffffffff1660e01b8152600401602060405180830381865afa15801561183b573d6000803e3d6000fd5b505050506040513d601f19601f8201168201806040525081019061185f9190615899565b90508061ffff168261ffff16146118895760405163b968846160e01b815260040160405180910390fd5b505b6118958184613400565b6118a084600061356b565b6040516001600160a01b0385169061ffff8316907fa0c1e3924f995e5ba38f53b4effb6d4b3eeb84176a2951c589115140f638ac0990600090a35050600160fb555050565b846118ef816127c5565b846118f9816127ec565b84611903816127c5565b61012d5460ff16156119275760405162461bcd60e51b815260040161092a90615725565b600260fb54036119495760405162461bcd60e51b815260040161092a9061574f565b600260fb557f00000000000000000000000000000000000000000000000000000000000000006001600160a01b0390811690891614158015611a12575060405163b5af090f60e01b81526001600160a01b0389811660048301527f0000000000000000000000000000000000000000000000000000000000000000169063b5af090f90602401602060405180830381865afa1580156119ec573d6000803e3d6000fd5b505050506040513d601f19601f82011682018060405250810190611a1091906158dc565b155b15611a3057604051630b094f2760e31b815260040160405180910390fd5b604051637c36afad60e01b81526001600160a01b038981166004830152600091611ad4918a917f000000000000000000000000000000000000000000000000000000000000000090911690637c36afad90602401602060405180830381865afa158015611aa1573d6000803e3d6000fd5b505050506040513d601f19601f82011682018060405250810190611ac591906158fe565b63ffffffff16620f4240613aa2565b90506000611aeb6001600160a01b038b1630613b6e565b604051631c20fadd60e01b81529091506001600160a01b037f00000000000000000000000000000000000000000000000000000000000000001690631c20fadd90611b3e908d908c908e9060040161585c565b600060405180830381600087803b158015611b5857600080fd5b505af1158015611b6c573d6000803e3d6000fd5b50505050876001600160a01b03166323e30c8b33611b908d6001600160a01b031690565b8c868c8c6040518763ffffffff1660e01b8152600401611bb596959493929190615924565b600060405180830381600087803b158015611bcf57600080fd5b505af1158015611be3573d6000803e3d6000fd5b50505050600081611c06308d6001600160a01b0316613b6e90919063ffffffff16565b611c109190615980565b9050611c1c838b615997565b811015611c3c5760405163b7ed78bf60e01b815260040160405180910390fd5b611c4e8b6001600160a01b0316613bfc565b15611c8b57611c866001600160a01b037f00000000000000000000000000000000000000000000000000000000000000001682613c1e565b611cbf565b611cbf6001600160a01b038c167f000000000000000000000000000000000000000000000000000000000000000083613d37565b6001600160a01b037f00000000000000000000000000000000000000000000000000000000000000008116908c1603611d685761015f54604051637c8f622d60e01b81526001600160a01b038d811660048301526024820186905260006044830152909116908190637c8f622d90606401600060405180830381600087803b158015611d4a57600080fd5b505af1158015611d5e573d6000803e3d6000fd5b5050505050611ddb565b6000611d738c613da2565b604051631510748b60e01b81526001600160a01b038e811660048301526024820187905291925090821690631510748b90604401600060405180830381600087803b158015611dc157600080fd5b505af1158015611dd5573d6000803e3d6000fd5b50505050505b604080518b81526020810185905233916001600160a01b038e16917f0da3485ef1bb570df7bb888887eae5aa01d81b83cd8ccc80c0ea0922a677ecef910160405180910390a35050600160fb55505050505050505050565b6000611e4261012d5460ff1690565b905090565b600083611e53816127c5565b83611e5d816127c5565b83611e67816127ec565b61012d5460ff1615611e8b5760405162461bcd60e51b815260040161092a90615725565b600260fb5403611ead5760405162461bcd60e51b815260040161092a9061574f565b600260fb5561137987878733613493565b600260fb5403611ee05760405162461bcd60e51b815260040161092a9061574f565b600260fb558060005b81811015612044576000848483818110611f0557611f05615817565b9050602002016020810190611f1a9190615301565b61016154604051630874327f60e01b81526001600160a01b03808416600483015292935060009290911690630874327f906024016020604051808303816000875af1158015611f6d573d6000803e3d6000fd5b505050506040513d601f19601f82011682018060405250810190611f9191906159af565b6001600160a01b038084166000818152610167602052604080822080548587166001600160a01b031982161790915590519495509092169283927f987eb3c2f78454541205f72f34839b434c306c9eaf4922efd7c0c3060fdb2e4c91a3816001600160a01b0316836001600160a01b03167f95f865c2808f8b2a85eea2611db7843150ee7835ef1403f9755918a97d76933c60405160405180910390a3505050808061203c90615843565b915050611ee9565b5050600160fb555050565b612067600080516020615c6883398151915233612709565b600260fb54036120895760405162461bcd60e51b815260040161092a9061574f565b600260fb558060005b818110156120dc576120ca858585848181106120b0576120b0615817565b90506020020160208101906120c59190615301565b613dde565b806120d481615843565b915050612092565b5050600160fb55505050565b826120f2816127c5565b826120fc816127c5565b82612106816127c5565b600054610100900460ff166121215760005460ff1615612125565b303b155b6121885760405162461bcd60e51b815260206004820152602e60248201527f496e697469616c697a61626c653a20636f6e747261637420697320616c72656160448201526d191e481a5b9a5d1a585b1a5e995960921b606482015260840161092a565b600054610100900460ff161580156121aa576000805461ffff19166101011790555b6121b5878787613f8e565b80156121c7576000805461ff00191690555b50505050505050565b806121da816127c5565b6121f2600080516020615c6883398151915233612709565b600260fb54036122145760405162461bcd60e51b815260040161092a9061574f565b600260fb5561222561016283613fd8565b6122425760405163119b4fd360e11b815260040160405180910390fd5b6000826001600160a01b031663b1dd61b66040518163ffffffff1660e01b8152600401602060405180830381865afa158015612282573d6000803e3d6000fd5b505050506040513d601f19601f820116820180604052508101906122a69190615899565b61ffff8116600090815261016460205260409020549091506001600160a01b0316801580159061239f5750836001600160a01b03166354fd4d506040518163ffffffff1660e01b8152600401602060405180830381865afa15801561230f573d6000803e3d6000fd5b505050506040513d601f19601f820116820180604052508101906123339190615899565b61ffff16816001600160a01b03166354fd4d506040518163ffffffff1660e01b8152600401602060405180830381865afa158015612375573d6000803e3d6000fd5b505050506040513d601f19601f820116820180604052508101906123999190615899565b61ffff16145b156123bd5760405163119b4fd360e11b815260040160405180910390fd5b6123c78285613400565b6123d284600161356b565b6040516001600160a01b0385169061ffff8416907f5ae87719d73cb0fabb219f0e4b6e0a614ed7506f8a08bdb20bebf313573151b790600090a35050600160fb555050565b60008181526097602052604081206108bc90613214565b60008661243a816127c5565b86612444816127ec565b61012d5460ff16156124685760405162461bcd60e51b815260040161092a90615725565b600260fb540361248a5760405162461bcd60e51b815260040161092a9061574f565b600260fb8190555061142e338a8a8a60405180606001604052808c60ff1681526020018b81526020018a81525061280d565b60006124cb61012d5460ff1690565b156124e85760405162461bcd60e51b815260040161092a90615725565b600260fb540361250a5760405162461bcd60e51b815260040161092a9061574f565b600260fb5561251c8787878787612c09565b6040805180820182526001600160a01b03808a16825288811660208084019190915283516060810185528981528082018990526001818601528451808601909552338552918616908401526113799286612d51565b60008281526065602052604090206001015461258d8133612b83565b610b6683836131f2565b606060006125a6610165613214565b905060008167ffffffffffffffff8111156125c3576125c3615786565b6040519080825280602002602001820160405280156125ec578160200160208202803683370190505b50905060005b82811015610e17576126066101658261321e565b82828151811061261857612618615817565b6001600160a01b03909216602092830291909101909101528061263a81615843565b9150506125f2565b61265a600080516020615c6883398151915233612709565b600260fb540361267c5760405162461bcd60e51b815260040161092a9061574f565b600260fb556112bb8282613dde565b60007f00000000000000000000000000000000000000000000000000000000000000006001600160a01b0316826001600160a01b031614806108bc57506108bc61016583613fed565b60006001600160e01b03198216637965db0b60e01b14806108bc57506301ffc9a760e01b6001600160e01b03198316146108bc565b6127138282611634565b610d6857604051634ca8886760e01b815260040160405180910390fd5b61012d5460ff1661277a5760405162461bcd60e51b815260206004820152601460248201527314185d5cd8589b194e881b9bdd081c185d5cd95960621b604482015260640161092a565b61012d805460ff191690557f5db9ee0a495bf2e6ff9c91a7834c1ba4fdd244a5e8aa4e537bd38aeae4b073aa335b6040516001600160a01b03909116815260200160405180910390a1565b6001600160a01b0381166108e35760405163e6c4247b60e01b815260040160405180910390fd5b806000036108e357604051637c946ed760e01b815260040160405180910390fd5b6000336128276001600160a01b0387168230888888612c8d565b6128406128368888888561400f565b888888858a613361565b979650505050505050565b61015f5481516101605460208401516040516323b872dd60e01b81526000946001600160a01b03908116948116936323b872dd93612892939190921691869160040161585c565b6020604051808303816000875af11580156128b1573d6000803e3d6000fd5b505050506040513d601f19601f820116820180604052508101906128d591906158dc565b5060208301516040516323b872dd60e01b81526001600160a01b037f000000000000000000000000000000000000000000000000000000000000000016916323b872dd9161292a91889186919060040161585c565b6020604051808303816000875af1158015612949573d6000803e3d6000fd5b505050506040513d601f19601f8201168201806040525081019061296d91906158dc565b50602083015160408085015190516372026c6760e11b8152600481018890526001600160a01b038781166024830152604482019390935260648101919091529082169063e404d8ce906084016020604051808303816000875af11580156129d8573d6000803e3d6000fd5b505050506040513d601f19601f820116820180604052508101906129fc9190615880565b95945050505050565b60008082600001516001600160a01b031663f4325d676040518163ffffffff1660e01b8152600401602060405180830381865afa158015612a4a573d6000803e3d6000fd5b505050506040513d601f19601f82011682018060405250810190612a6e91906159af565b90506000612a7b82613da2565b84516101605460208701516040516323b872dd60e01b81529394506001600160a01b03928316936323b872dd93612ab8931691869160040161585c565b6020604051808303816000875af1158015612ad7573d6000803e3d6000fd5b505050506040513d601f19601f82011682018060405250810190612afb91906158dc565b50602084015160408086015190516356aca36f60e01b81526001600160a01b038416926356aca36f92612b36928b928b9289926004016159cc565b6020604051808303816000875af1158015612b55573d6000803e3d6000fd5b505050506040513d601f19601f82011682018060405250810190612b799190615880565b9695505050505050565b612b8d8282611634565b610d6857612ba5816001600160a01b03166014614074565b612bb0836020614074565b604051602001612bc1929190615a27565b60408051601f198184030181529082905262461bcd60e51b825261092a91600401615a9c565b612bf18282614210565b6000828152609760205260409020610b669082613fd8565b612c12856127c5565b612c1b846127c5565b836001600160a01b0316856001600160a01b031603612c4d5760405163c1ab6dc160e01b815260040160405180910390fd5b612c56836127ec565b612c5f826127ec565b4263ffffffff16811015612c8657604051631ab7da6b60e01b815260040160405180910390fd5b5050505050565b612c9686613bfc565b15612cb457604051631a4ecdbb60e11b815260040160405180910390fd5b80516020820151604080840151905163d505accf60e01b81526001600160a01b0389811660048301528881166024830152604482018890526064820187905260ff909416608482015260a481019290925260c48201529087169063d505accf9060e401600060405180830381600087803b158015612d3157600080fd5b505af1158015612d45573d6000803e3d6000fd5b50505050505050505050565b60208201516000906001600160a01b0316612d775782516001600160a01b031660208401525b825185516020808801518751888301516040808b0151858b015182516001600160601b031960609a8b1b8116828a01526001600160e01b03194260e01b166034830152988a1b8916603882015295891b8816604c87015288860194909452608080860193909352151560f81b60a085015260a1840189905291861b90941660c1830152805160b581840301815260d5830180835281519185019190912061015584018352600080835260f5850181905261011585018190526101359094018490528251958601835283865293850183905290840182905293830152919087516000907f00000000000000000000000000000000000000000000000000000000000000006001600160a01b03908116911603612f2157612e9d848a6020015160018b614296565b91508192508160600151905088602001516001600160a01b031689600001516001600160a01b0316857f5c02c2bb2d1d082317eb23916ca27b3e7c294398b60061a2ad54f1c3c018c318856000015186602001518760000151886040015160008f60000151604051612f1496959493929190615acf565b60405180910390a4613080565b60208901516001600160a01b037f00000000000000000000000000000000000000000000000000000000000000008116911603612fe357612f69848a6000015160008b614296565b91508192508160600151905088602001516001600160a01b031689600001516001600160a01b0316857f5c02c2bb2d1d082317eb23916ca27b3e7c294398b60061a2ad54f1c3c018c318856000015186602001518760200151886040015189604001518f60000151604051612f1496959493929190615acf565b612fee848a8a61457e565b6060808201519083015192955090935061300791615997565b905088602001516001600160a01b031689600001516001600160a01b0316857f5c02c2bb2d1d082317eb23916ca27b3e7c294398b60061a2ad54f1c3c018c31886600001518660200151886020015188604001518a604001518f6000015160405161307796959493929190615acf565b60405180910390a45b8851875184516130919291906146de565b6020808a01518882015191840151604051631c20fadd60e01b81526001600160a01b037f00000000000000000000000000000000000000000000000000000000000000001693631c20fadd936130eb93909260040161585c565b600060405180830381600087803b15801561310557600080fd5b505af1158015613119573d6000803e3d6000fd5b505050508061016860008282546131309190615997565b9091555050604088015161314557815161314b565b81602001515b9450505050505b949350505050565b6101605460009061317a906001600160a01b0385811691879116856147c2565b610160546040516313e7e7d160e11b81526001600160a01b03909116906327cfcfa2906131af9087908790879060040161585c565b6020604051808303816000875af11580156131ce573d6000803e3d6000fd5b505050506040513d601f19601f820116820180604052508101906131529190615880565b6131fc828261481a565b6000828152609760205260409020610b669082613556565b60006108bc825490565b600061162d8383614881565b61015f546040516323b872dd60e01b81526000916001600160a01b03908116917f0000000000000000000000000000000000000000000000000000000000000000909116906323b872dd9061328790889085908b9060040161585c565b6020604051808303816000875af11580156132a6573d6000803e3d6000fd5b505050506040513d601f19601f820116820180604052508101906132ca91906158dc565b5060405163e06bf20d60e01b8152600481018990526001600160a01b0388811660248301526044820188905285151560648301526084820185905282169063e06bf20d9060a4015b6020604051808303816000875af1158015613331573d6000803e3d6000fd5b505050506040513d601f19601f820116820180604052508101906133559190615880565b98975050505050505050565b600061336e8584846146de565b600061337986613da2565b604051639f5c734b60e01b8152600481018a90526001600160a01b03898116602483015288811660448301526064820188905291925090821690639f5c734b90608401613312565b6001600160a01b038116158015906133e257506133e061016282613fed565b155b156108e35760405163b0ce759160e01b815260040160405180910390fd5b61ffff8216600090815261016460205260409020546001600160a01b03908116908216810361342e57505050565b61ffff83166000818152610164602052604080822080546001600160a01b0319166001600160a01b03878116918217909255915191939085169290917f1c34d22e7a908d21c83b9601fc8e1f2ba435b2e9e15ba4104e882ed826b1cc329190a4505050565b6000806134a28686868661400f565b90506001600160a01b037f00000000000000000000000000000000000000000000000000000000000000008116908616036134ee576134e68187868660008061322a565b915050613152565b612b79818787878789613361565b61012d5460ff16156135205760405162461bcd60e51b815260040161092a90615725565b61012d805460ff191660011790557f62e78cea01bee320cd4e420270b5ea74000d11b0c9f74754ebdbfc544b05a2586127a83390565b600061162d836001600160a01b0384166148ab565b81811561381f5761015f54604051632f2ff15d60e01b81527f4cbb5676e6e25e1a3b8a36de10472bcac96f97bd8dd87af6f330881b84739eb860048201526001600160a01b03838116602483015290911690632f2ff15d90604401600060405180830381600087803b1580156135e057600080fd5b505af11580156135f4573d6000803e3d6000fd5b505061015f54604051632f2ff15d60e01b81527f0d0d17bf5382c809d9a3899d6a94e57386dfb2036f0401b94ef3cf6c1a9ab73f60048201526001600160a01b0385811660248301529091169250632f2ff15d9150604401600060405180830381600087803b15801561366657600080fd5b505af115801561367a573d6000803e3d6000fd5b505061015f54604051632f2ff15d60e01b81527fca51b9188e78415f30da725e0d94567b4d65bc6777d4e5d573191e9f55b88a3260048201526001600160a01b0385811660248301529091169250632f2ff15d9150604401600060405180830381600087803b1580156136ec57600080fd5b505af1158015613700573d6000803e3d6000fd5b5050604051632f2ff15d60e01b8152600080516020615c4883398151915260048201526001600160a01b0384811660248301527f0000000000000000000000000000000000000000000000000000000000000000169250632f2ff15d9150604401600060405180830381600087803b15801561377b57600080fd5b505af115801561378f573d6000803e3d6000fd5b5050604051632f2ff15d60e01b8152600080516020615c4883398151915260048201526001600160a01b0384811660248301527f0000000000000000000000000000000000000000000000000000000000000000169250632f2ff15d91506044015b600060405180830381600087803b15801561380b57600080fd5b505af11580156121c7573d6000803e3d6000fd5b61015f5460405163d547741f60e01b81527f4cbb5676e6e25e1a3b8a36de10472bcac96f97bd8dd87af6f330881b84739eb860048201526001600160a01b0383811660248301529091169063d547741f90604401600060405180830381600087803b15801561388d57600080fd5b505af11580156138a1573d6000803e3d6000fd5b505061015f5460405163d547741f60e01b81527f0d0d17bf5382c809d9a3899d6a94e57386dfb2036f0401b94ef3cf6c1a9ab73f60048201526001600160a01b038581166024830152909116925063d547741f9150604401600060405180830381600087803b15801561391357600080fd5b505af1158015613927573d6000803e3d6000fd5b505061015f5460405163d547741f60e01b81527fca51b9188e78415f30da725e0d94567b4d65bc6777d4e5d573191e9f55b88a3260048201526001600160a01b038581166024830152909116925063d547741f9150604401600060405180830381600087803b15801561399957600080fd5b505af11580156139ad573d6000803e3d6000fd5b505060405163d547741f60e01b8152600080516020615c4883398151915260048201526001600160a01b0384811660248301527f000000000000000000000000000000000000000000000000000000000000000016925063d547741f9150604401600060405180830381600087803b158015613a2857600080fd5b505af1158015613a3c573d6000803e3d6000fd5b505060405163d547741f60e01b8152600080516020615c4883398151915260048201526001600160a01b0384811660248301527f000000000000000000000000000000000000000000000000000000000000000016925063d547741f91506044016137f1565b600080613aaf858561499e565b8051909150600003613ad357828160200151613acb9190615b16565b91505061162d565b80518311613af457604051631a93c68960e11b815260040160405180910390fd5b6000613b01868686614a25565b90506000613b0f8383614a40565b8051909150600003613b3557848160200151613b2b9190615b16565b935050505061162d565b6000858103861690613b478383614ac5565b90506000613b5d613b58848a615b16565b614afc565b919091029998505050505050505050565b6000613b7983613bfc565b15613b8f57506001600160a01b038116316108bc565b826040516370a0823160e01b81526001600160a01b03848116600483015291909116906370a0823190602401602060405180830381865afa158015613bd8573d6000803e3d6000fd5b505050506040513d601f19601f8201168201806040525081019061162d9190615880565b6001600160a01b031673eeeeeeeeeeeeeeeeeeeeeeeeeeeeeeeeeeeeeeee1490565b80471015613c6e5760405162461bcd60e51b815260206004820152601d60248201527f416464726573733a20696e73756666696369656e742062616c616e6365000000604482015260640161092a565b6000826001600160a01b03168260405160006040518083038185875af1925050503d8060008114613cbb576040519150601f19603f3d011682016040523d82523d6000602084013e613cc0565b606091505b5050905080610b665760405162461bcd60e51b815260206004820152603a60248201527f416464726573733a20756e61626c6520746f2073656e642076616c75652c207260448201527f6563697069656e74206d61792068617665207265766572746564000000000000606482015260840161092a565b80600003613d4457505050565b613d4d83613bfc565b15613d8e576040516001600160a01b0383169082156108fc029083906000818181858888f19350505050158015613d88573d6000803e3d6000fd5b50505050565b610b666001600160a01b0384168383614b27565b6001600160a01b0380821660009081526101676020526040812054909116806108bc5760405163c1ab6dc160e01b815260040160405180910390fd5b80613de8816127c5565b6001600160a01b037f0000000000000000000000000000000000000000000000000000000000000000811690831603613e345760405163c1ab6dc160e01b815260040160405180910390fd5b613e4061016583613fd8565b613e5d5760405163119b4fd360e11b815260040160405180910390fd5b61ffff8316600090815261016460205260409020546001600160a01b031680613e995760405163b968846160e01b815260040160405180910390fd5b604051634824fce960e11b81526001600160a01b038481166004830152821690639049f9d290602401600060405180830381600087803b158015613edc57600080fd5b505af1158015613ef0573d6000803e3d6000fd5b505050506001600160a01b038381166000818152610167602052604080822080546001600160a01b0319169486169485179055517f4f2ce4e40f623ca765fc0167a25cb7842ceaafb8d82d3dec26ca0d0e0d2d48969190a3806001600160a01b0316836001600160a01b03167f95f865c2808f8b2a85eea2611db7843150ee7835ef1403f9755918a97d76933c60405160405180910390a350505050565b600054610100900460ff16613fb55760405162461bcd60e51b815260040161092a90615b38565b613fbd614b57565b613fc5614b90565b613fcd614bbf565b610b66838383614bee565b600061162d836001600160a01b038416614ceb565b6001600160a01b0381166000908152600183016020526040812054151561162d565b604080516001600160601b0319606093841b81166020808401919091526001600160e01b03194260e01b16603484015296841b8116603883015294831b909416604c850152818401929092528151808403909101815260809092019052805191012090565b60606000614083836002615b83565b61408e906002615997565b67ffffffffffffffff8111156140a6576140a6615786565b6040519080825280601f01601f1916602001820160405280156140d0576020820181803683370190505b509050600360fc1b816000815181106140eb576140eb615817565b60200101906001600160f81b031916908160001a905350600f60fb1b8160018151811061411a5761411a615817565b60200101906001600160f81b031916908160001a905350600061413e846002615b83565b614149906001615997565b90505b60018111156141c1576f181899199a1a9b1b9c1cb0b131b232b360811b85600f166010811061417d5761417d615817565b1a60f81b82828151811061419357614193615817565b60200101906001600160f81b031916908160001a90535060049490941c936141ba81615ba2565b905061414c565b50831561162d5760405162461bcd60e51b815260206004820181905260248201527f537472696e67733a20686578206c656e67746820696e73756666696369656e74604482015260640161092a565b61421a8282611634565b610d685760008281526065602090815260408083206001600160a01b03851684529091529020805460ff191660011790556142523390565b6001600160a01b0316816001600160a01b0316837f2f8788117e7eff1d82e926ec794901d17c78024a50270940304540a733656f0d60405160405180910390a45050565b6142c16040518060800160405280600081526020016000815260200160008152602001600081525090565b600083614314576040518060400160405280866001600160a01b031681526020017f00000000000000000000000000000000000000000000000000000000000000006001600160a01b031681525061435c565b60405180604001604052807f00000000000000000000000000000000000000000000000000000000000000006001600160a01b03168152602001866001600160a01b03168152505b9050600083604001516143fd5761437286613da2565b6001600160a01b031663b7fafb7a8884600001518560200151886000015189602001516040518663ffffffff1660e01b81526004016143b59594939291906159cc565b6060604051808303816000875af11580156143d4573d6000803e3d6000fd5b505050506040513d601f19601f820116820180604052508101906143f89190615bb9565b61448c565b61440686613da2565b6001600160a01b03166352c8f9908884600001518560200151886000015189602001516040518663ffffffff1660e01b81526004016144499594939291906159cc565b6060604051808303816000875af1158015614468573d6000803e3d6000fd5b505050506040513d601f19601f8201168201806040525081019061448c9190615bb9565b9050846145255761015f54604082015160208301516001600160a01b0390921691637c8f622d9189916144bf9190615980565b6040516001600160e01b031960e085901b1681526001600160a01b039092166004830152602482015260016044820152606401600060405180830381600087803b15801561450c57600080fd5b505af1158015614520573d6000803e3d6000fd5b505050505b60405180608001604052808560400151614540578251614543565b85515b8152602001856040015161455857855161455b565b82515b815260200182602001518152602001826040015181525092505050949350505050565b6145a96040518060800160405280600081526020016000815260200160008152602001600081525090565b6145d46040518060800160405280600081526020016000815260200160008152602001600081525090565b82604001511561465c5782516020808501518651604080516060810182528581526001948101859052908101939093529091600091614617918a91908490614296565b9050600061464d898960200151600160405180606001604052808760200151815260200188815260200160011515815250614296565b9195509093506146d692505050565b825160208085015186820151604080516060810182528581526000199481019490945260009084018190529192614697918a91600190614296565b905060006146cd898960000151600060405180606001604052808760000151815260200188815260200160001515815250614296565b95509093505050505b935093915050565b6146f0836001600160a01b0316613bfc565b1561476e5780341015614716576040516342f7487960e11b815260040160405180910390fd5b6147496001600160a01b037f00000000000000000000000000000000000000000000000000000000000000001682613c1e565b80341115610b6657610b6661475e8234615980565b6001600160a01b03841690613c1e565b341561478d576040516342f7487960e11b815260040160405180910390fd5b610b666001600160a01b038416837f000000000000000000000000000000000000000000000000000000000000000084614d3a565b613d88846323b872dd60e01b8585856040516024016147e39392919061585c565b60408051601f198184030181529190526020810180516001600160e01b03166001600160e01b031990931692909217909152614d64565b6148248282611634565b15610d685760008281526065602090815260408083206001600160a01b0385168085529252808320805460ff1916905551339285917ff6391f5c32d9c69d2a47ea670b442974b53935d1edc7fd64eb21e047a839171b9190a45050565b600082600001828154811061489857614898615817565b9060005260206000200154905092915050565b600081815260018301602052604081205480156149945760006148cf600183615980565b85549091506000906148e390600190615980565b905081811461494857600086600001828154811061490357614903615817565b906000526020600020015490508087600001848154811061492657614926615817565b6000918252602080832090910192909255918252600188019052604090208390555b855486908061495957614959615bf5565b6001900381819060005260206000200160009055905585600101600086815260200190815260200160002060009055600193505050506108bc565b60009150506108bc565b604080518082019091526000808252602082015260006149be8484614e36565b90508383028082106149f357604051806040016040528082846149e19190615980565b815260200182815250925050506108bc565b60405180604001604052806001614a0a8585900390565b614a149190615980565b815260200191909152949350505050565b60008180614a3557614a35615b00565b838509949350505050565b604080518082019091526000808252602082015281836020015110614a8d57604051806040016040528084600001518152602001838560200151614a849190615980565b905290506108bc565b604051806040016040528060018560000151614aa99190615980565b8152602001614abc856020015185900390565b90529392505050565b600080614add614ad784808403615b16565b60010190565b9050828460200151614aef9190615b16565b8451820217949350505050565b60006001815b6008811015610e17578382026002038202915080614b1f81615843565b915050614b02565b6040516001600160a01b038316602482015260448101829052610b6690849063a9059cbb60e01b906064016147e3565b600054610100900460ff16614b7e5760405162461bcd60e51b815260040161092a90615b38565b614b86614e45565b614b8e614e6c565b565b600054610100900460ff16614bb75760405162461bcd60e51b815260040161092a90615b38565b614b8e614ed1565b600054610100900460ff16614be65760405162461bcd60e51b815260040161092a90615b38565b614b8e614eff565b600054610100900460ff16614c155760405162461bcd60e51b815260040161092a90615b38565b61015f80546001600160a01b038086166001600160a01b0319928316179092556101608054858416908316179055610161805492841692909116919091179055614c8d7fdf8c9529ea4b244b569bac557a549516f317e7b5cf82dc5e0d8b6d874930a3f5600080516020615c68833981519152614f33565b614cb3600080516020615c28833981519152600080516020615c68833981519152614f33565b610b667f657d38169ed9612cb2d9de7040b7b6a1adebf7a8433a66ccb49c08554ac9b8a5600080516020615c68833981519152614f33565b6000818152600183016020526040812054614d32575081546001818101845560008481526020808220909301849055845484825282860190935260409020919091556108bc565b5060006108bc565b801580614d4b5750614d4b84613bfc565b613d8857613d886001600160a01b0385168484846147c2565b6000614db9826040518060400160405280602081526020017f5361666545524332303a206c6f772d6c6576656c2063616c6c206661696c6564815250856001600160a01b0316614f7e9092919063ffffffff16565b805190915015610b665780806020019051810190614dd791906158dc565b610b665760405162461bcd60e51b815260206004820152602a60248201527f5361666545524332303a204552433230206f7065726174696f6e20646964206e6044820152691bdd081cdd58d8d9595960b21b606482015260840161092a565b60006000198284099392505050565b600054610100900460ff16614b8e5760405162461bcd60e51b815260040161092a90615b38565b600054610100900460ff16614e935760405162461bcd60e51b815260040161092a90615b38565b60c9805461ffff19166001179055614eb9600080516020615c6883398151915280614f33565b614b8e600080516020615c6883398151915233614f8d565b600054610100900460ff16614ef85760405162461bcd60e51b815260040161092a90615b38565b600160fb55565b600054610100900460ff16614f265760405162461bcd60e51b815260040161092a90615b38565b61012d805460ff19169055565b600082815260656020526040808220600101805490849055905190918391839186917fbd79b86ffe0ab8e8776151514217cd7cacd52c909f66475c3af44e129f0b00ff9190a4505050565b60606131528484600085614f97565b610d688282612be7565b606082471015614ff85760405162461bcd60e51b815260206004820152602660248201527f416464726573733a20696e73756666696369656e742062616c616e636520666f6044820152651c8818d85b1b60d21b606482015260840161092a565b6001600160a01b0385163b61504f5760405162461bcd60e51b815260206004820152601d60248201527f416464726573733a2063616c6c20746f206e6f6e2d636f6e7472616374000000604482015260640161092a565b600080866001600160a01b0316858760405161506b9190615c0b565b60006040518083038185875af1925050503d80600081146150a8576040519150601f19603f3d011682016040523d82523d6000602084013e6150ad565b606091505b5091509150612840828286606083156150c757508161162d565b8251156150d75782518084602001fd5b8160405162461bcd60e51b815260040161092a9190615a9c565b60006020828403121561510357600080fd5b81356001600160e01b03198116811461162d57600080fd5b6001600160a01b03811681146108e357600080fd5b803560ff8116811461514157600080fd5b919050565b600080600080600080600060e0888a03121561516157600080fd5b873561516c8161511b565b9650602088013561517c8161511b565b9550604088013594506060880135935061519860808901615130565b925060a0880135915060c0880135905092959891949750929550565b6000602082840312156151c657600080fd5b5035919050565b600080604083850312156151e057600080fd5b8235915060208301356151f28161511b565b809150509250929050565b60008060008060008060008060006101208a8c03121561521c57600080fd5b89356152278161511b565b985060208a01356152378161511b565b975060408a0135965060608a0135955060808a0135945060a08a013561525c8161511b565b935061526a60c08b01615130565b925060e08a013591506101008a013590509295985092959850929598565b6000806040838503121561529b57600080fd5b82356152a68161511b565b946020939093013593505050565b6020808252825182820181905260009190848201906040850190845b818110156152f55783516001600160a01b0316835292840192918401916001016152d0565b50909695505050505050565b60006020828403121561531357600080fd5b813561162d8161511b565b600080600080600060a0868803121561533657600080fd5b85356153418161511b565b945060208601356153518161511b565b94979496505050506040830135926060810135926080909101359150565b60008060008060008060c0878903121561538857600080fd5b86356153938161511b565b955060208701356153a38161511b565b945060408701359350606087013592506080870135915060a08701356153c88161511b565b809150509295509295509295565b60008060008060008060c087890312156153ef57600080fd5b86356153fa8161511b565b9550602087013594506040870135935061541660608801615130565b92506080870135915060a087013590509295509295509295565b61ffff811681146108e357600080fd5b60006020828403121561545257600080fd5b813561162d81615430565b60008083601f84011261546f57600080fd5b50813567ffffffffffffffff81111561548757600080fd5b60208301915083602082850101111561549f57600080fd5b9250929050565b600080602083850312156154b957600080fd5b823567ffffffffffffffff8111156154d057600080fd5b6154dc8582860161545d565b90969095509350505050565b600080604083850312156154fb57600080fd5b50508035926020909101359150565b6000806040838503121561551d57600080fd5b82356155288161511b565b915060208301356151f28161511b565b60008060008060006080868803121561555057600080fd5b853561555b8161511b565b94506020860135935060408601356155728161511b565b9250606086013567ffffffffffffffff81111561558e57600080fd5b61559a8882890161545d565b969995985093965092949392505050565b6000806000606084860312156155c057600080fd5b83356155cb8161511b565b925060208401356155db8161511b565b929592945050506040919091013590565b60008083601f8401126155fe57600080fd5b50813567ffffffffffffffff81111561561657600080fd5b6020830191508360208260051b850101111561549f57600080fd5b6000806020838503121561564457600080fd5b823567ffffffffffffffff81111561565b57600080fd5b6154dc858286016155ec565b60008060006040848603121561567c57600080fd5b833561568781615430565b9250602084013567ffffffffffffffff8111156156a357600080fd5b6156af868287016155ec565b9497909650939450505050565b6000806000606084860312156156d157600080fd5b83356156dc8161511b565b925060208401356156ec8161511b565b915060408401356156fc8161511b565b809150509250925092565b6000806040838503121561571a57600080fd5b823561552881615430565b60208082526010908201526f14185d5cd8589b194e881c185d5cd95960821b604082015260600190565b6020808252601f908201527f5265656e7472616e637947756172643a207265656e7472616e742063616c6c00604082015260600190565b634e487b7160e01b600052604160045260246000fd5b6040516060810167ffffffffffffffff811182821017156157cd57634e487b7160e01b600052604160045260246000fd5b60405290565b6000606082840312156157e557600080fd5b6157ed61579c565b82516157f88161511b565b8152602083810151908201526040928301519281019290925250919050565b634e487b7160e01b600052603260045260246000fd5b634e487b7160e01b600052601160045260246000fd5b6000600182016158555761585561582d565b5060010190565b6001600160a01b039384168152919092166020820152604081019190915260600190565b60006020828403121561589257600080fd5b5051919050565b6000602082840312156158ab57600080fd5b815161162d81615430565b600061ffff8083168185168083038211156158d3576158d361582d565b01949350505050565b6000602082840312156158ee57600080fd5b8151801515811461162d57600080fd5b60006020828403121561591057600080fd5b815163ffffffff8116811461162d57600080fd5b6001600160a01b03878116825286166020820152604081018590526060810184905260a06080820181905281018290526000828460c0840137600060c0848401015260c0601f19601f8501168301019050979650505050505050565b6000828210156159925761599261582d565b500390565b600082198211156159aa576159aa61582d565b500190565b6000602082840312156159c157600080fd5b815161162d8161511b565b9485526001600160a01b0393841660208601529190921660408401526060830191909152608082015260a00190565b60005b83811015615a165781810151838201526020016159fe565b83811115613d885750506000910152565b7f416363657373436f6e74726f6c3a206163636f756e7420000000000000000000815260008351615a5f8160178501602088016159fb565b7001034b99036b4b9b9b4b733903937b6329607d1b6017918401918201528351615a908160288401602088016159fb565b01602801949350505050565b6020815260008251806020840152615abb8160408501602087016159fb565b601f01601f19169190910160400192915050565b95865260208601949094526040850192909252606084015260808301526001600160a01b031660a082015260c00190565b634e487b7160e01b600052601260045260246000fd5b600082615b3357634e487b7160e01b600052601260045260246000fd5b500490565b6020808252602b908201527f496e697469616c697a61626c653a20636f6e7472616374206973206e6f74206960408201526a6e697469616c697a696e6760a81b606082015260800190565b6000816000190483118215151615615b9d57615b9d61582d565b500290565b600081615bb157615bb161582d565b506000190190565b600060608284031215615bcb57600080fd5b615bd361579c565b8251815260208301516020820152604083015160408201528091505092915050565b634e487b7160e01b600052603160045260246000fd5b60008251615c1d8184602087016159fb565b919091019291505056fef28f409b8cbe6b50c7ca45afe893f01f69626f8a4e33cb480bc1bc2d618c084589ce14d20697a788f57260f7690044299bde7ea88cfb7e43d120a0c031f1ffc12172861495e7b85edac73e3cd5fbb42dd675baadf627720e687bcfdaca025096a164736f6c634300080d000a",
  "devdoc": {
    "details": "Bancor Network contract",
    "events": {
      "FlashLoanCompleted(address,address,uint256,uint256)": {
        "details": "triggered when a flash-loan is completed"
      },
      "FundsMigrated(bytes32,address,address,uint256,uint256,uint256)": {
        "details": "triggered when funds are migrated"
      },
      "LatestPoolCollectionReplaced(uint16,address,address)": {
        "details": "triggered when the latest pool collection, for a specific type, is replaced"
      },
      "NetworkFeesWithdrawn(address,address,uint256)": {
        "details": "triggered when network fees are withdrawn"
      },
      "PoolAdded(address,address)": {
        "details": "triggered when a new pool is added to a pool collection"
      },
      "PoolCollectionAdded(uint16,address)": {
        "details": "triggered when a new pool collection is added"
      },
      "PoolCollectionRemoved(uint16,address)": {
        "details": "triggered when an existing pool collection is removed"
      },
      "PoolCreated(address,address)": {
        "details": "triggered when a pool is created"
      },
      "PoolRemoved(address,address)": {
        "details": "triggered when a new pool is removed from a pool collection"
      },
      "TokensTraded(bytes32,address,address,uint256,uint256,uint256,uint256,uint256,address)": {
        "details": "triggered on a successful trade"
      }
    },
    "kind": "dev",
    "methods": {
      "addPoolCollection(address)": {
        "details": "adds new pool collection to the network requirements: - the caller must be the admin of the contract"
      },
      "cancelWithdrawal(uint256)": {
        "details": "cancels a withdrawal request, and returns the number of pool token amount associated with the withdrawal request requirements: - the caller must have already initiated a withdrawal and received the specified id"
      },
      "collectionByPool(address)": {
        "details": "returns the respective pool collection for the provided pool"
      },
      "constructor": {
        "details": "a \"virtual\" constructor that is only used to set immutable state variables"
      },
      "createPool(uint16,address)": {
        "details": "creates a new pool requirements: - the pool doesn't already exist"
      },
      "createPools(uint16,address[])": {
        "details": "creates new pools requirements: - none of the pools already exists"
      },
      "deposit(address,uint256)": {
        "details": "deposits liquidity for the current provider and returns the respective pool token amount requirements: - the caller must have approved the network to transfer the tokens on its behalf (except for in the   native token case)"
      },
      "depositFor(address,address,uint256)": {
        "details": "deposits liquidity for the specified provider and returns the respective pool token amount requirements: - the caller must have approved the network to transfer the tokens on its behalf (except for in the   native token case)"
      },
      "depositForPermitted(address,address,uint256,uint256,uint8,bytes32,bytes32)": {
        "details": "deposits liquidity for the specified provider by providing an EIP712 typed signature for an EIP2612 permit request and returns the respective pool token amount requirements: - the caller must have provided a valid and unused EIP712 typed signature"
      },
      "depositPermitted(address,uint256,uint256,uint8,bytes32,bytes32)": {
        "details": "deposits liquidity by providing an EIP712 typed signature for an EIP2612 permit request and returns the respective pool token amount requirements: - the caller must have provided a valid and unused EIP712 typed signature"
      },
      "flashLoan(address,uint256,address,bytes)": {
        "details": "provides a flash-loan requirements: - the recipient's callback must return *at least* the borrowed amount and fee back to the specified return address"
      },
      "getRoleAdmin(bytes32)": {
        "details": "Returns the admin role that controls `role`. See {grantRole} and {revokeRole}. To change a role's admin, use {_setRoleAdmin}."
      },
      "getRoleMember(bytes32,uint256)": {
        "details": "Returns one of the accounts that have `role`. `index` must be a value between 0 and {getRoleMemberCount}, non-inclusive. Role bearers are not sorted in any particular way, and their ordering may change at any point. WARNING: When using {getRoleMember} and {getRoleMemberCount}, make sure you perform all queries on the same block. See the following https://forum.openzeppelin.com/t/iterating-over-elements-on-enumerableset-in-openzeppelin-contracts/2296[forum post] for more information."
      },
      "getRoleMemberCount(bytes32)": {
        "details": "Returns the number of accounts that have `role`. Can be used together with {getRoleMember} to enumerate all bearers of a role."
      },
      "grantRole(bytes32,address)": {
        "details": "Grants `role` to `account`. If `account` had not been already granted `role`, emits a {RoleGranted} event. Requirements: - the caller must have ``role``'s admin role."
      },
      "hasRole(bytes32,address)": {
        "details": "Returns `true` if `account` has been granted `role`."
      },
      "initWithdrawal(address,uint256)": {
        "details": "initiates liquidity withdrawal requirements: - the caller must have approved the contract to transfer the pool token amount on its behalf"
      },
      "initWithdrawalPermitted(address,uint256,uint256,uint8,bytes32,bytes32)": {
        "details": "initiates liquidity withdrawal by providing an EIP712 typed signature for an EIP2612 permit request requirements: - the caller must have provided a valid and unused EIP712 typed signature"
      },
      "initialize(address,address,address)": {
        "details": "fully initializes the contract and its parents"
      },
      "isPaused()": {
        "details": "returns whether the network is currently paused"
      },
      "isPoolValid(address)": {
        "details": "returns whether the pool is valid"
      },
      "latestPoolCollection(uint16)": {
        "details": "returns the most recent collection that was added to the pool collections set for a specific type"
      },
      "liquidityPools()": {
        "details": "returns the set of all liquidity pools"
      },
      "migrateLiquidity(address,address,uint256,uint256,uint256)": {
        "details": "deposits liquidity during a migration"
      },
      "migratePools(address[])": {
        "details": "migrates a list of pools between pool collections notes: - invalid or incompatible pools will be skipped gracefully"
      },
      "pause()": {
        "details": "pauses the network requirements: - the caller must have the ROLE_EMERGENCY_STOPPER privilege"
      },
      "paused()": {
        "details": "Returns true if the contract is paused, and false otherwise."
      },
      "pendingNetworkFeeAmount()": {
        "details": "returns the pending network fee amount to be burned by the vortex"
      },
      "poolCollections()": {
        "details": "returns the set of all valid pool collections"
      },
      "postUpgrade(bytes)": {
        "details": "performs post-upgrade initialization requirements: - this must can be called only once per-upgrade"
      },
      "removePoolCollection(address,address)": {
        "details": "removes an existing pool collection from the pool requirements: - the caller must be the admin of the contract"
      },
      "renounceRole(bytes32,address)": {
        "details": "Revokes `role` from the calling account. Roles are often managed via {grantRole} and {revokeRole}: this function's purpose is to provide a mechanism for accounts to lose their privileges if they are compromised (such as when a trusted device is misplaced). If the calling account had been revoked `role`, emits a {RoleRevoked} event. Requirements: - the caller must be `account`."
      },
      "resume()": {
        "details": "resumes the network requirements: - the caller must have the ROLE_EMERGENCY_STOPPER privilege"
      },
      "revokeRole(bytes32,address)": {
        "details": "Revokes `role` from `account`. If `account` had been granted `role`, emits a {RoleRevoked} event. Requirements: - the caller must have ``role``'s admin role."
      },
      "roleAdmin()": {
        "details": "returns the admin role"
      },
      "roleEmergencyStopper()": {
        "details": "returns the emergency stopper role"
      },
      "roleMigrationManager()": {
        "details": "returns the migration manager role"
      },
      "roleNetworkFeeManager()": {
        "details": "returns the network fee manager role"
      },
      "setLatestPoolCollection(address)": {
        "details": "sets the new latest pool collection for the given type requirements: - the caller must be the admin of the contract"
      },
      "supportsInterface(bytes4)": {
        "details": "See {IERC165-supportsInterface}."
      },
      "tradeBySourceAmount(address,address,uint256,uint256,uint256,address)": {
        "details": "performs a trade by providing the input source amount, and returns the trade target amount requirements: - the caller must have approved the network to transfer the source tokens on its behalf (except for in the   native token case)"
      },
      "tradeBySourceAmountPermitted(address,address,uint256,uint256,uint256,address,uint8,bytes32,bytes32)": {
        "details": "performs a trade by providing the input source amount and providing an EIP712 typed signature for an EIP2612 permit request, and returns the trade target amount requirements: - the caller must have provided a valid and unused EIP712 typed signature"
      },
      "tradeByTargetAmount(address,address,uint256,uint256,uint256,address)": {
        "details": "performs a trade by providing the output target amount, and returns the trade source amount requirements: - the caller must have approved the network to transfer the source tokens on its behalf (except for in the   native token case)"
      },
      "tradeByTargetAmountPermitted(address,address,uint256,uint256,uint256,address,uint8,bytes32,bytes32)": {
        "details": "performs a trade by providing the output target amount and providing an EIP712 typed signature for an EIP2612 permit request and returns the target amount and fee, and returns the trade source amount requirements: - the caller must have provided a valid and unused EIP712 typed signature"
      },
      "withdraw(uint256)": {
        "details": "withdraws liquidity and returns the withdrawn amount requirements: - the provider must have already initiated a withdrawal and received the specified id - the specified withdrawal request is eligible for completion - the provider must have approved the network to transfer vBNT amount on its behalf, when withdrawing BNT liquidity"
      },
      "withdrawNetworkFees(address)": {
        "details": "withdraws pending network fees, and returns the amount of fees withdrawn requirements: - the caller must have the ROLE_NETWORK_FEE_MANAGER privilege"
      }
    },
    "version": 1
  },
  "userdoc": {
    "kind": "user",
    "methods": {},
    "version": 1
  },
  "storageLayout": {
    "storage": [
      {
        "astId": 644,
        "contract": "contracts/network/BancorNetwork.sol:BancorNetwork",
        "label": "_initialized",
        "offset": 0,
        "slot": "0",
        "type": "t_bool"
      },
      {
        "astId": 647,
        "contract": "contracts/network/BancorNetwork.sol:BancorNetwork",
        "label": "_initializing",
        "offset": 1,
        "slot": "0",
        "type": "t_bool"
      },
      {
        "astId": 1165,
        "contract": "contracts/network/BancorNetwork.sol:BancorNetwork",
        "label": "__gap",
        "offset": 0,
        "slot": "1",
        "type": "t_array(t_uint256)50_storage"
      },
      {
        "astId": 1412,
        "contract": "contracts/network/BancorNetwork.sol:BancorNetwork",
        "label": "__gap",
        "offset": 0,
        "slot": "51",
        "type": "t_array(t_uint256)50_storage"
      },
      {
        "astId": 250,
        "contract": "contracts/network/BancorNetwork.sol:BancorNetwork",
        "label": "_roles",
        "offset": 0,
        "slot": "101",
        "type": "t_mapping(t_bytes32,t_struct(RoleData)245_storage)"
      },
      {
        "astId": 538,
        "contract": "contracts/network/BancorNetwork.sol:BancorNetwork",
        "label": "__gap",
        "offset": 0,
        "slot": "102",
        "type": "t_array(t_uint256)49_storage"
      },
      {
        "astId": 99,
        "contract": "contracts/network/BancorNetwork.sol:BancorNetwork",
        "label": "_roleMembers",
        "offset": 0,
        "slot": "151",
        "type": "t_mapping(t_bytes32,t_struct(AddressSet)1737_storage)"
      },
      {
        "astId": 209,
        "contract": "contracts/network/BancorNetwork.sol:BancorNetwork",
        "label": "__gap",
        "offset": 0,
        "slot": "152",
        "type": "t_array(t_uint256)49_storage"
      },
      {
        "astId": 31877,
        "contract": "contracts/network/BancorNetwork.sol:BancorNetwork",
        "label": "_initializations",
        "offset": 0,
        "slot": "201",
        "type": "t_uint16"
      },
      {
        "astId": 31883,
        "contract": "contracts/network/BancorNetwork.sol:BancorNetwork",
        "label": "__gap",
        "offset": 0,
        "slot": "202",
        "type": "t_array(t_uint256)49_storage"
      },
      {
        "astId": 836,
        "contract": "contracts/network/BancorNetwork.sol:BancorNetwork",
        "label": "_status",
        "offset": 0,
        "slot": "251",
        "type": "t_uint256"
      },
      {
        "astId": 880,
        "contract": "contracts/network/BancorNetwork.sol:BancorNetwork",
        "label": "__gap",
        "offset": 0,
        "slot": "252",
        "type": "t_array(t_uint256)49_storage"
      },
      {
        "astId": 732,
        "contract": "contracts/network/BancorNetwork.sol:BancorNetwork",
        "label": "_paused",
        "offset": 0,
        "slot": "301",
        "type": "t_bool"
      },
      {
        "astId": 821,
        "contract": "contracts/network/BancorNetwork.sol:BancorNetwork",
        "label": "__gap",
        "offset": 0,
        "slot": "302",
        "type": "t_array(t_uint256)49_storage"
      },
      {
        "astId": 11740,
        "contract": "contracts/network/BancorNetwork.sol:BancorNetwork",
        "label": "_bntPool",
        "offset": 0,
        "slot": "351",
        "type": "t_contract(IBNTPool)25244"
      },
      {
        "astId": 11743,
        "contract": "contracts/network/BancorNetwork.sol:BancorNetwork",
        "label": "_pendingWithdrawals",
        "offset": 0,
        "slot": "352",
        "type": "t_contract(IPendingWithdrawals)18643"
      },
      {
        "astId": 11746,
        "contract": "contracts/network/BancorNetwork.sol:BancorNetwork",
        "label": "_poolMigrator",
        "offset": 0,
        "slot": "353",
        "type": "t_contract(IPoolMigrator)25609"
      },
      {
        "astId": 11749,
        "contract": "contracts/network/BancorNetwork.sol:BancorNetwork",
        "label": "_poolCollections",
        "offset": 0,
        "slot": "354",
        "type": "t_struct(AddressSet)1737_storage"
      },
      {
        "astId": 11754,
        "contract": "contracts/network/BancorNetwork.sol:BancorNetwork",
        "label": "_latestPoolCollections",
        "offset": 0,
        "slot": "356",
        "type": "t_mapping(t_uint16,t_contract(IPoolCollection)25587)"
      },
      {
        "astId": 11757,
        "contract": "contracts/network/BancorNetwork.sol:BancorNetwork",
        "label": "_liquidityPools",
        "offset": 0,
        "slot": "357",
        "type": "t_struct(AddressSet)1737_storage"
      },
      {
        "astId": 11763,
        "contract": "contracts/network/BancorNetwork.sol:BancorNetwork",
        "label": "_collectionByPool",
        "offset": 0,
        "slot": "359",
        "type": "t_mapping(t_contract(Token)29718,t_contract(IPoolCollection)25587)"
      },
      {
        "astId": 11765,
        "contract": "contracts/network/BancorNetwork.sol:BancorNetwork",
        "label": "_pendingNetworkFeeAmount",
        "offset": 0,
        "slot": "360",
        "type": "t_uint256"
      },
      {
        "astId": 11771,
        "contract": "contracts/network/BancorNetwork.sol:BancorNetwork",
        "label": "__gap",
        "offset": 0,
        "slot": "361",
        "type": "t_array(t_uint256)40_storage"
      }
    ],
    "types": {
      "t_address": {
        "encoding": "inplace",
        "label": "address",
        "numberOfBytes": "20"
      },
      "t_array(t_bytes32)dyn_storage": {
        "base": "t_bytes32",
        "encoding": "dynamic_array",
        "label": "bytes32[]",
        "numberOfBytes": "32"
      },
      "t_array(t_uint256)40_storage": {
        "base": "t_uint256",
        "encoding": "inplace",
        "label": "uint256[40]",
        "numberOfBytes": "1280"
      },
      "t_array(t_uint256)49_storage": {
        "base": "t_uint256",
        "encoding": "inplace",
        "label": "uint256[49]",
        "numberOfBytes": "1568"
      },
      "t_array(t_uint256)50_storage": {
        "base": "t_uint256",
        "encoding": "inplace",
        "label": "uint256[50]",
        "numberOfBytes": "1600"
      },
      "t_bool": {
        "encoding": "inplace",
        "label": "bool",
        "numberOfBytes": "1"
      },
      "t_bytes32": {
        "encoding": "inplace",
        "label": "bytes32",
        "numberOfBytes": "32"
      },
      "t_contract(IBNTPool)25244": {
        "encoding": "inplace",
        "label": "contract IBNTPool",
        "numberOfBytes": "20"
      },
      "t_contract(IPendingWithdrawals)18643": {
        "encoding": "inplace",
        "label": "contract IPendingWithdrawals",
        "numberOfBytes": "20"
      },
      "t_contract(IPoolCollection)25587": {
        "encoding": "inplace",
        "label": "contract IPoolCollection",
        "numberOfBytes": "20"
      },
      "t_contract(IPoolMigrator)25609": {
        "encoding": "inplace",
        "label": "contract IPoolMigrator",
        "numberOfBytes": "20"
      },
      "t_contract(Token)29718": {
        "encoding": "inplace",
        "label": "contract Token",
        "numberOfBytes": "20"
      },
      "t_mapping(t_address,t_bool)": {
        "encoding": "mapping",
        "key": "t_address",
        "label": "mapping(address => bool)",
        "numberOfBytes": "32",
        "value": "t_bool"
      },
      "t_mapping(t_bytes32,t_struct(AddressSet)1737_storage)": {
        "encoding": "mapping",
        "key": "t_bytes32",
        "label": "mapping(bytes32 => struct EnumerableSetUpgradeable.AddressSet)",
        "numberOfBytes": "32",
        "value": "t_struct(AddressSet)1737_storage"
      },
      "t_mapping(t_bytes32,t_struct(RoleData)245_storage)": {
        "encoding": "mapping",
        "key": "t_bytes32",
        "label": "mapping(bytes32 => struct AccessControlUpgradeable.RoleData)",
        "numberOfBytes": "32",
        "value": "t_struct(RoleData)245_storage"
      },
      "t_mapping(t_bytes32,t_uint256)": {
        "encoding": "mapping",
        "key": "t_bytes32",
        "label": "mapping(bytes32 => uint256)",
        "numberOfBytes": "32",
        "value": "t_uint256"
      },
      "t_mapping(t_contract(Token)29718,t_contract(IPoolCollection)25587)": {
        "encoding": "mapping",
        "key": "t_contract(Token)29718",
        "label": "mapping(contract Token => contract IPoolCollection)",
        "numberOfBytes": "32",
        "value": "t_contract(IPoolCollection)25587"
      },
      "t_mapping(t_uint16,t_contract(IPoolCollection)25587)": {
        "encoding": "mapping",
        "key": "t_uint16",
        "label": "mapping(uint16 => contract IPoolCollection)",
        "numberOfBytes": "32",
        "value": "t_contract(IPoolCollection)25587"
      },
      "t_struct(AddressSet)1737_storage": {
        "encoding": "inplace",
        "label": "struct EnumerableSetUpgradeable.AddressSet",
        "members": [
          {
            "astId": 1736,
            "contract": "contracts/network/BancorNetwork.sol:BancorNetwork",
            "label": "_inner",
            "offset": 0,
            "slot": "0",
            "type": "t_struct(Set)1436_storage"
          }
        ],
        "numberOfBytes": "64"
      },
      "t_struct(RoleData)245_storage": {
        "encoding": "inplace",
        "label": "struct AccessControlUpgradeable.RoleData",
        "members": [
          {
            "astId": 242,
            "contract": "contracts/network/BancorNetwork.sol:BancorNetwork",
            "label": "members",
            "offset": 0,
            "slot": "0",
            "type": "t_mapping(t_address,t_bool)"
          },
          {
            "astId": 244,
            "contract": "contracts/network/BancorNetwork.sol:BancorNetwork",
            "label": "adminRole",
            "offset": 0,
            "slot": "1",
            "type": "t_bytes32"
          }
        ],
        "numberOfBytes": "64"
      },
      "t_struct(Set)1436_storage": {
        "encoding": "inplace",
        "label": "struct EnumerableSetUpgradeable.Set",
        "members": [
          {
            "astId": 1431,
            "contract": "contracts/network/BancorNetwork.sol:BancorNetwork",
            "label": "_values",
            "offset": 0,
            "slot": "0",
            "type": "t_array(t_bytes32)dyn_storage"
          },
          {
            "astId": 1435,
            "contract": "contracts/network/BancorNetwork.sol:BancorNetwork",
            "label": "_indexes",
            "offset": 0,
            "slot": "1",
            "type": "t_mapping(t_bytes32,t_uint256)"
          }
        ],
        "numberOfBytes": "64"
      },
      "t_uint16": {
        "encoding": "inplace",
        "label": "uint16",
        "numberOfBytes": "2"
      },
      "t_uint256": {
        "encoding": "inplace",
        "label": "uint256",
        "numberOfBytes": "32"
      }
    }
  }
}