{
  "address": "0x7a84b0b6fE93c94d20FA84230BB2eAe03E07b19E",
  "abi": [
    {
      "inputs": [
        {
          "internalType": "contract ITokenGovernance",
          "name": "initBNTGovernance",
          "type": "address"
        },
        {
          "internalType": "contract ITokenGovernance",
          "name": "initVBNTGovernance",
          "type": "address"
        },
        {
          "internalType": "contract INetworkSettings",
          "name": "initNetworkSettings",
          "type": "address"
        },
        {
          "internalType": "contract IMasterVault",
          "name": "initMasterVault",
          "type": "address"
        },
        {
          "internalType": "contract IExternalProtectionVault",
          "name": "initExternalProtectionVault",
          "type": "address"
        },
        {
          "internalType": "contract IPoolToken",
          "name": "initBNTPoolToken",
          "type": "address"
        }
      ],
      "stateMutability": "nonpayable",
      "type": "constructor"
    },
    {
      "inputs": [],
      "name": "AccessDenied",
      "type": "error"
    },
    {
      "inputs": [],
      "name": "AlreadyExists",
      "type": "error"
    },
    {
      "inputs": [],
      "name": "AlreadyInitialized",
      "type": "error"
    },
    {
      "inputs": [],
      "name": "DeadlineExpired",
      "type": "error"
    },
    {
      "inputs": [],
      "name": "DoesNotExist",
      "type": "error"
    },
    {
      "inputs": [],
      "name": "InsufficientFlashLoanReturn",
      "type": "error"
    },
    {
      "inputs": [],
      "name": "InvalidAddress",
      "type": "error"
    },
    {
      "inputs": [],
      "name": "InvalidPoolCollection",
      "type": "error"
    },
    {
      "inputs": [],
      "name": "InvalidToken",
      "type": "error"
    },
    {
      "inputs": [],
      "name": "InvalidType",
      "type": "error"
    },
    {
      "inputs": [],
      "name": "NativeTokenAmountMismatch",
      "type": "error"
    },
    {
      "inputs": [],
      "name": "NotEmpty",
      "type": "error"
    },
    {
      "inputs": [],
      "name": "NotWhitelisted",
      "type": "error"
    },
    {
      "inputs": [],
      "name": "Overflow",
      "type": "error"
    },
    {
      "inputs": [],
      "name": "PermitUnsupported",
      "type": "error"
    },
    {
      "inputs": [],
      "name": "ZeroValue",
      "type": "error"
    },
    {
      "anonymous": false,
      "inputs": [
        {
          "indexed": true,
          "internalType": "contract Token",
          "name": "token",
          "type": "address"
        },
        {
          "indexed": true,
          "internalType": "address",
          "name": "borrower",
          "type": "address"
        },
        {
          "indexed": false,
          "internalType": "uint256",
          "name": "amount",
          "type": "uint256"
        },
        {
          "indexed": false,
          "internalType": "uint256",
          "name": "feeAmount",
          "type": "uint256"
        }
      ],
      "name": "FlashLoanCompleted",
      "type": "event"
    },
    {
      "anonymous": false,
      "inputs": [
        {
          "indexed": true,
          "internalType": "bytes32",
          "name": "contextId",
          "type": "bytes32"
        },
        {
          "indexed": true,
          "internalType": "contract Token",
          "name": "token",
          "type": "address"
        },
        {
          "indexed": true,
          "internalType": "address",
          "name": "provider",
          "type": "address"
        },
        {
          "indexed": false,
          "internalType": "uint256",
          "name": "amount",
          "type": "uint256"
        },
        {
          "indexed": false,
          "internalType": "uint256",
          "name": "availableAmount",
          "type": "uint256"
        },
        {
          "indexed": false,
          "internalType": "uint256",
          "name": "originalAmount",
          "type": "uint256"
        }
      ],
      "name": "FundsMigrated",
      "type": "event"
    },
    {
      "anonymous": false,
      "inputs": [
        {
          "indexed": true,
          "internalType": "uint16",
          "name": "poolType",
          "type": "uint16"
        },
        {
          "indexed": true,
          "internalType": "contract IPoolCollection",
          "name": "prevPoolCollection",
          "type": "address"
        },
        {
          "indexed": true,
          "internalType": "contract IPoolCollection",
          "name": "newPoolCollection",
          "type": "address"
        }
      ],
      "name": "LatestPoolCollectionReplaced",
      "type": "event"
    },
    {
      "anonymous": false,
      "inputs": [
        {
          "indexed": true,
          "internalType": "address",
          "name": "caller",
          "type": "address"
        },
        {
          "indexed": true,
          "internalType": "address",
          "name": "recipient",
          "type": "address"
        },
        {
          "indexed": false,
          "internalType": "uint256",
          "name": "amount",
          "type": "uint256"
        }
      ],
      "name": "NetworkFeesWithdrawn",
      "type": "event"
    },
    {
      "anonymous": false,
      "inputs": [
        {
          "indexed": false,
          "internalType": "address",
          "name": "account",
          "type": "address"
        }
      ],
      "name": "Paused",
      "type": "event"
    },
    {
      "anonymous": false,
      "inputs": [
        {
          "indexed": true,
          "internalType": "contract Token",
          "name": "pool",
          "type": "address"
        },
        {
          "indexed": true,
          "internalType": "contract IPoolCollection",
          "name": "poolCollection",
          "type": "address"
        }
      ],
      "name": "PoolAdded",
      "type": "event"
    },
    {
      "anonymous": false,
      "inputs": [
        {
          "indexed": true,
          "internalType": "uint16",
          "name": "poolType",
          "type": "uint16"
        },
        {
          "indexed": true,
          "internalType": "contract IPoolCollection",
          "name": "poolCollection",
          "type": "address"
        }
      ],
      "name": "PoolCollectionAdded",
      "type": "event"
    },
    {
      "anonymous": false,
      "inputs": [
        {
          "indexed": true,
          "internalType": "uint16",
          "name": "poolType",
          "type": "uint16"
        },
        {
          "indexed": true,
          "internalType": "contract IPoolCollection",
          "name": "poolCollection",
          "type": "address"
        }
      ],
      "name": "PoolCollectionRemoved",
      "type": "event"
    },
    {
      "anonymous": false,
      "inputs": [
        {
          "indexed": true,
          "internalType": "bytes32",
          "name": "role",
          "type": "bytes32"
        },
        {
          "indexed": true,
          "internalType": "bytes32",
          "name": "previousAdminRole",
          "type": "bytes32"
        },
        {
          "indexed": true,
          "internalType": "bytes32",
          "name": "newAdminRole",
          "type": "bytes32"
        }
      ],
      "name": "RoleAdminChanged",
      "type": "event"
    },
    {
      "anonymous": false,
      "inputs": [
        {
          "indexed": true,
          "internalType": "bytes32",
          "name": "role",
          "type": "bytes32"
        },
        {
          "indexed": true,
          "internalType": "address",
          "name": "account",
          "type": "address"
        },
        {
          "indexed": true,
          "internalType": "address",
          "name": "sender",
          "type": "address"
        }
      ],
      "name": "RoleGranted",
      "type": "event"
    },
    {
      "anonymous": false,
      "inputs": [
        {
          "indexed": true,
          "internalType": "bytes32",
          "name": "role",
          "type": "bytes32"
        },
        {
          "indexed": true,
          "internalType": "address",
          "name": "account",
          "type": "address"
        },
        {
          "indexed": true,
          "internalType": "address",
          "name": "sender",
          "type": "address"
        }
      ],
      "name": "RoleRevoked",
      "type": "event"
    },
    {
      "anonymous": false,
      "inputs": [
        {
          "indexed": true,
          "internalType": "bytes32",
          "name": "contextId",
          "type": "bytes32"
        },
        {
          "indexed": true,
          "internalType": "contract Token",
          "name": "sourceToken",
          "type": "address"
        },
        {
          "indexed": true,
          "internalType": "contract Token",
          "name": "targetToken",
          "type": "address"
        },
        {
          "indexed": false,
          "internalType": "uint256",
          "name": "sourceAmount",
          "type": "uint256"
        },
        {
          "indexed": false,
          "internalType": "uint256",
          "name": "targetAmount",
          "type": "uint256"
        },
        {
          "indexed": false,
          "internalType": "uint256",
          "name": "bntAmount",
          "type": "uint256"
        },
        {
          "indexed": false,
          "internalType": "uint256",
          "name": "targetFeeAmount",
          "type": "uint256"
        },
        {
          "indexed": false,
          "internalType": "uint256",
          "name": "bntFeeAmount",
          "type": "uint256"
        },
        {
          "indexed": false,
          "internalType": "address",
          "name": "trader",
          "type": "address"
        }
      ],
      "name": "TokensTraded",
      "type": "event"
    },
    {
      "anonymous": false,
      "inputs": [
        {
          "indexed": false,
          "internalType": "address",
          "name": "account",
          "type": "address"
        }
      ],
      "name": "Unpaused",
      "type": "event"
    },
    {
      "inputs": [],
      "name": "DEFAULT_ADMIN_ROLE",
      "outputs": [
        {
          "internalType": "bytes32",
          "name": "",
          "type": "bytes32"
        }
      ],
      "stateMutability": "view",
      "type": "function"
    },
    {
      "inputs": [
        {
          "internalType": "contract IPoolCollection",
          "name": "poolCollection",
          "type": "address"
        }
      ],
      "name": "addPoolCollection",
      "outputs": [],
      "stateMutability": "nonpayable",
      "type": "function"
    },
    {
      "inputs": [
        {
          "internalType": "uint256",
          "name": "id",
          "type": "uint256"
        }
      ],
      "name": "cancelWithdrawal",
      "outputs": [
        {
          "internalType": "uint256",
          "name": "",
          "type": "uint256"
        }
      ],
      "stateMutability": "nonpayable",
      "type": "function"
    },
    {
      "inputs": [
        {
          "internalType": "contract Token",
          "name": "pool",
          "type": "address"
        }
      ],
      "name": "collectionByPool",
      "outputs": [
        {
          "internalType": "contract IPoolCollection",
          "name": "",
          "type": "address"
        }
      ],
      "stateMutability": "view",
      "type": "function"
    },
    {
      "inputs": [
        {
          "internalType": "uint16",
          "name": "poolType",
          "type": "uint16"
        },
        {
          "internalType": "contract Token",
          "name": "token",
          "type": "address"
        }
      ],
      "name": "createPool",
      "outputs": [],
      "stateMutability": "nonpayable",
      "type": "function"
    },
    {
      "inputs": [
        {
          "internalType": "uint16",
          "name": "poolType",
          "type": "uint16"
        },
        {
          "internalType": "contract Token[]",
          "name": "tokens",
          "type": "address[]"
        }
      ],
      "name": "createPools",
      "outputs": [],
      "stateMutability": "nonpayable",
      "type": "function"
    },
    {
      "inputs": [
        {
          "internalType": "contract Token",
          "name": "pool",
          "type": "address"
        },
        {
          "internalType": "uint256",
          "name": "tokenAmount",
          "type": "uint256"
        }
      ],
      "name": "deposit",
      "outputs": [
        {
          "internalType": "uint256",
          "name": "",
          "type": "uint256"
        }
      ],
      "stateMutability": "payable",
      "type": "function"
    },
    {
      "inputs": [
        {
          "internalType": "address",
          "name": "provider",
          "type": "address"
        },
        {
          "internalType": "contract Token",
          "name": "pool",
          "type": "address"
        },
        {
          "internalType": "uint256",
          "name": "tokenAmount",
          "type": "uint256"
        }
      ],
      "name": "depositFor",
      "outputs": [
        {
          "internalType": "uint256",
          "name": "",
          "type": "uint256"
        }
      ],
      "stateMutability": "payable",
      "type": "function"
    },
    {
      "inputs": [
        {
          "internalType": "address",
          "name": "provider",
          "type": "address"
        },
        {
          "internalType": "contract Token",
          "name": "pool",
          "type": "address"
        },
        {
          "internalType": "uint256",
          "name": "tokenAmount",
          "type": "uint256"
        },
        {
          "internalType": "uint256",
          "name": "deadline",
          "type": "uint256"
        },
        {
          "internalType": "uint8",
          "name": "v",
          "type": "uint8"
        },
        {
          "internalType": "bytes32",
          "name": "r",
          "type": "bytes32"
        },
        {
          "internalType": "bytes32",
          "name": "s",
          "type": "bytes32"
        }
      ],
      "name": "depositForPermitted",
      "outputs": [
        {
          "internalType": "uint256",
          "name": "",
          "type": "uint256"
        }
      ],
      "stateMutability": "nonpayable",
      "type": "function"
    },
    {
      "inputs": [
        {
          "internalType": "contract Token",
          "name": "pool",
          "type": "address"
        },
        {
          "internalType": "uint256",
          "name": "tokenAmount",
          "type": "uint256"
        },
        {
          "internalType": "uint256",
          "name": "deadline",
          "type": "uint256"
        },
        {
          "internalType": "uint8",
          "name": "v",
          "type": "uint8"
        },
        {
          "internalType": "bytes32",
          "name": "r",
          "type": "bytes32"
        },
        {
          "internalType": "bytes32",
          "name": "s",
          "type": "bytes32"
        }
      ],
      "name": "depositPermitted",
      "outputs": [
        {
          "internalType": "uint256",
          "name": "",
          "type": "uint256"
        }
      ],
      "stateMutability": "nonpayable",
      "type": "function"
    },
    {
      "inputs": [
        {
          "internalType": "contract Token",
          "name": "token",
          "type": "address"
        },
        {
          "internalType": "uint256",
          "name": "amount",
          "type": "uint256"
        },
        {
          "internalType": "contract IFlashLoanRecipient",
          "name": "recipient",
          "type": "address"
        },
        {
          "internalType": "bytes",
          "name": "data",
          "type": "bytes"
        }
      ],
      "name": "flashLoan",
      "outputs": [],
      "stateMutability": "nonpayable",
      "type": "function"
    },
    {
      "inputs": [
        {
          "internalType": "bytes32",
          "name": "role",
          "type": "bytes32"
        }
      ],
      "name": "getRoleAdmin",
      "outputs": [
        {
          "internalType": "bytes32",
          "name": "",
          "type": "bytes32"
        }
      ],
      "stateMutability": "view",
      "type": "function"
    },
    {
      "inputs": [
        {
          "internalType": "bytes32",
          "name": "role",
          "type": "bytes32"
        },
        {
          "internalType": "uint256",
          "name": "index",
          "type": "uint256"
        }
      ],
      "name": "getRoleMember",
      "outputs": [
        {
          "internalType": "address",
          "name": "",
          "type": "address"
        }
      ],
      "stateMutability": "view",
      "type": "function"
    },
    {
      "inputs": [
        {
          "internalType": "bytes32",
          "name": "role",
          "type": "bytes32"
        }
      ],
      "name": "getRoleMemberCount",
      "outputs": [
        {
          "internalType": "uint256",
          "name": "",
          "type": "uint256"
        }
      ],
      "stateMutability": "view",
      "type": "function"
    },
    {
      "inputs": [
        {
          "internalType": "bytes32",
          "name": "role",
          "type": "bytes32"
        },
        {
          "internalType": "address",
          "name": "account",
          "type": "address"
        }
      ],
      "name": "grantRole",
      "outputs": [],
      "stateMutability": "nonpayable",
      "type": "function"
    },
    {
      "inputs": [
        {
          "internalType": "bytes32",
          "name": "role",
          "type": "bytes32"
        },
        {
          "internalType": "address",
          "name": "account",
          "type": "address"
        }
      ],
      "name": "hasRole",
      "outputs": [
        {
          "internalType": "bool",
          "name": "",
          "type": "bool"
        }
      ],
      "stateMutability": "view",
      "type": "function"
    },
    {
      "inputs": [
        {
          "internalType": "contract IPoolToken",
          "name": "poolToken",
          "type": "address"
        },
        {
          "internalType": "uint256",
          "name": "poolTokenAmount",
          "type": "uint256"
        }
      ],
      "name": "initWithdrawal",
      "outputs": [
        {
          "internalType": "uint256",
          "name": "",
          "type": "uint256"
        }
      ],
      "stateMutability": "nonpayable",
      "type": "function"
    },
    {
      "inputs": [
        {
          "internalType": "contract IPoolToken",
          "name": "poolToken",
          "type": "address"
        },
        {
          "internalType": "uint256",
          "name": "poolTokenAmount",
          "type": "uint256"
        },
        {
          "internalType": "uint256",
          "name": "deadline",
          "type": "uint256"
        },
        {
          "internalType": "uint8",
          "name": "v",
          "type": "uint8"
        },
        {
          "internalType": "bytes32",
          "name": "r",
          "type": "bytes32"
        },
        {
          "internalType": "bytes32",
          "name": "s",
          "type": "bytes32"
        }
      ],
      "name": "initWithdrawalPermitted",
      "outputs": [
        {
          "internalType": "uint256",
          "name": "",
          "type": "uint256"
        }
      ],
      "stateMutability": "nonpayable",
      "type": "function"
    },
    {
      "inputs": [
        {
          "internalType": "contract IBNTPool",
          "name": "initBNTPool",
          "type": "address"
        },
        {
          "internalType": "contract IPendingWithdrawals",
          "name": "initPendingWithdrawals",
          "type": "address"
        },
        {
          "internalType": "contract IPoolMigrator",
          "name": "initPoolMigrator",
          "type": "address"
        }
      ],
      "name": "initialize",
      "outputs": [],
      "stateMutability": "nonpayable",
      "type": "function"
    },
    {
      "inputs": [],
      "name": "isPaused",
      "outputs": [
        {
          "internalType": "bool",
          "name": "",
          "type": "bool"
        }
      ],
      "stateMutability": "view",
      "type": "function"
    },
    {
      "inputs": [
        {
          "internalType": "contract Token",
          "name": "pool",
          "type": "address"
        }
      ],
      "name": "isPoolValid",
      "outputs": [
        {
          "internalType": "bool",
          "name": "",
          "type": "bool"
        }
      ],
      "stateMutability": "view",
      "type": "function"
    },
    {
      "inputs": [
        {
          "internalType": "uint16",
          "name": "poolType",
          "type": "uint16"
        }
      ],
      "name": "latestPoolCollection",
      "outputs": [
        {
          "internalType": "contract IPoolCollection",
          "name": "",
          "type": "address"
        }
      ],
      "stateMutability": "view",
      "type": "function"
    },
    {
      "inputs": [],
      "name": "liquidityPools",
      "outputs": [
        {
          "internalType": "contract Token[]",
          "name": "",
          "type": "address[]"
        }
      ],
      "stateMutability": "view",
      "type": "function"
    },
    {
      "inputs": [
        {
          "internalType": "contract Token",
          "name": "token",
          "type": "address"
        },
        {
          "internalType": "address",
          "name": "provider",
          "type": "address"
        },
        {
          "internalType": "uint256",
          "name": "amount",
          "type": "uint256"
        },
        {
          "internalType": "uint256",
          "name": "availableAmount",
          "type": "uint256"
        },
        {
          "internalType": "uint256",
          "name": "originalAmount",
          "type": "uint256"
        }
      ],
      "name": "migrateLiquidity",
      "outputs": [],
      "stateMutability": "payable",
      "type": "function"
    },
    {
      "inputs": [
        {
          "internalType": "contract Token[]",
          "name": "pools",
          "type": "address[]"
        }
      ],
      "name": "migratePools",
      "outputs": [],
      "stateMutability": "nonpayable",
      "type": "function"
    },
    {
      "inputs": [],
      "name": "pause",
      "outputs": [],
      "stateMutability": "nonpayable",
      "type": "function"
    },
    {
      "inputs": [],
      "name": "paused",
      "outputs": [
        {
          "internalType": "bool",
          "name": "",
          "type": "bool"
        }
      ],
      "stateMutability": "view",
      "type": "function"
    },
    {
      "inputs": [],
      "name": "pendingNetworkFeeAmount",
      "outputs": [
        {
          "internalType": "uint256",
          "name": "",
          "type": "uint256"
        }
      ],
      "stateMutability": "view",
      "type": "function"
    },
    {
      "inputs": [],
      "name": "poolCollections",
      "outputs": [
        {
          "internalType": "contract IPoolCollection[]",
          "name": "",
          "type": "address[]"
        }
      ],
      "stateMutability": "view",
      "type": "function"
    },
    {
      "inputs": [
        {
          "internalType": "bytes",
          "name": "data",
          "type": "bytes"
        }
      ],
      "name": "postUpgrade",
      "outputs": [],
      "stateMutability": "nonpayable",
      "type": "function"
    },
    {
      "inputs": [
        {
          "internalType": "contract IPoolCollection",
          "name": "poolCollection",
          "type": "address"
        },
        {
          "internalType": "contract IPoolCollection",
          "name": "newLatestPoolCollection",
          "type": "address"
        }
      ],
      "name": "removePoolCollection",
      "outputs": [],
      "stateMutability": "nonpayable",
      "type": "function"
    },
    {
      "inputs": [
        {
          "internalType": "bytes32",
          "name": "role",
          "type": "bytes32"
        },
        {
          "internalType": "address",
          "name": "account",
          "type": "address"
        }
      ],
      "name": "renounceRole",
      "outputs": [],
      "stateMutability": "nonpayable",
      "type": "function"
    },
    {
      "inputs": [],
      "name": "resume",
      "outputs": [],
      "stateMutability": "nonpayable",
      "type": "function"
    },
    {
      "inputs": [
        {
          "internalType": "bytes32",
          "name": "role",
          "type": "bytes32"
        },
        {
          "internalType": "address",
          "name": "account",
          "type": "address"
        }
      ],
      "name": "revokeRole",
      "outputs": [],
      "stateMutability": "nonpayable",
      "type": "function"
    },
    {
      "inputs": [],
      "name": "roleAdmin",
      "outputs": [
        {
          "internalType": "bytes32",
          "name": "",
          "type": "bytes32"
        }
      ],
      "stateMutability": "pure",
      "type": "function"
    },
    {
      "inputs": [],
      "name": "roleEmergencyStopper",
      "outputs": [
        {
          "internalType": "bytes32",
          "name": "",
          "type": "bytes32"
        }
      ],
      "stateMutability": "pure",
      "type": "function"
    },
    {
      "inputs": [],
      "name": "roleMigrationManager",
      "outputs": [
        {
          "internalType": "bytes32",
          "name": "",
          "type": "bytes32"
        }
      ],
      "stateMutability": "pure",
      "type": "function"
    },
    {
      "inputs": [],
      "name": "roleNetworkFeeManager",
      "outputs": [
        {
          "internalType": "bytes32",
          "name": "",
          "type": "bytes32"
        }
      ],
      "stateMutability": "pure",
      "type": "function"
    },
    {
      "inputs": [
        {
          "internalType": "contract IPoolCollection",
          "name": "poolCollection",
          "type": "address"
        }
      ],
      "name": "setLatestPoolCollection",
      "outputs": [],
      "stateMutability": "nonpayable",
      "type": "function"
    },
    {
      "inputs": [
        {
          "internalType": "bytes4",
          "name": "interfaceId",
          "type": "bytes4"
        }
      ],
      "name": "supportsInterface",
      "outputs": [
        {
          "internalType": "bool",
          "name": "",
          "type": "bool"
        }
      ],
      "stateMutability": "view",
      "type": "function"
    },
    {
      "inputs": [
        {
          "internalType": "contract Token",
          "name": "sourceToken",
          "type": "address"
        },
        {
          "internalType": "contract Token",
          "name": "targetToken",
          "type": "address"
        },
        {
          "internalType": "uint256",
          "name": "sourceAmount",
          "type": "uint256"
        },
        {
          "internalType": "uint256",
          "name": "minReturnAmount",
          "type": "uint256"
        },
        {
          "internalType": "uint256",
          "name": "deadline",
          "type": "uint256"
        },
        {
          "internalType": "address",
          "name": "beneficiary",
          "type": "address"
        }
      ],
      "name": "tradeBySourceAmount",
      "outputs": [
        {
          "internalType": "uint256",
          "name": "",
          "type": "uint256"
        }
      ],
      "stateMutability": "payable",
      "type": "function"
    },
    {
      "inputs": [
        {
          "internalType": "contract Token",
          "name": "sourceToken",
          "type": "address"
        },
        {
          "internalType": "contract Token",
          "name": "targetToken",
          "type": "address"
        },
        {
          "internalType": "uint256",
          "name": "sourceAmount",
          "type": "uint256"
        },
        {
          "internalType": "uint256",
          "name": "minReturnAmount",
          "type": "uint256"
        },
        {
          "internalType": "uint256",
          "name": "deadline",
          "type": "uint256"
        },
        {
          "internalType": "address",
          "name": "beneficiary",
          "type": "address"
        },
        {
          "internalType": "uint8",
          "name": "v",
          "type": "uint8"
        },
        {
          "internalType": "bytes32",
          "name": "r",
          "type": "bytes32"
        },
        {
          "internalType": "bytes32",
          "name": "s",
          "type": "bytes32"
        }
      ],
      "name": "tradeBySourceAmountPermitted",
      "outputs": [
        {
          "internalType": "uint256",
          "name": "",
          "type": "uint256"
        }
      ],
      "stateMutability": "nonpayable",
      "type": "function"
    },
    {
      "inputs": [
        {
          "internalType": "contract Token",
          "name": "sourceToken",
          "type": "address"
        },
        {
          "internalType": "contract Token",
          "name": "targetToken",
          "type": "address"
        },
        {
          "internalType": "uint256",
          "name": "targetAmount",
          "type": "uint256"
        },
        {
          "internalType": "uint256",
          "name": "maxSourceAmount",
          "type": "uint256"
        },
        {
          "internalType": "uint256",
          "name": "deadline",
          "type": "uint256"
        },
        {
          "internalType": "address",
          "name": "beneficiary",
          "type": "address"
        }
      ],
      "name": "tradeByTargetAmount",
      "outputs": [
        {
          "internalType": "uint256",
          "name": "",
          "type": "uint256"
        }
      ],
      "stateMutability": "payable",
      "type": "function"
    },
    {
      "inputs": [
        {
          "internalType": "contract Token",
          "name": "sourceToken",
          "type": "address"
        },
        {
          "internalType": "contract Token",
          "name": "targetToken",
          "type": "address"
        },
        {
          "internalType": "uint256",
          "name": "targetAmount",
          "type": "uint256"
        },
        {
          "internalType": "uint256",
          "name": "maxSourceAmount",
          "type": "uint256"
        },
        {
          "internalType": "uint256",
          "name": "deadline",
          "type": "uint256"
        },
        {
          "internalType": "address",
          "name": "beneficiary",
          "type": "address"
        },
        {
          "internalType": "uint8",
          "name": "v",
          "type": "uint8"
        },
        {
          "internalType": "bytes32",
          "name": "r",
          "type": "bytes32"
        },
        {
          "internalType": "bytes32",
          "name": "s",
          "type": "bytes32"
        }
      ],
      "name": "tradeByTargetAmountPermitted",
      "outputs": [
        {
          "internalType": "uint256",
          "name": "",
          "type": "uint256"
        }
      ],
      "stateMutability": "nonpayable",
      "type": "function"
    },
    {
      "inputs": [],
      "name": "version",
      "outputs": [
        {
          "internalType": "uint16",
          "name": "",
          "type": "uint16"
        }
      ],
      "stateMutability": "pure",
      "type": "function"
    },
    {
      "inputs": [
        {
          "internalType": "uint256",
          "name": "id",
          "type": "uint256"
        }
      ],
      "name": "withdraw",
      "outputs": [
        {
          "internalType": "uint256",
          "name": "",
          "type": "uint256"
        }
      ],
      "stateMutability": "nonpayable",
      "type": "function"
    },
    {
      "inputs": [
        {
          "internalType": "address",
          "name": "recipient",
          "type": "address"
        }
      ],
      "name": "withdrawNetworkFees",
      "outputs": [
        {
          "internalType": "uint256",
          "name": "",
          "type": "uint256"
        }
      ],
      "stateMutability": "nonpayable",
      "type": "function"
    },
    {
      "stateMutability": "payable",
      "type": "receive"
    }
  ],
  "transactionHash": "0x84ba4762acc938646077ae4f5319882180318a579372fa449ef3b5a7ecc8cb37",
  "args": [
    "0xa489C2b5b36835A327851Ab917A80562B5AFC244",
    "0x0887ae1251E180d7D453aeDEBee26e1639f20113",
    "0x83E1814ba31F7ea95D216204BB45FE75Ce09b14F",
    "0x649765821D9f64198c905eC0B2B037a4a52Bc373",
    "0xFd31662b3d54eddE9B6Bdd32c9c27C8E292cAD57",
    "0xAB05Cf7C6c3a288cd36326e4f7b8600e7268E344"
  ],
  "numDeployments": 2,
  "solcInputHash": "0b22378e47c542c53df46908e5f14741",
  "bytecode": "0x6101806040523480156200001257600080fd5b5060405162005f9a38038062005f9a8339810160408190526200003591620001df565b8562000041816200019e565b856200004d816200019e565b8562000059816200019e565b8562000065816200019e565b8562000071816200019e565b856200007d816200019e565b6001600160a01b038c1660a081905260408051637e062a3560e11b8152905163fc0c546a916004808201926020929091908290030181865afa158015620000c8573d6000803e3d6000fd5b505050506040513d601f19601f82011682018060405250810190620000ee919062000273565b6001600160a01b039081166080528b1660e081905260408051637e062a3560e11b8152905163fc0c546a916004808201926020929091908290030181865afa1580156200013f573d6000803e3d6000fd5b505050506040513d601f19601f8201168201806040525081019062000165919062000273565b6001600160a01b0390811660c052998a16610100525050505093851661012052509083166101405290911661016052506200029a915050565b6001600160a01b038116620001c65760405163e6c4247b60e01b815260040160405180910390fd5b50565b6001600160a01b0381168114620001c657600080fd5b60008060008060008060c08789031215620001f957600080fd5b86516200020681620001c9565b60208801519096506200021981620001c9565b60408801519095506200022c81620001c9565b60608801519094506200023f81620001c9565b60808801519093506200025281620001c9565b60a08801519092506200026581620001c9565b809150509295509295509295565b6000602082840312156200028657600080fd5b81516200029381620001c9565b9392505050565b60805160a05160c05160e05161010051610120516101405161016051615c0d6200038d6000396000610ad401526000818161376d0152613a1a015260008181610eb201528181611b0401528181611c5f01528181611c990152818161305f015281816136de0152818161398b015281816146b2015261472c0152600081816119a40152611a57015260005050600061289f01526000505060008181610edf0152818161107b0152818161194f01528181611cc80152818161263201528181612e0401528181612ed9015281816131f50152818161345701528181613d9b0152818161424d015261428a0152615c0d6000f3fe60806040526004361061028c5760003560e01c80638456cb591161015a578063b992d405116100c1578063d3a4acd31161007a578063d3a4acd3146107dc578063d547741f146107ef578063d6efd7c31461080f578063e597e12d14610824578063e6aac07e14610844578063f6c578611461087757600080fd5b8063b992d40514610709578063c0c53b8b14610729578063c844748714610749578063c997e47e1461077c578063ca15c8731461079c578063cfcb9e3b146107bc57600080fd5b8063a217fddf11610113578063a217fddf1461066c578063a7fb8f1b14610681578063adf51de1146106a1578063b187bd26146106c1578063b3db428b146106d6578063b8350e27146106e957600080fd5b80638456cb591461059c5780638cd2403d146105b15780639010d07c146105d157806391d14854146105f157806393867fb5146106115780639bca0e701461063257600080fd5b80633d1c24e7116101fe57806347e7ef24116101b757806347e7ef24146104cb57806354fd4d50146104de5780635c975abb146104fa57806363f80c1514610513578063673cea69146105335780637bf6a4251461058657600080fd5b80633d1c24e7146104245780633efcfda41461043757806340fbd5fb1461045757806341f435b31461047757806345d6602c1461049857806345f2d040146104ab57600080fd5b80632f2ff15d116102505780632f2ff15d1461036257806333a801aa14610382578063357a0333146103a257806336568abe146103c257806339fadf98146103e25780633cd119241461040457600080fd5b806301ffc9a714610298578063046f7da2146102cd5780631fb6376b146102e4578063248a9ca3146103125780632e1a7d4d1461034257600080fd5b3661029357005b600080fd5b3480156102a457600080fd5b506102b86102b3366004615080565b610897565b60405190151581526020015b60405180910390f35b3480156102d957600080fd5b506102e26108c2565b005b3480156102f057600080fd5b506103046102ff3660046150d5565b6108e6565b6040519081526020016102c4565b34801561031e57600080fd5b5061030461032d366004615143565b60009081526065602052604090206001015490565b34801561034e57600080fd5b5061030461035d366004615143565b61099b565b34801561036e57600080fd5b506102e261037d36600461515c565b610b3f565b34801561038e57600080fd5b5061030461039d36600461518c565b610b6a565b3480156103ae57600080fd5b506103046103bd366004615217565b610c73565b3480156103ce57600080fd5b506102e26103dd36600461515c565b610ced565b3480156103ee57600080fd5b506103f7610d6b565b6040516102c49190615243565b34801561041057600080fd5b5061030461041f366004615290565b610e1d565b6102e26104323660046152ad565b610f87565b34801561044357600080fd5b50610304610452366004615143565b611129565b34801561046357600080fd5b506102e2610472366004615290565b6111fd565b34801561048357600080fd5b50600080516020615ba1833981519152610304565b6103046104a63660046152fe565b6112c3565b3480156104b757600080fd5b506103046104c6366004615365565b611388565b6103046104d9366004615217565b61143f565b3480156104ea57600080fd5b50604051600381526020016102c4565b34801561050657600080fd5b5061012d5460ff166102b8565b34801561051f57600080fd5b5061030461052e36600461518c565b6114ac565b34801561053f57600080fd5b5061056e61054e3660046153cf565b61ffff16600090815261016460205260409020546001600160a01b031690565b6040516001600160a01b0390911681526020016102c4565b34801561059257600080fd5b5061016854610304565b3480156105a857600080fd5b506102e26115a2565b3480156105bd57600080fd5b506102e26105cc366004615435565b6115c3565b3480156105dd57600080fd5b5061056e6105ec366004615477565b611614565b3480156105fd57600080fd5b506102b861060c36600461515c565b611633565b34801561061d57600080fd5b50600080516020615be1833981519152610304565b34801561063e57600080fd5b5061056e61064d366004615290565b6001600160a01b03908116600090815261016760205260409020541690565b34801561067857600080fd5b50610304600081565b34801561068d57600080fd5b506102e261069c366004615499565b61165e565b3480156106ad57600080fd5b506102e26106bc3660046154c7565b6118e4565b3480156106cd57600080fd5b506102b8611e32565b6103046106e436600461553a565b611e46565b3480156106f557600080fd5b506102e26107043660046155c0565b611ebd565b34801561071557600080fd5b506102e26107243660046155f6565b611ff2565b34801561073557600080fd5b506102e261074436600461564b565b61208b565b34801561075557600080fd5b507f657d38169ed9612cb2d9de7040b7b6a1adebf7a8433a66ccb49c08554ac9b8a5610304565b34801561078857600080fd5b506102e2610797366004615290565b612173565b3480156107a857600080fd5b506103046107b7366004615143565b6123ba565b3480156107c857600080fd5b506103046107d7366004615365565b6123d1565b6103046107ea3660046152fe565b61245f565b3480156107fb57600080fd5b506102e261080a36600461515c565b612514565b34801561081b57600080fd5b506103f761253a565b34801561083057600080fd5b506102e261083f366004615696565b6125e5565b34801561085057600080fd5b507fdf8c9529ea4b244b569bac557a549516f317e7b5cf82dc5e0d8b6d874930a3f5610304565b34801561088357600080fd5b506102b8610892366004615290565b61262e565b60006001600160e01b03198216635a05180f60e01b14806108bc57506108bc82612677565b92915050565b600080516020615ba18339815191526108db81336126ac565b6108e36126d3565b50565b6000876108f281612768565b876108fc81612768565b876109068161278f565b61012d5460ff16156109335760405162461bcd60e51b815260040161092a906156b4565b60405180910390fd5b600260fb54036109555760405162461bcd60e51b815260040161092a906156de565b600260fb819055506109878b8b8b8b60405180606001604052808d60ff1681526020018c81526020018b8152506127b0565b600160fb559b9a5050505050505050505050565b60006109aa61012d5460ff1690565b156109c75760405162461bcd60e51b815260040161092a906156b4565b600260fb54036109e95760405162461bcd60e51b815260040161092a906156de565b600260fb55336000610a4c84836000814260405160609290921b6001600160601b031916602083015260e01b6001600160e01b03191660348201526038810184905260580160405160208183030381529060405280519060200120905092915050565b6101605460405163158591ab60e11b8152600481018390526001600160a01b0385811660248301526044820188905292935060009290911690632b0b23569060640160408051808303816000875af1158015610aac573d6000803e3d6000fd5b505050506040513d601f19601f82011682018060405250810190610ad0919061572b565b90507f00000000000000000000000000000000000000000000000000000000000000006001600160a01b031681600001516001600160a01b031603610b2457610b1a8284836127ee565b9350505050610b35565b610b2f8284836129a5565b93505050505b600160fb55919050565b600082815260656020526040902060010154610b5b8133612b2c565b610b658383612b90565b505050565b6000610b7961012d5460ff1690565b15610b965760405162461bcd60e51b815260040161092a906156b4565b600260fb5403610bb85760405162461bcd60e51b815260040161092a906156de565b600260fb55610bca8a8a8a8a8a612bb2565b610c0b3330898960405180606001604052808a60ff168152602001898152602001888152508f6001600160a01b0316612c369095949392919063ffffffff16565b6040805180820182526001600160a01b03808d1682528b811660208084019190915283516060810185528c81528082018c9052600081860152845180860190955233855291891690840152610c609289612cfa565b600160fb559a9950505050505050505050565b600082610c7f81612768565b82610c898161278f565b61012d5460ff1615610cad5760405162461bcd60e51b815260040161092a906156b4565b600260fb5403610ccf5760405162461bcd60e51b815260040161092a906156de565b600260fb55610cdf338686613103565b600160fb5595945050505050565b6001600160a01b0381163314610d5d5760405162461bcd60e51b815260206004820152602f60248201527f416363657373436f6e74726f6c3a2063616e206f6e6c792072656e6f756e636560448201526e103937b632b9903337b91039b2b63360891b606482015260840161092a565b610d67828261319b565b5050565b60606000610d7a6101626131bd565b905060008167ffffffffffffffff811115610d9757610d97615715565b604051908082528060200260200182016040528015610dc0578160200160208202803683370190505b50905060005b82811015610e1657610dda610162826131c7565b828281518110610dec57610dec615791565b6001600160a01b039092166020928302919091019091015280610e0e816157bd565b915050610dc6565b5092915050565b6000610e2c61012d5460ff1690565b15610e495760405162461bcd60e51b815260040161092a906156b4565b7f657d38169ed9612cb2d9de7040b7b6a1adebf7a8433a66ccb49c08554ac9b8a5610e7481336126ac565b82610e7e81612768565b610168546000819003610e95576000935050610f80565b600061016855604051631c20fadd60e01b81526001600160a01b037f00000000000000000000000000000000000000000000000000000000000000001690631c20fadd90610f0b907f000000000000000000000000000000000000000000000000000000000000000090899086906004016157d6565b600060405180830381600087803b158015610f2557600080fd5b505af1158015610f39573d6000803e3d6000fd5b50506040518381526001600160a01b03881692503391507f328c9cc28e75030423307e732b07659ae452a620281f3e54e838000a7f4675389060200160405180910390a392505b5050919050565b61012d5460ff1615610fab5760405162461bcd60e51b815260040161092a906156b4565b7fdf8c9529ea4b244b569bac557a549516f317e7b5cf82dc5e0d8b6d874930a3f5610fd681336126ac565b600260fb5403610ff85760405162461bcd60e51b815260040161092a906156de565b600260fb55604080516001600160601b031933606090811b82166020808501919091526001600160e01b03194260e01b1660348501528a821b8316603885015289821b909216604c84015282018790526080820186905260a08083018690528351808403909101815260c090920190925280519101206001600160a01b038088167f000000000000000000000000000000000000000000000000000000000000000091909116036110b8576110b2818787336001886131d3565b506110c8565b6110c681878988338961330a565b505b60408051868152602081018690529081018490526001600160a01b03808816919089169083907f102bce4e43a6a8cf0306fde6154221c1f5460f64ba63b92b156bce998ef0db569060600160405180910390a45050600160fb555050505050565b600061113861012d5460ff1690565b156111555760405162461bcd60e51b815260040161092a906156b4565b600260fb54036111775760405162461bcd60e51b815260040161092a906156de565b600260fb5561016054604051635f23b6c560e11b8152336004820152602481018490526001600160a01b039091169063be476d8a906044016020604051808303816000875af11580156111ce573d6000803e3d6000fd5b505050506040513d601f19601f820116820180604052508101906111f291906157fa565b600160fb5592915050565b8061120781612768565b61121f600080516020615be1833981519152336126ac565b600260fb54036112415760405162461bcd60e51b815260040161092a906156de565b600260fb5561124f8261336a565b6112ba826001600160a01b031663b1dd61b66040518163ffffffff1660e01b8152600401602060405180830381865afa158015611290573d6000803e3d6000fd5b505050506040513d601f19601f820116820180604052508101906112b49190615813565b836133a9565b5050600160fb55565b60006112d261012d5460ff1690565b156112ef5760405162461bcd60e51b815260040161092a906156b4565b600260fb54036113115760405162461bcd60e51b815260040161092a906156de565b600260fb556113238787878787612bb2565b6040805180820182526001600160a01b03808a16825288811660208084019190915283516060810185528981528082018990526000818601528451808601909552338552918616908401526113789286612cfa565b600160fb55979650505050505050565b60008661139481612768565b8661139e8161278f565b61012d5460ff16156113c25760405162461bcd60e51b815260040161092a906156b4565b600260fb54036113e45760405162461bcd60e51b815260040161092a906156de565b600260fb556040805160608101825260ff8816815260208101879052908101859052611422906001600160a01b038b1690339030908c908c90612c36565b61142d338a8a613103565b600160fb559998505050505050505050565b60008261144b81612768565b826114558161278f565b61012d5460ff16156114795760405162461bcd60e51b815260040161092a906156b4565b600260fb540361149b5760405162461bcd60e51b815260040161092a906156de565b600260fb55610cdf3386868261343c565b60006114bb61012d5460ff1690565b156114d85760405162461bcd60e51b815260040161092a906156b4565b600260fb54036114fa5760405162461bcd60e51b815260040161092a906156de565b600260fb5561150c8a8a8a8a8a612bb2565b61154d33308a8960405180606001604052808a60ff168152602001898152602001888152508f6001600160a01b0316612c369095949392919063ffffffff16565b6040805180820182526001600160a01b03808d1682528b811660208084019190915283516060810185528c81528082018c9052600181860152845180860190955233855291891690840152610c609289612cfa565b600080516020615ba18339815191526115bb81336126ac565b6108e36134a5565b60c9546000906115d89061ffff166001615830565b905061ffff81166003146115fe5760405162dc149f60e41b815260040160405180910390fd5b60c9805461ffff191661ffff8316179055505050565b600082815260976020526040812061162c90836131c7565b9392505050565b60009182526065602090815260408084206001600160a01b0393909316845291905290205460ff1690565b8161166881612768565b611680600080516020615be1833981519152336126ac565b600260fb54036116a25760405162461bcd60e51b815260040161092a906156de565b600260fb556001600160a01b03808316908416036116d35760405163386c33d760e11b815260040160405180910390fd5b6116dc8261336a565b826001600160a01b031663f525cb686040518163ffffffff1660e01b8152600401602060405180830381865afa15801561171a573d6000803e3d6000fd5b505050506040513d601f19601f8201168201806040525081019061173e91906157fa565b1561175c576040516332e7879360e01b815260040160405180910390fd5b611768610162846134ff565b6117855760405163b0ce759160e01b815260040160405180910390fd5b6000836001600160a01b031663b1dd61b66040518163ffffffff1660e01b8152600401602060405180830381865afa1580156117c5573d6000803e3d6000fd5b505050506040513d601f19601f820116820180604052508101906117e99190615813565b90506001600160a01b0383161561188a576000836001600160a01b031663b1dd61b66040518163ffffffff1660e01b8152600401602060405180830381865afa15801561183a573d6000803e3d6000fd5b505050506040513d601f19601f8201168201806040525081019061185e9190615813565b90508061ffff168261ffff16146118885760405163b968846160e01b815260040160405180910390fd5b505b61189481846133a9565b61189f846000613514565b6040516001600160a01b0385169061ffff8316907fa0c1e3924f995e5ba38f53b4effb6d4b3eeb84176a2951c589115140f638ac0990600090a35050600160fb555050565b846118ee81612768565b846118f88161278f565b8461190281612768565b61012d5460ff16156119265760405162461bcd60e51b815260040161092a906156b4565b600260fb54036119485760405162461bcd60e51b815260040161092a906156de565b600260fb557f00000000000000000000000000000000000000000000000000000000000000006001600160a01b0390811690891614158015611a11575060405163b5af090f60e01b81526001600160a01b0389811660048301527f0000000000000000000000000000000000000000000000000000000000000000169063b5af090f90602401602060405180830381865afa1580156119eb573d6000803e3d6000fd5b505050506040513d601f19601f82011682018060405250810190611a0f9190615856565b155b15611a2f57604051630b094f2760e31b815260040160405180910390fd5b604051637c36afad60e01b81526001600160a01b038981166004830152600091611ad3918a917f000000000000000000000000000000000000000000000000000000000000000090911690637c36afad90602401602060405180830381865afa158015611aa0573d6000803e3d6000fd5b505050506040513d601f19601f82011682018060405250810190611ac49190615878565b63ffffffff16620f4240613a4b565b90506000611aea6001600160a01b038b1630613b17565b604051631c20fadd60e01b81529091506001600160a01b037f00000000000000000000000000000000000000000000000000000000000000001690631c20fadd90611b3d908d908c908e906004016157d6565b600060405180830381600087803b158015611b5757600080fd5b505af1158015611b6b573d6000803e3d6000fd5b50505050876001600160a01b03166323e30c8b33611b8f8d6001600160a01b031690565b8c868c8c6040518763ffffffff1660e01b8152600401611bb49695949392919061589e565b600060405180830381600087803b158015611bce57600080fd5b505af1158015611be2573d6000803e3d6000fd5b50505050600081611c05308d6001600160a01b0316613b1790919063ffffffff16565b611c0f91906158fa565b9050611c1b838b615911565b811015611c3b5760405163b7ed78bf60e01b815260040160405180910390fd5b611c4d8b6001600160a01b0316613ba5565b15611c8a57611c856001600160a01b037f00000000000000000000000000000000000000000000000000000000000000001682613bc7565b611cbe565b611cbe6001600160a01b038c167f000000000000000000000000000000000000000000000000000000000000000083613ce0565b6001600160a01b037f00000000000000000000000000000000000000000000000000000000000000008116908c1603611d675761015f54604051637c8f622d60e01b81526001600160a01b038d811660048301526024820186905260006044830152909116908190637c8f622d90606401600060405180830381600087803b158015611d4957600080fd5b505af1158015611d5d573d6000803e3d6000fd5b5050505050611dda565b6000611d728c613d4b565b604051631510748b60e01b81526001600160a01b038e811660048301526024820187905291925090821690631510748b90604401600060405180830381600087803b158015611dc057600080fd5b505af1158015611dd4573d6000803e3d6000fd5b50505050505b604080518b81526020810185905233916001600160a01b038e16917f0da3485ef1bb570df7bb888887eae5aa01d81b83cd8ccc80c0ea0922a677ecef910160405180910390a35050600160fb55505050505050505050565b6000611e4161012d5460ff1690565b905090565b600083611e5281612768565b83611e5c81612768565b83611e668161278f565b61012d5460ff1615611e8a5760405162461bcd60e51b815260040161092a906156b4565b600260fb5403611eac5760405162461bcd60e51b815260040161092a906156de565b600260fb556113788787873361343c565b600260fb5403611edf5760405162461bcd60e51b815260040161092a906156de565b600260fb558060005b81811015611fe7576000848483818110611f0457611f04615791565b9050602002016020810190611f199190615290565b61016154604051630874327f60e01b81526001600160a01b03808416600483015292935060009290911690630874327f906024016020604051808303816000875af1158015611f6c573d6000803e3d6000fd5b505050506040513d601f19601f82011682018060405250810190611f909190615929565b90506001600160a01b038116611fa7575050611fd5565b6001600160a01b0391821660009081526101676020526040902080546001600160a01b031916919092161790555b80611fdf816157bd565b915050611ee8565b5050600160fb555050565b61200a600080516020615be1833981519152336126ac565b600260fb540361202c5760405162461bcd60e51b815260040161092a906156de565b600260fb558060005b8181101561207f5761206d8585858481811061205357612053615791565b90506020020160208101906120689190615290565b613d87565b80612077816157bd565b915050612035565b5050600160fb55505050565b8261209581612768565b8261209f81612768565b826120a981612768565b600054610100900460ff166120c45760005460ff16156120c8565b303b155b61212b5760405162461bcd60e51b815260206004820152602e60248201527f496e697469616c697a61626c653a20636f6e747261637420697320616c72656160448201526d191e481a5b9a5d1a585b1a5e995960921b606482015260840161092a565b600054610100900460ff1615801561214d576000805461ffff19166101011790555b612158878787613ef7565b801561216a576000805461ff00191690555b50505050505050565b8061217d81612768565b612195600080516020615be1833981519152336126ac565b600260fb54036121b75760405162461bcd60e51b815260040161092a906156de565b600260fb556121c861016283613f41565b6121e55760405163119b4fd360e11b815260040160405180910390fd5b6000826001600160a01b031663b1dd61b66040518163ffffffff1660e01b8152600401602060405180830381865afa158015612225573d6000803e3d6000fd5b505050506040513d601f19601f820116820180604052508101906122499190615813565b61ffff8116600090815261016460205260409020549091506001600160a01b031680158015906123425750836001600160a01b03166354fd4d506040518163ffffffff1660e01b8152600401602060405180830381865afa1580156122b2573d6000803e3d6000fd5b505050506040513d601f19601f820116820180604052508101906122d69190615813565b61ffff16816001600160a01b03166354fd4d506040518163ffffffff1660e01b8152600401602060405180830381865afa158015612318573d6000803e3d6000fd5b505050506040513d601f19601f8201168201806040525081019061233c9190615813565b61ffff16145b156123605760405163119b4fd360e11b815260040160405180910390fd5b61236a82856133a9565b612375846001613514565b6040516001600160a01b0385169061ffff8416907f5ae87719d73cb0fabb219f0e4b6e0a614ed7506f8a08bdb20bebf313573151b790600090a35050600160fb555050565b60008181526097602052604081206108bc906131bd565b6000866123dd81612768565b866123e78161278f565b61012d5460ff161561240b5760405162461bcd60e51b815260040161092a906156b4565b600260fb540361242d5760405162461bcd60e51b815260040161092a906156de565b600260fb8190555061142d338a8a8a60405180606001604052808c60ff1681526020018b81526020018a8152506127b0565b600061246e61012d5460ff1690565b1561248b5760405162461bcd60e51b815260040161092a906156b4565b600260fb54036124ad5760405162461bcd60e51b815260040161092a906156de565b600260fb556124bf8787878787612bb2565b6040805180820182526001600160a01b03808a16825288811660208084019190915283516060810185528981528082018990526001818601528451808601909552338552918616908401526113789286612cfa565b6000828152606560205260409020600101546125308133612b2c565b610b65838361319b565b606060006125496101656131bd565b905060008167ffffffffffffffff81111561256657612566615715565b60405190808252806020026020018201604052801561258f578160200160208202803683370190505b50905060005b82811015610e16576125a9610165826131c7565b8282815181106125bb576125bb615791565b6001600160a01b0390921660209283029190910190910152806125dd816157bd565b915050612595565b6125fd600080516020615be1833981519152336126ac565b600260fb540361261f5760405162461bcd60e51b815260040161092a906156de565b600260fb556112ba8282613d87565b60007f00000000000000000000000000000000000000000000000000000000000000006001600160a01b0316826001600160a01b031614806108bc57506108bc61016583613f56565b60006001600160e01b03198216637965db0b60e01b14806108bc57506301ffc9a760e01b6001600160e01b03198316146108bc565b6126b68282611633565b610d6757604051634ca8886760e01b815260040160405180910390fd5b61012d5460ff1661271d5760405162461bcd60e51b815260206004820152601460248201527314185d5cd8589b194e881b9bdd081c185d5cd95960621b604482015260640161092a565b61012d805460ff191690557f5db9ee0a495bf2e6ff9c91a7834c1ba4fdd244a5e8aa4e537bd38aeae4b073aa335b6040516001600160a01b03909116815260200160405180910390a1565b6001600160a01b0381166108e35760405163e6c4247b60e01b815260040160405180910390fd5b806000036108e357604051637c946ed760e01b815260040160405180910390fd5b6000336127ca6001600160a01b0387168230888888612c36565b6127e36127d988888885613f78565b888888858a61330a565b979650505050505050565b61015f548151602083015160405163095ea7b360e01b81526000936001600160a01b0390811693169163095ea7b39161283f9185916004016001600160a01b03929092168252602082015260400190565b6020604051808303816000875af115801561285e573d6000803e3d6000fd5b505050506040513d601f19601f820116820180604052508101906128829190615856565b5060208301516040516323b872dd60e01b81526001600160a01b037f000000000000000000000000000000000000000000000000000000000000000016916323b872dd916128d79188918691906004016157d6565b6020604051808303816000875af11580156128f6573d6000803e3d6000fd5b505050506040513d601f19601f8201168201806040525081019061291a9190615856565b50602083015160405163a6fb97d160e01b8152600481018790526001600160a01b03868116602483015260448201929092529082169063a6fb97d1906064016020604051808303816000875af1158015612978573d6000803e3d6000fd5b505050506040513d601f19601f8201168201806040525081019061299c91906157fa565b95945050505050565b60008082600001516001600160a01b031663f4325d676040518163ffffffff1660e01b8152600401602060405180830381865afa1580156129ea573d6000803e3d6000fd5b505050506040513d601f19601f82011682018060405250810190612a0e9190615929565b90506000612a1b82613d4b565b8451602086015160405163095ea7b360e01b81526001600160a01b0380851660048301526024820192909252929350169063095ea7b3906044016020604051808303816000875af1158015612a74573d6000803e3d6000fd5b505050506040513d601f19601f82011682018060405250810190612a989190615856565b50602084015160405163470660bb60e11b8152600481018890526001600160a01b0387811660248301528481166044830152606482019290925290821690638e0cc176906084016020604051808303816000875af1158015612afe573d6000803e3d6000fd5b505050506040513d601f19601f82011682018060405250810190612b2291906157fa565b9695505050505050565b612b368282611633565b610d6757612b4e816001600160a01b03166014613fdd565b612b59836020613fdd565b604051602001612b6a929190615972565b60408051601f198184030181529082905262461bcd60e51b825261092a916004016159e7565b612b9a8282614179565b6000828152609760205260409020610b659082613f41565b612bbb85612768565b612bc484612768565b836001600160a01b0316856001600160a01b031603612bf65760405163c1ab6dc160e01b815260040160405180910390fd5b612bff8361278f565b612c088261278f565b4263ffffffff16811015612c2f57604051631ab7da6b60e01b815260040160405180910390fd5b5050505050565b612c3f86613ba5565b15612c5d57604051631a4ecdbb60e11b815260040160405180910390fd5b80516020820151604080840151905163d505accf60e01b81526001600160a01b0389811660048301528881166024830152604482018890526064820187905260ff909416608482015260a481019290925260c48201529087169063d505accf9060e401600060405180830381600087803b158015612cda57600080fd5b505af1158015612cee573d6000803e3d6000fd5b50505050505050505050565b60208201516000906001600160a01b0316612d205782516001600160a01b031660208401525b825185516020808801518751888301516040808b0151858b015182516001600160601b031960609a8b1b8116828a01526001600160e01b03194260e01b166034830152988a1b8916603882015295891b8816604c87015288860194909452608080860193909352151560f81b60a085015260a1840189905291861b90941660c1830152805160b581840301815260d5830180835281519185019190912061015584018352600080835260f5850181905261011585018190526101359094018490528251958601835283865293850183905290840182905293830152919087516000907f00000000000000000000000000000000000000000000000000000000000000006001600160a01b03908116911603612eca57612e46848a6020015160018b6141ff565b91508192508160600151905088602001516001600160a01b031689600001516001600160a01b0316857f5c02c2bb2d1d082317eb23916ca27b3e7c294398b60061a2ad54f1c3c018c318856000015186602001518760000151886040015160008f60000151604051612ebd96959493929190615a1a565b60405180910390a4613029565b60208901516001600160a01b037f00000000000000000000000000000000000000000000000000000000000000008116911603612f8c57612f12848a6000015160008b6141ff565b91508192508160600151905088602001516001600160a01b031689600001516001600160a01b0316857f5c02c2bb2d1d082317eb23916ca27b3e7c294398b60061a2ad54f1c3c018c318856000015186602001518760200151886040015189604001518f60000151604051612ebd96959493929190615a1a565b612f97848a8a61450d565b60608082015190830151929550909350612fb091615911565b905088602001516001600160a01b031689600001516001600160a01b0316857f5c02c2bb2d1d082317eb23916ca27b3e7c294398b60061a2ad54f1c3c018c31886600001518660200151886020015188604001518a604001518f6000015160405161302096959493929190615a1a565b60405180910390a45b88518751845161303a92919061466d565b6020808a01518882015191840151604051631c20fadd60e01b81526001600160a01b037f00000000000000000000000000000000000000000000000000000000000000001693631c20fadd936130949390926004016157d6565b600060405180830381600087803b1580156130ae57600080fd5b505af11580156130c2573d6000803e3d6000fd5b505050508061016860008282546130d99190615911565b909155505060408801516130ee5781516130f4565b81602001515b9450505050505b949350505050565b61016054600090613123906001600160a01b038581169187911685614751565b610160546040516313e7e7d160e11b81526001600160a01b03909116906327cfcfa290613158908790879087906004016157d6565b6020604051808303816000875af1158015613177573d6000803e3d6000fd5b505050506040513d601f19601f820116820180604052508101906130fb91906157fa565b6131a582826147a9565b6000828152609760205260409020610b6590826134ff565b60006108bc825490565b600061162c8383614810565b61015f546040516323b872dd60e01b81526000916001600160a01b03908116917f0000000000000000000000000000000000000000000000000000000000000000909116906323b872dd9061323090889085908b906004016157d6565b6020604051808303816000875af115801561324f573d6000803e3d6000fd5b505050506040513d601f19601f820116820180604052508101906132739190615856565b5060405163e06bf20d60e01b8152600481018990526001600160a01b0388811660248301526044820188905285151560648301526084820185905282169063e06bf20d9060a4015b6020604051808303816000875af11580156132da573d6000803e3d6000fd5b505050506040513d601f19601f820116820180604052508101906132fe91906157fa565b98975050505050505050565b600061331785848461466d565b600061332286613d4b565b604051639f5c734b60e01b8152600481018a90526001600160a01b03898116602483015288811660448301526064820188905291925090821690639f5c734b906084016132bb565b6001600160a01b0381161580159061338b575061338961016282613f56565b155b156108e35760405163b0ce759160e01b815260040160405180910390fd5b61ffff8216600090815261016460205260409020546001600160a01b0390811690821681036133d757505050565b61ffff83166000818152610164602052604080822080546001600160a01b0319166001600160a01b03878116918217909255915191939085169290917f1c34d22e7a908d21c83b9601fc8e1f2ba435b2e9e15ba4104e882ed826b1cc329190a4505050565b60008061344b86868686613f78565b90506001600160a01b037f00000000000000000000000000000000000000000000000000000000000000008116908616036134975761348f818786866000806131d3565b9150506130fb565b612b2281878787878961330a565b61012d5460ff16156134c95760405162461bcd60e51b815260040161092a906156b4565b61012d805460ff191660011790557f62e78cea01bee320cd4e420270b5ea74000d11b0c9f74754ebdbfc544b05a25861274b3390565b600061162c836001600160a01b03841661483a565b8181156137c85761015f54604051632f2ff15d60e01b81527f4cbb5676e6e25e1a3b8a36de10472bcac96f97bd8dd87af6f330881b84739eb860048201526001600160a01b03838116602483015290911690632f2ff15d90604401600060405180830381600087803b15801561358957600080fd5b505af115801561359d573d6000803e3d6000fd5b505061015f54604051632f2ff15d60e01b81527f0d0d17bf5382c809d9a3899d6a94e57386dfb2036f0401b94ef3cf6c1a9ab73f60048201526001600160a01b0385811660248301529091169250632f2ff15d9150604401600060405180830381600087803b15801561360f57600080fd5b505af1158015613623573d6000803e3d6000fd5b505061015f54604051632f2ff15d60e01b81527fca51b9188e78415f30da725e0d94567b4d65bc6777d4e5d573191e9f55b88a3260048201526001600160a01b0385811660248301529091169250632f2ff15d9150604401600060405180830381600087803b15801561369557600080fd5b505af11580156136a9573d6000803e3d6000fd5b5050604051632f2ff15d60e01b8152600080516020615bc183398151915260048201526001600160a01b0384811660248301527f0000000000000000000000000000000000000000000000000000000000000000169250632f2ff15d9150604401600060405180830381600087803b15801561372457600080fd5b505af1158015613738573d6000803e3d6000fd5b5050604051632f2ff15d60e01b8152600080516020615bc183398151915260048201526001600160a01b0384811660248301527f0000000000000000000000000000000000000000000000000000000000000000169250632f2ff15d91506044015b600060405180830381600087803b1580156137b457600080fd5b505af115801561216a573d6000803e3d6000fd5b61015f5460405163d547741f60e01b81527f4cbb5676e6e25e1a3b8a36de10472bcac96f97bd8dd87af6f330881b84739eb860048201526001600160a01b0383811660248301529091169063d547741f90604401600060405180830381600087803b15801561383657600080fd5b505af115801561384a573d6000803e3d6000fd5b505061015f5460405163d547741f60e01b81527f0d0d17bf5382c809d9a3899d6a94e57386dfb2036f0401b94ef3cf6c1a9ab73f60048201526001600160a01b038581166024830152909116925063d547741f9150604401600060405180830381600087803b1580156138bc57600080fd5b505af11580156138d0573d6000803e3d6000fd5b505061015f5460405163d547741f60e01b81527fca51b9188e78415f30da725e0d94567b4d65bc6777d4e5d573191e9f55b88a3260048201526001600160a01b038581166024830152909116925063d547741f9150604401600060405180830381600087803b15801561394257600080fd5b505af1158015613956573d6000803e3d6000fd5b505060405163d547741f60e01b8152600080516020615bc183398151915260048201526001600160a01b0384811660248301527f000000000000000000000000000000000000000000000000000000000000000016925063d547741f9150604401600060405180830381600087803b1580156139d157600080fd5b505af11580156139e5573d6000803e3d6000fd5b505060405163d547741f60e01b8152600080516020615bc183398151915260048201526001600160a01b0384811660248301527f000000000000000000000000000000000000000000000000000000000000000016925063d547741f915060440161379a565b600080613a58858561492d565b8051909150600003613a7c57828160200151613a749190615a61565b91505061162c565b80518311613a9d57604051631a93c68960e11b815260040160405180910390fd5b6000613aaa8686866149b4565b90506000613ab883836149cf565b8051909150600003613ade57848160200151613ad49190615a61565b935050505061162c565b6000858103861690613af08383614a54565b90506000613b06613b01848a615a61565b614a8b565b919091029998505050505050505050565b6000613b2283613ba5565b15613b3857506001600160a01b038116316108bc565b826040516370a0823160e01b81526001600160a01b03848116600483015291909116906370a0823190602401602060405180830381865afa158015613b81573d6000803e3d6000fd5b505050506040513d601f19601f8201168201806040525081019061162c91906157fa565b6001600160a01b031673eeeeeeeeeeeeeeeeeeeeeeeeeeeeeeeeeeeeeeee1490565b80471015613c175760405162461bcd60e51b815260206004820152601d60248201527f416464726573733a20696e73756666696369656e742062616c616e6365000000604482015260640161092a565b6000826001600160a01b03168260405160006040518083038185875af1925050503d8060008114613c64576040519150601f19603f3d011682016040523d82523d6000602084013e613c69565b606091505b5050905080610b655760405162461bcd60e51b815260206004820152603a60248201527f416464726573733a20756e61626c6520746f2073656e642076616c75652c207260448201527f6563697069656e74206d61792068617665207265766572746564000000000000606482015260840161092a565b80600003613ced57505050565b613cf683613ba5565b15613d37576040516001600160a01b0383169082156108fc029083906000818181858888f19350505050158015613d31573d6000803e3d6000fd5b50505050565b610b656001600160a01b0384168383614ab6565b6001600160a01b0380821660009081526101676020526040812054909116806108bc5760405163c1ab6dc160e01b815260040160405180910390fd5b80613d9181612768565b6001600160a01b037f0000000000000000000000000000000000000000000000000000000000000000811690831603613ddd5760405163c1ab6dc160e01b815260040160405180910390fd5b613de961016583613f41565b613e065760405163119b4fd360e11b815260040160405180910390fd5b61ffff8316600090815261016460205260409020546001600160a01b031680613e425760405163b968846160e01b815260040160405180910390fd5b604051634824fce960e11b81526001600160a01b038481166004830152821690639049f9d290602401600060405180830381600087803b158015613e8557600080fd5b505af1158015613e99573d6000803e3d6000fd5b505050506001600160a01b038381166000818152610167602052604080822080546001600160a01b0319169486169485179055517f95f865c2808f8b2a85eea2611db7843150ee7835ef1403f9755918a97d76933c9190a350505050565b600054610100900460ff16613f1e5760405162461bcd60e51b815260040161092a90615a83565b613f26614ae6565b613f2e614b1f565b613f36614b4e565b610b65838383614b7d565b600061162c836001600160a01b038416614c7a565b6001600160a01b0381166000908152600183016020526040812054151561162c565b604080516001600160601b0319606093841b81166020808401919091526001600160e01b03194260e01b16603484015296841b8116603883015294831b909416604c850152818401929092528151808403909101815260809092019052805191012090565b60606000613fec836002615ace565b613ff7906002615911565b67ffffffffffffffff81111561400f5761400f615715565b6040519080825280601f01601f191660200182016040528015614039576020820181803683370190505b509050600360fc1b8160008151811061405457614054615791565b60200101906001600160f81b031916908160001a905350600f60fb1b8160018151811061408357614083615791565b60200101906001600160f81b031916908160001a90535060006140a7846002615ace565b6140b2906001615911565b90505b600181111561412a576f181899199a1a9b1b9c1cb0b131b232b360811b85600f16601081106140e6576140e6615791565b1a60f81b8282815181106140fc576140fc615791565b60200101906001600160f81b031916908160001a90535060049490941c9361412381615aed565b90506140b5565b50831561162c5760405162461bcd60e51b815260206004820181905260248201527f537472696e67733a20686578206c656e67746820696e73756666696369656e74604482015260640161092a565b6141838282611633565b610d675760008281526065602090815260408083206001600160a01b03851684529091529020805460ff191660011790556141bb3390565b6001600160a01b0316816001600160a01b0316837f2f8788117e7eff1d82e926ec794901d17c78024a50270940304540a733656f0d60405160405180910390a45050565b61422a6040518060800160405280600081526020016000815260200160008152602001600081525090565b60008361427d576040518060400160405280866001600160a01b031681526020017f00000000000000000000000000000000000000000000000000000000000000006001600160a01b03168152506142c5565b60405180604001604052807f00000000000000000000000000000000000000000000000000000000000000006001600160a01b03168152602001866001600160a01b03168152505b905060008360400151614379576142db86613d4b565b8251602080850151875191880151604051635bfd7dbd60e11b8152600481018d90526001600160a01b03948516602482015291841660448301526064820192909252608481019190915291169063b7fafb7a9060a4016060604051808303816000875af1158015614350573d6000803e3d6000fd5b505050506040513d601f19601f820116820180604052508101906143749190615b04565b61441b565b61438286613d4b565b825160208085015187519188015160405163052c8f9960e41b8152600481018d90526001600160a01b0394851660248201529184166044830152606482019290925260848101919091529116906352c8f9909060a4016060604051808303816000875af11580156143f7573d6000803e3d6000fd5b505050506040513d601f19601f8201168201806040525081019061441b9190615b04565b9050846144b45761015f54604082015160208301516001600160a01b0390921691637c8f622d91899161444e91906158fa565b6040516001600160e01b031960e085901b1681526001600160a01b039092166004830152602482015260016044820152606401600060405180830381600087803b15801561449b57600080fd5b505af11580156144af573d6000803e3d6000fd5b505050505b604051806080016040528085604001516144cf5782516144d2565b85515b815260200185604001516144e75785516144ea565b82515b815260200182602001518152602001826040015181525092505050949350505050565b6145386040518060800160405280600081526020016000815260200160008152602001600081525090565b6145636040518060800160405280600081526020016000815260200160008152602001600081525090565b8260400151156145eb57825160208085015186516040805160608101825285815260019481018590529081019390935290916000916145a6918a919084906141ff565b905060006145dc8989602001516001604051806060016040528087602001518152602001888152602001600115158152506141ff565b91955090935061466592505050565b825160208085015186820151604080516060810182528581526000199481019490945260009084018190529192614626918a916001906141ff565b9050600061465c8989600001516000604051806060016040528087600001518152602001888152602001600015158152506141ff565b95509093505050505b935093915050565b61467f836001600160a01b0316613ba5565b156146fd57803410156146a5576040516342f7487960e11b815260040160405180910390fd5b6146d86001600160a01b037f00000000000000000000000000000000000000000000000000000000000000001682613bc7565b80341115610b6557610b656146ed82346158fa565b6001600160a01b03841690613bc7565b341561471c576040516342f7487960e11b815260040160405180910390fd5b610b656001600160a01b038416837f000000000000000000000000000000000000000000000000000000000000000084614cc9565b613d31846323b872dd60e01b858585604051602401614772939291906157d6565b60408051601f198184030181529190526020810180516001600160e01b03166001600160e01b031990931692909217909152614cf3565b6147b38282611633565b15610d675760008281526065602090815260408083206001600160a01b0385168085529252808320805460ff1916905551339285917ff6391f5c32d9c69d2a47ea670b442974b53935d1edc7fd64eb21e047a839171b9190a45050565b600082600001828154811061482757614827615791565b9060005260206000200154905092915050565b6000818152600183016020526040812054801561492357600061485e6001836158fa565b8554909150600090614872906001906158fa565b90508181146148d757600086600001828154811061489257614892615791565b90600052602060002001549050808760000184815481106148b5576148b5615791565b6000918252602080832090910192909255918252600188019052604090208390555b85548690806148e8576148e8615b6e565b6001900381819060005260206000200160009055905585600101600086815260200190815260200160002060009055600193505050506108bc565b60009150506108bc565b6040805180820190915260008082526020820152600061494d8484614dc5565b9050838302808210614982576040518060400160405280828461497091906158fa565b815260200182815250925050506108bc565b604051806040016040528060016149998585900390565b6149a391906158fa565b815260200191909152949350505050565b600081806149c4576149c4615a4b565b838509949350505050565b604080518082019091526000808252602082015281836020015110614a1c57604051806040016040528084600001518152602001838560200151614a1391906158fa565b905290506108bc565b604051806040016040528060018560000151614a3891906158fa565b8152602001614a4b856020015185900390565b90529392505050565b600080614a6c614a6684808403615a61565b60010190565b9050828460200151614a7e9190615a61565b8451820217949350505050565b60006001815b6008811015610e16578382026002038202915080614aae816157bd565b915050614a91565b6040516001600160a01b038316602482015260448101829052610b6590849063a9059cbb60e01b90606401614772565b600054610100900460ff16614b0d5760405162461bcd60e51b815260040161092a90615a83565b614b15614dd4565b614b1d614dfb565b565b600054610100900460ff16614b465760405162461bcd60e51b815260040161092a90615a83565b614b1d614e60565b600054610100900460ff16614b755760405162461bcd60e51b815260040161092a90615a83565b614b1d614e8e565b600054610100900460ff16614ba45760405162461bcd60e51b815260040161092a90615a83565b61015f80546001600160a01b038086166001600160a01b0319928316179092556101608054858416908316179055610161805492841692909116919091179055614c1c7fdf8c9529ea4b244b569bac557a549516f317e7b5cf82dc5e0d8b6d874930a3f5600080516020615be1833981519152614ec2565b614c42600080516020615ba1833981519152600080516020615be1833981519152614ec2565b610b657f657d38169ed9612cb2d9de7040b7b6a1adebf7a8433a66ccb49c08554ac9b8a5600080516020615be1833981519152614ec2565b6000818152600183016020526040812054614cc1575081546001818101845560008481526020808220909301849055845484825282860190935260409020919091556108bc565b5060006108bc565b801580614cda5750614cda84613ba5565b613d3157613d316001600160a01b038516848484614751565b6000614d48826040518060400160405280602081526020017f5361666545524332303a206c6f772d6c6576656c2063616c6c206661696c6564815250856001600160a01b0316614f0d9092919063ffffffff16565b805190915015610b655780806020019051810190614d669190615856565b610b655760405162461bcd60e51b815260206004820152602a60248201527f5361666545524332303a204552433230206f7065726174696f6e20646964206e6044820152691bdd081cdd58d8d9595960b21b606482015260840161092a565b60006000198284099392505050565b600054610100900460ff16614b1d5760405162461bcd60e51b815260040161092a90615a83565b600054610100900460ff16614e225760405162461bcd60e51b815260040161092a90615a83565b60c9805461ffff19166001179055614e48600080516020615be183398151915280614ec2565b614b1d600080516020615be183398151915233614f1c565b600054610100900460ff16614e875760405162461bcd60e51b815260040161092a90615a83565b600160fb55565b600054610100900460ff16614eb55760405162461bcd60e51b815260040161092a90615a83565b61012d805460ff19169055565b600082815260656020526040808220600101805490849055905190918391839186917fbd79b86ffe0ab8e8776151514217cd7cacd52c909f66475c3af44e129f0b00ff9190a4505050565b60606130fb8484600085614f26565b610d678282612b90565b606082471015614f875760405162461bcd60e51b815260206004820152602660248201527f416464726573733a20696e73756666696369656e742062616c616e636520666f6044820152651c8818d85b1b60d21b606482015260840161092a565b6001600160a01b0385163b614fde5760405162461bcd60e51b815260206004820152601d60248201527f416464726573733a2063616c6c20746f206e6f6e2d636f6e7472616374000000604482015260640161092a565b600080866001600160a01b03168587604051614ffa9190615b84565b60006040518083038185875af1925050503d8060008114615037576040519150601f19603f3d011682016040523d82523d6000602084013e61503c565b606091505b50915091506127e38282866060831561505657508161162c565b8251156150665782518084602001fd5b8160405162461bcd60e51b815260040161092a91906159e7565b60006020828403121561509257600080fd5b81356001600160e01b03198116811461162c57600080fd5b6001600160a01b03811681146108e357600080fd5b803560ff811681146150d057600080fd5b919050565b600080600080600080600060e0888a0312156150f057600080fd5b87356150fb816150aa565b9650602088013561510b816150aa565b95506040880135945060608801359350615127608089016150bf565b925060a0880135915060c0880135905092959891949750929550565b60006020828403121561515557600080fd5b5035919050565b6000806040838503121561516f57600080fd5b823591506020830135615181816150aa565b809150509250929050565b60008060008060008060008060006101208a8c0312156151ab57600080fd5b89356151b6816150aa565b985060208a01356151c6816150aa565b975060408a0135965060608a0135955060808a0135945060a08a01356151eb816150aa565b93506151f960c08b016150bf565b925060e08a013591506101008a013590509295985092959850929598565b6000806040838503121561522a57600080fd5b8235615235816150aa565b946020939093013593505050565b6020808252825182820181905260009190848201906040850190845b818110156152845783516001600160a01b03168352928401929184019160010161525f565b50909695505050505050565b6000602082840312156152a257600080fd5b813561162c816150aa565b600080600080600060a086880312156152c557600080fd5b85356152d0816150aa565b945060208601356152e0816150aa565b94979496505050506040830135926060810135926080909101359150565b60008060008060008060c0878903121561531757600080fd5b8635615322816150aa565b95506020870135615332816150aa565b945060408701359350606087013592506080870135915060a0870135615357816150aa565b809150509295509295509295565b60008060008060008060c0878903121561537e57600080fd5b8635615389816150aa565b955060208701359450604087013593506153a5606088016150bf565b92506080870135915060a087013590509295509295509295565b61ffff811681146108e357600080fd5b6000602082840312156153e157600080fd5b813561162c816153bf565b60008083601f8401126153fe57600080fd5b50813567ffffffffffffffff81111561541657600080fd5b60208301915083602082850101111561542e57600080fd5b9250929050565b6000806020838503121561544857600080fd5b823567ffffffffffffffff81111561545f57600080fd5b61546b858286016153ec565b90969095509350505050565b6000806040838503121561548a57600080fd5b50508035926020909101359150565b600080604083850312156154ac57600080fd5b82356154b7816150aa565b91506020830135615181816150aa565b6000806000806000608086880312156154df57600080fd5b85356154ea816150aa565b9450602086013593506040860135615501816150aa565b9250606086013567ffffffffffffffff81111561551d57600080fd5b615529888289016153ec565b969995985093965092949392505050565b60008060006060848603121561554f57600080fd5b833561555a816150aa565b9250602084013561556a816150aa565b929592945050506040919091013590565b60008083601f84011261558d57600080fd5b50813567ffffffffffffffff8111156155a557600080fd5b6020830191508360208260051b850101111561542e57600080fd5b600080602083850312156155d357600080fd5b823567ffffffffffffffff8111156155ea57600080fd5b61546b8582860161557b565b60008060006040848603121561560b57600080fd5b8335615616816153bf565b9250602084013567ffffffffffffffff81111561563257600080fd5b61563e8682870161557b565b9497909650939450505050565b60008060006060848603121561566057600080fd5b833561566b816150aa565b9250602084013561567b816150aa565b9150604084013561568b816150aa565b809150509250925092565b600080604083850312156156a957600080fd5b82356154b7816153bf565b60208082526010908201526f14185d5cd8589b194e881c185d5cd95960821b604082015260600190565b6020808252601f908201527f5265656e7472616e637947756172643a207265656e7472616e742063616c6c00604082015260600190565b634e487b7160e01b600052604160045260246000fd5b60006040828403121561573d57600080fd5b6040516040810181811067ffffffffffffffff8211171561576e57634e487b7160e01b600052604160045260246000fd5b604052825161577c816150aa565b81526020928301519281019290925250919050565b634e487b7160e01b600052603260045260246000fd5b634e487b7160e01b600052601160045260246000fd5b6000600182016157cf576157cf6157a7565b5060010190565b6001600160a01b039384168152919092166020820152604081019190915260600190565b60006020828403121561580c57600080fd5b5051919050565b60006020828403121561582557600080fd5b815161162c816153bf565b600061ffff80831681851680830382111561584d5761584d6157a7565b01949350505050565b60006020828403121561586857600080fd5b8151801515811461162c57600080fd5b60006020828403121561588a57600080fd5b815163ffffffff8116811461162c57600080fd5b6001600160a01b03878116825286166020820152604081018590526060810184905260a06080820181905281018290526000828460c0840137600060c0848401015260c0601f19601f8501168301019050979650505050505050565b60008282101561590c5761590c6157a7565b500390565b60008219821115615924576159246157a7565b500190565b60006020828403121561593b57600080fd5b815161162c816150aa565b60005b83811015615961578181015183820152602001615949565b83811115613d315750506000910152565b7f416363657373436f6e74726f6c3a206163636f756e74200000000000000000008152600083516159aa816017850160208801615946565b7001034b99036b4b9b9b4b733903937b6329607d1b60179184019182015283516159db816028840160208801615946565b01602801949350505050565b6020815260008251806020840152615a06816040850160208701615946565b601f01601f19169190910160400192915050565b95865260208601949094526040850192909252606084015260808301526001600160a01b031660a082015260c00190565b634e487b7160e01b600052601260045260246000fd5b600082615a7e57634e487b7160e01b600052601260045260246000fd5b500490565b6020808252602b908201527f496e697469616c697a61626c653a20636f6e7472616374206973206e6f74206960408201526a6e697469616c697a696e6760a81b606082015260800190565b6000816000190483118215151615615ae857615ae86157a7565b500290565b600081615afc57615afc6157a7565b506000190190565b600060608284031215615b1657600080fd5b6040516060810181811067ffffffffffffffff82111715615b4757634e487b7160e01b600052604160045260246000fd5b80604052508251815260208301516020820152604083015160408201528091505092915050565b634e487b7160e01b600052603160045260246000fd5b60008251615b96818460208701615946565b919091019291505056fef28f409b8cbe6b50c7ca45afe893f01f69626f8a4e33cb480bc1bc2d618c084589ce14d20697a788f57260f7690044299bde7ea88cfb7e43d120a0c031f1ffc12172861495e7b85edac73e3cd5fbb42dd675baadf627720e687bcfdaca025096a164736f6c634300080d000a",
  "devdoc": {
    "details": "Bancor Network contract",
    "events": {
      "FlashLoanCompleted(address,address,uint256,uint256)": {
        "details": "triggered when a flash-loan is completed"
      },
      "FundsMigrated(bytes32,address,address,uint256,uint256,uint256)": {
        "details": "triggered when funds are migrated"
      },
      "LatestPoolCollectionReplaced(uint16,address,address)": {
        "details": "triggered when the latest pool collection, for a specific type, is replaced"
      },
      "NetworkFeesWithdrawn(address,address,uint256)": {
        "details": "triggered when network fees are withdrawn"
      },
      "PoolAdded(address,address)": {
        "details": "triggered when a new pool is added"
      },
      "PoolCollectionAdded(uint16,address)": {
        "details": "triggered when a new pool collection is added"
      },
      "PoolCollectionRemoved(uint16,address)": {
        "details": "triggered when an existing pool collection is removed"
      },
      "TokensTraded(bytes32,address,address,uint256,uint256,uint256,uint256,uint256,address)": {
        "details": "triggered on a successful trade"
      }
    },
    "kind": "dev",
    "methods": {
      "addPoolCollection(address)": {
        "details": "adds new pool collection to the network requirements: - the caller must be the admin of the contract"
      },
      "cancelWithdrawal(uint256)": {
        "details": "cancels a withdrawal request, and returns the number of pool token amount associated with the withdrawal request requirements: - the caller must have already initiated a withdrawal and received the specified id"
      },
      "collectionByPool(address)": {
        "details": "returns the respective pool collection for the provided pool"
      },
      "constructor": {
        "details": "a \"virtual\" constructor that is only used to set immutable state variables"
      },
      "createPool(uint16,address)": {
        "details": "creates a new pool requirements: - the pool doesn't already exist"
      },
      "createPools(uint16,address[])": {
        "details": "creates new pools requirements: - none of the pools already exists"
      },
      "deposit(address,uint256)": {
        "details": "deposits liquidity for the current provider and returns the respective pool token amount requirements: - the caller must have approved the network to transfer the tokens on its behalf (except for in the   native token case)"
      },
      "depositFor(address,address,uint256)": {
        "details": "deposits liquidity for the specified provider and returns the respective pool token amount requirements: - the caller must have approved the network to transfer the tokens on its behalf (except for in the   native token case)"
      },
      "depositForPermitted(address,address,uint256,uint256,uint8,bytes32,bytes32)": {
        "details": "deposits liquidity for the specified provider by providing an EIP712 typed signature for an EIP2612 permit request and returns the respective pool token amount requirements: - the caller must have provided a valid and unused EIP712 typed signature"
      },
      "depositPermitted(address,uint256,uint256,uint8,bytes32,bytes32)": {
        "details": "deposits liquidity by providing an EIP712 typed signature for an EIP2612 permit request and returns the respective pool token amount requirements: - the caller must have provided a valid and unused EIP712 typed signature"
      },
      "flashLoan(address,uint256,address,bytes)": {
        "details": "provides a flash-loan requirements: - the recipient's callback must return *at least* the borrowed amount and fee back to the specified return address"
      },
      "getRoleAdmin(bytes32)": {
        "details": "Returns the admin role that controls `role`. See {grantRole} and {revokeRole}. To change a role's admin, use {_setRoleAdmin}."
      },
      "getRoleMember(bytes32,uint256)": {
        "details": "Returns one of the accounts that have `role`. `index` must be a value between 0 and {getRoleMemberCount}, non-inclusive. Role bearers are not sorted in any particular way, and their ordering may change at any point. WARNING: When using {getRoleMember} and {getRoleMemberCount}, make sure you perform all queries on the same block. See the following https://forum.openzeppelin.com/t/iterating-over-elements-on-enumerableset-in-openzeppelin-contracts/2296[forum post] for more information."
      },
      "getRoleMemberCount(bytes32)": {
        "details": "Returns the number of accounts that have `role`. Can be used together with {getRoleMember} to enumerate all bearers of a role."
      },
      "grantRole(bytes32,address)": {
        "details": "Grants `role` to `account`. If `account` had not been already granted `role`, emits a {RoleGranted} event. Requirements: - the caller must have ``role``'s admin role."
      },
      "hasRole(bytes32,address)": {
        "details": "Returns `true` if `account` has been granted `role`."
      },
      "initWithdrawal(address,uint256)": {
        "details": "initiates liquidity withdrawal requirements: - the caller must have approved the contract to transfer the pool token amount on its behalf"
      },
      "initWithdrawalPermitted(address,uint256,uint256,uint8,bytes32,bytes32)": {
        "details": "initiates liquidity withdrawal by providing an EIP712 typed signature for an EIP2612 permit request requirements: - the caller must have provided a valid and unused EIP712 typed signature"
      },
      "initialize(address,address,address)": {
        "details": "fully initializes the contract and its parents"
      },
      "isPaused()": {
        "details": "returns whether the network is currently paused"
      },
      "isPoolValid(address)": {
        "details": "returns whether the pool is valid"
      },
      "latestPoolCollection(uint16)": {
        "details": "returns the most recent collection that was added to the pool collections set for a specific type"
      },
      "liquidityPools()": {
        "details": "returns the set of all liquidity pools"
      },
      "migrateLiquidity(address,address,uint256,uint256,uint256)": {
        "details": "deposits liquidity during a migration"
      },
      "migratePools(address[])": {
        "details": "migrates a list of pools between pool collections notes: - invalid or incompatible pools will be skipped gracefully"
      },
      "pause()": {
        "details": "pauses the network requirements: - the caller must have the ROLE_EMERGENCY_STOPPER privilege"
      },
      "paused()": {
        "details": "Returns true if the contract is paused, and false otherwise."
      },
      "pendingNetworkFeeAmount()": {
        "details": "returns the pending network fee amount to be burned by the vortex"
      },
      "poolCollections()": {
        "details": "returns the set of all valid pool collections"
      },
      "postUpgrade(bytes)": {
        "details": "performs post-upgrade initialization requirements: - this must can be called only once per-upgrade"
      },
      "removePoolCollection(address,address)": {
        "details": "removes an existing pool collection from the pool requirements: - the caller must be the admin of the contract"
      },
      "renounceRole(bytes32,address)": {
        "details": "Revokes `role` from the calling account. Roles are often managed via {grantRole} and {revokeRole}: this function's purpose is to provide a mechanism for accounts to lose their privileges if they are compromised (such as when a trusted device is misplaced). If the calling account had been revoked `role`, emits a {RoleRevoked} event. Requirements: - the caller must be `account`."
      },
      "resume()": {
        "details": "resumes the network requirements: - the caller must have the ROLE_EMERGENCY_STOPPER privilege"
      },
      "revokeRole(bytes32,address)": {
        "details": "Revokes `role` from `account`. If `account` had been granted `role`, emits a {RoleRevoked} event. Requirements: - the caller must have ``role``'s admin role."
      },
      "roleAdmin()": {
        "details": "returns the admin role"
      },
      "roleEmergencyStopper()": {
        "details": "returns the emergency stopper role"
      },
      "roleMigrationManager()": {
        "details": "returns the migration manager role"
      },
      "roleNetworkFeeManager()": {
        "details": "returns the network fee manager role"
      },
      "setLatestPoolCollection(address)": {
        "details": "sets the new latest pool collection for the given type requirements: - the caller must be the admin of the contract"
      },
      "supportsInterface(bytes4)": {
        "details": "See {IERC165-supportsInterface}."
      },
      "tradeBySourceAmount(address,address,uint256,uint256,uint256,address)": {
        "details": "performs a trade by providing the input source amount, and returns the trade target amount requirements: - the caller must have approved the network to transfer the source tokens on its behalf (except for in the   native token case)"
      },
      "tradeBySourceAmountPermitted(address,address,uint256,uint256,uint256,address,uint8,bytes32,bytes32)": {
        "details": "performs a trade by providing the input source amount and providing an EIP712 typed signature for an EIP2612 permit request, and returns the trade target amount requirements: - the caller must have provided a valid and unused EIP712 typed signature"
      },
      "tradeByTargetAmount(address,address,uint256,uint256,uint256,address)": {
        "details": "performs a trade by providing the output target amount, and returns the trade source amount requirements: - the caller must have approved the network to transfer the source tokens on its behalf (except for in the   native token case)"
      },
      "tradeByTargetAmountPermitted(address,address,uint256,uint256,uint256,address,uint8,bytes32,bytes32)": {
        "details": "performs a trade by providing the output target amount and providing an EIP712 typed signature for an EIP2612 permit request and returns the target amount and fee, and returns the trade source amount requirements: - the caller must have provided a valid and unused EIP712 typed signature"
      },
      "withdraw(uint256)": {
        "details": "withdraws liquidity and returns the withdrawn amount requirements: - the provider must have already initiated a withdrawal and received the specified id - the specified withdrawal request is eligible for completion - the provider must have approved the network to transfer VBNT amount on its behalf, when withdrawing BNT liquidity"
      },
      "withdrawNetworkFees(address)": {
        "details": "withdraws pending network fees, and returns the amount of fees withdrawn requirements: - the caller must have the ROLE_NETWORK_FEE_MANAGER privilege"
      }
    },
    "version": 1
  },
  "userdoc": {
    "kind": "user",
    "methods": {},
    "version": 1
  },
  "storageLayout": {
    "storage": [
      {
        "astId": 644,
        "contract": "contracts/network/BancorNetwork.sol:BancorNetwork",
        "label": "_initialized",
        "offset": 0,
        "slot": "0",
        "type": "t_bool"
      },
      {
        "astId": 647,
        "contract": "contracts/network/BancorNetwork.sol:BancorNetwork",
        "label": "_initializing",
        "offset": 1,
        "slot": "0",
        "type": "t_bool"
      },
      {
        "astId": 1165,
        "contract": "contracts/network/BancorNetwork.sol:BancorNetwork",
        "label": "__gap",
        "offset": 0,
        "slot": "1",
        "type": "t_array(t_uint256)50_storage"
      },
      {
        "astId": 1412,
        "contract": "contracts/network/BancorNetwork.sol:BancorNetwork",
        "label": "__gap",
        "offset": 0,
        "slot": "51",
        "type": "t_array(t_uint256)50_storage"
      },
      {
        "astId": 250,
        "contract": "contracts/network/BancorNetwork.sol:BancorNetwork",
        "label": "_roles",
        "offset": 0,
        "slot": "101",
        "type": "t_mapping(t_bytes32,t_struct(RoleData)245_storage)"
      },
      {
        "astId": 538,
        "contract": "contracts/network/BancorNetwork.sol:BancorNetwork",
        "label": "__gap",
        "offset": 0,
        "slot": "102",
        "type": "t_array(t_uint256)49_storage"
      },
      {
        "astId": 99,
        "contract": "contracts/network/BancorNetwork.sol:BancorNetwork",
        "label": "_roleMembers",
        "offset": 0,
        "slot": "151",
        "type": "t_mapping(t_bytes32,t_struct(AddressSet)1737_storage)"
      },
      {
        "astId": 209,
        "contract": "contracts/network/BancorNetwork.sol:BancorNetwork",
        "label": "__gap",
        "offset": 0,
        "slot": "152",
        "type": "t_array(t_uint256)49_storage"
      },
      {
        "astId": 31400,
        "contract": "contracts/network/BancorNetwork.sol:BancorNetwork",
        "label": "_initializations",
        "offset": 0,
        "slot": "201",
        "type": "t_uint16"
      },
      {
        "astId": 31406,
        "contract": "contracts/network/BancorNetwork.sol:BancorNetwork",
        "label": "__gap",
        "offset": 0,
        "slot": "202",
        "type": "t_array(t_uint256)49_storage"
      },
      {
        "astId": 836,
        "contract": "contracts/network/BancorNetwork.sol:BancorNetwork",
        "label": "_status",
        "offset": 0,
        "slot": "251",
        "type": "t_uint256"
      },
      {
        "astId": 880,
        "contract": "contracts/network/BancorNetwork.sol:BancorNetwork",
        "label": "__gap",
        "offset": 0,
        "slot": "252",
        "type": "t_array(t_uint256)49_storage"
      },
      {
        "astId": 732,
        "contract": "contracts/network/BancorNetwork.sol:BancorNetwork",
        "label": "_paused",
        "offset": 0,
        "slot": "301",
        "type": "t_bool"
      },
      {
        "astId": 821,
        "contract": "contracts/network/BancorNetwork.sol:BancorNetwork",
        "label": "__gap",
        "offset": 0,
        "slot": "302",
        "type": "t_array(t_uint256)49_storage"
      },
      {
        "astId": 11741,
        "contract": "contracts/network/BancorNetwork.sol:BancorNetwork",
        "label": "_bntPool",
        "offset": 0,
        "slot": "351",
        "type": "t_contract(IBNTPool)24862"
      },
      {
        "astId": 11744,
        "contract": "contracts/network/BancorNetwork.sol:BancorNetwork",
        "label": "_pendingWithdrawals",
        "offset": 0,
        "slot": "352",
        "type": "t_contract(IPendingWithdrawals)18425"
      },
      {
        "astId": 11747,
        "contract": "contracts/network/BancorNetwork.sol:BancorNetwork",
        "label": "_poolMigrator",
        "offset": 0,
        "slot": "353",
        "type": "t_contract(IPoolMigrator)25198"
      },
      {
        "astId": 11750,
        "contract": "contracts/network/BancorNetwork.sol:BancorNetwork",
        "label": "_poolCollections",
        "offset": 0,
        "slot": "354",
        "type": "t_struct(AddressSet)1737_storage"
      },
      {
        "astId": 11755,
        "contract": "contracts/network/BancorNetwork.sol:BancorNetwork",
        "label": "_latestPoolCollections",
        "offset": 0,
        "slot": "356",
        "type": "t_mapping(t_uint16,t_contract(IPoolCollection)25176)"
      },
      {
        "astId": 11758,
        "contract": "contracts/network/BancorNetwork.sol:BancorNetwork",
        "label": "_liquidityPools",
        "offset": 0,
        "slot": "357",
        "type": "t_struct(AddressSet)1737_storage"
      },
      {
        "astId": 11764,
        "contract": "contracts/network/BancorNetwork.sol:BancorNetwork",
        "label": "_collectionByPool",
        "offset": 0,
        "slot": "359",
        "type": "t_mapping(t_contract(Token)29307,t_contract(IPoolCollection)25176)"
      },
      {
        "astId": 11766,
        "contract": "contracts/network/BancorNetwork.sol:BancorNetwork",
        "label": "_pendingNetworkFeeAmount",
        "offset": 0,
        "slot": "360",
        "type": "t_uint256"
      },
      {
        "astId": 11772,
        "contract": "contracts/network/BancorNetwork.sol:BancorNetwork",
        "label": "__gap",
        "offset": 0,
        "slot": "361",
        "type": "t_array(t_uint256)40_storage"
      }
    ],
    "types": {
      "t_address": {
        "encoding": "inplace",
        "label": "address",
        "numberOfBytes": "20"
      },
      "t_array(t_bytes32)dyn_storage": {
        "base": "t_bytes32",
        "encoding": "dynamic_array",
        "label": "bytes32[]",
        "numberOfBytes": "32"
      },
      "t_array(t_uint256)40_storage": {
        "base": "t_uint256",
        "encoding": "inplace",
        "label": "uint256[40]",
        "numberOfBytes": "1280"
      },
      "t_array(t_uint256)49_storage": {
        "base": "t_uint256",
        "encoding": "inplace",
        "label": "uint256[49]",
        "numberOfBytes": "1568"
      },
      "t_array(t_uint256)50_storage": {
        "base": "t_uint256",
        "encoding": "inplace",
        "label": "uint256[50]",
        "numberOfBytes": "1600"
      },
      "t_bool": {
        "encoding": "inplace",
        "label": "bool",
        "numberOfBytes": "1"
      },
      "t_bytes32": {
        "encoding": "inplace",
        "label": "bytes32",
        "numberOfBytes": "32"
      },
      "t_contract(IBNTPool)24862": {
        "encoding": "inplace",
        "label": "contract IBNTPool",
        "numberOfBytes": "20"
      },
      "t_contract(IPendingWithdrawals)18425": {
        "encoding": "inplace",
        "label": "contract IPendingWithdrawals",
        "numberOfBytes": "20"
      },
      "t_contract(IPoolCollection)25176": {
        "encoding": "inplace",
        "label": "contract IPoolCollection",
        "numberOfBytes": "20"
      },
      "t_contract(IPoolMigrator)25198": {
        "encoding": "inplace",
        "label": "contract IPoolMigrator",
        "numberOfBytes": "20"
      },
      "t_contract(Token)29307": {
        "encoding": "inplace",
        "label": "contract Token",
        "numberOfBytes": "20"
      },
      "t_mapping(t_address,t_bool)": {
        "encoding": "mapping",
        "key": "t_address",
        "label": "mapping(address => bool)",
        "numberOfBytes": "32",
        "value": "t_bool"
      },
      "t_mapping(t_bytes32,t_struct(AddressSet)1737_storage)": {
        "encoding": "mapping",
        "key": "t_bytes32",
        "label": "mapping(bytes32 => struct EnumerableSetUpgradeable.AddressSet)",
        "numberOfBytes": "32",
        "value": "t_struct(AddressSet)1737_storage"
      },
      "t_mapping(t_bytes32,t_struct(RoleData)245_storage)": {
        "encoding": "mapping",
        "key": "t_bytes32",
        "label": "mapping(bytes32 => struct AccessControlUpgradeable.RoleData)",
        "numberOfBytes": "32",
        "value": "t_struct(RoleData)245_storage"
      },
      "t_mapping(t_bytes32,t_uint256)": {
        "encoding": "mapping",
        "key": "t_bytes32",
        "label": "mapping(bytes32 => uint256)",
        "numberOfBytes": "32",
        "value": "t_uint256"
      },
      "t_mapping(t_contract(Token)29307,t_contract(IPoolCollection)25176)": {
        "encoding": "mapping",
        "key": "t_contract(Token)29307",
        "label": "mapping(contract Token => contract IPoolCollection)",
        "numberOfBytes": "32",
        "value": "t_contract(IPoolCollection)25176"
      },
      "t_mapping(t_uint16,t_contract(IPoolCollection)25176)": {
        "encoding": "mapping",
        "key": "t_uint16",
        "label": "mapping(uint16 => contract IPoolCollection)",
        "numberOfBytes": "32",
        "value": "t_contract(IPoolCollection)25176"
      },
      "t_struct(AddressSet)1737_storage": {
        "encoding": "inplace",
        "label": "struct EnumerableSetUpgradeable.AddressSet",
        "members": [
          {
            "astId": 1736,
            "contract": "contracts/network/BancorNetwork.sol:BancorNetwork",
            "label": "_inner",
            "offset": 0,
            "slot": "0",
            "type": "t_struct(Set)1436_storage"
          }
        ],
        "numberOfBytes": "64"
      },
      "t_struct(RoleData)245_storage": {
        "encoding": "inplace",
        "label": "struct AccessControlUpgradeable.RoleData",
        "members": [
          {
            "astId": 242,
            "contract": "contracts/network/BancorNetwork.sol:BancorNetwork",
            "label": "members",
            "offset": 0,
            "slot": "0",
            "type": "t_mapping(t_address,t_bool)"
          },
          {
            "astId": 244,
            "contract": "contracts/network/BancorNetwork.sol:BancorNetwork",
            "label": "adminRole",
            "offset": 0,
            "slot": "1",
            "type": "t_bytes32"
          }
        ],
        "numberOfBytes": "64"
      },
      "t_struct(Set)1436_storage": {
        "encoding": "inplace",
        "label": "struct EnumerableSetUpgradeable.Set",
        "members": [
          {
            "astId": 1431,
            "contract": "contracts/network/BancorNetwork.sol:BancorNetwork",
            "label": "_values",
            "offset": 0,
            "slot": "0",
            "type": "t_array(t_bytes32)dyn_storage"
          },
          {
            "astId": 1435,
            "contract": "contracts/network/BancorNetwork.sol:BancorNetwork",
            "label": "_indexes",
            "offset": 0,
            "slot": "1",
            "type": "t_mapping(t_bytes32,t_uint256)"
          }
        ],
        "numberOfBytes": "64"
      },
      "t_uint16": {
        "encoding": "inplace",
        "label": "uint16",
        "numberOfBytes": "2"
      },
      "t_uint256": {
        "encoding": "inplace",
        "label": "uint256",
        "numberOfBytes": "32"
      }
    }
  }
}