{
  "address": "0x751a3E5eCd4eCD2DE4AaCE6E55ae707A9ca10255",
  "abi": [
    {
      "inputs": [
        {
          "internalType": "contract ITokenGovernance",
          "name": "initBNTGovernance",
          "type": "address"
        },
        {
          "internalType": "contract ITokenGovernance",
          "name": "initVBNTGovernance",
          "type": "address"
        },
        {
          "internalType": "contract INetworkSettings",
          "name": "initNetworkSettings",
          "type": "address"
        },
        {
          "internalType": "contract IMasterVault",
          "name": "initMasterVault",
          "type": "address"
        },
        {
          "internalType": "contract IExternalProtectionVault",
          "name": "initExternalProtectionVault",
          "type": "address"
        },
        {
          "internalType": "contract IPoolToken",
          "name": "initBNTPoolToken",
          "type": "address"
        }
      ],
      "stateMutability": "nonpayable",
      "type": "constructor"
    },
    {
      "inputs": [],
      "name": "AccessDenied",
      "type": "error"
    },
    {
      "inputs": [],
      "name": "AlreadyExists",
      "type": "error"
    },
    {
      "inputs": [],
      "name": "AlreadyInitialized",
      "type": "error"
    },
    {
      "inputs": [],
      "name": "DeadlineExpired",
      "type": "error"
    },
    {
      "inputs": [],
      "name": "DepositingDisabled",
      "type": "error"
    },
    {
      "inputs": [],
      "name": "DoesNotExist",
      "type": "error"
    },
    {
      "inputs": [],
      "name": "InsufficientFlashLoanReturn",
      "type": "error"
    },
    {
      "inputs": [],
      "name": "InvalidAddress",
      "type": "error"
    },
    {
      "inputs": [],
      "name": "InvalidPool",
      "type": "error"
    },
    {
      "inputs": [],
      "name": "InvalidToken",
      "type": "error"
    },
    {
      "inputs": [],
      "name": "NativeTokenAmountMismatch",
      "type": "error"
    },
    {
      "inputs": [],
      "name": "NotEmpty",
      "type": "error"
    },
    {
      "inputs": [],
      "name": "NotWhitelisted",
      "type": "error"
    },
    {
      "inputs": [],
      "name": "Overflow",
      "type": "error"
    },
    {
      "inputs": [],
      "name": "ZeroValue",
      "type": "error"
    },
    {
      "anonymous": false,
      "inputs": [
        {
          "indexed": true,
          "internalType": "contract Token",
          "name": "token",
          "type": "address"
        },
        {
          "indexed": true,
          "internalType": "address",
          "name": "borrower",
          "type": "address"
        },
        {
          "indexed": false,
          "internalType": "uint256",
          "name": "amount",
          "type": "uint256"
        },
        {
          "indexed": false,
          "internalType": "uint256",
          "name": "feeAmount",
          "type": "uint256"
        }
      ],
      "name": "FlashLoanCompleted",
      "type": "event"
    },
    {
      "anonymous": false,
      "inputs": [
        {
          "indexed": true,
          "internalType": "bytes32",
          "name": "contextId",
          "type": "bytes32"
        },
        {
          "indexed": true,
          "internalType": "contract Token",
          "name": "token",
          "type": "address"
        },
        {
          "indexed": true,
          "internalType": "address",
          "name": "provider",
          "type": "address"
        },
        {
          "indexed": false,
          "internalType": "uint256",
          "name": "amount",
          "type": "uint256"
        },
        {
          "indexed": false,
          "internalType": "uint256",
          "name": "availableAmount",
          "type": "uint256"
        },
        {
          "indexed": false,
          "internalType": "uint256",
          "name": "originalAmount",
          "type": "uint256"
        }
      ],
      "name": "FundsMigrated",
      "type": "event"
    },
    {
      "anonymous": false,
      "inputs": [
        {
          "indexed": true,
          "internalType": "address",
          "name": "caller",
          "type": "address"
        },
        {
          "indexed": true,
          "internalType": "address",
          "name": "recipient",
          "type": "address"
        },
        {
          "indexed": false,
          "internalType": "uint256",
          "name": "amount",
          "type": "uint256"
        }
      ],
      "name": "NetworkFeesWithdrawn",
      "type": "event"
    },
    {
      "anonymous": false,
      "inputs": [
        {
          "indexed": false,
          "internalType": "address",
          "name": "account",
          "type": "address"
        }
      ],
      "name": "Paused",
      "type": "event"
    },
    {
      "anonymous": false,
      "inputs": [
        {
          "indexed": true,
          "internalType": "contract Token",
          "name": "pool",
          "type": "address"
        },
        {
          "indexed": true,
          "internalType": "contract IPoolCollection",
          "name": "poolCollection",
          "type": "address"
        }
      ],
      "name": "PoolAdded",
      "type": "event"
    },
    {
      "anonymous": false,
      "inputs": [
        {
          "indexed": true,
          "internalType": "uint16",
          "name": "poolType",
          "type": "uint16"
        },
        {
          "indexed": true,
          "internalType": "contract IPoolCollection",
          "name": "poolCollection",
          "type": "address"
        }
      ],
      "name": "PoolCollectionAdded",
      "type": "event"
    },
    {
      "anonymous": false,
      "inputs": [
        {
          "indexed": true,
          "internalType": "uint16",
          "name": "poolType",
          "type": "uint16"
        },
        {
          "indexed": true,
          "internalType": "contract IPoolCollection",
          "name": "poolCollection",
          "type": "address"
        }
      ],
      "name": "PoolCollectionRemoved",
      "type": "event"
    },
    {
      "anonymous": false,
      "inputs": [
        {
          "indexed": true,
          "internalType": "contract Token",
          "name": "pool",
          "type": "address"
        },
        {
          "indexed": true,
          "internalType": "contract IPoolCollection",
          "name": "poolCollection",
          "type": "address"
        }
      ],
      "name": "PoolCreated",
      "type": "event"
    },
    {
      "anonymous": false,
      "inputs": [
        {
          "indexed": true,
          "internalType": "contract Token",
          "name": "pool",
          "type": "address"
        },
        {
          "indexed": true,
          "internalType": "contract IPoolCollection",
          "name": "poolCollection",
          "type": "address"
        }
      ],
      "name": "PoolRemoved",
      "type": "event"
    },
    {
      "anonymous": false,
      "inputs": [
        {
          "indexed": true,
          "internalType": "bytes32",
          "name": "role",
          "type": "bytes32"
        },
        {
          "indexed": true,
          "internalType": "bytes32",
          "name": "previousAdminRole",
          "type": "bytes32"
        },
        {
          "indexed": true,
          "internalType": "bytes32",
          "name": "newAdminRole",
          "type": "bytes32"
        }
      ],
      "name": "RoleAdminChanged",
      "type": "event"
    },
    {
      "anonymous": false,
      "inputs": [
        {
          "indexed": true,
          "internalType": "bytes32",
          "name": "role",
          "type": "bytes32"
        },
        {
          "indexed": true,
          "internalType": "address",
          "name": "account",
          "type": "address"
        },
        {
          "indexed": true,
          "internalType": "address",
          "name": "sender",
          "type": "address"
        }
      ],
      "name": "RoleGranted",
      "type": "event"
    },
    {
      "anonymous": false,
      "inputs": [
        {
          "indexed": true,
          "internalType": "bytes32",
          "name": "role",
          "type": "bytes32"
        },
        {
          "indexed": true,
          "internalType": "address",
          "name": "account",
          "type": "address"
        },
        {
          "indexed": true,
          "internalType": "address",
          "name": "sender",
          "type": "address"
        }
      ],
      "name": "RoleRevoked",
      "type": "event"
    },
    {
      "anonymous": false,
      "inputs": [
        {
          "indexed": true,
          "internalType": "bytes32",
          "name": "contextId",
          "type": "bytes32"
        },
        {
          "indexed": true,
          "internalType": "contract Token",
          "name": "sourceToken",
          "type": "address"
        },
        {
          "indexed": true,
          "internalType": "contract Token",
          "name": "targetToken",
          "type": "address"
        },
        {
          "indexed": false,
          "internalType": "uint256",
          "name": "sourceAmount",
          "type": "uint256"
        },
        {
          "indexed": false,
          "internalType": "uint256",
          "name": "targetAmount",
          "type": "uint256"
        },
        {
          "indexed": false,
          "internalType": "uint256",
          "name": "bntAmount",
          "type": "uint256"
        },
        {
          "indexed": false,
          "internalType": "uint256",
          "name": "targetFeeAmount",
          "type": "uint256"
        },
        {
          "indexed": false,
          "internalType": "uint256",
          "name": "bntFeeAmount",
          "type": "uint256"
        },
        {
          "indexed": false,
          "internalType": "address",
          "name": "trader",
          "type": "address"
        }
      ],
      "name": "TokensTraded",
      "type": "event"
    },
    {
      "anonymous": false,
      "inputs": [
        {
          "indexed": false,
          "internalType": "address",
          "name": "account",
          "type": "address"
        }
      ],
      "name": "Unpaused",
      "type": "event"
    },
    {
      "inputs": [],
      "name": "DEFAULT_ADMIN_ROLE",
      "outputs": [
        {
          "internalType": "bytes32",
          "name": "",
          "type": "bytes32"
        }
      ],
      "stateMutability": "view",
      "type": "function"
    },
    {
      "inputs": [
        {
          "internalType": "uint256",
          "name": "id",
          "type": "uint256"
        }
      ],
      "name": "cancelWithdrawal",
      "outputs": [
        {
          "internalType": "uint256",
          "name": "",
          "type": "uint256"
        }
      ],
      "stateMutability": "nonpayable",
      "type": "function"
    },
    {
      "inputs": [
        {
          "internalType": "contract Token",
          "name": "pool",
          "type": "address"
        }
      ],
      "name": "collectionByPool",
      "outputs": [
        {
          "internalType": "contract IPoolCollection",
          "name": "",
          "type": "address"
        }
      ],
      "stateMutability": "view",
      "type": "function"
    },
    {
      "inputs": [
        {
          "internalType": "contract Token[]",
          "name": "tokens",
          "type": "address[]"
        },
        {
          "internalType": "contract IPoolCollection",
          "name": "poolCollection",
          "type": "address"
        }
      ],
      "name": "createPools",
      "outputs": [],
      "stateMutability": "nonpayable",
      "type": "function"
    },
    {
      "inputs": [
        {
          "internalType": "contract Token",
          "name": "pool",
          "type": "address"
        },
        {
          "internalType": "uint256",
          "name": "tokenAmount",
          "type": "uint256"
        }
      ],
      "name": "deposit",
      "outputs": [
        {
          "internalType": "uint256",
          "name": "",
          "type": "uint256"
        }
      ],
      "stateMutability": "payable",
      "type": "function"
    },
    {
      "inputs": [
        {
          "internalType": "address",
          "name": "provider",
          "type": "address"
        },
        {
          "internalType": "contract Token",
          "name": "pool",
          "type": "address"
        },
        {
          "internalType": "uint256",
          "name": "tokenAmount",
          "type": "uint256"
        }
      ],
      "name": "depositFor",
      "outputs": [
        {
          "internalType": "uint256",
          "name": "",
          "type": "uint256"
        }
      ],
      "stateMutability": "payable",
      "type": "function"
    },
    {
      "inputs": [],
      "name": "depositingEnabled",
      "outputs": [
        {
          "internalType": "bool",
          "name": "",
          "type": "bool"
        }
      ],
      "stateMutability": "view",
      "type": "function"
    },
    {
      "inputs": [
        {
          "internalType": "bool",
          "name": "status",
          "type": "bool"
        }
      ],
      "name": "enableDepositing",
      "outputs": [],
      "stateMutability": "nonpayable",
      "type": "function"
    },
    {
      "inputs": [
        {
          "internalType": "contract Token",
          "name": "token",
          "type": "address"
        },
        {
          "internalType": "uint256",
          "name": "amount",
          "type": "uint256"
        },
        {
          "internalType": "contract IFlashLoanRecipient",
          "name": "recipient",
          "type": "address"
        },
        {
          "internalType": "bytes",
          "name": "data",
          "type": "bytes"
        }
      ],
      "name": "flashLoan",
      "outputs": [],
      "stateMutability": "nonpayable",
      "type": "function"
    },
    {
      "inputs": [
        {
          "internalType": "bytes32",
          "name": "role",
          "type": "bytes32"
        }
      ],
      "name": "getRoleAdmin",
      "outputs": [
        {
          "internalType": "bytes32",
          "name": "",
          "type": "bytes32"
        }
      ],
      "stateMutability": "view",
      "type": "function"
    },
    {
      "inputs": [
        {
          "internalType": "bytes32",
          "name": "role",
          "type": "bytes32"
        },
        {
          "internalType": "uint256",
          "name": "index",
          "type": "uint256"
        }
      ],
      "name": "getRoleMember",
      "outputs": [
        {
          "internalType": "address",
          "name": "",
          "type": "address"
        }
      ],
      "stateMutability": "view",
      "type": "function"
    },
    {
      "inputs": [
        {
          "internalType": "bytes32",
          "name": "role",
          "type": "bytes32"
        }
      ],
      "name": "getRoleMemberCount",
      "outputs": [
        {
          "internalType": "uint256",
          "name": "",
          "type": "uint256"
        }
      ],
      "stateMutability": "view",
      "type": "function"
    },
    {
      "inputs": [
        {
          "internalType": "bytes32",
          "name": "role",
          "type": "bytes32"
        },
        {
          "internalType": "address",
          "name": "account",
          "type": "address"
        }
      ],
      "name": "grantRole",
      "outputs": [],
      "stateMutability": "nonpayable",
      "type": "function"
    },
    {
      "inputs": [
        {
          "internalType": "bytes32",
          "name": "role",
          "type": "bytes32"
        },
        {
          "internalType": "address",
          "name": "account",
          "type": "address"
        }
      ],
      "name": "hasRole",
      "outputs": [
        {
          "internalType": "bool",
          "name": "",
          "type": "bool"
        }
      ],
      "stateMutability": "view",
      "type": "function"
    },
    {
      "inputs": [
        {
          "internalType": "contract IPoolToken",
          "name": "poolToken",
          "type": "address"
        },
        {
          "internalType": "uint256",
          "name": "poolTokenAmount",
          "type": "uint256"
        }
      ],
      "name": "initWithdrawal",
      "outputs": [
        {
          "internalType": "uint256",
          "name": "",
          "type": "uint256"
        }
      ],
      "stateMutability": "nonpayable",
      "type": "function"
    },
    {
      "inputs": [
        {
          "internalType": "contract IBNTPool",
          "name": "initBNTPool",
          "type": "address"
        },
        {
          "internalType": "contract IPendingWithdrawals",
          "name": "initPendingWithdrawals",
          "type": "address"
        },
        {
          "internalType": "contract IPoolMigrator",
          "name": "initPoolMigrator",
          "type": "address"
        }
      ],
      "name": "initialize",
      "outputs": [],
      "stateMutability": "nonpayable",
      "type": "function"
    },
    {
      "inputs": [],
      "name": "liquidityPools",
      "outputs": [
        {
          "internalType": "contract Token[]",
          "name": "",
          "type": "address[]"
        }
      ],
      "stateMutability": "view",
      "type": "function"
    },
    {
      "inputs": [
        {
          "internalType": "contract Token",
          "name": "token",
          "type": "address"
        },
        {
          "internalType": "address",
          "name": "provider",
          "type": "address"
        },
        {
          "internalType": "uint256",
          "name": "amount",
          "type": "uint256"
        },
        {
          "internalType": "uint256",
          "name": "availableAmount",
          "type": "uint256"
        },
        {
          "internalType": "uint256",
          "name": "originalAmount",
          "type": "uint256"
        }
      ],
      "name": "migrateLiquidity",
      "outputs": [],
      "stateMutability": "payable",
      "type": "function"
    },
    {
      "inputs": [
        {
          "internalType": "contract Token[]",
          "name": "pools",
          "type": "address[]"
        },
        {
          "internalType": "contract IPoolCollection",
          "name": "newPoolCollection",
          "type": "address"
        }
      ],
      "name": "migratePools",
      "outputs": [],
      "stateMutability": "nonpayable",
      "type": "function"
    },
    {
      "inputs": [],
      "name": "pause",
      "outputs": [],
      "stateMutability": "nonpayable",
      "type": "function"
    },
    {
      "inputs": [],
      "name": "paused",
      "outputs": [
        {
          "internalType": "bool",
          "name": "",
          "type": "bool"
        }
      ],
      "stateMutability": "view",
      "type": "function"
    },
    {
      "inputs": [],
      "name": "pendingNetworkFeeAmount",
      "outputs": [
        {
          "internalType": "uint256",
          "name": "",
          "type": "uint256"
        }
      ],
      "stateMutability": "view",
      "type": "function"
    },
    {
      "inputs": [],
      "name": "poolCollections",
      "outputs": [
        {
          "internalType": "contract IPoolCollection[]",
          "name": "",
          "type": "address[]"
        }
      ],
      "stateMutability": "view",
      "type": "function"
    },
    {
      "inputs": [
        {
          "internalType": "bytes",
          "name": "data",
          "type": "bytes"
        }
      ],
      "name": "postUpgrade",
      "outputs": [],
      "stateMutability": "nonpayable",
      "type": "function"
    },
    {
      "inputs": [
        {
          "internalType": "contract IPoolCollection",
          "name": "newPoolCollection",
          "type": "address"
        }
      ],
      "name": "registerPoolCollection",
      "outputs": [],
      "stateMutability": "nonpayable",
      "type": "function"
    },
    {
      "inputs": [
        {
          "internalType": "bytes32",
          "name": "role",
          "type": "bytes32"
        },
        {
          "internalType": "address",
          "name": "account",
          "type": "address"
        }
      ],
      "name": "renounceRole",
      "outputs": [],
      "stateMutability": "nonpayable",
      "type": "function"
    },
    {
      "inputs": [],
      "name": "resume",
      "outputs": [],
      "stateMutability": "nonpayable",
      "type": "function"
    },
    {
      "inputs": [
        {
          "internalType": "bytes32",
          "name": "role",
          "type": "bytes32"
        },
        {
          "internalType": "address",
          "name": "account",
          "type": "address"
        }
      ],
      "name": "revokeRole",
      "outputs": [],
      "stateMutability": "nonpayable",
      "type": "function"
    },
    {
      "inputs": [],
      "name": "roleAdmin",
      "outputs": [
        {
          "internalType": "bytes32",
          "name": "",
          "type": "bytes32"
        }
      ],
      "stateMutability": "pure",
      "type": "function"
    },
    {
      "inputs": [],
      "name": "roleEmergencyStopper",
      "outputs": [
        {
          "internalType": "bytes32",
          "name": "",
          "type": "bytes32"
        }
      ],
      "stateMutability": "pure",
      "type": "function"
    },
    {
      "inputs": [],
      "name": "roleMigrationManager",
      "outputs": [
        {
          "internalType": "bytes32",
          "name": "",
          "type": "bytes32"
        }
      ],
      "stateMutability": "pure",
      "type": "function"
    },
    {
      "inputs": [],
      "name": "roleNetworkFeeManager",
      "outputs": [
        {
          "internalType": "bytes32",
          "name": "",
          "type": "bytes32"
        }
      ],
      "stateMutability": "pure",
      "type": "function"
    },
    {
      "inputs": [
        {
          "internalType": "bytes4",
          "name": "interfaceId",
          "type": "bytes4"
        }
      ],
      "name": "supportsInterface",
      "outputs": [
        {
          "internalType": "bool",
          "name": "",
          "type": "bool"
        }
      ],
      "stateMutability": "view",
      "type": "function"
    },
    {
      "inputs": [
        {
          "internalType": "contract Token",
          "name": "sourceToken",
          "type": "address"
        },
        {
          "internalType": "contract Token",
          "name": "targetToken",
          "type": "address"
        },
        {
          "internalType": "uint256",
          "name": "sourceAmount",
          "type": "uint256"
        },
        {
          "internalType": "uint256",
          "name": "minReturnAmount",
          "type": "uint256"
        },
        {
          "internalType": "uint256",
          "name": "deadline",
          "type": "uint256"
        },
        {
          "internalType": "address",
          "name": "beneficiary",
          "type": "address"
        }
      ],
      "name": "tradeBySourceAmount",
      "outputs": [
        {
          "internalType": "uint256",
          "name": "",
          "type": "uint256"
        }
      ],
      "stateMutability": "payable",
      "type": "function"
    },
    {
      "inputs": [
        {
          "internalType": "contract Token",
          "name": "sourceToken",
          "type": "address"
        },
        {
          "internalType": "contract Token",
          "name": "targetToken",
          "type": "address"
        },
        {
          "internalType": "uint256",
          "name": "targetAmount",
          "type": "uint256"
        },
        {
          "internalType": "uint256",
          "name": "maxSourceAmount",
          "type": "uint256"
        },
        {
          "internalType": "uint256",
          "name": "deadline",
          "type": "uint256"
        },
        {
          "internalType": "address",
          "name": "beneficiary",
          "type": "address"
        }
      ],
      "name": "tradeByTargetAmount",
      "outputs": [
        {
          "internalType": "uint256",
          "name": "",
          "type": "uint256"
        }
      ],
      "stateMutability": "payable",
      "type": "function"
    },
    {
      "inputs": [
        {
          "internalType": "contract IPoolCollection",
          "name": "poolCollection",
          "type": "address"
        }
      ],
      "name": "unregisterPoolCollection",
      "outputs": [],
      "stateMutability": "nonpayable",
      "type": "function"
    },
    {
      "inputs": [],
      "name": "version",
      "outputs": [
        {
          "internalType": "uint16",
          "name": "",
          "type": "uint16"
        }
      ],
      "stateMutability": "pure",
      "type": "function"
    },
    {
      "inputs": [
        {
          "internalType": "uint256",
          "name": "id",
          "type": "uint256"
        }
      ],
      "name": "withdraw",
      "outputs": [
        {
          "internalType": "uint256",
          "name": "",
          "type": "uint256"
        }
      ],
      "stateMutability": "nonpayable",
      "type": "function"
    },
    {
      "inputs": [
        {
          "internalType": "address",
          "name": "recipient",
          "type": "address"
        }
      ],
      "name": "withdrawNetworkFees",
      "outputs": [
        {
          "internalType": "uint256",
          "name": "",
          "type": "uint256"
        }
      ],
      "stateMutability": "nonpayable",
      "type": "function"
    },
    {
      "stateMutability": "payable",
      "type": "receive"
    }
  ],
  "transactionHash": "0xa9fc7b583252559c6c5df11dd45dafd6c45e6f2ec3966a81167db4d3093fd76c",
  "args": [
    "0xa489C2b5b36835A327851Ab917A80562B5AFC244",
    "0x0887ae1251E180d7D453aeDEBee26e1639f20113",
    "0x83E1814ba31F7ea95D216204BB45FE75Ce09b14F",
    "0x649765821D9f64198c905eC0B2B037a4a52Bc373",
    "0xFd31662b3d54eddE9B6Bdd32c9c27C8E292cAD57",
    "0xAB05Cf7C6c3a288cd36326e4f7b8600e7268E344"
  ],
  "numDeployments": 6,
  "solcInputHash": "a927a6888186dffd8bd5cdda91c49d63",
  "bytecode": "0x610180604052610169805460ff191660011790553480156200002057600080fd5b5060405162005838380380620058388339810160408190526200004391620001ed565b856200004f81620001ac565b856200005b81620001ac565b856200006781620001ac565b856200007381620001ac565b856200007f81620001ac565b856200008b81620001ac565b6001600160a01b038c1660a081905260408051637e062a3560e11b8152905163fc0c546a916004808201926020929091908290030181865afa158015620000d6573d6000803e3d6000fd5b505050506040513d601f19601f82011682018060405250810190620000fc919062000281565b6001600160a01b039081166080528b1660e081905260408051637e062a3560e11b8152905163fc0c546a916004808201926020929091908290030181865afa1580156200014d573d6000803e3d6000fd5b505050506040513d601f19601f8201168201806040525081019062000173919062000281565b6001600160a01b0390811660c052998a1661010052505050509385166101205250908316610140529091166101605250620002a8915050565b6001600160a01b038116620001d45760405163e6c4247b60e01b815260040160405180910390fd5b50565b6001600160a01b0381168114620001d457600080fd5b60008060008060008060c087890312156200020757600080fd5b86516200021481620001d7565b60208801519096506200022781620001d7565b60408801519095506200023a81620001d7565b60608801519094506200024d81620001d7565b60808801519093506200026081620001d7565b60a08801519092506200027381620001d7565b809150509295509295509295565b6000602082840312156200029457600080fd5b8151620002a181620001d7565b9392505050565b60805160a05160c05160e0516101005161012051610140516101605161549d6200039b60003960008181610a9c0152612a1301526000818161235201526125ff015260008181610d98015281816117f00152818161194b01528181611985015281816122c301528181612570015281816133b701528181613e550152613ecf015260008181611690015261174301526000505060006126d701526000505060008181610dc501528181610f660152818161163b015281816119b401528181612cc801528181612e700152818161315c01528181613231015281816134e601528181613f420152613f7f015261549d6000f3fe6080604052600436106102345760003560e01c806371f43f9a1161012e578063adf51de1116100ab578063ca15c8731161006f578063ca15c8731461068d578063d3a4acd3146106ad578063d547741f146106c0578063d6efd7c3146106e0578063e6aac07e146106f557600080fd5b8063adf51de1146105e7578063b3db428b14610607578063c0c53b8b1461061a578063c109ba131461063a578063c84474871461065a57600080fd5b806391d14854116100f257806391d148541461053757806393867fb5146105575780639bca0e7014610578578063a217fddf146105b2578063a8bf9046146105c757600080fd5b806371f43f9a1461049b5780637bf6a425146104b45780638456cb59146104ca5780638cd2403d146104df5780639010d07c146104ff57600080fd5b806339fadf98116101bc5780634265996411610180578063426599641461042057806345d6602c1461044057806347e7ef241461045357806354fd4d50146104665780635c975abb1461048257600080fd5b806339fadf981461038a5780633cd11924146103ac5780633d1c24e7146103cc5780633efcfda4146103df57806341f435b3146103ff57600080fd5b806326e6b6971161020357806326e6b697146102ea5780632e1a7d4d1461030a5780632f2ff15d1461032a578063357a03331461034a57806336568abe1461036a57600080fd5b806301ffc9a714610240578063046f7da214610275578063230df83a1461028c578063248a9ca3146102ac57600080fd5b3661023b57005b600080fd5b34801561024c57600080fd5b5061026061025b366004614b04565b610728565b60405190151581526020015b60405180910390f35b34801561028157600080fd5b5061028a610753565b005b34801561029857600080fd5b5061028a6102a7366004614b43565b610777565b3480156102b857600080fd5b506102dc6102c7366004614b60565b60009081526065602052604090206001015490565b60405190815260200161026c565b3480156102f657600080fd5b5061028a610305366004614b87565b610925565b34801561031657600080fd5b506102dc610325366004614b60565b610962565b34801561033657600080fd5b5061028a610345366004614ba4565b610b07565b34801561035657600080fd5b506102dc610365366004614bd4565b610b32565b34801561037657600080fd5b5061028a610385366004614ba4565b610bac565b34801561039657600080fd5b5061039f610c2a565b60405161026c9190614c00565b3480156103b857600080fd5b506102dc6103c7366004614b43565b610cdc565b61028a6103da366004614c4d565b610e72565b3480156103eb57600080fd5b506102dc6103fa366004614b60565b611014565b34801561040b57600080fd5b506000805160206154318339815191526102dc565b34801561042c57600080fd5b5061028a61043b366004614c9e565b6110e8565b6102dc61044e366004614d24565b6111b5565b6102dc610461366004614bd4565b61127a565b34801561047257600080fd5b506040516007815260200161026c565b34801561048e57600080fd5b5061012d5460ff16610260565b3480156104a757600080fd5b506101695460ff16610260565b3480156104c057600080fd5b50610168546102dc565b3480156104d657600080fd5b5061028a6112ef565b3480156104eb57600080fd5b5061028a6104fa366004614dd4565b611310565b34801561050b57600080fd5b5061051f61051a366004614e16565b61136f565b6040516001600160a01b03909116815260200161026c565b34801561054357600080fd5b50610260610552366004614ba4565b61138e565b34801561056357600080fd5b506000805160206154718339815191526102dc565b34801561058457600080fd5b5061051f610593366004614b43565b6001600160a01b03908116600090815261016760205260409020541690565b3480156105be57600080fd5b506102dc600081565b3480156105d357600080fd5b5061028a6105e2366004614b43565b6113b9565b3480156105f357600080fd5b5061028a610602366004614e38565b6115d0565b6102dc610615366004614eab565b611b1e565b34801561062657600080fd5b5061028a610635366004614eec565b611b9d565b34801561064657600080fd5b5061028a610655366004614c9e565b611c85565b34801561066657600080fd5b507f657d38169ed9612cb2d9de7040b7b6a1adebf7a8433a66ccb49c08554ac9b8a56102dc565b34801561069957600080fd5b506102dc6106a8366004614b60565b611e2f565b6102dc6106bb366004614d24565b611e46565b3480156106cc57600080fd5b5061028a6106db366004614ba4565b611efb565b3480156106ec57600080fd5b5061039f611f21565b34801561070157600080fd5b507fdf8c9529ea4b244b569bac557a549516f317e7b5cf82dc5e0d8b6d874930a3f56102dc565b60006001600160e01b03198216635a05180f60e01b148061074d575061074d82611fcc565b92915050565b60008051602061543183398151915261076c8133612001565b610774612028565b50565b80610781816120bd565b61079960008051602061547183398151915233612001565b600260fb54036107c45760405162461bcd60e51b81526004016107bb90614f2c565b60405180910390fd5b600260fb81905550816001600160a01b031663f525cb686040518163ffffffff1660e01b8152600401602060405180830381865afa15801561080a573d6000803e3d6000fd5b505050506040513d601f19601f8201168201806040525081019061082e9190614f63565b1561084c576040516332e7879360e01b815260040160405180910390fd5b610858610162836120e4565b6108755760405163b0ce759160e01b815260040160405180910390fd5b6108808260006120f9565b816001600160a01b0316826001600160a01b031663b1dd61b66040518163ffffffff1660e01b8152600401602060405180830381865afa1580156108c8573d6000803e3d6000fd5b505050506040513d601f19601f820116820180604052508101906108ec9190614f7c565b61ffff167fa0c1e3924f995e5ba38f53b4effb6d4b3eeb84176a2951c589115140f638ac0960405160405180910390a35050600160fb55565b61093d60008051602061547183398151915233612001565b6101695460ff1615158115151461077457610169805482151560ff1990911617905550565b600061097161012d5460ff1690565b1561098e5760405162461bcd60e51b81526004016107bb90614fa0565b600260fb54036109b05760405162461bcd60e51b81526004016107bb90614f2c565b600260fb55336000610a1384836000814260405160609290921b6001600160601b031916602083015260e01b6001600160e01b03191660348201526038810184905260580160405160208183030381529060405280519060200120905092915050565b6101605460405163158591ab60e11b8152600481018390526001600160a01b0385811660248301526044820188905292935060009290911690632b0b2356906064016060604051808303816000875af1158015610a74573d6000803e3d6000fd5b505050506040513d601f19601f82011682018060405250810190610a989190615017565b90507f00000000000000000000000000000000000000000000000000000000000000006001600160a01b031681600001516001600160a01b031603610aec57610ae2828483612630565b9350505050610afd565b610af78284836127ea565b93505050505b600160fb55919050565b600082815260656020526040902060010154610b238133612968565b610b2d83836129cc565b505050565b600082610b3e816120bd565b82610b48816129ee565b61012d5460ff1615610b6c5760405162461bcd60e51b81526004016107bb90614fa0565b600260fb5403610b8e5760405162461bcd60e51b81526004016107bb90614f2c565b600260fb55610b9e338686612a0f565b600160fb5595945050505050565b6001600160a01b0381163314610c1c5760405162461bcd60e51b815260206004820152602f60248201527f416363657373436f6e74726f6c3a2063616e206f6e6c792072656e6f756e636560448201526e103937b632b9903337b91039b2b63360891b60648201526084016107bb565b610c268282612c50565b5050565b60606000610c39610162612c72565b905060008167ffffffffffffffff811115610c5657610c56614fca565b604051908082528060200260200182016040528015610c7f578160200160208202803683370190505b50905060005b82811015610cd557610c9961016282612c7c565b828281518110610cab57610cab61505b565b6001600160a01b039092166020928302919091019091015280610ccd81615087565b915050610c85565b5092915050565b6000610ceb61012d5460ff1690565b15610d085760405162461bcd60e51b81526004016107bb90614fa0565b7f657d38169ed9612cb2d9de7040b7b6a1adebf7a8433a66ccb49c08554ac9b8a5610d338133612001565b82610d3d816120bd565b600260fb5403610d5f5760405162461bcd60e51b81526004016107bb90614f2c565b600260fb55610168546000819003610d7b576000935050610e66565b600061016855604051631c20fadd60e01b81526001600160a01b037f00000000000000000000000000000000000000000000000000000000000000001690631c20fadd90610df1907f000000000000000000000000000000000000000000000000000000000000000090899086906004016150a0565b600060405180830381600087803b158015610e0b57600080fd5b505af1158015610e1f573d6000803e3d6000fd5b50506040518381526001600160a01b03881692503391507f328c9cc28e75030423307e732b07659ae452a620281f3e54e838000a7f4675389060200160405180910390a392505b5050600160fb55919050565b61012d5460ff1615610e965760405162461bcd60e51b81526004016107bb90614fa0565b7fdf8c9529ea4b244b569bac557a549516f317e7b5cf82dc5e0d8b6d874930a3f5610ec18133612001565b600260fb5403610ee35760405162461bcd60e51b81526004016107bb90614f2c565b600260fb55604080516001600160601b031933606090811b82166020808501919091526001600160e01b03194260e01b1660348501528a821b8316603885015289821b909216604c84015282018790526080820186905260a08083018690528351808403909101815260c090920190925280519101206001600160a01b038088167f00000000000000000000000000000000000000000000000000000000000000009190911603610fa357610f9d81878733600188612c88565b50610fb3565b610fb1818789883389612ddb565b505b60408051868152602081018690529081018490526001600160a01b03808816919089169083907f102bce4e43a6a8cf0306fde6154221c1f5460f64ba63b92b156bce998ef0db569060600160405180910390a45050600160fb555050505050565b600061102361012d5460ff1690565b156110405760405162461bcd60e51b81526004016107bb90614fa0565b600260fb54036110625760405162461bcd60e51b81526004016107bb90614f2c565b600260fb5561016054604051635f23b6c560e11b8152336004820152602481018490526001600160a01b039091169063be476d8a906044016020604051808303816000875af11580156110b9573d6000803e3d6000fd5b505050506040513d601f19601f820116820180604052508101906110dd9190614f63565b600160fb5592915050565b806110f2816120bd565b61110a60008051602061547183398151915233612001565b600260fb540361112c5760405162461bcd60e51b81526004016107bb90614f2c565b600260fb5561113d61016283612e3b565b61115a5760405163b0ce759160e01b815260040160405180910390fd5b8260005b818110156111a85761119686868381811061117b5761117b61505b565b90506020020160208101906111909190614b43565b85612e5d565b806111a081615087565b91505061115e565b5050600160fb5550505050565b60006111c461012d5460ff1690565b156111e15760405162461bcd60e51b81526004016107bb90614fa0565b600260fb54036112035760405162461bcd60e51b81526004016107bb90614f2c565b600260fb556112158787878787612fce565b6040805180820182526001600160a01b03808a168252888116602080840191909152835160608101855289815280820189905260008186015284518086019095523385529186169084015261126a9286613052565b600160fb55979650505050505050565b6000611284613459565b8261128e816120bd565b82611298816129ee565b61012d5460ff16156112bc5760405162461bcd60e51b81526004016107bb90614fa0565b600260fb54036112de5760405162461bcd60e51b81526004016107bb90614f2c565b600260fb55610b9e3386868261347f565b6000805160206154318339815191526113088133612001565b61077461353d565b60c9546000906113259061ffff1660016150c4565b905061ffff811660071461134b5760405162dc149f60e41b815260040160405180910390fd5b60c9805461ffff191661ffff8316179055610169805460ff19166001179055505050565b60008281526097602052604081206113879083612c7c565b9392505050565b60009182526065602090815260408084206001600160a01b0393909316845291905290205460ff1690565b806113c3816120bd565b6113db60008051602061547183398151915233612001565b600260fb54036113fd5760405162461bcd60e51b81526004016107bb90614f2c565b600260fb819055506000826001600160a01b031663b1dd61b66040518163ffffffff1660e01b8152600401602060405180830381865afa158015611445573d6000803e3d6000fd5b505050506040513d601f19601f820116820180604052508101906114699190614f7c565b90506000836001600160a01b03166354fd4d506040518163ffffffff1660e01b8152600401602060405180830381865afa1580156114ab573d6000803e3d6000fd5b505050506040513d601f19601f820116820180604052508101906114cf9190614f7c565b905060006114dd8383613597565b90506001600160a01b0381161515806114ff57506114fd610162866136cf565b155b1561151d5760405163119b4fd360e11b815260040160405180910390fd5b6115288560016120f9565b846001600160a01b0316856001600160a01b031663b1dd61b66040518163ffffffff1660e01b8152600401602060405180830381865afa158015611570573d6000803e3d6000fd5b505050506040513d601f19601f820116820180604052508101906115949190614f7c565b61ffff167f5ae87719d73cb0fabb219f0e4b6e0a614ed7506f8a08bdb20bebf313573151b760405160405180910390a35050600160fb55505050565b846115da816120bd565b846115e4816129ee565b846115ee816120bd565b61012d5460ff16156116125760405162461bcd60e51b81526004016107bb90614fa0565b600260fb54036116345760405162461bcd60e51b81526004016107bb90614f2c565b600260fb557f00000000000000000000000000000000000000000000000000000000000000006001600160a01b03908116908916141580156116fd575060405163b5af090f60e01b81526001600160a01b0389811660048301527f0000000000000000000000000000000000000000000000000000000000000000169063b5af090f90602401602060405180830381865afa1580156116d7573d6000803e3d6000fd5b505050506040513d601f19601f820116820180604052508101906116fb91906150ea565b155b1561171b57604051630b094f2760e31b815260040160405180910390fd5b604051637c36afad60e01b81526001600160a01b0389811660048301526000916117bf918a917f000000000000000000000000000000000000000000000000000000000000000090911690637c36afad90602401602060405180830381865afa15801561178c573d6000803e3d6000fd5b505050506040513d601f19601f820116820180604052508101906117b09190615107565b63ffffffff16620f42406136e4565b905060006117d66001600160a01b038b16306137b0565b604051631c20fadd60e01b81529091506001600160a01b037f00000000000000000000000000000000000000000000000000000000000000001690631c20fadd90611829908d908c908e906004016150a0565b600060405180830381600087803b15801561184357600080fd5b505af1158015611857573d6000803e3d6000fd5b50505050876001600160a01b03166323e30c8b3361187b8d6001600160a01b031690565b8c868c8c6040518763ffffffff1660e01b81526004016118a09695949392919061512d565b600060405180830381600087803b1580156118ba57600080fd5b505af11580156118ce573d6000803e3d6000fd5b505050506000816118f1308d6001600160a01b03166137b090919063ffffffff16565b6118fb9190615189565b9050611907838b6151a0565b8110156119275760405163b7ed78bf60e01b815260040160405180910390fd5b6119398b6001600160a01b031661383e565b15611976576119716001600160a01b037f00000000000000000000000000000000000000000000000000000000000000001682613860565b6119aa565b6119aa6001600160a01b038c167f000000000000000000000000000000000000000000000000000000000000000083613979565b6001600160a01b037f00000000000000000000000000000000000000000000000000000000000000008116908c1603611a535761015f54604051637c8f622d60e01b81526001600160a01b038d811660048301526024820186905260006044830152909116908190637c8f622d90606401600060405180830381600087803b158015611a3557600080fd5b505af1158015611a49573d6000803e3d6000fd5b5050505050611ac6565b6000611a5e8c6139e4565b604051631510748b60e01b81526001600160a01b038e811660048301526024820187905291925090821690631510748b90604401600060405180830381600087803b158015611aac57600080fd5b505af1158015611ac0573d6000803e3d6000fd5b50505050505b604080518b81526020810185905233916001600160a01b038e16917f0da3485ef1bb570df7bb888887eae5aa01d81b83cd8ccc80c0ea0922a677ecef910160405180910390a35050600160fb55505050505050505050565b6000611b28613459565b83611b32816120bd565b83611b3c816120bd565b83611b46816129ee565b61012d5460ff1615611b6a5760405162461bcd60e51b81526004016107bb90614fa0565b600260fb5403611b8c5760405162461bcd60e51b81526004016107bb90614f2c565b600260fb5561126a8787873361347f565b82611ba7816120bd565b82611bb1816120bd565b82611bbb816120bd565b600054610100900460ff16611bd65760005460ff1615611bda565b303b155b611c3d5760405162461bcd60e51b815260206004820152602e60248201527f496e697469616c697a61626c653a20636f6e747261637420697320616c72656160448201526d191e481a5b9a5d1a585b1a5e995960921b60648201526084016107bb565b600054610100900460ff16158015611c5f576000805461ffff19166101011790555b611c6a878787613a20565b8015611c7c576000805461ff00191690555b50505050505050565b600260fb5403611ca75760405162461bcd60e51b81526004016107bb90614f2c565b600260fb55611cb861016282612e3b565b611cd55760405163b0ce759160e01b815260040160405180910390fd5b8160005b81811015611e23576000858583818110611cf557611cf561505b565b9050602002016020810190611d0a9190614b43565b6101615460405163772b7e9760e01b81526001600160a01b038084166004830152878116602483015292935091169063772b7e9790604401600060405180830381600087803b158015611d5c57600080fd5b505af1158015611d70573d6000803e3d6000fd5b5050506001600160a01b038083166000818152610167602052604080822080548a86166001600160a01b031982161790915590519316935083927f987eb3c2f78454541205f72f34839b434c306c9eaf4922efd7c0c3060fdb2e4c9190a3846001600160a01b0316826001600160a01b03167f95f865c2808f8b2a85eea2611db7843150ee7835ef1403f9755918a97d76933c60405160405180910390a350508080611e1b90615087565b915050611cd9565b5050600160fb55505050565b600081815260976020526040812061074d90612c72565b6000611e5561012d5460ff1690565b15611e725760405162461bcd60e51b81526004016107bb90614fa0565b600260fb5403611e945760405162461bcd60e51b81526004016107bb90614f2c565b600260fb55611ea68787878787612fce565b6040805180820182526001600160a01b03808a168252888116602080840191909152835160608101855289815280820189905260018186015284518086019095523385529186169084015261126a9286613052565b600082815260656020526040902060010154611f178133612968565b610b2d8383612c50565b60606000611f30610165612c72565b905060008167ffffffffffffffff811115611f4d57611f4d614fca565b604051908082528060200260200182016040528015611f76578160200160208202803683370190505b50905060005b82811015610cd557611f9061016582612c7c565b828281518110611fa257611fa261505b565b6001600160a01b039092166020928302919091019091015280611fc481615087565b915050611f7c565b60006001600160e01b03198216637965db0b60e01b148061074d57506301ffc9a760e01b6001600160e01b031983161461074d565b61200b828261138e565b610c2657604051634ca8886760e01b815260040160405180910390fd5b61012d5460ff166120725760405162461bcd60e51b815260206004820152601460248201527314185d5cd8589b194e881b9bdd081c185d5cd95960621b60448201526064016107bb565b61012d805460ff191690557f5db9ee0a495bf2e6ff9c91a7834c1ba4fdd244a5e8aa4e537bd38aeae4b073aa335b6040516001600160a01b03909116815260200160405180910390a1565b6001600160a01b0381166107745760405163e6c4247b60e01b815260040160405180910390fd5b6000611387836001600160a01b038416613a6a565b8181156123ad5761015f54604051632f2ff15d60e01b81527f4cbb5676e6e25e1a3b8a36de10472bcac96f97bd8dd87af6f330881b84739eb860048201526001600160a01b03838116602483015290911690632f2ff15d90604401600060405180830381600087803b15801561216e57600080fd5b505af1158015612182573d6000803e3d6000fd5b505061015f54604051632f2ff15d60e01b81527f0d0d17bf5382c809d9a3899d6a94e57386dfb2036f0401b94ef3cf6c1a9ab73f60048201526001600160a01b0385811660248301529091169250632f2ff15d9150604401600060405180830381600087803b1580156121f457600080fd5b505af1158015612208573d6000803e3d6000fd5b505061015f54604051632f2ff15d60e01b81527fca51b9188e78415f30da725e0d94567b4d65bc6777d4e5d573191e9f55b88a3260048201526001600160a01b0385811660248301529091169250632f2ff15d9150604401600060405180830381600087803b15801561227a57600080fd5b505af115801561228e573d6000803e3d6000fd5b5050604051632f2ff15d60e01b815260008051602061545183398151915260048201526001600160a01b0384811660248301527f0000000000000000000000000000000000000000000000000000000000000000169250632f2ff15d9150604401600060405180830381600087803b15801561230957600080fd5b505af115801561231d573d6000803e3d6000fd5b5050604051632f2ff15d60e01b815260008051602061545183398151915260048201526001600160a01b0384811660248301527f0000000000000000000000000000000000000000000000000000000000000000169250632f2ff15d91506044015b600060405180830381600087803b15801561239957600080fd5b505af1158015611c7c573d6000803e3d6000fd5b61015f5460405163d547741f60e01b81527f4cbb5676e6e25e1a3b8a36de10472bcac96f97bd8dd87af6f330881b84739eb860048201526001600160a01b0383811660248301529091169063d547741f90604401600060405180830381600087803b15801561241b57600080fd5b505af115801561242f573d6000803e3d6000fd5b505061015f5460405163d547741f60e01b81527f0d0d17bf5382c809d9a3899d6a94e57386dfb2036f0401b94ef3cf6c1a9ab73f60048201526001600160a01b038581166024830152909116925063d547741f9150604401600060405180830381600087803b1580156124a157600080fd5b505af11580156124b5573d6000803e3d6000fd5b505061015f5460405163d547741f60e01b81527fca51b9188e78415f30da725e0d94567b4d65bc6777d4e5d573191e9f55b88a3260048201526001600160a01b038581166024830152909116925063d547741f9150604401600060405180830381600087803b15801561252757600080fd5b505af115801561253b573d6000803e3d6000fd5b505060405163d547741f60e01b815260008051602061545183398151915260048201526001600160a01b0384811660248301527f000000000000000000000000000000000000000000000000000000000000000016925063d547741f9150604401600060405180830381600087803b1580156125b657600080fd5b505af11580156125ca573d6000803e3d6000fd5b505060405163d547741f60e01b815260008051602061545183398151915260048201526001600160a01b0384811660248301527f000000000000000000000000000000000000000000000000000000000000000016925063d547741f915060440161237f565b61015f5481516101605460208401516040516323b872dd60e01b81526000946001600160a01b03908116948116936323b872dd9361267793919092169186916004016150a0565b6020604051808303816000875af1158015612696573d6000803e3d6000fd5b505050506040513d601f19601f820116820180604052508101906126ba91906150ea565b5060208301516040516323b872dd60e01b81526001600160a01b037f000000000000000000000000000000000000000000000000000000000000000016916323b872dd9161270f9188918691906004016150a0565b6020604051808303816000875af115801561272e573d6000803e3d6000fd5b505050506040513d601f19601f8201168201806040525081019061275291906150ea565b50602083015160408085015190516372026c6760e11b8152600481018890526001600160a01b038781166024830152604482019390935260648101919091529082169063e404d8ce906084016020604051808303816000875af11580156127bd573d6000803e3d6000fd5b505050506040513d601f19601f820116820180604052508101906127e19190614f63565b95945050505050565b60008082600001516001600160a01b031663f4325d676040518163ffffffff1660e01b8152600401602060405180830381865afa15801561282f573d6000803e3d6000fd5b505050506040513d601f19601f8201168201806040525081019061285391906151b8565b90506000612860826139e4565b84516101605460208701516040516323b872dd60e01b81529394506001600160a01b03928316936323b872dd9361289d93169186916004016150a0565b6020604051808303816000875af11580156128bc573d6000803e3d6000fd5b505050506040513d601f19601f820116820180604052508101906128e091906150ea565b50602084015160408086015190516356aca36f60e01b81526001600160a01b038416926356aca36f9261291b928b928b9289926004016151d5565b6020604051808303816000875af115801561293a573d6000803e3d6000fd5b505050506040513d601f19601f8201168201806040525081019061295e9190614f63565b9695505050505050565b612972828261138e565b610c265761298a816001600160a01b03166014613b5d565b612995836020613b5d565b6040516020016129a6929190615230565b60408051601f198184030181529082905262461bcd60e51b82526107bb916004016152a5565b6129d68282613cf9565b6000828152609760205260409020610b2d90826136cf565b8060000361077457604051637c946ed760e01b815260040160405180910390fd5b60007f00000000000000000000000000000000000000000000000000000000000000006001600160a01b0316836001600160a01b031614612b57576000836001600160a01b031663f4325d676040518163ffffffff1660e01b8152600401602060405180830381865afa158015612a8a573d6000803e3d6000fd5b505050506040513d601f19601f82011682018060405250810190612aae91906151b8565b9050836001600160a01b0316612ac3826139e4565b604051635768adcf60e01b81526001600160a01b0384811660048301529190911690635768adcf90602401602060405180830381865afa158015612b0b573d6000803e3d6000fd5b505050506040513d601f19601f82011682018060405250810190612b2f91906151b8565b6001600160a01b031614612b555760405162820f3560e61b815260040160405180910390fd5b505b610160546040516323b872dd60e01b81526001600160a01b03808616926323b872dd92612b8c928992169087906004016150a0565b6020604051808303816000875af1158015612bab573d6000803e3d6000fd5b505050506040513d601f19601f82011682018060405250810190612bcf91906150ea565b50610160546040516313e7e7d160e11b81526001600160a01b03909116906327cfcfa290612c05908790879087906004016150a0565b6020604051808303816000875af1158015612c24573d6000803e3d6000fd5b505050506040513d601f19601f82011682018060405250810190612c489190614f63565b949350505050565b612c5a8282613d7f565b6000828152609760205260409020610b2d90826120e4565b600061074d825490565b60006113878383613de6565b60003415612ca9576040516342f7487960e11b815260040160405180910390fd5b61015f546040516323b872dd60e01b81526001600160a01b03918216917f000000000000000000000000000000000000000000000000000000000000000016906323b872dd90612d0190889085908b906004016150a0565b6020604051808303816000875af1158015612d20573d6000803e3d6000fd5b505050506040513d601f19601f82011682018060405250810190612d4491906150ea565b5060405163e06bf20d60e01b8152600481018990526001600160a01b0388811660248301526044820188905285151560648301526084820185905282169063e06bf20d9060a4015b6020604051808303816000875af1158015612dab573d6000803e3d6000fd5b505050506040513d601f19601f82011682018060405250810190612dcf9190614f63565b98975050505050505050565b6000612de8858484613e10565b6000612df3866139e4565b604051639f5c734b60e01b8152600481018a90526001600160a01b03898116602483015288811660448301526064820188905291925090821690639f5c734b90608401612d8c565b6001600160a01b03811660009081526001830160205260408120541515611387565b612e66826120bd565b6001600160a01b037f0000000000000000000000000000000000000000000000000000000000000000811690831603612eb25760405163c1ab6dc160e01b815260040160405180910390fd5b612ebe610165836136cf565b612edb5760405163119b4fd360e11b815260040160405180910390fd5b604051634824fce960e11b81526001600160a01b038381166004830152821690639049f9d290602401600060405180830381600087803b158015612f1e57600080fd5b505af1158015612f32573d6000803e3d6000fd5b505050506001600160a01b038281166000818152610167602052604080822080546001600160a01b0319169486169485179055517f4f2ce4e40f623ca765fc0167a25cb7842ceaafb8d82d3dec26ca0d0e0d2d48969190a3806001600160a01b0316826001600160a01b03167f95f865c2808f8b2a85eea2611db7843150ee7835ef1403f9755918a97d76933c60405160405180910390a35050565b612fd7856120bd565b612fe0846120bd565b836001600160a01b0316856001600160a01b0316036130125760405163c1ab6dc160e01b815260040160405180910390fd5b61301b836129ee565b613024826129ee565b4263ffffffff1681101561304b57604051631ab7da6b60e01b815260040160405180910390fd5b5050505050565b60208201516000906001600160a01b03166130785782516001600160a01b031660208401525b825185516020808801518751888301516040808b0151858b015182516001600160601b031960609a8b1b8116828a01526001600160e01b03194260e01b166034830152988a1b8916603882015295891b8816604c87015288860194909452608080860193909352151560f81b60a085015260a1840189905291861b90941660c1830152805160b581840301815260d5830180835281519185019190912061015584018352600080835260f5850181905261011585018190526101359094018490528251958601835283865293850183905290840182905293830152919087516000907f00000000000000000000000000000000000000000000000000000000000000006001600160a01b039081169116036132225761319e848a6020015160018b613ef4565b91508192508160600151905088602001516001600160a01b031689600001516001600160a01b0316857f5c02c2bb2d1d082317eb23916ca27b3e7c294398b60061a2ad54f1c3c018c318856000015186602001518760000151886040015160008f60000151604051613215969594939291906152d8565b60405180910390a4613381565b60208901516001600160a01b037f000000000000000000000000000000000000000000000000000000000000000081169116036132e45761326a848a6000015160008b613ef4565b91508192508160600151905088602001516001600160a01b031689600001516001600160a01b0316857f5c02c2bb2d1d082317eb23916ca27b3e7c294398b60061a2ad54f1c3c018c318856000015186602001518760200151886040015189604001518f60000151604051613215969594939291906152d8565b6132ef848a8a6141dc565b60608082015190830151929550909350613308916151a0565b905088602001516001600160a01b031689600001516001600160a01b0316857f5c02c2bb2d1d082317eb23916ca27b3e7c294398b60061a2ad54f1c3c018c31886600001518660200151886020015188604001518a604001518f60000151604051613378969594939291906152d8565b60405180910390a45b885187518451613392929190613e10565b6020808a01518882015191840151604051631c20fadd60e01b81526001600160a01b037f00000000000000000000000000000000000000000000000000000000000000001693631c20fadd936133ec9390926004016150a0565b600060405180830381600087803b15801561340657600080fd5b505af115801561341a573d6000803e3d6000fd5b5050505080610168600082825461343191906151a0565b9091555050604088015161344657815161344c565b81602001515b9998505050505050505050565b6101695460ff1661347d576040516303a5be3f60e31b815260040160405180910390fd5b565b604080516001600160601b0319606084811b82166020808501919091526001600160e01b03194260e01b16603485015288821b8316603885015287821b909216604c84015280830186905283518084039091018152608090920190925280519101206000907f00000000000000000000000000000000000000000000000000000000000000006001600160a01b039081169086160361352f5761352781878686600080612c88565b915050612c48565b61295e818787878789612ddb565b61012d5460ff16156135615760405162461bcd60e51b81526004016107bb90614fa0565b61012d805460ff191660011790557f62e78cea01bee320cd4e420270b5ea74000d11b0c9f74754ebdbfc544b05a2586120a03390565b6000806135a5610162612c72565b905060005b818110156136c45760006135c061016283612c7c565b90508561ffff16816001600160a01b031663b1dd61b66040518163ffffffff1660e01b8152600401602060405180830381865afa158015613605573d6000803e3d6000fd5b505050506040513d601f19601f820116820180604052508101906136299190614f7c565b61ffff161480156136a257508461ffff16816001600160a01b03166354fd4d506040518163ffffffff1660e01b8152600401602060405180830381865afa158015613678573d6000803e3d6000fd5b505050506040513d601f19601f8201168201806040525081019061369c9190614f7c565b61ffff16145b156136b157925061074d915050565b50806136bc81615087565b9150506135aa565b506000949350505050565b6000611387836001600160a01b03841661433c565b6000806136f1858561438b565b80519091506000036137155782816020015161370d919061531f565b915050611387565b8051831161373657604051631a93c68960e11b815260040160405180910390fd5b6000613743868686614412565b90506000613751838361442d565b80519091506000036137775784816020015161376d919061531f565b9350505050611387565b600085810386169061378983836144b2565b9050600061379f61379a848a61531f565b6144e9565b919091029998505050505050505050565b60006137bb8361383e565b156137d157506001600160a01b0381163161074d565b826040516370a0823160e01b81526001600160a01b03848116600483015291909116906370a0823190602401602060405180830381865afa15801561381a573d6000803e3d6000fd5b505050506040513d601f19601f820116820180604052508101906113879190614f63565b6001600160a01b031673eeeeeeeeeeeeeeeeeeeeeeeeeeeeeeeeeeeeeeee1490565b804710156138b05760405162461bcd60e51b815260206004820152601d60248201527f416464726573733a20696e73756666696369656e742062616c616e636500000060448201526064016107bb565b6000826001600160a01b03168260405160006040518083038185875af1925050503d80600081146138fd576040519150601f19603f3d011682016040523d82523d6000602084013e613902565b606091505b5050905080610b2d5760405162461bcd60e51b815260206004820152603a60248201527f416464726573733a20756e61626c6520746f2073656e642076616c75652c207260448201527f6563697069656e74206d6179206861766520726576657274656400000000000060648201526084016107bb565b8060000361398657505050565b61398f8361383e565b156139d0576040516001600160a01b0383169082156108fc029083906000818181858888f193505050501580156139ca573d6000803e3d6000fd5b50505050565b610b2d6001600160a01b0384168383614514565b6001600160a01b03808216600090815261016760205260408120549091168061074d5760405163c1ab6dc160e01b815260040160405180910390fd5b600054610100900460ff16613a475760405162461bcd60e51b81526004016107bb90615341565b613a4f614577565b613a576145ae565b613a5f6145dd565b610b2d83838361460c565b60008181526001830160205260408120548015613b53576000613a8e600183615189565b8554909150600090613aa290600190615189565b9050818114613b07576000866000018281548110613ac257613ac261505b565b9060005260206000200154905080876000018481548110613ae557613ae561505b565b6000918252602080832090910192909255918252600188019052604090208390555b8554869080613b1857613b1861538c565b60019003818190600052602060002001600090559055856001016000868152602001908152602001600020600090556001935050505061074d565b600091505061074d565b60606000613b6c8360026153a2565b613b779060026151a0565b67ffffffffffffffff811115613b8f57613b8f614fca565b6040519080825280601f01601f191660200182016040528015613bb9576020820181803683370190505b509050600360fc1b81600081518110613bd457613bd461505b565b60200101906001600160f81b031916908160001a905350600f60fb1b81600181518110613c0357613c0361505b565b60200101906001600160f81b031916908160001a9053506000613c278460026153a2565b613c329060016151a0565b90505b6001811115613caa576f181899199a1a9b1b9c1cb0b131b232b360811b85600f1660108110613c6657613c6661505b565b1a60f81b828281518110613c7c57613c7c61505b565b60200101906001600160f81b031916908160001a90535060049490941c93613ca3816153c1565b9050613c35565b5083156113875760405162461bcd60e51b815260206004820181905260248201527f537472696e67733a20686578206c656e67746820696e73756666696369656e7460448201526064016107bb565b613d03828261138e565b610c265760008281526065602090815260408083206001600160a01b03851684529091529020805460ff19166001179055613d3b3390565b6001600160a01b0316816001600160a01b0316837f2f8788117e7eff1d82e926ec794901d17c78024a50270940304540a733656f0d60405160405180910390a45050565b613d89828261138e565b15610c265760008281526065602090815260408083206001600160a01b0385168085529252808320805460ff1916905551339285917ff6391f5c32d9c69d2a47ea670b442974b53935d1edc7fd64eb21e047a839171b9190a45050565b6000826000018281548110613dfd57613dfd61505b565b9060005260206000200154905092915050565b613e22836001600160a01b031661383e565b15613ea05780341015613e48576040516342f7487960e11b815260040160405180910390fd5b613e7b6001600160a01b037f00000000000000000000000000000000000000000000000000000000000000001682613860565b80341115610b2d57610b2d613e908234615189565b6001600160a01b03841690613860565b3415613ebf576040516342f7487960e11b815260040160405180910390fd5b610b2d6001600160a01b038416837f00000000000000000000000000000000000000000000000000000000000000008461471c565b613f1f6040518060800160405280600081526020016000815260200160008152602001600081525090565b600083613f72576040518060400160405280866001600160a01b031681526020017f00000000000000000000000000000000000000000000000000000000000000006001600160a01b0316815250613fba565b60405180604001604052807f00000000000000000000000000000000000000000000000000000000000000006001600160a01b03168152602001866001600160a01b03168152505b90506000836040015161405b57613fd0866139e4565b6001600160a01b031663b7fafb7a8884600001518560200151886000015189602001516040518663ffffffff1660e01b81526004016140139594939291906151d5565b6060604051808303816000875af1158015614032573d6000803e3d6000fd5b505050506040513d601f19601f8201168201806040525081019061405691906153d8565b6140ea565b614064866139e4565b6001600160a01b03166352c8f9908884600001518560200151886000015189602001516040518663ffffffff1660e01b81526004016140a79594939291906151d5565b6060604051808303816000875af11580156140c6573d6000803e3d6000fd5b505050506040513d601f19601f820116820180604052508101906140ea91906153d8565b9050846141835761015f54604082015160208301516001600160a01b0390921691637c8f622d91899161411d9190615189565b6040516001600160e01b031960e085901b1681526001600160a01b039092166004830152602482015260016044820152606401600060405180830381600087803b15801561416a57600080fd5b505af115801561417e573d6000803e3d6000fd5b505050505b6040518060800160405280856040015161419e5782516141a1565b85515b815260200185604001516141b65785516141b9565b82515b815260200182602001518152602001826040015181525092505050949350505050565b6142076040518060800160405280600081526020016000815260200160008152602001600081525090565b6142326040518060800160405280600081526020016000815260200160008152602001600081525090565b8260400151156142ba5782516020808501518651604080516060810182528581526001948101859052908101939093529091600091614275918a91908490613ef4565b905060006142ab898960200151600160405180606001604052808760200151815260200188815260200160011515815250613ef4565b91955090935061433492505050565b8251602080850151868201516040805160608101825285815260001994810194909452600090840181905291926142f5918a91600190613ef4565b9050600061432b898960000151600060405180606001604052808760000151815260200188815260200160001515815250613ef4565b95509093505050505b935093915050565b60008181526001830160205260408120546143835750815460018181018455600084815260208082209093018490558454848252828601909352604090209190915561074d565b50600061074d565b604080518082019091526000808252602082015260006143ab8484614746565b90508383028082106143e057604051806040016040528082846143ce9190615189565b8152602001828152509250505061074d565b604051806040016040528060016143f78585900390565b6144019190615189565b815260200191909152949350505050565b6000818061442257614422615309565b838509949350505050565b60408051808201909152600080825260208201528183602001511061447a576040518060400160405280846000015181526020018385602001516144719190615189565b9052905061074d565b6040518060400160405280600185600001516144969190615189565b81526020016144a9856020015185900390565b90529392505050565b6000806144ca6144c48480840361531f565b60010190565b90508284602001516144dc919061531f565b8451820217949350505050565b60006001815b6008811015610cd557838202600203820291508061450c81615087565b9150506144ef565b6040516001600160a01b038316602482015260448101829052610b2d90849063a9059cbb60e01b906064015b60408051601f198184030181529190526020810180516001600160e01b03166001600160e01b031990931692909217909152614755565b600054610100900460ff1661459e5760405162461bcd60e51b81526004016107bb90615341565b6145a6614827565b61347d61484e565b600054610100900460ff166145d55760405162461bcd60e51b81526004016107bb90615341565b61347d6148b3565b600054610100900460ff166146045760405162461bcd60e51b81526004016107bb90615341565b61347d6148e1565b600054610100900460ff166146335760405162461bcd60e51b81526004016107bb90615341565b61015f80546001600160a01b038086166001600160a01b03199283161790925561016080548584169083161790556101618054928416929091169190911790556146ab7fdf8c9529ea4b244b569bac557a549516f317e7b5cf82dc5e0d8b6d874930a3f5600080516020615471833981519152614915565b6146d1600080516020615431833981519152600080516020615471833981519152614915565b6147097f657d38169ed9612cb2d9de7040b7b6a1adebf7a8433a66ccb49c08554ac9b8a5600080516020615471833981519152614915565b5050610169805460ff1916600117905550565b80158061472d575061472d8461383e565b6139ca576139ca6001600160a01b038516848484614960565b60006000198284099392505050565b60006147aa826040518060400160405280602081526020017f5361666545524332303a206c6f772d6c6576656c2063616c6c206661696c6564815250856001600160a01b03166149819092919063ffffffff16565b805190915015610b2d57808060200190518101906147c891906150ea565b610b2d5760405162461bcd60e51b815260206004820152602a60248201527f5361666545524332303a204552433230206f7065726174696f6e20646964206e6044820152691bdd081cdd58d8d9595960b21b60648201526084016107bb565b600054610100900460ff1661347d5760405162461bcd60e51b81526004016107bb90615341565b600054610100900460ff166148755760405162461bcd60e51b81526004016107bb90615341565b60c9805461ffff1916600117905561489b60008051602061547183398151915280614915565b61347d60008051602061547183398151915233614990565b600054610100900460ff166148da5760405162461bcd60e51b81526004016107bb90615341565b600160fb55565b600054610100900460ff166149085760405162461bcd60e51b81526004016107bb90615341565b61012d805460ff19169055565b600082815260656020526040808220600101805490849055905190918391839186917fbd79b86ffe0ab8e8776151514217cd7cacd52c909f66475c3af44e129f0b00ff9190a4505050565b6139ca846323b872dd60e01b858585604051602401614540939291906150a0565b6060612c48848460008561499a565b610c2682826129cc565b6060824710156149fb5760405162461bcd60e51b815260206004820152602660248201527f416464726573733a20696e73756666696369656e742062616c616e636520666f6044820152651c8818d85b1b60d21b60648201526084016107bb565b6001600160a01b0385163b614a525760405162461bcd60e51b815260206004820152601d60248201527f416464726573733a2063616c6c20746f206e6f6e2d636f6e747261637400000060448201526064016107bb565b600080866001600160a01b03168587604051614a6e9190615414565b60006040518083038185875af1925050503d8060008114614aab576040519150601f19603f3d011682016040523d82523d6000602084013e614ab0565b606091505b5091509150614ac0828286614acb565b979650505050505050565b60608315614ada575081611387565b825115614aea5782518084602001fd5b8160405162461bcd60e51b81526004016107bb91906152a5565b600060208284031215614b1657600080fd5b81356001600160e01b03198116811461138757600080fd5b6001600160a01b038116811461077457600080fd5b600060208284031215614b5557600080fd5b813561138781614b2e565b600060208284031215614b7257600080fd5b5035919050565b801515811461077457600080fd5b600060208284031215614b9957600080fd5b813561138781614b79565b60008060408385031215614bb757600080fd5b823591506020830135614bc981614b2e565b809150509250929050565b60008060408385031215614be757600080fd5b8235614bf281614b2e565b946020939093013593505050565b6020808252825182820181905260009190848201906040850190845b81811015614c415783516001600160a01b031683529284019291840191600101614c1c565b50909695505050505050565b600080600080600060a08688031215614c6557600080fd5b8535614c7081614b2e565b94506020860135614c8081614b2e565b94979496505050506040830135926060810135926080909101359150565b600080600060408486031215614cb357600080fd5b833567ffffffffffffffff80821115614ccb57600080fd5b818601915086601f830112614cdf57600080fd5b813581811115614cee57600080fd5b8760208260051b8501011115614d0357600080fd5b60209283019550935050840135614d1981614b2e565b809150509250925092565b60008060008060008060c08789031215614d3d57600080fd5b8635614d4881614b2e565b95506020870135614d5881614b2e565b945060408701359350606087013592506080870135915060a0870135614d7d81614b2e565b809150509295509295509295565b60008083601f840112614d9d57600080fd5b50813567ffffffffffffffff811115614db557600080fd5b602083019150836020828501011115614dcd57600080fd5b9250929050565b60008060208385031215614de757600080fd5b823567ffffffffffffffff811115614dfe57600080fd5b614e0a85828601614d8b565b90969095509350505050565b60008060408385031215614e2957600080fd5b50508035926020909101359150565b600080600080600060808688031215614e5057600080fd5b8535614e5b81614b2e565b9450602086013593506040860135614e7281614b2e565b9250606086013567ffffffffffffffff811115614e8e57600080fd5b614e9a88828901614d8b565b969995985093965092949392505050565b600080600060608486031215614ec057600080fd5b8335614ecb81614b2e565b92506020840135614edb81614b2e565b929592945050506040919091013590565b600080600060608486031215614f0157600080fd5b8335614f0c81614b2e565b92506020840135614f1c81614b2e565b91506040840135614d1981614b2e565b6020808252601f908201527f5265656e7472616e637947756172643a207265656e7472616e742063616c6c00604082015260600190565b600060208284031215614f7557600080fd5b5051919050565b600060208284031215614f8e57600080fd5b815161ffff8116811461138757600080fd5b60208082526010908201526f14185d5cd8589b194e881c185d5cd95960821b604082015260600190565b634e487b7160e01b600052604160045260246000fd5b6040516060810167ffffffffffffffff8111828210171561501157634e487b7160e01b600052604160045260246000fd5b60405290565b60006060828403121561502957600080fd5b615031614fe0565b825161503c81614b2e565b8152602083810151908201526040928301519281019290925250919050565b634e487b7160e01b600052603260045260246000fd5b634e487b7160e01b600052601160045260246000fd5b60006001820161509957615099615071565b5060010190565b6001600160a01b039384168152919092166020820152604081019190915260600190565b600061ffff8083168185168083038211156150e1576150e1615071565b01949350505050565b6000602082840312156150fc57600080fd5b815161138781614b79565b60006020828403121561511957600080fd5b815163ffffffff8116811461138757600080fd5b6001600160a01b03878116825286166020820152604081018590526060810184905260a06080820181905281018290526000828460c0840137600060c0848401015260c0601f19601f8501168301019050979650505050505050565b60008282101561519b5761519b615071565b500390565b600082198211156151b3576151b3615071565b500190565b6000602082840312156151ca57600080fd5b815161138781614b2e565b9485526001600160a01b0393841660208601529190921660408401526060830191909152608082015260a00190565b60005b8381101561521f578181015183820152602001615207565b838111156139ca5750506000910152565b7f416363657373436f6e74726f6c3a206163636f756e7420000000000000000000815260008351615268816017850160208801615204565b7001034b99036b4b9b9b4b733903937b6329607d1b6017918401918201528351615299816028840160208801615204565b01602801949350505050565b60208152600082518060208401526152c4816040850160208701615204565b601f01601f19169190910160400192915050565b95865260208601949094526040850192909252606084015260808301526001600160a01b031660a082015260c00190565b634e487b7160e01b600052601260045260246000fd5b60008261533c57634e487b7160e01b600052601260045260246000fd5b500490565b6020808252602b908201527f496e697469616c697a61626c653a20636f6e7472616374206973206e6f74206960408201526a6e697469616c697a696e6760a81b606082015260800190565b634e487b7160e01b600052603160045260246000fd5b60008160001904831182151516156153bc576153bc615071565b500290565b6000816153d0576153d0615071565b506000190190565b6000606082840312156153ea57600080fd5b6153f2614fe0565b8251815260208301516020820152604083015160408201528091505092915050565b60008251615426818460208701615204565b919091019291505056fef28f409b8cbe6b50c7ca45afe893f01f69626f8a4e33cb480bc1bc2d618c084589ce14d20697a788f57260f7690044299bde7ea88cfb7e43d120a0c031f1ffc12172861495e7b85edac73e3cd5fbb42dd675baadf627720e687bcfdaca025096a164736f6c634300080d000a",
  "devdoc": {
    "details": "Bancor Network contract",
    "events": {
      "FlashLoanCompleted(address,address,uint256,uint256)": {
        "details": "triggered when a flash-loan is completed"
      },
      "FundsMigrated(bytes32,address,address,uint256,uint256,uint256)": {
        "details": "triggered when funds are migrated"
      },
      "NetworkFeesWithdrawn(address,address,uint256)": {
        "details": "triggered when network fees are withdrawn"
      },
      "PoolAdded(address,address)": {
        "details": "triggered when a new pool is added to a pool collection"
      },
      "PoolCollectionAdded(uint16,address)": {
        "details": "triggered when a new pool collection is added"
      },
      "PoolCollectionRemoved(uint16,address)": {
        "details": "triggered when an existing pool collection is removed"
      },
      "PoolCreated(address,address)": {
        "details": "triggered when a pool is created"
      },
      "PoolRemoved(address,address)": {
        "details": "triggered when a new pool is removed from a pool collection"
      },
      "TokensTraded(bytes32,address,address,uint256,uint256,uint256,uint256,uint256,address)": {
        "details": "triggered on a successful trade"
      }
    },
    "kind": "dev",
    "methods": {
      "cancelWithdrawal(uint256)": {
        "details": "cancels a withdrawal request, and returns the number of pool token amount associated with the withdrawal request requirements: - the caller must have already initiated a withdrawal and received the specified id"
      },
      "collectionByPool(address)": {
        "details": "returns the respective pool collection for the provided pool"
      },
      "constructor": {
        "details": "a \"virtual\" constructor that is only used to set immutable state variables"
      },
      "createPools(address[],address)": {
        "details": "creates new pools requirements: - none of the pools already exists"
      },
      "deposit(address,uint256)": {
        "details": "deposits liquidity for the current provider and returns the respective pool token amount requirements: - the caller must have approved the network to transfer the tokens on its behalf (except for in the   native token case)"
      },
      "depositFor(address,address,uint256)": {
        "details": "deposits liquidity for the specified provider and returns the respective pool token amount requirements: - the caller must have approved the network to transfer the tokens on its behalf (except for in the   native token case)"
      },
      "depositingEnabled()": {
        "details": "returns whether deposits are enabled"
      },
      "enableDepositing(bool)": {
        "details": "enables/disables depositing into a given pool requirements: - the caller must be the owner of the contract"
      },
      "flashLoan(address,uint256,address,bytes)": {
        "details": "provides a flash-loan requirements: - the recipient's callback must return *at least* the borrowed amount and fee back to the specified return address"
      },
      "getRoleAdmin(bytes32)": {
        "details": "Returns the admin role that controls `role`. See {grantRole} and {revokeRole}. To change a role's admin, use {_setRoleAdmin}."
      },
      "getRoleMember(bytes32,uint256)": {
        "details": "Returns one of the accounts that have `role`. `index` must be a value between 0 and {getRoleMemberCount}, non-inclusive. Role bearers are not sorted in any particular way, and their ordering may change at any point. WARNING: When using {getRoleMember} and {getRoleMemberCount}, make sure you perform all queries on the same block. See the following https://forum.openzeppelin.com/t/iterating-over-elements-on-enumerableset-in-openzeppelin-contracts/2296[forum post] for more information."
      },
      "getRoleMemberCount(bytes32)": {
        "details": "Returns the number of accounts that have `role`. Can be used together with {getRoleMember} to enumerate all bearers of a role."
      },
      "grantRole(bytes32,address)": {
        "details": "Grants `role` to `account`. If `account` had not been already granted `role`, emits a {RoleGranted} event. Requirements: - the caller must have ``role``'s admin role."
      },
      "hasRole(bytes32,address)": {
        "details": "Returns `true` if `account` has been granted `role`."
      },
      "initWithdrawal(address,uint256)": {
        "details": "initiates liquidity withdrawal requirements: - the caller must have approved the contract to transfer the pool token amount on its behalf"
      },
      "initialize(address,address,address)": {
        "details": "fully initializes the contract and its parents"
      },
      "liquidityPools()": {
        "details": "returns the set of all liquidity pools"
      },
      "migrateLiquidity(address,address,uint256,uint256,uint256)": {
        "details": "deposits liquidity during a migration"
      },
      "migratePools(address[],address)": {
        "details": "migrates a list of pools between pool collections notes: - invalid or incompatible pools will be skipped gracefully"
      },
      "pause()": {
        "details": "pauses the network requirements: - the caller must have the ROLE_EMERGENCY_STOPPER privilege"
      },
      "paused()": {
        "details": "Returns true if the contract is paused, and false otherwise."
      },
      "pendingNetworkFeeAmount()": {
        "details": "returns the pending network fee amount to be burned by the vortex"
      },
      "poolCollections()": {
        "details": "returns the set of all valid pool collections"
      },
      "postUpgrade(bytes)": {
        "details": "performs post-upgrade initialization requirements: - this must can be called only once per-upgrade"
      },
      "registerPoolCollection(address)": {
        "details": "registers new pool collection with the network requirements: - the caller must be the admin of the contract"
      },
      "renounceRole(bytes32,address)": {
        "details": "Revokes `role` from the calling account. Roles are often managed via {grantRole} and {revokeRole}: this function's purpose is to provide a mechanism for accounts to lose their privileges if they are compromised (such as when a trusted device is misplaced). If the calling account had been revoked `role`, emits a {RoleRevoked} event. Requirements: - the caller must be `account`."
      },
      "resume()": {
        "details": "resumes the network requirements: - the caller must have the ROLE_EMERGENCY_STOPPER privilege"
      },
      "revokeRole(bytes32,address)": {
        "details": "Revokes `role` from `account`. If `account` had been granted `role`, emits a {RoleRevoked} event. Requirements: - the caller must have ``role``'s admin role."
      },
      "roleAdmin()": {
        "details": "returns the admin role"
      },
      "roleEmergencyStopper()": {
        "details": "returns the emergency stopper role"
      },
      "roleMigrationManager()": {
        "details": "returns the migration manager role"
      },
      "roleNetworkFeeManager()": {
        "details": "returns the network fee manager role"
      },
      "supportsInterface(bytes4)": {
        "details": "See {IERC165-supportsInterface}."
      },
      "tradeBySourceAmount(address,address,uint256,uint256,uint256,address)": {
        "details": "performs a trade by providing the input source amount, sends the proceeds to the optional beneficiary (or to the address of the caller, in case it's not supplied), and returns the trade target amount requirements: - the caller must have approved the network to transfer the source tokens on its behalf (except for in the   native token case)"
      },
      "tradeByTargetAmount(address,address,uint256,uint256,uint256,address)": {
        "details": "performs a trade by providing the output target amount, sends the proceeds to the optional beneficiary (or to the address of the caller, in case it's not supplied), and returns the trade source amount requirements: - the caller must have approved the network to transfer the source tokens on its behalf (except for in the   native token case)"
      },
      "unregisterPoolCollection(address)": {
        "details": "unregisters an existing pool collection from the network requirements: - the caller must be the admin of the contract"
      },
      "withdraw(uint256)": {
        "details": "withdraws liquidity and returns the withdrawn amount requirements: - the provider must have already initiated a withdrawal and received the specified id - the specified withdrawal request is eligible for completion - the provider must have approved the network to transfer vBNT amount on its behalf, when withdrawing BNT liquidity"
      },
      "withdrawNetworkFees(address)": {
        "details": "withdraws pending network fees, and returns the amount of fees withdrawn requirements: - the caller must have the ROLE_NETWORK_FEE_MANAGER privilege"
      }
    },
    "version": 1
  },
  "userdoc": {
    "kind": "user",
    "methods": {},
    "version": 1
  },
  "storageLayout": {
    "storage": [
      {
        "astId": 644,
        "contract": "contracts/network/BancorNetwork.sol:BancorNetwork",
        "label": "_initialized",
        "offset": 0,
        "slot": "0",
        "type": "t_bool"
      },
      {
        "astId": 647,
        "contract": "contracts/network/BancorNetwork.sol:BancorNetwork",
        "label": "_initializing",
        "offset": 1,
        "slot": "0",
        "type": "t_bool"
      },
      {
        "astId": 1165,
        "contract": "contracts/network/BancorNetwork.sol:BancorNetwork",
        "label": "__gap",
        "offset": 0,
        "slot": "1",
        "type": "t_array(t_uint256)50_storage"
      },
      {
        "astId": 1412,
        "contract": "contracts/network/BancorNetwork.sol:BancorNetwork",
        "label": "__gap",
        "offset": 0,
        "slot": "51",
        "type": "t_array(t_uint256)50_storage"
      },
      {
        "astId": 250,
        "contract": "contracts/network/BancorNetwork.sol:BancorNetwork",
        "label": "_roles",
        "offset": 0,
        "slot": "101",
        "type": "t_mapping(t_bytes32,t_struct(RoleData)245_storage)"
      },
      {
        "astId": 538,
        "contract": "contracts/network/BancorNetwork.sol:BancorNetwork",
        "label": "__gap",
        "offset": 0,
        "slot": "102",
        "type": "t_array(t_uint256)49_storage"
      },
      {
        "astId": 99,
        "contract": "contracts/network/BancorNetwork.sol:BancorNetwork",
        "label": "_roleMembers",
        "offset": 0,
        "slot": "151",
        "type": "t_mapping(t_bytes32,t_struct(AddressSet)1737_storage)"
      },
      {
        "astId": 209,
        "contract": "contracts/network/BancorNetwork.sol:BancorNetwork",
        "label": "__gap",
        "offset": 0,
        "slot": "152",
        "type": "t_array(t_uint256)49_storage"
      },
      {
        "astId": 31429,
        "contract": "contracts/network/BancorNetwork.sol:BancorNetwork",
        "label": "_initializations",
        "offset": 0,
        "slot": "201",
        "type": "t_uint16"
      },
      {
        "astId": 31435,
        "contract": "contracts/network/BancorNetwork.sol:BancorNetwork",
        "label": "__gap",
        "offset": 0,
        "slot": "202",
        "type": "t_array(t_uint256)49_storage"
      },
      {
        "astId": 836,
        "contract": "contracts/network/BancorNetwork.sol:BancorNetwork",
        "label": "_status",
        "offset": 0,
        "slot": "251",
        "type": "t_uint256"
      },
      {
        "astId": 880,
        "contract": "contracts/network/BancorNetwork.sol:BancorNetwork",
        "label": "__gap",
        "offset": 0,
        "slot": "252",
        "type": "t_array(t_uint256)49_storage"
      },
      {
        "astId": 732,
        "contract": "contracts/network/BancorNetwork.sol:BancorNetwork",
        "label": "_paused",
        "offset": 0,
        "slot": "301",
        "type": "t_bool"
      },
      {
        "astId": 821,
        "contract": "contracts/network/BancorNetwork.sol:BancorNetwork",
        "label": "__gap",
        "offset": 0,
        "slot": "302",
        "type": "t_array(t_uint256)49_storage"
      },
      {
        "astId": 10782,
        "contract": "contracts/network/BancorNetwork.sol:BancorNetwork",
        "label": "_bntPool",
        "offset": 0,
        "slot": "351",
        "type": "t_contract(IBNTPool)23727"
      },
      {
        "astId": 10785,
        "contract": "contracts/network/BancorNetwork.sol:BancorNetwork",
        "label": "_pendingWithdrawals",
        "offset": 0,
        "slot": "352",
        "type": "t_contract(IPendingWithdrawals)17064"
      },
      {
        "astId": 10788,
        "contract": "contracts/network/BancorNetwork.sol:BancorNetwork",
        "label": "_poolMigrator",
        "offset": 0,
        "slot": "353",
        "type": "t_contract(IPoolMigrator)24101"
      },
      {
        "astId": 10791,
        "contract": "contracts/network/BancorNetwork.sol:BancorNetwork",
        "label": "_poolCollections",
        "offset": 0,
        "slot": "354",
        "type": "t_struct(AddressSet)1737_storage"
      },
      {
        "astId": 10793,
        "contract": "contracts/network/BancorNetwork.sol:BancorNetwork",
        "label": "_deprecated0",
        "offset": 0,
        "slot": "356",
        "type": "t_uint256"
      },
      {
        "astId": 10796,
        "contract": "contracts/network/BancorNetwork.sol:BancorNetwork",
        "label": "_liquidityPools",
        "offset": 0,
        "slot": "357",
        "type": "t_struct(AddressSet)1737_storage"
      },
      {
        "astId": 10802,
        "contract": "contracts/network/BancorNetwork.sol:BancorNetwork",
        "label": "_collectionByPool",
        "offset": 0,
        "slot": "359",
        "type": "t_mapping(t_contract(Token)29301,t_contract(IPoolCollection)24079)"
      },
      {
        "astId": 10804,
        "contract": "contracts/network/BancorNetwork.sol:BancorNetwork",
        "label": "_pendingNetworkFeeAmount",
        "offset": 0,
        "slot": "360",
        "type": "t_uint256"
      },
      {
        "astId": 10807,
        "contract": "contracts/network/BancorNetwork.sol:BancorNetwork",
        "label": "_depositingEnabled",
        "offset": 0,
        "slot": "361",
        "type": "t_bool"
      },
      {
        "astId": 10813,
        "contract": "contracts/network/BancorNetwork.sol:BancorNetwork",
        "label": "__gap",
        "offset": 0,
        "slot": "362",
        "type": "t_array(t_uint256)39_storage"
      }
    ],
    "types": {
      "t_address": {
        "encoding": "inplace",
        "label": "address",
        "numberOfBytes": "20"
      },
      "t_array(t_bytes32)dyn_storage": {
        "base": "t_bytes32",
        "encoding": "dynamic_array",
        "label": "bytes32[]",
        "numberOfBytes": "32"
      },
      "t_array(t_uint256)39_storage": {
        "base": "t_uint256",
        "encoding": "inplace",
        "label": "uint256[39]",
        "numberOfBytes": "1248"
      },
      "t_array(t_uint256)49_storage": {
        "base": "t_uint256",
        "encoding": "inplace",
        "label": "uint256[49]",
        "numberOfBytes": "1568"
      },
      "t_array(t_uint256)50_storage": {
        "base": "t_uint256",
        "encoding": "inplace",
        "label": "uint256[50]",
        "numberOfBytes": "1600"
      },
      "t_bool": {
        "encoding": "inplace",
        "label": "bool",
        "numberOfBytes": "1"
      },
      "t_bytes32": {
        "encoding": "inplace",
        "label": "bytes32",
        "numberOfBytes": "32"
      },
      "t_contract(IBNTPool)23727": {
        "encoding": "inplace",
        "label": "contract IBNTPool",
        "numberOfBytes": "20"
      },
      "t_contract(IPendingWithdrawals)17064": {
        "encoding": "inplace",
        "label": "contract IPendingWithdrawals",
        "numberOfBytes": "20"
      },
      "t_contract(IPoolCollection)24079": {
        "encoding": "inplace",
        "label": "contract IPoolCollection",
        "numberOfBytes": "20"
      },
      "t_contract(IPoolMigrator)24101": {
        "encoding": "inplace",
        "label": "contract IPoolMigrator",
        "numberOfBytes": "20"
      },
      "t_contract(Token)29301": {
        "encoding": "inplace",
        "label": "contract Token",
        "numberOfBytes": "20"
      },
      "t_mapping(t_address,t_bool)": {
        "encoding": "mapping",
        "key": "t_address",
        "label": "mapping(address => bool)",
        "numberOfBytes": "32",
        "value": "t_bool"
      },
      "t_mapping(t_bytes32,t_struct(AddressSet)1737_storage)": {
        "encoding": "mapping",
        "key": "t_bytes32",
        "label": "mapping(bytes32 => struct EnumerableSetUpgradeable.AddressSet)",
        "numberOfBytes": "32",
        "value": "t_struct(AddressSet)1737_storage"
      },
      "t_mapping(t_bytes32,t_struct(RoleData)245_storage)": {
        "encoding": "mapping",
        "key": "t_bytes32",
        "label": "mapping(bytes32 => struct AccessControlUpgradeable.RoleData)",
        "numberOfBytes": "32",
        "value": "t_struct(RoleData)245_storage"
      },
      "t_mapping(t_bytes32,t_uint256)": {
        "encoding": "mapping",
        "key": "t_bytes32",
        "label": "mapping(bytes32 => uint256)",
        "numberOfBytes": "32",
        "value": "t_uint256"
      },
      "t_mapping(t_contract(Token)29301,t_contract(IPoolCollection)24079)": {
        "encoding": "mapping",
        "key": "t_contract(Token)29301",
        "label": "mapping(contract Token => contract IPoolCollection)",
        "numberOfBytes": "32",
        "value": "t_contract(IPoolCollection)24079"
      },
      "t_struct(AddressSet)1737_storage": {
        "encoding": "inplace",
        "label": "struct EnumerableSetUpgradeable.AddressSet",
        "members": [
          {
            "astId": 1736,
            "contract": "contracts/network/BancorNetwork.sol:BancorNetwork",
            "label": "_inner",
            "offset": 0,
            "slot": "0",
            "type": "t_struct(Set)1436_storage"
          }
        ],
        "numberOfBytes": "64"
      },
      "t_struct(RoleData)245_storage": {
        "encoding": "inplace",
        "label": "struct AccessControlUpgradeable.RoleData",
        "members": [
          {
            "astId": 242,
            "contract": "contracts/network/BancorNetwork.sol:BancorNetwork",
            "label": "members",
            "offset": 0,
            "slot": "0",
            "type": "t_mapping(t_address,t_bool)"
          },
          {
            "astId": 244,
            "contract": "contracts/network/BancorNetwork.sol:BancorNetwork",
            "label": "adminRole",
            "offset": 0,
            "slot": "1",
            "type": "t_bytes32"
          }
        ],
        "numberOfBytes": "64"
      },
      "t_struct(Set)1436_storage": {
        "encoding": "inplace",
        "label": "struct EnumerableSetUpgradeable.Set",
        "members": [
          {
            "astId": 1431,
            "contract": "contracts/network/BancorNetwork.sol:BancorNetwork",
            "label": "_values",
            "offset": 0,
            "slot": "0",
            "type": "t_array(t_bytes32)dyn_storage"
          },
          {
            "astId": 1435,
            "contract": "contracts/network/BancorNetwork.sol:BancorNetwork",
            "label": "_indexes",
            "offset": 0,
            "slot": "1",
            "type": "t_mapping(t_bytes32,t_uint256)"
          }
        ],
        "numberOfBytes": "64"
      },
      "t_uint16": {
        "encoding": "inplace",
        "label": "uint16",
        "numberOfBytes": "2"
      },
      "t_uint256": {
        "encoding": "inplace",
        "label": "uint256",
        "numberOfBytes": "32"
      }
    }
  }
}