{
  "address": "0xfB07a644a9e53879f29f7B3f29362e9c95b1FFA3",
  "abi": [
    {
      "inputs": [
        {
          "internalType": "contract IBancorNetwork",
          "name": "initNetwork",
          "type": "address"
        },
        {
          "internalType": "contract ITokenGovernance",
          "name": "initBNTGovernance",
          "type": "address"
        },
        {
          "internalType": "contract ITokenGovernance",
          "name": "initVBNTGovernance",
          "type": "address"
        },
        {
          "internalType": "contract INetworkSettings",
          "name": "initNetworkSettings",
          "type": "address"
        },
        {
          "internalType": "contract IMasterVault",
          "name": "initMasterVault",
          "type": "address"
        },
        {
          "internalType": "contract IPoolToken",
          "name": "initBNTPoolToken",
          "type": "address"
        }
      ],
      "stateMutability": "nonpayable",
      "type": "constructor"
    },
    {
      "inputs": [],
      "name": "AccessDenied",
      "type": "error"
    },
    {
      "inputs": [],
      "name": "AlreadyInitialized",
      "type": "error"
    },
    {
      "inputs": [],
      "name": "FundingLimitExceeded",
      "type": "error"
    },
    {
      "inputs": [],
      "name": "InvalidAddress",
      "type": "error"
    },
    {
      "inputs": [],
      "name": "InvalidParam",
      "type": "error"
    },
    {
      "inputs": [],
      "name": "InvalidStakedBalance",
      "type": "error"
    },
    {
      "inputs": [],
      "name": "InvalidToken",
      "type": "error"
    },
    {
      "inputs": [],
      "name": "NotPayable",
      "type": "error"
    },
    {
      "inputs": [],
      "name": "NotWhitelisted",
      "type": "error"
    },
    {
      "inputs": [],
      "name": "Overflow",
      "type": "error"
    },
    {
      "inputs": [],
      "name": "ZeroValue",
      "type": "error"
    },
    {
      "anonymous": false,
      "inputs": [
        {
          "indexed": true,
          "internalType": "bytes32",
          "name": "contextId",
          "type": "bytes32"
        },
        {
          "indexed": true,
          "internalType": "contract Token",
          "name": "pool",
          "type": "address"
        },
        {
          "indexed": false,
          "internalType": "uint256",
          "name": "bntAmount",
          "type": "uint256"
        },
        {
          "indexed": false,
          "internalType": "uint256",
          "name": "poolTokenAmount",
          "type": "uint256"
        }
      ],
      "name": "FundingRenounced",
      "type": "event"
    },
    {
      "anonymous": false,
      "inputs": [
        {
          "indexed": true,
          "internalType": "bytes32",
          "name": "contextId",
          "type": "bytes32"
        },
        {
          "indexed": true,
          "internalType": "contract Token",
          "name": "pool",
          "type": "address"
        },
        {
          "indexed": false,
          "internalType": "uint256",
          "name": "bntAmount",
          "type": "uint256"
        },
        {
          "indexed": false,
          "internalType": "uint256",
          "name": "poolTokenAmount",
          "type": "uint256"
        }
      ],
      "name": "FundingRequested",
      "type": "event"
    },
    {
      "anonymous": false,
      "inputs": [
        {
          "indexed": true,
          "internalType": "contract Token",
          "name": "token",
          "type": "address"
        },
        {
          "indexed": true,
          "internalType": "address",
          "name": "caller",
          "type": "address"
        },
        {
          "indexed": false,
          "internalType": "uint256",
          "name": "amount",
          "type": "uint256"
        }
      ],
      "name": "FundsBurned",
      "type": "event"
    },
    {
      "anonymous": false,
      "inputs": [
        {
          "indexed": true,
          "internalType": "contract Token",
          "name": "token",
          "type": "address"
        },
        {
          "indexed": true,
          "internalType": "address",
          "name": "caller",
          "type": "address"
        },
        {
          "indexed": true,
          "internalType": "address",
          "name": "target",
          "type": "address"
        },
        {
          "indexed": false,
          "internalType": "uint256",
          "name": "amount",
          "type": "uint256"
        }
      ],
      "name": "FundsWithdrawn",
      "type": "event"
    },
    {
      "anonymous": false,
      "inputs": [
        {
          "indexed": false,
          "internalType": "address",
          "name": "account",
          "type": "address"
        }
      ],
      "name": "Paused",
      "type": "event"
    },
    {
      "anonymous": false,
      "inputs": [
        {
          "indexed": true,
          "internalType": "bytes32",
          "name": "role",
          "type": "bytes32"
        },
        {
          "indexed": true,
          "internalType": "bytes32",
          "name": "previousAdminRole",
          "type": "bytes32"
        },
        {
          "indexed": true,
          "internalType": "bytes32",
          "name": "newAdminRole",
          "type": "bytes32"
        }
      ],
      "name": "RoleAdminChanged",
      "type": "event"
    },
    {
      "anonymous": false,
      "inputs": [
        {
          "indexed": true,
          "internalType": "bytes32",
          "name": "role",
          "type": "bytes32"
        },
        {
          "indexed": true,
          "internalType": "address",
          "name": "account",
          "type": "address"
        },
        {
          "indexed": true,
          "internalType": "address",
          "name": "sender",
          "type": "address"
        }
      ],
      "name": "RoleGranted",
      "type": "event"
    },
    {
      "anonymous": false,
      "inputs": [
        {
          "indexed": true,
          "internalType": "bytes32",
          "name": "role",
          "type": "bytes32"
        },
        {
          "indexed": true,
          "internalType": "address",
          "name": "account",
          "type": "address"
        },
        {
          "indexed": true,
          "internalType": "address",
          "name": "sender",
          "type": "address"
        }
      ],
      "name": "RoleRevoked",
      "type": "event"
    },
    {
      "anonymous": false,
      "inputs": [
        {
          "indexed": true,
          "internalType": "bytes32",
          "name": "contextId",
          "type": "bytes32"
        },
        {
          "indexed": true,
          "internalType": "address",
          "name": "provider",
          "type": "address"
        },
        {
          "indexed": false,
          "internalType": "uint256",
          "name": "bntAmount",
          "type": "uint256"
        },
        {
          "indexed": false,
          "internalType": "uint256",
          "name": "poolTokenAmount",
          "type": "uint256"
        },
        {
          "indexed": false,
          "internalType": "uint256",
          "name": "vbntAmount",
          "type": "uint256"
        }
      ],
      "name": "TokensDeposited",
      "type": "event"
    },
    {
      "anonymous": false,
      "inputs": [
        {
          "indexed": true,
          "internalType": "bytes32",
          "name": "contextId",
          "type": "bytes32"
        },
        {
          "indexed": true,
          "internalType": "address",
          "name": "provider",
          "type": "address"
        },
        {
          "indexed": false,
          "internalType": "uint256",
          "name": "bntAmount",
          "type": "uint256"
        },
        {
          "indexed": false,
          "internalType": "uint256",
          "name": "poolTokenAmount",
          "type": "uint256"
        },
        {
          "indexed": false,
          "internalType": "uint256",
          "name": "vbntAmount",
          "type": "uint256"
        },
        {
          "indexed": false,
          "internalType": "uint256",
          "name": "withdrawalFeeAmount",
          "type": "uint256"
        }
      ],
      "name": "TokensWithdrawn",
      "type": "event"
    },
    {
      "anonymous": false,
      "inputs": [
        {
          "indexed": true,
          "internalType": "bytes32",
          "name": "contextId",
          "type": "bytes32"
        },
        {
          "indexed": false,
          "internalType": "uint256",
          "name": "liquidity",
          "type": "uint256"
        },
        {
          "indexed": false,
          "internalType": "uint256",
          "name": "stakedBalance",
          "type": "uint256"
        },
        {
          "indexed": false,
          "internalType": "uint256",
          "name": "poolTokenSupply",
          "type": "uint256"
        }
      ],
      "name": "TotalLiquidityUpdated",
      "type": "event"
    },
    {
      "anonymous": false,
      "inputs": [
        {
          "indexed": false,
          "internalType": "address",
          "name": "account",
          "type": "address"
        }
      ],
      "name": "Unpaused",
      "type": "event"
    },
    {
      "inputs": [],
      "name": "DEFAULT_ADMIN_ROLE",
      "outputs": [
        {
          "internalType": "bytes32",
          "name": "",
          "type": "bytes32"
        }
      ],
      "stateMutability": "view",
      "type": "function"
    },
    {
      "inputs": [
        {
          "internalType": "contract Token",
          "name": "pool",
          "type": "address"
        }
      ],
      "name": "availableFunding",
      "outputs": [
        {
          "internalType": "uint256",
          "name": "",
          "type": "uint256"
        }
      ],
      "stateMutability": "view",
      "type": "function"
    },
    {
      "inputs": [
        {
          "internalType": "contract Token",
          "name": "token",
          "type": "address"
        },
        {
          "internalType": "uint256",
          "name": "amount",
          "type": "uint256"
        }
      ],
      "name": "burn",
      "outputs": [],
      "stateMutability": "nonpayable",
      "type": "function"
    },
    {
      "inputs": [
        {
          "internalType": "uint256",
          "name": "bntAmount",
          "type": "uint256"
        }
      ],
      "name": "burnFromVault",
      "outputs": [],
      "stateMutability": "nonpayable",
      "type": "function"
    },
    {
      "inputs": [
        {
          "internalType": "contract Token",
          "name": "pool",
          "type": "address"
        }
      ],
      "name": "currentPoolFunding",
      "outputs": [
        {
          "internalType": "uint256",
          "name": "",
          "type": "uint256"
        }
      ],
      "stateMutability": "view",
      "type": "function"
    },
    {
      "inputs": [
        {
          "internalType": "bytes32",
          "name": "contextId",
          "type": "bytes32"
        },
        {
          "internalType": "address",
          "name": "provider",
          "type": "address"
        },
        {
          "internalType": "uint256",
          "name": "bntAmount",
          "type": "uint256"
        },
        {
          "internalType": "bool",
          "name": "isMigrating",
          "type": "bool"
        },
        {
          "internalType": "uint256",
          "name": "originalVBNTAmount",
          "type": "uint256"
        }
      ],
      "name": "depositFor",
      "outputs": [
        {
          "internalType": "uint256",
          "name": "",
          "type": "uint256"
        }
      ],
      "stateMutability": "nonpayable",
      "type": "function"
    },
    {
      "inputs": [
        {
          "internalType": "bytes32",
          "name": "role",
          "type": "bytes32"
        }
      ],
      "name": "getRoleAdmin",
      "outputs": [
        {
          "internalType": "bytes32",
          "name": "",
          "type": "bytes32"
        }
      ],
      "stateMutability": "view",
      "type": "function"
    },
    {
      "inputs": [
        {
          "internalType": "bytes32",
          "name": "role",
          "type": "bytes32"
        },
        {
          "internalType": "uint256",
          "name": "index",
          "type": "uint256"
        }
      ],
      "name": "getRoleMember",
      "outputs": [
        {
          "internalType": "address",
          "name": "",
          "type": "address"
        }
      ],
      "stateMutability": "view",
      "type": "function"
    },
    {
      "inputs": [
        {
          "internalType": "bytes32",
          "name": "role",
          "type": "bytes32"
        }
      ],
      "name": "getRoleMemberCount",
      "outputs": [
        {
          "internalType": "uint256",
          "name": "",
          "type": "uint256"
        }
      ],
      "stateMutability": "view",
      "type": "function"
    },
    {
      "inputs": [
        {
          "internalType": "bytes32",
          "name": "role",
          "type": "bytes32"
        },
        {
          "internalType": "address",
          "name": "account",
          "type": "address"
        }
      ],
      "name": "grantRole",
      "outputs": [],
      "stateMutability": "nonpayable",
      "type": "function"
    },
    {
      "inputs": [
        {
          "internalType": "bytes32",
          "name": "role",
          "type": "bytes32"
        },
        {
          "internalType": "address",
          "name": "account",
          "type": "address"
        }
      ],
      "name": "hasRole",
      "outputs": [
        {
          "internalType": "bool",
          "name": "",
          "type": "bool"
        }
      ],
      "stateMutability": "view",
      "type": "function"
    },
    {
      "inputs": [],
      "name": "initialize",
      "outputs": [],
      "stateMutability": "nonpayable",
      "type": "function"
    },
    {
      "inputs": [],
      "name": "isPaused",
      "outputs": [
        {
          "internalType": "bool",
          "name": "",
          "type": "bool"
        }
      ],
      "stateMutability": "view",
      "type": "function"
    },
    {
      "inputs": [],
      "name": "isPayable",
      "outputs": [
        {
          "internalType": "bool",
          "name": "",
          "type": "bool"
        }
      ],
      "stateMutability": "pure",
      "type": "function"
    },
    {
      "inputs": [
        {
          "internalType": "address",
          "name": "recipient",
          "type": "address"
        },
        {
          "internalType": "uint256",
          "name": "bntAmount",
          "type": "uint256"
        }
      ],
      "name": "mint",
      "outputs": [],
      "stateMutability": "nonpayable",
      "type": "function"
    },
    {
      "inputs": [
        {
          "internalType": "contract Token",
          "name": "pool",
          "type": "address"
        },
        {
          "internalType": "uint256",
          "name": "feeAmount",
          "type": "uint256"
        },
        {
          "internalType": "bool",
          "name": "isTradeFee",
          "type": "bool"
        }
      ],
      "name": "onFeesCollected",
      "outputs": [],
      "stateMutability": "nonpayable",
      "type": "function"
    },
    {
      "inputs": [],
      "name": "pause",
      "outputs": [],
      "stateMutability": "nonpayable",
      "type": "function"
    },
    {
      "inputs": [],
      "name": "paused",
      "outputs": [
        {
          "internalType": "bool",
          "name": "",
          "type": "bool"
        }
      ],
      "stateMutability": "view",
      "type": "function"
    },
    {
      "inputs": [],
      "name": "poolToken",
      "outputs": [
        {
          "internalType": "contract IPoolToken",
          "name": "",
          "type": "address"
        }
      ],
      "stateMutability": "view",
      "type": "function"
    },
    {
      "inputs": [
        {
          "internalType": "uint256",
          "name": "bntAmountToDistribute",
          "type": "uint256"
        }
      ],
      "name": "poolTokenAmountToBurn",
      "outputs": [
        {
          "internalType": "uint256",
          "name": "",
          "type": "uint256"
        }
      ],
      "stateMutability": "view",
      "type": "function"
    },
    {
      "inputs": [
        {
          "internalType": "uint256",
          "name": "poolTokenAmount",
          "type": "uint256"
        }
      ],
      "name": "poolTokenToUnderlying",
      "outputs": [
        {
          "internalType": "uint256",
          "name": "",
          "type": "uint256"
        }
      ],
      "stateMutability": "view",
      "type": "function"
    },
    {
      "inputs": [
        {
          "internalType": "bytes",
          "name": "data",
          "type": "bytes"
        }
      ],
      "name": "postUpgrade",
      "outputs": [],
      "stateMutability": "nonpayable",
      "type": "function"
    },
    {
      "inputs": [
        {
          "internalType": "bytes32",
          "name": "contextId",
          "type": "bytes32"
        },
        {
          "internalType": "contract Token",
          "name": "pool",
          "type": "address"
        },
        {
          "internalType": "uint256",
          "name": "bntAmount",
          "type": "uint256"
        }
      ],
      "name": "renounceFunding",
      "outputs": [],
      "stateMutability": "nonpayable",
      "type": "function"
    },
    {
      "inputs": [
        {
          "internalType": "bytes32",
          "name": "role",
          "type": "bytes32"
        },
        {
          "internalType": "address",
          "name": "account",
          "type": "address"
        }
      ],
      "name": "renounceRole",
      "outputs": [],
      "stateMutability": "nonpayable",
      "type": "function"
    },
    {
      "inputs": [
        {
          "internalType": "bytes32",
          "name": "contextId",
          "type": "bytes32"
        },
        {
          "internalType": "contract Token",
          "name": "pool",
          "type": "address"
        },
        {
          "internalType": "uint256",
          "name": "bntAmount",
          "type": "uint256"
        }
      ],
      "name": "requestFunding",
      "outputs": [],
      "stateMutability": "nonpayable",
      "type": "function"
    },
    {
      "inputs": [
        {
          "internalType": "bytes32",
          "name": "role",
          "type": "bytes32"
        },
        {
          "internalType": "address",
          "name": "account",
          "type": "address"
        }
      ],
      "name": "revokeRole",
      "outputs": [],
      "stateMutability": "nonpayable",
      "type": "function"
    },
    {
      "inputs": [],
      "name": "roleAdmin",
      "outputs": [
        {
          "internalType": "bytes32",
          "name": "",
          "type": "bytes32"
        }
      ],
      "stateMutability": "pure",
      "type": "function"
    },
    {
      "inputs": [],
      "name": "roleAssetManager",
      "outputs": [
        {
          "internalType": "bytes32",
          "name": "",
          "type": "bytes32"
        }
      ],
      "stateMutability": "pure",
      "type": "function"
    },
    {
      "inputs": [],
      "name": "roleBNTManager",
      "outputs": [
        {
          "internalType": "bytes32",
          "name": "",
          "type": "bytes32"
        }
      ],
      "stateMutability": "pure",
      "type": "function"
    },
    {
      "inputs": [],
      "name": "roleBNTPoolTokenManager",
      "outputs": [
        {
          "internalType": "bytes32",
          "name": "",
          "type": "bytes32"
        }
      ],
      "stateMutability": "pure",
      "type": "function"
    },
    {
      "inputs": [],
      "name": "roleFundingManager",
      "outputs": [
        {
          "internalType": "bytes32",
          "name": "",
          "type": "bytes32"
        }
      ],
      "stateMutability": "pure",
      "type": "function"
    },
    {
      "inputs": [],
      "name": "roleVaultManager",
      "outputs": [
        {
          "internalType": "bytes32",
          "name": "",
          "type": "bytes32"
        }
      ],
      "stateMutability": "pure",
      "type": "function"
    },
    {
      "inputs": [],
      "name": "stakedBalance",
      "outputs": [
        {
          "internalType": "uint256",
          "name": "",
          "type": "uint256"
        }
      ],
      "stateMutability": "view",
      "type": "function"
    },
    {
      "inputs": [
        {
          "internalType": "bytes4",
          "name": "interfaceId",
          "type": "bytes4"
        }
      ],
      "name": "supportsInterface",
      "outputs": [
        {
          "internalType": "bool",
          "name": "",
          "type": "bool"
        }
      ],
      "stateMutability": "view",
      "type": "function"
    },
    {
      "inputs": [
        {
          "internalType": "uint256",
          "name": "bntAmount",
          "type": "uint256"
        }
      ],
      "name": "underlyingToPoolToken",
      "outputs": [
        {
          "internalType": "uint256",
          "name": "",
          "type": "uint256"
        }
      ],
      "stateMutability": "view",
      "type": "function"
    },
    {
      "inputs": [],
      "name": "unpause",
      "outputs": [],
      "stateMutability": "nonpayable",
      "type": "function"
    },
    {
      "inputs": [],
      "name": "version",
      "outputs": [
        {
          "internalType": "uint16",
          "name": "",
          "type": "uint16"
        }
      ],
      "stateMutability": "pure",
      "type": "function"
    },
    {
      "inputs": [
        {
          "internalType": "bytes32",
          "name": "contextId",
          "type": "bytes32"
        },
        {
          "internalType": "address",
          "name": "provider",
          "type": "address"
        },
        {
          "internalType": "uint256",
          "name": "poolTokenAmount",
          "type": "uint256"
        },
        {
          "internalType": "uint256",
          "name": "bntAmount",
          "type": "uint256"
        }
      ],
      "name": "withdraw",
      "outputs": [
        {
          "internalType": "uint256",
          "name": "",
          "type": "uint256"
        }
      ],
      "stateMutability": "nonpayable",
      "type": "function"
    },
    {
      "inputs": [
        {
          "internalType": "contract Token",
          "name": "token",
          "type": "address"
        },
        {
          "internalType": "address payable",
          "name": "target",
          "type": "address"
        },
        {
          "internalType": "uint256",
          "name": "amount",
          "type": "uint256"
        }
      ],
      "name": "withdrawFunds",
      "outputs": [],
      "stateMutability": "nonpayable",
      "type": "function"
    },
    {
      "inputs": [
        {
          "internalType": "uint256",
          "name": "poolTokenAmount",
          "type": "uint256"
        }
      ],
      "name": "withdrawalAmount",
      "outputs": [
        {
          "internalType": "uint256",
          "name": "",
          "type": "uint256"
        }
      ],
      "stateMutability": "view",
      "type": "function"
    },
    {
      "stateMutability": "payable",
      "type": "receive"
    }
  ],
  "transactionHash": "0x7fc1ec10fab0622cdf9ea3fe82349481e3e835fe8a3434132383c9aa6c6362e2",
  "args": [
    "0xeEF417e1D5CC832e619ae18D2F140De2999dD4fB",
    "0xa489C2b5b36835A327851Ab917A80562B5AFC244",
    "0x0887ae1251E180d7D453aeDEBee26e1639f20113",
    "0x83E1814ba31F7ea95D216204BB45FE75Ce09b14F",
    "0x649765821D9f64198c905eC0B2B037a4a52Bc373",
    "0xAB05Cf7C6c3a288cd36326e4f7b8600e7268E344"
  ],
  "numDeployments": 2,
  "solcInputHash": "f07a18391b227db772e627d1d5a370c5",
  "bytecode": "0x6101806040523480156200001257600080fd5b50604051620040b6380380620040b68339810160408190526200003591620001eb565b8484816200004381620001aa565b816200004f81620001aa565b6001600160a01b03841660a081905260408051637e062a3560e11b8152905163fc0c546a916004808201926020929091908290030181865afa1580156200009a573d6000803e3d6000fd5b505050506040513d601f19601f82011682018060405250810190620000c091906200027f565b6001600160a01b03908116608052831660e081905260408051637e062a3560e11b8152905163fc0c546a916004808201926020929091908290030181865afa15801562000111573d6000803e3d6000fd5b505050506040513d601f19601f820116820180604052508101906200013791906200027f565b6001600160a01b031660c05250889250620001569150829050620001aa565b836200016281620001aa565b836200016e81620001aa565b836200017a81620001aa565b5050506001600160a01b039687166101005250918516610120528416610140529092166101605250620002a69050565b6001600160a01b038116620001d25760405163e6c4247b60e01b815260040160405180910390fd5b50565b6001600160a01b0381168114620001d257600080fd5b60008060008060008060c087890312156200020557600080fd5b86516200021281620001d5565b60208801519096506200022581620001d5565b60408801519095506200023881620001d5565b60608801519094506200024b81620001d5565b60808801519093506200025e81620001d5565b60a08801519092506200027181620001d5565b809150509295509295509295565b6000602082840312156200029257600080fd5b81516200029f81620001d5565b9392505050565b60805160a05160c05160e05161010051610120516101405161016051613cbc620003fa6000396000818161068c015281816109fb01528181610ab001528181610b81015281816110760152818161117201528181611aa601528181611b8401528181611c3b01528181611cbe015281816120ad015281816121630152818161225f015281816123e10152818161292a0152612e48015260008181610bfa01528181610ce90152818161121f015281816112df0152611971015260008181610fcb015281816115870152818161230001526126290152600081816113a301528181611a5e0152611eb401526000818161184401528181611dd10152611f4c01526000611805015260008181610ef9015281816111f00152818161179101528181611d4f0152611fc7015260008181610c2901528181610d350152818161132b01528181611752015261199e0152613cbc6000f3fe60806040526004361061023f5760003560e01c80639010d07c1161012e578063ca15c873116100ab578063e06bf20d1161006f578063e06bf20d14610704578063e404d8ce14610724578063e80e8a7d14610744578063e8ddecba14610764578063fd4d4ad21461079757600080fd5b8063ca15c8731461065d578063cbdf382c1461067d578063ce46e046146106b0578063d547741f146106c4578063d7882fdf146106e457600080fd5b8063a217fddf116100f2578063a217fddf146105ad578063a9c63258146105c2578063b187bd26146105e2578063b89bd433146105f7578063c878ab331461062a57600080fd5b80639010d07c146104e157806391d148541461051957806392bd95ea1461053957806393867fb51461056c5780639dc29fac1461058d57600080fd5b806354fd4d50116101bc5780637c8f622d116101805780637c8f622d146104575780638129fc1c146104775780638456cb591461048c5780638cd2403d146104a15780638d0c7827146104c157600080fd5b806354fd4d50146103cc5780635b9f0016146103e85780635c975abb146103fe578063639c35741461041657806371c0feb71461043757600080fd5b8063248a9ca311610203578063248a9ca3146103275780632f2ff15d1461035757806336568abe146103775780633f4ba83a1461039757806340c10f19146103ac57600080fd5b806301ffc9a71461026457806308fc3385146102995780630f1544c4146102c75780631c20fadd146102e75780631ebda06d1461030757600080fd5b3661025f57604051631574f9f360e01b815260040160405180910390fd5b005b600080fd5b34801561027057600080fd5b5061028461027f3660046136b5565b6107ce565b60405190151581526020015b60405180910390f35b3480156102a557600080fd5b506102b96102b43660046136df565b6107f9565b604051908152602001610290565b3480156102d357600080fd5b506102b96102e23660046136df565b61081e565b3480156102f357600080fd5b5061025d61030236600461370d565b610829565b34801561031357600080fd5b5061025d61032236600461374e565b61099f565b34801561033357600080fd5b506102b96103423660046136df565b60009081526065602052604090206001015490565b34801561036357600080fd5b5061025d610372366004613775565b610dd8565b34801561038357600080fd5b5061025d610392366004613775565b610e03565b3480156103a357600080fd5b5061025d610e81565b3480156103b857600080fd5b5061025d6103c73660046137a5565b610ea3565b3480156103d857600080fd5b5060405160038152602001610290565b3480156103f457600080fd5b5061015f546102b9565b34801561040a57600080fd5b5060fb5460ff16610284565b34801561042257600080fd5b50600080516020613c708339815191526102b9565b34801561044357600080fd5b5061025d61045236600461374e565b610f69565b34801561046357600080fd5b5061025d6104723660046137df565b6113a1565b34801561048357600080fd5b5061025d61142f565b34801561049857600080fd5b5061025d6114f0565b3480156104ad57600080fd5b5061025d6104bc366004613821565b611510565b3480156104cd57600080fd5b506102b96104dc366004613893565b611561565b3480156104ed57600080fd5b506105016104fc3660046138b0565b611611565b6040516001600160a01b039091168152602001610290565b34801561052557600080fd5b50610284610534366004613775565b611630565b34801561054557600080fd5b507f89ce14d20697a788f57260f7690044299bde7ea88cfb7e43d120a0c031f1ffc16102b9565b34801561057857600080fd5b50600080516020613c908339815191526102b9565b34801561059957600080fd5b5061025d6105a83660046137a5565b61165b565b3480156105b957600080fd5b506102b9600081565b3480156105ce57600080fd5b5061025d6105dd3660046136df565b611925565b3480156105ee57600080fd5b506102846119ff565b34801561060357600080fd5b507f473e02917e58ac16ae36b64246942eb4bb4dcf262bc3c3c50359aa9af6bb44f96102b9565b34801561063657600080fd5b507f4cbb5676e6e25e1a3b8a36de10472bcac96f97bd8dd87af6f330881b84739eb86102b9565b34801561066957600080fd5b506102b96106783660046136df565b611a12565b34801561068957600080fd5b507f0000000000000000000000000000000000000000000000000000000000000000610501565b3480156106bc57600080fd5b506000610284565b3480156106d057600080fd5b5061025d6106df366004613775565b611a29565b3480156106f057600080fd5b506102b96106ff3660046136df565b611a4f565b34801561071057600080fd5b506102b961071f3660046138d2565b611a5a565b34801561073057600080fd5b506102b961073f366004613924565b611eb0565b34801561075057600080fd5b506102b961075f3660046136df565b612097565b34801561077057600080fd5b507f0d0d17bf5382c809d9a3899d6a94e57386dfb2036f0401b94ef3cf6c1a9ab73f6102b9565b3480156107a357600080fd5b506102b96107b2366004613893565b6001600160a01b03166000908152610160602052604090205490565b60006001600160e01b03198216635a05180f60e01b14806107f357506107f3826121fd565b92915050565b60008161080581612232565b61081661081184612253565b6122e4565b519392505050565b60006107f382612253565b81610833816123b6565b600261012d540361088b5760405162461bcd60e51b815260206004820152601f60248201527f5265656e7472616e637947756172643a207265656e7472616e742063616c6c0060448201526064015b60405180910390fd5b600261012d5560fb5460ff16156108b45760405162461bcd60e51b815260040161088290613961565b338484846108c4848484846123dd565b6108e157604051634ca8886760e01b815260040160405180910390fd5b851561098f5773eeeeeeeeeeeeeeeeeeeeeeeeeeeeeeeeeeeeeeee6001600160a01b038916036109235761091e6001600160a01b03881687612449565b610937565b6109376001600160a01b0389168888612562565b866001600160a01b0316336001600160a01b0316896001600160a01b03167fc322efa58c9cb2c39cfffdac61d35c8643f5cbf13c6a7d0034de2cf18923aff38960405161098691815260200190565b60405180910390a45b5050600161012d55505050505050565b600080516020613c708339815191526109b881336125e3565b826109c28161260a565b826109cc81612232565b61015f546001600160a01b03861660009081526101606020526040812054906109f582886126b1565b905060007f00000000000000000000000000000000000000000000000000000000000000006001600160a01b03166318160ddd6040518163ffffffff1660e01b8152600401602060405180830381865afa158015610a57573d6000803e3d6000fd5b505050506040513d601f19601f82011682018060405250810190610a7b919061398b565b90506000610a8a8383876126c7565b6040516370a0823160e01b8152306004820152909150610b209082906001600160a01b037f000000000000000000000000000000000000000000000000000000000000000016906370a0823190602401602060405180830381865afa158015610af7573d6000803e3d6000fd5b505050506040513d601f19601f82011682018060405250810190610b1b919061398b565b6126b1565b90506000610b2f8287856126e3565b9050610b3b84866139ba565b6001600160a01b038c1660009081526101606020526040812091909155610b6282886139ba565b61015f819055604051630852cd8d60e31b8152600481018590529091507f00000000000000000000000000000000000000000000000000000000000000006001600160a01b0316906342966c6890602401600060405180830381600087803b158015610bcd57600080fd5b505af1158015610be1573d6000803e3d6000fd5b5050604051632770a7eb60e21b81526001600160a01b037f0000000000000000000000000000000000000000000000000000000000000000169250639dc29fac9150610c53907f0000000000000000000000000000000000000000000000000000000000000000908f906004016139d1565b600060405180830381600087803b158015610c6d57600080fd5b505af1158015610c81573d6000803e3d6000fd5b505050508b6001600160a01b03168d7f343b2618f119491ea746148809f6073b9cbf1ebf15155ad4661dba2f6dd0f4518d86604051610cca929190918252602082015260400190565b60405180910390a36040516370a0823160e01b81526001600160a01b037f0000000000000000000000000000000000000000000000000000000000000000811660048301528e917f78892d9576143a8e05c38de593d7fe77e75be9a9f2047dc5de22e6cec00076bf917f000000000000000000000000000000000000000000000000000000000000000016906370a0823190602401602060405180830381865afa158015610d7c573d6000803e3d6000fd5b505050506040513d601f19601f82011682018060405250810190610da0919061398b565b83610dab87896139ba565b6040805193845260208401929092529082015260600160405180910390a250505050505050505050505050565b600082815260656020526040902060010154610df481336126ff565b610dfe8383612763565b505050565b6001600160a01b0381163314610e735760405162461bcd60e51b815260206004820152602f60248201527f416363657373436f6e74726f6c3a2063616e206f6e6c792072656e6f756e636560448201526e103937b632b9903337b91039b2b63360891b6064820152608401610882565b610e7d8282612785565b5050565b610e99600080516020613c90833981519152336125e3565b610ea16127a7565b565b7f4cbb5676e6e25e1a3b8a36de10472bcac96f97bd8dd87af6f330881b84739eb8610ece81336125e3565b82610ed8816123b6565b82610ee281612232565b6040516340c10f1960e01b81526001600160a01b037f000000000000000000000000000000000000000000000000000000000000000016906340c10f1990610f3090889088906004016139d1565b600060405180830381600087803b158015610f4a57600080fd5b505af1158015610f5e573d6000803e3d6000fd5b505050505050505050565b600080516020613c70833981519152610f8281336125e3565b82610f8c8161260a565b82610f9681612232565b6001600160a01b038581166000818152610160602052604080822054905163467e55df60e01b815260048101939093529290917f00000000000000000000000000000000000000000000000000000000000000009091169063467e55df90602401602060405180830381865afa158015611014573d6000803e3d6000fd5b505050506040513d601f19601f82011682018060405250810190611038919061398b565b9050600061104687846139ea565b90508181111561106957604051632dae22ef60e21b815260040160405180910390fd5b600061015f5490506000807f00000000000000000000000000000000000000000000000000000000000000006001600160a01b03166318160ddd6040518163ffffffff1660e01b8152600401602060405180830381865afa1580156110d2573d6000803e3d6000fd5b505050506040513d601f19601f820116820180604052508101906110f6919061398b565b9050801580156111065750600083115b1561112457604051636a9c61e160e01b815260040160405180910390fd5b61112f8a82856126c7565b9150600061113d8b856139ea565b61015f8190556001600160a01b03808e166000908152610160602052604090819020889055516340c10f1960e01b81529192507f000000000000000000000000000000000000000000000000000000000000000016906340c10f19906111a990309087906004016139d1565b600060405180830381600087803b1580156111c357600080fd5b505af11580156111d7573d6000803e3d6000fd5b50506040516340c10f1960e01b81526001600160a01b037f00000000000000000000000000000000000000000000000000000000000000001692506340c10f199150611249907f0000000000000000000000000000000000000000000000000000000000000000908f906004016139d1565b600060405180830381600087803b15801561126357600080fd5b505af1158015611277573d6000803e3d6000fd5b505050508b6001600160a01b03168d7ffd8684b04dc22a1ff327e3387f1b4a1f6bb6ac801505a61ca0c295a823c6de838d866040516112c0929190918252602082015260400190565b60405180910390a36040516370a0823160e01b81526001600160a01b037f0000000000000000000000000000000000000000000000000000000000000000811660048301528e917f78892d9576143a8e05c38de593d7fe77e75be9a9f2047dc5de22e6cec00076bf917f000000000000000000000000000000000000000000000000000000000000000016906370a0823190602401602060405180830381865afa158015611372573d6000803e3d6000fd5b505050506040513d601f19601f82011682018060405250810190611396919061398b565b83610dab87876139ea565b7f00000000000000000000000000000000000000000000000000000000000000006113cb8161283a565b836113d5816123b6565b8315611428578361015f60008282546113ee91906139ea565b90915550508215611428576001600160a01b03851660009081526101606020526040812080548692906114229084906139ea565b90915550505b5050505050565b600054610100900460ff1661144a5760005460ff161561144e565b303b155b6114b15760405162461bcd60e51b815260206004820152602e60248201527f496e697469616c697a61626c653a20636f6e747261637420697320616c72656160448201526d191e481a5b9a5d1a585b1a5e995960921b6064820152608401610882565b600054610100900460ff161580156114d3576000805461ffff19166101011790555b6114db612863565b80156114ed576000805461ff00191690555b50565b611508600080516020613c90833981519152336125e3565b610ea161289a565b60c9546000906115259061ffff166001613a02565b905061ffff811660031461154b5760405162dc149f60e41b815260040160405180910390fd5b60c9805461ffff191661ffff8316179055505050565b60405163467e55df60e01b81526001600160a01b0382811660048301526000916107f3917f0000000000000000000000000000000000000000000000000000000000000000169063467e55df90602401602060405180830381865afa1580156115ce573d6000803e3d6000fd5b505050506040513d601f19601f820116820180604052508101906115f2919061398b565b6001600160a01b038416600090815261016060205260409020546128f2565b6000828152609760205260408120611629908361290c565b9392505050565b60009182526065602090815260408084206001600160a01b0393909316845291905290205460ff1690565b600261012d54036116ae5760405162461bcd60e51b815260206004820152601f60248201527f5265656e7472616e637947756172643a207265656e7472616e742063616c6c006044820152606401610882565b600261012d5560fb5460ff16156116d75760405162461bcd60e51b815260040161088290613961565b33826000836116e8848484846123dd565b61170557604051634ca8886760e01b815260040160405180910390fd5b84156119175773eeeeeeeeeeeeeeeeeeeeeeeeeeeeeeeeeeeeeeee6001600160a01b038716036117485760405163c1ab6dc160e01b815260040160405180910390fd5b6001600160a01b037f00000000000000000000000000000000000000000000000000000000000000008116908716036117fb57604051630852cd8d60e31b8152600481018690527f00000000000000000000000000000000000000000000000000000000000000006001600160a01b0316906342966c68906024015b600060405180830381600087803b1580156117de57600080fd5b505af11580156117f2573d6000803e3d6000fd5b505050506118d6565b6001600160a01b037f000000000000000000000000000000000000000000000000000000000000000081169087160361187b57604051630852cd8d60e31b8152600481018690527f00000000000000000000000000000000000000000000000000000000000000006001600160a01b0316906342966c68906024016117c4565b604051630852cd8d60e31b8152600481018690526001600160a01b038716906342966c6890602401600060405180830381600087803b1580156118bd57600080fd5b505af11580156118d1573d6000803e3d6000fd5b505050505b60405185815233906001600160a01b038816907fd3fda22e13f8cb743a9ceaca6e14022b6677188d20f3c3047f5c9033e07a4e879060200160405180910390a35b5050600161012d5550505050565b7f0d0d17bf5382c809d9a3899d6a94e57386dfb2036f0401b94ef3cf6c1a9ab73f61195081336125e3565b8161195a81612232565b604051632770a7eb60e21b81526001600160a01b037f00000000000000000000000000000000000000000000000000000000000000001690639dc29fac906119c8907f00000000000000000000000000000000000000000000000000000000000000009087906004016139d1565b600060405180830381600087803b1580156119e257600080fd5b505af11580156119f6573d6000803e3d6000fd5b50505050505050565b6000611a0d60fb5460ff1690565b905090565b60008181526097602052604081206107f390612918565b600082815260656020526040902060010154611a4581336126ff565b610dfe8383612785565b60006107f382612922565b60007f0000000000000000000000000000000000000000000000000000000000000000611a868161283a565b85611a90816123b6565b85611a9a81612232565b600061015f54905060007f00000000000000000000000000000000000000000000000000000000000000006001600160a01b03166318160ddd6040518163ffffffff1660e01b8152600401602060405180830381865afa158015611b02573d6000803e3d6000fd5b505050506040513d601f19601f82011682018060405250810190611b26919061398b565b905080158015611b365750600082115b15611b5457604051636a9c61e160e01b815260040160405180910390fd5b6000611b618a83856126c7565b6040516370a0823160e01b81523060048201529091506000906001600160a01b037f000000000000000000000000000000000000000000000000000000000000000016906370a0823190602401602060405180830381865afa158015611bcb573d6000803e3d6000fd5b505050506040513d601f19601f82011682018060405250810190611bef919061398b565b905080821115611ca7576000611c0582846139ba565b90506000611c148287876126e3565b9050611c2081876139ea565b61015f556040516340c10f1960e01b81526001600160a01b037f000000000000000000000000000000000000000000000000000000000000000016906340c10f1990611c7290309086906004016139d1565b600060405180830381600087803b158015611c8c57600080fd5b505af1158015611ca0573d6000803e3d6000fd5b5050505050505b60405163a9059cbb60e01b81526001600160a01b037f0000000000000000000000000000000000000000000000000000000000000000169063a9059cbb90611cf5908f9086906004016139d1565b6020604051808303816000875af1158015611d14573d6000803e3d6000fd5b505050506040513d601f19601f82011682018060405250810190611d389190613a28565b50604051630852cd8d60e31b8152600481018c90527f00000000000000000000000000000000000000000000000000000000000000006001600160a01b0316906342966c6890602401600060405180830381600087803b158015611d9b57600080fd5b505af1158015611daf573d6000803e3d6000fd5b50849250508b159050611dc957611dc6818b6128f2565b90505b8015611e50577f00000000000000000000000000000000000000000000000000000000000000006001600160a01b03166340c10f198e836040518363ffffffff1660e01b8152600401611e1d9291906139d1565b600060405180830381600087803b158015611e3757600080fd5b505af1158015611e4b573d6000803e3d6000fd5b505050505b604080518d8152602081018590529081018290526001600160a01b038e16908f907f98ac1ba20f9c40c6579f93634a34a46bd425744a5ef297e4c739ba0ce1d7f6b59060600160405180910390a350909c9b505050505050505050505050565b60007f0000000000000000000000000000000000000000000000000000000000000000611edc8161283a565b84611ee6816123b6565b84611ef081612232565b84611efa81612232565b6000611f0588612253565b905080871115611f2857604051633494a40d60e21b815260040160405180910390fd5b6000611f33886122e4565b604051630852cd8d60e31b8152600481018b90529091507f00000000000000000000000000000000000000000000000000000000000000006001600160a01b0316906342966c6890602401600060405180830381600087803b158015611f9857600080fd5b505af1158015611fac573d6000803e3d6000fd5b505082516040516340c10f1960e01b81526001600160a01b037f00000000000000000000000000000000000000000000000000000000000000001693506340c10f199250611ffe918e916004016139d1565b600060405180830381600087803b15801561201857600080fd5b505af115801561202c573d6000803e3d6000fd5b50508251602080850151604080519384529183018e90528282018e90526060830152516001600160a01b038e1693508e92507f2d3e6c9d7b23425696e79d70b11c80ff35e7e65291f79a03f9aef355706863519181900360800190a3519a9950505050505050505050565b6000816000036120a957506000919050565b60007f00000000000000000000000000000000000000000000000000000000000000006001600160a01b03166318160ddd6040518163ffffffff1660e01b8152600401602060405180830381865afa158015612109573d6000803e3d6000fd5b505050506040513d601f19601f8201168201806040525081019061212d919061398b565b9050600061213b8285613a45565b6040516370a0823160e01b81523060048201529091506121f590829084906001600160a01b037f000000000000000000000000000000000000000000000000000000000000000016906370a0823190602401602060405180830381865afa1580156121aa573d6000803e3d6000fd5b505050506040513d601f19601f820116820180604052508101906121ce919061398b565b6121d890866139ba565b61015f546121e69190613a45565b6121f090856139ea565b6129b3565b949350505050565b60006001600160e01b03198216637965db0b60e01b14806107f357506301ffc9a760e01b6001600160e01b03198316146107f3565b806000036114ed57604051637c946ed760e01b815260040160405180910390fd5b60006107f38261015f547f00000000000000000000000000000000000000000000000000000000000000006001600160a01b03166318160ddd6040518163ffffffff1660e01b8152600401602060405180830381865afa1580156122bb573d6000803e3d6000fd5b505050506040513d601f19601f820116820180604052508101906122df919061398b565b6126e3565b6040805180820190915260008082526020820152600061238f837f00000000000000000000000000000000000000000000000000000000000000006001600160a01b0316632aac012c6040518163ffffffff1660e01b8152600401602060405180830381865afa15801561235c573d6000803e3d6000fd5b505050506040513d601f19601f820116820180604052508101906123809190613a64565b63ffffffff16620f42406129b3565b905061239b81846139ba565b60408051808201909152908152602081019190915292915050565b6001600160a01b0381166114ed5760405163e6c4247b60e01b815260040160405180910390fd5b60007f00000000000000000000000000000000000000000000000000000000000000006001600160a01b0390811690851614801561244057506124407f473e02917e58ac16ae36b64246942eb4bb4dcf262bc3c3c50359aa9af6bb44f986611630565b95945050505050565b804710156124995760405162461bcd60e51b815260206004820152601d60248201527f416464726573733a20696e73756666696369656e742062616c616e63650000006044820152606401610882565b6000826001600160a01b03168260405160006040518083038185875af1925050503d80600081146124e6576040519150601f19603f3d011682016040523d82523d6000602084013e6124eb565b606091505b5050905080610dfe5760405162461bcd60e51b815260206004820152603a60248201527f416464726573733a20756e61626c6520746f2073656e642076616c75652c207260448201527f6563697069656e74206d617920686176652072657665727465640000000000006064820152608401610882565b8060000361256f57505050565b73eeeeeeeeeeeeeeeeeeeeeeeeeeeeeeeeeeeeeeee6001600160a01b038416036125cf576040516001600160a01b0383169082156108fc029083906000818181858888f193505050501580156125c9573d6000803e3d6000fd5b50505050565b610dfe6001600160a01b0384168383612a7f565b6125ed8282611630565b610e7d57604051634ca8886760e01b815260040160405180910390fd5b60405163b5af090f60e01b81526001600160a01b0382811660048301527f0000000000000000000000000000000000000000000000000000000000000000169063b5af090f90602401602060405180830381865afa158015612670573d6000803e3d6000fd5b505050506040513d601f19601f820116820180604052508101906126949190613a28565b6114ed57604051630b094f2760e31b815260040160405180910390fd5b60008183106126c05781611629565b5090919050565b6000826000036126d8575082611629565b6121f5848484612ad5565b6000816000036126f4575082611629565b6121f58484846129b3565b6127098282611630565b610e7d57612721816001600160a01b03166014612b25565b61272c836020612b25565b60405160200161273d929190613ab6565b60408051601f198184030181529082905262461bcd60e51b825261088291600401613b2b565b61276d8282612cc1565b6000828152609760205260409020610dfe9082612d47565b61278f8282612d5c565b6000828152609760205260409020610dfe9082612dc3565b60fb5460ff166127f05760405162461bcd60e51b815260206004820152601460248201527314185d5cd8589b194e881b9bdd081c185d5cd95960621b6044820152606401610882565b60fb805460ff191690557f5db9ee0a495bf2e6ff9c91a7834c1ba4fdd244a5e8aa4e537bd38aeae4b073aa335b6040516001600160a01b03909116815260200160405180910390a1565b336001600160a01b038216146114ed57604051634ca8886760e01b815260040160405180910390fd5b600054610100900460ff1661288a5760405162461bcd60e51b815260040161088290613b5e565b612892612dd8565b610ea1612e1f565b60fb5460ff16156128bd5760405162461bcd60e51b815260040161088290613961565b60fb805460ff191660011790557f62e78cea01bee320cd4e420270b5ea74000d11b0c9f74754ebdbfc544b05a25861281d3390565b6000818311612902576000611629565b61162982846139ba565b60006116298383612f87565b60006107f3825490565b60006107f3827f00000000000000000000000000000000000000000000000000000000000000006001600160a01b03166318160ddd6040518163ffffffff1660e01b8152600401602060405180830381865afa158015612986573d6000803e3d6000fd5b505050506040513d601f19601f820116820180604052508101906129aa919061398b565b61015f546126c7565b6000806129c08585612fb1565b80519091506000036129e4578281602001516129dc9190613bbf565b915050611629565b80518311612a0557604051631a93c68960e11b815260040160405180910390fd5b6000612a12868686613038565b90506000612a208383613053565b8051909150600003612a4657848160200151612a3c9190613bbf565b9350505050611629565b6000858103861690612a5883836130d8565b90506000612a6e612a69848a613bbf565b61310f565b919091029998505050505050505050565b610dfe8363a9059cbb60e01b8484604051602401612a9e9291906139d1565b60408051601f198184030181529190526020810180516001600160e01b03166001600160e01b031990931692909217909152613141565b600080612ae38585856129b3565b90506000612af2868686613038565b11156121f5576000198110612b1a57604051631a93c68960e11b815260040160405180910390fd5b6129dc8160016139ea565b60606000612b34836002613a45565b612b3f9060026139ea565b67ffffffffffffffff811115612b5757612b57613be1565b6040519080825280601f01601f191660200182016040528015612b81576020820181803683370190505b509050600360fc1b81600081518110612b9c57612b9c613bf7565b60200101906001600160f81b031916908160001a905350600f60fb1b81600181518110612bcb57612bcb613bf7565b60200101906001600160f81b031916908160001a9053506000612bef846002613a45565b612bfa9060016139ea565b90505b6001811115612c72576f181899199a1a9b1b9c1cb0b131b232b360811b85600f1660108110612c2e57612c2e613bf7565b1a60f81b828281518110612c4457612c44613bf7565b60200101906001600160f81b031916908160001a90535060049490941c93612c6b81613c0d565b9050612bfd565b5083156116295760405162461bcd60e51b815260206004820181905260248201527f537472696e67733a20686578206c656e67746820696e73756666696369656e746044820152606401610882565b612ccb8282611630565b610e7d5760008281526065602090815260408083206001600160a01b03851684529091529020805460ff19166001179055612d033390565b6001600160a01b0316816001600160a01b0316837f2f8788117e7eff1d82e926ec794901d17c78024a50270940304540a733656f0d60405160405180910390a45050565b6000611629836001600160a01b038416613213565b612d668282611630565b15610e7d5760008281526065602090815260408083206001600160a01b0385168085529252808320805460ff1916905551339285917ff6391f5c32d9c69d2a47ea670b442974b53935d1edc7fd64eb21e047a839171b9190a45050565b6000611629836001600160a01b038416613262565b600054610100900460ff16612dff5760405162461bcd60e51b815260040161088290613b5e565b612e07613355565b612e0f61338c565b612e176133bb565b610ea16133ea565b600054610100900460ff16612e465760405162461bcd60e51b815260040161088290613b5e565b7f00000000000000000000000000000000000000000000000000000000000000006001600160a01b03166379ba50976040518163ffffffff1660e01b8152600401600060405180830381600087803b158015612ea157600080fd5b505af1158015612eb5573d6000803e3d6000fd5b50505050612ef17f473e02917e58ac16ae36b64246942eb4bb4dcf262bc3c3c50359aa9af6bb44f9600080516020613c90833981519152613411565b612f297f4cbb5676e6e25e1a3b8a36de10472bcac96f97bd8dd87af6f330881b84739eb8600080516020613c90833981519152613411565b612f617f0d0d17bf5382c809d9a3899d6a94e57386dfb2036f0401b94ef3cf6c1a9ab73f600080516020613c90833981519152613411565b610ea1600080516020613c70833981519152600080516020613c90833981519152613411565b6000826000018281548110612f9e57612f9e613bf7565b9060005260206000200154905092915050565b60408051808201909152600080825260208201526000612fd1848461345c565b90508383028082106130065760405180604001604052808284612ff491906139ba565b815260200182815250925050506107f3565b6040518060400160405280600161301d8585900390565b61302791906139ba565b815260200191909152949350505050565b6000818061304857613048613ba9565b838509949350505050565b6040805180820190915260008082526020820152818360200151106130a05760405180604001604052808460000151815260200183856020015161309791906139ba565b905290506107f3565b6040518060400160405280600185600001516130bc91906139ba565b81526020016130cf856020015185900390565b90529392505050565b6000806130f06130ea84808403613bbf565b60010190565b90508284602001516131029190613bbf565b8451820217949350505050565b60006001815b600881101561313a57838202600203820291508061313281613c24565b915050613115565b5092915050565b6000613196826040518060400160405280602081526020017f5361666545524332303a206c6f772d6c6576656c2063616c6c206661696c6564815250856001600160a01b031661346b9092919063ffffffff16565b805190915015610dfe57808060200190518101906131b49190613a28565b610dfe5760405162461bcd60e51b815260206004820152602a60248201527f5361666545524332303a204552433230206f7065726174696f6e20646964206e6044820152691bdd081cdd58d8d9595960b21b6064820152608401610882565b600081815260018301602052604081205461325a575081546001818101845560008481526020808220909301849055845484825282860190935260409020919091556107f3565b5060006107f3565b6000818152600183016020526040812054801561334b5760006132866001836139ba565b855490915060009061329a906001906139ba565b90508181146132ff5760008660000182815481106132ba576132ba613bf7565b90600052602060002001549050808760000184815481106132dd576132dd613bf7565b6000918252602080832090910192909255918252600188019052604090208390555b855486908061331057613310613c3d565b6001900381819060005260206000200160009055905585600101600086815260200190815260200160002060009055600193505050506107f3565b60009150506107f3565b600054610100900460ff1661337c5760405162461bcd60e51b815260040161088290613b5e565b6133846133ea565b610ea161347a565b600054610100900460ff166133b35760405162461bcd60e51b815260040161088290613b5e565b610ea16134df565b600054610100900460ff166133e25760405162461bcd60e51b815260040161088290613b5e565b610ea1613512565b600054610100900460ff16610ea15760405162461bcd60e51b815260040161088290613b5e565b600082815260656020526040808220600101805490849055905190918391839186917fbd79b86ffe0ab8e8776151514217cd7cacd52c909f66475c3af44e129f0b00ff9190a4505050565b60006000198284099392505050565b60606121f58484600085613541565b600054610100900460ff166134a15760405162461bcd60e51b815260040161088290613b5e565b60c9805461ffff191660011790556134c7600080516020613c9083398151915280613411565b610ea1600080516020613c9083398151915233613672565b600054610100900460ff166135065760405162461bcd60e51b815260040161088290613b5e565b60fb805460ff19169055565b600054610100900460ff166135395760405162461bcd60e51b815260040161088290613b5e565b600161012d55565b6060824710156135a25760405162461bcd60e51b815260206004820152602660248201527f416464726573733a20696e73756666696369656e742062616c616e636520666f6044820152651c8818d85b1b60d21b6064820152608401610882565b6001600160a01b0385163b6135f95760405162461bcd60e51b815260206004820152601d60248201527f416464726573733a2063616c6c20746f206e6f6e2d636f6e74726163740000006044820152606401610882565b600080866001600160a01b031685876040516136159190613c53565b60006040518083038185875af1925050503d8060008114613652576040519150601f19603f3d011682016040523d82523d6000602084013e613657565b606091505b509150915061366782828661367c565b979650505050505050565b610e7d8282612763565b6060831561368b575081611629565b82511561369b5782518084602001fd5b8160405162461bcd60e51b81526004016108829190613b2b565b6000602082840312156136c757600080fd5b81356001600160e01b03198116811461162957600080fd5b6000602082840312156136f157600080fd5b5035919050565b6001600160a01b03811681146114ed57600080fd5b60008060006060848603121561372257600080fd5b833561372d816136f8565b9250602084013561373d816136f8565b929592945050506040919091013590565b60008060006060848603121561376357600080fd5b83359250602084013561373d816136f8565b6000806040838503121561378857600080fd5b82359150602083013561379a816136f8565b809150509250929050565b600080604083850312156137b857600080fd5b82356137c3816136f8565b946020939093013593505050565b80151581146114ed57600080fd5b6000806000606084860312156137f457600080fd5b83356137ff816136f8565b9250602084013591506040840135613816816137d1565b809150509250925092565b6000806020838503121561383457600080fd5b823567ffffffffffffffff8082111561384c57600080fd5b818501915085601f83011261386057600080fd5b81358181111561386f57600080fd5b86602082850101111561388157600080fd5b60209290920196919550909350505050565b6000602082840312156138a557600080fd5b8135611629816136f8565b600080604083850312156138c357600080fd5b50508035926020909101359150565b600080600080600060a086880312156138ea57600080fd5b8535945060208601356138fc816136f8565b9350604086013592506060860135613913816137d1565b949793965091946080013592915050565b6000806000806080858703121561393a57600080fd5b84359350602085013561394c816136f8565b93969395505050506040820135916060013590565b60208082526010908201526f14185d5cd8589b194e881c185d5cd95960821b604082015260600190565b60006020828403121561399d57600080fd5b5051919050565b634e487b7160e01b600052601160045260246000fd5b6000828210156139cc576139cc6139a4565b500390565b6001600160a01b03929092168252602082015260400190565b600082198211156139fd576139fd6139a4565b500190565b600061ffff808316818516808303821115613a1f57613a1f6139a4565b01949350505050565b600060208284031215613a3a57600080fd5b8151611629816137d1565b6000816000190483118215151615613a5f57613a5f6139a4565b500290565b600060208284031215613a7657600080fd5b815163ffffffff8116811461162957600080fd5b60005b83811015613aa5578181015183820152602001613a8d565b838111156125c95750506000910152565b7f416363657373436f6e74726f6c3a206163636f756e7420000000000000000000815260008351613aee816017850160208801613a8a565b7001034b99036b4b9b9b4b733903937b6329607d1b6017918401918201528351613b1f816028840160208801613a8a565b01602801949350505050565b6020815260008251806020840152613b4a816040850160208701613a8a565b601f01601f19169190910160400192915050565b6020808252602b908201527f496e697469616c697a61626c653a20636f6e7472616374206973206e6f74206960408201526a6e697469616c697a696e6760a81b606082015260800190565b634e487b7160e01b600052601260045260246000fd5b600082613bdc57634e487b7160e01b600052601260045260246000fd5b500490565b634e487b7160e01b600052604160045260246000fd5b634e487b7160e01b600052603260045260246000fd5b600081613c1c57613c1c6139a4565b506000190190565b600060018201613c3657613c366139a4565b5060010190565b634e487b7160e01b600052603160045260246000fd5b60008251613c65818460208701613a8a565b919091019291505056feca51b9188e78415f30da725e0d94567b4d65bc6777d4e5d573191e9f55b88a322172861495e7b85edac73e3cd5fbb42dd675baadf627720e687bcfdaca025096a164736f6c634300080d000a",
  "devdoc": {
    "details": "BNT Pool contract",
    "events": {
      "FundingRenounced(bytes32,address,uint256,uint256)": {
        "details": "triggered when funding is renounced"
      },
      "FundingRequested(bytes32,address,uint256,uint256)": {
        "details": "triggered when funding is requested"
      },
      "TokensDeposited(bytes32,address,uint256,uint256,uint256)": {
        "details": "triggered when liquidity is deposited"
      },
      "TokensWithdrawn(bytes32,address,uint256,uint256,uint256,uint256)": {
        "details": "triggered when liquidity is withdrawn"
      },
      "TotalLiquidityUpdated(bytes32,uint256,uint256,uint256)": {
        "details": "triggered when the total liquidity in the BNT pool is updated"
      }
    },
    "kind": "dev",
    "methods": {
      "availableFunding(address)": {
        "details": "returns the available BNT funding for a given pool"
      },
      "burn(address,uint256)": {
        "details": "burns funds held by the contract"
      },
      "burnFromVault(uint256)": {
        "details": "burns BNT from the vault requirements: - the caller must have the ROLE_VAULT_MANAGER role"
      },
      "constructor": {
        "details": "a \"virtual\" constructor that is only used to set immutable state variables"
      },
      "currentPoolFunding(address)": {
        "details": "returns the current funding of given pool"
      },
      "depositFor(bytes32,address,uint256,bool,uint256)": {
        "details": "deposits BNT liquidity on behalf of a specific provider and returns the respective pool token amount requirements: - the caller must be the network contract - BNT tokens must have been already deposited into the contract"
      },
      "getRoleAdmin(bytes32)": {
        "details": "Returns the admin role that controls `role`. See {grantRole} and {revokeRole}. To change a role's admin, use {_setRoleAdmin}."
      },
      "getRoleMember(bytes32,uint256)": {
        "details": "Returns one of the accounts that have `role`. `index` must be a value between 0 and {getRoleMemberCount}, non-inclusive. Role bearers are not sorted in any particular way, and their ordering may change at any point. WARNING: When using {getRoleMember} and {getRoleMemberCount}, make sure you perform all queries on the same block. See the following https://forum.openzeppelin.com/t/iterating-over-elements-on-enumerableset-in-openzeppelin-contracts/2296[forum post] for more information."
      },
      "getRoleMemberCount(bytes32)": {
        "details": "Returns the number of accounts that have `role`. Can be used together with {getRoleMember} to enumerate all bearers of a role."
      },
      "grantRole(bytes32,address)": {
        "details": "Grants `role` to `account`. If `account` had not been already granted `role`, emits a {RoleGranted} event. Requirements: - the caller must have ``role``'s admin role."
      },
      "hasRole(bytes32,address)": {
        "details": "Returns `true` if `account` has been granted `role`."
      },
      "initialize()": {
        "details": "fully initializes the contract and its parents"
      },
      "isPaused()": {
        "details": "returns whether withdrawals are currently paused"
      },
      "isPayable()": {
        "details": "tells whether the vault accepts native token deposits"
      },
      "mint(address,uint256)": {
        "details": "mints BNT to the recipient requirements: - the caller must have the ROLE_BNT_MANAGER role"
      },
      "onFeesCollected(address,uint256,bool)": {
        "details": "notifies the pool of accrued fees requirements: - the caller must be the network contract"
      },
      "pause()": {
        "details": "pauses withdrawals requirements: - the caller must have the ROLE_ADMIN privileges"
      },
      "paused()": {
        "details": "Returns true if the contract is paused, and false otherwise."
      },
      "poolToken()": {
        "details": "returns the BNT pool token contract"
      },
      "poolTokenAmountToBurn(uint256)": {
        "details": "returns the number of pool token to burn in order to increase everyone's underlying value by the specified amount"
      },
      "poolTokenToUnderlying(uint256)": {
        "details": "converts the specified pool token amount to the underlying BNT amount"
      },
      "postUpgrade(bytes)": {
        "details": "performs post-upgrade initialization requirements: - this must can be called only once per-upgrade"
      },
      "renounceFunding(bytes32,address,uint256)": {
        "details": "renounces BNT funding requirements: - the caller must have the ROLE_FUNDING_MANAGER role - the token must have been whitelisted - the average rate of the pool must not deviate too much from its spot rate"
      },
      "renounceRole(bytes32,address)": {
        "details": "Revokes `role` from the calling account. Roles are often managed via {grantRole} and {revokeRole}: this function's purpose is to provide a mechanism for accounts to lose their privileges if they are compromised (such as when a trusted device is misplaced). If the calling account had been revoked `role`, emits a {RoleRevoked} event. Requirements: - the caller must be `account`."
      },
      "requestFunding(bytes32,address,uint256)": {
        "details": "requests BNT funding requirements: - the caller must have the ROLE_FUNDING_MANAGER role - the token must have been whitelisted - the request amount should be below the funding limit for a given pool - the average rate of the pool must not deviate too much from its spot rate"
      },
      "revokeRole(bytes32,address)": {
        "details": "Revokes `role` from `account`. If `account` had been granted `role`, emits a {RoleRevoked} event. Requirements: - the caller must have ``role``'s admin role."
      },
      "roleAdmin()": {
        "details": "returns the admin role"
      },
      "roleAssetManager()": {
        "details": "returns the asset manager role"
      },
      "roleBNTManager()": {
        "details": "returns the BNT manager role"
      },
      "roleBNTPoolTokenManager()": {
        "details": "returns the BNT pool token manager role"
      },
      "roleFundingManager()": {
        "details": "returns the funding manager role"
      },
      "roleVaultManager()": {
        "details": "returns the vault manager role"
      },
      "stakedBalance()": {
        "details": "returns the total staked BNT balance in the network"
      },
      "supportsInterface(bytes4)": {
        "details": "See {IERC165-supportsInterface}."
      },
      "underlyingToPoolToken(uint256)": {
        "details": "converts the specified underlying BNT amount to pool token amount"
      },
      "unpause()": {
        "details": "unpauses withdrawals requirements: - the caller must have the ROLE_ADMIN privileges"
      },
      "withdraw(bytes32,address,uint256,uint256)": {
        "details": "withdraws BNT liquidity on behalf of a specific provider and returns the withdrawn BNT amount requirements: - the caller must be the network contract - bnBNT token must have been already deposited into the contract - vBNT token must have been already deposited into the contract"
      },
      "withdrawFunds(address,address,uint256)": {
        "details": "withdraws funds held by the contract and sends them to an account"
      },
      "withdrawalAmount(uint256)": {
        "details": "returns the withdrawn BNT amount"
      }
    },
    "version": 1
  },
  "userdoc": {
    "kind": "user",
    "methods": {},
    "version": 1
  },
  "storageLayout": {
    "storage": [
      {
        "astId": 644,
        "contract": "contracts/pools/BNTPool.sol:BNTPool",
        "label": "_initialized",
        "offset": 0,
        "slot": "0",
        "type": "t_bool"
      },
      {
        "astId": 647,
        "contract": "contracts/pools/BNTPool.sol:BNTPool",
        "label": "_initializing",
        "offset": 1,
        "slot": "0",
        "type": "t_bool"
      },
      {
        "astId": 1165,
        "contract": "contracts/pools/BNTPool.sol:BNTPool",
        "label": "__gap",
        "offset": 0,
        "slot": "1",
        "type": "t_array(t_uint256)50_storage"
      },
      {
        "astId": 1412,
        "contract": "contracts/pools/BNTPool.sol:BNTPool",
        "label": "__gap",
        "offset": 0,
        "slot": "51",
        "type": "t_array(t_uint256)50_storage"
      },
      {
        "astId": 250,
        "contract": "contracts/pools/BNTPool.sol:BNTPool",
        "label": "_roles",
        "offset": 0,
        "slot": "101",
        "type": "t_mapping(t_bytes32,t_struct(RoleData)245_storage)"
      },
      {
        "astId": 538,
        "contract": "contracts/pools/BNTPool.sol:BNTPool",
        "label": "__gap",
        "offset": 0,
        "slot": "102",
        "type": "t_array(t_uint256)49_storage"
      },
      {
        "astId": 99,
        "contract": "contracts/pools/BNTPool.sol:BNTPool",
        "label": "_roleMembers",
        "offset": 0,
        "slot": "151",
        "type": "t_mapping(t_bytes32,t_struct(AddressSet)1737_storage)"
      },
      {
        "astId": 209,
        "contract": "contracts/pools/BNTPool.sol:BNTPool",
        "label": "__gap",
        "offset": 0,
        "slot": "152",
        "type": "t_array(t_uint256)49_storage"
      },
      {
        "astId": 31577,
        "contract": "contracts/pools/BNTPool.sol:BNTPool",
        "label": "_initializations",
        "offset": 0,
        "slot": "201",
        "type": "t_uint16"
      },
      {
        "astId": 31583,
        "contract": "contracts/pools/BNTPool.sol:BNTPool",
        "label": "__gap",
        "offset": 0,
        "slot": "202",
        "type": "t_array(t_uint256)49_storage"
      },
      {
        "astId": 732,
        "contract": "contracts/pools/BNTPool.sol:BNTPool",
        "label": "_paused",
        "offset": 0,
        "slot": "251",
        "type": "t_bool"
      },
      {
        "astId": 821,
        "contract": "contracts/pools/BNTPool.sol:BNTPool",
        "label": "__gap",
        "offset": 0,
        "slot": "252",
        "type": "t_array(t_uint256)49_storage"
      },
      {
        "astId": 836,
        "contract": "contracts/pools/BNTPool.sol:BNTPool",
        "label": "_status",
        "offset": 0,
        "slot": "301",
        "type": "t_uint256"
      },
      {
        "astId": 880,
        "contract": "contracts/pools/BNTPool.sol:BNTPool",
        "label": "__gap",
        "offset": 0,
        "slot": "302",
        "type": "t_array(t_uint256)49_storage"
      },
      {
        "astId": 17122,
        "contract": "contracts/pools/BNTPool.sol:BNTPool",
        "label": "_stakedBalance",
        "offset": 0,
        "slot": "351",
        "type": "t_uint256"
      },
      {
        "astId": 17127,
        "contract": "contracts/pools/BNTPool.sol:BNTPool",
        "label": "_currentPoolFunding",
        "offset": 0,
        "slot": "352",
        "type": "t_mapping(t_contract(Token)29449,t_uint256)"
      },
      {
        "astId": 17133,
        "contract": "contracts/pools/BNTPool.sol:BNTPool",
        "label": "__gap",
        "offset": 0,
        "slot": "353",
        "type": "t_array(t_uint256)48_storage"
      }
    ],
    "types": {
      "t_address": {
        "encoding": "inplace",
        "label": "address",
        "numberOfBytes": "20"
      },
      "t_array(t_bytes32)dyn_storage": {
        "base": "t_bytes32",
        "encoding": "dynamic_array",
        "label": "bytes32[]",
        "numberOfBytes": "32"
      },
      "t_array(t_uint256)48_storage": {
        "base": "t_uint256",
        "encoding": "inplace",
        "label": "uint256[48]",
        "numberOfBytes": "1536"
      },
      "t_array(t_uint256)49_storage": {
        "base": "t_uint256",
        "encoding": "inplace",
        "label": "uint256[49]",
        "numberOfBytes": "1568"
      },
      "t_array(t_uint256)50_storage": {
        "base": "t_uint256",
        "encoding": "inplace",
        "label": "uint256[50]",
        "numberOfBytes": "1600"
      },
      "t_bool": {
        "encoding": "inplace",
        "label": "bool",
        "numberOfBytes": "1"
      },
      "t_bytes32": {
        "encoding": "inplace",
        "label": "bytes32",
        "numberOfBytes": "32"
      },
      "t_contract(Token)29449": {
        "encoding": "inplace",
        "label": "contract Token",
        "numberOfBytes": "20"
      },
      "t_mapping(t_address,t_bool)": {
        "encoding": "mapping",
        "key": "t_address",
        "label": "mapping(address => bool)",
        "numberOfBytes": "32",
        "value": "t_bool"
      },
      "t_mapping(t_bytes32,t_struct(AddressSet)1737_storage)": {
        "encoding": "mapping",
        "key": "t_bytes32",
        "label": "mapping(bytes32 => struct EnumerableSetUpgradeable.AddressSet)",
        "numberOfBytes": "32",
        "value": "t_struct(AddressSet)1737_storage"
      },
      "t_mapping(t_bytes32,t_struct(RoleData)245_storage)": {
        "encoding": "mapping",
        "key": "t_bytes32",
        "label": "mapping(bytes32 => struct AccessControlUpgradeable.RoleData)",
        "numberOfBytes": "32",
        "value": "t_struct(RoleData)245_storage"
      },
      "t_mapping(t_bytes32,t_uint256)": {
        "encoding": "mapping",
        "key": "t_bytes32",
        "label": "mapping(bytes32 => uint256)",
        "numberOfBytes": "32",
        "value": "t_uint256"
      },
      "t_mapping(t_contract(Token)29449,t_uint256)": {
        "encoding": "mapping",
        "key": "t_contract(Token)29449",
        "label": "mapping(contract Token => uint256)",
        "numberOfBytes": "32",
        "value": "t_uint256"
      },
      "t_struct(AddressSet)1737_storage": {
        "encoding": "inplace",
        "label": "struct EnumerableSetUpgradeable.AddressSet",
        "members": [
          {
            "astId": 1736,
            "contract": "contracts/pools/BNTPool.sol:BNTPool",
            "label": "_inner",
            "offset": 0,
            "slot": "0",
            "type": "t_struct(Set)1436_storage"
          }
        ],
        "numberOfBytes": "64"
      },
      "t_struct(RoleData)245_storage": {
        "encoding": "inplace",
        "label": "struct AccessControlUpgradeable.RoleData",
        "members": [
          {
            "astId": 242,
            "contract": "contracts/pools/BNTPool.sol:BNTPool",
            "label": "members",
            "offset": 0,
            "slot": "0",
            "type": "t_mapping(t_address,t_bool)"
          },
          {
            "astId": 244,
            "contract": "contracts/pools/BNTPool.sol:BNTPool",
            "label": "adminRole",
            "offset": 0,
            "slot": "1",
            "type": "t_bytes32"
          }
        ],
        "numberOfBytes": "64"
      },
      "t_struct(Set)1436_storage": {
        "encoding": "inplace",
        "label": "struct EnumerableSetUpgradeable.Set",
        "members": [
          {
            "astId": 1431,
            "contract": "contracts/pools/BNTPool.sol:BNTPool",
            "label": "_values",
            "offset": 0,
            "slot": "0",
            "type": "t_array(t_bytes32)dyn_storage"
          },
          {
            "astId": 1435,
            "contract": "contracts/pools/BNTPool.sol:BNTPool",
            "label": "_indexes",
            "offset": 0,
            "slot": "1",
            "type": "t_mapping(t_bytes32,t_uint256)"
          }
        ],
        "numberOfBytes": "64"
      },
      "t_uint16": {
        "encoding": "inplace",
        "label": "uint16",
        "numberOfBytes": "2"
      },
      "t_uint256": {
        "encoding": "inplace",
        "label": "uint256",
        "numberOfBytes": "32"
      }
    }
  }
}