{
  "address": "0x9810e2949De1e2c12D576c0D6d7af0f925c07BD8",
  "abi": [
    {
      "inputs": [
        {
          "internalType": "contract IBancorNetwork",
          "name": "initNetwork",
          "type": "address"
        },
        {
          "internalType": "contract ITokenGovernance",
          "name": "initBNTGovernance",
          "type": "address"
        },
        {
          "internalType": "contract ITokenGovernance",
          "name": "initVBNTGovernance",
          "type": "address"
        },
        {
          "internalType": "contract INetworkSettings",
          "name": "initNetworkSettings",
          "type": "address"
        },
        {
          "internalType": "contract IMasterVault",
          "name": "initMasterVault",
          "type": "address"
        },
        {
          "internalType": "contract IPoolToken",
          "name": "initBNTPoolToken",
          "type": "address"
        }
      ],
      "stateMutability": "nonpayable",
      "type": "constructor"
    },
    {
      "inputs": [],
      "name": "AccessDenied",
      "type": "error"
    },
    {
      "inputs": [],
      "name": "AlreadyInitialized",
      "type": "error"
    },
    {
      "inputs": [],
      "name": "FundingLimitExceeded",
      "type": "error"
    },
    {
      "inputs": [],
      "name": "InvalidAddress",
      "type": "error"
    },
    {
      "inputs": [],
      "name": "InvalidStakedBalance",
      "type": "error"
    },
    {
      "inputs": [],
      "name": "InvalidToken",
      "type": "error"
    },
    {
      "inputs": [],
      "name": "NotPayable",
      "type": "error"
    },
    {
      "inputs": [],
      "name": "NotWhitelisted",
      "type": "error"
    },
    {
      "inputs": [],
      "name": "Overflow",
      "type": "error"
    },
    {
      "inputs": [],
      "name": "ZeroValue",
      "type": "error"
    },
    {
      "anonymous": false,
      "inputs": [
        {
          "indexed": true,
          "internalType": "bytes32",
          "name": "contextId",
          "type": "bytes32"
        },
        {
          "indexed": true,
          "internalType": "contract Token",
          "name": "pool",
          "type": "address"
        },
        {
          "indexed": false,
          "internalType": "uint256",
          "name": "bntAmount",
          "type": "uint256"
        },
        {
          "indexed": false,
          "internalType": "uint256",
          "name": "poolTokenAmount",
          "type": "uint256"
        }
      ],
      "name": "FundingRenounced",
      "type": "event"
    },
    {
      "anonymous": false,
      "inputs": [
        {
          "indexed": true,
          "internalType": "bytes32",
          "name": "contextId",
          "type": "bytes32"
        },
        {
          "indexed": true,
          "internalType": "contract Token",
          "name": "pool",
          "type": "address"
        },
        {
          "indexed": false,
          "internalType": "uint256",
          "name": "bntAmount",
          "type": "uint256"
        },
        {
          "indexed": false,
          "internalType": "uint256",
          "name": "poolTokenAmount",
          "type": "uint256"
        }
      ],
      "name": "FundingRequested",
      "type": "event"
    },
    {
      "anonymous": false,
      "inputs": [
        {
          "indexed": true,
          "internalType": "contract Token",
          "name": "token",
          "type": "address"
        },
        {
          "indexed": true,
          "internalType": "address",
          "name": "caller",
          "type": "address"
        },
        {
          "indexed": false,
          "internalType": "uint256",
          "name": "amount",
          "type": "uint256"
        }
      ],
      "name": "FundsBurned",
      "type": "event"
    },
    {
      "anonymous": false,
      "inputs": [
        {
          "indexed": true,
          "internalType": "contract Token",
          "name": "token",
          "type": "address"
        },
        {
          "indexed": true,
          "internalType": "address",
          "name": "caller",
          "type": "address"
        },
        {
          "indexed": true,
          "internalType": "address",
          "name": "target",
          "type": "address"
        },
        {
          "indexed": false,
          "internalType": "uint256",
          "name": "amount",
          "type": "uint256"
        }
      ],
      "name": "FundsWithdrawn",
      "type": "event"
    },
    {
      "anonymous": false,
      "inputs": [
        {
          "indexed": false,
          "internalType": "address",
          "name": "account",
          "type": "address"
        }
      ],
      "name": "Paused",
      "type": "event"
    },
    {
      "anonymous": false,
      "inputs": [
        {
          "indexed": true,
          "internalType": "bytes32",
          "name": "role",
          "type": "bytes32"
        },
        {
          "indexed": true,
          "internalType": "bytes32",
          "name": "previousAdminRole",
          "type": "bytes32"
        },
        {
          "indexed": true,
          "internalType": "bytes32",
          "name": "newAdminRole",
          "type": "bytes32"
        }
      ],
      "name": "RoleAdminChanged",
      "type": "event"
    },
    {
      "anonymous": false,
      "inputs": [
        {
          "indexed": true,
          "internalType": "bytes32",
          "name": "role",
          "type": "bytes32"
        },
        {
          "indexed": true,
          "internalType": "address",
          "name": "account",
          "type": "address"
        },
        {
          "indexed": true,
          "internalType": "address",
          "name": "sender",
          "type": "address"
        }
      ],
      "name": "RoleGranted",
      "type": "event"
    },
    {
      "anonymous": false,
      "inputs": [
        {
          "indexed": true,
          "internalType": "bytes32",
          "name": "role",
          "type": "bytes32"
        },
        {
          "indexed": true,
          "internalType": "address",
          "name": "account",
          "type": "address"
        },
        {
          "indexed": true,
          "internalType": "address",
          "name": "sender",
          "type": "address"
        }
      ],
      "name": "RoleRevoked",
      "type": "event"
    },
    {
      "anonymous": false,
      "inputs": [
        {
          "indexed": true,
          "internalType": "bytes32",
          "name": "contextId",
          "type": "bytes32"
        },
        {
          "indexed": true,
          "internalType": "address",
          "name": "provider",
          "type": "address"
        },
        {
          "indexed": false,
          "internalType": "uint256",
          "name": "bntAmount",
          "type": "uint256"
        },
        {
          "indexed": false,
          "internalType": "uint256",
          "name": "poolTokenAmount",
          "type": "uint256"
        },
        {
          "indexed": false,
          "internalType": "uint256",
          "name": "vbntAmount",
          "type": "uint256"
        }
      ],
      "name": "TokensDeposited",
      "type": "event"
    },
    {
      "anonymous": false,
      "inputs": [
        {
          "indexed": true,
          "internalType": "bytes32",
          "name": "contextId",
          "type": "bytes32"
        },
        {
          "indexed": true,
          "internalType": "address",
          "name": "provider",
          "type": "address"
        },
        {
          "indexed": false,
          "internalType": "uint256",
          "name": "bntAmount",
          "type": "uint256"
        },
        {
          "indexed": false,
          "internalType": "uint256",
          "name": "poolTokenAmount",
          "type": "uint256"
        },
        {
          "indexed": false,
          "internalType": "uint256",
          "name": "vbntAmount",
          "type": "uint256"
        },
        {
          "indexed": false,
          "internalType": "uint256",
          "name": "withdrawalFeeAmount",
          "type": "uint256"
        }
      ],
      "name": "TokensWithdrawn",
      "type": "event"
    },
    {
      "anonymous": false,
      "inputs": [
        {
          "indexed": true,
          "internalType": "bytes32",
          "name": "contextId",
          "type": "bytes32"
        },
        {
          "indexed": false,
          "internalType": "uint256",
          "name": "liquidity",
          "type": "uint256"
        },
        {
          "indexed": false,
          "internalType": "uint256",
          "name": "stakedBalance",
          "type": "uint256"
        },
        {
          "indexed": false,
          "internalType": "uint256",
          "name": "poolTokenSupply",
          "type": "uint256"
        }
      ],
      "name": "TotalLiquidityUpdated",
      "type": "event"
    },
    {
      "anonymous": false,
      "inputs": [
        {
          "indexed": false,
          "internalType": "address",
          "name": "account",
          "type": "address"
        }
      ],
      "name": "Unpaused",
      "type": "event"
    },
    {
      "inputs": [],
      "name": "DEFAULT_ADMIN_ROLE",
      "outputs": [
        {
          "internalType": "bytes32",
          "name": "",
          "type": "bytes32"
        }
      ],
      "stateMutability": "view",
      "type": "function"
    },
    {
      "inputs": [
        {
          "internalType": "contract Token",
          "name": "pool",
          "type": "address"
        }
      ],
      "name": "availableFunding",
      "outputs": [
        {
          "internalType": "uint256",
          "name": "",
          "type": "uint256"
        }
      ],
      "stateMutability": "view",
      "type": "function"
    },
    {
      "inputs": [
        {
          "internalType": "contract Token",
          "name": "token",
          "type": "address"
        },
        {
          "internalType": "uint256",
          "name": "amount",
          "type": "uint256"
        }
      ],
      "name": "burn",
      "outputs": [],
      "stateMutability": "nonpayable",
      "type": "function"
    },
    {
      "inputs": [
        {
          "internalType": "uint256",
          "name": "bntAmount",
          "type": "uint256"
        }
      ],
      "name": "burnFromVault",
      "outputs": [],
      "stateMutability": "nonpayable",
      "type": "function"
    },
    {
      "inputs": [
        {
          "internalType": "contract Token",
          "name": "pool",
          "type": "address"
        }
      ],
      "name": "currentPoolFunding",
      "outputs": [
        {
          "internalType": "uint256",
          "name": "",
          "type": "uint256"
        }
      ],
      "stateMutability": "view",
      "type": "function"
    },
    {
      "inputs": [
        {
          "internalType": "bytes32",
          "name": "contextId",
          "type": "bytes32"
        },
        {
          "internalType": "address",
          "name": "provider",
          "type": "address"
        },
        {
          "internalType": "uint256",
          "name": "bntAmount",
          "type": "uint256"
        },
        {
          "internalType": "bool",
          "name": "isMigrating",
          "type": "bool"
        },
        {
          "internalType": "uint256",
          "name": "originalVBNTAmount",
          "type": "uint256"
        }
      ],
      "name": "depositFor",
      "outputs": [
        {
          "internalType": "uint256",
          "name": "",
          "type": "uint256"
        }
      ],
      "stateMutability": "nonpayable",
      "type": "function"
    },
    {
      "inputs": [
        {
          "internalType": "bytes32",
          "name": "role",
          "type": "bytes32"
        }
      ],
      "name": "getRoleAdmin",
      "outputs": [
        {
          "internalType": "bytes32",
          "name": "",
          "type": "bytes32"
        }
      ],
      "stateMutability": "view",
      "type": "function"
    },
    {
      "inputs": [
        {
          "internalType": "bytes32",
          "name": "role",
          "type": "bytes32"
        },
        {
          "internalType": "uint256",
          "name": "index",
          "type": "uint256"
        }
      ],
      "name": "getRoleMember",
      "outputs": [
        {
          "internalType": "address",
          "name": "",
          "type": "address"
        }
      ],
      "stateMutability": "view",
      "type": "function"
    },
    {
      "inputs": [
        {
          "internalType": "bytes32",
          "name": "role",
          "type": "bytes32"
        }
      ],
      "name": "getRoleMemberCount",
      "outputs": [
        {
          "internalType": "uint256",
          "name": "",
          "type": "uint256"
        }
      ],
      "stateMutability": "view",
      "type": "function"
    },
    {
      "inputs": [
        {
          "internalType": "bytes32",
          "name": "role",
          "type": "bytes32"
        },
        {
          "internalType": "address",
          "name": "account",
          "type": "address"
        }
      ],
      "name": "grantRole",
      "outputs": [],
      "stateMutability": "nonpayable",
      "type": "function"
    },
    {
      "inputs": [
        {
          "internalType": "bytes32",
          "name": "role",
          "type": "bytes32"
        },
        {
          "internalType": "address",
          "name": "account",
          "type": "address"
        }
      ],
      "name": "hasRole",
      "outputs": [
        {
          "internalType": "bool",
          "name": "",
          "type": "bool"
        }
      ],
      "stateMutability": "view",
      "type": "function"
    },
    {
      "inputs": [],
      "name": "initialize",
      "outputs": [],
      "stateMutability": "nonpayable",
      "type": "function"
    },
    {
      "inputs": [],
      "name": "isPaused",
      "outputs": [
        {
          "internalType": "bool",
          "name": "",
          "type": "bool"
        }
      ],
      "stateMutability": "view",
      "type": "function"
    },
    {
      "inputs": [],
      "name": "isPayable",
      "outputs": [
        {
          "internalType": "bool",
          "name": "",
          "type": "bool"
        }
      ],
      "stateMutability": "pure",
      "type": "function"
    },
    {
      "inputs": [
        {
          "internalType": "address",
          "name": "recipient",
          "type": "address"
        },
        {
          "internalType": "uint256",
          "name": "bntAmount",
          "type": "uint256"
        }
      ],
      "name": "mint",
      "outputs": [],
      "stateMutability": "nonpayable",
      "type": "function"
    },
    {
      "inputs": [
        {
          "internalType": "contract Token",
          "name": "pool",
          "type": "address"
        },
        {
          "internalType": "uint256",
          "name": "feeAmount",
          "type": "uint256"
        },
        {
          "internalType": "bool",
          "name": "isTradeFee",
          "type": "bool"
        }
      ],
      "name": "onFeesCollected",
      "outputs": [],
      "stateMutability": "nonpayable",
      "type": "function"
    },
    {
      "inputs": [],
      "name": "pause",
      "outputs": [],
      "stateMutability": "nonpayable",
      "type": "function"
    },
    {
      "inputs": [],
      "name": "paused",
      "outputs": [
        {
          "internalType": "bool",
          "name": "",
          "type": "bool"
        }
      ],
      "stateMutability": "view",
      "type": "function"
    },
    {
      "inputs": [],
      "name": "poolToken",
      "outputs": [
        {
          "internalType": "contract IPoolToken",
          "name": "",
          "type": "address"
        }
      ],
      "stateMutability": "view",
      "type": "function"
    },
    {
      "inputs": [
        {
          "internalType": "uint256",
          "name": "bntAmountToDistribute",
          "type": "uint256"
        }
      ],
      "name": "poolTokenAmountToBurn",
      "outputs": [
        {
          "internalType": "uint256",
          "name": "",
          "type": "uint256"
        }
      ],
      "stateMutability": "view",
      "type": "function"
    },
    {
      "inputs": [
        {
          "internalType": "uint256",
          "name": "poolTokenAmount",
          "type": "uint256"
        }
      ],
      "name": "poolTokenToUnderlying",
      "outputs": [
        {
          "internalType": "uint256",
          "name": "",
          "type": "uint256"
        }
      ],
      "stateMutability": "view",
      "type": "function"
    },
    {
      "inputs": [
        {
          "internalType": "bytes",
          "name": "data",
          "type": "bytes"
        }
      ],
      "name": "postUpgrade",
      "outputs": [],
      "stateMutability": "nonpayable",
      "type": "function"
    },
    {
      "inputs": [
        {
          "internalType": "bytes32",
          "name": "contextId",
          "type": "bytes32"
        },
        {
          "internalType": "contract Token",
          "name": "pool",
          "type": "address"
        },
        {
          "internalType": "uint256",
          "name": "bntAmount",
          "type": "uint256"
        }
      ],
      "name": "renounceFunding",
      "outputs": [],
      "stateMutability": "nonpayable",
      "type": "function"
    },
    {
      "inputs": [
        {
          "internalType": "bytes32",
          "name": "role",
          "type": "bytes32"
        },
        {
          "internalType": "address",
          "name": "account",
          "type": "address"
        }
      ],
      "name": "renounceRole",
      "outputs": [],
      "stateMutability": "nonpayable",
      "type": "function"
    },
    {
      "inputs": [
        {
          "internalType": "bytes32",
          "name": "contextId",
          "type": "bytes32"
        },
        {
          "internalType": "contract Token",
          "name": "pool",
          "type": "address"
        },
        {
          "internalType": "uint256",
          "name": "bntAmount",
          "type": "uint256"
        }
      ],
      "name": "requestFunding",
      "outputs": [],
      "stateMutability": "nonpayable",
      "type": "function"
    },
    {
      "inputs": [
        {
          "internalType": "bytes32",
          "name": "role",
          "type": "bytes32"
        },
        {
          "internalType": "address",
          "name": "account",
          "type": "address"
        }
      ],
      "name": "revokeRole",
      "outputs": [],
      "stateMutability": "nonpayable",
      "type": "function"
    },
    {
      "inputs": [],
      "name": "roleAdmin",
      "outputs": [
        {
          "internalType": "bytes32",
          "name": "",
          "type": "bytes32"
        }
      ],
      "stateMutability": "pure",
      "type": "function"
    },
    {
      "inputs": [],
      "name": "roleAssetManager",
      "outputs": [
        {
          "internalType": "bytes32",
          "name": "",
          "type": "bytes32"
        }
      ],
      "stateMutability": "pure",
      "type": "function"
    },
    {
      "inputs": [],
      "name": "roleBNTManager",
      "outputs": [
        {
          "internalType": "bytes32",
          "name": "",
          "type": "bytes32"
        }
      ],
      "stateMutability": "pure",
      "type": "function"
    },
    {
      "inputs": [],
      "name": "roleBNTPoolTokenManager",
      "outputs": [
        {
          "internalType": "bytes32",
          "name": "",
          "type": "bytes32"
        }
      ],
      "stateMutability": "pure",
      "type": "function"
    },
    {
      "inputs": [],
      "name": "roleFundingManager",
      "outputs": [
        {
          "internalType": "bytes32",
          "name": "",
          "type": "bytes32"
        }
      ],
      "stateMutability": "pure",
      "type": "function"
    },
    {
      "inputs": [],
      "name": "roleVaultManager",
      "outputs": [
        {
          "internalType": "bytes32",
          "name": "",
          "type": "bytes32"
        }
      ],
      "stateMutability": "pure",
      "type": "function"
    },
    {
      "inputs": [],
      "name": "stakedBalance",
      "outputs": [
        {
          "internalType": "uint256",
          "name": "",
          "type": "uint256"
        }
      ],
      "stateMutability": "view",
      "type": "function"
    },
    {
      "inputs": [
        {
          "internalType": "bytes4",
          "name": "interfaceId",
          "type": "bytes4"
        }
      ],
      "name": "supportsInterface",
      "outputs": [
        {
          "internalType": "bool",
          "name": "",
          "type": "bool"
        }
      ],
      "stateMutability": "view",
      "type": "function"
    },
    {
      "inputs": [
        {
          "internalType": "uint256",
          "name": "bntAmount",
          "type": "uint256"
        }
      ],
      "name": "underlyingToPoolToken",
      "outputs": [
        {
          "internalType": "uint256",
          "name": "",
          "type": "uint256"
        }
      ],
      "stateMutability": "view",
      "type": "function"
    },
    {
      "inputs": [],
      "name": "unpause",
      "outputs": [],
      "stateMutability": "nonpayable",
      "type": "function"
    },
    {
      "inputs": [],
      "name": "version",
      "outputs": [
        {
          "internalType": "uint16",
          "name": "",
          "type": "uint16"
        }
      ],
      "stateMutability": "pure",
      "type": "function"
    },
    {
      "inputs": [
        {
          "internalType": "bytes32",
          "name": "contextId",
          "type": "bytes32"
        },
        {
          "internalType": "address",
          "name": "provider",
          "type": "address"
        },
        {
          "internalType": "uint256",
          "name": "poolTokenAmount",
          "type": "uint256"
        }
      ],
      "name": "withdraw",
      "outputs": [
        {
          "internalType": "uint256",
          "name": "",
          "type": "uint256"
        }
      ],
      "stateMutability": "nonpayable",
      "type": "function"
    },
    {
      "inputs": [
        {
          "internalType": "contract Token",
          "name": "token",
          "type": "address"
        },
        {
          "internalType": "address payable",
          "name": "target",
          "type": "address"
        },
        {
          "internalType": "uint256",
          "name": "amount",
          "type": "uint256"
        }
      ],
      "name": "withdrawFunds",
      "outputs": [],
      "stateMutability": "nonpayable",
      "type": "function"
    },
    {
      "inputs": [
        {
          "internalType": "uint256",
          "name": "poolTokenAmount",
          "type": "uint256"
        }
      ],
      "name": "withdrawalAmount",
      "outputs": [
        {
          "internalType": "uint256",
          "name": "",
          "type": "uint256"
        }
      ],
      "stateMutability": "view",
      "type": "function"
    },
    {
      "stateMutability": "payable",
      "type": "receive"
    }
  ],
  "transactionHash": "0xcd7ec97afdfe2e40e12360dbf7e055d92a23bf46ff4a8c5e077cb194a1784bbe",
  "args": [
    "0xeEF417e1D5CC832e619ae18D2F140De2999dD4fB",
    "0xa489C2b5b36835A327851Ab917A80562B5AFC244",
    "0x0887ae1251E180d7D453aeDEBee26e1639f20113",
    "0x83E1814ba31F7ea95D216204BB45FE75Ce09b14F",
    "0x649765821D9f64198c905eC0B2B037a4a52Bc373",
    "0xAB05Cf7C6c3a288cd36326e4f7b8600e7268E344"
  ],
  "numDeployments": 1,
  "solcInputHash": "5b93454da0d19532f3d57b46d6368097",
  "bytecode": "0x6101806040523480156200001257600080fd5b5060405162003e1338038062003e138339810160408190526200003591620001eb565b8484816200004381620001aa565b816200004f81620001aa565b6001600160a01b03841660a081905260408051637e062a3560e11b8152905163fc0c546a916004808201926020929091908290030181865afa1580156200009a573d6000803e3d6000fd5b505050506040513d601f19601f82011682018060405250810190620000c091906200027f565b6001600160a01b03908116608052831660e081905260408051637e062a3560e11b8152905163fc0c546a916004808201926020929091908290030181865afa15801562000111573d6000803e3d6000fd5b505050506040513d601f19601f820116820180604052508101906200013791906200027f565b6001600160a01b031660c05250889250620001569150829050620001aa565b836200016281620001aa565b836200016e81620001aa565b836200017a81620001aa565b5050506001600160a01b039687166101005250918516610120528416610140529092166101605250620002a69050565b6001600160a01b038116620001d25760405163e6c4247b60e01b815260040160405180910390fd5b50565b6001600160a01b0381168114620001d257600080fd5b60008060008060008060c087890312156200020557600080fd5b86516200021281620001d5565b60208801519096506200022581620001d5565b60408801519095506200023881620001d5565b60608801519094506200024b81620001d5565b60808801519093506200025e81620001d5565b60a08801519092506200027181620001d5565b809150509295509295509295565b6000602082840312156200029257600080fd5b81516200029f81620001d5565b9392505050565b60805160a05160c05160e05161010051610120516101405161016051613a2e620003e5600039600081816106ac015281816109f601528181610ad701528181610fc8015281816110d50152818161191a01528181611ca001528181611e9b01528181611f510152818161212d015281816121d8015281816126f60152612c10015260008181610b7f01528181610c3a01528181611146015281816112370152611b70015260008181610f1d0152818161150c0152818161206a0152612420015260008181611328015281816118ae0152611c300152600081816117c9015281816119a60152611dcc0152600061178a015260008181610e58015281816111750152818161171601528181611a310152611d26015260008181610b5001528181610c8601528181611283015281816116d70152611b410152613a2e6000f3fe60806040526004361061023f5760003560e01c80639010d07c1161012e578063c878ab33116100ab578063d7882fdf1161006f578063d7882fdf14610704578063e06bf20d14610724578063e80e8a7d14610744578063e8ddecba14610764578063fd4d4ad21461079757600080fd5b8063c878ab331461064a578063ca15c8731461067d578063cbdf382c1461069d578063ce46e046146106d0578063d547741f146106e457600080fd5b8063a217fddf116100f2578063a217fddf146105ad578063a6fb97d1146105c2578063a9c63258146105e2578063b187bd2614610602578063b89bd4331461061757600080fd5b80639010d07c146104e157806391d148541461051957806392bd95ea1461053957806393867fb51461056c5780639dc29fac1461058d57600080fd5b806354fd4d50116101bc5780637c8f622d116101805780637c8f622d146104575780638129fc1c146104775780638456cb591461048c5780638cd2403d146104a15780638d0c7827146104c157600080fd5b806354fd4d50146103cc5780635b9f0016146103e85780635c975abb146103fe578063639c35741461041657806371c0feb71461043757600080fd5b8063248a9ca311610203578063248a9ca3146103275780632f2ff15d1461035757806336568abe146103775780633f4ba83a1461039757806340c10f19146103ac57600080fd5b806301ffc9a71461026457806308fc3385146102995780630f1544c4146102c75780631c20fadd146102e75780631ebda06d1461030757600080fd5b3661025f57604051631574f9f360e01b815260040160405180910390fd5b005b600080fd5b34801561027057600080fd5b5061028461027f36600461347d565b6107ce565b60405190151581526020015b60405180910390f35b3480156102a557600080fd5b506102b96102b43660046134a7565b6107f9565b604051908152602001610290565b3480156102d357600080fd5b506102b96102e23660046134a7565b610819565b3480156102f357600080fd5b5061025d6103023660046134d5565b610824565b34801561031357600080fd5b5061025d610322366004613516565b61099a565b34801561033357600080fd5b506102b96103423660046134a7565b60009081526065602052604090206001015490565b34801561036357600080fd5b5061025d61037236600461353d565b610d28565b34801561038357600080fd5b5061025d61039236600461353d565b610d53565b3480156103a357600080fd5b5061025d610dd1565b3480156103b857600080fd5b5061025d6103c736600461356d565b610df3565b3480156103d857600080fd5b5060405160018152602001610290565b3480156103f457600080fd5b5061015f546102b9565b34801561040a57600080fd5b5060fb5460ff16610284565b34801561042257600080fd5b506000805160206139e28339815191526102b9565b34801561044357600080fd5b5061025d610452366004613516565b610ebb565b34801561046357600080fd5b5061025d6104723660046135a7565b611326565b34801561048357600080fd5b5061025d6113b4565b34801561049857600080fd5b5061025d611475565b3480156104ad57600080fd5b5061025d6104bc3660046135e9565b611495565b3480156104cd57600080fd5b506102b96104dc36600461365b565b6114e6565b3480156104ed57600080fd5b506105016104fc366004613678565b611596565b6040516001600160a01b039091168152602001610290565b34801561052557600080fd5b5061028461053436600461353d565b6115b5565b34801561054557600080fd5b507f89ce14d20697a788f57260f7690044299bde7ea88cfb7e43d120a0c031f1ffc16102b9565b34801561057857600080fd5b50600080516020613a028339815191526102b9565b34801561059957600080fd5b5061025d6105a836600461356d565b6115e0565b3480156105b957600080fd5b506102b9600081565b3480156105ce57600080fd5b506102b96105dd366004613516565b6118aa565b3480156105ee57600080fd5b5061025d6105fd3660046134a7565b611af5565b34801561060e57600080fd5b50610284611bd1565b34801561062357600080fd5b507f473e02917e58ac16ae36b64246942eb4bb4dcf262bc3c3c50359aa9af6bb44f96102b9565b34801561065657600080fd5b507f4cbb5676e6e25e1a3b8a36de10472bcac96f97bd8dd87af6f330881b84739eb86102b9565b34801561068957600080fd5b506102b96106983660046134a7565b611be4565b3480156106a957600080fd5b507f0000000000000000000000000000000000000000000000000000000000000000610501565b3480156106dc57600080fd5b506000610284565b3480156106f057600080fd5b5061025d6106ff36600461353d565b611bfb565b34801561071057600080fd5b506102b961071f3660046134a7565b611c21565b34801561073057600080fd5b506102b961073f36600461369a565b611c2c565b34801561075057600080fd5b506102b961075f3660046134a7565b611e85565b34801561077057600080fd5b507f0d0d17bf5382c809d9a3899d6a94e57386dfb2036f0401b94ef3cf6c1a9ab73f6102b9565b3480156107a357600080fd5b506102b96107b236600461365b565b6001600160a01b03166000908152610160602052604090205490565b60006001600160e01b03198216635a05180f60e01b14806107f357506107f382611feb565b92915050565b60008161080581612020565b600061081084612041565b51949350505050565b60006107f382612121565b8161082e816121ad565b600261012d54036108865760405162461bcd60e51b815260206004820152601f60248201527f5265656e7472616e637947756172643a207265656e7472616e742063616c6c0060448201526064015b60405180910390fd5b600261012d5560fb5460ff16156108af5760405162461bcd60e51b815260040161087d906136ec565b338484846108bf848484846121d4565b6108dc57604051634ca8886760e01b815260040160405180910390fd5b851561098a5773eeeeeeeeeeeeeeeeeeeeeeeeeeeeeeeeeeeeeeee6001600160a01b0389160361091e576109196001600160a01b03881687612240565b610932565b6109326001600160a01b0389168888612359565b866001600160a01b0316336001600160a01b0316896001600160a01b03167fc322efa58c9cb2c39cfffdac61d35c8643f5cbf13c6a7d0034de2cf18923aff38960405161098191815260200190565b60405180910390a45b5050600161012d55505050505050565b6000805160206139e28339815191526109b381336123da565b826109bd81612401565b826109c781612020565b61015f546001600160a01b03861660009081526101606020526040812054906109f082886124a8565b905060007f00000000000000000000000000000000000000000000000000000000000000006001600160a01b03166318160ddd6040518163ffffffff1660e01b8152600401602060405180830381865afa158015610a52573d6000803e3d6000fd5b505050506040513d601f19601f82011682018060405250810190610a769190613716565b90506000610a858383876124be565b9050610a918385613745565b6001600160a01b038b1660009081526101606020526040812091909155610ab88487613745565b61015f819055604051630852cd8d60e31b8152600481018490529091507f00000000000000000000000000000000000000000000000000000000000000006001600160a01b0316906342966c6890602401600060405180830381600087803b158015610b2357600080fd5b505af1158015610b37573d6000803e3d6000fd5b5050604051632770a7eb60e21b81526001600160a01b037f000000000000000000000000000000000000000000000000000000000000000081166004830152602482018e90527f0000000000000000000000000000000000000000000000000000000000000000169250639dc29fac9150604401600060405180830381600087803b158015610bc557600080fd5b505af1158015610bd9573d6000803e3d6000fd5b5050604080518d8152602081018690526001600160a01b038f1693508f92507f343b2618f119491ea746148809f6073b9cbf1ebf15155ad4661dba2f6dd0f451910160405180910390a36040516370a0823160e01b81526001600160a01b037f0000000000000000000000000000000000000000000000000000000000000000811660048301528d917f78892d9576143a8e05c38de593d7fe77e75be9a9f2047dc5de22e6cec00076bf917f000000000000000000000000000000000000000000000000000000000000000016906370a0823190602401602060405180830381865afa158015610ccd573d6000803e3d6000fd5b505050506040513d601f19601f82011682018060405250810190610cf19190613716565b83610cfc8688613745565b6040805193845260208401929092529082015260600160405180910390a2505050505050505050505050565b600082815260656020526040902060010154610d4481336124cb565b610d4e838361252f565b505050565b6001600160a01b0381163314610dc35760405162461bcd60e51b815260206004820152602f60248201527f416363657373436f6e74726f6c3a2063616e206f6e6c792072656e6f756e636560448201526e103937b632b9903337b91039b2b63360891b606482015260840161087d565b610dcd8282612551565b5050565b610de9600080516020613a02833981519152336123da565b610df1612573565b565b7f4cbb5676e6e25e1a3b8a36de10472bcac96f97bd8dd87af6f330881b84739eb8610e1e81336123da565b82610e28816121ad565b82610e3281612020565b6040516340c10f1960e01b81526001600160a01b038681166004830152602482018690527f000000000000000000000000000000000000000000000000000000000000000016906340c10f1990604401600060405180830381600087803b158015610e9c57600080fd5b505af1158015610eb0573d6000803e3d6000fd5b505050505050505050565b6000805160206139e2833981519152610ed481336123da565b82610ede81612401565b82610ee881612020565b6001600160a01b038581166000818152610160602052604080822054905163467e55df60e01b815260048101939093529290917f00000000000000000000000000000000000000000000000000000000000000009091169063467e55df90602401602060405180830381865afa158015610f66573d6000803e3d6000fd5b505050506040513d601f19601f82011682018060405250810190610f8a9190613716565b90506000610f98878461375c565b905081811115610fbb57604051632dae22ef60e21b815260040160405180910390fd5b600061015f5490506000807f00000000000000000000000000000000000000000000000000000000000000006001600160a01b03166318160ddd6040518163ffffffff1660e01b8152600401602060405180830381865afa158015611024573d6000803e3d6000fd5b505050506040513d601f19601f820116820180604052508101906110489190613716565b90508060000361107957821561107157604051636a9c61e160e01b815260040160405180910390fd5b899150611087565b6110848a82856124be565b91505b60006110938b8561375c565b61015f8190556001600160a01b038d81166000908152610160602052604090819020889055516340c10f1960e01b8152306004820152602481018690529192507f000000000000000000000000000000000000000000000000000000000000000016906340c10f1990604401600060405180830381600087803b15801561111957600080fd5b505af115801561112d573d6000803e3d6000fd5b50506040516340c10f1960e01b81526001600160a01b037f000000000000000000000000000000000000000000000000000000000000000081166004830152602482018f90527f00000000000000000000000000000000000000000000000000000000000000001692506340c10f199150604401600060405180830381600087803b1580156111bb57600080fd5b505af11580156111cf573d6000803e3d6000fd5b505050508b6001600160a01b03168d7ffd8684b04dc22a1ff327e3387f1b4a1f6bb6ac801505a61ca0c295a823c6de838d86604051611218929190918252602082015260400190565b60405180910390a36040516370a0823160e01b81526001600160a01b037f0000000000000000000000000000000000000000000000000000000000000000811660048301528e917f78892d9576143a8e05c38de593d7fe77e75be9a9f2047dc5de22e6cec00076bf917f000000000000000000000000000000000000000000000000000000000000000016906370a0823190602401602060405180830381865afa1580156112ca573d6000803e3d6000fd5b505050506040513d601f19601f820116820180604052508101906112ee9190613716565b836112f9878761375c565b6040805193845260208401929092529082015260600160405180910390a250505050505050505050505050565b7f000000000000000000000000000000000000000000000000000000000000000061135081612606565b8361135a816121ad565b83156113ad578361015f6000828254611373919061375c565b909155505082156113ad576001600160a01b03851660009081526101606020526040812080548692906113a790849061375c565b90915550505b5050505050565b600054610100900460ff166113cf5760005460ff16156113d3565b303b155b6114365760405162461bcd60e51b815260206004820152602e60248201527f496e697469616c697a61626c653a20636f6e747261637420697320616c72656160448201526d191e481a5b9a5d1a585b1a5e995960921b606482015260840161087d565b600054610100900460ff16158015611458576000805461ffff19166101011790555b61146061262f565b8015611472576000805461ff00191690555b50565b61148d600080516020613a02833981519152336123da565b610df1612666565b60c9546000906114aa9061ffff166001613774565b905061ffff81166001146114d05760405162dc149f60e41b815260040160405180910390fd5b60c9805461ffff191661ffff8316179055505050565b60405163467e55df60e01b81526001600160a01b0382811660048301526000916107f3917f0000000000000000000000000000000000000000000000000000000000000000169063467e55df90602401602060405180830381865afa158015611553573d6000803e3d6000fd5b505050506040513d601f19601f820116820180604052508101906115779190613716565b6001600160a01b038416600090815261016060205260409020546126be565b60008281526097602052604081206115ae90836126d8565b9392505050565b60009182526065602090815260408084206001600160a01b0393909316845291905290205460ff1690565b600261012d54036116335760405162461bcd60e51b815260206004820152601f60248201527f5265656e7472616e637947756172643a207265656e7472616e742063616c6c00604482015260640161087d565b600261012d5560fb5460ff161561165c5760405162461bcd60e51b815260040161087d906136ec565b338260008361166d848484846121d4565b61168a57604051634ca8886760e01b815260040160405180910390fd5b841561189c5773eeeeeeeeeeeeeeeeeeeeeeeeeeeeeeeeeeeeeeee6001600160a01b038716036116cd5760405163c1ab6dc160e01b815260040160405180910390fd5b6001600160a01b037f000000000000000000000000000000000000000000000000000000000000000081169087160361178057604051630852cd8d60e31b8152600481018690527f00000000000000000000000000000000000000000000000000000000000000006001600160a01b0316906342966c68906024015b600060405180830381600087803b15801561176357600080fd5b505af1158015611777573d6000803e3d6000fd5b5050505061185b565b6001600160a01b037f000000000000000000000000000000000000000000000000000000000000000081169087160361180057604051630852cd8d60e31b8152600481018690527f00000000000000000000000000000000000000000000000000000000000000006001600160a01b0316906342966c6890602401611749565b604051630852cd8d60e31b8152600481018690526001600160a01b038716906342966c6890602401600060405180830381600087803b15801561184257600080fd5b505af1158015611856573d6000803e3d6000fd5b505050505b60405185815233906001600160a01b038816907fd3fda22e13f8cb743a9ceaca6e14022b6677188d20f3c3047f5c9033e07a4e879060200160405180910390a35b5050600161012d5550505050565b60007f00000000000000000000000000000000000000000000000000000000000000006118d681612606565b836118e0816121ad565b836118ea81612020565b60006118f586612041565b6040516323b872dd60e01b8152336004820152306024820152604481018890529091507f00000000000000000000000000000000000000000000000000000000000000006001600160a01b0316906323b872dd906064016020604051808303816000875af115801561196b573d6000803e3d6000fd5b505050506040513d601f19601f8201168201806040525081019061198f919061379a565b50604051630852cd8d60e31b8152600481018790527f00000000000000000000000000000000000000000000000000000000000000006001600160a01b0316906342966c6890602401600060405180830381600087803b1580156119f257600080fd5b505af1158015611a06573d6000803e3d6000fd5b505082516040516340c10f1960e01b81526001600160a01b038b8116600483015260248201929092527f000000000000000000000000000000000000000000000000000000000000000090911692506340c10f199150604401600060405180830381600087803b158015611a7957600080fd5b505af1158015611a8d573d6000803e3d6000fd5b50508251602080850151604080519384529183018b90528282018b90526060830152516001600160a01b038b1693508b92507f2d3e6c9d7b23425696e79d70b11c80ff35e7e65291f79a03f9aef355706863519181900360800190a351979650505050505050565b7f0d0d17bf5382c809d9a3899d6a94e57386dfb2036f0401b94ef3cf6c1a9ab73f611b2081336123da565b81611b2a81612020565b604051632770a7eb60e21b81526001600160a01b037f000000000000000000000000000000000000000000000000000000000000000081166004830152602482018590527f00000000000000000000000000000000000000000000000000000000000000001690639dc29fac90604401600060405180830381600087803b158015611bb457600080fd5b505af1158015611bc8573d6000803e3d6000fd5b50505050505050565b6000611bdf60fb5460ff1690565b905090565b60008181526097602052604081206107f3906126e4565b600082815260656020526040902060010154611c1781336124cb565b610d4e8383612551565b60006107f3826126ee565b60007f0000000000000000000000000000000000000000000000000000000000000000611c5881612606565b85611c62816121ad565b85611c6c81612020565b6000611c77886126ee565b60405163a9059cbb60e01b81526001600160a01b038b81166004830152602482018390529192507f00000000000000000000000000000000000000000000000000000000000000009091169063a9059cbb906044016020604051808303816000875af1158015611ceb573d6000803e3d6000fd5b505050506040513d601f19601f82011682018060405250810190611d0f919061379a565b50604051630852cd8d60e31b8152600481018990527f00000000000000000000000000000000000000000000000000000000000000006001600160a01b0316906342966c6890602401600060405180830381600087803b158015611d7257600080fd5b505af1158015611d86573d6000803e3d6000fd5b508392505088159050611da057611d9d81886126be565b90505b8015611e29576040516340c10f1960e01b81526001600160a01b038b81166004830152602482018390527f000000000000000000000000000000000000000000000000000000000000000016906340c10f1990604401600060405180830381600087803b158015611e1057600080fd5b505af1158015611e24573d6000803e3d6000fd5b505050505b604080518a8152602081018490529081018290526001600160a01b038b16908c907f98ac1ba20f9c40c6579f93634a34a46bd425744a5ef297e4c739ba0ce1d7f6b59060600160405180910390a3509998505050505050505050565b600081600003611e9757506000919050565b60007f00000000000000000000000000000000000000000000000000000000000000006001600160a01b03166318160ddd6040518163ffffffff1660e01b8152600401602060405180830381865afa158015611ef7573d6000803e3d6000fd5b505050506040513d601f19601f82011682018060405250810190611f1b9190613716565b90506000611f2982856137b7565b6040516370a0823160e01b8152306004820152909150611fe390829084906001600160a01b037f000000000000000000000000000000000000000000000000000000000000000016906370a0823190602401602060405180830381865afa158015611f98573d6000803e3d6000fd5b505050506040513d601f19601f82011682018060405250810190611fbc9190613716565b611fc69086613745565b61015f54611fd491906137b7565b611fde908561375c565b61277f565b949350505050565b60006001600160e01b03198216637965db0b60e01b14806107f357506301ffc9a760e01b6001600160e01b03198316146107f3565b8060000361147257604051637c946ed760e01b815260040160405180910390fd5b6040805180820190915260008082526020820152600061206083612121565b905060006120f9827f00000000000000000000000000000000000000000000000000000000000000006001600160a01b0316632aac012c6040518163ffffffff1660e01b8152600401602060405180830381865afa1580156120c6573d6000803e3d6000fd5b505050506040513d601f19601f820116820180604052508101906120ea91906137d6565b63ffffffff16620f424061277f565b90506121058183613745565b6040805180820190915290815260208101919091529392505050565b60006107f38261015f547f00000000000000000000000000000000000000000000000000000000000000006001600160a01b03166318160ddd6040518163ffffffff1660e01b8152600401602060405180830381865afa158015612189573d6000803e3d6000fd5b505050506040513d601f19601f82011682018060405250810190611fde9190613716565b6001600160a01b0381166114725760405163e6c4247b60e01b815260040160405180910390fd5b60007f00000000000000000000000000000000000000000000000000000000000000006001600160a01b0390811690851614801561223757506122377f473e02917e58ac16ae36b64246942eb4bb4dcf262bc3c3c50359aa9af6bb44f9866115b5565b95945050505050565b804710156122905760405162461bcd60e51b815260206004820152601d60248201527f416464726573733a20696e73756666696369656e742062616c616e6365000000604482015260640161087d565b6000826001600160a01b03168260405160006040518083038185875af1925050503d80600081146122dd576040519150601f19603f3d011682016040523d82523d6000602084013e6122e2565b606091505b5050905080610d4e5760405162461bcd60e51b815260206004820152603a60248201527f416464726573733a20756e61626c6520746f2073656e642076616c75652c207260448201527f6563697069656e74206d61792068617665207265766572746564000000000000606482015260840161087d565b8060000361236657505050565b73eeeeeeeeeeeeeeeeeeeeeeeeeeeeeeeeeeeeeeee6001600160a01b038416036123c6576040516001600160a01b0383169082156108fc029083906000818181858888f193505050501580156123c0573d6000803e3d6000fd5b50505050565b610d4e6001600160a01b038416838361284b565b6123e482826115b5565b610dcd57604051634ca8886760e01b815260040160405180910390fd5b60405163b5af090f60e01b81526001600160a01b0382811660048301527f0000000000000000000000000000000000000000000000000000000000000000169063b5af090f90602401602060405180830381865afa158015612467573d6000803e3d6000fd5b505050506040513d601f19601f8201168201806040525081019061248b919061379a565b61147257604051630b094f2760e31b815260040160405180910390fd5b60008183106124b757816115ae565b5090919050565b6000611fe384848461289d565b6124d582826115b5565b610dcd576124ed816001600160a01b031660146128ed565b6124f88360206128ed565b604051602001612509929190613828565b60408051601f198184030181529082905262461bcd60e51b825261087d9160040161389d565b6125398282612a89565b6000828152609760205260409020610d4e9082612b0f565b61255b8282612b24565b6000828152609760205260409020610d4e9082612b8b565b60fb5460ff166125bc5760405162461bcd60e51b815260206004820152601460248201527314185d5cd8589b194e881b9bdd081c185d5cd95960621b604482015260640161087d565b60fb805460ff191690557f5db9ee0a495bf2e6ff9c91a7834c1ba4fdd244a5e8aa4e537bd38aeae4b073aa335b6040516001600160a01b03909116815260200160405180910390a1565b336001600160a01b0382161461147257604051634ca8886760e01b815260040160405180910390fd5b600054610100900460ff166126565760405162461bcd60e51b815260040161087d906138d0565b61265e612ba0565b610df1612be7565b60fb5460ff16156126895760405162461bcd60e51b815260040161087d906136ec565b60fb805460ff191660011790557f62e78cea01bee320cd4e420270b5ea74000d11b0c9f74754ebdbfc544b05a2586125e93390565b60008183116126ce5760006115ae565b6115ae8284613745565b60006115ae8383612d4f565b60006107f3825490565b60006107f3827f00000000000000000000000000000000000000000000000000000000000000006001600160a01b03166318160ddd6040518163ffffffff1660e01b8152600401602060405180830381865afa158015612752573d6000803e3d6000fd5b505050506040513d601f19601f820116820180604052508101906127769190613716565b61015f546124be565b60008061278c8585612d79565b80519091506000036127b0578281602001516127a89190613931565b9150506115ae565b805183116127d157604051631a93c68960e11b815260040160405180910390fd5b60006127de868686612e00565b905060006127ec8383612e1b565b8051909150600003612812578481602001516128089190613931565b93505050506115ae565b60008581038616906128248383612ea0565b9050600061283a612835848a613931565b612ed7565b919091029998505050505050505050565b604080516001600160a01b038416602482015260448082018490528251808303909101815260649091019091526020810180516001600160e01b031663a9059cbb60e01b179052610d4e908490612f09565b6000806128ab85858561277f565b905060006128ba868686612e00565b1115611fe35760001981106128e257604051631a93c68960e11b815260040160405180910390fd5b6127a881600161375c565b606060006128fc8360026137b7565b61290790600261375c565b67ffffffffffffffff81111561291f5761291f613953565b6040519080825280601f01601f191660200182016040528015612949576020820181803683370190505b509050600360fc1b8160008151811061296457612964613969565b60200101906001600160f81b031916908160001a905350600f60fb1b8160018151811061299357612993613969565b60200101906001600160f81b031916908160001a90535060006129b78460026137b7565b6129c290600161375c565b90505b6001811115612a3a576f181899199a1a9b1b9c1cb0b131b232b360811b85600f16601081106129f6576129f6613969565b1a60f81b828281518110612a0c57612a0c613969565b60200101906001600160f81b031916908160001a90535060049490941c93612a338161397f565b90506129c5565b5083156115ae5760405162461bcd60e51b815260206004820181905260248201527f537472696e67733a20686578206c656e67746820696e73756666696369656e74604482015260640161087d565b612a9382826115b5565b610dcd5760008281526065602090815260408083206001600160a01b03851684529091529020805460ff19166001179055612acb3390565b6001600160a01b0316816001600160a01b0316837f2f8788117e7eff1d82e926ec794901d17c78024a50270940304540a733656f0d60405160405180910390a45050565b60006115ae836001600160a01b038416612fdb565b612b2e82826115b5565b15610dcd5760008281526065602090815260408083206001600160a01b0385168085529252808320805460ff1916905551339285917ff6391f5c32d9c69d2a47ea670b442974b53935d1edc7fd64eb21e047a839171b9190a45050565b60006115ae836001600160a01b03841661302a565b600054610100900460ff16612bc75760405162461bcd60e51b815260040161087d906138d0565b612bcf61311d565b612bd7613154565b612bdf613183565b610df16131b2565b600054610100900460ff16612c0e5760405162461bcd60e51b815260040161087d906138d0565b7f00000000000000000000000000000000000000000000000000000000000000006001600160a01b03166379ba50976040518163ffffffff1660e01b8152600401600060405180830381600087803b158015612c6957600080fd5b505af1158015612c7d573d6000803e3d6000fd5b50505050612cb97f473e02917e58ac16ae36b64246942eb4bb4dcf262bc3c3c50359aa9af6bb44f9600080516020613a028339815191526131d9565b612cf17f4cbb5676e6e25e1a3b8a36de10472bcac96f97bd8dd87af6f330881b84739eb8600080516020613a028339815191526131d9565b612d297f0d0d17bf5382c809d9a3899d6a94e57386dfb2036f0401b94ef3cf6c1a9ab73f600080516020613a028339815191526131d9565b610df16000805160206139e2833981519152600080516020613a028339815191526131d9565b6000826000018281548110612d6657612d66613969565b9060005260206000200154905092915050565b60408051808201909152600080825260208201526000612d998484613224565b9050838302808210612dce5760405180604001604052808284612dbc9190613745565b815260200182815250925050506107f3565b60405180604001604052806001612de58585900390565b612def9190613745565b815260200191909152949350505050565b60008180612e1057612e1061391b565b838509949350505050565b604080518082019091526000808252602082015281836020015110612e6857604051806040016040528084600001518152602001838560200151612e5f9190613745565b905290506107f3565b604051806040016040528060018560000151612e849190613745565b8152602001612e97856020015185900390565b90529392505050565b600080612eb8612eb284808403613931565b60010190565b9050828460200151612eca9190613931565b8451820217949350505050565b60006001815b6008811015612f02578382026002038202915080612efa81613996565b915050612edd565b5092915050565b6000612f5e826040518060400160405280602081526020017f5361666545524332303a206c6f772d6c6576656c2063616c6c206661696c6564815250856001600160a01b03166132339092919063ffffffff16565b805190915015610d4e5780806020019051810190612f7c919061379a565b610d4e5760405162461bcd60e51b815260206004820152602a60248201527f5361666545524332303a204552433230206f7065726174696f6e20646964206e6044820152691bdd081cdd58d8d9595960b21b606482015260840161087d565b6000818152600183016020526040812054613022575081546001818101845560008481526020808220909301849055845484825282860190935260409020919091556107f3565b5060006107f3565b6000818152600183016020526040812054801561311357600061304e600183613745565b855490915060009061306290600190613745565b90508181146130c757600086600001828154811061308257613082613969565b90600052602060002001549050808760000184815481106130a5576130a5613969565b6000918252602080832090910192909255918252600188019052604090208390555b85548690806130d8576130d86139af565b6001900381819060005260206000200160009055905585600101600086815260200190815260200160002060009055600193505050506107f3565b60009150506107f3565b600054610100900460ff166131445760405162461bcd60e51b815260040161087d906138d0565b61314c6131b2565b610df1613242565b600054610100900460ff1661317b5760405162461bcd60e51b815260040161087d906138d0565b610df16132a7565b600054610100900460ff166131aa5760405162461bcd60e51b815260040161087d906138d0565b610df16132da565b600054610100900460ff16610df15760405162461bcd60e51b815260040161087d906138d0565b600082815260656020526040808220600101805490849055905190918391839186917fbd79b86ffe0ab8e8776151514217cd7cacd52c909f66475c3af44e129f0b00ff9190a4505050565b60006000198284099392505050565b6060611fe38484600085613309565b600054610100900460ff166132695760405162461bcd60e51b815260040161087d906138d0565b60c9805461ffff1916600117905561328f600080516020613a02833981519152806131d9565b610df1600080516020613a028339815191523361343a565b600054610100900460ff166132ce5760405162461bcd60e51b815260040161087d906138d0565b60fb805460ff19169055565b600054610100900460ff166133015760405162461bcd60e51b815260040161087d906138d0565b600161012d55565b60608247101561336a5760405162461bcd60e51b815260206004820152602660248201527f416464726573733a20696e73756666696369656e742062616c616e636520666f6044820152651c8818d85b1b60d21b606482015260840161087d565b6001600160a01b0385163b6133c15760405162461bcd60e51b815260206004820152601d60248201527f416464726573733a2063616c6c20746f206e6f6e2d636f6e7472616374000000604482015260640161087d565b600080866001600160a01b031685876040516133dd91906139c5565b60006040518083038185875af1925050503d806000811461341a576040519150601f19603f3d011682016040523d82523d6000602084013e61341f565b606091505b509150915061342f828286613444565b979650505050505050565b610dcd828261252f565b606083156134535750816115ae565b8251156134635782518084602001fd5b8160405162461bcd60e51b815260040161087d919061389d565b60006020828403121561348f57600080fd5b81356001600160e01b0319811681146115ae57600080fd5b6000602082840312156134b957600080fd5b5035919050565b6001600160a01b038116811461147257600080fd5b6000806000606084860312156134ea57600080fd5b83356134f5816134c0565b92506020840135613505816134c0565b929592945050506040919091013590565b60008060006060848603121561352b57600080fd5b833592506020840135613505816134c0565b6000806040838503121561355057600080fd5b823591506020830135613562816134c0565b809150509250929050565b6000806040838503121561358057600080fd5b823561358b816134c0565b946020939093013593505050565b801515811461147257600080fd5b6000806000606084860312156135bc57600080fd5b83356135c7816134c0565b92506020840135915060408401356135de81613599565b809150509250925092565b600080602083850312156135fc57600080fd5b823567ffffffffffffffff8082111561361457600080fd5b818501915085601f83011261362857600080fd5b81358181111561363757600080fd5b86602082850101111561364957600080fd5b60209290920196919550909350505050565b60006020828403121561366d57600080fd5b81356115ae816134c0565b6000806040838503121561368b57600080fd5b50508035926020909101359150565b600080600080600060a086880312156136b257600080fd5b8535945060208601356136c4816134c0565b93506040860135925060608601356136db81613599565b949793965091946080013592915050565b60208082526010908201526f14185d5cd8589b194e881c185d5cd95960821b604082015260600190565b60006020828403121561372857600080fd5b5051919050565b634e487b7160e01b600052601160045260246000fd5b6000828210156137575761375761372f565b500390565b6000821982111561376f5761376f61372f565b500190565b600061ffff8083168185168083038211156137915761379161372f565b01949350505050565b6000602082840312156137ac57600080fd5b81516115ae81613599565b60008160001904831182151516156137d1576137d161372f565b500290565b6000602082840312156137e857600080fd5b815163ffffffff811681146115ae57600080fd5b60005b838110156138175781810151838201526020016137ff565b838111156123c05750506000910152565b7f416363657373436f6e74726f6c3a206163636f756e74200000000000000000008152600083516138608160178501602088016137fc565b7001034b99036b4b9b9b4b733903937b6329607d1b60179184019182015283516138918160288401602088016137fc565b01602801949350505050565b60208152600082518060208401526138bc8160408501602087016137fc565b601f01601f19169190910160400192915050565b6020808252602b908201527f496e697469616c697a61626c653a20636f6e7472616374206973206e6f74206960408201526a6e697469616c697a696e6760a81b606082015260800190565b634e487b7160e01b600052601260045260246000fd5b60008261394e57634e487b7160e01b600052601260045260246000fd5b500490565b634e487b7160e01b600052604160045260246000fd5b634e487b7160e01b600052603260045260246000fd5b60008161398e5761398e61372f565b506000190190565b6000600182016139a8576139a861372f565b5060010190565b634e487b7160e01b600052603160045260246000fd5b600082516139d78184602087016137fc565b919091019291505056feca51b9188e78415f30da725e0d94567b4d65bc6777d4e5d573191e9f55b88a322172861495e7b85edac73e3cd5fbb42dd675baadf627720e687bcfdaca025096a164736f6c634300080d000a",
  "devdoc": {
    "details": "BNT Pool contract",
    "events": {
      "FundingRenounced(bytes32,address,uint256,uint256)": {
        "details": "triggered when funding is renounced"
      },
      "FundingRequested(bytes32,address,uint256,uint256)": {
        "details": "triggered when funding is requested"
      },
      "TokensDeposited(bytes32,address,uint256,uint256,uint256)": {
        "details": "triggered when liquidity is deposited"
      },
      "TokensWithdrawn(bytes32,address,uint256,uint256,uint256,uint256)": {
        "details": "triggered when liquidity is withdrawn"
      },
      "TotalLiquidityUpdated(bytes32,uint256,uint256,uint256)": {
        "details": "triggered when the total liquidity in the BNT pool is updated"
      }
    },
    "kind": "dev",
    "methods": {
      "availableFunding(address)": {
        "details": "returns the available BNT funding for a given pool"
      },
      "burn(address,uint256)": {
        "details": "burns funds held by the contract"
      },
      "burnFromVault(uint256)": {
        "details": "burns BNT from the vault requirements: - the caller must have the ROLE_VAULT_MANAGER role"
      },
      "constructor": {
        "details": "a \"virtual\" constructor that is only used to set immutable state variables"
      },
      "currentPoolFunding(address)": {
        "details": "returns the current funding of given pool"
      },
      "depositFor(bytes32,address,uint256,bool,uint256)": {
        "details": "deposits BNT liquidity on behalf of a specific provider and returns the respective pool token amount requirements: - the caller must be the network contract - BNT tokens must have been already deposited into the contract"
      },
      "getRoleAdmin(bytes32)": {
        "details": "Returns the admin role that controls `role`. See {grantRole} and {revokeRole}. To change a role's admin, use {_setRoleAdmin}."
      },
      "getRoleMember(bytes32,uint256)": {
        "details": "Returns one of the accounts that have `role`. `index` must be a value between 0 and {getRoleMemberCount}, non-inclusive. Role bearers are not sorted in any particular way, and their ordering may change at any point. WARNING: When using {getRoleMember} and {getRoleMemberCount}, make sure you perform all queries on the same block. See the following https://forum.openzeppelin.com/t/iterating-over-elements-on-enumerableset-in-openzeppelin-contracts/2296[forum post] for more information."
      },
      "getRoleMemberCount(bytes32)": {
        "details": "Returns the number of accounts that have `role`. Can be used together with {getRoleMember} to enumerate all bearers of a role."
      },
      "grantRole(bytes32,address)": {
        "details": "Grants `role` to `account`. If `account` had not been already granted `role`, emits a {RoleGranted} event. Requirements: - the caller must have ``role``'s admin role."
      },
      "hasRole(bytes32,address)": {
        "details": "Returns `true` if `account` has been granted `role`."
      },
      "initialize()": {
        "details": "fully initializes the contract and its parents"
      },
      "isPaused()": {
        "details": "returns whether withdrawals are currently paused"
      },
      "isPayable()": {
        "details": "tells whether the vault accepts native token deposits"
      },
      "mint(address,uint256)": {
        "details": "mints BNT to the recipient requirements: - the caller must have the ROLE_BNT_MANAGER role"
      },
      "onFeesCollected(address,uint256,bool)": {
        "details": "notifies the pool of accrued fees requirements: - the caller must be the network contract"
      },
      "pause()": {
        "details": "pauses withdrawals requirements: - the caller must have the ROLE_ADMIN privileges"
      },
      "paused()": {
        "details": "Returns true if the contract is paused, and false otherwise."
      },
      "poolToken()": {
        "details": "returns the BNT pool token contract"
      },
      "poolTokenAmountToBurn(uint256)": {
        "details": "returns the number of pool token to burn in order to increase everyone's underlying value by the specified amount"
      },
      "poolTokenToUnderlying(uint256)": {
        "details": "converts the specified pool token amount to the underlying BNT amount"
      },
      "postUpgrade(bytes)": {
        "details": "performs post-upgrade initialization requirements: - this must can be called only once per-upgrade"
      },
      "renounceFunding(bytes32,address,uint256)": {
        "details": "renounces BNT funding requirements: - the caller must have the ROLE_FUNDING_MANAGER role - the token must have been whitelisted - the average rate of the pool must not deviate too much from its spot rate"
      },
      "renounceRole(bytes32,address)": {
        "details": "Revokes `role` from the calling account. Roles are often managed via {grantRole} and {revokeRole}: this function's purpose is to provide a mechanism for accounts to lose their privileges if they are compromised (such as when a trusted device is misplaced). If the calling account had been revoked `role`, emits a {RoleRevoked} event. Requirements: - the caller must be `account`."
      },
      "requestFunding(bytes32,address,uint256)": {
        "details": "requests BNT funding requirements: - the caller must have the ROLE_FUNDING_MANAGER role - the token must have been whitelisted - the request amount should be below the funding limit for a given pool - the average rate of the pool must not deviate too much from its spot rate"
      },
      "revokeRole(bytes32,address)": {
        "details": "Revokes `role` from `account`. If `account` had been granted `role`, emits a {RoleRevoked} event. Requirements: - the caller must have ``role``'s admin role."
      },
      "roleAdmin()": {
        "details": "returns the admin role"
      },
      "roleAssetManager()": {
        "details": "returns the asset manager role"
      },
      "roleBNTManager()": {
        "details": "returns the BNT manager role"
      },
      "roleBNTPoolTokenManager()": {
        "details": "returns the BNT pool token manager role"
      },
      "roleFundingManager()": {
        "details": "returns the funding manager role"
      },
      "roleVaultManager()": {
        "details": "returns the vault manager role"
      },
      "stakedBalance()": {
        "details": "returns the total staked BNT balance in the network"
      },
      "supportsInterface(bytes4)": {
        "details": "See {IERC165-supportsInterface}."
      },
      "underlyingToPoolToken(uint256)": {
        "details": "converts the specified underlying BNT amount to pool token amount"
      },
      "unpause()": {
        "details": "unpauses withdrawals requirements: - the caller must have the ROLE_ADMIN privileges"
      },
      "withdraw(bytes32,address,uint256)": {
        "details": "withdraws BNT liquidity on behalf of a specific provider and returns the withdrawn BNT amount requirements: - the caller must be the network contract - VBNT token must have been already deposited into the contract"
      },
      "withdrawFunds(address,address,uint256)": {
        "details": "withdraws funds held by the contract and sends them to an account"
      },
      "withdrawalAmount(uint256)": {
        "details": "returns the withdrawn BNT amount"
      }
    },
    "version": 1
  },
  "userdoc": {
    "kind": "user",
    "methods": {},
    "version": 1
  },
  "storageLayout": {
    "storage": [
      {
        "astId": 644,
        "contract": "contracts/pools/BNTPool.sol:BNTPool",
        "label": "_initialized",
        "offset": 0,
        "slot": "0",
        "type": "t_bool"
      },
      {
        "astId": 647,
        "contract": "contracts/pools/BNTPool.sol:BNTPool",
        "label": "_initializing",
        "offset": 1,
        "slot": "0",
        "type": "t_bool"
      },
      {
        "astId": 1165,
        "contract": "contracts/pools/BNTPool.sol:BNTPool",
        "label": "__gap",
        "offset": 0,
        "slot": "1",
        "type": "t_array(t_uint256)50_storage"
      },
      {
        "astId": 1412,
        "contract": "contracts/pools/BNTPool.sol:BNTPool",
        "label": "__gap",
        "offset": 0,
        "slot": "51",
        "type": "t_array(t_uint256)50_storage"
      },
      {
        "astId": 250,
        "contract": "contracts/pools/BNTPool.sol:BNTPool",
        "label": "_roles",
        "offset": 0,
        "slot": "101",
        "type": "t_mapping(t_bytes32,t_struct(RoleData)245_storage)"
      },
      {
        "astId": 538,
        "contract": "contracts/pools/BNTPool.sol:BNTPool",
        "label": "__gap",
        "offset": 0,
        "slot": "102",
        "type": "t_array(t_uint256)49_storage"
      },
      {
        "astId": 99,
        "contract": "contracts/pools/BNTPool.sol:BNTPool",
        "label": "_roleMembers",
        "offset": 0,
        "slot": "151",
        "type": "t_mapping(t_bytes32,t_struct(AddressSet)1737_storage)"
      },
      {
        "astId": 209,
        "contract": "contracts/pools/BNTPool.sol:BNTPool",
        "label": "__gap",
        "offset": 0,
        "slot": "152",
        "type": "t_array(t_uint256)49_storage"
      },
      {
        "astId": 31197,
        "contract": "contracts/pools/BNTPool.sol:BNTPool",
        "label": "_initializations",
        "offset": 0,
        "slot": "201",
        "type": "t_uint16"
      },
      {
        "astId": 31203,
        "contract": "contracts/pools/BNTPool.sol:BNTPool",
        "label": "__gap",
        "offset": 0,
        "slot": "202",
        "type": "t_array(t_uint256)49_storage"
      },
      {
        "astId": 732,
        "contract": "contracts/pools/BNTPool.sol:BNTPool",
        "label": "_paused",
        "offset": 0,
        "slot": "251",
        "type": "t_bool"
      },
      {
        "astId": 821,
        "contract": "contracts/pools/BNTPool.sol:BNTPool",
        "label": "__gap",
        "offset": 0,
        "slot": "252",
        "type": "t_array(t_uint256)49_storage"
      },
      {
        "astId": 836,
        "contract": "contracts/pools/BNTPool.sol:BNTPool",
        "label": "_status",
        "offset": 0,
        "slot": "301",
        "type": "t_uint256"
      },
      {
        "astId": 880,
        "contract": "contracts/pools/BNTPool.sol:BNTPool",
        "label": "__gap",
        "offset": 0,
        "slot": "302",
        "type": "t_array(t_uint256)49_storage"
      },
      {
        "astId": 18438,
        "contract": "contracts/pools/BNTPool.sol:BNTPool",
        "label": "_stakedBalance",
        "offset": 0,
        "slot": "351",
        "type": "t_uint256"
      },
      {
        "astId": 18443,
        "contract": "contracts/pools/BNTPool.sol:BNTPool",
        "label": "_currentPoolFunding",
        "offset": 0,
        "slot": "352",
        "type": "t_mapping(t_contract(Token)29105,t_uint256)"
      },
      {
        "astId": 18449,
        "contract": "contracts/pools/BNTPool.sol:BNTPool",
        "label": "__gap",
        "offset": 0,
        "slot": "353",
        "type": "t_array(t_uint256)48_storage"
      }
    ],
    "types": {
      "t_address": {
        "encoding": "inplace",
        "label": "address",
        "numberOfBytes": "20"
      },
      "t_array(t_bytes32)dyn_storage": {
        "base": "t_bytes32",
        "encoding": "dynamic_array",
        "label": "bytes32[]",
        "numberOfBytes": "32"
      },
      "t_array(t_uint256)48_storage": {
        "base": "t_uint256",
        "encoding": "inplace",
        "label": "uint256[48]",
        "numberOfBytes": "1536"
      },
      "t_array(t_uint256)49_storage": {
        "base": "t_uint256",
        "encoding": "inplace",
        "label": "uint256[49]",
        "numberOfBytes": "1568"
      },
      "t_array(t_uint256)50_storage": {
        "base": "t_uint256",
        "encoding": "inplace",
        "label": "uint256[50]",
        "numberOfBytes": "1600"
      },
      "t_bool": {
        "encoding": "inplace",
        "label": "bool",
        "numberOfBytes": "1"
      },
      "t_bytes32": {
        "encoding": "inplace",
        "label": "bytes32",
        "numberOfBytes": "32"
      },
      "t_contract(Token)29105": {
        "encoding": "inplace",
        "label": "contract Token",
        "numberOfBytes": "20"
      },
      "t_mapping(t_address,t_bool)": {
        "encoding": "mapping",
        "key": "t_address",
        "label": "mapping(address => bool)",
        "numberOfBytes": "32",
        "value": "t_bool"
      },
      "t_mapping(t_bytes32,t_struct(AddressSet)1737_storage)": {
        "encoding": "mapping",
        "key": "t_bytes32",
        "label": "mapping(bytes32 => struct EnumerableSetUpgradeable.AddressSet)",
        "numberOfBytes": "32",
        "value": "t_struct(AddressSet)1737_storage"
      },
      "t_mapping(t_bytes32,t_struct(RoleData)245_storage)": {
        "encoding": "mapping",
        "key": "t_bytes32",
        "label": "mapping(bytes32 => struct AccessControlUpgradeable.RoleData)",
        "numberOfBytes": "32",
        "value": "t_struct(RoleData)245_storage"
      },
      "t_mapping(t_bytes32,t_uint256)": {
        "encoding": "mapping",
        "key": "t_bytes32",
        "label": "mapping(bytes32 => uint256)",
        "numberOfBytes": "32",
        "value": "t_uint256"
      },
      "t_mapping(t_contract(Token)29105,t_uint256)": {
        "encoding": "mapping",
        "key": "t_contract(Token)29105",
        "label": "mapping(contract Token => uint256)",
        "numberOfBytes": "32",
        "value": "t_uint256"
      },
      "t_struct(AddressSet)1737_storage": {
        "encoding": "inplace",
        "label": "struct EnumerableSetUpgradeable.AddressSet",
        "members": [
          {
            "astId": 1736,
            "contract": "contracts/pools/BNTPool.sol:BNTPool",
            "label": "_inner",
            "offset": 0,
            "slot": "0",
            "type": "t_struct(Set)1436_storage"
          }
        ],
        "numberOfBytes": "64"
      },
      "t_struct(RoleData)245_storage": {
        "encoding": "inplace",
        "label": "struct AccessControlUpgradeable.RoleData",
        "members": [
          {
            "astId": 242,
            "contract": "contracts/pools/BNTPool.sol:BNTPool",
            "label": "members",
            "offset": 0,
            "slot": "0",
            "type": "t_mapping(t_address,t_bool)"
          },
          {
            "astId": 244,
            "contract": "contracts/pools/BNTPool.sol:BNTPool",
            "label": "adminRole",
            "offset": 0,
            "slot": "1",
            "type": "t_bytes32"
          }
        ],
        "numberOfBytes": "64"
      },
      "t_struct(Set)1436_storage": {
        "encoding": "inplace",
        "label": "struct EnumerableSetUpgradeable.Set",
        "members": [
          {
            "astId": 1431,
            "contract": "contracts/pools/BNTPool.sol:BNTPool",
            "label": "_values",
            "offset": 0,
            "slot": "0",
            "type": "t_array(t_bytes32)dyn_storage"
          },
          {
            "astId": 1435,
            "contract": "contracts/pools/BNTPool.sol:BNTPool",
            "label": "_indexes",
            "offset": 0,
            "slot": "1",
            "type": "t_mapping(t_bytes32,t_uint256)"
          }
        ],
        "numberOfBytes": "64"
      },
      "t_uint16": {
        "encoding": "inplace",
        "label": "uint16",
        "numberOfBytes": "2"
      },
      "t_uint256": {
        "encoding": "inplace",
        "label": "uint256",
        "numberOfBytes": "32"
      }
    }
  }
}