{
  "address": "0xcC06b51B8152520634d3640f40533bedBB22af65",
  "abi": [
    {
      "inputs": [
        {
          "internalType": "contract IBancorNetwork",
          "name": "initNetwork",
          "type": "address"
        },
        {
          "internalType": "contract ITokenGovernance",
          "name": "initBNTGovernance",
          "type": "address"
        },
        {
          "internalType": "contract ITokenGovernance",
          "name": "initVBNTGovernance",
          "type": "address"
        },
        {
          "internalType": "contract INetworkSettings",
          "name": "initNetworkSettings",
          "type": "address"
        },
        {
          "internalType": "contract IMasterVault",
          "name": "initMasterVault",
          "type": "address"
        },
        {
          "internalType": "contract IPoolToken",
          "name": "initBNTPoolToken",
          "type": "address"
        }
      ],
      "stateMutability": "nonpayable",
      "type": "constructor"
    },
    {
      "inputs": [],
      "name": "AccessDenied",
      "type": "error"
    },
    {
      "inputs": [],
      "name": "AlreadyInitialized",
      "type": "error"
    },
    {
      "inputs": [],
      "name": "FundingLimitExceeded",
      "type": "error"
    },
    {
      "inputs": [],
      "name": "InvalidAddress",
      "type": "error"
    },
    {
      "inputs": [],
      "name": "InvalidParam",
      "type": "error"
    },
    {
      "inputs": [],
      "name": "InvalidStakedBalance",
      "type": "error"
    },
    {
      "inputs": [],
      "name": "InvalidToken",
      "type": "error"
    },
    {
      "inputs": [],
      "name": "NotPayable",
      "type": "error"
    },
    {
      "inputs": [],
      "name": "NotWhitelisted",
      "type": "error"
    },
    {
      "inputs": [],
      "name": "Overflow",
      "type": "error"
    },
    {
      "inputs": [],
      "name": "ZeroValue",
      "type": "error"
    },
    {
      "anonymous": false,
      "inputs": [
        {
          "indexed": true,
          "internalType": "bytes32",
          "name": "contextId",
          "type": "bytes32"
        },
        {
          "indexed": true,
          "internalType": "contract Token",
          "name": "pool",
          "type": "address"
        },
        {
          "indexed": false,
          "internalType": "uint256",
          "name": "bntAmount",
          "type": "uint256"
        },
        {
          "indexed": false,
          "internalType": "uint256",
          "name": "poolTokenAmount",
          "type": "uint256"
        }
      ],
      "name": "FundingRenounced",
      "type": "event"
    },
    {
      "anonymous": false,
      "inputs": [
        {
          "indexed": true,
          "internalType": "bytes32",
          "name": "contextId",
          "type": "bytes32"
        },
        {
          "indexed": true,
          "internalType": "contract Token",
          "name": "pool",
          "type": "address"
        },
        {
          "indexed": false,
          "internalType": "uint256",
          "name": "bntAmount",
          "type": "uint256"
        },
        {
          "indexed": false,
          "internalType": "uint256",
          "name": "poolTokenAmount",
          "type": "uint256"
        }
      ],
      "name": "FundingRequested",
      "type": "event"
    },
    {
      "anonymous": false,
      "inputs": [
        {
          "indexed": true,
          "internalType": "contract Token",
          "name": "token",
          "type": "address"
        },
        {
          "indexed": true,
          "internalType": "address",
          "name": "caller",
          "type": "address"
        },
        {
          "indexed": false,
          "internalType": "uint256",
          "name": "amount",
          "type": "uint256"
        }
      ],
      "name": "FundsBurned",
      "type": "event"
    },
    {
      "anonymous": false,
      "inputs": [
        {
          "indexed": true,
          "internalType": "contract Token",
          "name": "token",
          "type": "address"
        },
        {
          "indexed": true,
          "internalType": "address",
          "name": "caller",
          "type": "address"
        },
        {
          "indexed": true,
          "internalType": "address",
          "name": "target",
          "type": "address"
        },
        {
          "indexed": false,
          "internalType": "uint256",
          "name": "amount",
          "type": "uint256"
        }
      ],
      "name": "FundsWithdrawn",
      "type": "event"
    },
    {
      "anonymous": false,
      "inputs": [
        {
          "indexed": false,
          "internalType": "address",
          "name": "account",
          "type": "address"
        }
      ],
      "name": "Paused",
      "type": "event"
    },
    {
      "anonymous": false,
      "inputs": [
        {
          "indexed": true,
          "internalType": "bytes32",
          "name": "role",
          "type": "bytes32"
        },
        {
          "indexed": true,
          "internalType": "bytes32",
          "name": "previousAdminRole",
          "type": "bytes32"
        },
        {
          "indexed": true,
          "internalType": "bytes32",
          "name": "newAdminRole",
          "type": "bytes32"
        }
      ],
      "name": "RoleAdminChanged",
      "type": "event"
    },
    {
      "anonymous": false,
      "inputs": [
        {
          "indexed": true,
          "internalType": "bytes32",
          "name": "role",
          "type": "bytes32"
        },
        {
          "indexed": true,
          "internalType": "address",
          "name": "account",
          "type": "address"
        },
        {
          "indexed": true,
          "internalType": "address",
          "name": "sender",
          "type": "address"
        }
      ],
      "name": "RoleGranted",
      "type": "event"
    },
    {
      "anonymous": false,
      "inputs": [
        {
          "indexed": true,
          "internalType": "bytes32",
          "name": "role",
          "type": "bytes32"
        },
        {
          "indexed": true,
          "internalType": "address",
          "name": "account",
          "type": "address"
        },
        {
          "indexed": true,
          "internalType": "address",
          "name": "sender",
          "type": "address"
        }
      ],
      "name": "RoleRevoked",
      "type": "event"
    },
    {
      "anonymous": false,
      "inputs": [
        {
          "indexed": true,
          "internalType": "bytes32",
          "name": "contextId",
          "type": "bytes32"
        },
        {
          "indexed": true,
          "internalType": "address",
          "name": "provider",
          "type": "address"
        },
        {
          "indexed": false,
          "internalType": "uint256",
          "name": "bntAmount",
          "type": "uint256"
        },
        {
          "indexed": false,
          "internalType": "uint256",
          "name": "poolTokenAmount",
          "type": "uint256"
        },
        {
          "indexed": false,
          "internalType": "uint256",
          "name": "vbntAmount",
          "type": "uint256"
        }
      ],
      "name": "TokensDeposited",
      "type": "event"
    },
    {
      "anonymous": false,
      "inputs": [
        {
          "indexed": true,
          "internalType": "bytes32",
          "name": "contextId",
          "type": "bytes32"
        },
        {
          "indexed": true,
          "internalType": "address",
          "name": "provider",
          "type": "address"
        },
        {
          "indexed": false,
          "internalType": "uint256",
          "name": "bntAmount",
          "type": "uint256"
        },
        {
          "indexed": false,
          "internalType": "uint256",
          "name": "poolTokenAmount",
          "type": "uint256"
        },
        {
          "indexed": false,
          "internalType": "uint256",
          "name": "vbntAmount",
          "type": "uint256"
        },
        {
          "indexed": false,
          "internalType": "uint256",
          "name": "withdrawalFeeAmount",
          "type": "uint256"
        }
      ],
      "name": "TokensWithdrawn",
      "type": "event"
    },
    {
      "anonymous": false,
      "inputs": [
        {
          "indexed": true,
          "internalType": "bytes32",
          "name": "contextId",
          "type": "bytes32"
        },
        {
          "indexed": false,
          "internalType": "uint256",
          "name": "liquidity",
          "type": "uint256"
        },
        {
          "indexed": false,
          "internalType": "uint256",
          "name": "stakedBalance",
          "type": "uint256"
        },
        {
          "indexed": false,
          "internalType": "uint256",
          "name": "poolTokenSupply",
          "type": "uint256"
        }
      ],
      "name": "TotalLiquidityUpdated",
      "type": "event"
    },
    {
      "anonymous": false,
      "inputs": [
        {
          "indexed": false,
          "internalType": "address",
          "name": "account",
          "type": "address"
        }
      ],
      "name": "Unpaused",
      "type": "event"
    },
    {
      "inputs": [],
      "name": "DEFAULT_ADMIN_ROLE",
      "outputs": [
        {
          "internalType": "bytes32",
          "name": "",
          "type": "bytes32"
        }
      ],
      "stateMutability": "view",
      "type": "function"
    },
    {
      "inputs": [
        {
          "internalType": "contract Token",
          "name": "pool",
          "type": "address"
        }
      ],
      "name": "availableFunding",
      "outputs": [
        {
          "internalType": "uint256",
          "name": "",
          "type": "uint256"
        }
      ],
      "stateMutability": "view",
      "type": "function"
    },
    {
      "inputs": [
        {
          "internalType": "contract Token",
          "name": "token",
          "type": "address"
        },
        {
          "internalType": "uint256",
          "name": "amount",
          "type": "uint256"
        }
      ],
      "name": "burn",
      "outputs": [],
      "stateMutability": "nonpayable",
      "type": "function"
    },
    {
      "inputs": [
        {
          "internalType": "uint256",
          "name": "bntAmount",
          "type": "uint256"
        }
      ],
      "name": "burnFromVault",
      "outputs": [],
      "stateMutability": "nonpayable",
      "type": "function"
    },
    {
      "inputs": [
        {
          "internalType": "contract Token",
          "name": "pool",
          "type": "address"
        }
      ],
      "name": "currentPoolFunding",
      "outputs": [
        {
          "internalType": "uint256",
          "name": "",
          "type": "uint256"
        }
      ],
      "stateMutability": "view",
      "type": "function"
    },
    {
      "inputs": [
        {
          "internalType": "bytes32",
          "name": "contextId",
          "type": "bytes32"
        },
        {
          "internalType": "address",
          "name": "provider",
          "type": "address"
        },
        {
          "internalType": "uint256",
          "name": "bntAmount",
          "type": "uint256"
        },
        {
          "internalType": "bool",
          "name": "isMigrating",
          "type": "bool"
        },
        {
          "internalType": "uint256",
          "name": "originalVBNTAmount",
          "type": "uint256"
        }
      ],
      "name": "depositFor",
      "outputs": [
        {
          "internalType": "uint256",
          "name": "",
          "type": "uint256"
        }
      ],
      "stateMutability": "nonpayable",
      "type": "function"
    },
    {
      "inputs": [
        {
          "internalType": "bytes32",
          "name": "role",
          "type": "bytes32"
        }
      ],
      "name": "getRoleAdmin",
      "outputs": [
        {
          "internalType": "bytes32",
          "name": "",
          "type": "bytes32"
        }
      ],
      "stateMutability": "view",
      "type": "function"
    },
    {
      "inputs": [
        {
          "internalType": "bytes32",
          "name": "role",
          "type": "bytes32"
        },
        {
          "internalType": "uint256",
          "name": "index",
          "type": "uint256"
        }
      ],
      "name": "getRoleMember",
      "outputs": [
        {
          "internalType": "address",
          "name": "",
          "type": "address"
        }
      ],
      "stateMutability": "view",
      "type": "function"
    },
    {
      "inputs": [
        {
          "internalType": "bytes32",
          "name": "role",
          "type": "bytes32"
        }
      ],
      "name": "getRoleMemberCount",
      "outputs": [
        {
          "internalType": "uint256",
          "name": "",
          "type": "uint256"
        }
      ],
      "stateMutability": "view",
      "type": "function"
    },
    {
      "inputs": [
        {
          "internalType": "bytes32",
          "name": "role",
          "type": "bytes32"
        },
        {
          "internalType": "address",
          "name": "account",
          "type": "address"
        }
      ],
      "name": "grantRole",
      "outputs": [],
      "stateMutability": "nonpayable",
      "type": "function"
    },
    {
      "inputs": [
        {
          "internalType": "bytes32",
          "name": "role",
          "type": "bytes32"
        },
        {
          "internalType": "address",
          "name": "account",
          "type": "address"
        }
      ],
      "name": "hasRole",
      "outputs": [
        {
          "internalType": "bool",
          "name": "",
          "type": "bool"
        }
      ],
      "stateMutability": "view",
      "type": "function"
    },
    {
      "inputs": [],
      "name": "initialize",
      "outputs": [],
      "stateMutability": "nonpayable",
      "type": "function"
    },
    {
      "inputs": [],
      "name": "isPaused",
      "outputs": [
        {
          "internalType": "bool",
          "name": "",
          "type": "bool"
        }
      ],
      "stateMutability": "view",
      "type": "function"
    },
    {
      "inputs": [],
      "name": "isPayable",
      "outputs": [
        {
          "internalType": "bool",
          "name": "",
          "type": "bool"
        }
      ],
      "stateMutability": "pure",
      "type": "function"
    },
    {
      "inputs": [
        {
          "internalType": "address",
          "name": "recipient",
          "type": "address"
        },
        {
          "internalType": "uint256",
          "name": "bntAmount",
          "type": "uint256"
        }
      ],
      "name": "mint",
      "outputs": [],
      "stateMutability": "nonpayable",
      "type": "function"
    },
    {
      "inputs": [
        {
          "internalType": "contract Token",
          "name": "pool",
          "type": "address"
        },
        {
          "internalType": "uint256",
          "name": "feeAmount",
          "type": "uint256"
        },
        {
          "internalType": "bool",
          "name": "isTradeFee",
          "type": "bool"
        }
      ],
      "name": "onFeesCollected",
      "outputs": [],
      "stateMutability": "nonpayable",
      "type": "function"
    },
    {
      "inputs": [],
      "name": "pause",
      "outputs": [],
      "stateMutability": "nonpayable",
      "type": "function"
    },
    {
      "inputs": [],
      "name": "paused",
      "outputs": [
        {
          "internalType": "bool",
          "name": "",
          "type": "bool"
        }
      ],
      "stateMutability": "view",
      "type": "function"
    },
    {
      "inputs": [],
      "name": "poolToken",
      "outputs": [
        {
          "internalType": "contract IPoolToken",
          "name": "",
          "type": "address"
        }
      ],
      "stateMutability": "view",
      "type": "function"
    },
    {
      "inputs": [
        {
          "internalType": "uint256",
          "name": "bntAmountToDistribute",
          "type": "uint256"
        }
      ],
      "name": "poolTokenAmountToBurn",
      "outputs": [
        {
          "internalType": "uint256",
          "name": "",
          "type": "uint256"
        }
      ],
      "stateMutability": "view",
      "type": "function"
    },
    {
      "inputs": [
        {
          "internalType": "uint256",
          "name": "poolTokenAmount",
          "type": "uint256"
        }
      ],
      "name": "poolTokenToUnderlying",
      "outputs": [
        {
          "internalType": "uint256",
          "name": "",
          "type": "uint256"
        }
      ],
      "stateMutability": "view",
      "type": "function"
    },
    {
      "inputs": [
        {
          "internalType": "bytes",
          "name": "data",
          "type": "bytes"
        }
      ],
      "name": "postUpgrade",
      "outputs": [],
      "stateMutability": "nonpayable",
      "type": "function"
    },
    {
      "inputs": [
        {
          "internalType": "bytes32",
          "name": "contextId",
          "type": "bytes32"
        },
        {
          "internalType": "contract Token",
          "name": "pool",
          "type": "address"
        },
        {
          "internalType": "uint256",
          "name": "bntAmount",
          "type": "uint256"
        }
      ],
      "name": "renounceFunding",
      "outputs": [],
      "stateMutability": "nonpayable",
      "type": "function"
    },
    {
      "inputs": [
        {
          "internalType": "bytes32",
          "name": "role",
          "type": "bytes32"
        },
        {
          "internalType": "address",
          "name": "account",
          "type": "address"
        }
      ],
      "name": "renounceRole",
      "outputs": [],
      "stateMutability": "nonpayable",
      "type": "function"
    },
    {
      "inputs": [
        {
          "internalType": "bytes32",
          "name": "contextId",
          "type": "bytes32"
        },
        {
          "internalType": "contract Token",
          "name": "pool",
          "type": "address"
        },
        {
          "internalType": "uint256",
          "name": "bntAmount",
          "type": "uint256"
        }
      ],
      "name": "requestFunding",
      "outputs": [],
      "stateMutability": "nonpayable",
      "type": "function"
    },
    {
      "inputs": [
        {
          "internalType": "bytes32",
          "name": "role",
          "type": "bytes32"
        },
        {
          "internalType": "address",
          "name": "account",
          "type": "address"
        }
      ],
      "name": "revokeRole",
      "outputs": [],
      "stateMutability": "nonpayable",
      "type": "function"
    },
    {
      "inputs": [],
      "name": "roleAdmin",
      "outputs": [
        {
          "internalType": "bytes32",
          "name": "",
          "type": "bytes32"
        }
      ],
      "stateMutability": "pure",
      "type": "function"
    },
    {
      "inputs": [],
      "name": "roleAssetManager",
      "outputs": [
        {
          "internalType": "bytes32",
          "name": "",
          "type": "bytes32"
        }
      ],
      "stateMutability": "pure",
      "type": "function"
    },
    {
      "inputs": [],
      "name": "roleBNTManager",
      "outputs": [
        {
          "internalType": "bytes32",
          "name": "",
          "type": "bytes32"
        }
      ],
      "stateMutability": "pure",
      "type": "function"
    },
    {
      "inputs": [],
      "name": "roleBNTPoolTokenManager",
      "outputs": [
        {
          "internalType": "bytes32",
          "name": "",
          "type": "bytes32"
        }
      ],
      "stateMutability": "pure",
      "type": "function"
    },
    {
      "inputs": [],
      "name": "roleFundingManager",
      "outputs": [
        {
          "internalType": "bytes32",
          "name": "",
          "type": "bytes32"
        }
      ],
      "stateMutability": "pure",
      "type": "function"
    },
    {
      "inputs": [],
      "name": "roleVaultManager",
      "outputs": [
        {
          "internalType": "bytes32",
          "name": "",
          "type": "bytes32"
        }
      ],
      "stateMutability": "pure",
      "type": "function"
    },
    {
      "inputs": [],
      "name": "stakedBalance",
      "outputs": [
        {
          "internalType": "uint256",
          "name": "",
          "type": "uint256"
        }
      ],
      "stateMutability": "view",
      "type": "function"
    },
    {
      "inputs": [
        {
          "internalType": "bytes4",
          "name": "interfaceId",
          "type": "bytes4"
        }
      ],
      "name": "supportsInterface",
      "outputs": [
        {
          "internalType": "bool",
          "name": "",
          "type": "bool"
        }
      ],
      "stateMutability": "view",
      "type": "function"
    },
    {
      "inputs": [
        {
          "internalType": "uint256",
          "name": "bntAmount",
          "type": "uint256"
        }
      ],
      "name": "underlyingToPoolToken",
      "outputs": [
        {
          "internalType": "uint256",
          "name": "",
          "type": "uint256"
        }
      ],
      "stateMutability": "view",
      "type": "function"
    },
    {
      "inputs": [],
      "name": "unpause",
      "outputs": [],
      "stateMutability": "nonpayable",
      "type": "function"
    },
    {
      "inputs": [],
      "name": "version",
      "outputs": [
        {
          "internalType": "uint16",
          "name": "",
          "type": "uint16"
        }
      ],
      "stateMutability": "pure",
      "type": "function"
    },
    {
      "inputs": [
        {
          "internalType": "bytes32",
          "name": "contextId",
          "type": "bytes32"
        },
        {
          "internalType": "address",
          "name": "provider",
          "type": "address"
        },
        {
          "internalType": "uint256",
          "name": "poolTokenAmount",
          "type": "uint256"
        },
        {
          "internalType": "uint256",
          "name": "bntAmount",
          "type": "uint256"
        }
      ],
      "name": "withdraw",
      "outputs": [
        {
          "internalType": "uint256",
          "name": "",
          "type": "uint256"
        }
      ],
      "stateMutability": "nonpayable",
      "type": "function"
    },
    {
      "inputs": [
        {
          "internalType": "contract Token",
          "name": "token",
          "type": "address"
        },
        {
          "internalType": "address payable",
          "name": "target",
          "type": "address"
        },
        {
          "internalType": "uint256",
          "name": "amount",
          "type": "uint256"
        }
      ],
      "name": "withdrawFunds",
      "outputs": [],
      "stateMutability": "nonpayable",
      "type": "function"
    },
    {
      "inputs": [
        {
          "internalType": "uint256",
          "name": "poolTokenAmount",
          "type": "uint256"
        }
      ],
      "name": "withdrawalAmount",
      "outputs": [
        {
          "internalType": "uint256",
          "name": "",
          "type": "uint256"
        }
      ],
      "stateMutability": "view",
      "type": "function"
    },
    {
      "stateMutability": "payable",
      "type": "receive"
    }
  ],
  "transactionHash": "0x7a724f199ac65e8bef97baa551d3664256a88a028278441ecf7dcf4daff6942b",
  "args": [
    "0xeEF417e1D5CC832e619ae18D2F140De2999dD4fB",
    "0xa489C2b5b36835A327851Ab917A80562B5AFC244",
    "0x0887ae1251E180d7D453aeDEBee26e1639f20113",
    "0x83E1814ba31F7ea95D216204BB45FE75Ce09b14F",
    "0x649765821D9f64198c905eC0B2B037a4a52Bc373",
    "0xAB05Cf7C6c3a288cd36326e4f7b8600e7268E344"
  ],
  "numDeployments": 1,
  "solcInputHash": "9578fd8607a4510b6c94f9286634e821",
  "bytecode": "0x6101806040523480156200001257600080fd5b5060405162003de338038062003de38339810160408190526200003591620001eb565b8484816200004381620001aa565b816200004f81620001aa565b6001600160a01b03841660a081905260408051637e062a3560e11b8152905163fc0c546a916004808201926020929091908290030181865afa1580156200009a573d6000803e3d6000fd5b505050506040513d601f19601f82011682018060405250810190620000c091906200027f565b6001600160a01b03908116608052831660e081905260408051637e062a3560e11b8152905163fc0c546a916004808201926020929091908290030181865afa15801562000111573d6000803e3d6000fd5b505050506040513d601f19601f820116820180604052508101906200013791906200027f565b6001600160a01b031660c05250889250620001569150829050620001aa565b836200016281620001aa565b836200016e81620001aa565b836200017a81620001aa565b5050506001600160a01b039687166101005250918516610120528416610140529092166101605250620002a69050565b6001600160a01b038116620001d25760405163e6c4247b60e01b815260040160405180910390fd5b50565b6001600160a01b0381168114620001d257600080fd5b60008060008060008060c087890312156200020557600080fd5b86516200021281620001d5565b60208801519096506200022581620001d5565b60408801519095506200023881620001d5565b60608801519094506200024b81620001d5565b60808801519093506200025e81620001d5565b60a08801519092506200027181620001d5565b809150509295509295509295565b6000602082840312156200029257600080fd5b81516200029f81620001d5565b9392505050565b60805160a05160c05160e05161010051610120516101405161016051613a05620003de6000396000818161068c015281816109fb01528181610adc01528181610fcd015281816110da01528181611a5a01528181611e4301528181611ef901528181611ff501528181612172015281816126900152612baa015260008181610b8401528181610c3f0152818161114b0152818161123c015261192a015260008181610f22015281816115110152818161209101526123ba01526000818161132d015281816119ea0152611c430152600081816117ce01528181611b860152611cdb0152600061178f015260008181610e5d0152818161117a0152818161171b01528181611ae00152611d66015260008181610b5501528181610c8b01528181611288015281816116dc01526118fb0152613a056000f3fe60806040526004361061023f5760003560e01c80639010d07c1161012e578063ca15c873116100ab578063e06bf20d1161006f578063e06bf20d14610704578063e404d8ce14610724578063e80e8a7d14610744578063e8ddecba14610764578063fd4d4ad21461079757600080fd5b8063ca15c8731461065d578063cbdf382c1461067d578063ce46e046146106b0578063d547741f146106c4578063d7882fdf146106e457600080fd5b8063a217fddf116100f2578063a217fddf146105ad578063a9c63258146105c2578063b187bd26146105e2578063b89bd433146105f7578063c878ab331461062a57600080fd5b80639010d07c146104e157806391d148541461051957806392bd95ea1461053957806393867fb51461056c5780639dc29fac1461058d57600080fd5b806354fd4d50116101bc5780637c8f622d116101805780637c8f622d146104575780638129fc1c146104775780638456cb591461048c5780638cd2403d146104a15780638d0c7827146104c157600080fd5b806354fd4d50146103cc5780635b9f0016146103e85780635c975abb146103fe578063639c35741461041657806371c0feb71461043757600080fd5b8063248a9ca311610203578063248a9ca3146103275780632f2ff15d1461035757806336568abe146103775780633f4ba83a1461039757806340c10f19146103ac57600080fd5b806301ffc9a71461026457806308fc3385146102995780630f1544c4146102c75780631c20fadd146102e75780631ebda06d1461030757600080fd5b3661025f57604051631574f9f360e01b815260040160405180910390fd5b005b600080fd5b34801561027057600080fd5b5061028461027f366004613417565b6107ce565b60405190151581526020015b60405180910390f35b3480156102a557600080fd5b506102b96102b4366004613441565b6107f9565b604051908152602001610290565b3480156102d357600080fd5b506102b96102e2366004613441565b61081e565b3480156102f357600080fd5b5061025d61030236600461346f565b610829565b34801561031357600080fd5b5061025d6103223660046134b0565b61099f565b34801561033357600080fd5b506102b9610342366004613441565b60009081526065602052604090206001015490565b34801561036357600080fd5b5061025d6103723660046134d7565b610d2d565b34801561038357600080fd5b5061025d6103923660046134d7565b610d58565b3480156103a357600080fd5b5061025d610dd6565b3480156103b857600080fd5b5061025d6103c7366004613507565b610df8565b3480156103d857600080fd5b5060405160028152602001610290565b3480156103f457600080fd5b5061015f546102b9565b34801561040a57600080fd5b5060fb5460ff16610284565b34801561042257600080fd5b506000805160206139b98339815191526102b9565b34801561044357600080fd5b5061025d6104523660046134b0565b610ec0565b34801561046357600080fd5b5061025d610472366004613541565b61132b565b34801561048357600080fd5b5061025d6113b9565b34801561049857600080fd5b5061025d61147a565b3480156104ad57600080fd5b5061025d6104bc366004613583565b61149a565b3480156104cd57600080fd5b506102b96104dc3660046135f5565b6114eb565b3480156104ed57600080fd5b506105016104fc366004613612565b61159b565b6040516001600160a01b039091168152602001610290565b34801561052557600080fd5b506102846105343660046134d7565b6115ba565b34801561054557600080fd5b507f89ce14d20697a788f57260f7690044299bde7ea88cfb7e43d120a0c031f1ffc16102b9565b34801561057857600080fd5b506000805160206139d98339815191526102b9565b34801561059957600080fd5b5061025d6105a8366004613507565b6115e5565b3480156105b957600080fd5b506102b9600081565b3480156105ce57600080fd5b5061025d6105dd366004613441565b6118af565b3480156105ee57600080fd5b5061028461198b565b34801561060357600080fd5b507f473e02917e58ac16ae36b64246942eb4bb4dcf262bc3c3c50359aa9af6bb44f96102b9565b34801561063657600080fd5b507f4cbb5676e6e25e1a3b8a36de10472bcac96f97bd8dd87af6f330881b84739eb86102b9565b34801561066957600080fd5b506102b9610678366004613441565b61199e565b34801561068957600080fd5b507f0000000000000000000000000000000000000000000000000000000000000000610501565b3480156106bc57600080fd5b506000610284565b3480156106d057600080fd5b5061025d6106df3660046134d7565b6119b5565b3480156106f057600080fd5b506102b96106ff366004613441565b6119db565b34801561071057600080fd5b506102b961071f366004613634565b6119e6565b34801561073057600080fd5b506102b961073f366004613686565b611c3f565b34801561075057600080fd5b506102b961075f366004613441565b611e2d565b34801561077057600080fd5b507f0d0d17bf5382c809d9a3899d6a94e57386dfb2036f0401b94ef3cf6c1a9ab73f6102b9565b3480156107a357600080fd5b506102b96107b23660046135f5565b6001600160a01b03166000908152610160602052604090205490565b60006001600160e01b03198216635a05180f60e01b14806107f357506107f382611f93565b92915050565b60008161080581611fc8565b61081661081184611fe9565b612075565b519392505050565b60006107f382611fe9565b8161083381612147565b600261012d540361088b5760405162461bcd60e51b815260206004820152601f60248201527f5265656e7472616e637947756172643a207265656e7472616e742063616c6c0060448201526064015b60405180910390fd5b600261012d5560fb5460ff16156108b45760405162461bcd60e51b8152600401610882906136c3565b338484846108c48484848461216e565b6108e157604051634ca8886760e01b815260040160405180910390fd5b851561098f5773eeeeeeeeeeeeeeeeeeeeeeeeeeeeeeeeeeeeeeee6001600160a01b038916036109235761091e6001600160a01b038816876121da565b610937565b6109376001600160a01b03891688886122f3565b866001600160a01b0316336001600160a01b0316896001600160a01b03167fc322efa58c9cb2c39cfffdac61d35c8643f5cbf13c6a7d0034de2cf18923aff38960405161098691815260200190565b60405180910390a45b5050600161012d55505050505050565b6000805160206139b98339815191526109b88133612374565b826109c28161239b565b826109cc81611fc8565b61015f546001600160a01b03861660009081526101606020526040812054906109f58288612442565b905060007f00000000000000000000000000000000000000000000000000000000000000006001600160a01b03166318160ddd6040518163ffffffff1660e01b8152600401602060405180830381865afa158015610a57573d6000803e3d6000fd5b505050506040513d601f19601f82011682018060405250810190610a7b91906136ed565b90506000610a8a838387612458565b9050610a96838561371c565b6001600160a01b038b1660009081526101606020526040812091909155610abd848761371c565b61015f819055604051630852cd8d60e31b8152600481018490529091507f00000000000000000000000000000000000000000000000000000000000000006001600160a01b0316906342966c6890602401600060405180830381600087803b158015610b2857600080fd5b505af1158015610b3c573d6000803e3d6000fd5b5050604051632770a7eb60e21b81526001600160a01b037f000000000000000000000000000000000000000000000000000000000000000081166004830152602482018e90527f0000000000000000000000000000000000000000000000000000000000000000169250639dc29fac9150604401600060405180830381600087803b158015610bca57600080fd5b505af1158015610bde573d6000803e3d6000fd5b5050604080518d8152602081018690526001600160a01b038f1693508f92507f343b2618f119491ea746148809f6073b9cbf1ebf15155ad4661dba2f6dd0f451910160405180910390a36040516370a0823160e01b81526001600160a01b037f0000000000000000000000000000000000000000000000000000000000000000811660048301528d917f78892d9576143a8e05c38de593d7fe77e75be9a9f2047dc5de22e6cec00076bf917f000000000000000000000000000000000000000000000000000000000000000016906370a0823190602401602060405180830381865afa158015610cd2573d6000803e3d6000fd5b505050506040513d601f19601f82011682018060405250810190610cf691906136ed565b83610d01868861371c565b6040805193845260208401929092529082015260600160405180910390a2505050505050505050505050565b600082815260656020526040902060010154610d498133612465565b610d5383836124c9565b505050565b6001600160a01b0381163314610dc85760405162461bcd60e51b815260206004820152602f60248201527f416363657373436f6e74726f6c3a2063616e206f6e6c792072656e6f756e636560448201526e103937b632b9903337b91039b2b63360891b6064820152608401610882565b610dd282826124eb565b5050565b610dee6000805160206139d983398151915233612374565b610df661250d565b565b7f4cbb5676e6e25e1a3b8a36de10472bcac96f97bd8dd87af6f330881b84739eb8610e238133612374565b82610e2d81612147565b82610e3781611fc8565b6040516340c10f1960e01b81526001600160a01b038681166004830152602482018690527f000000000000000000000000000000000000000000000000000000000000000016906340c10f1990604401600060405180830381600087803b158015610ea157600080fd5b505af1158015610eb5573d6000803e3d6000fd5b505050505050505050565b6000805160206139b9833981519152610ed98133612374565b82610ee38161239b565b82610eed81611fc8565b6001600160a01b038581166000818152610160602052604080822054905163467e55df60e01b815260048101939093529290917f00000000000000000000000000000000000000000000000000000000000000009091169063467e55df90602401602060405180830381865afa158015610f6b573d6000803e3d6000fd5b505050506040513d601f19601f82011682018060405250810190610f8f91906136ed565b90506000610f9d8784613733565b905081811115610fc057604051632dae22ef60e21b815260040160405180910390fd5b600061015f5490506000807f00000000000000000000000000000000000000000000000000000000000000006001600160a01b03166318160ddd6040518163ffffffff1660e01b8152600401602060405180830381865afa158015611029573d6000803e3d6000fd5b505050506040513d601f19601f8201168201806040525081019061104d91906136ed565b90508060000361107e57821561107657604051636a9c61e160e01b815260040160405180910390fd5b89915061108c565b6110898a8285612458565b91505b60006110988b85613733565b61015f8190556001600160a01b038d81166000908152610160602052604090819020889055516340c10f1960e01b8152306004820152602481018690529192507f000000000000000000000000000000000000000000000000000000000000000016906340c10f1990604401600060405180830381600087803b15801561111e57600080fd5b505af1158015611132573d6000803e3d6000fd5b50506040516340c10f1960e01b81526001600160a01b037f000000000000000000000000000000000000000000000000000000000000000081166004830152602482018f90527f00000000000000000000000000000000000000000000000000000000000000001692506340c10f199150604401600060405180830381600087803b1580156111c057600080fd5b505af11580156111d4573d6000803e3d6000fd5b505050508b6001600160a01b03168d7ffd8684b04dc22a1ff327e3387f1b4a1f6bb6ac801505a61ca0c295a823c6de838d8660405161121d929190918252602082015260400190565b60405180910390a36040516370a0823160e01b81526001600160a01b037f0000000000000000000000000000000000000000000000000000000000000000811660048301528e917f78892d9576143a8e05c38de593d7fe77e75be9a9f2047dc5de22e6cec00076bf917f000000000000000000000000000000000000000000000000000000000000000016906370a0823190602401602060405180830381865afa1580156112cf573d6000803e3d6000fd5b505050506040513d601f19601f820116820180604052508101906112f391906136ed565b836112fe8787613733565b6040805193845260208401929092529082015260600160405180910390a250505050505050505050505050565b7f0000000000000000000000000000000000000000000000000000000000000000611355816125a0565b8361135f81612147565b83156113b2578361015f60008282546113789190613733565b909155505082156113b2576001600160a01b03851660009081526101606020526040812080548692906113ac908490613733565b90915550505b5050505050565b600054610100900460ff166113d45760005460ff16156113d8565b303b155b61143b5760405162461bcd60e51b815260206004820152602e60248201527f496e697469616c697a61626c653a20636f6e747261637420697320616c72656160448201526d191e481a5b9a5d1a585b1a5e995960921b6064820152608401610882565b600054610100900460ff1615801561145d576000805461ffff19166101011790555b6114656125c9565b8015611477576000805461ff00191690555b50565b6114926000805160206139d983398151915233612374565b610df6612600565b60c9546000906114af9061ffff16600161374b565b905061ffff81166002146114d55760405162dc149f60e41b815260040160405180910390fd5b60c9805461ffff191661ffff8316179055505050565b60405163467e55df60e01b81526001600160a01b0382811660048301526000916107f3917f0000000000000000000000000000000000000000000000000000000000000000169063467e55df90602401602060405180830381865afa158015611558573d6000803e3d6000fd5b505050506040513d601f19601f8201168201806040525081019061157c91906136ed565b6001600160a01b03841660009081526101606020526040902054612658565b60008281526097602052604081206115b39083612672565b9392505050565b60009182526065602090815260408084206001600160a01b0393909316845291905290205460ff1690565b600261012d54036116385760405162461bcd60e51b815260206004820152601f60248201527f5265656e7472616e637947756172643a207265656e7472616e742063616c6c006044820152606401610882565b600261012d5560fb5460ff16156116615760405162461bcd60e51b8152600401610882906136c3565b33826000836116728484848461216e565b61168f57604051634ca8886760e01b815260040160405180910390fd5b84156118a15773eeeeeeeeeeeeeeeeeeeeeeeeeeeeeeeeeeeeeeee6001600160a01b038716036116d25760405163c1ab6dc160e01b815260040160405180910390fd5b6001600160a01b037f000000000000000000000000000000000000000000000000000000000000000081169087160361178557604051630852cd8d60e31b8152600481018690527f00000000000000000000000000000000000000000000000000000000000000006001600160a01b0316906342966c68906024015b600060405180830381600087803b15801561176857600080fd5b505af115801561177c573d6000803e3d6000fd5b50505050611860565b6001600160a01b037f000000000000000000000000000000000000000000000000000000000000000081169087160361180557604051630852cd8d60e31b8152600481018690527f00000000000000000000000000000000000000000000000000000000000000006001600160a01b0316906342966c689060240161174e565b604051630852cd8d60e31b8152600481018690526001600160a01b038716906342966c6890602401600060405180830381600087803b15801561184757600080fd5b505af115801561185b573d6000803e3d6000fd5b505050505b60405185815233906001600160a01b038816907fd3fda22e13f8cb743a9ceaca6e14022b6677188d20f3c3047f5c9033e07a4e879060200160405180910390a35b5050600161012d5550505050565b7f0d0d17bf5382c809d9a3899d6a94e57386dfb2036f0401b94ef3cf6c1a9ab73f6118da8133612374565b816118e481611fc8565b604051632770a7eb60e21b81526001600160a01b037f000000000000000000000000000000000000000000000000000000000000000081166004830152602482018590527f00000000000000000000000000000000000000000000000000000000000000001690639dc29fac90604401600060405180830381600087803b15801561196e57600080fd5b505af1158015611982573d6000803e3d6000fd5b50505050505050565b600061199960fb5460ff1690565b905090565b60008181526097602052604081206107f39061267e565b6000828152606560205260409020600101546119d18133612465565b610d5383836124eb565b60006107f382612688565b60007f0000000000000000000000000000000000000000000000000000000000000000611a12816125a0565b85611a1c81612147565b85611a2681611fc8565b6000611a3188612688565b60405163a9059cbb60e01b81526001600160a01b038b81166004830152602482018390529192507f00000000000000000000000000000000000000000000000000000000000000009091169063a9059cbb906044016020604051808303816000875af1158015611aa5573d6000803e3d6000fd5b505050506040513d601f19601f82011682018060405250810190611ac99190613771565b50604051630852cd8d60e31b8152600481018990527f00000000000000000000000000000000000000000000000000000000000000006001600160a01b0316906342966c6890602401600060405180830381600087803b158015611b2c57600080fd5b505af1158015611b40573d6000803e3d6000fd5b508392505088159050611b5a57611b578188612658565b90505b8015611be3576040516340c10f1960e01b81526001600160a01b038b81166004830152602482018390527f000000000000000000000000000000000000000000000000000000000000000016906340c10f1990604401600060405180830381600087803b158015611bca57600080fd5b505af1158015611bde573d6000803e3d6000fd5b505050505b604080518a8152602081018490529081018290526001600160a01b038b16908c907f98ac1ba20f9c40c6579f93634a34a46bd425744a5ef297e4c739ba0ce1d7f6b59060600160405180910390a3509998505050505050505050565b60007f0000000000000000000000000000000000000000000000000000000000000000611c6b816125a0565b84611c7581612147565b84611c7f81611fc8565b84611c8981611fc8565b6000611c9488611fe9565b905080871115611cb757604051633494a40d60e21b815260040160405180910390fd5b6000611cc288612075565b604051630852cd8d60e31b8152600481018b90529091507f00000000000000000000000000000000000000000000000000000000000000006001600160a01b0316906342966c6890602401600060405180830381600087803b158015611d2757600080fd5b505af1158015611d3b573d6000803e3d6000fd5b505082516040516340c10f1960e01b81526001600160a01b038e8116600483015260248201929092527f000000000000000000000000000000000000000000000000000000000000000090911692506340c10f199150604401600060405180830381600087803b158015611dae57600080fd5b505af1158015611dc2573d6000803e3d6000fd5b50508251602080850151604080519384529183018e90528282018e90526060830152516001600160a01b038e1693508e92507f2d3e6c9d7b23425696e79d70b11c80ff35e7e65291f79a03f9aef355706863519181900360800190a3519a9950505050505050505050565b600081600003611e3f57506000919050565b60007f00000000000000000000000000000000000000000000000000000000000000006001600160a01b03166318160ddd6040518163ffffffff1660e01b8152600401602060405180830381865afa158015611e9f573d6000803e3d6000fd5b505050506040513d601f19601f82011682018060405250810190611ec391906136ed565b90506000611ed1828561378e565b6040516370a0823160e01b8152306004820152909150611f8b90829084906001600160a01b037f000000000000000000000000000000000000000000000000000000000000000016906370a0823190602401602060405180830381865afa158015611f40573d6000803e3d6000fd5b505050506040513d601f19601f82011682018060405250810190611f6491906136ed565b611f6e908661371c565b61015f54611f7c919061378e565b611f869085613733565b612719565b949350505050565b60006001600160e01b03198216637965db0b60e01b14806107f357506301ffc9a760e01b6001600160e01b03198316146107f3565b8060000361147757604051637c946ed760e01b815260040160405180910390fd5b60006107f38261015f547f00000000000000000000000000000000000000000000000000000000000000006001600160a01b03166318160ddd6040518163ffffffff1660e01b8152600401602060405180830381865afa158015612051573d6000803e3d6000fd5b505050506040513d601f19601f82011682018060405250810190611f8691906136ed565b60408051808201909152600080825260208201526000612120837f00000000000000000000000000000000000000000000000000000000000000006001600160a01b0316632aac012c6040518163ffffffff1660e01b8152600401602060405180830381865afa1580156120ed573d6000803e3d6000fd5b505050506040513d601f19601f8201168201806040525081019061211191906137ad565b63ffffffff16620f4240612719565b905061212c818461371c565b60408051808201909152908152602081019190915292915050565b6001600160a01b0381166114775760405163e6c4247b60e01b815260040160405180910390fd5b60007f00000000000000000000000000000000000000000000000000000000000000006001600160a01b039081169085161480156121d157506121d17f473e02917e58ac16ae36b64246942eb4bb4dcf262bc3c3c50359aa9af6bb44f9866115ba565b95945050505050565b8047101561222a5760405162461bcd60e51b815260206004820152601d60248201527f416464726573733a20696e73756666696369656e742062616c616e63650000006044820152606401610882565b6000826001600160a01b03168260405160006040518083038185875af1925050503d8060008114612277576040519150601f19603f3d011682016040523d82523d6000602084013e61227c565b606091505b5050905080610d535760405162461bcd60e51b815260206004820152603a60248201527f416464726573733a20756e61626c6520746f2073656e642076616c75652c207260448201527f6563697069656e74206d617920686176652072657665727465640000000000006064820152608401610882565b8060000361230057505050565b73eeeeeeeeeeeeeeeeeeeeeeeeeeeeeeeeeeeeeeee6001600160a01b03841603612360576040516001600160a01b0383169082156108fc029083906000818181858888f1935050505015801561235a573d6000803e3d6000fd5b50505050565b610d536001600160a01b03841683836127e5565b61237e82826115ba565b610dd257604051634ca8886760e01b815260040160405180910390fd5b60405163b5af090f60e01b81526001600160a01b0382811660048301527f0000000000000000000000000000000000000000000000000000000000000000169063b5af090f90602401602060405180830381865afa158015612401573d6000803e3d6000fd5b505050506040513d601f19601f820116820180604052508101906124259190613771565b61147757604051630b094f2760e31b815260040160405180910390fd5b600081831061245157816115b3565b5090919050565b6000611f8b848484612837565b61246f82826115ba565b610dd257612487816001600160a01b03166014612887565b612492836020612887565b6040516020016124a39291906137ff565b60408051601f198184030181529082905262461bcd60e51b825261088291600401613874565b6124d38282612a23565b6000828152609760205260409020610d539082612aa9565b6124f58282612abe565b6000828152609760205260409020610d539082612b25565b60fb5460ff166125565760405162461bcd60e51b815260206004820152601460248201527314185d5cd8589b194e881b9bdd081c185d5cd95960621b6044820152606401610882565b60fb805460ff191690557f5db9ee0a495bf2e6ff9c91a7834c1ba4fdd244a5e8aa4e537bd38aeae4b073aa335b6040516001600160a01b03909116815260200160405180910390a1565b336001600160a01b0382161461147757604051634ca8886760e01b815260040160405180910390fd5b600054610100900460ff166125f05760405162461bcd60e51b8152600401610882906138a7565b6125f8612b3a565b610df6612b81565b60fb5460ff16156126235760405162461bcd60e51b8152600401610882906136c3565b60fb805460ff191660011790557f62e78cea01bee320cd4e420270b5ea74000d11b0c9f74754ebdbfc544b05a2586125833390565b60008183116126685760006115b3565b6115b3828461371c565b60006115b38383612ce9565b60006107f3825490565b60006107f3827f00000000000000000000000000000000000000000000000000000000000000006001600160a01b03166318160ddd6040518163ffffffff1660e01b8152600401602060405180830381865afa1580156126ec573d6000803e3d6000fd5b505050506040513d601f19601f8201168201806040525081019061271091906136ed565b61015f54612458565b6000806127268585612d13565b805190915060000361274a578281602001516127429190613908565b9150506115b3565b8051831161276b57604051631a93c68960e11b815260040160405180910390fd5b6000612778868686612d9a565b905060006127868383612db5565b80519091506000036127ac578481602001516127a29190613908565b93505050506115b3565b60008581038616906127be8383612e3a565b905060006127d46127cf848a613908565b612e71565b919091029998505050505050505050565b604080516001600160a01b038416602482015260448082018490528251808303909101815260649091019091526020810180516001600160e01b031663a9059cbb60e01b179052610d53908490612ea3565b600080612845858585612719565b90506000612854868686612d9a565b1115611f8b57600019811061287c57604051631a93c68960e11b815260040160405180910390fd5b612742816001613733565b6060600061289683600261378e565b6128a1906002613733565b67ffffffffffffffff8111156128b9576128b961392a565b6040519080825280601f01601f1916602001820160405280156128e3576020820181803683370190505b509050600360fc1b816000815181106128fe576128fe613940565b60200101906001600160f81b031916908160001a905350600f60fb1b8160018151811061292d5761292d613940565b60200101906001600160f81b031916908160001a905350600061295184600261378e565b61295c906001613733565b90505b60018111156129d4576f181899199a1a9b1b9c1cb0b131b232b360811b85600f166010811061299057612990613940565b1a60f81b8282815181106129a6576129a6613940565b60200101906001600160f81b031916908160001a90535060049490941c936129cd81613956565b905061295f565b5083156115b35760405162461bcd60e51b815260206004820181905260248201527f537472696e67733a20686578206c656e67746820696e73756666696369656e746044820152606401610882565b612a2d82826115ba565b610dd25760008281526065602090815260408083206001600160a01b03851684529091529020805460ff19166001179055612a653390565b6001600160a01b0316816001600160a01b0316837f2f8788117e7eff1d82e926ec794901d17c78024a50270940304540a733656f0d60405160405180910390a45050565b60006115b3836001600160a01b038416612f75565b612ac882826115ba565b15610dd25760008281526065602090815260408083206001600160a01b0385168085529252808320805460ff1916905551339285917ff6391f5c32d9c69d2a47ea670b442974b53935d1edc7fd64eb21e047a839171b9190a45050565b60006115b3836001600160a01b038416612fc4565b600054610100900460ff16612b615760405162461bcd60e51b8152600401610882906138a7565b612b696130b7565b612b716130ee565b612b7961311d565b610df661314c565b600054610100900460ff16612ba85760405162461bcd60e51b8152600401610882906138a7565b7f00000000000000000000000000000000000000000000000000000000000000006001600160a01b03166379ba50976040518163ffffffff1660e01b8152600401600060405180830381600087803b158015612c0357600080fd5b505af1158015612c17573d6000803e3d6000fd5b50505050612c537f473e02917e58ac16ae36b64246942eb4bb4dcf262bc3c3c50359aa9af6bb44f96000805160206139d9833981519152613173565b612c8b7f4cbb5676e6e25e1a3b8a36de10472bcac96f97bd8dd87af6f330881b84739eb86000805160206139d9833981519152613173565b612cc37f0d0d17bf5382c809d9a3899d6a94e57386dfb2036f0401b94ef3cf6c1a9ab73f6000805160206139d9833981519152613173565b610df66000805160206139b98339815191526000805160206139d9833981519152613173565b6000826000018281548110612d0057612d00613940565b9060005260206000200154905092915050565b60408051808201909152600080825260208201526000612d3384846131be565b9050838302808210612d685760405180604001604052808284612d56919061371c565b815260200182815250925050506107f3565b60405180604001604052806001612d7f8585900390565b612d89919061371c565b815260200191909152949350505050565b60008180612daa57612daa6138f2565b838509949350505050565b604080518082019091526000808252602082015281836020015110612e0257604051806040016040528084600001518152602001838560200151612df9919061371c565b905290506107f3565b604051806040016040528060018560000151612e1e919061371c565b8152602001612e31856020015185900390565b90529392505050565b600080612e52612e4c84808403613908565b60010190565b9050828460200151612e649190613908565b8451820217949350505050565b60006001815b6008811015612e9c578382026002038202915080612e948161396d565b915050612e77565b5092915050565b6000612ef8826040518060400160405280602081526020017f5361666545524332303a206c6f772d6c6576656c2063616c6c206661696c6564815250856001600160a01b03166131cd9092919063ffffffff16565b805190915015610d535780806020019051810190612f169190613771565b610d535760405162461bcd60e51b815260206004820152602a60248201527f5361666545524332303a204552433230206f7065726174696f6e20646964206e6044820152691bdd081cdd58d8d9595960b21b6064820152608401610882565b6000818152600183016020526040812054612fbc575081546001818101845560008481526020808220909301849055845484825282860190935260409020919091556107f3565b5060006107f3565b600081815260018301602052604081205480156130ad576000612fe860018361371c565b8554909150600090612ffc9060019061371c565b905081811461306157600086600001828154811061301c5761301c613940565b906000526020600020015490508087600001848154811061303f5761303f613940565b6000918252602080832090910192909255918252600188019052604090208390555b855486908061307257613072613986565b6001900381819060005260206000200160009055905585600101600086815260200190815260200160002060009055600193505050506107f3565b60009150506107f3565b600054610100900460ff166130de5760405162461bcd60e51b8152600401610882906138a7565b6130e661314c565b610df66131dc565b600054610100900460ff166131155760405162461bcd60e51b8152600401610882906138a7565b610df6613241565b600054610100900460ff166131445760405162461bcd60e51b8152600401610882906138a7565b610df6613274565b600054610100900460ff16610df65760405162461bcd60e51b8152600401610882906138a7565b600082815260656020526040808220600101805490849055905190918391839186917fbd79b86ffe0ab8e8776151514217cd7cacd52c909f66475c3af44e129f0b00ff9190a4505050565b60006000198284099392505050565b6060611f8b84846000856132a3565b600054610100900460ff166132035760405162461bcd60e51b8152600401610882906138a7565b60c9805461ffff191660011790556132296000805160206139d983398151915280613173565b610df66000805160206139d9833981519152336133d4565b600054610100900460ff166132685760405162461bcd60e51b8152600401610882906138a7565b60fb805460ff19169055565b600054610100900460ff1661329b5760405162461bcd60e51b8152600401610882906138a7565b600161012d55565b6060824710156133045760405162461bcd60e51b815260206004820152602660248201527f416464726573733a20696e73756666696369656e742062616c616e636520666f6044820152651c8818d85b1b60d21b6064820152608401610882565b6001600160a01b0385163b61335b5760405162461bcd60e51b815260206004820152601d60248201527f416464726573733a2063616c6c20746f206e6f6e2d636f6e74726163740000006044820152606401610882565b600080866001600160a01b03168587604051613377919061399c565b60006040518083038185875af1925050503d80600081146133b4576040519150601f19603f3d011682016040523d82523d6000602084013e6133b9565b606091505b50915091506133c98282866133de565b979650505050505050565b610dd282826124c9565b606083156133ed5750816115b3565b8251156133fd5782518084602001fd5b8160405162461bcd60e51b81526004016108829190613874565b60006020828403121561342957600080fd5b81356001600160e01b0319811681146115b357600080fd5b60006020828403121561345357600080fd5b5035919050565b6001600160a01b038116811461147757600080fd5b60008060006060848603121561348457600080fd5b833561348f8161345a565b9250602084013561349f8161345a565b929592945050506040919091013590565b6000806000606084860312156134c557600080fd5b83359250602084013561349f8161345a565b600080604083850312156134ea57600080fd5b8235915060208301356134fc8161345a565b809150509250929050565b6000806040838503121561351a57600080fd5b82356135258161345a565b946020939093013593505050565b801515811461147757600080fd5b60008060006060848603121561355657600080fd5b83356135618161345a565b925060208401359150604084013561357881613533565b809150509250925092565b6000806020838503121561359657600080fd5b823567ffffffffffffffff808211156135ae57600080fd5b818501915085601f8301126135c257600080fd5b8135818111156135d157600080fd5b8660208285010111156135e357600080fd5b60209290920196919550909350505050565b60006020828403121561360757600080fd5b81356115b38161345a565b6000806040838503121561362557600080fd5b50508035926020909101359150565b600080600080600060a0868803121561364c57600080fd5b85359450602086013561365e8161345a565b935060408601359250606086013561367581613533565b949793965091946080013592915050565b6000806000806080858703121561369c57600080fd5b8435935060208501356136ae8161345a565b93969395505050506040820135916060013590565b60208082526010908201526f14185d5cd8589b194e881c185d5cd95960821b604082015260600190565b6000602082840312156136ff57600080fd5b5051919050565b634e487b7160e01b600052601160045260246000fd5b60008282101561372e5761372e613706565b500390565b6000821982111561374657613746613706565b500190565b600061ffff80831681851680830382111561376857613768613706565b01949350505050565b60006020828403121561378357600080fd5b81516115b381613533565b60008160001904831182151516156137a8576137a8613706565b500290565b6000602082840312156137bf57600080fd5b815163ffffffff811681146115b357600080fd5b60005b838110156137ee5781810151838201526020016137d6565b8381111561235a5750506000910152565b7f416363657373436f6e74726f6c3a206163636f756e74200000000000000000008152600083516138378160178501602088016137d3565b7001034b99036b4b9b9b4b733903937b6329607d1b60179184019182015283516138688160288401602088016137d3565b01602801949350505050565b60208152600082518060208401526138938160408501602087016137d3565b601f01601f19169190910160400192915050565b6020808252602b908201527f496e697469616c697a61626c653a20636f6e7472616374206973206e6f74206960408201526a6e697469616c697a696e6760a81b606082015260800190565b634e487b7160e01b600052601260045260246000fd5b60008261392557634e487b7160e01b600052601260045260246000fd5b500490565b634e487b7160e01b600052604160045260246000fd5b634e487b7160e01b600052603260045260246000fd5b60008161396557613965613706565b506000190190565b60006001820161397f5761397f613706565b5060010190565b634e487b7160e01b600052603160045260246000fd5b600082516139ae8184602087016137d3565b919091019291505056feca51b9188e78415f30da725e0d94567b4d65bc6777d4e5d573191e9f55b88a322172861495e7b85edac73e3cd5fbb42dd675baadf627720e687bcfdaca025096a164736f6c634300080d000a",
  "devdoc": {
    "details": "BNT Pool contract",
    "events": {
      "FundingRenounced(bytes32,address,uint256,uint256)": {
        "details": "triggered when funding is renounced"
      },
      "FundingRequested(bytes32,address,uint256,uint256)": {
        "details": "triggered when funding is requested"
      },
      "TokensDeposited(bytes32,address,uint256,uint256,uint256)": {
        "details": "triggered when liquidity is deposited"
      },
      "TokensWithdrawn(bytes32,address,uint256,uint256,uint256,uint256)": {
        "details": "triggered when liquidity is withdrawn"
      },
      "TotalLiquidityUpdated(bytes32,uint256,uint256,uint256)": {
        "details": "triggered when the total liquidity in the BNT pool is updated"
      }
    },
    "kind": "dev",
    "methods": {
      "availableFunding(address)": {
        "details": "returns the available BNT funding for a given pool"
      },
      "burn(address,uint256)": {
        "details": "burns funds held by the contract"
      },
      "burnFromVault(uint256)": {
        "details": "burns BNT from the vault requirements: - the caller must have the ROLE_VAULT_MANAGER role"
      },
      "constructor": {
        "details": "a \"virtual\" constructor that is only used to set immutable state variables"
      },
      "currentPoolFunding(address)": {
        "details": "returns the current funding of given pool"
      },
      "depositFor(bytes32,address,uint256,bool,uint256)": {
        "details": "deposits BNT liquidity on behalf of a specific provider and returns the respective pool token amount requirements: - the caller must be the network contract - BNT tokens must have been already deposited into the contract"
      },
      "getRoleAdmin(bytes32)": {
        "details": "Returns the admin role that controls `role`. See {grantRole} and {revokeRole}. To change a role's admin, use {_setRoleAdmin}."
      },
      "getRoleMember(bytes32,uint256)": {
        "details": "Returns one of the accounts that have `role`. `index` must be a value between 0 and {getRoleMemberCount}, non-inclusive. Role bearers are not sorted in any particular way, and their ordering may change at any point. WARNING: When using {getRoleMember} and {getRoleMemberCount}, make sure you perform all queries on the same block. See the following https://forum.openzeppelin.com/t/iterating-over-elements-on-enumerableset-in-openzeppelin-contracts/2296[forum post] for more information."
      },
      "getRoleMemberCount(bytes32)": {
        "details": "Returns the number of accounts that have `role`. Can be used together with {getRoleMember} to enumerate all bearers of a role."
      },
      "grantRole(bytes32,address)": {
        "details": "Grants `role` to `account`. If `account` had not been already granted `role`, emits a {RoleGranted} event. Requirements: - the caller must have ``role``'s admin role."
      },
      "hasRole(bytes32,address)": {
        "details": "Returns `true` if `account` has been granted `role`."
      },
      "initialize()": {
        "details": "fully initializes the contract and its parents"
      },
      "isPaused()": {
        "details": "returns whether withdrawals are currently paused"
      },
      "isPayable()": {
        "details": "tells whether the vault accepts native token deposits"
      },
      "mint(address,uint256)": {
        "details": "mints BNT to the recipient requirements: - the caller must have the ROLE_BNT_MANAGER role"
      },
      "onFeesCollected(address,uint256,bool)": {
        "details": "notifies the pool of accrued fees requirements: - the caller must be the network contract"
      },
      "pause()": {
        "details": "pauses withdrawals requirements: - the caller must have the ROLE_ADMIN privileges"
      },
      "paused()": {
        "details": "Returns true if the contract is paused, and false otherwise."
      },
      "poolToken()": {
        "details": "returns the BNT pool token contract"
      },
      "poolTokenAmountToBurn(uint256)": {
        "details": "returns the number of pool token to burn in order to increase everyone's underlying value by the specified amount"
      },
      "poolTokenToUnderlying(uint256)": {
        "details": "converts the specified pool token amount to the underlying BNT amount"
      },
      "postUpgrade(bytes)": {
        "details": "performs post-upgrade initialization requirements: - this must can be called only once per-upgrade"
      },
      "renounceFunding(bytes32,address,uint256)": {
        "details": "renounces BNT funding requirements: - the caller must have the ROLE_FUNDING_MANAGER role - the token must have been whitelisted - the average rate of the pool must not deviate too much from its spot rate"
      },
      "renounceRole(bytes32,address)": {
        "details": "Revokes `role` from the calling account. Roles are often managed via {grantRole} and {revokeRole}: this function's purpose is to provide a mechanism for accounts to lose their privileges if they are compromised (such as when a trusted device is misplaced). If the calling account had been revoked `role`, emits a {RoleRevoked} event. Requirements: - the caller must be `account`."
      },
      "requestFunding(bytes32,address,uint256)": {
        "details": "requests BNT funding requirements: - the caller must have the ROLE_FUNDING_MANAGER role - the token must have been whitelisted - the request amount should be below the funding limit for a given pool - the average rate of the pool must not deviate too much from its spot rate"
      },
      "revokeRole(bytes32,address)": {
        "details": "Revokes `role` from `account`. If `account` had been granted `role`, emits a {RoleRevoked} event. Requirements: - the caller must have ``role``'s admin role."
      },
      "roleAdmin()": {
        "details": "returns the admin role"
      },
      "roleAssetManager()": {
        "details": "returns the asset manager role"
      },
      "roleBNTManager()": {
        "details": "returns the BNT manager role"
      },
      "roleBNTPoolTokenManager()": {
        "details": "returns the BNT pool token manager role"
      },
      "roleFundingManager()": {
        "details": "returns the funding manager role"
      },
      "roleVaultManager()": {
        "details": "returns the vault manager role"
      },
      "stakedBalance()": {
        "details": "returns the total staked BNT balance in the network"
      },
      "supportsInterface(bytes4)": {
        "details": "See {IERC165-supportsInterface}."
      },
      "underlyingToPoolToken(uint256)": {
        "details": "converts the specified underlying BNT amount to pool token amount"
      },
      "unpause()": {
        "details": "unpauses withdrawals requirements: - the caller must have the ROLE_ADMIN privileges"
      },
      "withdraw(bytes32,address,uint256,uint256)": {
        "details": "withdraws BNT liquidity on behalf of a specific provider and returns the withdrawn BNT amount requirements: - the caller must be the network contract - bnBNT token must have been already deposited into the contract - vBNT token must have been already deposited into the contract"
      },
      "withdrawFunds(address,address,uint256)": {
        "details": "withdraws funds held by the contract and sends them to an account"
      },
      "withdrawalAmount(uint256)": {
        "details": "returns the withdrawn BNT amount"
      }
    },
    "version": 1
  },
  "userdoc": {
    "kind": "user",
    "methods": {},
    "version": 1
  },
  "storageLayout": {
    "storage": [
      {
        "astId": 644,
        "contract": "contracts/pools/BNTPool.sol:BNTPool",
        "label": "_initialized",
        "offset": 0,
        "slot": "0",
        "type": "t_bool"
      },
      {
        "astId": 647,
        "contract": "contracts/pools/BNTPool.sol:BNTPool",
        "label": "_initializing",
        "offset": 1,
        "slot": "0",
        "type": "t_bool"
      },
      {
        "astId": 1165,
        "contract": "contracts/pools/BNTPool.sol:BNTPool",
        "label": "__gap",
        "offset": 0,
        "slot": "1",
        "type": "t_array(t_uint256)50_storage"
      },
      {
        "astId": 1412,
        "contract": "contracts/pools/BNTPool.sol:BNTPool",
        "label": "__gap",
        "offset": 0,
        "slot": "51",
        "type": "t_array(t_uint256)50_storage"
      },
      {
        "astId": 250,
        "contract": "contracts/pools/BNTPool.sol:BNTPool",
        "label": "_roles",
        "offset": 0,
        "slot": "101",
        "type": "t_mapping(t_bytes32,t_struct(RoleData)245_storage)"
      },
      {
        "astId": 538,
        "contract": "contracts/pools/BNTPool.sol:BNTPool",
        "label": "__gap",
        "offset": 0,
        "slot": "102",
        "type": "t_array(t_uint256)49_storage"
      },
      {
        "astId": 99,
        "contract": "contracts/pools/BNTPool.sol:BNTPool",
        "label": "_roleMembers",
        "offset": 0,
        "slot": "151",
        "type": "t_mapping(t_bytes32,t_struct(AddressSet)1737_storage)"
      },
      {
        "astId": 209,
        "contract": "contracts/pools/BNTPool.sol:BNTPool",
        "label": "__gap",
        "offset": 0,
        "slot": "152",
        "type": "t_array(t_uint256)49_storage"
      },
      {
        "astId": 31877,
        "contract": "contracts/pools/BNTPool.sol:BNTPool",
        "label": "_initializations",
        "offset": 0,
        "slot": "201",
        "type": "t_uint16"
      },
      {
        "astId": 31883,
        "contract": "contracts/pools/BNTPool.sol:BNTPool",
        "label": "__gap",
        "offset": 0,
        "slot": "202",
        "type": "t_array(t_uint256)49_storage"
      },
      {
        "astId": 732,
        "contract": "contracts/pools/BNTPool.sol:BNTPool",
        "label": "_paused",
        "offset": 0,
        "slot": "251",
        "type": "t_bool"
      },
      {
        "astId": 821,
        "contract": "contracts/pools/BNTPool.sol:BNTPool",
        "label": "__gap",
        "offset": 0,
        "slot": "252",
        "type": "t_array(t_uint256)49_storage"
      },
      {
        "astId": 836,
        "contract": "contracts/pools/BNTPool.sol:BNTPool",
        "label": "_status",
        "offset": 0,
        "slot": "301",
        "type": "t_uint256"
      },
      {
        "astId": 880,
        "contract": "contracts/pools/BNTPool.sol:BNTPool",
        "label": "__gap",
        "offset": 0,
        "slot": "302",
        "type": "t_array(t_uint256)49_storage"
      },
      {
        "astId": 18723,
        "contract": "contracts/pools/BNTPool.sol:BNTPool",
        "label": "_stakedBalance",
        "offset": 0,
        "slot": "351",
        "type": "t_uint256"
      },
      {
        "astId": 18728,
        "contract": "contracts/pools/BNTPool.sol:BNTPool",
        "label": "_currentPoolFunding",
        "offset": 0,
        "slot": "352",
        "type": "t_mapping(t_contract(Token)29718,t_uint256)"
      },
      {
        "astId": 18734,
        "contract": "contracts/pools/BNTPool.sol:BNTPool",
        "label": "__gap",
        "offset": 0,
        "slot": "353",
        "type": "t_array(t_uint256)48_storage"
      }
    ],
    "types": {
      "t_address": {
        "encoding": "inplace",
        "label": "address",
        "numberOfBytes": "20"
      },
      "t_array(t_bytes32)dyn_storage": {
        "base": "t_bytes32",
        "encoding": "dynamic_array",
        "label": "bytes32[]",
        "numberOfBytes": "32"
      },
      "t_array(t_uint256)48_storage": {
        "base": "t_uint256",
        "encoding": "inplace",
        "label": "uint256[48]",
        "numberOfBytes": "1536"
      },
      "t_array(t_uint256)49_storage": {
        "base": "t_uint256",
        "encoding": "inplace",
        "label": "uint256[49]",
        "numberOfBytes": "1568"
      },
      "t_array(t_uint256)50_storage": {
        "base": "t_uint256",
        "encoding": "inplace",
        "label": "uint256[50]",
        "numberOfBytes": "1600"
      },
      "t_bool": {
        "encoding": "inplace",
        "label": "bool",
        "numberOfBytes": "1"
      },
      "t_bytes32": {
        "encoding": "inplace",
        "label": "bytes32",
        "numberOfBytes": "32"
      },
      "t_contract(Token)29718": {
        "encoding": "inplace",
        "label": "contract Token",
        "numberOfBytes": "20"
      },
      "t_mapping(t_address,t_bool)": {
        "encoding": "mapping",
        "key": "t_address",
        "label": "mapping(address => bool)",
        "numberOfBytes": "32",
        "value": "t_bool"
      },
      "t_mapping(t_bytes32,t_struct(AddressSet)1737_storage)": {
        "encoding": "mapping",
        "key": "t_bytes32",
        "label": "mapping(bytes32 => struct EnumerableSetUpgradeable.AddressSet)",
        "numberOfBytes": "32",
        "value": "t_struct(AddressSet)1737_storage"
      },
      "t_mapping(t_bytes32,t_struct(RoleData)245_storage)": {
        "encoding": "mapping",
        "key": "t_bytes32",
        "label": "mapping(bytes32 => struct AccessControlUpgradeable.RoleData)",
        "numberOfBytes": "32",
        "value": "t_struct(RoleData)245_storage"
      },
      "t_mapping(t_bytes32,t_uint256)": {
        "encoding": "mapping",
        "key": "t_bytes32",
        "label": "mapping(bytes32 => uint256)",
        "numberOfBytes": "32",
        "value": "t_uint256"
      },
      "t_mapping(t_contract(Token)29718,t_uint256)": {
        "encoding": "mapping",
        "key": "t_contract(Token)29718",
        "label": "mapping(contract Token => uint256)",
        "numberOfBytes": "32",
        "value": "t_uint256"
      },
      "t_struct(AddressSet)1737_storage": {
        "encoding": "inplace",
        "label": "struct EnumerableSetUpgradeable.AddressSet",
        "members": [
          {
            "astId": 1736,
            "contract": "contracts/pools/BNTPool.sol:BNTPool",
            "label": "_inner",
            "offset": 0,
            "slot": "0",
            "type": "t_struct(Set)1436_storage"
          }
        ],
        "numberOfBytes": "64"
      },
      "t_struct(RoleData)245_storage": {
        "encoding": "inplace",
        "label": "struct AccessControlUpgradeable.RoleData",
        "members": [
          {
            "astId": 242,
            "contract": "contracts/pools/BNTPool.sol:BNTPool",
            "label": "members",
            "offset": 0,
            "slot": "0",
            "type": "t_mapping(t_address,t_bool)"
          },
          {
            "astId": 244,
            "contract": "contracts/pools/BNTPool.sol:BNTPool",
            "label": "adminRole",
            "offset": 0,
            "slot": "1",
            "type": "t_bytes32"
          }
        ],
        "numberOfBytes": "64"
      },
      "t_struct(Set)1436_storage": {
        "encoding": "inplace",
        "label": "struct EnumerableSetUpgradeable.Set",
        "members": [
          {
            "astId": 1431,
            "contract": "contracts/pools/BNTPool.sol:BNTPool",
            "label": "_values",
            "offset": 0,
            "slot": "0",
            "type": "t_array(t_bytes32)dyn_storage"
          },
          {
            "astId": 1435,
            "contract": "contracts/pools/BNTPool.sol:BNTPool",
            "label": "_indexes",
            "offset": 0,
            "slot": "1",
            "type": "t_mapping(t_bytes32,t_uint256)"
          }
        ],
        "numberOfBytes": "64"
      },
      "t_uint16": {
        "encoding": "inplace",
        "label": "uint16",
        "numberOfBytes": "2"
      },
      "t_uint256": {
        "encoding": "inplace",
        "label": "uint256",
        "numberOfBytes": "32"
      }
    }
  }
}