{
  "address": "0x85CBBB1ede2B3e389235AE56Ec54BeC8159001e5",
  "abi": [
    {
      "inputs": [
        {
          "internalType": "address payable",
          "name": "vaultV3",
          "type": "address"
        },
        {
          "internalType": "contract ILiquidityProtectionSettings",
          "name": "settings",
          "type": "address"
        },
        {
          "internalType": "contract ILiquidityProtectionStore",
          "name": "store",
          "type": "address"
        },
        {
          "internalType": "contract ILiquidityProtectionStats",
          "name": "stats",
          "type": "address"
        },
        {
          "internalType": "contract ILiquidityProtectionSystemStore",
          "name": "systemStore",
          "type": "address"
        },
        {
          "internalType": "contract ITokenHolder",
          "name": "wallet",
          "type": "address"
        },
        {
          "internalType": "contract ITokenGovernance",
          "name": "networkTokenGovernance",
          "type": "address"
        },
        {
          "internalType": "contract ITokenGovernance",
          "name": "govTokenGovernance",
          "type": "address"
        }
      ],
      "stateMutability": "nonpayable",
      "type": "constructor"
    },
    {
      "anonymous": false,
      "inputs": [
        {
          "indexed": true,
          "internalType": "address",
          "name": "prevOwner",
          "type": "address"
        },
        {
          "indexed": true,
          "internalType": "address",
          "name": "newOwner",
          "type": "address"
        }
      ],
      "name": "OwnerUpdate",
      "type": "event"
    },
    {
      "inputs": [],
      "name": "acceptOwnership",
      "outputs": [],
      "stateMutability": "nonpayable",
      "type": "function"
    },
    {
      "inputs": [],
      "name": "acceptStoreOwnership",
      "outputs": [],
      "stateMutability": "nonpayable",
      "type": "function"
    },
    {
      "inputs": [],
      "name": "acceptWalletOwnership",
      "outputs": [],
      "stateMutability": "nonpayable",
      "type": "function"
    },
    {
      "inputs": [
        {
          "internalType": "contract IConverterAnchor",
          "name": "poolAnchor",
          "type": "address"
        },
        {
          "internalType": "contract IReserveToken",
          "name": "reserveToken",
          "type": "address"
        },
        {
          "internalType": "uint256",
          "name": "amount",
          "type": "uint256"
        }
      ],
      "name": "addLiquidity",
      "outputs": [
        {
          "internalType": "uint256",
          "name": "",
          "type": "uint256"
        }
      ],
      "stateMutability": "payable",
      "type": "function"
    },
    {
      "inputs": [
        {
          "internalType": "address",
          "name": "owner",
          "type": "address"
        },
        {
          "internalType": "contract IConverterAnchor",
          "name": "poolAnchor",
          "type": "address"
        },
        {
          "internalType": "contract IReserveToken",
          "name": "reserveToken",
          "type": "address"
        },
        {
          "internalType": "uint256",
          "name": "amount",
          "type": "uint256"
        }
      ],
      "name": "addLiquidityFor",
      "outputs": [
        {
          "internalType": "uint256",
          "name": "",
          "type": "uint256"
        }
      ],
      "stateMutability": "payable",
      "type": "function"
    },
    {
      "inputs": [
        {
          "internalType": "uint256",
          "name": "startIndex",
          "type": "uint256"
        },
        {
          "internalType": "uint256",
          "name": "endIndex",
          "type": "uint256"
        }
      ],
      "name": "claimBalance",
      "outputs": [],
      "stateMutability": "nonpayable",
      "type": "function"
    },
    {
      "inputs": [
        {
          "internalType": "bool",
          "name": "state",
          "type": "bool"
        }
      ],
      "name": "enableDepositing",
      "outputs": [],
      "stateMutability": "nonpayable",
      "type": "function"
    },
    {
      "inputs": [
        {
          "internalType": "bool",
          "name": "state",
          "type": "bool"
        }
      ],
      "name": "enableRemoving",
      "outputs": [],
      "stateMutability": "nonpayable",
      "type": "function"
    },
    {
      "inputs": [
        {
          "internalType": "contract IConverterAnchor[]",
          "name": "poolAnchors",
          "type": "address[]"
        }
      ],
      "name": "migrateSystemPoolTokens",
      "outputs": [],
      "stateMutability": "nonpayable",
      "type": "function"
    },
    {
      "inputs": [],
      "name": "newOwner",
      "outputs": [
        {
          "internalType": "address",
          "name": "",
          "type": "address"
        }
      ],
      "stateMutability": "view",
      "type": "function"
    },
    {
      "inputs": [],
      "name": "owner",
      "outputs": [
        {
          "internalType": "address",
          "name": "",
          "type": "address"
        }
      ],
      "stateMutability": "view",
      "type": "function"
    },
    {
      "inputs": [
        {
          "internalType": "contract IConverterAnchor",
          "name": "poolAnchor",
          "type": "address"
        }
      ],
      "name": "poolAvailableSpace",
      "outputs": [
        {
          "internalType": "uint256",
          "name": "",
          "type": "uint256"
        },
        {
          "internalType": "uint256",
          "name": "",
          "type": "uint256"
        }
      ],
      "stateMutability": "view",
      "type": "function"
    },
    {
      "inputs": [
        {
          "internalType": "contract IDSToken",
          "name": "poolToken",
          "type": "address"
        }
      ],
      "name": "poolDeficitPPM",
      "outputs": [
        {
          "internalType": "uint256",
          "name": "",
          "type": "uint256"
        }
      ],
      "stateMutability": "view",
      "type": "function"
    },
    {
      "inputs": [
        {
          "internalType": "uint256",
          "name": "id",
          "type": "uint256"
        }
      ],
      "name": "positionValue",
      "outputs": [
        {
          "internalType": "uint256",
          "name": "",
          "type": "uint256"
        }
      ],
      "stateMutability": "view",
      "type": "function"
    },
    {
      "inputs": [
        {
          "internalType": "uint256",
          "name": "id",
          "type": "uint256"
        },
        {
          "internalType": "uint32",
          "name": "portion",
          "type": "uint32"
        }
      ],
      "name": "removeLiquidity",
      "outputs": [],
      "stateMutability": "nonpayable",
      "type": "function"
    },
    {
      "inputs": [
        {
          "internalType": "uint256",
          "name": "id",
          "type": "uint256"
        },
        {
          "internalType": "uint32",
          "name": "portion",
          "type": "uint32"
        },
        {
          "internalType": "uint256",
          "name": "removeTimestamp",
          "type": "uint256"
        }
      ],
      "name": "removeLiquidityReturn",
      "outputs": [
        {
          "internalType": "uint256",
          "name": "",
          "type": "uint256"
        },
        {
          "internalType": "uint256",
          "name": "",
          "type": "uint256"
        },
        {
          "internalType": "uint256",
          "name": "",
          "type": "uint256"
        }
      ],
      "stateMutability": "view",
      "type": "function"
    },
    {
      "inputs": [
        {
          "internalType": "contract IConverterAnchor",
          "name": "poolAnchor",
          "type": "address"
        },
        {
          "internalType": "uint256",
          "name": "amount",
          "type": "uint256"
        }
      ],
      "name": "setTotalPositionsValue",
      "outputs": [],
      "stateMutability": "nonpayable",
      "type": "function"
    },
    {
      "inputs": [
        {
          "internalType": "contract IConverterAnchor[]",
          "name": "poolAnchors",
          "type": "address[]"
        },
        {
          "internalType": "uint256[]",
          "name": "amounts",
          "type": "uint256[]"
        }
      ],
      "name": "setTotalPositionsValueMultiple",
      "outputs": [],
      "stateMutability": "nonpayable",
      "type": "function"
    },
    {
      "inputs": [],
      "name": "settings",
      "outputs": [
        {
          "internalType": "contract ILiquidityProtectionSettings",
          "name": "",
          "type": "address"
        }
      ],
      "stateMutability": "view",
      "type": "function"
    },
    {
      "inputs": [],
      "name": "stats",
      "outputs": [
        {
          "internalType": "contract ILiquidityProtectionStats",
          "name": "",
          "type": "address"
        }
      ],
      "stateMutability": "view",
      "type": "function"
    },
    {
      "inputs": [],
      "name": "store",
      "outputs": [
        {
          "internalType": "contract ILiquidityProtectionStore",
          "name": "",
          "type": "address"
        }
      ],
      "stateMutability": "view",
      "type": "function"
    },
    {
      "inputs": [
        {
          "internalType": "contract IConverterAnchor",
          "name": "poolAnchor",
          "type": "address"
        }
      ],
      "name": "totalPositionsValue",
      "outputs": [
        {
          "internalType": "uint256",
          "name": "amount",
          "type": "uint256"
        }
      ],
      "stateMutability": "view",
      "type": "function"
    },
    {
      "inputs": [
        {
          "internalType": "address",
          "name": "newOwner",
          "type": "address"
        }
      ],
      "name": "transferOwnership",
      "outputs": [],
      "stateMutability": "nonpayable",
      "type": "function"
    },
    {
      "inputs": [
        {
          "internalType": "uint256",
          "name": "id",
          "type": "uint256"
        },
        {
          "internalType": "address",
          "name": "newProvider",
          "type": "address"
        }
      ],
      "name": "transferPosition",
      "outputs": [
        {
          "internalType": "uint256",
          "name": "",
          "type": "uint256"
        }
      ],
      "stateMutability": "nonpayable",
      "type": "function"
    },
    {
      "inputs": [
        {
          "internalType": "uint256",
          "name": "id",
          "type": "uint256"
        },
        {
          "internalType": "address",
          "name": "newProvider",
          "type": "address"
        },
        {
          "internalType": "contract ITransferPositionCallback",
          "name": "callback",
          "type": "address"
        },
        {
          "internalType": "bytes",
          "name": "data",
          "type": "bytes"
        }
      ],
      "name": "transferPositionAndNotify",
      "outputs": [
        {
          "internalType": "uint256",
          "name": "",
          "type": "uint256"
        }
      ],
      "stateMutability": "nonpayable",
      "type": "function"
    },
    {
      "inputs": [
        {
          "internalType": "address",
          "name": "newOwner",
          "type": "address"
        }
      ],
      "name": "transferStoreOwnership",
      "outputs": [],
      "stateMutability": "nonpayable",
      "type": "function"
    },
    {
      "inputs": [
        {
          "internalType": "address",
          "name": "newOwner",
          "type": "address"
        }
      ],
      "name": "transferWalletOwnership",
      "outputs": [],
      "stateMutability": "nonpayable",
      "type": "function"
    },
    {
      "stateMutability": "payable",
      "type": "receive"
    }
  ],
  "transactionHash": "0xf267a4cfe0b68bd1c3d5ed95409c1fd4efe079cec2358846087f24f4417c268c",
  "args": [
    "0x649765821D9f64198c905eC0B2B037a4a52Bc373",
    "0xf7d28faa1fe9ea53279fe6e3cde75175859bdf46",
    "0xf5fab5dbd2f3bf675de4cb76517d4767013cfb55",
    "0x9712bb50dc6efb8a3d7d12cea500a50967d2d471",
    "0xc4C5634De585d43DaEC8fA2a6Fb6286cd9B87131",
    "0xd1d846312b819743974786050848d9b3d06b9b55",
    "0xa489C2b5b36835A327851Ab917A80562B5AFC244",
    "0x0887ae1251E180d7D453aeDEBee26e1639f20113"
  ],
  "numDeployments": 3,
  "solcInputHash": "903d6f4c1fc1861c6e4295f14c76af62",
  "bytecode": "0x6101c06040526004805461ffff191690553480156200001d57600080fd5b5060405162005d1238038062005d1283398101604081905262000040916200024a565b600080546001600160a01b031916331790556001600255620000628862000215565b6200006d8762000215565b620000788662000215565b620000838562000215565b6200008e8462000215565b620000998362000215565b6001600160601b0319606089811b821660805288811b821660a05287811b821660c05286811b821660e05285811b82166101005284811b82166101205283811b82166101605282901b166101a05260408051637e062a3560e11b815290516001600160a01b0384169163fc0c546a916004808301926020929190829003018186803b1580156200012857600080fd5b505afa1580156200013d573d6000803e3d6000fd5b505050506040513d601f19601f820116820180604052508101906200016391906200030a565b6001600160a01b0316610140816001600160a01b031660601b81525050806001600160a01b031663fc0c546a6040518163ffffffff1660e01b815260040160206040518083038186803b158015620001ba57600080fd5b505afa158015620001cf573d6000803e3d6000fd5b505050506040513d601f19601f82011682018060405250810190620001f591906200030a565b60601b6001600160601b03191661018052506200037d9650505050505050565b6001600160a01b038116620002475760405162461bcd60e51b81526004016200023e9062000330565b60405180910390fd5b50565b600080600080600080600080610100898b03121562000267578384fd5b8851620002748162000367565b60208a0151909850620002878162000367565b60408a01519097506200029a8162000367565b60608a0151909650620002ad8162000367565b60808a0151909550620002c08162000367565b60a08a0151909450620002d38162000367565b60c08a0151909350620002e68162000367565b60e08a0151909250620002f98162000367565b809150509295985092959890939650565b6000602082840312156200031c578081fd5b8151620003298162000367565b9392505050565b60208082526013908201527f4552525f494e56414c49445f4144445245535300000000000000000000000000604082015260600190565b6001600160a01b03811681146200024757600080fd5b60805160601c60a05160601c60c05160601c60e05160601c6101005160601c6101205160601c6101405160601c6101605160601c6101805160601c6101a05160601c6158066200050c6000398061264c5280613de55250806126065250806119b452806138f45250806105545280610c2e5280611cdc5280611df65280611f2052806127de528061289952806135d55280613cab5280613d9c5280613e605250806107f75280610c015280610f78528061151c52806117c6528061204e52806127545280613aad52806141295250806115d052806116a1528061172a52806119365280611d2c5280611e48528061257a52806138765280613d0d5280613f71528061415d5250806110ba52806130b052806131a45280613228525080610a575280610b455280610eb25280610f1c5280610ffa528061224a5280612f92528061303e52806132d252806139e55250806111425280611b705280611c2b52806129665280612c255280612ccb528061374052806139345280613e9f5250806106a852806106e852506158066000f3fe6080604052600436106101a05760003560e01c80637c53dc0b116100ec578063caee4c8f1161008a578063dd639b1b11610064578063dd639b1b14610474578063e06174e414610494578063e4a76726146104a9578063f2fde38b146104bc576101a7565b8063caee4c8f14610437578063d4ee1d901461044a578063d80528ae1461045f576101a7565b8063975057e7116100c6578063975057e7146103c2578063b636d486146103d7578063bf3b1101146103f7578063c2250a9914610417576101a7565b80637c53dc0b1461036b57806389d94b461461038b5780638da5cb5b146103a0576101a7565b80634008348011610159578063630d8c6311610133578063630d8c63146102e75780636d533e9b14610307578063782ed90c1461033657806379ba509714610356576101a7565b8063400834801461028757806355bd513f146102a75780635e718c37146102c7576101a7565b80631e83958b146101ac57806324afe2d9146101ce57806324e82c611461020557806326e6b6971461023257806328790b5a146102525780633fad2db314610267576101a7565b366101a757005b600080fd5b3480156101b857600080fd5b506101cc6101c7366004614b8d565b6104dc565b005b3480156101da57600080fd5b506101ee6101e9366004614a89565b610766565b6040516101fc929190615774565b60405180910390f35b34801561021157600080fd5b50610225610220366004614a89565b610798565b6040516101fc91906150db565b34801561023e57600080fd5b506101cc61024d366004614cca565b6107d2565b34801561025e57600080fd5b506101cc6107ed565b34801561027357600080fd5b506101cc610282366004614bcd565b61086a565b34801561029357600080fd5b506102256102a2366004614dcc565b6108e7565b3480156102b357600080fd5b506102256102c2366004614d9d565b6109a9565b3480156102d357600080fd5b506101cc6102e2366004614cca565b6109f3565b3480156102f357600080fd5b506101cc610302366004614e66565b610a15565b34801561031357600080fd5b50610327610322366004614ece565b610c9a565b6040516101fc93929190615782565b34801561034257600080fd5b506101cc610351366004614eaa565b610d95565b34801561036257600080fd5b506101cc610de2565b34801561037757600080fd5b506101cc610386366004614d42565b610e70565b34801561039757600080fd5b506101cc610ea8565b3480156103ac57600080fd5b506103b5610f0b565b6040516101fc9190614f9e565b3480156103ce57600080fd5b506103b5610f1a565b3480156103e357600080fd5b506102256103f2366004614a89565b610f3e565b34801561040357600080fd5b506101cc610412366004614a89565b610f59565b34801561042357600080fd5b506101cc610432366004614a89565b610fdb565b610225610445366004614ac1565b61102f565b34801561045657600080fd5b506103b56110a9565b34801561046b57600080fd5b506103b56110b8565b34801561048057600080fd5b5061022561048f366004614d6d565b6110dc565b3480156104a057600080fd5b506103b5611140565b6102256104b7366004614d02565b611164565b3480156104c857600080fd5b506101cc6104d7366004614a89565b6111d2565b6002805414156105075760405162461bcd60e51b81526004016104fe906155f3565b60405180910390fd5b6002805561051361122a565b8060005b8181101561075b57600084848381811061052d57fe5b90506020020160208101906105429190614a89565b905080600061055082611256565b90507f0000000000000000000000000000000000000000000000000000000000000000600061057f83836112cf565b9050600061058e8585846113f7565b9050806105a057505050505050610753565b6105aa8582611687565b6060806105b78585611838565b915091506060866001600160a01b031663b127c0a58585856040518463ffffffff1660e01b81526004016105ed93929190615749565b600060405180830381600087803b15801561060757600080fd5b505af115801561061b573d6000803e3d6000fd5b505050506040513d6000823e601f3d908101601f191682016040526106439190810190614c36565b9050610663898260008151811061065657fe5b602002602001015161191f565b6106898360018151811061067357fe5b60200260200101516001600160a01b0316611a21565b156106e3576106de8160018151811061069e57fe5b60200260200101517f00000000000000000000000000000000000000000000000000000000000000006001600160a01b0316611a4690919063ffffffff16565b610749565b6107497f00000000000000000000000000000000000000000000000000000000000000008260018151811061071457fe5b60200260200101518560018151811061072957fe5b60200260200101516001600160a01b0316611ae79092919063ffffffff16565b5050505050505050505b600101610517565b505060016002555050565b6000808261077381611b59565b61077c81611c14565b61078584611ccc565b61078e85611df1565b9250925050915091565b60006107a2614905565b6107ab83611f03565b90506107c9620f424063ffffffff168260000151836020015161214d565b9150505b919050565b6107da61122a565b6004805460ff1916911515919091179055565b6107f561122a565b7f00000000000000000000000000000000000000000000000000000000000000006001600160a01b03166379ba50976040518163ffffffff1660e01b8152600401600060405180830381600087803b15801561085057600080fd5b505af1158015610864573d6000803e3d6000fd5b50505050565b61087261122a565b8281146108915760405162461bcd60e51b81526004016104fe90615117565b60005b838110156108e0576108d88585838181106108ab57fe5b90506020020160208101906108c09190614a89565b8484848181106108cc57fe5b90506020020135610e70565b600101610894565b5050505050565b600060028054141561090b5760405162461bcd60e51b81526004016104fe906155f3565b60028055846109198161215d565b846109238161215d565b6000610930338a8a612183565b604051635c2ba84560e01b81529091506001600160a01b03881690635c2ba8459061096590849033908b908b90600401615702565b600060405180830381600087803b15801561097f57600080fd5b505af1158015610993573d6000803e3d6000fd5b5050600160025550909998505050505050505050565b60006002805414156109cd5760405162461bcd60e51b81526004016104fe906155f3565b60028055816109db8161215d565b6109e6338585612183565b6001600255949350505050565b6109fb61122a565b600480549115156101000261ff0019909216919091179055565b600280541415610a375760405162461bcd60e51b81526004016104fe906155f3565b60028055604051637a1036f560e11b815260609081906001600160a01b037f0000000000000000000000000000000000000000000000000000000000000000169063f4206dea90610a9090339088908890600401614fcb565b60006040518083038186803b158015610aa857600080fd5b505afa158015610abc573d6000803e3d6000fd5b505050506040513d6000823e601f3d908101601f19168201604052610ae49190810190614c69565b915091506000808351905082518114610af957fe5b805b8015610be3576000198101610b0e6121bf565b858281518110610b1a57fe5b60200260200101511115610b2e5750610bda565b6040516390e0661b60e01b81526001600160a01b037f000000000000000000000000000000000000000000000000000000000000000016906390e0661b90610b7e9033908c860190600401614fb2565b600060405180830381600087803b158015610b9857600080fd5b505af1158015610bac573d6000803e3d6000fd5b50505050610bd6868281518110610bbf57fe5b6020026020010151856121c390919063ffffffff16565b9350505b60001901610afb565b508115610c8d57604051632f1a9acf60e11b81526001600160a01b037f00000000000000000000000000000000000000000000000000000000000000001690635e35359e90610c5a907f00000000000000000000000000000000000000000000000000000000000000009033908790600401615006565b600060405180830381600087803b158015610c7457600080fd5b505af1158015610c88573d6000803e3d6000fd5b505050505b5050600160025550505050565b600080600084610ca9816121e8565b610cb161491f565b610cba88612223565b80519091506001600160a01b0316610ce45760405162461bcd60e51b81526004016104fe90615680565b8060e00151861015610d085760405162461bcd60e51b81526004016104fe906156d3565b63ffffffff8716620f424014610d3c57610d31816060015182608001518963ffffffff1661230a565b608083015260608201525b610d4461497f565b610d60826020015183604001518460a001518560c00151612336565b90506000610d8183602001518460400151856060015186608001518661239a565b509a8b9a5060009950975050505050505050565b600280541415610db75760405162461bcd60e51b81526004016104fe906155f3565b60028055610dc3612507565b80610dcd816121e8565b610dd833848461251b565b5050600160025550565b6001546001600160a01b03163314610e0c5760405162461bcd60e51b81526004016104fe906156a8565b600154600080546040516001600160a01b0393841693909116917f343765429aea5a34b3ff6a3785a98a5abb2597aca87bfbb58632c173d585373a91a360018054600080546001600160a01b03199081166001600160a01b03841617909155169055565b610e7861122a565b81610e8281611b59565b610e8b81611c14565b506001600160a01b03909116600090815260036020526040902055565b610eb061122a565b7f00000000000000000000000000000000000000000000000000000000000000006001600160a01b03166379ba50976040518163ffffffff1660e01b8152600401600060405180830381600087803b15801561085057600080fd5b6000546001600160a01b031690565b7f000000000000000000000000000000000000000000000000000000000000000090565b6001600160a01b031660009081526003602052604090205490565b610f6161122a565b60405163f2fde38b60e01b81526001600160a01b037f0000000000000000000000000000000000000000000000000000000000000000169063f2fde38b90610fad908490600401614f9e565b600060405180830381600087803b158015610fc757600080fd5b505af11580156108e0573d6000803e3d6000fd5b610fe361122a565b60405163f2fde38b60e01b81526001600160a01b037f0000000000000000000000000000000000000000000000000000000000000000169063f2fde38b90610fad908490600401614f9e565b60006002805414156110535760405162461bcd60e51b81526004016104fe906155f3565b60028055846110618161215d565b8461106b81611b59565b61107481611c14565b85856110808282612942565b8561108a81612a0f565b6110968a8a8a8a612a2f565b60016002559a9950505050505050505050565b6001546001600160a01b031690565b7f000000000000000000000000000000000000000000000000000000000000000090565b60006110e661491f565b6110ef83612223565b90506110f961497f565b611115826020015183604001518460a001518560c00151612336565b9050600061113683602001518460400151856060015186608001518661239a565b9695505050505050565b7f000000000000000000000000000000000000000000000000000000000000000090565b60006002805414156111885760405162461bcd60e51b81526004016104fe906155f3565b600280558361119681611b59565b61119f81611c14565b84846111ab8282612942565b846111b581612a0f565b6111c133898989612a2f565b600160025598975050505050505050565b6111da61122a565b6000546001600160a01b03828116911614156112085760405162461bcd60e51b81526004016104fe9061517b565b600180546001600160a01b0319166001600160a01b0392909216919091179055565b6000546001600160a01b031633146112545760405162461bcd60e51b81526004016104fe906156a8565b565b6000816001600160a01b0316638da5cb5b6040518163ffffffff1660e01b815260040160206040518083038186803b15801561129157600080fd5b505afa1580156112a5573d6000803e3d6000fd5b505050506040513d601f19601f820116820180604052508101906112c99190614aa5565b92915050565b600080836001600160a01b03166319b6401560006040518263ffffffff1660e01b81526004016112ff91906150db565b60206040518083038186803b15801561131757600080fd5b505afa15801561132b573d6000803e3d6000fd5b505050506040513d601f19601f8201168201806040525081019061134f9190614aa5565b9050826001600160a01b0316816001600160a01b031614156113ed576040516319b6401560e01b81526001600160a01b038516906319b6401590611398906001906004016150db565b60206040518083038186803b1580156113b057600080fd5b505afa1580156113c4573d6000803e3d6000fd5b505050506040513d601f19601f820116820180604052508101906113e89190614aa5565b6113ef565b805b949350505050565b60008061140385610f3e565b90506000846001600160a01b031663dc8de379856040518263ffffffff1660e01b81526004016114339190614f9e565b60206040518083038186803b15801561144b57600080fd5b505afa15801561145f573d6000803e3d6000fd5b505050506040513d601f19601f820116820180604052508101906114839190614d85565b90506000866001600160a01b03166318160ddd6040518163ffffffff1660e01b815260040160206040518083038186803b1580156114c057600080fd5b505afa1580156114d4573d6000803e3d6000fd5b505050506040513d601f19601f820116820180604052508101906114f89190614d85565b9050600061150782858561214d565b90506000886001600160a01b03166370a082317f00000000000000000000000000000000000000000000000000000000000000006040518263ffffffff1660e01b81526004016115579190614f9e565b60206040518083038186803b15801561156f57600080fd5b505afa158015611583573d6000803e3d6000fd5b505050506040513d601f19601f820116820180604052508101906115a79190614d85565b90508082106115be57600095505050505050611680565b60006115ca8284612a8e565b905060007f00000000000000000000000000000000000000000000000000000000000000006001600160a01b0316635121220c8c6040518263ffffffff1660e01b815260040161161a9190614f9e565b60206040518083038186803b15801561163257600080fd5b505afa158015611646573d6000803e3d6000fd5b505050506040513d601f19601f8201168201806040525081019061166a9190614d85565b90506116768282612ab6565b9750505050505050505b9392505050565b604051631448488360e21b81526000906001600160a01b037f00000000000000000000000000000000000000000000000000000000000000001690635121220c906116d6908690600401614f9e565b60206040518083038186803b1580156116ee57600080fd5b505afa158015611702573d6000803e3d6000fd5b505050506040513d601f19601f820116820180604052508101906117269190614d85565b90507f00000000000000000000000000000000000000000000000000000000000000006001600160a01b03166319c6a5e4846117628585612ab6565b6040518363ffffffff1660e01b815260040161177f929190614fb2565b600060405180830381600087803b15801561179957600080fd5b505af11580156117ad573d6000803e3d6000fd5b5050604051632f1a9acf60e11b81526001600160a01b037f0000000000000000000000000000000000000000000000000000000000000000169250635e35359e915061180190869030908790600401615006565b600060405180830381600087803b15801561181b57600080fd5b505af115801561182f573d6000803e3d6000fd5b50505050505050565b60408051600280825260608281019093528291829181602001602082028036833750506040805160028082526060808301845294955090925090602083019080368337019050509050858260008151811061188f57fe5b60200260200101906001600160a01b031690816001600160a01b03168152505084826001815181106118bd57fe5b60200260200101906001600160a01b031690816001600160a01b0316815250506001816000815181106118ec57fe5b60200260200101818152505060018160018151811061190757fe5b602090810291909101015290925090505b9250929050565b604051634017d1dd60e11b81526001600160a01b037f0000000000000000000000000000000000000000000000000000000000000000169063802fa3ba9061196d9085908590600401614fb2565b600060405180830381600087803b15801561198757600080fd5b505af115801561199b573d6000803e3d6000fd5b5050604051630852cd8d60e31b81526001600160a01b037f00000000000000000000000000000000000000000000000000000000000000001692506342966c6891506119eb9084906004016150db565b600060405180830381600087803b158015611a0557600080fd5b505af1158015611a19573d6000803e3d6000fd5b505050505050565b6001600160a01b03811673eeeeeeeeeeeeeeeeeeeeeeeeeeeeeeeeeeeeeeee14919050565b80471015611a665760405162461bcd60e51b81526004016104fe906152a5565b6000826001600160a01b031682604051611a7f90612acc565b60006040518083038185875af1925050503d8060008114611abc576040519150601f19603f3d011682016040523d82523d6000602084013e611ac1565b606091505b5050905080611ae25760405162461bcd60e51b81526004016104fe90615248565b505050565b80611af157611ae2565b611afa83611a21565b15611b3b576040516001600160a01b0383169082156108fc029083906000818181858888f19350505050158015611b35573d6000803e3d6000fd5b50611ae2565b611ae28282611b4986612acc565b6001600160a01b03169190612acf565b604051631a9ec62960e31b81526001600160a01b037f0000000000000000000000000000000000000000000000000000000000000000169063d4f6314890611ba5908490600401614f9e565b60206040518083038186803b158015611bbd57600080fd5b505afa158015611bd1573d6000803e3d6000fd5b505050506040513d601f19601f82011682018060405250810190611bf59190614ce6565b611c115760405162461bcd60e51b81526004016104fe9061547a565b50565b60405163159354c160e11b81526001600160a01b037f00000000000000000000000000000000000000000000000000000000000000001690632b26a98290611c60908490600401614f9e565b60206040518083038186803b158015611c7857600080fd5b505afa158015611c8c573d6000803e3d6000fd5b505050506040513d601f19601f82011682018060405250810190611cb09190614ce6565b611c115760405162461bcd60e51b81526004016104fe906151a3565b600080611cd883611256565b90507f00000000000000000000000000000000000000000000000000000000000000006000611d0783836112cf565b9050600080611d17858486612b25565b915091506000611d2688612c20565b905060007f00000000000000000000000000000000000000000000000000000000000000006001600160a01b031663350ed8e78a6040518263ffffffff1660e01b8152600401611d769190614f9e565b60206040518083038186803b158015611d8e57600080fd5b505afa158015611da2573d6000803e3d6000fd5b505050506040513d601f19601f82011682018060405250810190611dc69190614d85565b9050600081611dd58484612d5f565b039050611de381868661214d565b9a9950505050505050505050565b6000817f0000000000000000000000000000000000000000000000000000000000000000611e1d614905565b611e278383612d6f565b9050611efa8160200151611ef46001611eee8560000151611ee887600001517f00000000000000000000000000000000000000000000000000000000000000006001600160a01b0316635121220c8c6040518263ffffffff1660e01b8152600401611e929190614f9e565b60206040518083038186803b158015611eaa57600080fd5b505afa158015611ebe573d6000803e3d6000fd5b505050506040513d601f19601f82011682018060405250810190611ee29190614d85565b90612eab565b906121c3565b90612a8e565b90612ee5565b95945050505050565b611f0b614905565b6000611f1683611256565b90506000611f44827f00000000000000000000000000000000000000000000000000000000000000006112cf565b90506000826001600160a01b031663dc8de379836040518263ffffffff1660e01b8152600401611f749190614f9e565b60206040518083038186803b158015611f8c57600080fd5b505afa158015611fa0573d6000803e3d6000fd5b505050506040513d601f19601f82011682018060405250810190611fc49190614d85565b90506000856001600160a01b03166318160ddd6040518163ffffffff1660e01b815260040160206040518083038186803b15801561200157600080fd5b505afa158015612015573d6000803e3d6000fd5b505050506040513d601f19601f820116820180604052508101906120399190614d85565b90506000866001600160a01b03166370a082317f00000000000000000000000000000000000000000000000000000000000000006040518263ffffffff1660e01b81526004016120899190614f9e565b60206040518083038186803b1580156120a157600080fd5b505afa1580156120b5573d6000803e3d6000fd5b505050506040513d601f19601f820116820180604052508101906120d99190614d85565b905060006120e884838561214d565b905060006120f589610f3e565b90508082106121235760405180604001604052806000815260200160018152509750505050505050506107cd565b60408051808201909152806121388385612a8e565b81526020019190915298975050505050505050565b60006113ef82611ef48686612eab565b6001600160a01b038116611c115760405162461bcd60e51b81526004016104fe906154aa565b600061218d61491f565b61219b8585620f4240612f17565b9050611efa8382602001518360400151846060015185608001518660e00151613151565b4290565b6000828201838110156113ed5760405162461bcd60e51b81526004016104fe90615144565b60008163ffffffff161180156122075750620f424063ffffffff821611155b611c115760405162461bcd60e51b81526004016104fe906155c6565b61222b61491f565b61223361491f565b604051635290ffbb60e01b81526001600160a01b037f00000000000000000000000000000000000000000000000000000000000000001690635290ffbb9061227f9086906004016150db565b6101006040518083038186803b15801561229857600080fd5b505afa1580156122ac573d6000803e3d6000fd5b505050506040513d601f19601f820116820180604052508101906122d09190614b11565b60e089015260c088015260a0870152608086015260608501526001600160a01b039081166040850152908116602084015216815292915050565b60008061231b8584620f424061214d565b6123298585620f424061214d565b915091505b935093915050565b61233e61497f565b612346614905565b61234e614905565b6123588787613372565b915091506001600160801b038160200151826000015184602001518560000151171717111561238357fe5b61238f85858484613463565b979650505050505050565b60008060006123a7614905565b604051806040016040528086600001516001600160801b0316815260200186602001516001600160801b031681525090506123e0614905565b50604080518082018252908601516001600160801b039081168252606087015116602082015261240e614905565b6124188b8b612d6f565b9050612426898285856134ce565b93506124318a6135d3565b1561244557838495509550505050506124fd565b61244d614905565b604051806040016040528089608001516001600160801b031681526020018960a001516001600160801b03168152509050612486614905565b6124908583613605565b90506124a561249f8b88612d5f565b826136d3565b95506124af614905565b6124b88e611f03565b90506124c2614905565b50604080518082019091528151602080840180519290920380845291519083018190526124f0918a9161214d565b9950969750505050505050505b9550959350505050565b600454610100900460ff1661125457600080fd5b63ffffffff8116620f4240146125435760405162461bcd60e51b81526004016104fe90615322565b61254b61491f565b612556848484612f17565b60208101516060820151604051631990807d60e11b81529293506001600160a01b037f0000000000000000000000000000000000000000000000000000000000000000169263332100fa926125af929091600401614fb2565b600060405180830381600087803b1580156125c957600080fd5b505af11580156125dd573d6000803e3d6000fd5b505050506125ee81604001516135d3565b156126b3576080810151612630906001600160a01b037f000000000000000000000000000000000000000000000000000000000000000016908690309061371b565b6080810151604051630852cd8d60e31b81526001600160a01b037f000000000000000000000000000000000000000000000000000000000000000016916342966c689161268091906004016150db565b600060405180830381600087803b15801561269a57600080fd5b505af11580156126ae573d6000803e3d6000fd5b505050505b6126bb61497f565b6126d7826020015183604001518460a001518560c00151612336565b905061271981604001516001600160801b031682606001516001600160801b031683608001516001600160801b03168460a001516001600160801b031661373c565b60008061273984602001518560400151866060015187608001518761239a565b9150915061274a84604001516135d3565b156127915761277e7f000000000000000000000000000000000000000000000000000000000000000085602001518461385f565b612788878361392d565b50505050611ae2565b612799614905565b6127ab85602001518660400151612d6f565b905060006127be84838860200151613a70565b90506127ce866020015182611687565b61280286602001518288604001517f0000000000000000000000000000000000000000000000000000000000000000613b3d565b6020808701516001600160a01b031660009081526003909152604090205461282e84611eee8382612d5f565b6020808901516001600160a01b0390811660009081526003909252604080832093909355918901519091612863911630613be2565b604089015190915061287f906001600160a01b03168c83611ae7565b6040516370a0823160e01b81526000906001600160a01b037f000000000000000000000000000000000000000000000000000000000000000016906370a08231906128ce903090600401614f9e565b60206040518083038186803b1580156128e657600080fd5b505afa1580156128fa573d6000803e3d6000fd5b505050506040513d601f19601f8201168201806040525081019061291e9190614d85565b905080156129345761293489602001518261191f565b505050505050505050505050565b60045460ff1680156129ef5750604051634f2b8d3560e11b81526001600160a01b037f00000000000000000000000000000000000000000000000000000000000000001690639e571a6a9061299d9085908590600401614fec565b60206040518083038186803b1580156129b557600080fd5b505afa1580156129c9573d6000803e3d6000fd5b505050506040513d601f19601f820116820180604052508101906129ed9190614ce6565b155b612a0b5760405162461bcd60e51b81526004016104fe906151da565b5050565b60008111611c115760405162461bcd60e51b81526004016104fe906153c0565b6000612a3a836135d3565b15612a5b57612a496000613c87565b612a54858584613ca6565b90506113ef565b612a82612a70846001600160a01b0316611a21565b612a7b576000612a7d565b825b613c87565b611efa85858585613e5b565b600082821115612ab05760405162461bcd60e51b81526004016104fe90615211565b50900390565b6000818310612ac55781611680565b5090919050565b90565b611ae28363a9059cbb60e01b8484604051602401612aee929190614fb2565b60408051601f198184030181529190526020810180516001600160e01b03166001600160e01b0319909316929092179091526141ff565b600080846001600160a01b031663d8959512856040518263ffffffff1660e01b8152600401612b549190614f9e565b60206040518083038186803b158015612b6c57600080fd5b505afa158015612b80573d6000803e3d6000fd5b505050506040513d601f19601f82011682018060405250810190612ba49190614d85565b604051636c4aca8960e11b81526001600160a01b0387169063d895951290612bd0908790600401614f9e565b60206040518083038186803b158015612be857600080fd5b505afa158015612bfc573d6000803e3d6000fd5b505050506040513d601f19601f820116820180604052508101906123299190614d85565b6000807f00000000000000000000000000000000000000000000000000000000000000006001600160a01b031663943fd08a846040518263ffffffff1660e01b8152600401612c6f9190614f9e565b60206040518083038186803b158015612c8757600080fd5b505afa158015612c9b573d6000803e3d6000fd5b505050506040513d601f19601f82011682018060405250810190612cbf9190614d85565b9050600081116112c9577f00000000000000000000000000000000000000000000000000000000000000006001600160a01b031663b97b55ce6040518163ffffffff1660e01b815260040160206040518083038186803b158015612d2257600080fd5b505afa158015612d36573d6000803e3d6000fd5b505050506040513d601f19601f82011682018060405250810190612d5a9190614d85565b6107c9565b600081831015612ac55781611680565b612d77614905565b6000836001600160a01b03166318160ddd6040518163ffffffff1660e01b815260040160206040518083038186803b158015612db257600080fd5b505afa158015612dc6573d6000803e3d6000fd5b505050506040513d601f19601f82011682018060405250810190612dea9190614d85565b90506000612df785611256565b90506000816001600160a01b031663d8959512866040518263ffffffff1660e01b8152600401612e279190614f9e565b60206040518083038186803b158015612e3f57600080fd5b505afa158015612e53573d6000803e3d6000fd5b505050506040513d601f19601f82011682018060405250810190612e779190614d85565b90506040518060400160405280612e98600284612eab90919063ffffffff16565b8152602001939093525090949350505050565b600082612eba575060006112c9565b82820282848281612ec757fe5b04146113ed5760405162461bcd60e51b81526004016104fe90615439565b6000808211612f065760405162461bcd60e51b81526004016104fe90615389565b818381612f0f57fe5b049392505050565b612f1f61491f565b612f2761491f565b612f31848661428e565b9050612f408160200151611c14565b612f486121bf565b8160e0015110612f6a5760405162461bcd60e51b81526004016104fe906153e8565b63ffffffff8316620f42401415612ffe57604051636f366b7160e01b81526001600160a01b037f00000000000000000000000000000000000000000000000000000000000000001690636f366b7190612fc79087906004016150db565b600060405180830381600087803b158015612fe157600080fd5b505af1158015612ff5573d6000803e3d6000fd5b505050506130ae565b60608101516080820151613019828263ffffffff881661230a565b608085018190526060850182905260405163161139bd60e31b81526001600160a01b037f0000000000000000000000000000000000000000000000000000000000000000169263b089cde892613079928b92880391870390600401615782565b600060405180830381600087803b15801561309357600080fd5b505af11580156130a7573d6000803e3d6000fd5b5050505050505b7f00000000000000000000000000000000000000000000000000000000000000006001600160a01b03166327396b6d826000015183602001518460400151856060015186608001516040518663ffffffff1660e01b815260040161311695949392919061502a565b600060405180830381600087803b15801561313057600080fd5b505af1158015613144573d6000803e3d6000fd5b5092979650505050505050565b600061315b614905565b613163614905565b61316d8888613372565b9150915061318d826000015183602001518360000151846020015161373c565b604051630aa558ef60e41b81526001600160a01b037f0000000000000000000000000000000000000000000000000000000000000000169063aa558ef0906131e1908c908c908c908c908c9060040161502a565b600060405180830381600087803b1580156131fb57600080fd5b505af115801561320f573d6000803e3d6000fd5b5050604051637ea5e0f360e11b81526001600160a01b037f000000000000000000000000000000000000000000000000000000000000000016925063fd4bc1e69150613261908c908c90600401614fec565b602060405180830381600087803b15801561327b57600080fd5b505af115801561328f573d6000803e3d6000fd5b505050506040513d601f19601f820116820180604052508101906132b39190614ce6565b50815160208301516040516361d5f08760e01b81526001600160a01b037f000000000000000000000000000000000000000000000000000000000000000016926361d5f08792613313928e928e928e928e928e9290918e9060040161505e565b602060405180830381600087803b15801561332d57600080fd5b505af1158015613341573d6000803e3d6000fd5b505050506040513d601f19601f820116820180604052508101906133659190614d85565b9998505050505050505050565b61337a614905565b613382614905565b600061338d85611256565b9050600061339b82866112cf565b90506000806133ab848489612b25565b91509150600080856001600160a01b0316631f0181bc8a6040518263ffffffff1660e01b81526004016133de9190614f9e565b604080518083038186803b1580156133f557600080fd5b505afa158015613409573d6000803e3d6000fd5b505050506040513d601f19601f8201168201806040525081019061342d9190614e87565b60408051808201825296875260208088019690965280518082019091529182529381019390935250919890975095505050505050565b61346b61497f565b6001600160801b03848617111561347e57fe5b506040805160c0810182526001600160801b03958616815293851660208086019190915283518616918501919091529182015184166060840152805184166080840152015190911660a082015290565b82518151602084015160009283926134f392611ee2916134ee9190612eab565b6142de565b905060006135228660200151611ee261351d87602001518960000151612eab90919063ffffffff16565b6142fe565b90508187028783828161353157fe5b04141561354c5781818161354157fe5b0493505050506113ef565b60008089851161355d578985613560565b848a5b9150915060008061357d8487856000198161357757fe5b04614354565b9150915060006135978488878161359057fe5b0490612eab565b905081156135c3576135b48183868602816135ae57fe5b04612d5f565b985050505050505050506113ef565b9c9b505050505050505050505050565b7f00000000000000000000000000000000000000000000000000000000000000006001600160a01b0390811691161490565b61360d614905565b602083015182516000916136219190612eab565b8451602085015191925060009161363791612eab565b905081810260008284838161364857fe5b041461366657613657836142fe565b613660856142fe565b0261366f565b61366f826142fe565b9050600061367d85856121c3565b9050600281066136b0576002810490506040518060400160405280838303815260200182815250955050505050506112c9565b604080518082019091526002909202810382526020820152935050505092915050565b6000806136e1600185612d5f565b90506000806136fe85600001518660200151856000198161357757fe5b909250905061113681611ef46137148286612a8e565b8990612eab565b610864846323b872dd60e01b858585604051602401612aee93929190615006565b60007f00000000000000000000000000000000000000000000000000000000000000006001600160a01b03166324a088686040518163ffffffff1660e01b815260040160206040518083038186803b15801561379757600080fd5b505afa1580156137ab573d6000803e3d6000fd5b505050506040513d601f19601f820116820180604052508101906137cf9190614ef4565b620f42400363ffffffff16905060006137f982611ee284611ee2878b612eab90919063ffffffff16565b90506000613810620f4240611ee285818a8a612eab565b90506000613827620f4240611ee281818c8a612eab565b90508183111580156138395750808211155b6138555760405162461bcd60e51b81526004016104fe9061540f565b5050505050505050565b604051636f566c2760e11b81526001600160a01b037f0000000000000000000000000000000000000000000000000000000000000000169063deacd84e906138ad9085908590600401614fb2565b600060405180830381600087803b1580156138c757600080fd5b505af11580156138db573d6000803e3d6000fd5b50506040516340c10f1960e01b81526001600160a01b037f00000000000000000000000000000000000000000000000000000000000000001692506340c10f1991506118019086908590600401614fb2565b60006139cb7f00000000000000000000000000000000000000000000000000000000000000006001600160a01b031663045544436040518163ffffffff1660e01b815260040160206040518083038186803b15801561398b57600080fd5b505afa15801561399f573d6000803e3d6000fd5b505050506040513d601f19601f820116820180604052508101906139c39190614d85565b611ee86121bf565b60405163dbae3a5d60e01b81529091506001600160a01b037f0000000000000000000000000000000000000000000000000000000000000000169063dbae3a5d90613a1e90869086908690600401614fcb565b602060405180830381600087803b158015613a3857600080fd5b505af1158015613a4c573d6000803e3d6000fd5b505050506040513d601f19601f820116820180604052508101906108649190614d85565b600080613a9685613a8f60028760200151612eab90919063ffffffff16565b865161214d565b9050611efa81846001600160a01b03166370a082317f00000000000000000000000000000000000000000000000000000000000000006040518263ffffffff1660e01b8152600401613ae89190614f9e565b60206040518083038186803b158015613b0057600080fd5b505afa158015613b14573d6000803e3d6000fd5b505050506040513d601f19601f82011682018060405250810190613b389190614d85565b612ab6565b6000613b4885611256565b9050606080613b578585611838565b60405163b127c0a560e01b815291935091506001600160a01b0384169063b127c0a590613b8c90899086908690600401615749565b600060405180830381600087803b158015613ba657600080fd5b505af1158015613bba573d6000803e3d6000fd5b505050506040513d6000823e601f3d908101601f191682016040526138559190810190614c36565b6000613bed83611a21565b15613c0357506001600160a01b038116316112c9565b613c0c83612acc565b6001600160a01b03166370a08231836040518263ffffffff1660e01b8152600401613c379190614f9e565b60206040518083038186803b158015613c4f57600080fd5b505afa158015613c63573d6000803e3d6000fd5b505050506040513d601f19601f820116820180604052508101906116809190614d85565b803414611c115760405162461bcd60e51b81526004016104fe906154d7565b6000827f0000000000000000000000000000000000000000000000000000000000000000613cd2614905565b613cdc8383612d6f565b90506000613cf3868360200151846000015161214d565b604051630671a97960e21b81529091506001600160a01b037f000000000000000000000000000000000000000000000000000000000000000016906319c6a5e490613d449087908590600401614fb2565b600060405180830381600087803b158015613d5e57600080fd5b505af1158015613d72573d6000803e3d6000fd5b505050506000613d8d898686858b613d886121bf565b613151565b9050613dc46001600160a01b037f00000000000000000000000000000000000000000000000000000000000000001633308a61371b565b613dce888861191f565b6040516340c10f1960e01b81526001600160a01b037f000000000000000000000000000000000000000000000000000000000000000016906340c10f1990613e1c908c908b90600401614fb2565b600060405180830381600087803b158015613e3657600080fd5b505af1158015613e4a573d6000803e3d6000fd5b50929b9a5050505050505050505050565b6000837f000000000000000000000000000000000000000000000000000000000000000082613e8983611256565b9050600080613e99838986612b25565b915091507f00000000000000000000000000000000000000000000000000000000000000006001600160a01b03166312588d0e6040518163ffffffff1660e01b815260040160206040518083038186803b158015613ef657600080fd5b505afa158015613f0a573d6000803e3d6000fd5b505050506040513d601f19601f82011682018060405250810190613f2e9190614d85565b811015613f4d5760405162461bcd60e51b81526004016104fe9061550e565b6000613f5a88838561214d565b90506000613f678b612c20565b9050600061400b837f00000000000000000000000000000000000000000000000000000000000000006001600160a01b031663350ed8e78f6040518263ffffffff1660e01b8152600401613fbb9190614f9e565b60206040518083038186803b158015613fd357600080fd5b505afa158015613fe7573d6000803e3d6000fd5b505050506040513d601f19601f82011682018060405250810190611ee89190614d85565b90508181111561402d5760405162461bcd60e51b81526004016104fe90615359565b614038308d8561385f565b61404c6001600160a01b038816878561439c565b61405e8b6001600160a01b0316611a21565b61408b576140776001600160a01b038c1633308d6143cd565b61408b6001600160a01b038c16878c61439c565b614099868c898d8734614408565b6040516370a0823160e01b81526000906001600160a01b038a16906370a08231906140c8903090600401614f9e565b60206040518083038186803b1580156140e057600080fd5b505afa1580156140f4573d6000803e3d6000fd5b505050506040513d601f19601f820116820180604052508101906141189190614d85565b905061414e6001600160a01b038a167f000000000000000000000000000000000000000000000000000000000000000083612acf565b604051631990807d60e11b81527f00000000000000000000000000000000000000000000000000000000000000006001600160a01b03169063332100fa906141a1908c9060028604860390600401614fb2565b600060405180830381600087803b1580156141bb57600080fd5b505af11580156141cf573d6000803e3d6000fd5b505050506141ed8e8a8e600285816141e357fe5b048f613d886121bf565b9e9d5050505050505050505050505050565b6060614254826040518060400160405280602081526020017f5361666545524332303a206c6f772d6c6576656c2063616c6c206661696c6564815250856001600160a01b03166145489092919063ffffffff16565b805190915015611ae257808060200190518101906142729190614ce6565b611ae25760405162461bcd60e51b81526004016104fe9061557c565b61429661491f565b61429e61491f565b6142a784612223565b9050826001600160a01b031681600001516001600160a01b0316146113ed5760405162461bcd60e51b81526004016104fe906156a8565b6000806142ea836142fe565b905082818202146112c957806001016107c9565b6000806002830460010190506000600282858161431757fe5b0483018161432157fe5b0490505b8082111561434d57809150600282858161433b57fe5b0483018161434557fe5b049050614325565b5092915050565b60008084848482118061436657508481115b1561437c57614376828287614557565b90925090505b80821461438d57909250905061232e565b50600196879650945050505050565b6143a583611a21565b156143af57611ae2565b611ae282826143bd86612acc565b6001600160a01b03169190614590565b8015806143de57506143de84611a21565b156143e857610864565b6108648383836143f788612acc565b6001600160a01b031692919061371b565b604080516002808252606080830184529260208301908036833750506040805160028082526060808301845294955090925090602083019080368337019050509050868260008151811061445857fe5b60200260200101906001600160a01b031690816001600160a01b031681525050858260018151811061448657fe5b60200260200101906001600160a01b031690816001600160a01b03168152505084816000815181106144b457fe5b60200260200101818152505083816001815181106144ce57fe5b6020908102919091010152604051637d8916bd60e01b81526001600160a01b03891690637d8916bd90859061450c90869086906001906004016150a5565b6000604051808303818588803b15801561452557600080fd5b505af1158015614539573d6000803e3d6000fd5b50505050505050505050505050565b60606113ef8484600085614659565b6000808385116145755761456c85858561470f565b9150915061232e565b60008061458386888761470f565b9890975095505050505050565b8061459a57611ae2565b604051636eb1769f60e11b81526000906001600160a01b0385169063dd62ed3e906145cb9030908790600401614fec565b60206040518083038186803b1580156145e357600080fd5b505afa1580156145f7573d6000803e3d6000fd5b505050506040513d601f19601f8201168201806040525081019061461b9190614d85565b905081811061462a5750611ae2565b8015614645576146456001600160a01b0385168460006147d3565b6108646001600160a01b03851684846147d3565b60608247101561467b5760405162461bcd60e51b81526004016104fe906152dc565b61468485614896565b6146a05760405162461bcd60e51b81526004016104fe90615545565b60006060866001600160a01b031685876040516146bd9190614f82565b60006040518083038185875af1925050503d80600081146146fa576040519150601f19603f3d011682016040523d82523d6000602084013e6146ff565b606091505b509150915061238f82828661489c565b6000806000836000198161471f57fe5b0490508086111561475857600081600101878161473857fe5b04600101905080878161474757fe5b04965080868161475357fe5b049550505b8486146147c357858402600061476e88886148d5565b905087811061479457600061478383836148d9565b95505050838503925061232e915050565b60028888030487038210156147b2576000869450945050505061232e565b60018087039450945050505061232e565b5050600290910493849350915050565b80158061485b5750604051636eb1769f60e11b81526001600160a01b0384169063dd62ed3e906148099030908690600401614fec565b60206040518083038186803b15801561482157600080fd5b505afa158015614835573d6000803e3d6000fd5b505050506040513d601f19601f820116820180604052508101906148599190614d85565b155b6148775760405162461bcd60e51b81526004016104fe9061562a565b611ae28363095ea7b360e01b8484604051602401612aee929190614fb2565b3b151590565b606083156148ab575081611680565b8251156148bb5782518084602001fd5b8160405162461bcd60e51b81526004016104fe91906150e4565b0190565b60006002820482038284816148ea57fe5b06816148f257fe5b048284816148fc57fe5b04019392505050565b604051806040016040528060008152602001600081525090565b60405180610100016040528060006001600160a01b0316815260200160006001600160a01b0316815260200160006001600160a01b0316815260200160008152602001600081526020016000815260200160008152602001600081525090565b6040805160c081018252600080825260208201819052918101829052606081018290526080810182905260a081019190915290565b60008083601f8401126149c5578182fd5b50813567ffffffffffffffff8111156149dc578182fd5b602083019150836020808302850101111561191857600080fd5b600082601f830112614a06578081fd5b815167ffffffffffffffff80821115614a1d578283fd5b602080830260405182828201018181108582111715614a3a578687fd5b604052848152945081850192508582018187018301881015614a5b57600080fd5b600091505b84821015614a7e578051845292820192600191909101908201614a60565b505050505092915050565b600060208284031215614a9a578081fd5b81356113ed816157c4565b600060208284031215614ab6578081fd5b81516113ed816157c4565b60008060008060808587031215614ad6578283fd5b8435614ae1816157c4565b93506020850135614af1816157c4565b92506040850135614b01816157c4565b9396929550929360600135925050565b600080600080600080600080610100898b031215614b2d578384fd5b8851614b38816157c4565b60208a0151909850614b49816157c4565b60408a0151909750614b5a816157c4565b60608a015160808b015160a08c015160c08d015160e0909d01519b9e9a9d50929b919a9099929850909650945092505050565b60008060208385031215614b9f578182fd5b823567ffffffffffffffff811115614bb5578283fd5b614bc1858286016149b4565b90969095509350505050565b60008060008060408587031215614be2578384fd5b843567ffffffffffffffff80821115614bf9578586fd5b614c05888389016149b4565b90965094506020870135915080821115614c1d578384fd5b50614c2a878288016149b4565b95989497509550505050565b600060208284031215614c47578081fd5b815167ffffffffffffffff811115614c5d578182fd5b6113ef848285016149f6565b60008060408385031215614c7b578182fd5b825167ffffffffffffffff80821115614c92578384fd5b614c9e868387016149f6565b93506020850151915080821115614cb3578283fd5b50614cc0858286016149f6565b9150509250929050565b600060208284031215614cdb578081fd5b81356113ed816157d9565b600060208284031215614cf7578081fd5b81516113ed816157d9565b600080600060608486031215614d16578081fd5b8335614d21816157c4565b92506020840135614d31816157c4565b929592945050506040919091013590565b60008060408385031215614d54578182fd5b8235614d5f816157c4565b946020939093013593505050565b600060208284031215614d7e578081fd5b5035919050565b600060208284031215614d96578081fd5b5051919050565b60008060408385031215614daf578182fd5b823591506020830135614dc1816157c4565b809150509250929050565b600080600080600060808688031215614de3578283fd5b853594506020860135614df5816157c4565b93506040860135614e05816157c4565b9250606086013567ffffffffffffffff80821115614e21578283fd5b818801915088601f830112614e34578283fd5b813581811115614e42578384fd5b896020828501011115614e53578384fd5b9699959850939650602001949392505050565b60008060408385031215614e78578182fd5b50508035926020909101359150565b60008060408385031215614e99578182fd5b505080516020909101519092909150565b60008060408385031215614ebc578182fd5b823591506020830135614dc1816157e7565b600080600060608486031215614ee2578081fd5b833592506020840135614d31816157e7565b600060208284031215614f05578081fd5b81516113ed816157e7565b6000815180845260208085019450808401835b83811015614f485781516001600160a01b031687529582019590820190600101614f23565b509495945050505050565b6000815180845260208085019450808401835b83811015614f4857815187529582019590820190600101614f66565b60008251614f94818460208701615798565b9190910192915050565b6001600160a01b0391909116815260200190565b6001600160a01b03929092168252602082015260400190565b6001600160a01b039390931683526020830191909152604082015260600190565b6001600160a01b0392831681529116602082015260400190565b6001600160a01b039384168152919092166020820152604081019190915260600190565b6001600160a01b03958616815293851660208501529190931660408301526060820192909252608081019190915260a00190565b6001600160a01b03988916815296881660208801529490961660408601526060850192909252608084015260a083015260c082019290925260e08101919091526101000190565b6000606082526150b86060830186614f10565b82810360208401526150ca8186614f53565b915050826040830152949350505050565b90815260200190565b6000602082528251806020840152615103816040850160208701615798565b601f01601f19169190910160400192915050565b60208082526013908201527208aa4a4be988a9c8ea890be9a92a69a82a8869606b1b604082015260600190565b6020808252601b908201527f536166654d6174683a206164646974696f6e206f766572666c6f770000000000604082015260600190565b6020808252600e908201526d22a9292fa9a0a6a2afa7aba722a960911b604082015260600190565b60208082526018908201527f4552525f504f4f4c5f4e4f545f57484954454c49535445440000000000000000604082015260600190565b6020808252601a908201527f4552525f4144445f4c49515549444954595f44495341424c4544000000000000604082015260600190565b6020808252601e908201527f536166654d6174683a207375627472616374696f6e206f766572666c6f770000604082015260600190565b6020808252603a908201527f416464726573733a20756e61626c6520746f2073656e642076616c75652c207260408201527f6563697069656e74206d61792068617665207265766572746564000000000000606082015260800190565b6020808252601d908201527f416464726573733a20696e73756666696369656e742062616c616e6365000000604082015260600190565b60208082526026908201527f416464726573733a20696e73756666696369656e742062616c616e636520666f6040820152651c8818d85b1b60d21b606082015260800190565b60208082526019908201527f4552525f504f5254494f4e5f4e4f545f535550504f5254454400000000000000604082015260600190565b60208082526016908201527511549497d3505617d05353d5539517d4915050d2115160521b604082015260600190565b6020808252601a908201527f536166654d6174683a206469766973696f6e206279207a65726f000000000000604082015260600190565b6020808252600e908201526d4552525f5a45524f5f56414c554560901b604082015260600190565b6020808252600d908201526c4552525f544f4f5f4541524c5960981b604082015260600190565b60208082526010908201526f4552525f494e56414c49445f5241544560801b604082015260600190565b60208082526021908201527f536166654d6174683a206d756c7469706c69636174696f6e206f766572666c6f6040820152607760f81b606082015260800190565b60208082526016908201527511549497d413d3d317d393d517d4d5541413d495115160521b604082015260600190565b6020808252601390820152724552525f494e56414c49445f4144445245535360681b604082015260600190565b60208082526017908201527f4552525f4554485f414d4f554e545f4d49534d41544348000000000000000000604082015260600190565b60208082526018908201527f4552525f4e4f545f454e4f5547485f4c49515549444954590000000000000000604082015260600190565b6020808252601d908201527f416464726573733a2063616c6c20746f206e6f6e2d636f6e7472616374000000604082015260600190565b6020808252602a908201527f5361666545524332303a204552433230206f7065726174696f6e20646964206e6040820152691bdd081cdd58d8d9595960b21b606082015260800190565b60208082526013908201527222a9292fa4a72b20a624a22fa827a92a24a7a760691b604082015260600190565b6020808252601f908201527f5265656e7472616e637947756172643a207265656e7472616e742063616c6c00604082015260600190565b60208082526036908201527f5361666545524332303a20617070726f76652066726f6d206e6f6e2d7a65726f60408201527520746f206e6f6e2d7a65726f20616c6c6f77616e636560501b606082015260800190565b6020808252600e908201526d11549497d253959053125117d25160921b604082015260600190565b60208082526011908201527011549497d050d0d154d4d7d11153925151607a1b604082015260600190565b60208082526015908201527404552525f494e56414c49445f54494d455354414d5605c1b604082015260600190565b8481526001600160a01b03841660208201526060604082018190528101829052600082846080840137818301608090810191909152601f909201601f191601019392505050565b6000848252606060208301526157626060830185614f10565b82810360408401526111368185614f53565b918252602082015260400190565b9283526020830191909152604082015260600190565b60005b838110156157b357818101518382015260200161579b565b838111156108645750506000910152565b6001600160a01b0381168114611c1157600080fd5b8015158114611c1157600080fd5b63ffffffff81168114611c1157600080fdfea164736f6c634300060c000a"
}