{
  "address": "0x68e4F8421dC6c3B49de130b792D711027A4ecD96",
  "abi": [
    {
      "inputs": [
        {
          "internalType": "contract IERC20",
          "name": "initBnt",
          "type": "address"
        }
      ],
      "stateMutability": "nonpayable",
      "type": "constructor"
    },
    {
      "inputs": [],
      "name": "AccessDenied",
      "type": "error"
    },
    {
      "inputs": [],
      "name": "AlreadyExists",
      "type": "error"
    },
    {
      "inputs": [],
      "name": "AlreadyInitialized",
      "type": "error"
    },
    {
      "inputs": [],
      "name": "DoesNotExist",
      "type": "error"
    },
    {
      "inputs": [],
      "name": "InvalidAddress",
      "type": "error"
    },
    {
      "inputs": [],
      "name": "InvalidExternalAddress",
      "type": "error"
    },
    {
      "inputs": [],
      "name": "InvalidFee",
      "type": "error"
    },
    {
      "inputs": [],
      "name": "InvalidParam",
      "type": "error"
    },
    {
      "inputs": [],
      "name": "NotWhitelisted",
      "type": "error"
    },
    {
      "inputs": [],
      "name": "ZeroValue",
      "type": "error"
    },
    {
      "anonymous": false,
      "inputs": [
        {
          "indexed": false,
          "internalType": "uint32",
          "name": "prevFeePPM",
          "type": "uint32"
        },
        {
          "indexed": false,
          "internalType": "uint32",
          "name": "newFeePPM",
          "type": "uint32"
        }
      ],
      "name": "DefaultFlashLoanFeePPMUpdated",
      "type": "event"
    },
    {
      "anonymous": false,
      "inputs": [
        {
          "indexed": true,
          "internalType": "contract Token",
          "name": "pool",
          "type": "address"
        },
        {
          "indexed": false,
          "internalType": "uint32",
          "name": "prevFeePPM",
          "type": "uint32"
        },
        {
          "indexed": false,
          "internalType": "uint32",
          "name": "newFeePPM",
          "type": "uint32"
        }
      ],
      "name": "FlashLoanFeePPMUpdated",
      "type": "event"
    },
    {
      "anonymous": false,
      "inputs": [
        {
          "indexed": true,
          "internalType": "contract Token",
          "name": "pool",
          "type": "address"
        },
        {
          "indexed": false,
          "internalType": "uint256",
          "name": "prevLimit",
          "type": "uint256"
        },
        {
          "indexed": false,
          "internalType": "uint256",
          "name": "newLimit",
          "type": "uint256"
        }
      ],
      "name": "FundingLimitUpdated",
      "type": "event"
    },
    {
      "anonymous": false,
      "inputs": [
        {
          "indexed": false,
          "internalType": "uint256",
          "name": "prevLiquidity",
          "type": "uint256"
        },
        {
          "indexed": false,
          "internalType": "uint256",
          "name": "newLiquidity",
          "type": "uint256"
        }
      ],
      "name": "MinLiquidityForTradingUpdated",
      "type": "event"
    },
    {
      "anonymous": false,
      "inputs": [
        {
          "indexed": true,
          "internalType": "bytes32",
          "name": "role",
          "type": "bytes32"
        },
        {
          "indexed": true,
          "internalType": "bytes32",
          "name": "previousAdminRole",
          "type": "bytes32"
        },
        {
          "indexed": true,
          "internalType": "bytes32",
          "name": "newAdminRole",
          "type": "bytes32"
        }
      ],
      "name": "RoleAdminChanged",
      "type": "event"
    },
    {
      "anonymous": false,
      "inputs": [
        {
          "indexed": true,
          "internalType": "bytes32",
          "name": "role",
          "type": "bytes32"
        },
        {
          "indexed": true,
          "internalType": "address",
          "name": "account",
          "type": "address"
        },
        {
          "indexed": true,
          "internalType": "address",
          "name": "sender",
          "type": "address"
        }
      ],
      "name": "RoleGranted",
      "type": "event"
    },
    {
      "anonymous": false,
      "inputs": [
        {
          "indexed": true,
          "internalType": "bytes32",
          "name": "role",
          "type": "bytes32"
        },
        {
          "indexed": true,
          "internalType": "address",
          "name": "account",
          "type": "address"
        },
        {
          "indexed": true,
          "internalType": "address",
          "name": "sender",
          "type": "address"
        }
      ],
      "name": "RoleRevoked",
      "type": "event"
    },
    {
      "anonymous": false,
      "inputs": [
        {
          "indexed": true,
          "internalType": "contract Token",
          "name": "token",
          "type": "address"
        }
      ],
      "name": "TokenAddedToWhitelist",
      "type": "event"
    },
    {
      "anonymous": false,
      "inputs": [
        {
          "indexed": true,
          "internalType": "contract Token",
          "name": "token",
          "type": "address"
        }
      ],
      "name": "TokenRemovedFromWhitelist",
      "type": "event"
    },
    {
      "anonymous": false,
      "inputs": [
        {
          "indexed": false,
          "internalType": "uint32",
          "name": "prevBurnRewardPPM",
          "type": "uint32"
        },
        {
          "indexed": false,
          "internalType": "uint32",
          "name": "newBurnRewardPPM",
          "type": "uint32"
        },
        {
          "indexed": false,
          "internalType": "uint256",
          "name": "prevBurnRewardMaxAmount",
          "type": "uint256"
        },
        {
          "indexed": false,
          "internalType": "uint256",
          "name": "newBurnRewardMaxAmount",
          "type": "uint256"
        }
      ],
      "name": "VortexBurnRewardUpdated",
      "type": "event"
    },
    {
      "anonymous": false,
      "inputs": [
        {
          "indexed": false,
          "internalType": "uint32",
          "name": "prevFeePPM",
          "type": "uint32"
        },
        {
          "indexed": false,
          "internalType": "uint32",
          "name": "newFeePPM",
          "type": "uint32"
        }
      ],
      "name": "WithdrawalFeePPMUpdated",
      "type": "event"
    },
    {
      "inputs": [],
      "name": "DEFAULT_ADMIN_ROLE",
      "outputs": [
        {
          "internalType": "bytes32",
          "name": "",
          "type": "bytes32"
        }
      ],
      "stateMutability": "view",
      "type": "function"
    },
    {
      "inputs": [
        {
          "internalType": "contract Token",
          "name": "token",
          "type": "address"
        }
      ],
      "name": "addTokenToWhitelist",
      "outputs": [],
      "stateMutability": "nonpayable",
      "type": "function"
    },
    {
      "inputs": [
        {
          "internalType": "contract Token",
          "name": "token",
          "type": "address"
        },
        {
          "internalType": "uint256",
          "name": "amount",
          "type": "uint256"
        }
      ],
      "name": "addTokenToWhitelistWithLimit",
      "outputs": [],
      "stateMutability": "nonpayable",
      "type": "function"
    },
    {
      "inputs": [
        {
          "internalType": "contract Token[]",
          "name": "tokens",
          "type": "address[]"
        }
      ],
      "name": "addTokensToWhitelist",
      "outputs": [],
      "stateMutability": "nonpayable",
      "type": "function"
    },
    {
      "inputs": [],
      "name": "defaultFlashLoanFeePPM",
      "outputs": [
        {
          "internalType": "uint32",
          "name": "",
          "type": "uint32"
        }
      ],
      "stateMutability": "view",
      "type": "function"
    },
    {
      "inputs": [
        {
          "internalType": "contract Token",
          "name": "pool",
          "type": "address"
        }
      ],
      "name": "flashLoanFeePPM",
      "outputs": [
        {
          "internalType": "uint32",
          "name": "",
          "type": "uint32"
        }
      ],
      "stateMutability": "view",
      "type": "function"
    },
    {
      "inputs": [
        {
          "internalType": "bytes32",
          "name": "role",
          "type": "bytes32"
        }
      ],
      "name": "getRoleAdmin",
      "outputs": [
        {
          "internalType": "bytes32",
          "name": "",
          "type": "bytes32"
        }
      ],
      "stateMutability": "view",
      "type": "function"
    },
    {
      "inputs": [
        {
          "internalType": "bytes32",
          "name": "role",
          "type": "bytes32"
        },
        {
          "internalType": "uint256",
          "name": "index",
          "type": "uint256"
        }
      ],
      "name": "getRoleMember",
      "outputs": [
        {
          "internalType": "address",
          "name": "",
          "type": "address"
        }
      ],
      "stateMutability": "view",
      "type": "function"
    },
    {
      "inputs": [
        {
          "internalType": "bytes32",
          "name": "role",
          "type": "bytes32"
        }
      ],
      "name": "getRoleMemberCount",
      "outputs": [
        {
          "internalType": "uint256",
          "name": "",
          "type": "uint256"
        }
      ],
      "stateMutability": "view",
      "type": "function"
    },
    {
      "inputs": [
        {
          "internalType": "bytes32",
          "name": "role",
          "type": "bytes32"
        },
        {
          "internalType": "address",
          "name": "account",
          "type": "address"
        }
      ],
      "name": "grantRole",
      "outputs": [],
      "stateMutability": "nonpayable",
      "type": "function"
    },
    {
      "inputs": [
        {
          "internalType": "bytes32",
          "name": "role",
          "type": "bytes32"
        },
        {
          "internalType": "address",
          "name": "account",
          "type": "address"
        }
      ],
      "name": "hasRole",
      "outputs": [
        {
          "internalType": "bool",
          "name": "",
          "type": "bool"
        }
      ],
      "stateMutability": "view",
      "type": "function"
    },
    {
      "inputs": [],
      "name": "initialize",
      "outputs": [],
      "stateMutability": "nonpayable",
      "type": "function"
    },
    {
      "inputs": [
        {
          "internalType": "contract Token",
          "name": "token",
          "type": "address"
        }
      ],
      "name": "isTokenWhitelisted",
      "outputs": [
        {
          "internalType": "bool",
          "name": "",
          "type": "bool"
        }
      ],
      "stateMutability": "view",
      "type": "function"
    },
    {
      "inputs": [],
      "name": "minLiquidityForTrading",
      "outputs": [
        {
          "internalType": "uint256",
          "name": "",
          "type": "uint256"
        }
      ],
      "stateMutability": "view",
      "type": "function"
    },
    {
      "inputs": [
        {
          "internalType": "contract Token",
          "name": "pool",
          "type": "address"
        }
      ],
      "name": "poolFundingLimit",
      "outputs": [
        {
          "internalType": "uint256",
          "name": "",
          "type": "uint256"
        }
      ],
      "stateMutability": "view",
      "type": "function"
    },
    {
      "inputs": [
        {
          "internalType": "bytes",
          "name": "data",
          "type": "bytes"
        }
      ],
      "name": "postUpgrade",
      "outputs": [],
      "stateMutability": "nonpayable",
      "type": "function"
    },
    {
      "inputs": [],
      "name": "protectedTokenWhitelist",
      "outputs": [
        {
          "internalType": "contract Token[]",
          "name": "",
          "type": "address[]"
        }
      ],
      "stateMutability": "view",
      "type": "function"
    },
    {
      "inputs": [
        {
          "internalType": "contract Token",
          "name": "token",
          "type": "address"
        }
      ],
      "name": "removeTokenFromWhitelist",
      "outputs": [],
      "stateMutability": "nonpayable",
      "type": "function"
    },
    {
      "inputs": [
        {
          "internalType": "bytes32",
          "name": "role",
          "type": "bytes32"
        },
        {
          "internalType": "address",
          "name": "account",
          "type": "address"
        }
      ],
      "name": "renounceRole",
      "outputs": [],
      "stateMutability": "nonpayable",
      "type": "function"
    },
    {
      "inputs": [
        {
          "internalType": "bytes32",
          "name": "role",
          "type": "bytes32"
        },
        {
          "internalType": "address",
          "name": "account",
          "type": "address"
        }
      ],
      "name": "revokeRole",
      "outputs": [],
      "stateMutability": "nonpayable",
      "type": "function"
    },
    {
      "inputs": [],
      "name": "roleAdmin",
      "outputs": [
        {
          "internalType": "bytes32",
          "name": "",
          "type": "bytes32"
        }
      ],
      "stateMutability": "pure",
      "type": "function"
    },
    {
      "inputs": [
        {
          "internalType": "uint32",
          "name": "newDefaultFlashLoanFeePPM",
          "type": "uint32"
        }
      ],
      "name": "setDefaultFlashLoanFeePPM",
      "outputs": [],
      "stateMutability": "nonpayable",
      "type": "function"
    },
    {
      "inputs": [
        {
          "internalType": "contract Token",
          "name": "pool",
          "type": "address"
        },
        {
          "internalType": "uint32",
          "name": "newFlashLoanFeePPM",
          "type": "uint32"
        }
      ],
      "name": "setFlashLoanFeePPM",
      "outputs": [],
      "stateMutability": "nonpayable",
      "type": "function"
    },
    {
      "inputs": [
        {
          "internalType": "contract Token",
          "name": "pool",
          "type": "address"
        },
        {
          "internalType": "uint256",
          "name": "amount",
          "type": "uint256"
        }
      ],
      "name": "setFundingLimit",
      "outputs": [],
      "stateMutability": "nonpayable",
      "type": "function"
    },
    {
      "inputs": [
        {
          "internalType": "contract Token[]",
          "name": "pools",
          "type": "address[]"
        },
        {
          "internalType": "uint256[]",
          "name": "amounts",
          "type": "uint256[]"
        }
      ],
      "name": "setFundingLimits",
      "outputs": [],
      "stateMutability": "nonpayable",
      "type": "function"
    },
    {
      "inputs": [
        {
          "internalType": "uint256",
          "name": "amount",
          "type": "uint256"
        }
      ],
      "name": "setMinLiquidityForTrading",
      "outputs": [],
      "stateMutability": "nonpayable",
      "type": "function"
    },
    {
      "inputs": [
        {
          "components": [
            {
              "internalType": "uint32",
              "name": "burnRewardPPM",
              "type": "uint32"
            },
            {
              "internalType": "uint256",
              "name": "burnRewardMaxAmount",
              "type": "uint256"
            }
          ],
          "internalType": "struct VortexRewards",
          "name": "rewards",
          "type": "tuple"
        }
      ],
      "name": "setVortexRewards",
      "outputs": [],
      "stateMutability": "nonpayable",
      "type": "function"
    },
    {
      "inputs": [
        {
          "internalType": "uint32",
          "name": "newWithdrawalFeePPM",
          "type": "uint32"
        }
      ],
      "name": "setWithdrawalFeePPM",
      "outputs": [],
      "stateMutability": "nonpayable",
      "type": "function"
    },
    {
      "inputs": [
        {
          "internalType": "bytes4",
          "name": "interfaceId",
          "type": "bytes4"
        }
      ],
      "name": "supportsInterface",
      "outputs": [
        {
          "internalType": "bool",
          "name": "",
          "type": "bool"
        }
      ],
      "stateMutability": "view",
      "type": "function"
    },
    {
      "inputs": [],
      "name": "version",
      "outputs": [
        {
          "internalType": "uint16",
          "name": "",
          "type": "uint16"
        }
      ],
      "stateMutability": "pure",
      "type": "function"
    },
    {
      "inputs": [],
      "name": "vortexRewards",
      "outputs": [
        {
          "components": [
            {
              "internalType": "uint32",
              "name": "burnRewardPPM",
              "type": "uint32"
            },
            {
              "internalType": "uint256",
              "name": "burnRewardMaxAmount",
              "type": "uint256"
            }
          ],
          "internalType": "struct VortexRewards",
          "name": "",
          "type": "tuple"
        }
      ],
      "stateMutability": "view",
      "type": "function"
    },
    {
      "inputs": [],
      "name": "withdrawalFeePPM",
      "outputs": [
        {
          "internalType": "uint32",
          "name": "",
          "type": "uint32"
        }
      ],
      "stateMutability": "view",
      "type": "function"
    }
  ],
  "transactionHash": "0x713eeacfcc5fb8b513c5b1f63bb8faf789c231f2c7e6db0ed64216ba8672e282",
  "args": [
    "0x1F573D6Fb3F13d689FF844B4cE37794d79a7FF1C"
  ],
  "numDeployments": 3,
  "solcInputHash": "a927a6888186dffd8bd5cdda91c49d63",
  "bytecode": "0x60a06040523480156200001157600080fd5b5060405162001d7838038062001d7883398101604081905262000034916200007e565b80620000408162000053565b506001600160a01b0316608052620000b0565b6001600160a01b0381166200007b5760405163e6c4247b60e01b815260040160405180910390fd5b50565b6000602082840312156200009157600080fd5b81516001600160a01b0381168114620000a957600080fd5b9392505050565b608051611cac620000cc600039600061055d0152611cac6000f3fe608060405234801561001057600080fd5b50600436106101f05760003560e01c80637c36afad1161010f578063a217fddf116100a2578063cd9d26a511610071578063cd9d26a514610491578063d547741f146104a6578063d84c1b38146104b9578063fa617bf3146104cc57600080fd5b8063a217fddf14610450578063a83e3f0c14610458578063b5af090f1461046b578063ca15c8731461047e57600080fd5b80638cd2403d116100de5780638cd2403d146103eb5780639010d07c146103fe57806391d148541461042957806393867fb51461043c57600080fd5b80637c36afad146103b557806380cfdfc2146103c85780638129fc1c146103db57806387ba006a146103e357600080fd5b8063325bae6a11610187578063467e55df11610156578063467e55df146103575780634f712cff1461038057806354fd4d50146103935780635d46faa4146103a257600080fd5b8063325bae6a1461030957806336568abe1461031e5780633a1ec78d1461033157806343101a451461034457600080fd5b8063248a9ca3116101c3578063248a9ca31461028b5780632aac012c146102bc5780632f2ff15d146102e3578063306275be146102f657600080fd5b806301ffc9a7146101f557806305a4c0f71461021d5780630f1913631461026357806314da1add14610278575b600080fd5b610208610203366004611716565b6104df565b60405190151581526020015b60405180910390f35b6040805180820182526000808252602091820152815180830183526101005463ffffffff1680825261010154918301918252835190815290519181019190915201610214565b610276610271366004611752565b61050a565b005b610276610286366004611784565b610539565b6102ae6102993660046117bd565b60009081526065602052604090206001015490565b604051908152602001610214565b60ff54640100000000900463ffffffff165b60405163ffffffff9091168152602001610214565b6102766102f13660046117d6565b610692565b6102766103043660046117fb565b6106b8565b60ff54600160401b900463ffffffff166102ce565b61027661032c3660046117d6565b61072f565b61027661033f366004611818565b6107ae565b610276610352366004611830565b6108ac565b6102ae6103653660046117fb565b6001600160a01b0316600090815260fd602052604090205490565b61027661038e366004611752565b6108d7565b60405160038152602001610214565b6102766103b03660046118a8565b610982565b6102ce6103c33660046117fb565b610a28565b6102766103d6366004611914565b610a90565b610276610afb565b60fe546102ae565b6102766103f9366004611956565b610bbc565b61041161040c3660046119c8565b610c0d565b6040516001600160a01b039091168152602001610214565b6102086104373660046117d6565b610c25565b600080516020611c808339815191526102ae565b6102ae600081565b610276610466366004611830565b610c50565b6102086104793660046117fb565b610c68565b6102ae61048c3660046117bd565b610c73565b610499610c8a565b60405161021491906119ea565b6102766104b43660046117d6565b610d3a565b6102766104c73660046117fb565b610d60565b6102766104da3660046117bd565b610d81565b60006001600160e01b03198216635a05180f60e01b1480610504575061050482610dea565b92915050565b610522600080516020611c8083398151915233610e1f565b8061052c81610e46565b61053582610e70565b5050565b610551600080516020611c8083398151915233610e1f565b8061055b81610e46565b7f00000000000000000000000000000000000000000000000000000000000000006001600160a01b039081169084161415801561059e575061059c83610ef2565b155b156105bc57604051630b094f2760e31b815260040160405180910390fd5b6001600160a01b0383166000908152610102602052604090205463ffffffff610100909104811690831681036105f25750505050565b6040805180820182526001815263ffffffff85811660208084018281526001600160a01b038a166000818152610102845287902095518654925164ffffffffff1990931690151564ffffffff0019161761010092861692909202919091179094558451928616835282015290917fe9b262e9376e7127d0246f98c1ab2e98fb430e73dcd665322ea46df0ce094af391015b60405180910390a2505b505050565b6000828152606560205260409020600101546106ae8133610eff565b61068d8383610f63565b6106d0600080516020611c8083398151915233610e1f565b6106db60fb82610f85565b6106f85760405163b0ce759160e01b815260040160405180910390fd5b6040516001600160a01b038216907fdd2e6d9f52cbe8f695939d018b7d4a216dc613a669876163ac548b916489d91790600090a250565b6001600160a01b03811633146107a45760405162461bcd60e51b815260206004820152602f60248201527f416363657373436f6e74726f6c3a2063616e206f6e6c792072656e6f756e636560448201526e103937b632b9903337b91039b2b63360891b60648201526084015b60405180910390fd5b6105358282610f9a565b6107c6600080516020611c8083398151915233610e1f565b6107d36020820182611752565b6107dc81610e46565b81602001356107ea81610fbc565b610100546101015463ffffffff909116906108086020860186611752565b63ffffffff168263ffffffff161480156108255750846020013581145b15610831575050505050565b8461010061083f8282611a37565b507fc0c001b93aede4379dd063acffffdf190292a31ccf86bbbf5399ab3480f3ebb19050826108716020880188611752565b6040805163ffffffff938416815292909116602083810191909152908201849052870135606082015260800160405180910390a15050505050565b6108c4600080516020611c8083398151915233610e1f565b6108cd82610fdd565b6105358282611047565b6108ef600080516020611c8083398151915233610e1f565b806108f981610e46565b60ff5463ffffffff6401000000009091048116908316810361091a57505050565b60ff805467ffffffff00000000191664010000000063ffffffff8681169182029290921790925560408051918416825260208201929092527f5694fc3b551ce2e4a457649f95500c545f27fce9ef7c3818cfb3c52134223dcb910160405180910390a1505050565b61099a600080516020611c8083398151915233610e1f565b828181146109bb57604051633494a40d60e21b815260040160405180910390fd5b60005b81811015610a2057610a0e8686838181106109db576109db611a64565b90506020020160208101906109f091906117fb565b858584818110610a0257610a02611a64565b90506020020135611047565b80610a1881611a90565b9150506109be565b505050505050565b6001600160a01b03811660009081526101026020908152604080832081518083019092525460ff8116151580835261010090910463ffffffff169282019290925290610a835760ff54600160401b900463ffffffff16610a89565b80602001515b9392505050565b610aa8600080516020611c8083398151915233610e1f565b8060005b81811015610af557610ae3848483818110610ac957610ac9611a64565b9050602002016020810190610ade91906117fb565b610fdd565b80610aed81611a90565b915050610aac565b50505050565b600054610100900460ff16610b165760005460ff1615610b1a565b303b155b610b7d5760405162461bcd60e51b815260206004820152602e60248201527f496e697469616c697a61626c653a20636f6e747261637420697320616c72656160448201526d191e481a5b9a5d1a585b1a5e995960921b606482015260840161079b565b600054610100900460ff16158015610b9f576000805461ffff19166101011790555b610ba76110ef565b8015610bb9576000805461ff00191690555b50565b60c954600090610bd19061ffff166001611aa9565b905061ffff8116600314610bf75760405162dc149f60e41b815260040160405180910390fd5b60c9805461ffff191661ffff8316179055505050565b6000828152609760205260408120610a899083611128565b60009182526065602090815260408084206001600160a01b0393909316845291905290205460ff1690565b6108cd600080516020611c8083398151915233610e1f565b600061050482610ef2565b600081815260976020526040812061050490611134565b60606000610c9860fb611134565b905060008167ffffffffffffffff811115610cb557610cb5611acf565b604051908082528060200260200182016040528015610cde578160200160208202803683370190505b50905060005b82811015610d3357610cf760fb82611128565b828281518110610d0957610d09611a64565b6001600160a01b039092166020928302919091019091015280610d2b81611a90565b915050610ce4565b5092915050565b600082815260656020526040902060010154610d568133610eff565b61068d8383610f9a565b610d78600080516020611c8083398151915233610e1f565b610bb981610fdd565b610d99600080516020611c8083398151915233610e1f565b60fe54818103610da7575050565b60fe82905560408051828152602081018490527fa331479cec90af3eef92e0ee6f6cd19f7912d7bb73f8d9885083d6ffa98b077291015b60405180910390a15050565b60006001600160e01b03198216637965db0b60e01b148061050457506301ffc9a760e01b6001600160e01b0319831614610504565b610e298282610c25565b61053557604051634ca8886760e01b815260040160405180910390fd5b620f424063ffffffff82161115610bb9576040516358d620b360e01b815260040160405180910390fd5b60ff5463ffffffff600160401b90910481169082168103610e8f575050565b60ff80546bffffffff00000000000000001916600160401b63ffffffff8581169182029290921790925560408051918416825260208201929092527f3150357e7ae28a36ec737b6b68396e3d6e6045739a37622ef936636add1831069101610dde565b600061050460fb8361113e565b610f098282610c25565b61053557610f21816001600160a01b03166014611160565b610f2c836020611160565b604051602001610f3d929190611b11565b60408051601f198184030181529082905262461bcd60e51b825261079b91600401611b86565b610f6d82826112fc565b600082815260976020526040902061068d9082611382565b6000610a89836001600160a01b038416611397565b610fa4828261148a565b600082815260976020526040902061068d9082610f85565b80600003610bb957604051637c946ed760e01b815260040160405180910390fd5b80610fe7816114f1565b610ff260fb83611382565b61100f5760405163119b4fd360e11b815260040160405180910390fd5b6040516001600160a01b038316907fa718ddb71589521cab00fa313e3bd14e75ca7204d57a12ff3a5aa40796f3427690600090a25050565b816110518161152d565b61105a83610ef2565b61107757604051630b094f2760e31b815260040160405180910390fd5b6001600160a01b038316600090815260fd602052604090205482810361109d5750505050565b6001600160a01b038416600081815260fd602090815260409182902086905581518481529081018690527f1a06df86f888ab7df8687a48f67c1ae98d193e315d76c842736d851adac8dda59101610683565b600054610100900460ff166111165760405162461bcd60e51b815260040161079b90611bb9565b61111e611554565b61112661158b565b565b6000610a8983836115bc565b6000610504825490565b6001600160a01b03811660009081526001830160205260408120541515610a89565b6060600061116f836002611c04565b61117a906002611c23565b67ffffffffffffffff81111561119257611192611acf565b6040519080825280601f01601f1916602001820160405280156111bc576020820181803683370190505b509050600360fc1b816000815181106111d7576111d7611a64565b60200101906001600160f81b031916908160001a905350600f60fb1b8160018151811061120657611206611a64565b60200101906001600160f81b031916908160001a905350600061122a846002611c04565b611235906001611c23565b90505b60018111156112ad576f181899199a1a9b1b9c1cb0b131b232b360811b85600f166010811061126957611269611a64565b1a60f81b82828151811061127f5761127f611a64565b60200101906001600160f81b031916908160001a90535060049490941c936112a681611c3b565b9050611238565b508315610a895760405162461bcd60e51b815260206004820181905260248201527f537472696e67733a20686578206c656e67746820696e73756666696369656e74604482015260640161079b565b6113068282610c25565b6105355760008281526065602090815260408083206001600160a01b03851684529091529020805460ff1916600117905561133e3390565b6001600160a01b0316816001600160a01b0316837f2f8788117e7eff1d82e926ec794901d17c78024a50270940304540a733656f0d60405160405180910390a45050565b6000610a89836001600160a01b0384166115e6565b600081815260018301602052604081205480156114805760006113bb600183611c52565b85549091506000906113cf90600190611c52565b90508181146114345760008660000182815481106113ef576113ef611a64565b906000526020600020015490508087600001848154811061141257611412611a64565b6000918252602080832090910192909255918252600188019052604090208390555b855486908061144557611445611c69565b600190038181906000526020600020016000905590558560010160008681526020019081526020016000206000905560019350505050610504565b6000915050610504565b6114948282610c25565b156105355760008281526065602090815260408083206001600160a01b0385168085529252808320805460ff1916905551339285917ff6391f5c32d9c69d2a47ea670b442974b53935d1edc7fd64eb21e047a839171b9190a45050565b6001600160a01b038116158061150f57506001600160a01b03811630145b15610bb957604051638e052b6760e01b815260040160405180910390fd5b6001600160a01b038116610bb95760405163e6c4247b60e01b815260040160405180910390fd5b600054610100900460ff1661157b5760405162461bcd60e51b815260040161079b90611bb9565b611583611635565b61112661165c565b600054610100900460ff166115b25760405162461bcd60e51b815260040161079b90611bb9565b6111266000610e70565b60008260000182815481106115d3576115d3611a64565b9060005260206000200154905092915050565b600081815260018301602052604081205461162d57508154600181810184556000848152602080822090930184905584548482528286019093526040902091909155610504565b506000610504565b600054610100900460ff166111265760405162461bcd60e51b815260040161079b90611bb9565b600054610100900460ff166116835760405162461bcd60e51b815260040161079b90611bb9565b60c9805461ffff191660011790556116a9600080516020611c80833981519152806116c1565b611126600080516020611c808339815191523361170c565b600082815260656020526040808220600101805490849055905190918391839186917fbd79b86ffe0ab8e8776151514217cd7cacd52c909f66475c3af44e129f0b00ff9190a4505050565b6105358282610f63565b60006020828403121561172857600080fd5b81356001600160e01b031981168114610a8957600080fd5b63ffffffff81168114610bb957600080fd5b60006020828403121561176457600080fd5b8135610a8981611740565b6001600160a01b0381168114610bb957600080fd5b6000806040838503121561179757600080fd5b82356117a28161176f565b915060208301356117b281611740565b809150509250929050565b6000602082840312156117cf57600080fd5b5035919050565b600080604083850312156117e957600080fd5b8235915060208301356117b28161176f565b60006020828403121561180d57600080fd5b8135610a898161176f565b60006040828403121561182a57600080fd5b50919050565b6000806040838503121561184357600080fd5b823561184e8161176f565b946020939093013593505050565b60008083601f84011261186e57600080fd5b50813567ffffffffffffffff81111561188657600080fd5b6020830191508360208260051b85010111156118a157600080fd5b9250929050565b600080600080604085870312156118be57600080fd5b843567ffffffffffffffff808211156118d657600080fd5b6118e28883890161185c565b909650945060208701359150808211156118fb57600080fd5b506119088782880161185c565b95989497509550505050565b6000806020838503121561192757600080fd5b823567ffffffffffffffff81111561193e57600080fd5b61194a8582860161185c565b90969095509350505050565b6000806020838503121561196957600080fd5b823567ffffffffffffffff8082111561198157600080fd5b818501915085601f83011261199557600080fd5b8135818111156119a457600080fd5b8660208285010111156119b657600080fd5b60209290920196919550909350505050565b600080604083850312156119db57600080fd5b50508035926020909101359150565b6020808252825182820181905260009190848201906040850190845b81811015611a2b5783516001600160a01b031683529284019291840191600101611a06565b50909695505050505050565b8135611a4281611740565b63ffffffff811663ffffffff1983541617825550602082013560018201555050565b634e487b7160e01b600052603260045260246000fd5b634e487b7160e01b600052601160045260246000fd5b600060018201611aa257611aa2611a7a565b5060010190565b600061ffff808316818516808303821115611ac657611ac6611a7a565b01949350505050565b634e487b7160e01b600052604160045260246000fd5b60005b83811015611b00578181015183820152602001611ae8565b83811115610af55750506000910152565b7f416363657373436f6e74726f6c3a206163636f756e7420000000000000000000815260008351611b49816017850160208801611ae5565b7001034b99036b4b9b9b4b733903937b6329607d1b6017918401918201528351611b7a816028840160208801611ae5565b01602801949350505050565b6020815260008251806020840152611ba5816040850160208701611ae5565b601f01601f19169190910160400192915050565b6020808252602b908201527f496e697469616c697a61626c653a20636f6e7472616374206973206e6f74206960408201526a6e697469616c697a696e6760a81b606082015260800190565b6000816000190483118215151615611c1e57611c1e611a7a565b500290565b60008219821115611c3657611c36611a7a565b500190565b600081611c4a57611c4a611a7a565b506000190190565b600082821015611c6457611c64611a7a565b500390565b634e487b7160e01b600052603160045260246000fdfe2172861495e7b85edac73e3cd5fbb42dd675baadf627720e687bcfdaca025096a164736f6c634300080d000a",
  "devdoc": {
    "details": "Network Settings contract",
    "events": {
      "DefaultFlashLoanFeePPMUpdated(uint32,uint32)": {
        "details": "triggered when the default flash-loan fee is updated"
      },
      "FlashLoanFeePPMUpdated(address,uint32,uint32)": {
        "details": "triggered when a specific pool's flash-loan fee is updated"
      },
      "FundingLimitUpdated(address,uint256,uint256)": {
        "details": "triggered when a per-pool funding limit is updated"
      },
      "MinLiquidityForTradingUpdated(uint256,uint256)": {
        "details": "triggered when the minimum liquidity for trading is updated"
      },
      "TokenAddedToWhitelist(address)": {
        "details": "triggered when a token is added to the protection whitelist"
      },
      "TokenRemovedFromWhitelist(address)": {
        "details": "triggered when a token is removed from the protection whitelist"
      },
      "VortexBurnRewardUpdated(uint32,uint32,uint256,uint256)": {
        "details": "triggered when the settings of the Vortex are updated"
      },
      "WithdrawalFeePPMUpdated(uint32,uint32)": {
        "details": "triggered when the withdrawal fee is updated"
      }
    },
    "kind": "dev",
    "methods": {
      "addTokenToWhitelist(address)": {
        "details": "adds a token to the protected tokens whitelist requirements: - the caller must be the admin of the contract"
      },
      "addTokenToWhitelistWithLimit(address,uint256)": {
        "details": "adds a token to the protected tokens whitelist, and sets the amount of BNT that the protocol can provide as funding for this pool requirements: - the caller must be the admin of the contract"
      },
      "addTokensToWhitelist(address[])": {
        "details": "adds tokens to the protected tokens whitelist requirements: - the caller must be the admin of the contract"
      },
      "defaultFlashLoanFeePPM()": {
        "details": "returns the default flash-loan fee (in units of PPM)"
      },
      "flashLoanFeePPM(address)": {
        "details": "returns the flash-loan fee (in units of PPM) of a pool"
      },
      "getRoleAdmin(bytes32)": {
        "details": "Returns the admin role that controls `role`. See {grantRole} and {revokeRole}. To change a role's admin, use {_setRoleAdmin}."
      },
      "getRoleMember(bytes32,uint256)": {
        "details": "Returns one of the accounts that have `role`. `index` must be a value between 0 and {getRoleMemberCount}, non-inclusive. Role bearers are not sorted in any particular way, and their ordering may change at any point. WARNING: When using {getRoleMember} and {getRoleMemberCount}, make sure you perform all queries on the same block. See the following https://forum.openzeppelin.com/t/iterating-over-elements-on-enumerableset-in-openzeppelin-contracts/2296[forum post] for more information."
      },
      "getRoleMemberCount(bytes32)": {
        "details": "Returns the number of accounts that have `role`. Can be used together with {getRoleMember} to enumerate all bearers of a role."
      },
      "grantRole(bytes32,address)": {
        "details": "Grants `role` to `account`. If `account` had not been already granted `role`, emits a {RoleGranted} event. Requirements: - the caller must have ``role``'s admin role."
      },
      "hasRole(bytes32,address)": {
        "details": "Returns `true` if `account` has been granted `role`."
      },
      "initialize()": {
        "details": "fully initializes the contract and its parents"
      },
      "isTokenWhitelisted(address)": {
        "details": "checks whether a given token is whitelisted"
      },
      "minLiquidityForTrading()": {
        "details": "returns the minimum BNT trading liquidity required before the system enables trading in the relevant pool"
      },
      "poolFundingLimit(address)": {
        "details": "returns the BNT funding limit for a given pool"
      },
      "postUpgrade(bytes)": {
        "details": "performs post-upgrade initialization requirements: - this must can be called only once per-upgrade"
      },
      "protectedTokenWhitelist()": {
        "details": "returns the protected tokens whitelist"
      },
      "removeTokenFromWhitelist(address)": {
        "details": "removes a token from the protected tokens whitelist requirements: - the caller must be the admin of the contract"
      },
      "renounceRole(bytes32,address)": {
        "details": "Revokes `role` from the calling account. Roles are often managed via {grantRole} and {revokeRole}: this function's purpose is to provide a mechanism for accounts to lose their privileges if they are compromised (such as when a trusted device is misplaced). If the calling account had been revoked `role`, emits a {RoleRevoked} event. Requirements: - the caller must be `account`."
      },
      "revokeRole(bytes32,address)": {
        "details": "Revokes `role` from `account`. If `account` had been granted `role`, emits a {RoleRevoked} event. Requirements: - the caller must have ``role``'s admin role."
      },
      "roleAdmin()": {
        "details": "returns the admin role"
      },
      "setDefaultFlashLoanFeePPM(uint32)": {
        "details": "sets the default flash-loan fee (in units of PPM) requirements: - the caller must be the admin of the contract"
      },
      "setFlashLoanFeePPM(address,uint32)": {
        "details": "sets the flash-loan fee of a given pool requirements: - the caller must be the admin of the contract - the token must have been whitelisted"
      },
      "setFundingLimit(address,uint256)": {
        "details": "updates the amount of BNT that the protocol can provide as funding for a specific pool requirements: - the caller must be the admin of the contract - the token must have been whitelisted"
      },
      "setFundingLimits(address[],uint256[])": {
        "details": "updates the amounts of BNT that the protocol can provide as funding for specific pools requirements: - the caller must be the admin of the contract - each one of the tokens must have been whitelisted"
      },
      "setMinLiquidityForTrading(uint256)": {
        "details": "updates the minimum liquidity for trading amount requirements: - the caller must be the admin of the contract"
      },
      "setVortexRewards((uint32,uint256))": {
        "details": "sets the settings of the Vortex requirements: s - the caller must be the admin of the contract"
      },
      "setWithdrawalFeePPM(uint32)": {
        "details": "sets the withdrawal fee (in units of PPM) requirements: - the caller must be the admin of the contract"
      },
      "supportsInterface(bytes4)": {
        "details": "See {IERC165-supportsInterface}."
      },
      "vortexRewards()": {
        "details": "returns the vortex settings"
      },
      "withdrawalFeePPM()": {
        "details": "returns the withdrawal fee (in units of PPM)"
      }
    },
    "version": 1
  },
  "userdoc": {
    "kind": "user",
    "methods": {},
    "version": 1
  },
  "storageLayout": {
    "storage": [
      {
        "astId": 644,
        "contract": "contracts/network/NetworkSettings.sol:NetworkSettings",
        "label": "_initialized",
        "offset": 0,
        "slot": "0",
        "type": "t_bool"
      },
      {
        "astId": 647,
        "contract": "contracts/network/NetworkSettings.sol:NetworkSettings",
        "label": "_initializing",
        "offset": 1,
        "slot": "0",
        "type": "t_bool"
      },
      {
        "astId": 1165,
        "contract": "contracts/network/NetworkSettings.sol:NetworkSettings",
        "label": "__gap",
        "offset": 0,
        "slot": "1",
        "type": "t_array(t_uint256)50_storage"
      },
      {
        "astId": 1412,
        "contract": "contracts/network/NetworkSettings.sol:NetworkSettings",
        "label": "__gap",
        "offset": 0,
        "slot": "51",
        "type": "t_array(t_uint256)50_storage"
      },
      {
        "astId": 250,
        "contract": "contracts/network/NetworkSettings.sol:NetworkSettings",
        "label": "_roles",
        "offset": 0,
        "slot": "101",
        "type": "t_mapping(t_bytes32,t_struct(RoleData)245_storage)"
      },
      {
        "astId": 538,
        "contract": "contracts/network/NetworkSettings.sol:NetworkSettings",
        "label": "__gap",
        "offset": 0,
        "slot": "102",
        "type": "t_array(t_uint256)49_storage"
      },
      {
        "astId": 99,
        "contract": "contracts/network/NetworkSettings.sol:NetworkSettings",
        "label": "_roleMembers",
        "offset": 0,
        "slot": "151",
        "type": "t_mapping(t_bytes32,t_struct(AddressSet)1737_storage)"
      },
      {
        "astId": 209,
        "contract": "contracts/network/NetworkSettings.sol:NetworkSettings",
        "label": "__gap",
        "offset": 0,
        "slot": "152",
        "type": "t_array(t_uint256)49_storage"
      },
      {
        "astId": 31429,
        "contract": "contracts/network/NetworkSettings.sol:NetworkSettings",
        "label": "_initializations",
        "offset": 0,
        "slot": "201",
        "type": "t_uint16"
      },
      {
        "astId": 31435,
        "contract": "contracts/network/NetworkSettings.sol:NetworkSettings",
        "label": "__gap",
        "offset": 0,
        "slot": "202",
        "type": "t_array(t_uint256)49_storage"
      },
      {
        "astId": 14919,
        "contract": "contracts/network/NetworkSettings.sol:NetworkSettings",
        "label": "_protectedTokenWhitelist",
        "offset": 0,
        "slot": "251",
        "type": "t_struct(AddressSet)1737_storage"
      },
      {
        "astId": 14924,
        "contract": "contracts/network/NetworkSettings.sol:NetworkSettings",
        "label": "_poolFundingLimits",
        "offset": 0,
        "slot": "253",
        "type": "t_mapping(t_contract(Token)29301,t_uint256)"
      },
      {
        "astId": 14926,
        "contract": "contracts/network/NetworkSettings.sol:NetworkSettings",
        "label": "_minLiquidityForTrading",
        "offset": 0,
        "slot": "254",
        "type": "t_uint256"
      },
      {
        "astId": 14928,
        "contract": "contracts/network/NetworkSettings.sol:NetworkSettings",
        "label": "_deprecated0",
        "offset": 0,
        "slot": "255",
        "type": "t_uint32"
      },
      {
        "astId": 14930,
        "contract": "contracts/network/NetworkSettings.sol:NetworkSettings",
        "label": "_withdrawalFeePPM",
        "offset": 4,
        "slot": "255",
        "type": "t_uint32"
      },
      {
        "astId": 14932,
        "contract": "contracts/network/NetworkSettings.sol:NetworkSettings",
        "label": "_defaultFlashLoanFeePPM",
        "offset": 8,
        "slot": "255",
        "type": "t_uint32"
      },
      {
        "astId": 14935,
        "contract": "contracts/network/NetworkSettings.sol:NetworkSettings",
        "label": "_vortexRewards",
        "offset": 0,
        "slot": "256",
        "type": "t_struct(VortexRewards)16889_storage"
      },
      {
        "astId": 14941,
        "contract": "contracts/network/NetworkSettings.sol:NetworkSettings",
        "label": "_flashLoanFees",
        "offset": 0,
        "slot": "258",
        "type": "t_mapping(t_contract(Token)29301,t_struct(FlashLoanFee)14913_storage)"
      },
      {
        "astId": 14947,
        "contract": "contracts/network/NetworkSettings.sol:NetworkSettings",
        "label": "__gap",
        "offset": 0,
        "slot": "259",
        "type": "t_array(t_uint256)42_storage"
      }
    ],
    "types": {
      "t_address": {
        "encoding": "inplace",
        "label": "address",
        "numberOfBytes": "20"
      },
      "t_array(t_bytes32)dyn_storage": {
        "base": "t_bytes32",
        "encoding": "dynamic_array",
        "label": "bytes32[]",
        "numberOfBytes": "32"
      },
      "t_array(t_uint256)42_storage": {
        "base": "t_uint256",
        "encoding": "inplace",
        "label": "uint256[42]",
        "numberOfBytes": "1344"
      },
      "t_array(t_uint256)49_storage": {
        "base": "t_uint256",
        "encoding": "inplace",
        "label": "uint256[49]",
        "numberOfBytes": "1568"
      },
      "t_array(t_uint256)50_storage": {
        "base": "t_uint256",
        "encoding": "inplace",
        "label": "uint256[50]",
        "numberOfBytes": "1600"
      },
      "t_bool": {
        "encoding": "inplace",
        "label": "bool",
        "numberOfBytes": "1"
      },
      "t_bytes32": {
        "encoding": "inplace",
        "label": "bytes32",
        "numberOfBytes": "32"
      },
      "t_contract(Token)29301": {
        "encoding": "inplace",
        "label": "contract Token",
        "numberOfBytes": "20"
      },
      "t_mapping(t_address,t_bool)": {
        "encoding": "mapping",
        "key": "t_address",
        "label": "mapping(address => bool)",
        "numberOfBytes": "32",
        "value": "t_bool"
      },
      "t_mapping(t_bytes32,t_struct(AddressSet)1737_storage)": {
        "encoding": "mapping",
        "key": "t_bytes32",
        "label": "mapping(bytes32 => struct EnumerableSetUpgradeable.AddressSet)",
        "numberOfBytes": "32",
        "value": "t_struct(AddressSet)1737_storage"
      },
      "t_mapping(t_bytes32,t_struct(RoleData)245_storage)": {
        "encoding": "mapping",
        "key": "t_bytes32",
        "label": "mapping(bytes32 => struct AccessControlUpgradeable.RoleData)",
        "numberOfBytes": "32",
        "value": "t_struct(RoleData)245_storage"
      },
      "t_mapping(t_bytes32,t_uint256)": {
        "encoding": "mapping",
        "key": "t_bytes32",
        "label": "mapping(bytes32 => uint256)",
        "numberOfBytes": "32",
        "value": "t_uint256"
      },
      "t_mapping(t_contract(Token)29301,t_struct(FlashLoanFee)14913_storage)": {
        "encoding": "mapping",
        "key": "t_contract(Token)29301",
        "label": "mapping(contract Token => struct NetworkSettings.FlashLoanFee)",
        "numberOfBytes": "32",
        "value": "t_struct(FlashLoanFee)14913_storage"
      },
      "t_mapping(t_contract(Token)29301,t_uint256)": {
        "encoding": "mapping",
        "key": "t_contract(Token)29301",
        "label": "mapping(contract Token => uint256)",
        "numberOfBytes": "32",
        "value": "t_uint256"
      },
      "t_struct(AddressSet)1737_storage": {
        "encoding": "inplace",
        "label": "struct EnumerableSetUpgradeable.AddressSet",
        "members": [
          {
            "astId": 1736,
            "contract": "contracts/network/NetworkSettings.sol:NetworkSettings",
            "label": "_inner",
            "offset": 0,
            "slot": "0",
            "type": "t_struct(Set)1436_storage"
          }
        ],
        "numberOfBytes": "64"
      },
      "t_struct(FlashLoanFee)14913_storage": {
        "encoding": "inplace",
        "label": "struct NetworkSettings.FlashLoanFee",
        "members": [
          {
            "astId": 14910,
            "contract": "contracts/network/NetworkSettings.sol:NetworkSettings",
            "label": "initialized",
            "offset": 0,
            "slot": "0",
            "type": "t_bool"
          },
          {
            "astId": 14912,
            "contract": "contracts/network/NetworkSettings.sol:NetworkSettings",
            "label": "feePPM",
            "offset": 1,
            "slot": "0",
            "type": "t_uint32"
          }
        ],
        "numberOfBytes": "32"
      },
      "t_struct(RoleData)245_storage": {
        "encoding": "inplace",
        "label": "struct AccessControlUpgradeable.RoleData",
        "members": [
          {
            "astId": 242,
            "contract": "contracts/network/NetworkSettings.sol:NetworkSettings",
            "label": "members",
            "offset": 0,
            "slot": "0",
            "type": "t_mapping(t_address,t_bool)"
          },
          {
            "astId": 244,
            "contract": "contracts/network/NetworkSettings.sol:NetworkSettings",
            "label": "adminRole",
            "offset": 0,
            "slot": "1",
            "type": "t_bytes32"
          }
        ],
        "numberOfBytes": "64"
      },
      "t_struct(Set)1436_storage": {
        "encoding": "inplace",
        "label": "struct EnumerableSetUpgradeable.Set",
        "members": [
          {
            "astId": 1431,
            "contract": "contracts/network/NetworkSettings.sol:NetworkSettings",
            "label": "_values",
            "offset": 0,
            "slot": "0",
            "type": "t_array(t_bytes32)dyn_storage"
          },
          {
            "astId": 1435,
            "contract": "contracts/network/NetworkSettings.sol:NetworkSettings",
            "label": "_indexes",
            "offset": 0,
            "slot": "1",
            "type": "t_mapping(t_bytes32,t_uint256)"
          }
        ],
        "numberOfBytes": "64"
      },
      "t_struct(VortexRewards)16889_storage": {
        "encoding": "inplace",
        "label": "struct VortexRewards",
        "members": [
          {
            "astId": 16886,
            "contract": "contracts/network/NetworkSettings.sol:NetworkSettings",
            "label": "burnRewardPPM",
            "offset": 0,
            "slot": "0",
            "type": "t_uint32"
          },
          {
            "astId": 16888,
            "contract": "contracts/network/NetworkSettings.sol:NetworkSettings",
            "label": "burnRewardMaxAmount",
            "offset": 0,
            "slot": "1",
            "type": "t_uint256"
          }
        ],
        "numberOfBytes": "64"
      },
      "t_uint16": {
        "encoding": "inplace",
        "label": "uint16",
        "numberOfBytes": "2"
      },
      "t_uint256": {
        "encoding": "inplace",
        "label": "uint256",
        "numberOfBytes": "32"
      },
      "t_uint32": {
        "encoding": "inplace",
        "label": "uint32",
        "numberOfBytes": "4"
      }
    }
  }
}