{
  "address": "0x7f05068f4DCC4dF9dD54f52b647B0241EBbB92Ce",
  "abi": [
    {
      "inputs": [
        {
          "internalType": "contract IBancorNetwork",
          "name": "initNetwork",
          "type": "address"
        },
        {
          "internalType": "contract IERC20",
          "name": "initBNT",
          "type": "address"
        },
        {
          "internalType": "contract IBNTPool",
          "name": "initBNTPool",
          "type": "address"
        }
      ],
      "stateMutability": "nonpayable",
      "type": "constructor"
    },
    {
      "inputs": [],
      "name": "AccessDenied",
      "type": "error"
    },
    {
      "inputs": [],
      "name": "AlreadyExists",
      "type": "error"
    },
    {
      "inputs": [],
      "name": "AlreadyInitialized",
      "type": "error"
    },
    {
      "inputs": [],
      "name": "DoesNotExist",
      "type": "error"
    },
    {
      "inputs": [],
      "name": "InvalidAddress",
      "type": "error"
    },
    {
      "inputs": [],
      "name": "WithdrawalNotAllowed",
      "type": "error"
    },
    {
      "inputs": [],
      "name": "ZeroValue",
      "type": "error"
    },
    {
      "anonymous": false,
      "inputs": [
        {
          "indexed": false,
          "internalType": "uint32",
          "name": "prevLockDuration",
          "type": "uint32"
        },
        {
          "indexed": false,
          "internalType": "uint32",
          "name": "newLockDuration",
          "type": "uint32"
        }
      ],
      "name": "LockDurationUpdated",
      "type": "event"
    },
    {
      "anonymous": false,
      "inputs": [
        {
          "indexed": true,
          "internalType": "bytes32",
          "name": "role",
          "type": "bytes32"
        },
        {
          "indexed": true,
          "internalType": "bytes32",
          "name": "previousAdminRole",
          "type": "bytes32"
        },
        {
          "indexed": true,
          "internalType": "bytes32",
          "name": "newAdminRole",
          "type": "bytes32"
        }
      ],
      "name": "RoleAdminChanged",
      "type": "event"
    },
    {
      "anonymous": false,
      "inputs": [
        {
          "indexed": true,
          "internalType": "bytes32",
          "name": "role",
          "type": "bytes32"
        },
        {
          "indexed": true,
          "internalType": "address",
          "name": "account",
          "type": "address"
        },
        {
          "indexed": true,
          "internalType": "address",
          "name": "sender",
          "type": "address"
        }
      ],
      "name": "RoleGranted",
      "type": "event"
    },
    {
      "anonymous": false,
      "inputs": [
        {
          "indexed": true,
          "internalType": "bytes32",
          "name": "role",
          "type": "bytes32"
        },
        {
          "indexed": true,
          "internalType": "address",
          "name": "account",
          "type": "address"
        },
        {
          "indexed": true,
          "internalType": "address",
          "name": "sender",
          "type": "address"
        }
      ],
      "name": "RoleRevoked",
      "type": "event"
    },
    {
      "anonymous": false,
      "inputs": [
        {
          "indexed": true,
          "internalType": "contract Token",
          "name": "pool",
          "type": "address"
        },
        {
          "indexed": true,
          "internalType": "address",
          "name": "provider",
          "type": "address"
        },
        {
          "indexed": true,
          "internalType": "uint256",
          "name": "requestId",
          "type": "uint256"
        },
        {
          "indexed": false,
          "internalType": "uint256",
          "name": "poolTokenAmount",
          "type": "uint256"
        },
        {
          "indexed": false,
          "internalType": "uint256",
          "name": "reserveTokenAmount",
          "type": "uint256"
        },
        {
          "indexed": false,
          "internalType": "uint32",
          "name": "timeElapsed",
          "type": "uint32"
        }
      ],
      "name": "WithdrawalCancelled",
      "type": "event"
    },
    {
      "anonymous": false,
      "inputs": [
        {
          "indexed": true,
          "internalType": "bytes32",
          "name": "contextId",
          "type": "bytes32"
        },
        {
          "indexed": true,
          "internalType": "contract Token",
          "name": "pool",
          "type": "address"
        },
        {
          "indexed": true,
          "internalType": "address",
          "name": "provider",
          "type": "address"
        },
        {
          "indexed": false,
          "internalType": "uint256",
          "name": "requestId",
          "type": "uint256"
        },
        {
          "indexed": false,
          "internalType": "uint256",
          "name": "poolTokenAmount",
          "type": "uint256"
        },
        {
          "indexed": false,
          "internalType": "uint256",
          "name": "reserveTokenAmount",
          "type": "uint256"
        },
        {
          "indexed": false,
          "internalType": "uint32",
          "name": "timeElapsed",
          "type": "uint32"
        }
      ],
      "name": "WithdrawalCompleted",
      "type": "event"
    },
    {
      "anonymous": false,
      "inputs": [
        {
          "indexed": true,
          "internalType": "contract Token",
          "name": "pool",
          "type": "address"
        },
        {
          "indexed": true,
          "internalType": "address",
          "name": "provider",
          "type": "address"
        },
        {
          "indexed": true,
          "internalType": "uint256",
          "name": "requestId",
          "type": "uint256"
        },
        {
          "indexed": false,
          "internalType": "uint256",
          "name": "poolTokenAmount",
          "type": "uint256"
        },
        {
          "indexed": false,
          "internalType": "uint256",
          "name": "reserveTokenAmount",
          "type": "uint256"
        }
      ],
      "name": "WithdrawalInitiated",
      "type": "event"
    },
    {
      "inputs": [],
      "name": "DEFAULT_ADMIN_ROLE",
      "outputs": [
        {
          "internalType": "bytes32",
          "name": "",
          "type": "bytes32"
        }
      ],
      "stateMutability": "view",
      "type": "function"
    },
    {
      "inputs": [
        {
          "internalType": "address",
          "name": "provider",
          "type": "address"
        },
        {
          "internalType": "uint256",
          "name": "id",
          "type": "uint256"
        }
      ],
      "name": "cancelWithdrawal",
      "outputs": [
        {
          "internalType": "uint256",
          "name": "",
          "type": "uint256"
        }
      ],
      "stateMutability": "nonpayable",
      "type": "function"
    },
    {
      "inputs": [
        {
          "internalType": "bytes32",
          "name": "contextId",
          "type": "bytes32"
        },
        {
          "internalType": "address",
          "name": "provider",
          "type": "address"
        },
        {
          "internalType": "uint256",
          "name": "id",
          "type": "uint256"
        }
      ],
      "name": "completeWithdrawal",
      "outputs": [
        {
          "components": [
            {
              "internalType": "contract IPoolToken",
              "name": "poolToken",
              "type": "address"
            },
            {
              "internalType": "uint256",
              "name": "poolTokenAmount",
              "type": "uint256"
            },
            {
              "internalType": "uint256",
              "name": "reserveTokenAmount",
              "type": "uint256"
            }
          ],
          "internalType": "struct CompletedWithdrawal",
          "name": "",
          "type": "tuple"
        }
      ],
      "stateMutability": "nonpayable",
      "type": "function"
    },
    {
      "inputs": [
        {
          "internalType": "bytes32",
          "name": "role",
          "type": "bytes32"
        }
      ],
      "name": "getRoleAdmin",
      "outputs": [
        {
          "internalType": "bytes32",
          "name": "",
          "type": "bytes32"
        }
      ],
      "stateMutability": "view",
      "type": "function"
    },
    {
      "inputs": [
        {
          "internalType": "bytes32",
          "name": "role",
          "type": "bytes32"
        },
        {
          "internalType": "uint256",
          "name": "index",
          "type": "uint256"
        }
      ],
      "name": "getRoleMember",
      "outputs": [
        {
          "internalType": "address",
          "name": "",
          "type": "address"
        }
      ],
      "stateMutability": "view",
      "type": "function"
    },
    {
      "inputs": [
        {
          "internalType": "bytes32",
          "name": "role",
          "type": "bytes32"
        }
      ],
      "name": "getRoleMemberCount",
      "outputs": [
        {
          "internalType": "uint256",
          "name": "",
          "type": "uint256"
        }
      ],
      "stateMutability": "view",
      "type": "function"
    },
    {
      "inputs": [
        {
          "internalType": "bytes32",
          "name": "role",
          "type": "bytes32"
        },
        {
          "internalType": "address",
          "name": "account",
          "type": "address"
        }
      ],
      "name": "grantRole",
      "outputs": [],
      "stateMutability": "nonpayable",
      "type": "function"
    },
    {
      "inputs": [
        {
          "internalType": "bytes32",
          "name": "role",
          "type": "bytes32"
        },
        {
          "internalType": "address",
          "name": "account",
          "type": "address"
        }
      ],
      "name": "hasRole",
      "outputs": [
        {
          "internalType": "bool",
          "name": "",
          "type": "bool"
        }
      ],
      "stateMutability": "view",
      "type": "function"
    },
    {
      "inputs": [
        {
          "internalType": "address",
          "name": "provider",
          "type": "address"
        },
        {
          "internalType": "contract IPoolToken",
          "name": "poolToken",
          "type": "address"
        },
        {
          "internalType": "uint256",
          "name": "poolTokenAmount",
          "type": "uint256"
        }
      ],
      "name": "initWithdrawal",
      "outputs": [
        {
          "internalType": "uint256",
          "name": "",
          "type": "uint256"
        }
      ],
      "stateMutability": "nonpayable",
      "type": "function"
    },
    {
      "inputs": [],
      "name": "initialize",
      "outputs": [],
      "stateMutability": "nonpayable",
      "type": "function"
    },
    {
      "inputs": [
        {
          "internalType": "uint256",
          "name": "id",
          "type": "uint256"
        }
      ],
      "name": "isReadyForWithdrawal",
      "outputs": [
        {
          "internalType": "bool",
          "name": "",
          "type": "bool"
        }
      ],
      "stateMutability": "view",
      "type": "function"
    },
    {
      "inputs": [],
      "name": "lockDuration",
      "outputs": [
        {
          "internalType": "uint32",
          "name": "",
          "type": "uint32"
        }
      ],
      "stateMutability": "view",
      "type": "function"
    },
    {
      "inputs": [
        {
          "internalType": "bytes",
          "name": "data",
          "type": "bytes"
        }
      ],
      "name": "postUpgrade",
      "outputs": [],
      "stateMutability": "nonpayable",
      "type": "function"
    },
    {
      "inputs": [
        {
          "internalType": "bytes32",
          "name": "role",
          "type": "bytes32"
        },
        {
          "internalType": "address",
          "name": "account",
          "type": "address"
        }
      ],
      "name": "renounceRole",
      "outputs": [],
      "stateMutability": "nonpayable",
      "type": "function"
    },
    {
      "inputs": [
        {
          "internalType": "bytes32",
          "name": "role",
          "type": "bytes32"
        },
        {
          "internalType": "address",
          "name": "account",
          "type": "address"
        }
      ],
      "name": "revokeRole",
      "outputs": [],
      "stateMutability": "nonpayable",
      "type": "function"
    },
    {
      "inputs": [],
      "name": "roleAdmin",
      "outputs": [
        {
          "internalType": "bytes32",
          "name": "",
          "type": "bytes32"
        }
      ],
      "stateMutability": "pure",
      "type": "function"
    },
    {
      "inputs": [
        {
          "internalType": "uint32",
          "name": "newLockDuration",
          "type": "uint32"
        }
      ],
      "name": "setLockDuration",
      "outputs": [],
      "stateMutability": "nonpayable",
      "type": "function"
    },
    {
      "inputs": [
        {
          "internalType": "bytes4",
          "name": "interfaceId",
          "type": "bytes4"
        }
      ],
      "name": "supportsInterface",
      "outputs": [
        {
          "internalType": "bool",
          "name": "",
          "type": "bool"
        }
      ],
      "stateMutability": "view",
      "type": "function"
    },
    {
      "inputs": [],
      "name": "version",
      "outputs": [
        {
          "internalType": "uint16",
          "name": "",
          "type": "uint16"
        }
      ],
      "stateMutability": "pure",
      "type": "function"
    },
    {
      "inputs": [
        {
          "internalType": "uint256",
          "name": "id",
          "type": "uint256"
        }
      ],
      "name": "withdrawalRequest",
      "outputs": [
        {
          "components": [
            {
              "internalType": "address",
              "name": "provider",
              "type": "address"
            },
            {
              "internalType": "contract IPoolToken",
              "name": "poolToken",
              "type": "address"
            },
            {
              "internalType": "contract Token",
              "name": "reserveToken",
              "type": "address"
            },
            {
              "internalType": "uint32",
              "name": "createdAt",
              "type": "uint32"
            },
            {
              "internalType": "uint256",
              "name": "poolTokenAmount",
              "type": "uint256"
            },
            {
              "internalType": "uint256",
              "name": "reserveTokenAmount",
              "type": "uint256"
            }
          ],
          "internalType": "struct WithdrawalRequest",
          "name": "",
          "type": "tuple"
        }
      ],
      "stateMutability": "view",
      "type": "function"
    },
    {
      "inputs": [
        {
          "internalType": "address",
          "name": "provider",
          "type": "address"
        }
      ],
      "name": "withdrawalRequestCount",
      "outputs": [
        {
          "internalType": "uint256",
          "name": "",
          "type": "uint256"
        }
      ],
      "stateMutability": "view",
      "type": "function"
    },
    {
      "inputs": [
        {
          "internalType": "address",
          "name": "provider",
          "type": "address"
        }
      ],
      "name": "withdrawalRequestIds",
      "outputs": [
        {
          "internalType": "uint256[]",
          "name": "",
          "type": "uint256[]"
        }
      ],
      "stateMutability": "view",
      "type": "function"
    }
  ],
  "transactionHash": "0x6e99227a195abbfd654f31cd4587202d764dd97667476e290de175a1d1b6a8fb",
  "args": [
    "0xeEF417e1D5CC832e619ae18D2F140De2999dD4fB",
    "0x1F573D6Fb3F13d689FF844B4cE37794d79a7FF1C",
    "0x02651E355D26f3506C1E644bA393FDD9Ac95EaCa"
  ],
  "numDeployments": 4,
  "solcInputHash": "5b678328d6cb80e2f2ea6caff5684570",
  "bytecode": "0x60e06040523480156200001157600080fd5b5060405162002153380380620021538339810160408190526200003491620000ba565b82620000408162000079565b826200004c8162000079565b82620000588162000079565b5050506001600160a01b0392831660805290821660a0521660c0526200010e565b6001600160a01b038116620000a15760405163e6c4247b60e01b815260040160405180910390fd5b50565b6001600160a01b0381168114620000a157600080fd5b600080600060608486031215620000d057600080fd5b8351620000dd81620000a4565b6020850151909350620000f081620000a4565b60408501519092506200010381620000a4565b809150509250925092565b60805160a05160c051612000620001536000396000611137015260006110f80152600081816104b8015281816105250152818161099b01526111d001526120006000f3fe608060405234801561001057600080fd5b50600436106101425760003560e01c80638cd2403d116100b8578063ade3142f1161007c578063ade3142f146103df578063b09233c8146103f2578063be476d8a14610405578063ca15c87314610418578063d547741f1461042b578063ed249d051461043e57600080fd5b80638cd2403d146103725780639010d07c1461038557806391d14854146103b057806393867fb5146103c3578063a217fddf146103d757600080fd5b80632b0b23561161010a5780632b0b2356146101eb5780632f2ff15d1461022957806336568abe1461023e5780635209cb981461025157806354fd4d501461035b5780638129fc1c1461036a57600080fd5b806301ffc9a714610147578063045544431461016f5780630aa9e15c14610187578063248a9ca3146101a757806327cfcfa2146101d8575b600080fd5b61015a610155366004611ac5565b610451565b60405190151581526020015b60405180910390f35b60fb5460405163ffffffff9091168152602001610166565b61019a610195366004611b04565b61047c565b6040516101669190611b21565b6101ca6101b5366004611b65565b60009081526065602052604090206001015490565b604051908152602001610166565b6101ca6101e6366004611b7e565b6104a0565b6101fe6101f9366004611bbf565b6104f6565b6040805182516001600160a01b03168152602080840151908201529181015190820152606001610166565b61023c610237366004611be6565b61074b565b005b61023c61024c366004611be6565b610776565b61030161025f366004611b65565b6040805160c081018252600080825260208201819052918101829052606081018290526080810182905260a081019190915250600090815260fe6020908152604091829020825160c08101845281546001600160a01b0390811682526001830154811693820193909352600282015492831693810193909352600160a01b90910463ffffffff166060830152600381015460808301526004015460a082015290565b6040805182516001600160a01b03908116825260208085015182169083015283830151169181019190915260608083015163ffffffff16908201526080808301519082015260a0918201519181019190915260c001610166565b60405160048152602001610166565b61023c6107f9565b61023c610380366004611c16565b6108ba565b610398610393366004611c88565b61090b565b6040516001600160a01b039091168152602001610166565b61015a6103be366004611be6565b61092a565b600080516020611fd48339815191526101ca565b6101ca600081565b6101ca6103ed366004611b04565b610955565b61023c610400366004611caa565b610976565b6101ca610413366004611cd0565b610997565b6101ca610426366004611b65565b610a66565b61023c610439366004611be6565b610a7d565b61015a61044c366004611b65565b610aa3565b60006001600160e01b03198216635a05180f60e01b1480610476575061047682610ae0565b92915050565b6001600160a01b038116600090815260fd6020526040902060609061047690610b15565b6000826104ac81610b22565b826104b681610b49565b7f00000000000000000000000000000000000000000000000000000000000000006104e081610b6a565b6104eb878787610b93565b979650505050505050565b610523604051806060016040528060006001600160a01b0316815260200160008152602001600081525090565b7f000000000000000000000000000000000000000000000000000000000000000061054d81610b6a565b600083815260fe6020908152604091829020825160c08101845281546001600160a01b039081168083526001840154821694830194909452600283015480821695830195909552600160a01b90940463ffffffff1660608201526003820154608082015260049091015460a0820152918616146105dd57604051634ca8886760e01b815260040160405180910390fd5b60004290506105f0818360600151610d94565b61060d5760405163209a769d60e11b815260040160405180910390fd5b6106178686610dbd565b6020820151608083015160405163095ea7b360e01b815233600482015260248101919091526001600160a01b039091169063095ea7b3906044016020604051808303816000875af1158015610670573d6000803e3d6000fd5b505050506040513d601f19601f820116820180604052508101906106949190611cfc565b50856001600160a01b031682604001516001600160a01b0316887f70a90e1e4f0e226199127e9bd05b3cbf9c2e5df8a2265903456eb0951727a4cc8886608001518760a001518860600151886106ea9190611d34565b6040805194855260208501939093529183015263ffffffff16606082015260800160405180910390a450604080516060810182526020808401516001600160a01b0316825260808401519082015260a0909201519082015295945050505050565b6000828152606560205260409020600101546107678133610e45565b6107718383610ea9565b505050565b6001600160a01b03811633146107eb5760405162461bcd60e51b815260206004820152602f60248201527f416363657373436f6e74726f6c3a2063616e206f6e6c792072656e6f756e636560448201526e103937b632b9903337b91039b2b63360891b60648201526084015b60405180910390fd5b6107f58282610ecb565b5050565b600054610100900460ff166108145760005460ff1615610818565b303b155b61087b5760405162461bcd60e51b815260206004820152602e60248201527f496e697469616c697a61626c653a20636f6e747261637420697320616c72656160448201526d191e481a5b9a5d1a585b1a5e995960921b60648201526084016107e2565b600054610100900460ff1615801561089d576000805461ffff19166101011790555b6108a5610eed565b80156108b7576000805461ff00191690555b50565b60c9546000906108cf9061ffff166001611d59565b905061ffff81166004146108f55760405162dc149f60e41b815260040160405180910390fd5b60c9805461ffff191661ffff8316179055505050565b60008281526097602052604081206109239083610f26565b9392505050565b60009182526065602090815260408084206001600160a01b0393909316845291905290205460ff1690565b6001600160a01b038116600090815260fd6020526040812061047690610f32565b61098e600080516020611fd483398151915233610f3c565b6108b781610f63565b60007f00000000000000000000000000000000000000000000000000000000000000006109c381610b6a565b600083815260fe6020908152604091829020825160c08101845281546001600160a01b039081168083526001840154821694830194909452600283015480821695830195909552600160a01b90940463ffffffff1660608201526003820154608082015260049091015460a082015291861614610a5357604051634ca8886760e01b815260040160405180910390fd5b610a5d8185610fd4565b95945050505050565b600081815260976020526040812061047690610f32565b600082815260656020526040902060010154610a998133610e45565b6107718383610ecb565b600081815260fe6020526040812080546001600160a01b0316158015906109235750610923426002830154600160a01b900463ffffffff16610d94565b60006001600160e01b03198216637965db0b60e01b148061047657506301ffc9a760e01b6001600160e01b0319831614610476565b6060600061092383611090565b6001600160a01b0381166108b75760405163e6c4247b60e01b815260040160405180910390fd5b806000036108b757604051637c946ed760e01b815260040160405180910390fd5b336001600160a01b038216146108b757604051634ca8886760e01b815260040160405180910390fd5b60fc805460009182919082610ba783611d7f565b9190505590506000846001600160a01b031663f4325d676040518163ffffffff1660e01b8152600401602060405180830381865afa158015610bed573d6000803e3d6000fd5b505050506040513d601f19601f82011682018060405250810190610c119190611d98565b90506000610c1f82866110ec565b90506040518060c00160405280886001600160a01b03168152602001876001600160a01b03168152602001836001600160a01b03168152602001610c604290565b63ffffffff908116825260208083018990526040928301859052600087815260fe8252838120855181546001600160a01b039182166001600160a01b031991821617835587850151600184018054918416919092161790558686015160028301805460608a01518816600160a01b026001600160c01b0319909116928416929092179190911790556080870151600383015560a090960151600490910155938b16845260fd90529120610d159185906112ae16565b610d325760405163119b4fd360e11b815260040160405180910390fd5b82876001600160a01b0316836001600160a01b03167fd9fbd8fe4451ae979e36c7923543e61b94e26b6f1510866805ee90023a61aa218885604051610d81929190918252602082015260400190565b60405180910390a4509095945050505050565b60fb5460009063ffffffff80851691610dae911684611db5565b63ffffffff1611159392505050565b6001600160a01b038216600090815260fd60205260409020610ddf90826112ba565b610dfc5760405163b0ce759160e01b815260040160405180910390fd5b600090815260fe6020526040812080546001600160a01b0319908116825560018201805490911690556002810180546001600160c01b0319169055600381018290556004015550565b610e4f828261092a565b6107f557610e67816001600160a01b031660146112c6565b610e728360206112c6565b604051602001610e83929190611e04565b60408051601f198184030181529082905262461bcd60e51b82526107e291600401611e79565b610eb38282611462565b600082815260976020526040902061077190826114e8565b610ed582826114fd565b60008281526097602052604090206107719082611564565b600054610100900460ff16610f145760405162461bcd60e51b81526004016107e290611eac565b610f1c611579565b610f246115b0565b565b600061092383836115e3565b6000610476825490565b610f46828261092a565b6107f557604051634ca8886760e01b815260040160405180910390fd5b60fb5463ffffffff9081169082168103610f7b575050565b60fb805463ffffffff191663ffffffff84811691821790925560408051928416835260208301919091527f416ace8e54446e11e0fc1628f84d8eb835ff3dbf3cdf1dec29135a4d1cb73296910160405180910390a15050565b6000610fe4836000015183610dbd565b825160808401516020850151611005926001600160a01b039091169161160d565b8183600001516001600160a01b031684604001516001600160a01b03167f09cf8000f644f8fe85b5fa4e034c4611d089888d0760698d80e34e5a44354aa186608001518760a0015188606001516110594290565b6110639190611d34565b60408051938452602084019290925263ffffffff169082015260600160405180910390a450506080015190565b6060816000018054806020026020016040519081016040528092919081815260200182805480156110e057602002820191906000526020600020905b8154815260200190600101908083116110cc575b50505050509050919050565b60006001600160a01b037f00000000000000000000000000000000000000000000000000000000000000008116908416036111b1576040516303c5513160e21b8152600481018390527f00000000000000000000000000000000000000000000000000000000000000006001600160a01b031690630f1544c490602401602060405180830381865afa158015611186573d6000803e3d6000fd5b505050506040513d601f19601f820116820180604052508101906111aa9190611ef7565b9050610476565b6040516309bca0e760e41b81526001600160a01b0384811660048301527f00000000000000000000000000000000000000000000000000000000000000001690639bca0e7090602401602060405180830381865afa158015611217573d6000803e3d6000fd5b505050506040513d601f19601f8201168201806040525081019061123b9190611d98565b604051634ceea75360e01b81526001600160a01b038581166004830152602482018590529190911690634ceea75390604401602060405180830381865afa15801561128a573d6000803e3d6000fd5b505050506040513d601f19601f820116820180604052508101906109239190611ef7565b6000610923838361165f565b600061092383836116ae565b606060006112d5836002611f10565b6112e0906002611f2f565b67ffffffffffffffff8111156112f8576112f8611f47565b6040519080825280601f01601f191660200182016040528015611322576020820181803683370190505b509050600360fc1b8160008151811061133d5761133d611f5d565b60200101906001600160f81b031916908160001a905350600f60fb1b8160018151811061136c5761136c611f5d565b60200101906001600160f81b031916908160001a9053506000611390846002611f10565b61139b906001611f2f565b90505b6001811115611413576f181899199a1a9b1b9c1cb0b131b232b360811b85600f16601081106113cf576113cf611f5d565b1a60f81b8282815181106113e5576113e5611f5d565b60200101906001600160f81b031916908160001a90535060049490941c9361140c81611f73565b905061139e565b5083156109235760405162461bcd60e51b815260206004820181905260248201527f537472696e67733a20686578206c656e67746820696e73756666696369656e7460448201526064016107e2565b61146c828261092a565b6107f55760008281526065602090815260408083206001600160a01b03851684529091529020805460ff191660011790556114a43390565b6001600160a01b0316816001600160a01b0316837f2f8788117e7eff1d82e926ec794901d17c78024a50270940304540a733656f0d60405160405180910390a45050565b6000610923836001600160a01b03841661165f565b611507828261092a565b156107f55760008281526065602090815260408083206001600160a01b0385168085529252808320805460ff1916905551339285917ff6391f5c32d9c69d2a47ea670b442974b53935d1edc7fd64eb21e047a839171b9190a45050565b6000610923836001600160a01b0384166116ae565b600054610100900460ff166115a05760405162461bcd60e51b81526004016107e290611eac565b6115a86117a1565b610f246117c8565b600054610100900460ff166115d75760405162461bcd60e51b81526004016107e290611eac565b610f2462093a80610f63565b60008260000182815481106115fa576115fa611f5d565b9060005260206000200154905092915050565b604080516001600160a01b038416602482015260448082018490528251808303909101815260649091019091526020810180516001600160e01b031663a9059cbb60e01b17905261077190849061182d565b60008181526001830160205260408120546116a657508154600181810184556000848152602080822090930184905584548482528286019093526040902091909155610476565b506000610476565b600081815260018301602052604081205480156117975760006116d2600183611f8a565b85549091506000906116e690600190611f8a565b905081811461174b57600086600001828154811061170657611706611f5d565b906000526020600020015490508087600001848154811061172957611729611f5d565b6000918252602080832090910192909255918252600188019052604090208390555b855486908061175c5761175c611fa1565b600190038181906000526020600020016000905590558560010160008681526020019081526020016000206000905560019350505050610476565b6000915050610476565b600054610100900460ff16610f245760405162461bcd60e51b81526004016107e290611eac565b600054610100900460ff166117ef5760405162461bcd60e51b81526004016107e290611eac565b60c9805461ffff19166001179055611815600080516020611fd4833981519152806118ff565b610f24600080516020611fd48339815191523361194a565b6000611882826040518060400160405280602081526020017f5361666545524332303a206c6f772d6c6576656c2063616c6c206661696c6564815250856001600160a01b03166119549092919063ffffffff16565b80519091501561077157808060200190518101906118a09190611cfc565b6107715760405162461bcd60e51b815260206004820152602a60248201527f5361666545524332303a204552433230206f7065726174696f6e20646964206e6044820152691bdd081cdd58d8d9595960b21b60648201526084016107e2565b600082815260656020526040808220600101805490849055905190918391839186917fbd79b86ffe0ab8e8776151514217cd7cacd52c909f66475c3af44e129f0b00ff9190a4505050565b6107f58282610ea9565b6060611963848460008561196b565b949350505050565b6060824710156119cc5760405162461bcd60e51b815260206004820152602660248201527f416464726573733a20696e73756666696369656e742062616c616e636520666f6044820152651c8818d85b1b60d21b60648201526084016107e2565b6001600160a01b0385163b611a235760405162461bcd60e51b815260206004820152601d60248201527f416464726573733a2063616c6c20746f206e6f6e2d636f6e747261637400000060448201526064016107e2565b600080866001600160a01b03168587604051611a3f9190611fb7565b60006040518083038185875af1925050503d8060008114611a7c576040519150601f19603f3d011682016040523d82523d6000602084013e611a81565b606091505b50915091506104eb82828660608315611a9b575081610923565b825115611aab5782518084602001fd5b8160405162461bcd60e51b81526004016107e29190611e79565b600060208284031215611ad757600080fd5b81356001600160e01b03198116811461092357600080fd5b6001600160a01b03811681146108b757600080fd5b600060208284031215611b1657600080fd5b813561092381611aef565b6020808252825182820181905260009190848201906040850190845b81811015611b5957835183529284019291840191600101611b3d565b50909695505050505050565b600060208284031215611b7757600080fd5b5035919050565b600080600060608486031215611b9357600080fd5b8335611b9e81611aef565b92506020840135611bae81611aef565b929592945050506040919091013590565b600080600060608486031215611bd457600080fd5b833592506020840135611bae81611aef565b60008060408385031215611bf957600080fd5b823591506020830135611c0b81611aef565b809150509250929050565b60008060208385031215611c2957600080fd5b823567ffffffffffffffff80821115611c4157600080fd5b818501915085601f830112611c5557600080fd5b813581811115611c6457600080fd5b866020828501011115611c7657600080fd5b60209290920196919550909350505050565b60008060408385031215611c9b57600080fd5b50508035926020909101359150565b600060208284031215611cbc57600080fd5b813563ffffffff8116811461092357600080fd5b60008060408385031215611ce357600080fd5b8235611cee81611aef565b946020939093013593505050565b600060208284031215611d0e57600080fd5b8151801515811461092357600080fd5b634e487b7160e01b600052601160045260246000fd5b600063ffffffff83811690831681811015611d5157611d51611d1e565b039392505050565b600061ffff808316818516808303821115611d7657611d76611d1e565b01949350505050565b600060018201611d9157611d91611d1e565b5060010190565b600060208284031215611daa57600080fd5b815161092381611aef565b600063ffffffff808316818516808303821115611d7657611d76611d1e565b60005b83811015611def578181015183820152602001611dd7565b83811115611dfe576000848401525b50505050565b7f416363657373436f6e74726f6c3a206163636f756e7420000000000000000000815260008351611e3c816017850160208801611dd4565b7001034b99036b4b9b9b4b733903937b6329607d1b6017918401918201528351611e6d816028840160208801611dd4565b01602801949350505050565b6020815260008251806020840152611e98816040850160208701611dd4565b601f01601f19169190910160400192915050565b6020808252602b908201527f496e697469616c697a61626c653a20636f6e7472616374206973206e6f74206960408201526a6e697469616c697a696e6760a81b606082015260800190565b600060208284031215611f0957600080fd5b5051919050565b6000816000190483118215151615611f2a57611f2a611d1e565b500290565b60008219821115611f4257611f42611d1e565b500190565b634e487b7160e01b600052604160045260246000fd5b634e487b7160e01b600052603260045260246000fd5b600081611f8257611f82611d1e565b506000190190565b600082821015611f9c57611f9c611d1e565b500390565b634e487b7160e01b600052603160045260246000fd5b60008251611fc9818460208701611dd4565b919091019291505056fe2172861495e7b85edac73e3cd5fbb42dd675baadf627720e687bcfdaca025096a164736f6c634300080d000a",
  "devdoc": {
    "details": "Pending Withdrawals contract",
    "events": {
      "LockDurationUpdated(uint32,uint32)": {
        "details": "triggered when the lock duration is updated"
      },
      "WithdrawalCancelled(address,address,uint256,uint256,uint256,uint32)": {
        "details": "triggered when a provider cancels a liquidity withdrawal request"
      },
      "WithdrawalCompleted(bytes32,address,address,uint256,uint256,uint256,uint32)": {
        "details": "triggered when a liquidity withdrawal request has been completed"
      },
      "WithdrawalInitiated(address,address,uint256,uint256,uint256)": {
        "details": "triggered when a provider requests to initiate a liquidity withdrawal"
      }
    },
    "kind": "dev",
    "methods": {
      "cancelWithdrawal(address,uint256)": {
        "details": "cancels a withdrawal request, and returns the number of pool tokens which were sent back to the provider requirements: - the caller must be the network contract - the provider must have already initiated a withdrawal and received the specified id"
      },
      "completeWithdrawal(bytes32,address,uint256)": {
        "details": "completes a withdrawal request, and returns the pool token and its transferred amount requirements: - the caller must be the network contract - the provider must have already initiated a withdrawal and received the specified id - the lock duration has ended"
      },
      "constructor": {
        "details": "a \"virtual\" constructor that is only used to set immutable state variables"
      },
      "getRoleAdmin(bytes32)": {
        "details": "Returns the admin role that controls `role`. See {grantRole} and {revokeRole}. To change a role's admin, use {_setRoleAdmin}."
      },
      "getRoleMember(bytes32,uint256)": {
        "details": "Returns one of the accounts that have `role`. `index` must be a value between 0 and {getRoleMemberCount}, non-inclusive. Role bearers are not sorted in any particular way, and their ordering may change at any point. WARNING: When using {getRoleMember} and {getRoleMemberCount}, make sure you perform all queries on the same block. See the following https://forum.openzeppelin.com/t/iterating-over-elements-on-enumerableset-in-openzeppelin-contracts/2296[forum post] for more information."
      },
      "getRoleMemberCount(bytes32)": {
        "details": "Returns the number of accounts that have `role`. Can be used together with {getRoleMember} to enumerate all bearers of a role."
      },
      "grantRole(bytes32,address)": {
        "details": "Grants `role` to `account`. If `account` had not been already granted `role`, emits a {RoleGranted} event. Requirements: - the caller must have ``role``'s admin role."
      },
      "hasRole(bytes32,address)": {
        "details": "Returns `true` if `account` has been granted `role`."
      },
      "initWithdrawal(address,address,uint256)": {
        "details": "initiates liquidity withdrawal requirements: - the caller must be the network contract"
      },
      "initialize()": {
        "details": "fully initializes the contract and its parents"
      },
      "isReadyForWithdrawal(uint256)": {
        "details": "returns whether the given request is ready for withdrawal"
      },
      "lockDuration()": {
        "details": "returns the lock duration"
      },
      "postUpgrade(bytes)": {
        "details": "performs post-upgrade initialization requirements: - this must can be called only once per-upgrade"
      },
      "renounceRole(bytes32,address)": {
        "details": "Revokes `role` from the calling account. Roles are often managed via {grantRole} and {revokeRole}: this function's purpose is to provide a mechanism for accounts to lose their privileges if they are compromised (such as when a trusted device is misplaced). If the calling account had been revoked `role`, emits a {RoleRevoked} event. Requirements: - the caller must be `account`."
      },
      "revokeRole(bytes32,address)": {
        "details": "Revokes `role` from `account`. If `account` had been granted `role`, emits a {RoleRevoked} event. Requirements: - the caller must have ``role``'s admin role."
      },
      "roleAdmin()": {
        "details": "returns the admin role"
      },
      "setLockDuration(uint32)": {
        "details": "sets the lock duration notes: - updating it will affect existing locked positions retroactively requirements: - the caller must be the admin of the contract"
      },
      "supportsInterface(bytes4)": {
        "details": "See {IERC165-supportsInterface}."
      },
      "withdrawalRequest(uint256)": {
        "details": "returns the pending withdrawal request with the specified ID"
      },
      "withdrawalRequestCount(address)": {
        "details": "returns the pending withdrawal requests count for a specific provider"
      },
      "withdrawalRequestIds(address)": {
        "details": "returns the pending withdrawal requests IDs for a specific provider"
      }
    },
    "version": 1
  },
  "userdoc": {
    "kind": "user",
    "methods": {},
    "version": 1
  },
  "storageLayout": {
    "storage": [
      {
        "astId": 644,
        "contract": "contracts/network/PendingWithdrawals.sol:PendingWithdrawals",
        "label": "_initialized",
        "offset": 0,
        "slot": "0",
        "type": "t_bool"
      },
      {
        "astId": 647,
        "contract": "contracts/network/PendingWithdrawals.sol:PendingWithdrawals",
        "label": "_initializing",
        "offset": 1,
        "slot": "0",
        "type": "t_bool"
      },
      {
        "astId": 1165,
        "contract": "contracts/network/PendingWithdrawals.sol:PendingWithdrawals",
        "label": "__gap",
        "offset": 0,
        "slot": "1",
        "type": "t_array(t_uint256)50_storage"
      },
      {
        "astId": 1412,
        "contract": "contracts/network/PendingWithdrawals.sol:PendingWithdrawals",
        "label": "__gap",
        "offset": 0,
        "slot": "51",
        "type": "t_array(t_uint256)50_storage"
      },
      {
        "astId": 250,
        "contract": "contracts/network/PendingWithdrawals.sol:PendingWithdrawals",
        "label": "_roles",
        "offset": 0,
        "slot": "101",
        "type": "t_mapping(t_bytes32,t_struct(RoleData)245_storage)"
      },
      {
        "astId": 538,
        "contract": "contracts/network/PendingWithdrawals.sol:PendingWithdrawals",
        "label": "__gap",
        "offset": 0,
        "slot": "102",
        "type": "t_array(t_uint256)49_storage"
      },
      {
        "astId": 99,
        "contract": "contracts/network/PendingWithdrawals.sol:PendingWithdrawals",
        "label": "_roleMembers",
        "offset": 0,
        "slot": "151",
        "type": "t_mapping(t_bytes32,t_struct(AddressSet)1737_storage)"
      },
      {
        "astId": 209,
        "contract": "contracts/network/PendingWithdrawals.sol:PendingWithdrawals",
        "label": "__gap",
        "offset": 0,
        "slot": "152",
        "type": "t_array(t_uint256)49_storage"
      },
      {
        "astId": 31871,
        "contract": "contracts/network/PendingWithdrawals.sol:PendingWithdrawals",
        "label": "_initializations",
        "offset": 0,
        "slot": "201",
        "type": "t_uint16"
      },
      {
        "astId": 31877,
        "contract": "contracts/network/PendingWithdrawals.sol:PendingWithdrawals",
        "label": "__gap",
        "offset": 0,
        "slot": "202",
        "type": "t_array(t_uint256)49_storage"
      },
      {
        "astId": 17186,
        "contract": "contracts/network/PendingWithdrawals.sol:PendingWithdrawals",
        "label": "_lockDuration",
        "offset": 0,
        "slot": "251",
        "type": "t_uint32"
      },
      {
        "astId": 17188,
        "contract": "contracts/network/PendingWithdrawals.sol:PendingWithdrawals",
        "label": "_nextWithdrawalRequestId",
        "offset": 0,
        "slot": "252",
        "type": "t_uint256"
      },
      {
        "astId": 17193,
        "contract": "contracts/network/PendingWithdrawals.sol:PendingWithdrawals",
        "label": "_withdrawalRequestIdsByProvider",
        "offset": 0,
        "slot": "253",
        "type": "t_mapping(t_address,t_struct(UintSet)1894_storage)"
      },
      {
        "astId": 17198,
        "contract": "contracts/network/PendingWithdrawals.sol:PendingWithdrawals",
        "label": "_withdrawalRequests",
        "offset": 0,
        "slot": "254",
        "type": "t_mapping(t_uint256,t_struct(WithdrawalRequest)18533_storage)"
      },
      {
        "astId": 17204,
        "contract": "contracts/network/PendingWithdrawals.sol:PendingWithdrawals",
        "label": "__gap",
        "offset": 0,
        "slot": "255",
        "type": "t_array(t_uint256)46_storage"
      }
    ],
    "types": {
      "t_address": {
        "encoding": "inplace",
        "label": "address",
        "numberOfBytes": "20"
      },
      "t_array(t_bytes32)dyn_storage": {
        "base": "t_bytes32",
        "encoding": "dynamic_array",
        "label": "bytes32[]",
        "numberOfBytes": "32"
      },
      "t_array(t_uint256)46_storage": {
        "base": "t_uint256",
        "encoding": "inplace",
        "label": "uint256[46]",
        "numberOfBytes": "1472"
      },
      "t_array(t_uint256)49_storage": {
        "base": "t_uint256",
        "encoding": "inplace",
        "label": "uint256[49]",
        "numberOfBytes": "1568"
      },
      "t_array(t_uint256)50_storage": {
        "base": "t_uint256",
        "encoding": "inplace",
        "label": "uint256[50]",
        "numberOfBytes": "1600"
      },
      "t_bool": {
        "encoding": "inplace",
        "label": "bool",
        "numberOfBytes": "1"
      },
      "t_bytes32": {
        "encoding": "inplace",
        "label": "bytes32",
        "numberOfBytes": "32"
      },
      "t_contract(IPoolToken)25628": {
        "encoding": "inplace",
        "label": "contract IPoolToken",
        "numberOfBytes": "20"
      },
      "t_contract(Token)29696": {
        "encoding": "inplace",
        "label": "contract Token",
        "numberOfBytes": "20"
      },
      "t_mapping(t_address,t_bool)": {
        "encoding": "mapping",
        "key": "t_address",
        "label": "mapping(address => bool)",
        "numberOfBytes": "32",
        "value": "t_bool"
      },
      "t_mapping(t_address,t_struct(UintSet)1894_storage)": {
        "encoding": "mapping",
        "key": "t_address",
        "label": "mapping(address => struct EnumerableSetUpgradeable.UintSet)",
        "numberOfBytes": "32",
        "value": "t_struct(UintSet)1894_storage"
      },
      "t_mapping(t_bytes32,t_struct(AddressSet)1737_storage)": {
        "encoding": "mapping",
        "key": "t_bytes32",
        "label": "mapping(bytes32 => struct EnumerableSetUpgradeable.AddressSet)",
        "numberOfBytes": "32",
        "value": "t_struct(AddressSet)1737_storage"
      },
      "t_mapping(t_bytes32,t_struct(RoleData)245_storage)": {
        "encoding": "mapping",
        "key": "t_bytes32",
        "label": "mapping(bytes32 => struct AccessControlUpgradeable.RoleData)",
        "numberOfBytes": "32",
        "value": "t_struct(RoleData)245_storage"
      },
      "t_mapping(t_bytes32,t_uint256)": {
        "encoding": "mapping",
        "key": "t_bytes32",
        "label": "mapping(bytes32 => uint256)",
        "numberOfBytes": "32",
        "value": "t_uint256"
      },
      "t_mapping(t_uint256,t_struct(WithdrawalRequest)18533_storage)": {
        "encoding": "mapping",
        "key": "t_uint256",
        "label": "mapping(uint256 => struct WithdrawalRequest)",
        "numberOfBytes": "32",
        "value": "t_struct(WithdrawalRequest)18533_storage"
      },
      "t_struct(AddressSet)1737_storage": {
        "encoding": "inplace",
        "label": "struct EnumerableSetUpgradeable.AddressSet",
        "members": [
          {
            "astId": 1736,
            "contract": "contracts/network/PendingWithdrawals.sol:PendingWithdrawals",
            "label": "_inner",
            "offset": 0,
            "slot": "0",
            "type": "t_struct(Set)1436_storage"
          }
        ],
        "numberOfBytes": "64"
      },
      "t_struct(RoleData)245_storage": {
        "encoding": "inplace",
        "label": "struct AccessControlUpgradeable.RoleData",
        "members": [
          {
            "astId": 242,
            "contract": "contracts/network/PendingWithdrawals.sol:PendingWithdrawals",
            "label": "members",
            "offset": 0,
            "slot": "0",
            "type": "t_mapping(t_address,t_bool)"
          },
          {
            "astId": 244,
            "contract": "contracts/network/PendingWithdrawals.sol:PendingWithdrawals",
            "label": "adminRole",
            "offset": 0,
            "slot": "1",
            "type": "t_bytes32"
          }
        ],
        "numberOfBytes": "64"
      },
      "t_struct(Set)1436_storage": {
        "encoding": "inplace",
        "label": "struct EnumerableSetUpgradeable.Set",
        "members": [
          {
            "astId": 1431,
            "contract": "contracts/network/PendingWithdrawals.sol:PendingWithdrawals",
            "label": "_values",
            "offset": 0,
            "slot": "0",
            "type": "t_array(t_bytes32)dyn_storage"
          },
          {
            "astId": 1435,
            "contract": "contracts/network/PendingWithdrawals.sol:PendingWithdrawals",
            "label": "_indexes",
            "offset": 0,
            "slot": "1",
            "type": "t_mapping(t_bytes32,t_uint256)"
          }
        ],
        "numberOfBytes": "64"
      },
      "t_struct(UintSet)1894_storage": {
        "encoding": "inplace",
        "label": "struct EnumerableSetUpgradeable.UintSet",
        "members": [
          {
            "astId": 1893,
            "contract": "contracts/network/PendingWithdrawals.sol:PendingWithdrawals",
            "label": "_inner",
            "offset": 0,
            "slot": "0",
            "type": "t_struct(Set)1436_storage"
          }
        ],
        "numberOfBytes": "64"
      },
      "t_struct(WithdrawalRequest)18533_storage": {
        "encoding": "inplace",
        "label": "struct WithdrawalRequest",
        "members": [
          {
            "astId": 18520,
            "contract": "contracts/network/PendingWithdrawals.sol:PendingWithdrawals",
            "label": "provider",
            "offset": 0,
            "slot": "0",
            "type": "t_address"
          },
          {
            "astId": 18523,
            "contract": "contracts/network/PendingWithdrawals.sol:PendingWithdrawals",
            "label": "poolToken",
            "offset": 0,
            "slot": "1",
            "type": "t_contract(IPoolToken)25628"
          },
          {
            "astId": 18526,
            "contract": "contracts/network/PendingWithdrawals.sol:PendingWithdrawals",
            "label": "reserveToken",
            "offset": 0,
            "slot": "2",
            "type": "t_contract(Token)29696"
          },
          {
            "astId": 18528,
            "contract": "contracts/network/PendingWithdrawals.sol:PendingWithdrawals",
            "label": "createdAt",
            "offset": 20,
            "slot": "2",
            "type": "t_uint32"
          },
          {
            "astId": 18530,
            "contract": "contracts/network/PendingWithdrawals.sol:PendingWithdrawals",
            "label": "poolTokenAmount",
            "offset": 0,
            "slot": "3",
            "type": "t_uint256"
          },
          {
            "astId": 18532,
            "contract": "contracts/network/PendingWithdrawals.sol:PendingWithdrawals",
            "label": "reserveTokenAmount",
            "offset": 0,
            "slot": "4",
            "type": "t_uint256"
          }
        ],
        "numberOfBytes": "160"
      },
      "t_uint16": {
        "encoding": "inplace",
        "label": "uint16",
        "numberOfBytes": "2"
      },
      "t_uint256": {
        "encoding": "inplace",
        "label": "uint256",
        "numberOfBytes": "32"
      },
      "t_uint32": {
        "encoding": "inplace",
        "label": "uint32",
        "numberOfBytes": "4"
      }
    }
  }
}