{
  "address": "0x395eD9ffd32b255dBD128092ABa40200159d664b",
  "abi": [
    {
      "inputs": [
        {
          "internalType": "contract IBancorNetwork",
          "name": "initNetwork",
          "type": "address"
        },
        {
          "internalType": "contract IERC20",
          "name": "initBNT",
          "type": "address"
        },
        {
          "internalType": "contract INetworkSettings",
          "name": "initNetworkSettings",
          "type": "address"
        },
        {
          "internalType": "contract IMasterVault",
          "name": "initMasterVault",
          "type": "address"
        },
        {
          "internalType": "contract IBNTPool",
          "name": "initBNTPool",
          "type": "address"
        },
        {
          "internalType": "contract IExternalProtectionVault",
          "name": "initExternalProtectionVault",
          "type": "address"
        },
        {
          "internalType": "contract IPoolTokenFactory",
          "name": "initPoolTokenFactory",
          "type": "address"
        },
        {
          "internalType": "contract IPoolMigrator",
          "name": "initPoolMigrator",
          "type": "address"
        },
        {
          "internalType": "uint32",
          "name": "initNetworkFeePPM",
          "type": "uint32"
        }
      ],
      "stateMutability": "nonpayable",
      "type": "constructor"
    },
    {
      "inputs": [],
      "name": "AccessDenied",
      "type": "error"
    },
    {
      "inputs": [],
      "name": "AlreadyEnabled",
      "type": "error"
    },
    {
      "inputs": [],
      "name": "AlreadyExists",
      "type": "error"
    },
    {
      "inputs": [],
      "name": "DepositingDisabled",
      "type": "error"
    },
    {
      "inputs": [],
      "name": "DoesNotExist",
      "type": "error"
    },
    {
      "inputs": [],
      "name": "FundingLimitTooHigh",
      "type": "error"
    },
    {
      "inputs": [],
      "name": "InsufficientLiquidity",
      "type": "error"
    },
    {
      "inputs": [],
      "name": "InsufficientSourceAmount",
      "type": "error"
    },
    {
      "inputs": [],
      "name": "InsufficientTargetAmount",
      "type": "error"
    },
    {
      "inputs": [],
      "name": "InvalidAddress",
      "type": "error"
    },
    {
      "inputs": [],
      "name": "InvalidFee",
      "type": "error"
    },
    {
      "inputs": [],
      "name": "InvalidFraction",
      "type": "error"
    },
    {
      "inputs": [],
      "name": "InvalidParam",
      "type": "error"
    },
    {
      "inputs": [],
      "name": "InvalidRate",
      "type": "error"
    },
    {
      "inputs": [],
      "name": "InvalidStakedBalance",
      "type": "error"
    },
    {
      "inputs": [],
      "name": "NotWhitelisted",
      "type": "error"
    },
    {
      "inputs": [],
      "name": "Overflow",
      "type": "error"
    },
    {
      "inputs": [],
      "name": "PoolCollectionWithdrawalInputInvalid",
      "type": "error"
    },
    {
      "inputs": [],
      "name": "RateUnstable",
      "type": "error"
    },
    {
      "inputs": [],
      "name": "SameOwner",
      "type": "error"
    },
    {
      "inputs": [],
      "name": "TradingDisabled",
      "type": "error"
    },
    {
      "inputs": [],
      "name": "ZeroValue",
      "type": "error"
    },
    {
      "anonymous": false,
      "inputs": [
        {
          "indexed": false,
          "internalType": "uint32",
          "name": "prevFeePPM",
          "type": "uint32"
        },
        {
          "indexed": false,
          "internalType": "uint32",
          "name": "newFeePPM",
          "type": "uint32"
        }
      ],
      "name": "DefaultTradingFeePPMUpdated",
      "type": "event"
    },
    {
      "anonymous": false,
      "inputs": [
        {
          "indexed": true,
          "internalType": "contract Token",
          "name": "pool",
          "type": "address"
        },
        {
          "indexed": true,
          "internalType": "bool",
          "name": "newStatus",
          "type": "bool"
        }
      ],
      "name": "DepositingEnabled",
      "type": "event"
    },
    {
      "anonymous": false,
      "inputs": [
        {
          "indexed": true,
          "internalType": "address",
          "name": "prevOwner",
          "type": "address"
        },
        {
          "indexed": true,
          "internalType": "address",
          "name": "newOwner",
          "type": "address"
        }
      ],
      "name": "OwnerUpdate",
      "type": "event"
    },
    {
      "anonymous": false,
      "inputs": [
        {
          "indexed": true,
          "internalType": "bytes32",
          "name": "contextId",
          "type": "bytes32"
        },
        {
          "indexed": true,
          "internalType": "address",
          "name": "provider",
          "type": "address"
        },
        {
          "indexed": true,
          "internalType": "contract Token",
          "name": "token",
          "type": "address"
        },
        {
          "indexed": false,
          "internalType": "uint256",
          "name": "baseTokenAmount",
          "type": "uint256"
        },
        {
          "indexed": false,
          "internalType": "uint256",
          "name": "poolTokenAmount",
          "type": "uint256"
        }
      ],
      "name": "TokensDeposited",
      "type": "event"
    },
    {
      "anonymous": false,
      "inputs": [
        {
          "indexed": true,
          "internalType": "bytes32",
          "name": "contextId",
          "type": "bytes32"
        },
        {
          "indexed": true,
          "internalType": "address",
          "name": "provider",
          "type": "address"
        },
        {
          "indexed": true,
          "internalType": "contract Token",
          "name": "token",
          "type": "address"
        },
        {
          "indexed": false,
          "internalType": "uint256",
          "name": "baseTokenAmount",
          "type": "uint256"
        },
        {
          "indexed": false,
          "internalType": "uint256",
          "name": "poolTokenAmount",
          "type": "uint256"
        },
        {
          "indexed": false,
          "internalType": "uint256",
          "name": "externalProtectionBaseTokenAmount",
          "type": "uint256"
        },
        {
          "indexed": false,
          "internalType": "uint256",
          "name": "bntAmount",
          "type": "uint256"
        },
        {
          "indexed": false,
          "internalType": "uint256",
          "name": "withdrawalFeeAmount",
          "type": "uint256"
        }
      ],
      "name": "TokensWithdrawn",
      "type": "event"
    },
    {
      "anonymous": false,
      "inputs": [
        {
          "indexed": true,
          "internalType": "bytes32",
          "name": "contextId",
          "type": "bytes32"
        },
        {
          "indexed": true,
          "internalType": "contract Token",
          "name": "pool",
          "type": "address"
        },
        {
          "indexed": false,
          "internalType": "uint256",
          "name": "liquidity",
          "type": "uint256"
        },
        {
          "indexed": false,
          "internalType": "uint256",
          "name": "stakedBalance",
          "type": "uint256"
        },
        {
          "indexed": false,
          "internalType": "uint256",
          "name": "poolTokenSupply",
          "type": "uint256"
        }
      ],
      "name": "TotalLiquidityUpdated",
      "type": "event"
    },
    {
      "anonymous": false,
      "inputs": [
        {
          "indexed": true,
          "internalType": "contract Token",
          "name": "pool",
          "type": "address"
        },
        {
          "indexed": true,
          "internalType": "bool",
          "name": "newStatus",
          "type": "bool"
        },
        {
          "indexed": true,
          "internalType": "uint8",
          "name": "reason",
          "type": "uint8"
        }
      ],
      "name": "TradingEnabled",
      "type": "event"
    },
    {
      "anonymous": false,
      "inputs": [
        {
          "indexed": true,
          "internalType": "contract Token",
          "name": "pool",
          "type": "address"
        },
        {
          "indexed": false,
          "internalType": "uint32",
          "name": "prevFeePPM",
          "type": "uint32"
        },
        {
          "indexed": false,
          "internalType": "uint32",
          "name": "newFeePPM",
          "type": "uint32"
        }
      ],
      "name": "TradingFeePPMUpdated",
      "type": "event"
    },
    {
      "anonymous": false,
      "inputs": [
        {
          "indexed": true,
          "internalType": "bytes32",
          "name": "contextId",
          "type": "bytes32"
        },
        {
          "indexed": true,
          "internalType": "contract Token",
          "name": "pool",
          "type": "address"
        },
        {
          "indexed": true,
          "internalType": "contract Token",
          "name": "token",
          "type": "address"
        },
        {
          "indexed": false,
          "internalType": "uint256",
          "name": "prevLiquidity",
          "type": "uint256"
        },
        {
          "indexed": false,
          "internalType": "uint256",
          "name": "newLiquidity",
          "type": "uint256"
        }
      ],
      "name": "TradingLiquidityUpdated",
      "type": "event"
    },
    {
      "inputs": [],
      "name": "acceptOwnership",
      "outputs": [],
      "stateMutability": "nonpayable",
      "type": "function"
    },
    {
      "inputs": [
        {
          "internalType": "contract Token",
          "name": "token",
          "type": "address"
        }
      ],
      "name": "createPool",
      "outputs": [],
      "stateMutability": "nonpayable",
      "type": "function"
    },
    {
      "inputs": [],
      "name": "defaultTradingFeePPM",
      "outputs": [
        {
          "internalType": "uint32",
          "name": "",
          "type": "uint32"
        }
      ],
      "stateMutability": "view",
      "type": "function"
    },
    {
      "inputs": [
        {
          "internalType": "bytes32",
          "name": "contextId",
          "type": "bytes32"
        },
        {
          "internalType": "address",
          "name": "provider",
          "type": "address"
        },
        {
          "internalType": "contract Token",
          "name": "pool",
          "type": "address"
        },
        {
          "internalType": "uint256",
          "name": "baseTokenAmount",
          "type": "uint256"
        }
      ],
      "name": "depositFor",
      "outputs": [
        {
          "internalType": "uint256",
          "name": "",
          "type": "uint256"
        }
      ],
      "stateMutability": "nonpayable",
      "type": "function"
    },
    {
      "inputs": [
        {
          "internalType": "contract Token",
          "name": "pool",
          "type": "address"
        }
      ],
      "name": "depositingEnabled",
      "outputs": [
        {
          "internalType": "bool",
          "name": "",
          "type": "bool"
        }
      ],
      "stateMutability": "view",
      "type": "function"
    },
    {
      "inputs": [
        {
          "internalType": "contract Token",
          "name": "pool",
          "type": "address"
        }
      ],
      "name": "disableTrading",
      "outputs": [],
      "stateMutability": "nonpayable",
      "type": "function"
    },
    {
      "inputs": [
        {
          "internalType": "contract Token",
          "name": "pool",
          "type": "address"
        },
        {
          "internalType": "bool",
          "name": "status",
          "type": "bool"
        }
      ],
      "name": "enableDepositing",
      "outputs": [],
      "stateMutability": "nonpayable",
      "type": "function"
    },
    {
      "inputs": [
        {
          "internalType": "bool",
          "name": "status",
          "type": "bool"
        }
      ],
      "name": "enableProtection",
      "outputs": [],
      "stateMutability": "nonpayable",
      "type": "function"
    },
    {
      "inputs": [
        {
          "internalType": "contract Token",
          "name": "pool",
          "type": "address"
        },
        {
          "internalType": "uint256",
          "name": "bntVirtualBalance",
          "type": "uint256"
        },
        {
          "internalType": "uint256",
          "name": "baseTokenVirtualBalance",
          "type": "uint256"
        }
      ],
      "name": "enableTrading",
      "outputs": [],
      "stateMutability": "nonpayable",
      "type": "function"
    },
    {
      "inputs": [
        {
          "internalType": "contract Token",
          "name": "pool",
          "type": "address"
        }
      ],
      "name": "isPoolStable",
      "outputs": [
        {
          "internalType": "bool",
          "name": "",
          "type": "bool"
        }
      ],
      "stateMutability": "view",
      "type": "function"
    },
    {
      "inputs": [
        {
          "internalType": "contract Token",
          "name": "pool",
          "type": "address"
        }
      ],
      "name": "isPoolValid",
      "outputs": [
        {
          "internalType": "bool",
          "name": "",
          "type": "bool"
        }
      ],
      "stateMutability": "view",
      "type": "function"
    },
    {
      "inputs": [
        {
          "internalType": "contract Token",
          "name": "pool",
          "type": "address"
        },
        {
          "components": [
            {
              "internalType": "contract IPoolToken",
              "name": "poolToken",
              "type": "address"
            },
            {
              "internalType": "uint32",
              "name": "tradingFeePPM",
              "type": "uint32"
            },
            {
              "internalType": "bool",
              "name": "tradingEnabled",
              "type": "bool"
            },
            {
              "internalType": "bool",
              "name": "depositingEnabled",
              "type": "bool"
            },
            {
              "components": [
                {
                  "internalType": "uint32",
                  "name": "blockNumber",
                  "type": "uint32"
                },
                {
                  "components": [
                    {
                      "internalType": "uint112",
                      "name": "n",
                      "type": "uint112"
                    },
                    {
                      "internalType": "uint112",
                      "name": "d",
                      "type": "uint112"
                    }
                  ],
                  "internalType": "struct Fraction112",
                  "name": "rate",
                  "type": "tuple"
                },
                {
                  "components": [
                    {
                      "internalType": "uint112",
                      "name": "n",
                      "type": "uint112"
                    },
                    {
                      "internalType": "uint112",
                      "name": "d",
                      "type": "uint112"
                    }
                  ],
                  "internalType": "struct Fraction112",
                  "name": "invRate",
                  "type": "tuple"
                }
              ],
              "internalType": "struct AverageRates",
              "name": "averageRates",
              "type": "tuple"
            },
            {
              "components": [
                {
                  "internalType": "uint128",
                  "name": "bntTradingLiquidity",
                  "type": "uint128"
                },
                {
                  "internalType": "uint128",
                  "name": "baseTokenTradingLiquidity",
                  "type": "uint128"
                },
                {
                  "internalType": "uint256",
                  "name": "stakedBalance",
                  "type": "uint256"
                }
              ],
              "internalType": "struct PoolLiquidity",
              "name": "liquidity",
              "type": "tuple"
            }
          ],
          "internalType": "struct Pool",
          "name": "data",
          "type": "tuple"
        }
      ],
      "name": "migratePoolIn",
      "outputs": [],
      "stateMutability": "nonpayable",
      "type": "function"
    },
    {
      "inputs": [
        {
          "internalType": "contract Token",
          "name": "pool",
          "type": "address"
        },
        {
          "internalType": "contract IPoolCollection",
          "name": "targetPoolCollection",
          "type": "address"
        }
      ],
      "name": "migratePoolOut",
      "outputs": [],
      "stateMutability": "nonpayable",
      "type": "function"
    },
    {
      "inputs": [],
      "name": "networkFeePPM",
      "outputs": [
        {
          "internalType": "uint32",
          "name": "",
          "type": "uint32"
        }
      ],
      "stateMutability": "view",
      "type": "function"
    },
    {
      "inputs": [],
      "name": "newOwner",
      "outputs": [
        {
          "internalType": "address",
          "name": "",
          "type": "address"
        }
      ],
      "stateMutability": "view",
      "type": "function"
    },
    {
      "inputs": [
        {
          "internalType": "contract Token",
          "name": "pool",
          "type": "address"
        },
        {
          "internalType": "uint256",
          "name": "feeAmount",
          "type": "uint256"
        }
      ],
      "name": "onFeesCollected",
      "outputs": [],
      "stateMutability": "nonpayable",
      "type": "function"
    },
    {
      "inputs": [],
      "name": "owner",
      "outputs": [
        {
          "internalType": "address",
          "name": "",
          "type": "address"
        }
      ],
      "stateMutability": "view",
      "type": "function"
    },
    {
      "inputs": [],
      "name": "poolCount",
      "outputs": [
        {
          "internalType": "uint256",
          "name": "",
          "type": "uint256"
        }
      ],
      "stateMutability": "view",
      "type": "function"
    },
    {
      "inputs": [
        {
          "internalType": "contract Token",
          "name": "pool",
          "type": "address"
        }
      ],
      "name": "poolData",
      "outputs": [
        {
          "components": [
            {
              "internalType": "contract IPoolToken",
              "name": "poolToken",
              "type": "address"
            },
            {
              "internalType": "uint32",
              "name": "tradingFeePPM",
              "type": "uint32"
            },
            {
              "internalType": "bool",
              "name": "tradingEnabled",
              "type": "bool"
            },
            {
              "internalType": "bool",
              "name": "depositingEnabled",
              "type": "bool"
            },
            {
              "components": [
                {
                  "internalType": "uint32",
                  "name": "blockNumber",
                  "type": "uint32"
                },
                {
                  "components": [
                    {
                      "internalType": "uint112",
                      "name": "n",
                      "type": "uint112"
                    },
                    {
                      "internalType": "uint112",
                      "name": "d",
                      "type": "uint112"
                    }
                  ],
                  "internalType": "struct Fraction112",
                  "name": "rate",
                  "type": "tuple"
                },
                {
                  "components": [
                    {
                      "internalType": "uint112",
                      "name": "n",
                      "type": "uint112"
                    },
                    {
                      "internalType": "uint112",
                      "name": "d",
                      "type": "uint112"
                    }
                  ],
                  "internalType": "struct Fraction112",
                  "name": "invRate",
                  "type": "tuple"
                }
              ],
              "internalType": "struct AverageRates",
              "name": "averageRates",
              "type": "tuple"
            },
            {
              "components": [
                {
                  "internalType": "uint128",
                  "name": "bntTradingLiquidity",
                  "type": "uint128"
                },
                {
                  "internalType": "uint128",
                  "name": "baseTokenTradingLiquidity",
                  "type": "uint128"
                },
                {
                  "internalType": "uint256",
                  "name": "stakedBalance",
                  "type": "uint256"
                }
              ],
              "internalType": "struct PoolLiquidity",
              "name": "liquidity",
              "type": "tuple"
            }
          ],
          "internalType": "struct Pool",
          "name": "",
          "type": "tuple"
        }
      ],
      "stateMutability": "view",
      "type": "function"
    },
    {
      "inputs": [
        {
          "internalType": "contract Token",
          "name": "pool",
          "type": "address"
        }
      ],
      "name": "poolLiquidity",
      "outputs": [
        {
          "components": [
            {
              "internalType": "uint128",
              "name": "bntTradingLiquidity",
              "type": "uint128"
            },
            {
              "internalType": "uint128",
              "name": "baseTokenTradingLiquidity",
              "type": "uint128"
            },
            {
              "internalType": "uint256",
              "name": "stakedBalance",
              "type": "uint256"
            }
          ],
          "internalType": "struct PoolLiquidity",
          "name": "",
          "type": "tuple"
        }
      ],
      "stateMutability": "view",
      "type": "function"
    },
    {
      "inputs": [
        {
          "internalType": "contract Token",
          "name": "pool",
          "type": "address"
        }
      ],
      "name": "poolToken",
      "outputs": [
        {
          "internalType": "contract IPoolToken",
          "name": "",
          "type": "address"
        }
      ],
      "stateMutability": "view",
      "type": "function"
    },
    {
      "inputs": [
        {
          "internalType": "contract Token",
          "name": "pool",
          "type": "address"
        },
        {
          "internalType": "uint256",
          "name": "baseTokenAmountToDistribute",
          "type": "uint256"
        },
        {
          "internalType": "uint256",
          "name": "protocolPoolTokenAmount",
          "type": "uint256"
        }
      ],
      "name": "poolTokenAmountToBurn",
      "outputs": [
        {
          "internalType": "uint256",
          "name": "",
          "type": "uint256"
        }
      ],
      "stateMutability": "view",
      "type": "function"
    },
    {
      "inputs": [
        {
          "internalType": "contract Token",
          "name": "pool",
          "type": "address"
        },
        {
          "internalType": "uint256",
          "name": "poolTokenAmount",
          "type": "uint256"
        }
      ],
      "name": "poolTokenToUnderlying",
      "outputs": [
        {
          "internalType": "uint256",
          "name": "",
          "type": "uint256"
        }
      ],
      "stateMutability": "view",
      "type": "function"
    },
    {
      "inputs": [],
      "name": "poolType",
      "outputs": [
        {
          "internalType": "uint16",
          "name": "",
          "type": "uint16"
        }
      ],
      "stateMutability": "view",
      "type": "function"
    },
    {
      "inputs": [],
      "name": "pools",
      "outputs": [
        {
          "internalType": "contract Token[]",
          "name": "",
          "type": "address[]"
        }
      ],
      "stateMutability": "view",
      "type": "function"
    },
    {
      "inputs": [],
      "name": "protectionEnabled",
      "outputs": [
        {
          "internalType": "bool",
          "name": "",
          "type": "bool"
        }
      ],
      "stateMutability": "view",
      "type": "function"
    },
    {
      "inputs": [
        {
          "internalType": "uint32",
          "name": "newDefaultTradingFeePPM",
          "type": "uint32"
        }
      ],
      "name": "setDefaultTradingFeePPM",
      "outputs": [],
      "stateMutability": "nonpayable",
      "type": "function"
    },
    {
      "inputs": [
        {
          "internalType": "contract Token",
          "name": "pool",
          "type": "address"
        },
        {
          "internalType": "uint32",
          "name": "newTradingFeePPM",
          "type": "uint32"
        }
      ],
      "name": "setTradingFeePPM",
      "outputs": [],
      "stateMutability": "nonpayable",
      "type": "function"
    },
    {
      "inputs": [
        {
          "internalType": "bytes32",
          "name": "contextId",
          "type": "bytes32"
        },
        {
          "internalType": "contract Token",
          "name": "sourceToken",
          "type": "address"
        },
        {
          "internalType": "contract Token",
          "name": "targetToken",
          "type": "address"
        },
        {
          "internalType": "uint256",
          "name": "sourceAmount",
          "type": "uint256"
        },
        {
          "internalType": "uint256",
          "name": "minReturnAmount",
          "type": "uint256"
        }
      ],
      "name": "tradeBySourceAmount",
      "outputs": [
        {
          "components": [
            {
              "internalType": "uint256",
              "name": "amount",
              "type": "uint256"
            },
            {
              "internalType": "uint256",
              "name": "tradingFeeAmount",
              "type": "uint256"
            },
            {
              "internalType": "uint256",
              "name": "networkFeeAmount",
              "type": "uint256"
            }
          ],
          "internalType": "struct TradeAmountAndFee",
          "name": "",
          "type": "tuple"
        }
      ],
      "stateMutability": "nonpayable",
      "type": "function"
    },
    {
      "inputs": [
        {
          "internalType": "bytes32",
          "name": "contextId",
          "type": "bytes32"
        },
        {
          "internalType": "contract Token",
          "name": "sourceToken",
          "type": "address"
        },
        {
          "internalType": "contract Token",
          "name": "targetToken",
          "type": "address"
        },
        {
          "internalType": "uint256",
          "name": "targetAmount",
          "type": "uint256"
        },
        {
          "internalType": "uint256",
          "name": "maxSourceAmount",
          "type": "uint256"
        }
      ],
      "name": "tradeByTargetAmount",
      "outputs": [
        {
          "components": [
            {
              "internalType": "uint256",
              "name": "amount",
              "type": "uint256"
            },
            {
              "internalType": "uint256",
              "name": "tradingFeeAmount",
              "type": "uint256"
            },
            {
              "internalType": "uint256",
              "name": "networkFeeAmount",
              "type": "uint256"
            }
          ],
          "internalType": "struct TradeAmountAndFee",
          "name": "",
          "type": "tuple"
        }
      ],
      "stateMutability": "nonpayable",
      "type": "function"
    },
    {
      "inputs": [
        {
          "internalType": "contract Token",
          "name": "sourceToken",
          "type": "address"
        },
        {
          "internalType": "contract Token",
          "name": "targetToken",
          "type": "address"
        },
        {
          "internalType": "uint256",
          "name": "targetAmount",
          "type": "uint256"
        }
      ],
      "name": "tradeInputAndFeeByTargetAmount",
      "outputs": [
        {
          "components": [
            {
              "internalType": "uint256",
              "name": "amount",
              "type": "uint256"
            },
            {
              "internalType": "uint256",
              "name": "tradingFeeAmount",
              "type": "uint256"
            },
            {
              "internalType": "uint256",
              "name": "networkFeeAmount",
              "type": "uint256"
            }
          ],
          "internalType": "struct TradeAmountAndFee",
          "name": "",
          "type": "tuple"
        }
      ],
      "stateMutability": "view",
      "type": "function"
    },
    {
      "inputs": [
        {
          "internalType": "contract Token",
          "name": "sourceToken",
          "type": "address"
        },
        {
          "internalType": "contract Token",
          "name": "targetToken",
          "type": "address"
        },
        {
          "internalType": "uint256",
          "name": "sourceAmount",
          "type": "uint256"
        }
      ],
      "name": "tradeOutputAndFeeBySourceAmount",
      "outputs": [
        {
          "components": [
            {
              "internalType": "uint256",
              "name": "amount",
              "type": "uint256"
            },
            {
              "internalType": "uint256",
              "name": "tradingFeeAmount",
              "type": "uint256"
            },
            {
              "internalType": "uint256",
              "name": "networkFeeAmount",
              "type": "uint256"
            }
          ],
          "internalType": "struct TradeAmountAndFee",
          "name": "",
          "type": "tuple"
        }
      ],
      "stateMutability": "view",
      "type": "function"
    },
    {
      "inputs": [
        {
          "internalType": "contract Token",
          "name": "pool",
          "type": "address"
        }
      ],
      "name": "tradingEnabled",
      "outputs": [
        {
          "internalType": "bool",
          "name": "",
          "type": "bool"
        }
      ],
      "stateMutability": "view",
      "type": "function"
    },
    {
      "inputs": [
        {
          "internalType": "contract Token",
          "name": "pool",
          "type": "address"
        }
      ],
      "name": "tradingFeePPM",
      "outputs": [
        {
          "internalType": "uint32",
          "name": "",
          "type": "uint32"
        }
      ],
      "stateMutability": "view",
      "type": "function"
    },
    {
      "inputs": [
        {
          "internalType": "address",
          "name": "ownerCandidate",
          "type": "address"
        }
      ],
      "name": "transferOwnership",
      "outputs": [],
      "stateMutability": "nonpayable",
      "type": "function"
    },
    {
      "inputs": [
        {
          "internalType": "contract Token",
          "name": "pool",
          "type": "address"
        },
        {
          "internalType": "uint256",
          "name": "baseTokenAmount",
          "type": "uint256"
        }
      ],
      "name": "underlyingToPoolToken",
      "outputs": [
        {
          "internalType": "uint256",
          "name": "",
          "type": "uint256"
        }
      ],
      "stateMutability": "view",
      "type": "function"
    },
    {
      "inputs": [],
      "name": "version",
      "outputs": [
        {
          "internalType": "uint16",
          "name": "",
          "type": "uint16"
        }
      ],
      "stateMutability": "view",
      "type": "function"
    },
    {
      "inputs": [
        {
          "internalType": "bytes32",
          "name": "contextId",
          "type": "bytes32"
        },
        {
          "internalType": "address",
          "name": "provider",
          "type": "address"
        },
        {
          "internalType": "contract Token",
          "name": "pool",
          "type": "address"
        },
        {
          "internalType": "uint256",
          "name": "poolTokenAmount",
          "type": "uint256"
        },
        {
          "internalType": "uint256",
          "name": "baseTokenAmount",
          "type": "uint256"
        }
      ],
      "name": "withdraw",
      "outputs": [
        {
          "internalType": "uint256",
          "name": "",
          "type": "uint256"
        }
      ],
      "stateMutability": "nonpayable",
      "type": "function"
    },
    {
      "inputs": [
        {
          "internalType": "contract Token",
          "name": "pool",
          "type": "address"
        },
        {
          "internalType": "uint256",
          "name": "poolTokenAmount",
          "type": "uint256"
        }
      ],
      "name": "withdrawalAmounts",
      "outputs": [
        {
          "components": [
            {
              "internalType": "uint256",
              "name": "totalAmount",
              "type": "uint256"
            },
            {
              "internalType": "uint256",
              "name": "baseTokenAmount",
              "type": "uint256"
            },
            {
              "internalType": "uint256",
              "name": "bntAmount",
              "type": "uint256"
            }
          ],
          "internalType": "struct WithdrawalAmounts",
          "name": "",
          "type": "tuple"
        }
      ],
      "stateMutability": "view",
      "type": "function"
    }
  ],
  "transactionHash": "0xebcf66aed7de8d2ba9761fa461df10bf48906c9f21da26adb25a21e65b6cd71b",
  "args": [
    "0xeEF417e1D5CC832e619ae18D2F140De2999dD4fB",
    "0x1F573D6Fb3F13d689FF844B4cE37794d79a7FF1C",
    "0x83E1814ba31F7ea95D216204BB45FE75Ce09b14F",
    "0x649765821D9f64198c905eC0B2B037a4a52Bc373",
    "0x02651E355D26f3506C1E644bA393FDD9Ac95EaCa",
    "0xFd31662b3d54eddE9B6Bdd32c9c27C8E292cAD57",
    "0x9E912953DB31fE933BDa43374208E967058D9d5F",
    "0x97CeC0F2D355BF073619A5093F989709caE4a191",
    150000
  ],
  "numDeployments": 1,
  "solcInputHash": "f07a18391b227db772e627d1d5a370c5",
  "bytecode": "0x6101a06040526005805460ff60201b19166401000000001790553480156200002657600080fd5b5060405162005eb238038062005eb2833981016040819052620000499162000251565b620000543362000119565b6200005f8962000173565b6200006a8862000173565b620000758762000173565b620000808662000173565b6200008b8562000173565b620000968462000173565b620000a18362000173565b620000ac8262000173565b620000b7816200019e565b6001600160a01b03808a1660805288811660a05287811660c05286811660e05285811661010052848116610120528381166101405282166101605263ffffffff8116610180526200010a6107d0620001c9565b50505050505050505062000330565b600080546001600160a01b038381166001600160a01b031980841682178555600180549091169055604051919092169283917f343765429aea5a34b3ff6a3785a98a5abb2597aca87bfbb58632c173d585373a9190a35050565b6001600160a01b0381166200019b5760405163e6c4247b60e01b815260040160405180910390fd5b50565b620f424063ffffffff821611156200019b576040516358d620b360e01b815260040160405180910390fd5b60055463ffffffff9081169082168103620001e2575050565b6005805463ffffffff191663ffffffff84811691821790925560408051928416835260208301919091527fb804b0ec3f0ea43004870df377170ce44cb789adca16d23286e337605558117f910160405180910390a15050565b6001600160a01b03811681146200019b57600080fd5b60008060008060008060008060006101208a8c0312156200027157600080fd5b89516200027e816200023b565b60208b015190995062000291816200023b565b60408b0151909850620002a4816200023b565b60608b0151909750620002b7816200023b565b60808b0151909650620002ca816200023b565b60a08b0151909550620002dd816200023b565b60c08b0151909450620002f0816200023b565b60e08b015190935062000303816200023b565b6101008b015190925063ffffffff811681146200031f57600080fd5b809150509295985092959850929598565b60805160a05160c05160e0516101005161012051610140516101605161018051615a5b62000457600039600081816103ea0152818161429501526142d00152600081816114ab0152611cab01526000611259015260008181612b68015261314d015260008181612024015281816120f2015281816121c401528181612eb501528181612f4f01528181612fa3015281816130900152614136015260008181611f3601528181612b0c01528181612fd00152818161311d015281816131fd0152613a120152600081816108b3015281816111af015281816119c401528181612ba801526132ea01526000818161266301526143d10152600081816107a101528181610c0f01528181610e3101528181611168015281816117190152611b690152615a5b6000f3fe608060405234801561001057600080fd5b506004361061023d5760003560e01c80639049f9d21161013b578063bedf9525116100b8578063ee4808fe1161007c578063ee4808fe1461061c578063f2fde38b1461062f578063f525cb6814610642578063f6c578611461064a578063fba8cdee1461067857600080fd5b8063bedf95251461057d578063c2cf4252146105b0578063c5c51dca146105e3578063d3df2424146105f8578063d4ee1d901461060b57600080fd5b80639f5c734b116100ff5780639f5c734b146104bf5780639fc19231146104d2578063a135ef17146104e0578063b1dd61b614610563578063b7fafb7a1461056a57600080fd5b80639049f9d214610460578063915b9941146104735780639181d2e314610486578063921a929e146104995780639dad4613146104ac57600080fd5b8063541868c8116101c957806372d960e11161018d57806372d960e11461040e5780637516baec1461042157806379ba509714610434578063814175851461043c5780638da5cb5b1461044f57600080fd5b8063541868c81461036857806354fd4d501461037b57806356aca36f146103915780635768adcf146103a45780636161b626146103e857600080fd5b8063279105651161021057806327910565146102b657806330cdb308146102c957806334afba2b146103145780634ceea7531461033457806352c8f9901461035557600080fd5b8063136efb7a146102425780631510748b1461026b5780631c754cae146102805780632258cc6914610293575b600080fd5b61025561025036600461522a565b61068b565b6040516102629190615247565b60405180910390f35b61027e61027936600461530d565b61079f565b005b61027e61028e366004615339565b6107ff565b6102a66102a136600461522a565b610a77565b6040519015158152602001610262565b61027e6102c436600461522a565b610ab4565b6102ff6102d736600461522a565b6001600160a01b0316600090815260026020526040902054600160a01b900463ffffffff1690565b60405163ffffffff9091168152602001610262565b61032761032236600461536e565b610adb565b60405161026291906153af565b61034761034236600461530d565b610b50565b604051908152602001610262565b6103276103633660046153d0565b610be9565b61032761037636600461530d565b610c9d565b60075b60405161ffff9091168152602001610262565b61034761039f3660046153d0565b610e2d565b6103d06103b236600461522a565b6001600160a01b039081166000908152600260205260409020541690565b6040516001600160a01b039091168152602001610262565b7f00000000000000000000000000000000000000000000000000000000000000006102ff565b61032761041c36600461536e565b611023565b600554640100000000900460ff166102a6565b61027e61109f565b61027e61044a366004615430565b6110e1565b6000546001600160a01b03166103d0565b61027e61046e36600461522a565b611166565b61027e610481366004615469565b61149f565b61027e6104943660046154be565b611550565b6103476104a7366004615339565b611601565b61027e6104ba3660046154ec565b6116d7565b6103476104cd366004615509565b611715565b60055463ffffffff166102ff565b6105566104ee36600461522a565b6040805160608082018352600080835260208084018290529284018190526001600160a01b0394909416845260028252928290208251938401835260048101546001600160801b038082168652600160801b9091041691840191909152600501549082015290565b6040516102629190615551565b600161037e565b6103276105783660046153d0565b611b43565b6102a661058b36600461522a565b6001600160a01b0316600090815260026020526040902054600160c01b900460ff1690565b6102a66105be36600461522a565b6001600160a01b0316600090815260026020526040902054600160c81b900460ff1690565b6105eb611bef565b6040516102629190615580565b61027e6106063660046155cd565b611c9f565b6001546001600160a01b03166103d0565b61034761062a36600461530d565b611d5a565b61027e61063d36600461522a565b611de9565b610347611e42565b6102a661065836600461522a565b6001600160a01b0390811660009081526002602052604090205416151590565b61027e6106863660046155fb565b611e53565b610693615045565b506001600160a01b03908116600090815260026020818152604092839020835160c0810185528154958616815263ffffffff600160a01b870481168285015260ff600160c01b88048116151583880152600160c81b9097049096161515606080830191909152855180820187526001840154909716875285518087018752948301546001600160701b038082168752600160701b9182900481168787015288860196909652865180880188526003850154808816825291909104909516858501528686019490945260808101959095528351928301845260048101546001600160801b038082168552600160801b9091041691830191909152600501549181019190915260a082015290565b7f00000000000000000000000000000000000000000000000000000000000000006107c981611e6e565b81156107fa5760006107da84611e97565b9050828160040160010160008282546107f3919061562e565b9091555050505b505050565b610807611ed4565b604080518082019091528281526020810182905261082481611eff565b600061082f85611e97565b8054909150600160c01b900460ff161561085c57604051637952fbad60e11b815260040160405180910390fd5b6040516bffffffffffffffffffffffff1933606090811b8216602084015287901b166034820152604881018590526068810184905260009060880160405160208183030381529060405280519060200120905060007f00000000000000000000000000000000000000000000000000000000000000006001600160a01b03166387ba006a6040518163ffffffff1660e01b8152600401602060405180830381865afa15801561090f573d6000803e3d6000fd5b505050506040513d601f19601f820116820180604052508101906109339190615646565b90506109428288858785611f25565b60048301546001600160801b03168111156109705760405163bb55fd2760e01b815260040160405180910390fd5b600061097b85612369565b9050604051806060016040528061098f4390565b63ffffffff1681526020018281526020016109a9836123c9565b905280516001868101805463ffffffff191663ffffffff909316929092179091556020808301518051600289018054928401516001600160701b039283166001600160e01b031994851617600160701b918416820217909155604095860151805160038c0180549290960151908416919094161792909116021790558554600160c01b60ff60c01b19909116178655905181906001600160a01b038b16907f162ed187f3ed3879ae360c5df2a0a5dcaac7a208a9d762c2cbbfb1f5fad8b81d90600090a45050505050505050565b6001600160a01b0381166000908152600260208190526040822090610a9b82612423565b6002811115610aac57610aac61565f565b149392505050565b610abc611ed4565b6000610ac782611e97565b9050610ad7600083836001612590565b5050565b610aff60405180606001604052806000815260200160008152602001600081525090565b81610b09816125b4565b6000610b1b81878787600019846125d5565b9050610b2681612813565b60408051606080820183528351825283015160208201526080909201519082015295945050505050565b6001600160a01b038083166000908152600260209081526040808320805482516318160ddd60e01b8152925194959194610bdf94889492909316926318160ddd92600480820193918290030181865afa158015610bb1573d6000803e3d6000fd5b505050506040513d601f19601f82011682018060405250810190610bd59190615646565b600584015461293e565b9150505b92915050565b610c0d60405180606001604052806000815260200160008152602001600081525090565b7f0000000000000000000000000000000000000000000000000000000000000000610c3781611e6e565b83610c41816125b4565b83610c4b816125b4565b6000610c5c8a8a8a8a8a60016125d5565b9050610c6781612981565b60405180606001604052808260200151815260200182606001518152602001826080015181525094505050505095945050505050565b610cc160405180606001604052806000815260200160008152602001600081525090565b82610ccb81612abd565b82610cd5816125b4565b6001600160a01b03808616600090815260026020908152604080832081516060810183526004808301546001600160801b038082168452600160801b9091041682860152600583015482850152825484516318160ddd60e01b8152945193979296959216936318160ddd93818301939290918290030181865afa158015610d60573d6000803e3d6000fd5b505050506040513d601f19601f82011682018060405250810190610d849190615646565b90506000610d978883856040015161293e565b90506000610dbd8a8a84878960000160149054906101000a900463ffffffff1688612ae4565b905060405180606001604052808260c001518360e00151610dde9190615675565b815260200182604001518360000151610df7919061562e565b8152602001600560049054906101000a900460ff16610e17576000610e1d565b82602001515b90529a9950505050505050505050565b60007f0000000000000000000000000000000000000000000000000000000000000000610e5981611e6e565b85610e6381612abd565b84610e6d816125b4565b84610e77816125b4565b6000610e8289611e97565b604080516060810182526004808401546001600160801b038082168452600160801b90910416602080840191909152600585015483850152845484516318160ddd60e01b8152945195965092946000946001600160a01b03909416936318160ddd938181019392918290030181865afa158015610f03573d6000803e3d6000fd5b505050506040513d601f19601f82011682018060405250810190610f279190615646565b90506000610f3a8b83856040015161293e565b9050808a1115610f5d57604051633494a40d60e21b815260040160405180910390fd5b6001610f6885612423565b6002811115610f7957610f7961565f565b03610f97576040516301a6272960e41b815260040160405180910390fd5b6000610fbb8d8d8d878960000160149054906101000a900463ffffffff1688612ae4565b9050610fca8f8f8f8885612d3e565b8454600160c01b900460ff1615611010576040805180820190915260048601546001600160801b038082168352600160801b909104166020820152611010908690613458565b519e9d5050505050505050505050505050565b61104760405180606001604052806000815260200160008152602001600081525090565b81611051816125b4565b6000611062818787876001806125d5565b905061106d81612813565b604051806060016040528082602001518152602001826060015181526020018260800151815250925050509392505050565b6001546001600160a01b031633146110ca57604051634ca8886760e01b815260040160405180910390fd5b6001546110df906001600160a01b0316613552565b565b6110e9611ed4565b60006110f483611e97565b8054909150821515600160c81b90910460ff1615150361111357505050565b805460ff60c81b1916600160c81b8315159081029190911782556040516001600160a01b038516907fa606e6917bc476eb72d24f486596af7f564fb7b50f73135c81c0e8e0553430cd90600090a3505050565b7f000000000000000000000000000000000000000000000000000000000000000061119081611e6e565b60405163b5af090f60e01b81526001600160a01b0383811660048301527f0000000000000000000000000000000000000000000000000000000000000000169063b5af090f90602401602060405180830381865afa1580156111f6573d6000803e3d6000fd5b505050506040513d601f19601f8201168201806040525081019061121a919061568c565b61123757604051630b094f2760e31b815260040160405180910390fd5b604051632b625f2360e01b81526001600160a01b0383811660048301526000917f000000000000000000000000000000000000000000000000000000000000000090911690632b625f23906024016020604051808303816000875af11580156112a4573d6000803e3d6000fd5b505050506040513d601f19601f820116820180604052508101906112c891906156a9565b9050806001600160a01b03166379ba50976040518163ffffffff1660e01b8152600401600060405180830381600087803b15801561130557600080fd5b505af1158015611319573d6000803e3d6000fd5b5050505060006040518060c00160405280836001600160a01b03168152602001600560009054906101000a900463ffffffff1663ffffffff1681526020016000151581526020016001151581526020016040518060600160405280600063ffffffff1681526020016113896135ac565b81526020016113966135ac565b9052815260408051606081018252600080825260208281018290529282015291015290506113c484826135d5565b60408082015190516000911515906001600160a01b038716907f162ed187f3ed3879ae360c5df2a0a5dcaac7a208a9d762c2cbbfb1f5fad8b81d908490a4836001600160a01b03167fa2d66c1e2cc4b2cc5daaabc06447542e989ed748a9fb22476b6c913dcc1c7f4b6000836020015160405161145492919063ffffffff92831681529116602082015260400190565b60405180910390a280606001511515846001600160a01b03167fa606e6917bc476eb72d24f486596af7f564fb7b50f73135c81c0e8e0553430cd60405160405180910390a350505050565b816114a981612abd565b7f00000000000000000000000000000000000000000000000000000000000000006114d381611e6e565b6114eb846114e636869003860186615859565b6135d5565b6114f8602084018461522a565b6001600160a01b03166379ba50976040518163ffffffff1660e01b8152600401600060405180830381600087803b15801561153257600080fd5b505af1158015611546573d6000803e3d6000fd5b5050505050505050565b611558611ed4565b806115628161372e565b600061156d84611e97565b805490915063ffffffff600160a01b90910481169084168103611591575050505050565b815463ffffffff60a01b1916600160a01b63ffffffff86811691820292909217845560408051928416835260208301919091526001600160a01b038716917fa2d66c1e2cc4b2cc5daaabc06447542e989ed748a9fb22476b6c913dcc1c7f4b910160405180910390a25050505050565b600082600003611613575060006116d0565b6001600160a01b038085166000908152600260209081526040808320805482516318160ddd60e01b81529251919516926318160ddd92600480820193918290030181865afa158015611669573d6000803e3d6000fd5b505050506040513d601f19601f8201168201806040525081019061168d9190615646565b9050600061169b828761592c565b90506116ca81836116ac8882615675565b60058701546116bb919061592c565b6116c5908561562e565b613758565b93505050505b9392505050565b6116df611ed4565b60055460ff64010000000090910416151581151514611712576005805464ff000000001916640100000000831515021790555b50565b60007f000000000000000000000000000000000000000000000000000000000000000061174181611e6e565b8461174b81612abd565b83611755816125b4565b600061176087611e97565b8054909150600160c81b900460ff1661178c576040516303a5be3f60e31b815260040160405180910390fd5b604080516060810182526004808401546001600160801b038082168452600160801b909104166020808401919091526005850154838501819052855485516318160ddd60e01b81529551949591946000946001600160a01b03909216936318160ddd9380840193919291908290030181865afa158015611810573d6000803e3d6000fd5b505050506040513d601f19601f820116820180604052508101906118349190615646565b905061183e61509d565b8115801561184b57508215155b1561189757600092506118618d8c876003612590565b6040518060600160405280600063ffffffff1681526020016118816135ac565b815260200161188e6135ac565b9052905061192c565b60408051606081018252600187015463ffffffff1681528151808301835260028801546001600160701b038082168352600160701b918290048116602084810191909152808501939093528451808601865260038b0154808316825292909204168183015282840152825180840190935286516001600160801b03908116845287820151169083015261192991613824565b90505b60006119398b8486613955565b90506119458b8561562e565b600587015585546040516340c10f1960e01b81526001600160a01b038f8116600483015260248201849052909116906340c10f1990604401600060405180830381600087803b15801561199757600080fd5b505af11580156119ab573d6000803e3d6000fd5b50505050611a498e8d886119c28660200151613989565b7f00000000000000000000000000000000000000000000000000000000000000006001600160a01b03166387ba006a6040518163ffffffff1660e01b8152600401602060405180830381865afa158015611a20573d6000803e3d6000fd5b505050506040513d601f19601f82011682018060405250810190611a449190615646565b611f25565b8554600160c01b900460ff1615611a8f576040805180820190915260048701546001600160801b038082168352600160801b909104166020820152611a8f908790613458565b8b6001600160a01b03168d6001600160a01b03168f7fecb7e4cd1580472adaeba712b36acf94439b2e1760af55fedb61960ca4422af38e85604051611ade929190918252602082015260400190565b60405180910390a4611b328e8d611af5848761562e565b6040805160608101825260048c01546001600160801b038082168352600160801b90910416602082015260058c01549181019190915289906139c5565b9d9c50505050505050505050505050565b611b6760405180606001604052806000815260200160008152602001600081525090565b7f0000000000000000000000000000000000000000000000000000000000000000611b9181611e6e565b83611b9b816125b4565b83611ba5816125b4565b6000611bb68a8a8a8a8a60006125d5565b9050611bc181612981565b6040805160608082018352835182528301516020820152608090920151908201529998505050505050505050565b60606000611bfd6003613a5d565b905060008167ffffffffffffffff811115611c1a57611c1a6156c6565b604051908082528060200260200182016040528015611c43578160200160208202803683370190505b50905060005b82811015611c9857611c5c600382613a67565b828281518110611c6e57611c6e61594b565b6001600160a01b039092166020928302919091019091015280611c9081615961565b915050611c49565b5092915050565b80611ca981612abd565b7f0000000000000000000000000000000000000000000000000000000000000000611cd381611e6e565b6001600160a01b0380851660009081526002602052604090205416611cf785613a73565b60405163f2fde38b60e01b81526001600160a01b03858116600483015282169063f2fde38b906024015b600060405180830381600087803b158015611d3b57600080fd5b505af1158015611d4f573d6000803e3d6000fd5b505050505050505050565b6001600160a01b038083166000908152600260209081526040808320805482516318160ddd60e01b8152925194959194610bdf94889492909316926318160ddd92600480820193918290030181865afa158015611dbb573d6000803e3d6000fd5b505050506040513d601f19601f82011682018060405250810190611ddf9190615646565b6005840154613955565b611df1611ed4565b6000546001600160a01b0390811690821603611e2057604051630a98f1f360e21b815260040160405180910390fd5b600180546001600160a01b0319166001600160a01b0392909216919091179055565b6000611e4e6003613a5d565b905090565b611e5b611ed4565b80611e658161372e565b610ad782613afd565b336001600160a01b0382161461171257604051634ca8886760e01b815260040160405180910390fd5b6001600160a01b03808216600090815260026020526040812080549192909116610be35760405163b0ce759160e01b815260040160405180910390fd5b6000546001600160a01b031633146110df57604051634ca8886760e01b815260040160405180910390fd5b611f0881613b6e565b61171257604051636a43f8d160e01b815260040160405180910390fd5b6000611f5a6001600160a01b0386167f0000000000000000000000000000000000000000000000000000000000000000613b8b565b905080600003611f7d5760405163bb55fd2760e01b815260040160405180910390fd5b6040805160608101825260048601546001600160801b038082168352600160801b9091041660208201526005860154918101919091526001611fbe86612423565b6002811115611fcf57611fcf61565f565b03611fdb575050612362565b611fe484613b6e565b611ffc57611ff58787876002612590565b5050612362565b604051638d0c782760e01b81526001600160a01b0387811660048301526000916120999185917f000000000000000000000000000000000000000000000000000000000000000090911690638d0c782790602401602060405180830381865afa15801561206d573d6000803e3d6000fd5b505050506040513d601f19601f820116820180604052508101906120919190615646565b848888613c2f565b80519091506120aa57505050612362565b602081015115806120bd57506040810151155b156120d7576120cf8888886002612590565b505050612362565b81600001516001600160801b0316816020015111156121a9577f00000000000000000000000000000000000000000000000000000000000000006001600160a01b03166371c0feb7898985600001516001600160801b0316856020015161213e9190615675565b6040516001600160e01b031960e086901b16815260048101939093526001600160a01b0390911660248301526044820152606401600060405180830381600087803b15801561218c57600080fd5b505af11580156121a0573d6000803e3d6000fd5b50505050612277565b81600001516001600160801b031681602001511015612277577f00000000000000000000000000000000000000000000000000000000000000006001600160a01b0316631ebda06d8989846020015186600001516001600160801b03166122109190615675565b6040516001600160e01b031960e086901b16815260048101939093526001600160a01b0390911660248301526044820152606401600060405180830381600087803b15801561225e57600080fd5b505af1158015612272573d6000803e3d6000fd5b505050505b600060405180606001604052806122918460200151613df8565b6001600160801b031681526020016122ac8460400151613df8565b6001600160801b0390811682526040808701516020938401528351848401518316600160801b029216919091176004808c01919091558382015160058c01558a5482516318160ddd60e01b81529251949550611d4f948e948e946001600160a01b03909316936318160ddd938082019391908290030181865afa158015612337573d6000803e3d6000fd5b505050506040513d601f19601f8201168201806040525081019061235b9190615646565b86856139c5565b5050505050565b60408051808201909152600080825260208201526000612390836001600160701b03613e69565b9050604051806040016040528082600001516001600160701b0316815260200182602001516001600160701b0316815250915050919050565b6040805180820190915260008082526020820152604080518082019091526020838101516001600160701b03908116835284511690820181905215155b610be357604051630d38a7e760e11b815260040160405180910390fd5b60408051808201825260048301546001600160801b038082168352600160801b909104166020808301919091528251606081018452600185015463ffffffff1681528351808501855260028601546001600160701b038082168352600160701b918290048116838601528385019283528651808801885260038901548083168252929092041693810193909352938101919091529151600092906124c683613b6e565b15806124d857506124d681613ef8565b155b156124e857506000949350505050565b60006124f384613f27565b604084015190915061250482613b6e565b1580612516575061251481613ef8565b155b15612528575060009695505050505050565b60006125348587613824565b905061254f6125468260200151613989565b87612710613f5c565b801561256f575061256f6125668260400151613989565b84612710613f5c565b1561258257506002979650505050505050565b506001979650505050505050565b60048201546125ae908590859085906001600160801b031685613ffe565b50505050565b8060000361171257604051637c946ed760e01b815260040160405180910390fd5b612656604051806101a00160405280600081526020016000815260200160008152602001600081526020016000815260200160008152602001600081526020016000815260200160006001600160a01b03168152602001600015158152602001600015158152602001600063ffffffff168152602001600080191681525090565b6001600160a01b038681167f0000000000000000000000000000000000000000000000000000000000000000821690811491871614818015612696575080155b156126b85760016101208401526001600160a01b0387166101008401526126fe565b811580156126c35750805b156126e55760006101208401526001600160a01b0388166101008401526126fe565b60405163b0ce759160e01b815260040160405180910390fd5b600061270e846101000151611e97565b8054909150600160c01b900460ff1661273a5760405163bcb8b8fb60e01b815260040160405180910390fd5b61018084018a90528415801561014086015261275857868452612760565b602084018790525b60408481018790528154600160a01b900463ffffffff16610160860152805160608101825260048301546001600160801b038082168352600160801b909104166020820152600583015491810191909152610120850151156127de5780516001600160801b0390811660a087015260208201511660c08601526127fc565b60208101516001600160801b0390811660a087015281511660c08601525b6040015160e0850152509198975050505050505050565b6040805180820190915260008082526020820152816101400151156128845761284f8260a001518360c001518461016001518560000151614165565b8051602084018190526040840151919250101561287f5760405163f31ee7a560e01b815260040160405180910390fd5b6128d7565b6128a18260a001518360c0015184610160015185602001516141f7565b805180845290915015806128b9575060408201518251115b156128d75760405163681c2ccd60e11b815260040160405180910390fd5b60208101516060830152815160a0830180516128f490839061562e565b905250602082015160c08301805161290d908390615675565b905250610120820151156129355781606001518260e001818151612931919061562e565b9052505b610ad782614293565b60008260000361296e57811561296757604051636a9c61e160e01b815260040160405180910390fd5b50826116d0565b612979848385613758565b949350505050565b6101008101516001600160a01b0316600090815260026020908152604091829020825160608101845260048201546001600160801b038082168352600160801b90910481168285019081526005840154838701528551808701909652825182168652511692840192909252916129f8908390613458565b612a0183612813565b60006040518060600160405280612a2f866101200151612a25578660c00151613df8565b8660a00151613df8565b6001600160801b03168152602001612a5e866101200151612a54578660a00151613df8565b8660c00151613df8565b6001600160801b031681526020018560e001518152509050612a8c8461018001518561010001518484614393565b805160208201516001600160801b03908116600160801b029116176004840155604001516005909201919091555050565b6001600160a01b0381166117125760405163e6c4247b60e01b815260040160405180910390fd5b612aec6150ee565b60208401516000906001600160801b0316612b306001600160a01b038a167f0000000000000000000000000000000000000000000000000000000000000000613b8b565b612b3a9190615675565b90506000612c3486600001516001600160801b031687602001516001600160801b0316848960400151612b9f7f00000000000000000000000000000000000000000000000000000000000000008f6001600160a01b0316613b8b90919063ffffffff16565b8a63ffffffff167f00000000000000000000000000000000000000000000000000000000000000006001600160a01b0316632aac012c6040518163ffffffff1660e01b8152600401602060405180830381865afa158015612c04573d6000803e3d6000fd5b505050506040513d601f19601f82011682018060405250810190612c28919061597a565b63ffffffff168e6144b7565b905060405180610180016040528082606001518152602001826080015181526020018260a0015181526020018260400151815260200182600001518152602001826020015181526020018260c001518152602001888152602001898152602001858152602001826040015160200151612cca576040830151516020890151612cc591906001600160801b031661562e565b612ce8565b6040830151516020890151612ce891906001600160801b0316615675565b8152602001826000015160200151612d17578251518851612d1291906001600160801b031661562e565b612d2f565b8251518851612d2f91906001600160801b0316615675565b90529998505050505050505050565b60408051606081018252600484810180546001600160801b038082168552600160801b90910416602084015260058601548385015285546101008601519451630852cd8d60e31b815292830194909452926001600160a01b0316906342966c6890602401600060405180830381600087803b158015612dbc57600080fd5b505af1158015612dd0573d6000803e3d6000fd5b505050506000836101000151846101200151612dec9190615675565b9050612e02836001015482866101200151613758565b6001840155610140840151612e1690613df8565b83546001600160801b03918216600160801b029116178355610160840151612e3d90613df8565b83546fffffffffffffffffffffffffffffffff19166001600160801b039190911617835560a08401515115612f19578360a0015160200151612e8157612e81615997565b60a084015151604051631ebda06d60e01b8152600481018a90526001600160a01b03888116602483015260448201929092527f000000000000000000000000000000000000000000000000000000000000000090911690631ebda06d906064015b600060405180830381600087803b158015612efc57600080fd5b505af1158015612f10573d6000803e3d6000fd5b5050505061303f565b6080840151511561303f5783608001516020015115612f8657608084015151604051631538c64b60e31b815260048101919091527f00000000000000000000000000000000000000000000000000000000000000006001600160a01b03169063a9c6325890602401612ee2565b6080840151516040516340c10f1960e01b81526001600160a01b037f000000000000000000000000000000000000000000000000000000000000000016916340c10f199161300c917f0000000000000000000000000000000000000000000000000000000000000000916004016001600160a01b03929092168252602082015260400190565b600060405180830381600087803b15801561302657600080fd5b505af115801561303a573d6000803e3d6000fd5b505050505b600554602085015164010000000090910460ff16901580159061305f5750805b156130ef5760208501516040516340c10f1960e01b81526001600160a01b038a8116600483015260248201929092527f0000000000000000000000000000000000000000000000000000000000000000909116906340c10f1990604401600060405180830381600087803b1580156130d657600080fd5b505af11580156130ea573d6000803e3d6000fd5b505050505b6040850151156131c5576040858101519051631c20fadd60e01b81526001600160a01b0389811660048301527f00000000000000000000000000000000000000000000000000000000000000008116602483015260448201929092527f000000000000000000000000000000000000000000000000000000000000000090911690631c20fadd90606401600060405180830381600087803b15801561319357600080fd5b505af11580156131a7573d6000803e3d6000fd5b505050508460400151856000018181516131c1919061562e565b9052505b84511561325c578451604051631c20fadd60e01b81526001600160a01b0389811660048301528a8116602483015260448201929092527f000000000000000000000000000000000000000000000000000000000000000090911690631c20fadd90606401600060405180830381600087803b15801561324357600080fd5b505af1158015613257573d6000803e3d6000fd5b505050505b8461014001516000036132e8576132716135ac565b80516002880180546020909301516001600160701b03908116600160701b026001600160e01b03199094169216919091179190911790556132b06135ac565b80516003880180546020909301516001600160701b03908116600160701b026001600160e01b03199094169216919091179190911790555b7f00000000000000000000000000000000000000000000000000000000000000006001600160a01b03166387ba006a6040518163ffffffff1660e01b8152600401602060405180830381865afa158015613346573d6000803e3d6000fd5b505050506040513d601f19601f8201168201806040525081019061336a9190615646565b8561016001511015613389576133898988888861016001516002613ffe565b866001600160a01b0316886001600160a01b03168a7feab8ac9e9478a4b3c37a794ecef629b8a8bbcd96f9eaeac8ed26054d144da52d88600001518961010001518a60400151876133db5760006133e1565b8b602001515b60c08d0151604080519586526020860194909452928401919091526060830152608082015260a00160405180910390a46040805160608101825260048801546001600160801b038082168352600160801b909104166020820152600588015491810191909152611d4f908a908990859087906139c5565b60408051606081018252600184015463ffffffff1681528151808301835260028501546001600160701b038082168352600160701b918290048116602084810191909152808501939093528451808601865260038801548083168252929092041691810191909152918101919091526134d19082613824565b805160018401805463ffffffff191663ffffffff9092169190911790556020808201518051600286018054928401516001600160701b039283166001600160e01b031994851617600160701b918416820217909155604090940151805160039097018054919094015196821692169190911794169091029290921790915550565b600080546001600160a01b038381166001600160a01b031980841682178555600180549091169055604051919092169283917f343765429aea5a34b3ff6a3785a98a5abb2597aca87bfbb58632c173d585373a9190a35050565b604080518082018252600080825260209182018190528251808401909352825260019082015290565b6135e060038361472d565b6135fd5760405163119b4fd360e11b815260040160405180910390fd5b6001600160a01b039182166000908152600260208181526040928390208451815486840151878701516060890151939099166001600160c01b031990921691909117600160a01b63ffffffff928316021761ffff60c01b1916600160c01b9815159890980260ff60c81b191697909717600160c81b911515919091021781556080850151805160018301805463ffffffff191691909816179096558582015180519382018054918401516001600160701b039586166001600160e01b031993841617600160701b91871682021790915596850151805160038401805492860151918716929093169190911794169096029290921790945560a0909201518051938101516001600160801b03948516600160801b95909116949094029390931760048301559190910151600590910155565b620f424063ffffffff82161115611712576040516358d620b360e01b815260040160405180910390fd5b6000806137658585614742565b80519091506000036137895782816020015161378191906159c3565b9150506116d0565b805183116137aa57604051631a93c68960e11b815260040160405180910390fd5b60006137b78686866147c9565b905060006137c583836147e4565b80519091506000036137eb578481602001516137e191906159c3565b93505050506116d0565b60008581038616906137fd8383614869565b9050600061381361380e848a6159c3565b6148a0565b919091029998505050505050505050565b61382c61509d565b8251439063ffffffff8083169082160361384a578492505050610be3565b606461385682846159d7565b63ffffffff1610158061387357506138718560200151613ef8565b155b8061388857506138868560400151613ef8565b155b1561390a5761389684613b6e565b156138dd5760405180606001604052808363ffffffff1681526020016138bb86612369565b81526020016138d16138cc87613f27565b612369565b81525092505050610be3565b6040518060600160405280600063ffffffff1681526020016138fd6135ac565b81526020016138d16135ac565b60405180606001604052808363ffffffff16815260200161392f8760200151876148cb565b815260200161394a876040015161394588613f27565b6148cb565b905295945050505050565b60008260000361397e57811561296757604051636a9c61e160e01b815260040160405180910390fd5b612979848484614938565b6040805180820182526000808252602091820152815180830190925282516001600160701b039081168352928101519092169181019190915290565b6139d185858484614393565b8160400151816040015114612362576001600160a01b038416857f67c4863f17da9847c57c9fa043e63a0ddf4f5a86fd63a6f71ea69057a11c411a613a36837f0000000000000000000000000000000000000000000000000000000000000000613b8b565b60408086015181519283526020830152810187905260600160405180910390a35050505050565b6000610be3825490565b60006116d08383614988565b613a7e6003826149b2565b613a9b5760405163b0ce759160e01b815260040160405180910390fd5b6001600160a01b03166000908152600260208190526040822080546001600160d01b031916815560018101805463ffffffff1916905590810180546001600160e01b031990811690915560038201805490911690556004810182905560050155565b60055463ffffffff9081169082168103613b15575050565b6005805463ffffffff191663ffffffff84811691821790925560408051928416835260208301919091527fb804b0ec3f0ea43004870df377170ce44cb789adca16d23286e337605558117f910160405180910390a15050565b6000613b7d8260200151151590565b8015610be357505051151590565b600073eeeeeeeeeeeeeeeeeeeeeeeeeeeeeeeeeeeeeeee6001600160a01b03841603613bc257506001600160a01b03811631610be3565b826040516370a0823160e01b81526001600160a01b03848116600483015291909116906370a0823190602401602060405180830381865afa158015613c0b573d6000803e3d6000fd5b505050506040513d601f19601f820116820180604052508101906116d09190615646565b613c55604051806060016040528060001515815260200160008152602001600081525090565b600084602001516001600160801b031687613c709190615675565b90506000613c90613c8a8387600001518860200151613758565b886149c7565b905060008187600001516001600160801b0316613cad919061562e565b905084811015613ce15760405180606001604052806001151581526020016000815260200160008152509350505050613def565b86516001600160801b0316600003613d3c576000613d0060028761592c565b905081811115613d35576040518060600160405280600015158152602001600081526020016000815250945050505050613def565b9050613d73565b86516001600160801b03168110613d7357613d7081600289600001516001600160801b0316613d6b919061592c565b6149c7565b90505b8651600090613d8b906001600160801b031683615675565b905060008115613dad57613da88289602001518a60000151613758565b613db0565b60005b90506040518060600160405280600115158152602001848152602001828b602001516001600160801b0316613de5919061562e565b9052955050505050505b95945050505050565b60006001600160801b03821115613e655760405162461bcd60e51b815260206004820152602760248201527f53616665436173743a2076616c756520646f65736e27742066697420696e20316044820152663238206269747360c81b606482015260840160405180910390fd5b5090565b60408051808201909152600080825260208201526000613e9a613e94856000015186602001516149dd565b846149ed565b905060006040518060400160405280838760000151613eb991906159c3565b8152602001838760200151613ece91906159c3565b81525090508060200151600003610bdf57604051630d38a7e760e11b815260040160405180910390fd5b6000613f1082602001516001600160701b0316151590565b8015610be3575050516001600160701b0316151590565b604080518082019091526000808252602082015260408051808201909152602083810151825283519082018190521515612406565b82516000908190613f8e90613f7485620f42406159d7565b63ffffffff168660200151613f89919061592c565b614742565b90506000613fb38660200151620f424063ffffffff168760000151613f89919061592c565b8651909150600090613fe190613fcc87620f42406159fc565b63ffffffff168860200151613f89919061592c565b9050613fed8383614a1f565b80156116ca57506116ca8282614a1f565b6000600484018190556040805160608101909152908152602081016140216135ac565b815260200161402e6135ac565b9052805160018501805463ffffffff191663ffffffff9092169190911790556020808201518051600287018054928401516001600160701b039283166001600160e01b031994851617600160701b91841682021790915560409094015180516003890180549290950151908316919093161791169092029190911790558254600160c01b900460ff161561410357825460ff60c01b1916835560405160ff8216906000906001600160a01b038716907f162ed187f3ed3879ae360c5df2a0a5dcaac7a208a9d762c2cbbfb1f5fad8b81d908390a45b811561236257604051631ebda06d60e01b8152600481018690526001600160a01b038581166024830152604482018490527f00000000000000000000000000000000000000000000000000000000000000001690631ebda06d90606401611d21565b6040805180820190915260008082526020820152841580614184575083155b156141a25760405163bb55fd2760e01b815260040160405180910390fd5b60006141b385846116c5818a61562e565b905060006141cb8263ffffffff8716620f4240613758565b9050604051806040016040528082846141e49190615675565b8152602001919091529695505050505050565b60408051808201909152600080825260208201528460000361422c5760405163bb55fd2760e01b815260040160405180910390fd5b60006142518363ffffffff861661424687620f42406159d7565b63ffffffff16613758565b9050600061425f828561562e565b9050600061427288836116c5818b615675565b60408051808201909152908152602081019390935250909695505050505050565b7f000000000000000000000000000000000000000000000000000000000000000063ffffffff166000036142c45750565b600061430482606001517f000000000000000000000000000000000000000000000000000000000000000063ffffffff16620f424063ffffffff16613758565b9050808260c0018181516143189190615675565b90525061012082015161432d57608090910152565b6143428260c001518360a00151600084614165565b51608083015260c08201805182919061435c90839061562e565b905250608082015160a083018051614375908390615675565b90525060e08201805182919061438c908390615675565b9052505050565b815181516001600160801b039081169116146144255781518151604080516001600160801b0393841681529290911660208301526001600160a01b037f00000000000000000000000000000000000000000000000000000000000000008116929086169187917f6e96dc5343d067ec486a9920e0304c3610ed05c65e45cc029d9b9fe7ecfa7620910160405180910390a45b81602001516001600160801b031681602001516001600160801b0316146125ae57826001600160a01b0316836001600160a01b0316857f6e96dc5343d067ec486a9920e0304c3610ed05c65e45cc029d9b9fe7ecfa7620856020015185602001516040516144a99291906001600160801b0392831681529116602082015260400190565b60405180910390a450505050565b6144bf6151a6565b6001600160801b038911806144da57506001600160801b0388115b806144eb57506001600160801b0387115b806144fc57506001600160801b0386115b8061450d57506001600160801b0385115b8061451a5750620f424084115b806145275750620f424083115b8061453157508582115b1561454f576040516318b103bd60e21b815260040160405180910390fd5b6000620f424061455f8582615675565b614569908561592c565b61457391906159c3565b905061457f888a61562e565b620f424061458d8682615675565b614597908a61592c565b6145a191906159c3565b11156146965760006145b3898b61562e565b620f42406145c18782615675565b6145cb908b61592c565b6145d591906159c3565b6145df9190615675565b905060006145ed8a8c61562e565b6145f7908a615675565b90506146058b8b8b88614a33565b801561460f575060005b1561462a576146238c8c8b858b8a89614a5d565b935061468f565b8b1561465c5761463d8c8c8c8c87614b36565b935061464d8c8c8b84878d614bb7565b60a0860152608085015261468f565b886146678b8561592c565b61467191906159c3565b60608501526146848c8c8b84878d614bb7565b60a086015260808501525b5050614711565b60006146ab6146a58a8c61562e565b89614c2c565b90506000811180156146c457506146c48a8a8a87614a33565b80156146d957506146d98a8983898989614c46565b156146f5576146ee8b8b8a848a8a8a89614cd0565b925061470f565b8a15614707576146ee8b8b8b85614d7e565b606083018290525b505b61471b8184615675565b60c08301525098975050505050505050565b60006116d0836001600160a01b038416614def565b604080518082019091526000808252602082015260006147628484614e3e565b905083830280821061479757604051806040016040528082846147859190615675565b81526020018281525092505050610be3565b604051806040016040528060016147ae8585900390565b6147b89190615675565b815260200191909152949350505050565b600081806147d9576147d96159ad565b838509949350505050565b604080518082019091526000808252602082015281836020015110614831576040518060400160405280846000015181526020018385602001516148289190615675565b90529050610be3565b60405180604001604052806001856000015161484d9190615675565b8152602001614860856020015185900390565b90529392505050565b60008061488161487b848084036159c3565b60010190565b905082846020015161489391906159c3565b8451820217949350505050565b60006001815b6008811015611c985783820260020382029150806148c381615961565b9150506148a6565b6040805180820190915260008082526020820152825160208301516148f9916001600160701b03169061592c565b60208401518351614913916001600160701b03169061592c565b0361491f575081610be3565b6116d06138cc61492e85613989565b8460046001614e4d565b600080614946858585613758565b905060006149558686866147c9565b111561297957600019811061497d57604051631a93c68960e11b815260040160405180910390fd5b61378181600161562e565b600082600001828154811061499f5761499f61594b565b9060005260206000200154905092915050565b60006116d0836001600160a01b038416614ede565b60008183106149d657816116d0565b5090919050565b6000818310156149d657816116d0565b60006149f98284615a24565b15614a05576001614a08565b60005b60ff16614a1583856159c3565b6116d0919061562e565b6000614a2b8383614fd1565b159392505050565b6000614a3f8284615675565b614a49908561592c565b614a53838761592c565b1095945050505050565b614a656151a6565b6000614a7485620f4240615675565b614a7e908761592c565b90506000614a9c89614a93620f42408b61592c565b87856001614ff9565b9050614ae1614ab5614aae878d61592c565b8484613758565b604080518082019091526000808252602082015250604080518082019091529081526000602082015290565b8352614b1d614af186898b613758565b604080518082019091526000808252602082015250604080518082019091529081526001602082015290565b6040840152505060608101919091529695505050505050565b614b3e6151a6565b6000614b66614b4d878561592c565b614b578587615675565b614b61908861592c565b614c2c565b9050614b7a614af188836116c5888b61592c565b8083526020830152614b8f614af185836159c3565b6040830152614ba883614ba2878961562e565b86613758565b60608301525095945050505050565b60008080614bc5868661592c565b90506000614bd3888661592c565b905080821115614c0e5760008a11614bec576000614c04565b614c048a614bfa8385615675565b6116c58b8d61592c565b9350849250614c1f565b60009350614c1c88836159c3565b92505b5050965096945050505050565b6000818311614c3c5760006116d0565b6116d08284615675565b600080614c82614c56888a61592c565b620f4240614c64878b61592c565b614c6e898b61592c565b614c78919061562e565b613f89919061592c565b90506000614cb7614c93858961592c565b614ca088620f4240615675565b614caa888c61592c565b614c6e620f42408c61592c565b9050614cc38282614fd1565b9998505050505050505050565b614cd86151a6565b6000614ce4858961592c565b614cf1620f42408961592c565b614cfb919061562e565b90506000614d3b8a614d1089620f4240615675565b614d1a908c61592c565b87614d288b620f4240615675565b614d32908761592c565b620f4240615024565b9050614d4d614af1614aae878e61592c565b8352614d64614ab586846116c5620f42408e61592c565b604084015250506060810191909152979650505050505050565b614d866151a6565b6000614d928385614c2c565b9050614da2614af1878388613758565b8083526020830152614dda81604080518082019091526000808252602082015250604080518082019091529081526001602082015290565b60408301525060608101919091529392505050565b6000818152600183016020526040812054614e3657508154600181810184556000848152602080822090930184905584548482528286019093526040902091909155610be3565b506000610be3565b60006000198284099392505050565b604080518082019091526000808252602082015260405180604001604052808386600001518860200151614e81919061592c565b614e8b919061592c565b602087015188518791614e9d9161592c565b614ea7919061592c565b614eb1919061562e565b8152602001614ec0848661562e565b86602001518860200151614ed4919061592c565b61394a919061592c565b60008181526001830160205260408120548015614fc7576000614f02600183615675565b8554909150600090614f1690600190615675565b9050818114614f7b576000866000018281548110614f3657614f3661594b565b9060005260206000200154905080876000018481548110614f5957614f5961594b565b6000918252602080832090910192909255918252600188019052604090208390555b8554869080614f8c57614f8c615a38565b600190038181906000526020600020016000905590558560010160008681526020019081526020016000206000905560019350505050610be3565b6000915050610be3565b8051825160009110806116d05750815183511480156116d05750506020908101519101511190565b6000615006848484613758565b615010868861592c565b61501a9190615675565b9695505050505050565b6000615031848484613758565b61503b868861592c565b61501a919061562e565b6040805160c08101825260008082526020820181905291810182905260608101919091526080810161507561509d565b815260408051606081018252600080825260208281018290529282015291015290565b905290565b6040518060600160405280600063ffffffff1681526020016150cf604080518082019091526000808252602082015290565b8152602001615098604080518082019091526000808252602082015290565b60405180610180016040528060008152602001600081526020016000815260200161512e6040518060400160405280600081526020016000151581525090565b81526020016151526040518060400160405280600081526020016000151581525090565b81526020016151766040518060400160405280600081526020016000151581525090565b81526020016000815260200160008152602001600081526020016000815260200160008152602001600081525090565b6040805161012081018252600060e082018181526101008301829052825282518084018452818152602080820183905280840191909152835180850185528281529081019190915290918201908152602001600081526020016000815260200160008152602001600081525090565b6001600160a01b038116811461171257600080fd5b60006020828403121561523c57600080fd5b81356116d081615215565b81516001600160a01b0316815260208083015163ffffffff908116828401526040808501511515908401526060808501511515908401526080808501518051909216908401528082015180516001600160701b0390811660a08601529281015190921660c0840152610180830191506040015180516001600160701b0390811660e08501526020820151166101008401525060a083015180516001600160801b039081166101208501526020820151166101408401526040810151610160840152611c98565b6000806040838503121561532057600080fd5b823561532b81615215565b946020939093013593505050565b60008060006060848603121561534e57600080fd5b833561535981615215565b95602085013595506040909401359392505050565b60008060006060848603121561538357600080fd5b833561538e81615215565b9250602084013561539e81615215565b929592945050506040919091013590565b81518152602080830151908201526040808301519082015260608101610be3565b600080600080600060a086880312156153e857600080fd5b8535945060208601356153fa81615215565b9350604086013561540a81615215565b94979396509394606081013594506080013592915050565b801515811461171257600080fd5b6000806040838503121561544357600080fd5b823561544e81615215565b9150602083013561545e81615422565b809150509250929050565b6000808284036101a081121561547e57600080fd5b833561548981615215565b9250610180601f198201121561549e57600080fd5b506020830190509250929050565b63ffffffff8116811461171257600080fd5b600080604083850312156154d157600080fd5b82356154dc81615215565b9150602083013561545e816154ac565b6000602082840312156154fe57600080fd5b81356116d081615422565b6000806000806080858703121561551f57600080fd5b84359350602085013561553181615215565b9250604085013561554181615215565b9396929550929360600135925050565b81516001600160801b039081168252602080840151909116908201526040808301519082015260608101610be3565b6020808252825182820181905260009190848201906040850190845b818110156155c15783516001600160a01b03168352928401929184019160010161559c565b50909695505050505050565b600080604083850312156155e057600080fd5b82356155eb81615215565b9150602083013561545e81615215565b60006020828403121561560d57600080fd5b81356116d0816154ac565b634e487b7160e01b600052601160045260246000fd5b6000821982111561564157615641615618565b500190565b60006020828403121561565857600080fd5b5051919050565b634e487b7160e01b600052602160045260246000fd5b60008282101561568757615687615618565b500390565b60006020828403121561569e57600080fd5b81516116d081615422565b6000602082840312156156bb57600080fd5b81516116d081615215565b634e487b7160e01b600052604160045260246000fd5b60405160c0810167ffffffffffffffff8111828210171561570d57634e487b7160e01b600052604160045260246000fd5b60405290565b6040516060810167ffffffffffffffff8111828210171561570d57634e487b7160e01b600052604160045260246000fd5b80356001600160701b038116811461575b57600080fd5b919050565b60006040828403121561577257600080fd5b6040516040810181811067ffffffffffffffff821117156157a357634e487b7160e01b600052604160045260246000fd5b6040529050806157b283615744565b81526157c060208401615744565b60208201525092915050565b80356001600160801b038116811461575b57600080fd5b6000606082840312156157f557600080fd5b6040516060810181811067ffffffffffffffff8211171561582657634e487b7160e01b600052604160045260246000fd5b604052905080615835836157cc565b8152615843602084016157cc565b6020820152604083013560408201525092915050565b600081830361018081121561586d57600080fd5b6158756156dc565b833561588081615215565b81526020840135615890816154ac565b602082015260408401356158a381615422565b604082015260608401356158b681615422565b606082015260a0607f19830112156158cd57600080fd5b6158d5615713565b915060808401356158e5816154ac565b82526158f48560a08601615760565b60208301526159068560e08601615760565b604083015281608082015261591f8561012086016157e3565b60a0820152949350505050565b600081600019048311821515161561594657615946615618565b500290565b634e487b7160e01b600052603260045260246000fd5b60006001820161597357615973615618565b5060010190565b60006020828403121561598c57600080fd5b81516116d0816154ac565b634e487b7160e01b600052600160045260246000fd5b634e487b7160e01b600052601260045260246000fd5b6000826159d2576159d26159ad565b500490565b600063ffffffff838116908316818110156159f4576159f4615618565b039392505050565b600063ffffffff808316818516808303821115615a1b57615a1b615618565b01949350505050565b600082615a3357615a336159ad565b500690565b634e487b7160e01b600052603160045260246000fdfea164736f6c634300080d000a",
  "devdoc": {
    "details": "Pool Collection contract notes: - the address of reserve token serves as the pool unique ID in both contract functions and events",
    "events": {
      "DefaultTradingFeePPMUpdated(uint32,uint32)": {
        "details": "triggered when the default trading fee is updated"
      },
      "DepositingEnabled(address,bool)": {
        "details": "triggered when depositing into a specific pool is enabled/disabled"
      },
      "TokensDeposited(bytes32,address,address,uint256,uint256)": {
        "details": "triggered when new liquidity is deposited into a pool"
      },
      "TokensWithdrawn(bytes32,address,address,uint256,uint256,uint256,uint256,uint256)": {
        "details": "triggered when existing liquidity is withdrawn from a pool"
      },
      "TotalLiquidityUpdated(bytes32,address,uint256,uint256,uint256)": {
        "details": "triggered when the total liquidity in a pool is updated"
      },
      "TradingEnabled(address,bool,uint8)": {
        "details": "triggered when trading in a specific pool is enabled/disabled"
      },
      "TradingFeePPMUpdated(address,uint32,uint32)": {
        "details": "triggered when a specific pool's trading fee is updated"
      },
      "TradingLiquidityUpdated(bytes32,address,address,uint256,uint256)": {
        "details": "triggered when the trading liquidity in a pool is updated"
      }
    },
    "kind": "dev",
    "methods": {
      "acceptOwnership()": {
        "details": "used by a new owner to accept an ownership transfer"
      },
      "constructor": {
        "details": "initializes a new PoolCollection contract"
      },
      "createPool(address)": {
        "details": "creates a new pool requirements: - the caller must be the network contract - the pool should have been whitelisted - the pool isn't already defined in the collection"
      },
      "defaultTradingFeePPM()": {
        "details": "returns the default trading fee (in units of PPM)"
      },
      "depositFor(bytes32,address,address,uint256)": {
        "details": "deposits base token liquidity on behalf of a specific provider and returns the respective pool token amount requirements: - the caller must be the network contract - assumes that the base token has been already deposited in the vault"
      },
      "depositingEnabled(address)": {
        "details": "returns whether depositing is enabled"
      },
      "disableTrading(address)": {
        "details": "disables trading in a given pool requirements: - the caller must be the owner of the contract"
      },
      "enableDepositing(address,bool)": {
        "details": "enables/disables depositing into a given pool requirements: - the caller must be the owner of the contract"
      },
      "enableProtection(bool)": {
        "details": "enables/disables protection requirements: - the caller must be the owner of the contract"
      },
      "enableTrading(address,uint256,uint256)": {
        "details": "enables trading in a given pool, by providing the funding rate as two virtual balances, and updates its trading liquidity please note that the virtual balances should be derived from token prices, normalized to the smallest unit of tokens. In other words, the ratio between BNT and TKN virtual balances should be the ratio between the $ value of 1 wei of TKN and 1 wei of BNT, taking both of their decimals into account. For example: - if the price of one (10**18 wei) BNT is $X and the price of one (10**18 wei) TKN is $Y, then the virtual balances   should represent a ratio of X to Y - if the price of one (10**18 wei) BNT is $X and the price of one (10**6 wei) USDC is $Y, then the virtual balances   should represent a ratio of X to Y*10**12 requirements: - the caller must be the owner of the contract"
      },
      "isPoolStable(address)": {
        "details": "returns whether the pool is stable"
      },
      "isPoolValid(address)": {
        "details": "returns whether a pool is valid"
      },
      "migratePoolIn(address,(address,uint32,bool,bool,(uint32,(uint112,uint112),(uint112,uint112)),(uint128,uint128,uint256)))": {
        "details": "migrates a pool to this pool collection requirements: - the caller must be the pool migrator contract"
      },
      "migratePoolOut(address,address)": {
        "details": "migrates a pool from this pool collection requirements: - the caller must be the pool migrator contract"
      },
      "networkFeePPM()": {
        "details": "returns the network fee (in units of PPM)"
      },
      "newOwner()": {
        "details": "returns the address of the new owner candidate"
      },
      "onFeesCollected(address,uint256)": {
        "details": "notifies the pool of accrued fees requirements: - the caller must be the network contract"
      },
      "owner()": {
        "details": "returns the address of the current owner"
      },
      "poolCount()": {
        "details": "returns the number of all the pools which are managed by this pool collection"
      },
      "poolData(address)": {
        "details": "returns specific pool's data notes: - there is no guarantee that this function will remains forward compatible, so please avoid relying on it and   rely on specific getters from the IPoolCollection interface instead"
      },
      "poolLiquidity(address)": {
        "details": "returns the overall liquidity in the pool"
      },
      "poolToken(address)": {
        "details": "returns the pool token of the pool"
      },
      "poolTokenAmountToBurn(address,uint256,uint256)": {
        "details": "returns the number of pool token to burn in order to increase everyone's underlying value by the specified amount"
      },
      "poolTokenToUnderlying(address,uint256)": {
        "details": "converts the specified pool token amount to the underlying base token amount"
      },
      "poolType()": {
        "details": "returns the type of the pool"
      },
      "pools()": {
        "details": "returns all the pools which are managed by this pool collection"
      },
      "protectionEnabled()": {
        "details": "returns the status of the protection"
      },
      "setDefaultTradingFeePPM(uint32)": {
        "details": "sets the default trading fee (in units of PPM) requirements: - the caller must be the owner of the contract"
      },
      "setTradingFeePPM(address,uint32)": {
        "details": "sets the trading fee of a given pool requirements: - the caller must be the owner of the contract"
      },
      "tradeBySourceAmount(bytes32,address,address,uint256,uint256)": {
        "details": "performs a trade by providing the source amount and returns the target amount and the associated fee requirements: - the caller must be the network contract"
      },
      "tradeByTargetAmount(bytes32,address,address,uint256,uint256)": {
        "details": "performs a trade by providing the target amount and returns the required source amount and the associated fee requirements: - the caller must be the network contract"
      },
      "tradeInputAndFeeByTargetAmount(address,address,uint256)": {
        "details": "returns the input amount and fee when trading by providing the target amount"
      },
      "tradeOutputAndFeeBySourceAmount(address,address,uint256)": {
        "details": "returns the output amount and fee when trading by providing the source amount"
      },
      "tradingEnabled(address)": {
        "details": "returns whether trading is enabled"
      },
      "tradingFeePPM(address)": {
        "details": "returns the trading fee (in units of PPM)"
      },
      "transferOwnership(address)": {
        "details": "allows transferring the contract ownership requirements: - the caller must be the owner of the contract - the new owner still needs to accept the transfer"
      },
      "underlyingToPoolToken(address,uint256)": {
        "details": "converts the specified underlying base token amount to pool token amount"
      },
      "withdraw(bytes32,address,address,uint256,uint256)": {
        "details": "handles some of the withdrawal-related actions and returns the withdrawn base token amount requirements: - the caller must be the network contract - the caller must have approved the collection to transfer/burn the pool token amount on its behalf"
      },
      "withdrawalAmounts(address,uint256)": {
        "details": "returns the amounts that would be returned if the position is currently withdrawn, along with the breakdown of the base token and the BNT compensation"
      }
    },
    "version": 1
  },
  "userdoc": {
    "kind": "user",
    "methods": {},
    "version": 1
  },
  "storageLayout": {
    "storage": [
      {
        "astId": 31278,
        "contract": "contracts/pools/PoolCollection.sol:PoolCollection",
        "label": "_owner",
        "offset": 0,
        "slot": "0",
        "type": "t_address"
      },
      {
        "astId": 31280,
        "contract": "contracts/pools/PoolCollection.sol:PoolCollection",
        "label": "_newOwner",
        "offset": 0,
        "slot": "1",
        "type": "t_address"
      },
      {
        "astId": 18540,
        "contract": "contracts/pools/PoolCollection.sol:PoolCollection",
        "label": "_poolData",
        "offset": 0,
        "slot": "2",
        "type": "t_mapping(t_contract(Token)29449,t_struct(Pool)23917_storage)"
      },
      {
        "astId": 18543,
        "contract": "contracts/pools/PoolCollection.sol:PoolCollection",
        "label": "_pools",
        "offset": 0,
        "slot": "3",
        "type": "t_struct(AddressSet)6608_storage"
      },
      {
        "astId": 18545,
        "contract": "contracts/pools/PoolCollection.sol:PoolCollection",
        "label": "_defaultTradingFeePPM",
        "offset": 0,
        "slot": "5",
        "type": "t_uint32"
      },
      {
        "astId": 18548,
        "contract": "contracts/pools/PoolCollection.sol:PoolCollection",
        "label": "_protectionEnabled",
        "offset": 4,
        "slot": "5",
        "type": "t_bool"
      }
    ],
    "types": {
      "t_address": {
        "encoding": "inplace",
        "label": "address",
        "numberOfBytes": "20"
      },
      "t_array(t_bytes32)dyn_storage": {
        "base": "t_bytes32",
        "encoding": "dynamic_array",
        "label": "bytes32[]",
        "numberOfBytes": "32"
      },
      "t_bool": {
        "encoding": "inplace",
        "label": "bool",
        "numberOfBytes": "1"
      },
      "t_bytes32": {
        "encoding": "inplace",
        "label": "bytes32",
        "numberOfBytes": "32"
      },
      "t_contract(IPoolToken)24290": {
        "encoding": "inplace",
        "label": "contract IPoolToken",
        "numberOfBytes": "20"
      },
      "t_contract(Token)29449": {
        "encoding": "inplace",
        "label": "contract Token",
        "numberOfBytes": "20"
      },
      "t_mapping(t_bytes32,t_uint256)": {
        "encoding": "mapping",
        "key": "t_bytes32",
        "label": "mapping(bytes32 => uint256)",
        "numberOfBytes": "32",
        "value": "t_uint256"
      },
      "t_mapping(t_contract(Token)29449,t_struct(Pool)23917_storage)": {
        "encoding": "mapping",
        "key": "t_contract(Token)29449",
        "label": "mapping(contract Token => struct Pool)",
        "numberOfBytes": "32",
        "value": "t_struct(Pool)23917_storage"
      },
      "t_struct(AddressSet)6608_storage": {
        "encoding": "inplace",
        "label": "struct EnumerableSet.AddressSet",
        "members": [
          {
            "astId": 6607,
            "contract": "contracts/pools/PoolCollection.sol:PoolCollection",
            "label": "_inner",
            "offset": 0,
            "slot": "0",
            "type": "t_struct(Set)6307_storage"
          }
        ],
        "numberOfBytes": "64"
      },
      "t_struct(AverageRates)23901_storage": {
        "encoding": "inplace",
        "label": "struct AverageRates",
        "members": [
          {
            "astId": 23894,
            "contract": "contracts/pools/PoolCollection.sol:PoolCollection",
            "label": "blockNumber",
            "offset": 0,
            "slot": "0",
            "type": "t_uint32"
          },
          {
            "astId": 23897,
            "contract": "contracts/pools/PoolCollection.sol:PoolCollection",
            "label": "rate",
            "offset": 0,
            "slot": "1",
            "type": "t_struct(Fraction112)29812_storage"
          },
          {
            "astId": 23900,
            "contract": "contracts/pools/PoolCollection.sol:PoolCollection",
            "label": "invRate",
            "offset": 0,
            "slot": "2",
            "type": "t_struct(Fraction112)29812_storage"
          }
        ],
        "numberOfBytes": "96"
      },
      "t_struct(Fraction112)29812_storage": {
        "encoding": "inplace",
        "label": "struct Fraction112",
        "members": [
          {
            "astId": 29809,
            "contract": "contracts/pools/PoolCollection.sol:PoolCollection",
            "label": "n",
            "offset": 0,
            "slot": "0",
            "type": "t_uint112"
          },
          {
            "astId": 29811,
            "contract": "contracts/pools/PoolCollection.sol:PoolCollection",
            "label": "d",
            "offset": 14,
            "slot": "0",
            "type": "t_uint112"
          }
        ],
        "numberOfBytes": "32"
      },
      "t_struct(Pool)23917_storage": {
        "encoding": "inplace",
        "label": "struct Pool",
        "members": [
          {
            "astId": 23904,
            "contract": "contracts/pools/PoolCollection.sol:PoolCollection",
            "label": "poolToken",
            "offset": 0,
            "slot": "0",
            "type": "t_contract(IPoolToken)24290"
          },
          {
            "astId": 23906,
            "contract": "contracts/pools/PoolCollection.sol:PoolCollection",
            "label": "tradingFeePPM",
            "offset": 20,
            "slot": "0",
            "type": "t_uint32"
          },
          {
            "astId": 23908,
            "contract": "contracts/pools/PoolCollection.sol:PoolCollection",
            "label": "tradingEnabled",
            "offset": 24,
            "slot": "0",
            "type": "t_bool"
          },
          {
            "astId": 23910,
            "contract": "contracts/pools/PoolCollection.sol:PoolCollection",
            "label": "depositingEnabled",
            "offset": 25,
            "slot": "0",
            "type": "t_bool"
          },
          {
            "astId": 23913,
            "contract": "contracts/pools/PoolCollection.sol:PoolCollection",
            "label": "averageRates",
            "offset": 0,
            "slot": "1",
            "type": "t_struct(AverageRates)23901_storage"
          },
          {
            "astId": 23916,
            "contract": "contracts/pools/PoolCollection.sol:PoolCollection",
            "label": "liquidity",
            "offset": 0,
            "slot": "4",
            "type": "t_struct(PoolLiquidity)23892_storage"
          }
        ],
        "numberOfBytes": "192"
      },
      "t_struct(PoolLiquidity)23892_storage": {
        "encoding": "inplace",
        "label": "struct PoolLiquidity",
        "members": [
          {
            "astId": 23887,
            "contract": "contracts/pools/PoolCollection.sol:PoolCollection",
            "label": "bntTradingLiquidity",
            "offset": 0,
            "slot": "0",
            "type": "t_uint128"
          },
          {
            "astId": 23889,
            "contract": "contracts/pools/PoolCollection.sol:PoolCollection",
            "label": "baseTokenTradingLiquidity",
            "offset": 16,
            "slot": "0",
            "type": "t_uint128"
          },
          {
            "astId": 23891,
            "contract": "contracts/pools/PoolCollection.sol:PoolCollection",
            "label": "stakedBalance",
            "offset": 0,
            "slot": "1",
            "type": "t_uint256"
          }
        ],
        "numberOfBytes": "64"
      },
      "t_struct(Set)6307_storage": {
        "encoding": "inplace",
        "label": "struct EnumerableSet.Set",
        "members": [
          {
            "astId": 6302,
            "contract": "contracts/pools/PoolCollection.sol:PoolCollection",
            "label": "_values",
            "offset": 0,
            "slot": "0",
            "type": "t_array(t_bytes32)dyn_storage"
          },
          {
            "astId": 6306,
            "contract": "contracts/pools/PoolCollection.sol:PoolCollection",
            "label": "_indexes",
            "offset": 0,
            "slot": "1",
            "type": "t_mapping(t_bytes32,t_uint256)"
          }
        ],
        "numberOfBytes": "64"
      },
      "t_uint112": {
        "encoding": "inplace",
        "label": "uint112",
        "numberOfBytes": "14"
      },
      "t_uint128": {
        "encoding": "inplace",
        "label": "uint128",
        "numberOfBytes": "16"
      },
      "t_uint256": {
        "encoding": "inplace",
        "label": "uint256",
        "numberOfBytes": "32"
      },
      "t_uint32": {
        "encoding": "inplace",
        "label": "uint32",
        "numberOfBytes": "4"
      }
    }
  }
}