{
  "address": "0x1A1B00C006793341f4DBfE62fDF9991F4366eE69",
  "abi": [
    {
      "inputs": [
        {
          "internalType": "contract IBancorNetwork",
          "name": "initNetwork",
          "type": "address"
        }
      ],
      "stateMutability": "nonpayable",
      "type": "constructor"
    },
    {
      "inputs": [],
      "name": "AccessDenied",
      "type": "error"
    },
    {
      "inputs": [],
      "name": "AlreadyInitialized",
      "type": "error"
    },
    {
      "inputs": [],
      "name": "InvalidAddress",
      "type": "error"
    },
    {
      "inputs": [],
      "name": "InvalidPool",
      "type": "error"
    },
    {
      "inputs": [],
      "name": "InvalidPoolCollection",
      "type": "error"
    },
    {
      "inputs": [],
      "name": "UnsupportedVersion",
      "type": "error"
    },
    {
      "anonymous": false,
      "inputs": [
        {
          "indexed": true,
          "internalType": "bytes32",
          "name": "role",
          "type": "bytes32"
        },
        {
          "indexed": true,
          "internalType": "bytes32",
          "name": "previousAdminRole",
          "type": "bytes32"
        },
        {
          "indexed": true,
          "internalType": "bytes32",
          "name": "newAdminRole",
          "type": "bytes32"
        }
      ],
      "name": "RoleAdminChanged",
      "type": "event"
    },
    {
      "anonymous": false,
      "inputs": [
        {
          "indexed": true,
          "internalType": "bytes32",
          "name": "role",
          "type": "bytes32"
        },
        {
          "indexed": true,
          "internalType": "address",
          "name": "account",
          "type": "address"
        },
        {
          "indexed": true,
          "internalType": "address",
          "name": "sender",
          "type": "address"
        }
      ],
      "name": "RoleGranted",
      "type": "event"
    },
    {
      "anonymous": false,
      "inputs": [
        {
          "indexed": true,
          "internalType": "bytes32",
          "name": "role",
          "type": "bytes32"
        },
        {
          "indexed": true,
          "internalType": "address",
          "name": "account",
          "type": "address"
        },
        {
          "indexed": true,
          "internalType": "address",
          "name": "sender",
          "type": "address"
        }
      ],
      "name": "RoleRevoked",
      "type": "event"
    },
    {
      "inputs": [],
      "name": "DEFAULT_ADMIN_ROLE",
      "outputs": [
        {
          "internalType": "bytes32",
          "name": "",
          "type": "bytes32"
        }
      ],
      "stateMutability": "view",
      "type": "function"
    },
    {
      "inputs": [
        {
          "internalType": "bytes32",
          "name": "role",
          "type": "bytes32"
        }
      ],
      "name": "getRoleAdmin",
      "outputs": [
        {
          "internalType": "bytes32",
          "name": "",
          "type": "bytes32"
        }
      ],
      "stateMutability": "view",
      "type": "function"
    },
    {
      "inputs": [
        {
          "internalType": "bytes32",
          "name": "role",
          "type": "bytes32"
        },
        {
          "internalType": "uint256",
          "name": "index",
          "type": "uint256"
        }
      ],
      "name": "getRoleMember",
      "outputs": [
        {
          "internalType": "address",
          "name": "",
          "type": "address"
        }
      ],
      "stateMutability": "view",
      "type": "function"
    },
    {
      "inputs": [
        {
          "internalType": "bytes32",
          "name": "role",
          "type": "bytes32"
        }
      ],
      "name": "getRoleMemberCount",
      "outputs": [
        {
          "internalType": "uint256",
          "name": "",
          "type": "uint256"
        }
      ],
      "stateMutability": "view",
      "type": "function"
    },
    {
      "inputs": [
        {
          "internalType": "bytes32",
          "name": "role",
          "type": "bytes32"
        },
        {
          "internalType": "address",
          "name": "account",
          "type": "address"
        }
      ],
      "name": "grantRole",
      "outputs": [],
      "stateMutability": "nonpayable",
      "type": "function"
    },
    {
      "inputs": [
        {
          "internalType": "bytes32",
          "name": "role",
          "type": "bytes32"
        },
        {
          "internalType": "address",
          "name": "account",
          "type": "address"
        }
      ],
      "name": "hasRole",
      "outputs": [
        {
          "internalType": "bool",
          "name": "",
          "type": "bool"
        }
      ],
      "stateMutability": "view",
      "type": "function"
    },
    {
      "inputs": [],
      "name": "initialize",
      "outputs": [],
      "stateMutability": "nonpayable",
      "type": "function"
    },
    {
      "inputs": [
        {
          "internalType": "contract Token",
          "name": "pool",
          "type": "address"
        }
      ],
      "name": "migratePool",
      "outputs": [
        {
          "internalType": "contract IPoolCollection",
          "name": "",
          "type": "address"
        }
      ],
      "stateMutability": "nonpayable",
      "type": "function"
    },
    {
      "inputs": [
        {
          "internalType": "bytes",
          "name": "data",
          "type": "bytes"
        }
      ],
      "name": "postUpgrade",
      "outputs": [],
      "stateMutability": "nonpayable",
      "type": "function"
    },
    {
      "inputs": [
        {
          "internalType": "bytes32",
          "name": "role",
          "type": "bytes32"
        },
        {
          "internalType": "address",
          "name": "account",
          "type": "address"
        }
      ],
      "name": "renounceRole",
      "outputs": [],
      "stateMutability": "nonpayable",
      "type": "function"
    },
    {
      "inputs": [
        {
          "internalType": "bytes32",
          "name": "role",
          "type": "bytes32"
        },
        {
          "internalType": "address",
          "name": "account",
          "type": "address"
        }
      ],
      "name": "revokeRole",
      "outputs": [],
      "stateMutability": "nonpayable",
      "type": "function"
    },
    {
      "inputs": [],
      "name": "roleAdmin",
      "outputs": [
        {
          "internalType": "bytes32",
          "name": "",
          "type": "bytes32"
        }
      ],
      "stateMutability": "pure",
      "type": "function"
    },
    {
      "inputs": [
        {
          "internalType": "bytes4",
          "name": "interfaceId",
          "type": "bytes4"
        }
      ],
      "name": "supportsInterface",
      "outputs": [
        {
          "internalType": "bool",
          "name": "",
          "type": "bool"
        }
      ],
      "stateMutability": "view",
      "type": "function"
    },
    {
      "inputs": [],
      "name": "version",
      "outputs": [
        {
          "internalType": "uint16",
          "name": "",
          "type": "uint16"
        }
      ],
      "stateMutability": "pure",
      "type": "function"
    }
  ],
  "transactionHash": "0x597b0dcac08e48209ceb47b1ca88588393cd345dc2a2bed984bac270e58ab2ac",
  "args": [
    "0xeEF417e1D5CC832e619ae18D2F140De2999dD4fB"
  ],
  "numDeployments": 2,
  "solcInputHash": "9578fd8607a4510b6c94f9286634e821",
  "bytecode": "0x60a060405234801561001057600080fd5b50604051620019193803806200191983398101604081905261003191610077565b8061003b8161004d565b506001600160a01b03166080526100a7565b6001600160a01b0381166100745760405163e6c4247b60e01b815260040160405180910390fd5b50565b60006020828403121561008957600080fd5b81516001600160a01b03811681146100a057600080fd5b9392505050565b608051611848620000d16000396000818161026e015281816102de01526103fe01526118486000f3fe608060405234801561001057600080fd5b50600436106100ea5760003560e01c80638cd2403d1161008c57806393867fb51161006657806393867fb5146101eb578063a217fddf14610211578063ca15c87314610219578063d547741f1461022c57600080fd5b80638cd2403d146101b25780639010d07c146101c557806391d14854146101d857600080fd5b80632f2ff15d116100c85780632f2ff15d1461017357806336568abe1461018857806354fd4d501461019b5780638129fc1c146101aa57600080fd5b806301ffc9a7146100ef5780630874327f14610117578063248a9ca314610142575b600080fd5b6101026100fd366004611179565b61023f565b60405190151581526020015b60405180910390f35b61012a6101253660046111b8565b61026a565b6040516001600160a01b03909116815260200161010e565b6101656101503660046111d5565b60009081526065602052604090206001015490565b60405190815260200161010e565b6101866101813660046111ee565b61053e565b005b6101866101963660046111ee565b610569565b6040516002815260200161010e565b6101866105ec565b6101866101c036600461121e565b6106ad565b61012a6101d3366004611290565b6106fe565b6101026101e63660046111ee565b61071d565b7f2172861495e7b85edac73e3cd5fbb42dd675baadf627720e687bcfdaca025096610165565b610165600081565b6101656102273660046111d5565b610748565b61018661023a3660046111ee565b61075f565b60006001600160e01b03198216635a05180f60e01b1480610264575061026482610785565b92915050565b60007f0000000000000000000000000000000000000000000000000000000000000000610296816107ba565b6001600160a01b0383166102bc5760405162820f3560e61b815260040160405180910390fd5b6040516309bca0e760e41b81526001600160a01b0384811660048301526000917f000000000000000000000000000000000000000000000000000000000000000090911690639bca0e7090602401602060405180830381865afa158015610327573d6000803e3d6000fd5b505050506040513d601f19601f8201168201806040525081019061034b91906112b2565b90506001600160a01b0381166103735760405162820f3560e61b815260040160405180910390fd5b6000816001600160a01b031663b1dd61b66040518163ffffffff1660e01b8152600401602060405180830381865afa1580156103b3573d6000803e3d6000fd5b505050506040513d601f19601f820116820180604052508101906103d791906112cf565b60405163673cea6960e01b815261ffff821660048201529091506000906001600160a01b037f0000000000000000000000000000000000000000000000000000000000000000169063673cea6990602401602060405180830381865afa158015610445573d6000803e3d6000fd5b505050506040513d601f19601f8201168201806040525081019061046991906112b2565b9050826001600160a01b0316816001600160a01b03160361049d5760405163386c33d760e11b815260040160405180910390fd5b826001600160a01b03166354fd4d506040518163ffffffff1660e01b8152600401602060405180830381865afa1580156104db573d6000803e3d6000fd5b505050506040513d601f19601f820116820180604052508101906104ff91906112cf565b61ffff1660020361051f576105158684836107e3565b9350610538915050565b60405163b01318a560e01b815260040160405180910390fd5b50919050565b60008281526065602052604090206001015461055a8133610a11565b6105648383610a75565b505050565b6001600160a01b03811633146105de5760405162461bcd60e51b815260206004820152602f60248201527f416363657373436f6e74726f6c3a2063616e206f6e6c792072656e6f756e636560448201526e103937b632b9903337b91039b2b63360891b60648201526084015b60405180910390fd5b6105e88282610a97565b5050565b600054610100900460ff166106075760005460ff161561060b565b303b155b61066e5760405162461bcd60e51b815260206004820152602e60248201527f496e697469616c697a61626c653a20636f6e747261637420697320616c72656160448201526d191e481a5b9a5d1a585b1a5e995960921b60648201526084016105d5565b600054610100900460ff16158015610690576000805461ffff19166101011790555b610698610ab9565b80156106aa576000805461ff00191690555b50565b60c9546000906106c29061ffff166001611309565b905061ffff81166002146106e85760405162dc149f60e41b815260040160405180910390fd5b60c9805461ffff191661ffff8316179055505050565b60008281526097602052604081206107169083610af2565b9392505050565b60009182526065602090815260408084206001600160a01b0393909316845291905290205460ff1690565b600081815260976020526040812061026490610afe565b60008281526065602052604090206001015461077b8133610a11565b6105648383610a97565b60006001600160e01b03198216637965db0b60e01b148061026457506301ffc9a760e01b6001600160e01b0319831614610264565b336001600160a01b038216146106aa57604051634ca8886760e01b815260040160405180910390fd5b6040516309b77dbd60e11b81526001600160a01b0384811660048301526000919084169063136efb7a9060240161016060405180830381865afa15801561082e573d6000803e3d6000fd5b505050506040513d601f19601f82011682018060405250810190610852919061147a565b905060008160800151905060008260c00151905060006040518060c0016040528085600001516001600160a01b03168152602001856020015163ffffffff1681526020018560400151151581526020018560600151151581526020016040518060600160405280866000015163ffffffff1681526020018660200151815260200161090a604051806040016040528088602001516001600160801b0316815260200188600001516001600160801b0316815250610b08565b905281526040805160608101825285516001600160801b03908116825260208781015190911682820152868301518284015290920191909152516334f7c90960e21b81526001600160a01b03898116600483015287811660248301529192509087169063d3df242490604401600060405180830381600087803b15801561099057600080fd5b505af11580156109a4573d6000803e3d6000fd5b505060405163915b994160e01b81526001600160a01b038816925063915b994191506109d6908a90859060040161156b565b600060405180830381600087803b1580156109f057600080fd5b505af1158015610a04573d6000803e3d6000fd5b5050505050505050505050565b610a1b828261071d565b6105e857610a33816001600160a01b03166014610b68565b610a3e836020610b68565b604051602001610a4f929190611679565b60408051601f198184030181529082905262461bcd60e51b82526105d5916004016116ee565b610a7f8282610d04565b60008281526097602052604090206105649082610d8a565b610aa18282610d9f565b60008281526097602052604090206105649082610e06565b600054610100900460ff16610ae05760405162461bcd60e51b81526004016105d590611721565b610ae8610e1b565b610af0610e52565b565b60006107168383610e79565b6000610264825490565b60408051808201909152600080825260208201526000610b2f836001600160701b03610ea3565b9050604051806040016040528082600001516001600160701b0316815260200182602001516001600160701b0316815250915050919050565b60606000610b7783600261176c565b610b8290600261178b565b67ffffffffffffffff811115610b9a57610b9a61132f565b6040519080825280601f01601f191660200182016040528015610bc4576020820181803683370190505b509050600360fc1b81600081518110610bdf57610bdf6117a3565b60200101906001600160f81b031916908160001a905350600f60fb1b81600181518110610c0e57610c0e6117a3565b60200101906001600160f81b031916908160001a9053506000610c3284600261176c565b610c3d90600161178b565b90505b6001811115610cb5576f181899199a1a9b1b9c1cb0b131b232b360811b85600f1660108110610c7157610c716117a3565b1a60f81b828281518110610c8757610c876117a3565b60200101906001600160f81b031916908160001a90535060049490941c93610cae816117b9565b9050610c40565b5083156107165760405162461bcd60e51b815260206004820181905260248201527f537472696e67733a20686578206c656e67746820696e73756666696369656e7460448201526064016105d5565b610d0e828261071d565b6105e85760008281526065602090815260408083206001600160a01b03851684529091529020805460ff19166001179055610d463390565b6001600160a01b0316816001600160a01b0316837f2f8788117e7eff1d82e926ec794901d17c78024a50270940304540a733656f0d60405160405180910390a45050565b6000610716836001600160a01b038416610f10565b610da9828261071d565b156105e85760008281526065602090815260408083206001600160a01b0385168085529252808320805460ff1916905551339285917ff6391f5c32d9c69d2a47ea670b442974b53935d1edc7fd64eb21e047a839171b9190a45050565b6000610716836001600160a01b038416610f5f565b600054610100900460ff16610e425760405162461bcd60e51b81526004016105d590611721565b610e4a610e52565b610af0611052565b600054610100900460ff16610af05760405162461bcd60e51b81526004016105d590611721565b6000826000018281548110610e9057610e906117a3565b9060005260206000200154905092915050565b60408051808201909152600080825260208201526000610ed4610ece856000015186602001516110db565b846110f2565b90506040518060400160405280828660000151610ef191906117e6565b8152602001828660200151610f0691906117e6565b9052949350505050565b6000818152600183016020526040812054610f5757508154600181810184556000848152602080822090930184905584548482528286019093526040902091909155610264565b506000610264565b60008181526001830160205260408120548015611048576000610f836001836117fa565b8554909150600090610f97906001906117fa565b9050818114610ffc576000866000018281548110610fb757610fb76117a3565b9060005260206000200154905080876000018481548110610fda57610fda6117a3565b6000918252602080832090910192909255918252600188019052604090208390555b855486908061100d5761100d611811565b600190038181906000526020600020016000905590558560010160008681526020019081526020016000206000905560019350505050610264565b6000915050610264565b600054610100900460ff166110795760405162461bcd60e51b81526004016105d590611721565b60c9805461ffff191660011790556110b17f2172861495e7b85edac73e3cd5fbb42dd675baadf627720e687bcfdaca02509680611124565b610af07f2172861495e7b85edac73e3cd5fbb42dd675baadf627720e687bcfdaca0250963361116f565b6000818310156110eb5781610716565b5090919050565b60006110fe8284611827565b1561110a57600161110d565b60005b60ff1661111a83856117e6565b610716919061178b565b600082815260656020526040808220600101805490849055905190918391839186917fbd79b86ffe0ab8e8776151514217cd7cacd52c909f66475c3af44e129f0b00ff9190a4505050565b6105e88282610a75565b60006020828403121561118b57600080fd5b81356001600160e01b03198116811461071657600080fd5b6001600160a01b03811681146106aa57600080fd5b6000602082840312156111ca57600080fd5b8135610716816111a3565b6000602082840312156111e757600080fd5b5035919050565b6000806040838503121561120157600080fd5b823591506020830135611213816111a3565b809150509250929050565b6000806020838503121561123157600080fd5b823567ffffffffffffffff8082111561124957600080fd5b818501915085601f83011261125d57600080fd5b81358181111561126c57600080fd5b86602082850101111561127e57600080fd5b60209290920196919550909350505050565b600080604083850312156112a357600080fd5b50508035926020909101359150565b6000602082840312156112c457600080fd5b8151610716816111a3565b6000602082840312156112e157600080fd5b815161ffff8116811461071657600080fd5b634e487b7160e01b600052601160045260246000fd5b600061ffff808316818516808303821115611326576113266112f3565b01949350505050565b634e487b7160e01b600052604160045260246000fd5b60405160e0810167ffffffffffffffff8111828210171561137657634e487b7160e01b600052604160045260246000fd5b60405290565b6040805190810167ffffffffffffffff8111828210171561137657634e487b7160e01b600052604160045260246000fd5b805163ffffffff811681146113c157600080fd5b919050565b805180151581146113c157600080fd5b80516001600160701b03811681146113c157600080fd5b80516001600160801b03811681146113c157600080fd5b60006060828403121561141657600080fd5b6040516060810181811067ffffffffffffffff8211171561144757634e487b7160e01b600052604160045260246000fd5b604052905080611456836113ed565b8152611464602084016113ed565b6020820152604083015160408201525092915050565b600081830361016081121561148e57600080fd5b611496611345565b83516114a1816111a3565b81526114af602085016113ad565b60208201526114c0604085016113c6565b60408201526114d1606085016113c6565b60608201526060607f19830112156114e857600080fd5b6114f061137c565b6114fc608086016113ad565b81526040609f198401121561151057600080fd5b61151861137c565b925061152660a086016113d6565b835261153460c086016113d6565b60208401528260208201528060808301525060e084015160a082015261155e856101008601611404565b60c0820152949350505050565b60006101a08201905060018060a01b03808516835280845116602084015250602083015163ffffffff8082166040850152604085015115156060850152606085015115156080850152608085015191508082511660a08501525060208101516115ed60c085018280516001600160701b03908116835260209182015116910152565b506040015180516001600160701b039081166101008501526020820151166101208401525060a083015180516001600160801b039081166101408501526020820151166101608401526040810151610180840152509392505050565b60005b8381101561166457818101518382015260200161164c565b83811115611673576000848401525b50505050565b7f416363657373436f6e74726f6c3a206163636f756e74200000000000000000008152600083516116b1816017850160208801611649565b7001034b99036b4b9b9b4b733903937b6329607d1b60179184019182015283516116e2816028840160208801611649565b01602801949350505050565b602081526000825180602084015261170d816040850160208701611649565b601f01601f19169190910160400192915050565b6020808252602b908201527f496e697469616c697a61626c653a20636f6e7472616374206973206e6f74206960408201526a6e697469616c697a696e6760a81b606082015260800190565b6000816000190483118215151615611786576117866112f3565b500290565b6000821982111561179e5761179e6112f3565b500190565b634e487b7160e01b600052603260045260246000fd5b6000816117c8576117c86112f3565b506000190190565b634e487b7160e01b600052601260045260246000fd5b6000826117f5576117f56117d0565b500490565b60008282101561180c5761180c6112f3565b500390565b634e487b7160e01b600052603160045260246000fd5b600082611836576118366117d0565b50069056fea164736f6c634300080d000a",
  "devdoc": {
    "details": "Pool Migrator contract",
    "kind": "dev",
    "methods": {
      "constructor": {
        "details": "a \"virtual\" constructor that is only used to set immutable state variables"
      },
      "getRoleAdmin(bytes32)": {
        "details": "Returns the admin role that controls `role`. See {grantRole} and {revokeRole}. To change a role's admin, use {_setRoleAdmin}."
      },
      "getRoleMember(bytes32,uint256)": {
        "details": "Returns one of the accounts that have `role`. `index` must be a value between 0 and {getRoleMemberCount}, non-inclusive. Role bearers are not sorted in any particular way, and their ordering may change at any point. WARNING: When using {getRoleMember} and {getRoleMemberCount}, make sure you perform all queries on the same block. See the following https://forum.openzeppelin.com/t/iterating-over-elements-on-enumerableset-in-openzeppelin-contracts/2296[forum post] for more information."
      },
      "getRoleMemberCount(bytes32)": {
        "details": "Returns the number of accounts that have `role`. Can be used together with {getRoleMember} to enumerate all bearers of a role."
      },
      "grantRole(bytes32,address)": {
        "details": "Grants `role` to `account`. If `account` had not been already granted `role`, emits a {RoleGranted} event. Requirements: - the caller must have ``role``'s admin role."
      },
      "hasRole(bytes32,address)": {
        "details": "Returns `true` if `account` has been granted `role`."
      },
      "initialize()": {
        "details": "fully initializes the contract and its parents"
      },
      "migratePool(address)": {
        "details": "migrates a pool and returns the new pool collection it exists in notes: - invalid or incompatible pools will be skipped gracefully requirements: - the caller must be the network contract"
      },
      "postUpgrade(bytes)": {
        "details": "performs post-upgrade initialization requirements: - this must can be called only once per-upgrade"
      },
      "renounceRole(bytes32,address)": {
        "details": "Revokes `role` from the calling account. Roles are often managed via {grantRole} and {revokeRole}: this function's purpose is to provide a mechanism for accounts to lose their privileges if they are compromised (such as when a trusted device is misplaced). If the calling account had been revoked `role`, emits a {RoleRevoked} event. Requirements: - the caller must be `account`."
      },
      "revokeRole(bytes32,address)": {
        "details": "Revokes `role` from `account`. If `account` had been granted `role`, emits a {RoleRevoked} event. Requirements: - the caller must have ``role``'s admin role."
      },
      "roleAdmin()": {
        "details": "returns the admin role"
      },
      "supportsInterface(bytes4)": {
        "details": "See {IERC165-supportsInterface}."
      }
    },
    "version": 1
  },
  "userdoc": {
    "kind": "user",
    "methods": {},
    "version": 1
  },
  "storageLayout": {
    "storage": [
      {
        "astId": 644,
        "contract": "contracts/pools/PoolMigrator.sol:PoolMigrator",
        "label": "_initialized",
        "offset": 0,
        "slot": "0",
        "type": "t_bool"
      },
      {
        "astId": 647,
        "contract": "contracts/pools/PoolMigrator.sol:PoolMigrator",
        "label": "_initializing",
        "offset": 1,
        "slot": "0",
        "type": "t_bool"
      },
      {
        "astId": 1165,
        "contract": "contracts/pools/PoolMigrator.sol:PoolMigrator",
        "label": "__gap",
        "offset": 0,
        "slot": "1",
        "type": "t_array(t_uint256)50_storage"
      },
      {
        "astId": 1412,
        "contract": "contracts/pools/PoolMigrator.sol:PoolMigrator",
        "label": "__gap",
        "offset": 0,
        "slot": "51",
        "type": "t_array(t_uint256)50_storage"
      },
      {
        "astId": 250,
        "contract": "contracts/pools/PoolMigrator.sol:PoolMigrator",
        "label": "_roles",
        "offset": 0,
        "slot": "101",
        "type": "t_mapping(t_bytes32,t_struct(RoleData)245_storage)"
      },
      {
        "astId": 538,
        "contract": "contracts/pools/PoolMigrator.sol:PoolMigrator",
        "label": "__gap",
        "offset": 0,
        "slot": "102",
        "type": "t_array(t_uint256)49_storage"
      },
      {
        "astId": 99,
        "contract": "contracts/pools/PoolMigrator.sol:PoolMigrator",
        "label": "_roleMembers",
        "offset": 0,
        "slot": "151",
        "type": "t_mapping(t_bytes32,t_struct(AddressSet)1737_storage)"
      },
      {
        "astId": 209,
        "contract": "contracts/pools/PoolMigrator.sol:PoolMigrator",
        "label": "__gap",
        "offset": 0,
        "slot": "152",
        "type": "t_array(t_uint256)49_storage"
      },
      {
        "astId": 31877,
        "contract": "contracts/pools/PoolMigrator.sol:PoolMigrator",
        "label": "_initializations",
        "offset": 0,
        "slot": "201",
        "type": "t_uint16"
      },
      {
        "astId": 31883,
        "contract": "contracts/pools/PoolMigrator.sol:PoolMigrator",
        "label": "__gap",
        "offset": 0,
        "slot": "202",
        "type": "t_array(t_uint256)49_storage"
      },
      {
        "astId": 24429,
        "contract": "contracts/pools/PoolMigrator.sol:PoolMigrator",
        "label": "__gap",
        "offset": 0,
        "slot": "251",
        "type": "t_array(t_uint256)50_storage"
      }
    ],
    "types": {
      "t_address": {
        "encoding": "inplace",
        "label": "address",
        "numberOfBytes": "20"
      },
      "t_array(t_bytes32)dyn_storage": {
        "base": "t_bytes32",
        "encoding": "dynamic_array",
        "label": "bytes32[]",
        "numberOfBytes": "32"
      },
      "t_array(t_uint256)49_storage": {
        "base": "t_uint256",
        "encoding": "inplace",
        "label": "uint256[49]",
        "numberOfBytes": "1568"
      },
      "t_array(t_uint256)50_storage": {
        "base": "t_uint256",
        "encoding": "inplace",
        "label": "uint256[50]",
        "numberOfBytes": "1600"
      },
      "t_bool": {
        "encoding": "inplace",
        "label": "bool",
        "numberOfBytes": "1"
      },
      "t_bytes32": {
        "encoding": "inplace",
        "label": "bytes32",
        "numberOfBytes": "32"
      },
      "t_mapping(t_address,t_bool)": {
        "encoding": "mapping",
        "key": "t_address",
        "label": "mapping(address => bool)",
        "numberOfBytes": "32",
        "value": "t_bool"
      },
      "t_mapping(t_bytes32,t_struct(AddressSet)1737_storage)": {
        "encoding": "mapping",
        "key": "t_bytes32",
        "label": "mapping(bytes32 => struct EnumerableSetUpgradeable.AddressSet)",
        "numberOfBytes": "32",
        "value": "t_struct(AddressSet)1737_storage"
      },
      "t_mapping(t_bytes32,t_struct(RoleData)245_storage)": {
        "encoding": "mapping",
        "key": "t_bytes32",
        "label": "mapping(bytes32 => struct AccessControlUpgradeable.RoleData)",
        "numberOfBytes": "32",
        "value": "t_struct(RoleData)245_storage"
      },
      "t_mapping(t_bytes32,t_uint256)": {
        "encoding": "mapping",
        "key": "t_bytes32",
        "label": "mapping(bytes32 => uint256)",
        "numberOfBytes": "32",
        "value": "t_uint256"
      },
      "t_struct(AddressSet)1737_storage": {
        "encoding": "inplace",
        "label": "struct EnumerableSetUpgradeable.AddressSet",
        "members": [
          {
            "astId": 1736,
            "contract": "contracts/pools/PoolMigrator.sol:PoolMigrator",
            "label": "_inner",
            "offset": 0,
            "slot": "0",
            "type": "t_struct(Set)1436_storage"
          }
        ],
        "numberOfBytes": "64"
      },
      "t_struct(RoleData)245_storage": {
        "encoding": "inplace",
        "label": "struct AccessControlUpgradeable.RoleData",
        "members": [
          {
            "astId": 242,
            "contract": "contracts/pools/PoolMigrator.sol:PoolMigrator",
            "label": "members",
            "offset": 0,
            "slot": "0",
            "type": "t_mapping(t_address,t_bool)"
          },
          {
            "astId": 244,
            "contract": "contracts/pools/PoolMigrator.sol:PoolMigrator",
            "label": "adminRole",
            "offset": 0,
            "slot": "1",
            "type": "t_bytes32"
          }
        ],
        "numberOfBytes": "64"
      },
      "t_struct(Set)1436_storage": {
        "encoding": "inplace",
        "label": "struct EnumerableSetUpgradeable.Set",
        "members": [
          {
            "astId": 1431,
            "contract": "contracts/pools/PoolMigrator.sol:PoolMigrator",
            "label": "_values",
            "offset": 0,
            "slot": "0",
            "type": "t_array(t_bytes32)dyn_storage"
          },
          {
            "astId": 1435,
            "contract": "contracts/pools/PoolMigrator.sol:PoolMigrator",
            "label": "_indexes",
            "offset": 0,
            "slot": "1",
            "type": "t_mapping(t_bytes32,t_uint256)"
          }
        ],
        "numberOfBytes": "64"
      },
      "t_uint16": {
        "encoding": "inplace",
        "label": "uint16",
        "numberOfBytes": "2"
      },
      "t_uint256": {
        "encoding": "inplace",
        "label": "uint256",
        "numberOfBytes": "32"
      }
    }
  }
}