{
  "address": "0xAb4a0bC8Ec2CD1376c7B77F51338d80a631f7108",
  "abi": [
    {
      "inputs": [],
      "name": "AccessDenied",
      "type": "error"
    },
    {
      "inputs": [],
      "name": "AlreadyInitialized",
      "type": "error"
    },
    {
      "inputs": [],
      "name": "InvalidAddress",
      "type": "error"
    },
    {
      "anonymous": false,
      "inputs": [
        {
          "indexed": true,
          "internalType": "contract IPoolToken",
          "name": "poolToken",
          "type": "address"
        },
        {
          "indexed": true,
          "internalType": "contract Token",
          "name": "token",
          "type": "address"
        }
      ],
      "name": "PoolTokenCreated",
      "type": "event"
    },
    {
      "anonymous": false,
      "inputs": [
        {
          "indexed": true,
          "internalType": "bytes32",
          "name": "role",
          "type": "bytes32"
        },
        {
          "indexed": true,
          "internalType": "bytes32",
          "name": "previousAdminRole",
          "type": "bytes32"
        },
        {
          "indexed": true,
          "internalType": "bytes32",
          "name": "newAdminRole",
          "type": "bytes32"
        }
      ],
      "name": "RoleAdminChanged",
      "type": "event"
    },
    {
      "anonymous": false,
      "inputs": [
        {
          "indexed": true,
          "internalType": "bytes32",
          "name": "role",
          "type": "bytes32"
        },
        {
          "indexed": true,
          "internalType": "address",
          "name": "account",
          "type": "address"
        },
        {
          "indexed": true,
          "internalType": "address",
          "name": "sender",
          "type": "address"
        }
      ],
      "name": "RoleGranted",
      "type": "event"
    },
    {
      "anonymous": false,
      "inputs": [
        {
          "indexed": true,
          "internalType": "bytes32",
          "name": "role",
          "type": "bytes32"
        },
        {
          "indexed": true,
          "internalType": "address",
          "name": "account",
          "type": "address"
        },
        {
          "indexed": true,
          "internalType": "address",
          "name": "sender",
          "type": "address"
        }
      ],
      "name": "RoleRevoked",
      "type": "event"
    },
    {
      "inputs": [],
      "name": "DEFAULT_ADMIN_ROLE",
      "outputs": [
        {
          "internalType": "bytes32",
          "name": "",
          "type": "bytes32"
        }
      ],
      "stateMutability": "view",
      "type": "function"
    },
    {
      "inputs": [
        {
          "internalType": "contract Token",
          "name": "token",
          "type": "address"
        }
      ],
      "name": "createPoolToken",
      "outputs": [
        {
          "internalType": "contract IPoolToken",
          "name": "",
          "type": "address"
        }
      ],
      "stateMutability": "nonpayable",
      "type": "function"
    },
    {
      "inputs": [
        {
          "internalType": "bytes32",
          "name": "role",
          "type": "bytes32"
        }
      ],
      "name": "getRoleAdmin",
      "outputs": [
        {
          "internalType": "bytes32",
          "name": "",
          "type": "bytes32"
        }
      ],
      "stateMutability": "view",
      "type": "function"
    },
    {
      "inputs": [
        {
          "internalType": "bytes32",
          "name": "role",
          "type": "bytes32"
        },
        {
          "internalType": "uint256",
          "name": "index",
          "type": "uint256"
        }
      ],
      "name": "getRoleMember",
      "outputs": [
        {
          "internalType": "address",
          "name": "",
          "type": "address"
        }
      ],
      "stateMutability": "view",
      "type": "function"
    },
    {
      "inputs": [
        {
          "internalType": "bytes32",
          "name": "role",
          "type": "bytes32"
        }
      ],
      "name": "getRoleMemberCount",
      "outputs": [
        {
          "internalType": "uint256",
          "name": "",
          "type": "uint256"
        }
      ],
      "stateMutability": "view",
      "type": "function"
    },
    {
      "inputs": [
        {
          "internalType": "bytes32",
          "name": "role",
          "type": "bytes32"
        },
        {
          "internalType": "address",
          "name": "account",
          "type": "address"
        }
      ],
      "name": "grantRole",
      "outputs": [],
      "stateMutability": "nonpayable",
      "type": "function"
    },
    {
      "inputs": [
        {
          "internalType": "bytes32",
          "name": "role",
          "type": "bytes32"
        },
        {
          "internalType": "address",
          "name": "account",
          "type": "address"
        }
      ],
      "name": "hasRole",
      "outputs": [
        {
          "internalType": "bool",
          "name": "",
          "type": "bool"
        }
      ],
      "stateMutability": "view",
      "type": "function"
    },
    {
      "inputs": [],
      "name": "initialize",
      "outputs": [],
      "stateMutability": "nonpayable",
      "type": "function"
    },
    {
      "inputs": [
        {
          "internalType": "bytes",
          "name": "data",
          "type": "bytes"
        }
      ],
      "name": "postUpgrade",
      "outputs": [],
      "stateMutability": "nonpayable",
      "type": "function"
    },
    {
      "inputs": [
        {
          "internalType": "bytes32",
          "name": "role",
          "type": "bytes32"
        },
        {
          "internalType": "address",
          "name": "account",
          "type": "address"
        }
      ],
      "name": "renounceRole",
      "outputs": [],
      "stateMutability": "nonpayable",
      "type": "function"
    },
    {
      "inputs": [
        {
          "internalType": "bytes32",
          "name": "role",
          "type": "bytes32"
        },
        {
          "internalType": "address",
          "name": "account",
          "type": "address"
        }
      ],
      "name": "revokeRole",
      "outputs": [],
      "stateMutability": "nonpayable",
      "type": "function"
    },
    {
      "inputs": [],
      "name": "roleAdmin",
      "outputs": [
        {
          "internalType": "bytes32",
          "name": "",
          "type": "bytes32"
        }
      ],
      "stateMutability": "pure",
      "type": "function"
    },
    {
      "inputs": [
        {
          "internalType": "contract Token",
          "name": "token",
          "type": "address"
        },
        {
          "internalType": "uint8",
          "name": "decimals",
          "type": "uint8"
        }
      ],
      "name": "setTokenDecimalsOverride",
      "outputs": [],
      "stateMutability": "nonpayable",
      "type": "function"
    },
    {
      "inputs": [
        {
          "internalType": "contract Token",
          "name": "token",
          "type": "address"
        },
        {
          "internalType": "string",
          "name": "symbol",
          "type": "string"
        }
      ],
      "name": "setTokenSymbolOverride",
      "outputs": [],
      "stateMutability": "nonpayable",
      "type": "function"
    },
    {
      "inputs": [
        {
          "internalType": "bytes4",
          "name": "interfaceId",
          "type": "bytes4"
        }
      ],
      "name": "supportsInterface",
      "outputs": [
        {
          "internalType": "bool",
          "name": "",
          "type": "bool"
        }
      ],
      "stateMutability": "view",
      "type": "function"
    },
    {
      "inputs": [
        {
          "internalType": "contract Token",
          "name": "token",
          "type": "address"
        }
      ],
      "name": "tokenDecimalsOverride",
      "outputs": [
        {
          "internalType": "uint8",
          "name": "",
          "type": "uint8"
        }
      ],
      "stateMutability": "view",
      "type": "function"
    },
    {
      "inputs": [
        {
          "internalType": "contract Token",
          "name": "token",
          "type": "address"
        }
      ],
      "name": "tokenSymbolOverride",
      "outputs": [
        {
          "internalType": "string",
          "name": "",
          "type": "string"
        }
      ],
      "stateMutability": "view",
      "type": "function"
    },
    {
      "inputs": [],
      "name": "version",
      "outputs": [
        {
          "internalType": "uint16",
          "name": "",
          "type": "uint16"
        }
      ],
      "stateMutability": "pure",
      "type": "function"
    }
  ],
  "transactionHash": "0x5617e6df5a8d38a2ba5b8954fa3286b9855d7039856740ff199e6f7eef11d6e8",
  "args": [],
  "numDeployments": 1,
  "solcInputHash": "5b93454da0d19532f3d57b46d6368097",
  "bytecode": "0x608060405234801561001057600080fd5b506132a7806100206000396000f3fe60806040523480156200001157600080fd5b50600436106200012d5760003560e01c80638129fc1c11620000af57806393867fb5116200007a57806393867fb514620002c2578063a217fddf14620002d8578063ca15c87314620002e1578063d547741f14620002f8578063e6f9e337146200030f57600080fd5b80638129fc1c14620002735780638cd2403d146200027d5780639010d07c146200029457806391d1485414620002ab57600080fd5b80632f2ff15d11620000fc5780632f2ff15d14620001dc57806336568abe14620001f357806339e56306146200020a57806354fd4d50146200024c57806371f34627146200025c57600080fd5b806301ffc9a71462000132578063248a9ca3146200015e5780632a8d2ef814620001935780632b625f2314620001ac575b600080fd5b6200014962000143366004620012d5565b62000335565b60405190151581526020015b60405180910390f35b620001846200016f36600462001301565b60009081526065602052604090206001015490565b60405190815260200162000155565b620001aa620001a436600462001341565b62000363565b005b620001c3620001bd3660046200137f565b620003ab565b6040516001600160a01b03909116815260200162000155565b620001aa620001ed3660046200139f565b6200065a565b620001aa620002043660046200139f565b62000689565b620002396200021b3660046200137f565b6001600160a01b0316600090815260fc602052604090205460ff1690565b60405160ff909116815260200162000155565b6040516001815260200162000155565b620001aa6200026d36600462001413565b6200070f565b620001aa62000755565b620001aa6200028e3660046200146e565b6200081e565b620001c3620002a5366004620014b4565b62000872565b62000149620002bc3660046200139f565b62000893565b6000805160206200327b83398151915262000184565b62000184600081565b62000184620002f236600462001301565b620008be565b620001aa620003093660046200139f565b620008d7565b62000326620003203660046200137f565b62000901565b60405162000155919062001534565b60006001600160e01b03198216635a05180f60e01b14806200035d57506200035d82620009b5565b92915050565b6200037e6000805160206200327b83398151915233620009ec565b6001600160a01b0391909116600090815260fc60205260409020805460ff191660ff909216919091179055565b600081620003b98162000a16565b6001600160a01b038316600090815260fb602052604081208054620003de9062001549565b80601f01602080910402602001604051908101604052809291908181526020018280546200040c9062001549565b80156200045d5780601f1062000431576101008083540402835291602001916200045d565b820191906000526020600020905b8154815290600101906020018083116200043f57829003601f168201915b50505050509050600081516000036200048a5762000484856001600160a01b031662000a3e565b6200048c565b815b6001600160a01b038616600090815260fc602052604081205491925060ff90911690818103620004d057620004ca876001600160a01b031662000aed565b620004d2565b815b9050600060405180604001604052806002815260200161313760f11b81525084604051602001620005059291906200157f565b60408051601f19818403018152828201825260068352652130b731b7b960d11b60208481019190915282518084018452600a8152692837b7b6102a37b5b2b760b11b81830152925191945060009362000563939092899201620015b2565b604051602081830303815290604052905060008183858c604051620005889062001221565b62000597949392919062001612565b604051809103906000f080158015620005b4573d6000803e3d6000fd5b5060405163f2fde38b60e01b81523360048201529091506001600160a01b0382169063f2fde38b90602401600060405180830381600087803b158015620005fa57600080fd5b505af11580156200060f573d6000803e3d6000fd5b50506040516001600160a01b03808e169350841691507fb734785e2fac0d09f3e4d4c0240bc9009e97a639cc8b5bbec49dfb40b18de38490600090a397505050505050505b50919050565b60008281526065602052604090206001015462000678813362000b81565b62000684838362000bf0565b505050565b6001600160a01b0381163314620006ff5760405162461bcd60e51b815260206004820152602f60248201527f416363657373436f6e74726f6c3a2063616e206f6e6c792072656e6f756e636560448201526e103937b632b9903337b91039b2b63360891b60648201526084015b60405180910390fd5b6200070b828262000c16565b5050565b6200072a6000805160206200327b83398151915233620009ec565b6001600160a01b038316600090815260fb602052604090206200074f9083836200122f565b50505050565b600054610100900460ff16620007725760005460ff161562000776565b303b155b620007db5760405162461bcd60e51b815260206004820152602e60248201527f496e697469616c697a61626c653a20636f6e747261637420697320616c72656160448201526d191e481a5b9a5d1a585b1a5e995960921b6064820152608401620006f6565b600054610100900460ff16158015620007fe576000805461ffff19166101011790555b6200080862000c3c565b80156200081b576000805461ff00191690555b50565b60c954600090620008359061ffff16600162001676565b905061ffff81166001146200085c5760405162dc149f60e41b815260040160405180910390fd5b60c9805461ffff191661ffff8316179055505050565b60008281526097602052604081206200088c908362000c7c565b9392505050565b60009182526065602090815260408084206001600160a01b0393909316845291905290205460ff1690565b60008181526097602052604081206200035d9062000c8a565b600082815260656020526040902060010154620008f5813362000b81565b62000684838362000c16565b6001600160a01b038116600090815260fb602052604090208054606091906200092a9062001549565b80601f0160208091040260200160405190810160405280929190818152602001828054620009589062001549565b8015620009a95780601f106200097d57610100808354040283529160200191620009a9565b820191906000526020600020905b8154815290600101906020018083116200098b57829003601f168201915b50505050509050919050565b60006001600160e01b03198216637965db0b60e01b14806200035d57506301ffc9a760e01b6001600160e01b03198316146200035d565b620009f8828262000893565b6200070b57604051634ca8886760e01b815260040160405180910390fd5b6001600160a01b0381166200081b5760405163e6c4247b60e01b815260040160405180910390fd5b606073eeeeeeeeeeeeeeeeeeeeeeeeeeeeeeeeeeeeeeee6001600160a01b0383160362000a8457505060408051808201909152600381526208aa8960eb1b602082015290565b816001600160a01b03166395d89b416040518163ffffffff1660e01b8152600401600060405180830381865afa15801562000ac3573d6000803e3d6000fd5b505050506040513d6000823e601f3d908101601f191682016040526200035d9190810190620016ac565b600073eeeeeeeeeeeeeeeeeeeeeeeeeeeeeeeeeeeeeeee6001600160a01b0383160362000b1c57506012919050565b816001600160a01b031663313ce5676040518163ffffffff1660e01b8152600401602060405180830381865afa15801562000b5b573d6000803e3d6000fd5b505050506040513d601f19601f820116820180604052508101906200035d919062001765565b62000b8d828262000893565b6200070b5762000ba8816001600160a01b0316601462000c95565b62000bb583602062000c95565b60405160200162000bc892919062001785565b60408051601f198184030181529082905262461bcd60e51b8252620006f69160040162001534565b62000bfc828262000e4f565b600082815260976020526040902062000684908262000ed9565b62000c22828262000ef0565b600082815260976020526040902062000684908262000f5a565b600054610100900460ff1662000c665760405162461bcd60e51b8152600401620006f690620017fe565b62000c7062000f71565b62000c7a62000faf565b565b60006200088c838362000fd9565b60006200035d825490565b6060600062000ca683600262001849565b62000cb39060026200186b565b67ffffffffffffffff81111562000cce5762000cce62001696565b6040519080825280601f01601f19166020018201604052801562000cf9576020820181803683370190505b509050600360fc1b8160008151811062000d175762000d1762001886565b60200101906001600160f81b031916908160001a905350600f60fb1b8160018151811062000d495762000d4962001886565b60200101906001600160f81b031916908160001a905350600062000d6f84600262001849565b62000d7c9060016200186b565b90505b600181111562000dfe576f181899199a1a9b1b9c1cb0b131b232b360811b85600f166010811062000db45762000db462001886565b1a60f81b82828151811062000dcd5762000dcd62001886565b60200101906001600160f81b031916908160001a90535060049490941c9362000df6816200189c565b905062000d7f565b5083156200088c5760405162461bcd60e51b815260206004820181905260248201527f537472696e67733a20686578206c656e67746820696e73756666696369656e746044820152606401620006f6565b62000e5b828262000893565b6200070b5760008281526065602090815260408083206001600160a01b03851684529091529020805460ff1916600117905562000e953390565b6001600160a01b0316816001600160a01b0316837f2f8788117e7eff1d82e926ec794901d17c78024a50270940304540a733656f0d60405160405180910390a45050565b60006200088c836001600160a01b03841662001006565b62000efc828262000893565b156200070b5760008281526065602090815260408083206001600160a01b0385168085529252808320805460ff1916905551339285917ff6391f5c32d9c69d2a47ea670b442974b53935d1edc7fd64eb21e047a839171b9190a45050565b60006200088c836001600160a01b03841662001058565b600054610100900460ff1662000f9b5760405162461bcd60e51b8152600401620006f690620017fe565b62000fa562000faf565b62000c7a6200115c565b600054610100900460ff1662000c7a5760405162461bcd60e51b8152600401620006f690620017fe565b600082600001828154811062000ff35762000ff362001886565b9060005260206000200154905092915050565b60008181526001830160205260408120546200104f575081546001818101845560008481526020808220909301849055845484825282860190935260409020919091556200035d565b5060006200035d565b60008181526001830160205260408120548015620011515760006200107f600183620018b6565b85549091506000906200109590600190620018b6565b905081811462001101576000866000018281548110620010b957620010b962001886565b9060005260206000200154905080876000018481548110620010df57620010df62001886565b6000918252602080832090910192909255918252600188019052604090208390555b8554869080620011155762001115620018d0565b6001900381819060005260206000200160009055905585600101600086815260200190815260200160002060009055600193505050506200035d565b60009150506200035d565b600054610100900460ff16620011865760405162461bcd60e51b8152600401620006f690620017fe565b60c9805461ffff19166001179055620011af6000805160206200327b83398151915280620011ca565b62000c7a6000805160206200327b8339815191523362001215565b600082815260656020526040808220600101805490849055905190918391839186917fbd79b86ffe0ab8e8776151514217cd7cacd52c909f66475c3af44e129f0b00ff9190a4505050565b6200070b828262000bf0565b61199480620018e783390190565b8280546200123d9062001549565b90600052602060002090601f016020900481019282620012615760008555620012ac565b82601f106200127c5782800160ff19823516178555620012ac565b82800160010185558215620012ac579182015b82811115620012ac5782358255916020019190600101906200128f565b50620012ba929150620012be565b5090565b5b80821115620012ba5760008155600101620012bf565b600060208284031215620012e857600080fd5b81356001600160e01b0319811681146200088c57600080fd5b6000602082840312156200131457600080fd5b5035919050565b6001600160a01b03811681146200081b57600080fd5b60ff811681146200081b57600080fd5b600080604083850312156200135557600080fd5b823562001362816200131b565b91506020830135620013748162001331565b809150509250929050565b6000602082840312156200139257600080fd5b81356200088c816200131b565b60008060408385031215620013b357600080fd5b82359150602083013562001374816200131b565b60008083601f840112620013da57600080fd5b50813567ffffffffffffffff811115620013f357600080fd5b6020830191508360208285010111156200140c57600080fd5b9250929050565b6000806000604084860312156200142957600080fd5b833562001436816200131b565b9250602084013567ffffffffffffffff8111156200145357600080fd5b6200146186828701620013c7565b9497909650939450505050565b600080602083850312156200148257600080fd5b823567ffffffffffffffff8111156200149a57600080fd5b620014a885828601620013c7565b90969095509350505050565b60008060408385031215620014c857600080fd5b50508035926020909101359150565b60005b83811015620014f4578181015183820152602001620014da565b838111156200074f5750506000910152565b6000815180845262001520816020860160208601620014d7565b601f01601f19169290920160200192915050565b6020815260006200088c602083018462001506565b600181811c908216806200155e57607f821691505b6020821081036200065457634e487b7160e01b600052602260045260246000fd5b6000835162001593818460208801620014d7565b835190830190620015a9818360208801620014d7565b01949350505050565b60008451620015c6818460208901620014d7565b8083019050600160fd1b8082528551620015e8816001850160208a01620014d7565b6001920191820152835162001605816002840160208801620014d7565b0160020195945050505050565b60808152600062001627608083018762001506565b82810360208401526200163b818762001506565b60ff95909516604084015250506001600160a01b039190911660609091015292915050565b634e487b7160e01b600052601160045260246000fd5b600061ffff808316818516808303821115620015a957620015a962001660565b634e487b7160e01b600052604160045260246000fd5b600060208284031215620016bf57600080fd5b815167ffffffffffffffff80821115620016d857600080fd5b818401915084601f830112620016ed57600080fd5b81518181111562001702576200170262001696565b604051601f8201601f19908116603f011681019083821181831017156200172d576200172d62001696565b816040528281528760208487010111156200174757600080fd5b6200175a836020830160208801620014d7565b979650505050505050565b6000602082840312156200177857600080fd5b81516200088c8162001331565b7f416363657373436f6e74726f6c3a206163636f756e7420000000000000000000815260008351620017bf816017850160208801620014d7565b7001034b99036b4b9b9b4b733903937b6329607d1b6017918401918201528351620017f2816028840160208801620014d7565b01602801949350505050565b6020808252602b908201527f496e697469616c697a61626c653a20636f6e7472616374206973206e6f74206960408201526a6e697469616c697a696e6760a81b606082015260800190565b600081600019048311821515161562001866576200186662001660565b500290565b6000821982111562001881576200188162001660565b500190565b634e487b7160e01b600052603260045260246000fd5b600081620018ae57620018ae62001660565b506000190190565b600082821015620018cb57620018cb62001660565b500390565b634e487b7160e01b600052603160045260246000fdfe6101806040527f6e71edae12b1b97f4d1f60370fef10105fa2faae0126114a169c64845d6126c9610140523480156200003757600080fd5b5060405162001994380380620019948339810160408190526200005a9162000382565b8380604051806040016040528060018152602001603160f81b81525086868160039080519060200190620000909291906200020f565b508051620000a69060049060208401906200020f565b5050825160209384012082519284019290922060e08390526101008190524660a0818152604080517f8b73c3c69bb8fe3d512ecc4cf759cc79239f7b179b0ffacaa9a75d522b39400f818901819052818301979097526060810194909452608080850193909352308483018190528151808603909301835260c09485019091528151919096012090529290925261012052506200014590503362000187565b806200015181620001e4565b506007805460ff909316600160a01b0260ff60a01b19909316929092179091556001600160a01b03166101605250620004629050565b600680546001600160a01b038381166001600160a01b03198084168217909455600780549094169093556040519116919082907f343765429aea5a34b3ff6a3785a98a5abb2597aca87bfbb58632c173d585373a90600090a35050565b6001600160a01b0381166200020c5760405163e6c4247b60e01b815260040160405180910390fd5b50565b8280546200021d9062000426565b90600052602060002090601f0160209004810192826200024157600085556200028c565b82601f106200025c57805160ff19168380011785556200028c565b828001600101855582156200028c579182015b828111156200028c5782518255916020019190600101906200026f565b506200029a9291506200029e565b5090565b5b808211156200029a57600081556001016200029f565b634e487b7160e01b600052604160045260246000fd5b600082601f830112620002dd57600080fd5b81516001600160401b0380821115620002fa57620002fa620002b5565b604051601f8301601f19908116603f01168101908282118183101715620003255762000325620002b5565b816040528381526020925086838588010111156200034257600080fd5b600091505b8382101562000366578582018301518183018401529082019062000347565b83821115620003785760008385830101525b9695505050505050565b600080600080608085870312156200039957600080fd5b84516001600160401b0380821115620003b157600080fd5b620003bf88838901620002cb565b95506020870151915080821115620003d657600080fd5b50620003e587828801620002cb565b935050604085015160ff81168114620003fd57600080fd5b60608601519092506001600160a01b03811681146200041b57600080fd5b939692955090935050565b600181811c908216806200043b57607f821691505b6020821081036200045c57634e487b7160e01b600052602260045260246000fd5b50919050565b60805160a05160c05160e051610100516101205161014051610160516114cc620004c8600039600061031f0152600061061f01526000610ba901526000610bf801526000610bd301526000610b2c01526000610b5601526000610b8001526114cc6000f3fe608060405234801561001057600080fd5b506004361061014d5760003560e01c806379ba5097116100c3578063a9059cbb1161007c578063a9059cbb146102c0578063d4ee1d90146102d3578063d505accf146102e4578063dd62ed3e146102f7578063f2fde38b1461030a578063f4325d671461031d57600080fd5b806379ba50971461025257806379cc67901461025a5780637ecebe001461026d5780638da5cb5b1461028057806395d89b41146102a5578063a457c2d7146102ad57600080fd5b80633644e515116101155780633644e515146101d757806339509351146101df57806340c10f19146101f257806342966c681461020757806354fd4d501461021a57806370a082311461022957600080fd5b806306fdde0314610152578063095ea7b31461017057806318160ddd1461019357806323b872dd146101a5578063313ce567146101b8575b600080fd5b61015a610343565b6040516101679190611278565b60405180910390f35b61018361017e3660046112e9565b6103d5565b6040519015158152602001610167565b6002545b604051908152602001610167565b6101836101b3366004611313565b6103ed565b600754600160a01b900460ff1660405160ff9091168152602001610167565b610197610411565b6101836101ed3660046112e9565b610420565b6102056102003660046112e9565b61045f565b005b61020561021536600461134f565b610480565b60405160018152602001610167565b610197610237366004611368565b6001600160a01b031660009081526020819052604090205490565b61020561048d565b6102056102683660046112e9565b6104cf565b61019761027b366004611368565b6104f7565b6006546001600160a01b03165b6040516001600160a01b039091168152602001610167565b61015a610517565b6101836102bb3660046112e9565b610526565b6101836102ce3660046112e9565b6105bd565b6007546001600160a01b031661028d565b6102056102f236600461138a565b6105cb565b6101976103053660046113fd565b61072f565b610205610318366004611368565b61075a565b7f000000000000000000000000000000000000000000000000000000000000000061028d565b60606003805461035290611430565b80601f016020809104026020016040519081016040528092919081815260200182805461037e90611430565b80156103cb5780601f106103a0576101008083540402835291602001916103cb565b820191906000526020600020905b8154815290600101906020018083116103ae57829003601f168201915b5050505050905090565b6000336103e38185856107b3565b5060019392505050565b6000336103fb8582856108d7565b610406858585610951565b506001949350505050565b600061041b610b1f565b905090565b3360008181526001602090815260408083206001600160a01b03871684529091528120549091906103e3908290869061045a90879061147a565b6107b3565b610467610c46565b8161047181610c71565b61047b8383610cad565b505050565b61048a3382610d8c565b50565b6007546001600160a01b031633146104b857604051634ca8886760e01b815260040160405180910390fd5b6007546104cd906001600160a01b0316610eda565b565b6104e98233836104df863361072f565b61045a9190611492565b6104f38282610d8c565b5050565b6001600160a01b0381166000908152600560205260408120545b92915050565b60606004805461035290611430565b3360008181526001602090815260408083206001600160a01b0387168452909152812054909190838110156105b05760405162461bcd60e51b815260206004820152602560248201527f45524332303a2064656372656173656420616c6c6f77616e63652062656c6f77604482015264207a65726f60d81b60648201526084015b60405180910390fd5b61040682868684036107b3565b6000336103e3818585610951565b8342111561061b5760405162461bcd60e51b815260206004820152601d60248201527f45524332305065726d69743a206578706972656420646561646c696e6500000060448201526064016105a7565b60007f000000000000000000000000000000000000000000000000000000000000000088888861064a8c610f37565b6040805160208101969096526001600160a01b0394851690860152929091166060840152608083015260a082015260c0810186905260e00160405160208183030381529060405280519060200120905060006106a582610f5f565b905060006106b582878787610fad565b9050896001600160a01b0316816001600160a01b0316146107185760405162461bcd60e51b815260206004820152601e60248201527f45524332305065726d69743a20696e76616c6964207369676e6174757265000060448201526064016105a7565b6107238a8a8a6107b3565b50505050505050505050565b6001600160a01b03918216600090815260016020908152604080832093909416825291909152205490565b610762610c46565b6006546001600160a01b039081169082160361079157604051630a98f1f360e21b815260040160405180910390fd5b600780546001600160a01b0319166001600160a01b0392909216919091179055565b6001600160a01b0383166108155760405162461bcd60e51b8152602060048201526024808201527f45524332303a20617070726f76652066726f6d20746865207a65726f206164646044820152637265737360e01b60648201526084016105a7565b6001600160a01b0382166108765760405162461bcd60e51b815260206004820152602260248201527f45524332303a20617070726f766520746f20746865207a65726f206164647265604482015261737360f01b60648201526084016105a7565b6001600160a01b0383811660008181526001602090815260408083209487168084529482529182902085905590518481527f8c5be1e5ebec7d5bd14f71427d1e84f3dd0314c0f7b2291e5b200ac8c7c3b925910160405180910390a3505050565b60006108e3848461072f565b9050600019811461094b578181101561093e5760405162461bcd60e51b815260206004820152601d60248201527f45524332303a20696e73756666696369656e7420616c6c6f77616e636500000060448201526064016105a7565b61094b84848484036107b3565b50505050565b6001600160a01b0383166109b55760405162461bcd60e51b815260206004820152602560248201527f45524332303a207472616e736665722066726f6d20746865207a65726f206164604482015264647265737360d81b60648201526084016105a7565b6001600160a01b038216610a175760405162461bcd60e51b815260206004820152602360248201527f45524332303a207472616e7366657220746f20746865207a65726f206164647260448201526265737360e81b60648201526084016105a7565b6001600160a01b03831660009081526020819052604090205481811015610a8f5760405162461bcd60e51b815260206004820152602660248201527f45524332303a207472616e7366657220616d6f756e7420657863656564732062604482015265616c616e636560d01b60648201526084016105a7565b6001600160a01b03808516600090815260208190526040808220858503905591851681529081208054849290610ac690849061147a565b92505081905550826001600160a01b0316846001600160a01b03167fddf252ad1be2c89b69c2b068fc378daa952ba7f163c4a11628f55a4df523b3ef84604051610b1291815260200190565b60405180910390a361094b565b6000306001600160a01b037f000000000000000000000000000000000000000000000000000000000000000016148015610b7857507f000000000000000000000000000000000000000000000000000000000000000046145b15610ba257507f000000000000000000000000000000000000000000000000000000000000000090565b50604080517f00000000000000000000000000000000000000000000000000000000000000006020808301919091527f0000000000000000000000000000000000000000000000000000000000000000828401527f000000000000000000000000000000000000000000000000000000000000000060608301524660808301523060a0808401919091528351808403909101815260c0909201909252805191012090565b6006546001600160a01b031633146104cd57604051634ca8886760e01b815260040160405180910390fd5b6001600160a01b0381161580610c8f57506001600160a01b03811630145b1561048a57604051638e052b6760e01b815260040160405180910390fd5b6001600160a01b038216610d035760405162461bcd60e51b815260206004820152601f60248201527f45524332303a206d696e7420746f20746865207a65726f20616464726573730060448201526064016105a7565b8060026000828254610d15919061147a565b90915550506001600160a01b03821660009081526020819052604081208054839290610d4290849061147a565b90915550506040518181526001600160a01b038316906000907fddf252ad1be2c89b69c2b068fc378daa952ba7f163c4a11628f55a4df523b3ef9060200160405180910390a35050565b6001600160a01b038216610dec5760405162461bcd60e51b815260206004820152602160248201527f45524332303a206275726e2066726f6d20746865207a65726f206164647265736044820152607360f81b60648201526084016105a7565b6001600160a01b03821660009081526020819052604090205481811015610e605760405162461bcd60e51b815260206004820152602260248201527f45524332303a206275726e20616d6f756e7420657863656564732062616c616e604482015261636560f01b60648201526084016105a7565b6001600160a01b0383166000908152602081905260408120838303905560028054849290610e8f908490611492565b90915550506040518281526000906001600160a01b038516907fddf252ad1be2c89b69c2b068fc378daa952ba7f163c4a11628f55a4df523b3ef9060200160405180910390a3505050565b600680546001600160a01b038381166001600160a01b03198084168217909455600780549094169093556040519116919082907f343765429aea5a34b3ff6a3785a98a5abb2597aca87bfbb58632c173d585373a90600090a35050565b6001600160a01b03811660009081526005602052604090208054600181018255905b50919050565b6000610511610f6c610b1f565b8360405161190160f01b6020820152602281018390526042810182905260009060620160405160208183030381529060405280519060200120905092915050565b6000806000610fbe87878787610fd5565b91509150610fcb816110c2565b5095945050505050565b6000807f7fffffffffffffffffffffffffffffff5d576e7357a4501ddfe92f46681b20a083111561100c57506000905060036110b9565b8460ff16601b1415801561102457508460ff16601c14155b1561103557506000905060046110b9565b6040805160008082526020820180845289905260ff881692820192909252606081018690526080810185905260019060a0016020604051602081039080840390855afa158015611089573d6000803e3d6000fd5b5050604051601f1901519150506001600160a01b0381166110b2576000600192509250506110b9565b9150600090505b94509492505050565b60008160048111156110d6576110d66114a9565b036110de5750565b60018160048111156110f2576110f26114a9565b0361113f5760405162461bcd60e51b815260206004820152601860248201527f45434453413a20696e76616c6964207369676e6174757265000000000000000060448201526064016105a7565b6002816004811115611153576111536114a9565b036111a05760405162461bcd60e51b815260206004820152601f60248201527f45434453413a20696e76616c6964207369676e6174757265206c656e6774680060448201526064016105a7565b60038160048111156111b4576111b46114a9565b0361120c5760405162461bcd60e51b815260206004820152602260248201527f45434453413a20696e76616c6964207369676e6174757265202773272076616c604482015261756560f01b60648201526084016105a7565b6004816004811115611220576112206114a9565b0361048a5760405162461bcd60e51b815260206004820152602260248201527f45434453413a20696e76616c6964207369676e6174757265202776272076616c604482015261756560f01b60648201526084016105a7565b600060208083528351808285015260005b818110156112a557858101830151858201604001528201611289565b818111156112b7576000604083870101525b50601f01601f1916929092016040019392505050565b80356001600160a01b03811681146112e457600080fd5b919050565b600080604083850312156112fc57600080fd5b611305836112cd565b946020939093013593505050565b60008060006060848603121561132857600080fd5b611331846112cd565b925061133f602085016112cd565b9150604084013590509250925092565b60006020828403121561136157600080fd5b5035919050565b60006020828403121561137a57600080fd5b611383826112cd565b9392505050565b600080600080600080600060e0888a0312156113a557600080fd5b6113ae886112cd565b96506113bc602089016112cd565b95506040880135945060608801359350608088013560ff811681146113e057600080fd5b9699959850939692959460a0840135945060c09093013592915050565b6000806040838503121561141057600080fd5b611419836112cd565b9150611427602084016112cd565b90509250929050565b600181811c9082168061144457607f821691505b602082108103610f5957634e487b7160e01b600052602260045260246000fd5b634e487b7160e01b600052601160045260246000fd5b6000821982111561148d5761148d611464565b500190565b6000828210156114a4576114a4611464565b500390565b634e487b7160e01b600052602160045260246000fdfea164736f6c634300080d000a2172861495e7b85edac73e3cd5fbb42dd675baadf627720e687bcfdaca025096a164736f6c634300080d000a",
  "devdoc": {
    "details": "Pool Token Factory contract",
    "events": {
      "PoolTokenCreated(address,address)": {
        "details": "triggered when a pool token is created"
      }
    },
    "kind": "dev",
    "methods": {
      "createPoolToken(address)": {
        "details": "creates a pool token for the specified token"
      },
      "getRoleAdmin(bytes32)": {
        "details": "Returns the admin role that controls `role`. See {grantRole} and {revokeRole}. To change a role's admin, use {_setRoleAdmin}."
      },
      "getRoleMember(bytes32,uint256)": {
        "details": "Returns one of the accounts that have `role`. `index` must be a value between 0 and {getRoleMemberCount}, non-inclusive. Role bearers are not sorted in any particular way, and their ordering may change at any point. WARNING: When using {getRoleMember} and {getRoleMemberCount}, make sure you perform all queries on the same block. See the following https://forum.openzeppelin.com/t/iterating-over-elements-on-enumerableset-in-openzeppelin-contracts/2296[forum post] for more information."
      },
      "getRoleMemberCount(bytes32)": {
        "details": "Returns the number of accounts that have `role`. Can be used together with {getRoleMember} to enumerate all bearers of a role."
      },
      "grantRole(bytes32,address)": {
        "details": "Grants `role` to `account`. If `account` had not been already granted `role`, emits a {RoleGranted} event. Requirements: - the caller must have ``role``'s admin role."
      },
      "hasRole(bytes32,address)": {
        "details": "Returns `true` if `account` has been granted `role`."
      },
      "initialize()": {
        "details": "fully initializes the contract and its parents"
      },
      "postUpgrade(bytes)": {
        "details": "performs post-upgrade initialization requirements: - this must can be called only once per-upgrade"
      },
      "renounceRole(bytes32,address)": {
        "details": "Revokes `role` from the calling account. Roles are often managed via {grantRole} and {revokeRole}: this function's purpose is to provide a mechanism for accounts to lose their privileges if they are compromised (such as when a trusted device is misplaced). If the calling account had been revoked `role`, emits a {RoleRevoked} event. Requirements: - the caller must be `account`."
      },
      "revokeRole(bytes32,address)": {
        "details": "Revokes `role` from `account`. If `account` had been granted `role`, emits a {RoleRevoked} event. Requirements: - the caller must have ``role``'s admin role."
      },
      "roleAdmin()": {
        "details": "returns the admin role"
      },
      "setTokenDecimalsOverride(address,uint8)": {
        "details": "sets the decimals override for a given reserve token requirements: - the caller must be the admin of the contract"
      },
      "setTokenSymbolOverride(address,string)": {
        "details": "sets the custom symbol override for a given reserve token requirements: - the caller must be the admin of the contract"
      },
      "supportsInterface(bytes4)": {
        "details": "See {IERC165-supportsInterface}."
      },
      "tokenDecimalsOverride(address)": {
        "details": "returns the custom decimals override for a given reserve token"
      },
      "tokenSymbolOverride(address)": {
        "details": "returns the custom symbol override for a given reserve token"
      }
    },
    "version": 1
  },
  "userdoc": {
    "kind": "user",
    "methods": {},
    "version": 1
  },
  "storageLayout": {
    "storage": [
      {
        "astId": 644,
        "contract": "contracts/pools/PoolTokenFactory.sol:PoolTokenFactory",
        "label": "_initialized",
        "offset": 0,
        "slot": "0",
        "type": "t_bool"
      },
      {
        "astId": 647,
        "contract": "contracts/pools/PoolTokenFactory.sol:PoolTokenFactory",
        "label": "_initializing",
        "offset": 1,
        "slot": "0",
        "type": "t_bool"
      },
      {
        "astId": 1165,
        "contract": "contracts/pools/PoolTokenFactory.sol:PoolTokenFactory",
        "label": "__gap",
        "offset": 0,
        "slot": "1",
        "type": "t_array(t_uint256)50_storage"
      },
      {
        "astId": 1412,
        "contract": "contracts/pools/PoolTokenFactory.sol:PoolTokenFactory",
        "label": "__gap",
        "offset": 0,
        "slot": "51",
        "type": "t_array(t_uint256)50_storage"
      },
      {
        "astId": 250,
        "contract": "contracts/pools/PoolTokenFactory.sol:PoolTokenFactory",
        "label": "_roles",
        "offset": 0,
        "slot": "101",
        "type": "t_mapping(t_bytes32,t_struct(RoleData)245_storage)"
      },
      {
        "astId": 538,
        "contract": "contracts/pools/PoolTokenFactory.sol:PoolTokenFactory",
        "label": "__gap",
        "offset": 0,
        "slot": "102",
        "type": "t_array(t_uint256)49_storage"
      },
      {
        "astId": 99,
        "contract": "contracts/pools/PoolTokenFactory.sol:PoolTokenFactory",
        "label": "_roleMembers",
        "offset": 0,
        "slot": "151",
        "type": "t_mapping(t_bytes32,t_struct(AddressSet)1737_storage)"
      },
      {
        "astId": 209,
        "contract": "contracts/pools/PoolTokenFactory.sol:PoolTokenFactory",
        "label": "__gap",
        "offset": 0,
        "slot": "152",
        "type": "t_array(t_uint256)49_storage"
      },
      {
        "astId": 31197,
        "contract": "contracts/pools/PoolTokenFactory.sol:PoolTokenFactory",
        "label": "_initializations",
        "offset": 0,
        "slot": "201",
        "type": "t_uint16"
      },
      {
        "astId": 31203,
        "contract": "contracts/pools/PoolTokenFactory.sol:PoolTokenFactory",
        "label": "__gap",
        "offset": 0,
        "slot": "202",
        "type": "t_array(t_uint256)49_storage"
      },
      {
        "astId": 24417,
        "contract": "contracts/pools/PoolTokenFactory.sol:PoolTokenFactory",
        "label": "_tokenSymbolOverrides",
        "offset": 0,
        "slot": "251",
        "type": "t_mapping(t_contract(Token)29105,t_string_storage)"
      },
      {
        "astId": 24422,
        "contract": "contracts/pools/PoolTokenFactory.sol:PoolTokenFactory",
        "label": "_tokenDecimalsOverrides",
        "offset": 0,
        "slot": "252",
        "type": "t_mapping(t_contract(Token)29105,t_uint8)"
      },
      {
        "astId": 24428,
        "contract": "contracts/pools/PoolTokenFactory.sol:PoolTokenFactory",
        "label": "__gap",
        "offset": 0,
        "slot": "253",
        "type": "t_array(t_uint256)48_storage"
      }
    ],
    "types": {
      "t_address": {
        "encoding": "inplace",
        "label": "address",
        "numberOfBytes": "20"
      },
      "t_array(t_bytes32)dyn_storage": {
        "base": "t_bytes32",
        "encoding": "dynamic_array",
        "label": "bytes32[]",
        "numberOfBytes": "32"
      },
      "t_array(t_uint256)48_storage": {
        "base": "t_uint256",
        "encoding": "inplace",
        "label": "uint256[48]",
        "numberOfBytes": "1536"
      },
      "t_array(t_uint256)49_storage": {
        "base": "t_uint256",
        "encoding": "inplace",
        "label": "uint256[49]",
        "numberOfBytes": "1568"
      },
      "t_array(t_uint256)50_storage": {
        "base": "t_uint256",
        "encoding": "inplace",
        "label": "uint256[50]",
        "numberOfBytes": "1600"
      },
      "t_bool": {
        "encoding": "inplace",
        "label": "bool",
        "numberOfBytes": "1"
      },
      "t_bytes32": {
        "encoding": "inplace",
        "label": "bytes32",
        "numberOfBytes": "32"
      },
      "t_contract(Token)29105": {
        "encoding": "inplace",
        "label": "contract Token",
        "numberOfBytes": "20"
      },
      "t_mapping(t_address,t_bool)": {
        "encoding": "mapping",
        "key": "t_address",
        "label": "mapping(address => bool)",
        "numberOfBytes": "32",
        "value": "t_bool"
      },
      "t_mapping(t_bytes32,t_struct(AddressSet)1737_storage)": {
        "encoding": "mapping",
        "key": "t_bytes32",
        "label": "mapping(bytes32 => struct EnumerableSetUpgradeable.AddressSet)",
        "numberOfBytes": "32",
        "value": "t_struct(AddressSet)1737_storage"
      },
      "t_mapping(t_bytes32,t_struct(RoleData)245_storage)": {
        "encoding": "mapping",
        "key": "t_bytes32",
        "label": "mapping(bytes32 => struct AccessControlUpgradeable.RoleData)",
        "numberOfBytes": "32",
        "value": "t_struct(RoleData)245_storage"
      },
      "t_mapping(t_bytes32,t_uint256)": {
        "encoding": "mapping",
        "key": "t_bytes32",
        "label": "mapping(bytes32 => uint256)",
        "numberOfBytes": "32",
        "value": "t_uint256"
      },
      "t_mapping(t_contract(Token)29105,t_string_storage)": {
        "encoding": "mapping",
        "key": "t_contract(Token)29105",
        "label": "mapping(contract Token => string)",
        "numberOfBytes": "32",
        "value": "t_string_storage"
      },
      "t_mapping(t_contract(Token)29105,t_uint8)": {
        "encoding": "mapping",
        "key": "t_contract(Token)29105",
        "label": "mapping(contract Token => uint8)",
        "numberOfBytes": "32",
        "value": "t_uint8"
      },
      "t_string_storage": {
        "encoding": "bytes",
        "label": "string",
        "numberOfBytes": "32"
      },
      "t_struct(AddressSet)1737_storage": {
        "encoding": "inplace",
        "label": "struct EnumerableSetUpgradeable.AddressSet",
        "members": [
          {
            "astId": 1736,
            "contract": "contracts/pools/PoolTokenFactory.sol:PoolTokenFactory",
            "label": "_inner",
            "offset": 0,
            "slot": "0",
            "type": "t_struct(Set)1436_storage"
          }
        ],
        "numberOfBytes": "64"
      },
      "t_struct(RoleData)245_storage": {
        "encoding": "inplace",
        "label": "struct AccessControlUpgradeable.RoleData",
        "members": [
          {
            "astId": 242,
            "contract": "contracts/pools/PoolTokenFactory.sol:PoolTokenFactory",
            "label": "members",
            "offset": 0,
            "slot": "0",
            "type": "t_mapping(t_address,t_bool)"
          },
          {
            "astId": 244,
            "contract": "contracts/pools/PoolTokenFactory.sol:PoolTokenFactory",
            "label": "adminRole",
            "offset": 0,
            "slot": "1",
            "type": "t_bytes32"
          }
        ],
        "numberOfBytes": "64"
      },
      "t_struct(Set)1436_storage": {
        "encoding": "inplace",
        "label": "struct EnumerableSetUpgradeable.Set",
        "members": [
          {
            "astId": 1431,
            "contract": "contracts/pools/PoolTokenFactory.sol:PoolTokenFactory",
            "label": "_values",
            "offset": 0,
            "slot": "0",
            "type": "t_array(t_bytes32)dyn_storage"
          },
          {
            "astId": 1435,
            "contract": "contracts/pools/PoolTokenFactory.sol:PoolTokenFactory",
            "label": "_indexes",
            "offset": 0,
            "slot": "1",
            "type": "t_mapping(t_bytes32,t_uint256)"
          }
        ],
        "numberOfBytes": "64"
      },
      "t_uint16": {
        "encoding": "inplace",
        "label": "uint16",
        "numberOfBytes": "2"
      },
      "t_uint256": {
        "encoding": "inplace",
        "label": "uint256",
        "numberOfBytes": "32"
      },
      "t_uint8": {
        "encoding": "inplace",
        "label": "uint8",
        "numberOfBytes": "1"
      }
    }
  }
}