{
  "address": "0xB67d563287D12B1F41579cB687b04988Ad564C6C",
  "abi": [
    {
      "inputs": [
        {
          "internalType": "contract IBancorNetwork",
          "name": "initNetwork",
          "type": "address"
        },
        {
          "internalType": "contract IERC20",
          "name": "initBNT",
          "type": "address"
        },
        {
          "internalType": "contract INetworkSettings",
          "name": "initNetworkSettings",
          "type": "address"
        },
        {
          "internalType": "contract IMasterVault",
          "name": "initMasterVault",
          "type": "address"
        },
        {
          "internalType": "contract IBNTPool",
          "name": "initBNTPool",
          "type": "address"
        },
        {
          "internalType": "contract IExternalProtectionVault",
          "name": "initExternalProtectionVault",
          "type": "address"
        },
        {
          "internalType": "contract IPoolTokenFactory",
          "name": "initPoolTokenFactory",
          "type": "address"
        },
        {
          "internalType": "contract IPoolMigrator",
          "name": "initPoolMigrator",
          "type": "address"
        }
      ],
      "stateMutability": "nonpayable",
      "type": "constructor"
    },
    {
      "inputs": [],
      "name": "AccessDenied",
      "type": "error"
    },
    {
      "inputs": [],
      "name": "AlreadyEnabled",
      "type": "error"
    },
    {
      "inputs": [],
      "name": "AlreadyExists",
      "type": "error"
    },
    {
      "inputs": [],
      "name": "DepositingDisabled",
      "type": "error"
    },
    {
      "inputs": [],
      "name": "DoesNotExist",
      "type": "error"
    },
    {
      "inputs": [],
      "name": "FundingLimitTooHigh",
      "type": "error"
    },
    {
      "inputs": [],
      "name": "InsufficientLiquidity",
      "type": "error"
    },
    {
      "inputs": [],
      "name": "InsufficientSourceAmount",
      "type": "error"
    },
    {
      "inputs": [],
      "name": "InsufficientTargetAmount",
      "type": "error"
    },
    {
      "inputs": [],
      "name": "InvalidAddress",
      "type": "error"
    },
    {
      "inputs": [],
      "name": "InvalidFee",
      "type": "error"
    },
    {
      "inputs": [],
      "name": "InvalidFraction",
      "type": "error"
    },
    {
      "inputs": [],
      "name": "InvalidParam",
      "type": "error"
    },
    {
      "inputs": [],
      "name": "InvalidRate",
      "type": "error"
    },
    {
      "inputs": [],
      "name": "InvalidStakedBalance",
      "type": "error"
    },
    {
      "inputs": [],
      "name": "NotWhitelisted",
      "type": "error"
    },
    {
      "inputs": [],
      "name": "Overflow",
      "type": "error"
    },
    {
      "inputs": [],
      "name": "PoolCollectionWithdrawalInputInvalid",
      "type": "error"
    },
    {
      "inputs": [],
      "name": "RateUnstable",
      "type": "error"
    },
    {
      "inputs": [],
      "name": "SameOwner",
      "type": "error"
    },
    {
      "inputs": [],
      "name": "TradingDisabled",
      "type": "error"
    },
    {
      "inputs": [],
      "name": "ZeroValue",
      "type": "error"
    },
    {
      "anonymous": false,
      "inputs": [
        {
          "indexed": false,
          "internalType": "uint32",
          "name": "prevFeePPM",
          "type": "uint32"
        },
        {
          "indexed": false,
          "internalType": "uint32",
          "name": "newFeePPM",
          "type": "uint32"
        }
      ],
      "name": "DefaultTradingFeePPMUpdated",
      "type": "event"
    },
    {
      "anonymous": false,
      "inputs": [
        {
          "indexed": true,
          "internalType": "contract Token",
          "name": "pool",
          "type": "address"
        },
        {
          "indexed": true,
          "internalType": "bool",
          "name": "newStatus",
          "type": "bool"
        }
      ],
      "name": "DepositingEnabled",
      "type": "event"
    },
    {
      "anonymous": false,
      "inputs": [
        {
          "indexed": false,
          "internalType": "uint32",
          "name": "prevFeePPM",
          "type": "uint32"
        },
        {
          "indexed": false,
          "internalType": "uint32",
          "name": "newFeePPM",
          "type": "uint32"
        }
      ],
      "name": "NetworkFeePPMUpdated",
      "type": "event"
    },
    {
      "anonymous": false,
      "inputs": [
        {
          "indexed": true,
          "internalType": "address",
          "name": "prevOwner",
          "type": "address"
        },
        {
          "indexed": true,
          "internalType": "address",
          "name": "newOwner",
          "type": "address"
        }
      ],
      "name": "OwnerUpdate",
      "type": "event"
    },
    {
      "anonymous": false,
      "inputs": [
        {
          "indexed": true,
          "internalType": "bytes32",
          "name": "contextId",
          "type": "bytes32"
        },
        {
          "indexed": true,
          "internalType": "address",
          "name": "provider",
          "type": "address"
        },
        {
          "indexed": true,
          "internalType": "contract Token",
          "name": "token",
          "type": "address"
        },
        {
          "indexed": false,
          "internalType": "uint256",
          "name": "baseTokenAmount",
          "type": "uint256"
        },
        {
          "indexed": false,
          "internalType": "uint256",
          "name": "poolTokenAmount",
          "type": "uint256"
        }
      ],
      "name": "TokensDeposited",
      "type": "event"
    },
    {
      "anonymous": false,
      "inputs": [
        {
          "indexed": true,
          "internalType": "bytes32",
          "name": "contextId",
          "type": "bytes32"
        },
        {
          "indexed": true,
          "internalType": "address",
          "name": "provider",
          "type": "address"
        },
        {
          "indexed": true,
          "internalType": "contract Token",
          "name": "token",
          "type": "address"
        },
        {
          "indexed": false,
          "internalType": "uint256",
          "name": "baseTokenAmount",
          "type": "uint256"
        },
        {
          "indexed": false,
          "internalType": "uint256",
          "name": "poolTokenAmount",
          "type": "uint256"
        },
        {
          "indexed": false,
          "internalType": "uint256",
          "name": "externalProtectionBaseTokenAmount",
          "type": "uint256"
        },
        {
          "indexed": false,
          "internalType": "uint256",
          "name": "bntAmount",
          "type": "uint256"
        },
        {
          "indexed": false,
          "internalType": "uint256",
          "name": "withdrawalFeeAmount",
          "type": "uint256"
        }
      ],
      "name": "TokensWithdrawn",
      "type": "event"
    },
    {
      "anonymous": false,
      "inputs": [
        {
          "indexed": true,
          "internalType": "bytes32",
          "name": "contextId",
          "type": "bytes32"
        },
        {
          "indexed": true,
          "internalType": "contract Token",
          "name": "pool",
          "type": "address"
        },
        {
          "indexed": false,
          "internalType": "uint256",
          "name": "liquidity",
          "type": "uint256"
        },
        {
          "indexed": false,
          "internalType": "uint256",
          "name": "stakedBalance",
          "type": "uint256"
        },
        {
          "indexed": false,
          "internalType": "uint256",
          "name": "poolTokenSupply",
          "type": "uint256"
        }
      ],
      "name": "TotalLiquidityUpdated",
      "type": "event"
    },
    {
      "anonymous": false,
      "inputs": [
        {
          "indexed": true,
          "internalType": "contract Token",
          "name": "pool",
          "type": "address"
        },
        {
          "indexed": true,
          "internalType": "bool",
          "name": "newStatus",
          "type": "bool"
        },
        {
          "indexed": true,
          "internalType": "uint8",
          "name": "reason",
          "type": "uint8"
        }
      ],
      "name": "TradingEnabled",
      "type": "event"
    },
    {
      "anonymous": false,
      "inputs": [
        {
          "indexed": true,
          "internalType": "contract Token",
          "name": "pool",
          "type": "address"
        },
        {
          "indexed": false,
          "internalType": "uint32",
          "name": "prevFeePPM",
          "type": "uint32"
        },
        {
          "indexed": false,
          "internalType": "uint32",
          "name": "newFeePPM",
          "type": "uint32"
        }
      ],
      "name": "TradingFeePPMUpdated",
      "type": "event"
    },
    {
      "anonymous": false,
      "inputs": [
        {
          "indexed": true,
          "internalType": "bytes32",
          "name": "contextId",
          "type": "bytes32"
        },
        {
          "indexed": true,
          "internalType": "contract Token",
          "name": "pool",
          "type": "address"
        },
        {
          "indexed": true,
          "internalType": "contract Token",
          "name": "token",
          "type": "address"
        },
        {
          "indexed": false,
          "internalType": "uint256",
          "name": "prevLiquidity",
          "type": "uint256"
        },
        {
          "indexed": false,
          "internalType": "uint256",
          "name": "newLiquidity",
          "type": "uint256"
        }
      ],
      "name": "TradingLiquidityUpdated",
      "type": "event"
    },
    {
      "inputs": [],
      "name": "acceptOwnership",
      "outputs": [],
      "stateMutability": "nonpayable",
      "type": "function"
    },
    {
      "inputs": [
        {
          "internalType": "contract Token",
          "name": "token",
          "type": "address"
        }
      ],
      "name": "createPool",
      "outputs": [],
      "stateMutability": "nonpayable",
      "type": "function"
    },
    {
      "inputs": [],
      "name": "defaultTradingFeePPM",
      "outputs": [
        {
          "internalType": "uint32",
          "name": "",
          "type": "uint32"
        }
      ],
      "stateMutability": "view",
      "type": "function"
    },
    {
      "inputs": [
        {
          "internalType": "bytes32",
          "name": "contextId",
          "type": "bytes32"
        },
        {
          "internalType": "address",
          "name": "provider",
          "type": "address"
        },
        {
          "internalType": "contract Token",
          "name": "pool",
          "type": "address"
        },
        {
          "internalType": "uint256",
          "name": "baseTokenAmount",
          "type": "uint256"
        }
      ],
      "name": "depositFor",
      "outputs": [
        {
          "internalType": "uint256",
          "name": "",
          "type": "uint256"
        }
      ],
      "stateMutability": "nonpayable",
      "type": "function"
    },
    {
      "inputs": [
        {
          "internalType": "contract Token",
          "name": "pool",
          "type": "address"
        }
      ],
      "name": "depositingEnabled",
      "outputs": [
        {
          "internalType": "bool",
          "name": "",
          "type": "bool"
        }
      ],
      "stateMutability": "view",
      "type": "function"
    },
    {
      "inputs": [
        {
          "internalType": "contract Token",
          "name": "pool",
          "type": "address"
        }
      ],
      "name": "disableTrading",
      "outputs": [],
      "stateMutability": "nonpayable",
      "type": "function"
    },
    {
      "inputs": [
        {
          "internalType": "contract Token",
          "name": "pool",
          "type": "address"
        },
        {
          "internalType": "bool",
          "name": "status",
          "type": "bool"
        }
      ],
      "name": "enableDepositing",
      "outputs": [],
      "stateMutability": "nonpayable",
      "type": "function"
    },
    {
      "inputs": [
        {
          "internalType": "bool",
          "name": "status",
          "type": "bool"
        }
      ],
      "name": "enableProtection",
      "outputs": [],
      "stateMutability": "nonpayable",
      "type": "function"
    },
    {
      "inputs": [
        {
          "internalType": "contract Token",
          "name": "pool",
          "type": "address"
        },
        {
          "internalType": "uint256",
          "name": "bntVirtualBalance",
          "type": "uint256"
        },
        {
          "internalType": "uint256",
          "name": "baseTokenVirtualBalance",
          "type": "uint256"
        }
      ],
      "name": "enableTrading",
      "outputs": [],
      "stateMutability": "nonpayable",
      "type": "function"
    },
    {
      "inputs": [
        {
          "internalType": "contract Token",
          "name": "pool",
          "type": "address"
        }
      ],
      "name": "isPoolStable",
      "outputs": [
        {
          "internalType": "bool",
          "name": "",
          "type": "bool"
        }
      ],
      "stateMutability": "view",
      "type": "function"
    },
    {
      "inputs": [
        {
          "internalType": "contract Token",
          "name": "pool",
          "type": "address"
        }
      ],
      "name": "isPoolValid",
      "outputs": [
        {
          "internalType": "bool",
          "name": "",
          "type": "bool"
        }
      ],
      "stateMutability": "view",
      "type": "function"
    },
    {
      "inputs": [
        {
          "internalType": "contract Token",
          "name": "pool",
          "type": "address"
        },
        {
          "components": [
            {
              "internalType": "contract IPoolToken",
              "name": "poolToken",
              "type": "address"
            },
            {
              "internalType": "uint32",
              "name": "tradingFeePPM",
              "type": "uint32"
            },
            {
              "internalType": "bool",
              "name": "tradingEnabled",
              "type": "bool"
            },
            {
              "internalType": "bool",
              "name": "depositingEnabled",
              "type": "bool"
            },
            {
              "components": [
                {
                  "internalType": "uint32",
                  "name": "blockNumber",
                  "type": "uint32"
                },
                {
                  "components": [
                    {
                      "internalType": "uint112",
                      "name": "n",
                      "type": "uint112"
                    },
                    {
                      "internalType": "uint112",
                      "name": "d",
                      "type": "uint112"
                    }
                  ],
                  "internalType": "struct Fraction112",
                  "name": "rate",
                  "type": "tuple"
                },
                {
                  "components": [
                    {
                      "internalType": "uint112",
                      "name": "n",
                      "type": "uint112"
                    },
                    {
                      "internalType": "uint112",
                      "name": "d",
                      "type": "uint112"
                    }
                  ],
                  "internalType": "struct Fraction112",
                  "name": "invRate",
                  "type": "tuple"
                }
              ],
              "internalType": "struct AverageRates",
              "name": "averageRates",
              "type": "tuple"
            },
            {
              "components": [
                {
                  "internalType": "uint128",
                  "name": "bntTradingLiquidity",
                  "type": "uint128"
                },
                {
                  "internalType": "uint128",
                  "name": "baseTokenTradingLiquidity",
                  "type": "uint128"
                },
                {
                  "internalType": "uint256",
                  "name": "stakedBalance",
                  "type": "uint256"
                }
              ],
              "internalType": "struct PoolLiquidity",
              "name": "liquidity",
              "type": "tuple"
            }
          ],
          "internalType": "struct Pool",
          "name": "data",
          "type": "tuple"
        }
      ],
      "name": "migratePoolIn",
      "outputs": [],
      "stateMutability": "nonpayable",
      "type": "function"
    },
    {
      "inputs": [
        {
          "internalType": "contract Token",
          "name": "pool",
          "type": "address"
        },
        {
          "internalType": "contract IPoolCollection",
          "name": "targetPoolCollection",
          "type": "address"
        }
      ],
      "name": "migratePoolOut",
      "outputs": [],
      "stateMutability": "nonpayable",
      "type": "function"
    },
    {
      "inputs": [],
      "name": "networkFeePPM",
      "outputs": [
        {
          "internalType": "uint32",
          "name": "",
          "type": "uint32"
        }
      ],
      "stateMutability": "view",
      "type": "function"
    },
    {
      "inputs": [],
      "name": "newOwner",
      "outputs": [
        {
          "internalType": "address",
          "name": "",
          "type": "address"
        }
      ],
      "stateMutability": "view",
      "type": "function"
    },
    {
      "inputs": [
        {
          "internalType": "contract Token",
          "name": "pool",
          "type": "address"
        },
        {
          "internalType": "uint256",
          "name": "feeAmount",
          "type": "uint256"
        }
      ],
      "name": "onFeesCollected",
      "outputs": [],
      "stateMutability": "nonpayable",
      "type": "function"
    },
    {
      "inputs": [],
      "name": "owner",
      "outputs": [
        {
          "internalType": "address",
          "name": "",
          "type": "address"
        }
      ],
      "stateMutability": "view",
      "type": "function"
    },
    {
      "inputs": [],
      "name": "poolCount",
      "outputs": [
        {
          "internalType": "uint256",
          "name": "",
          "type": "uint256"
        }
      ],
      "stateMutability": "view",
      "type": "function"
    },
    {
      "inputs": [
        {
          "internalType": "contract Token",
          "name": "pool",
          "type": "address"
        }
      ],
      "name": "poolData",
      "outputs": [
        {
          "components": [
            {
              "internalType": "contract IPoolToken",
              "name": "poolToken",
              "type": "address"
            },
            {
              "internalType": "uint32",
              "name": "tradingFeePPM",
              "type": "uint32"
            },
            {
              "internalType": "bool",
              "name": "tradingEnabled",
              "type": "bool"
            },
            {
              "internalType": "bool",
              "name": "depositingEnabled",
              "type": "bool"
            },
            {
              "components": [
                {
                  "internalType": "uint32",
                  "name": "blockNumber",
                  "type": "uint32"
                },
                {
                  "components": [
                    {
                      "internalType": "uint112",
                      "name": "n",
                      "type": "uint112"
                    },
                    {
                      "internalType": "uint112",
                      "name": "d",
                      "type": "uint112"
                    }
                  ],
                  "internalType": "struct Fraction112",
                  "name": "rate",
                  "type": "tuple"
                },
                {
                  "components": [
                    {
                      "internalType": "uint112",
                      "name": "n",
                      "type": "uint112"
                    },
                    {
                      "internalType": "uint112",
                      "name": "d",
                      "type": "uint112"
                    }
                  ],
                  "internalType": "struct Fraction112",
                  "name": "invRate",
                  "type": "tuple"
                }
              ],
              "internalType": "struct AverageRates",
              "name": "averageRates",
              "type": "tuple"
            },
            {
              "components": [
                {
                  "internalType": "uint128",
                  "name": "bntTradingLiquidity",
                  "type": "uint128"
                },
                {
                  "internalType": "uint128",
                  "name": "baseTokenTradingLiquidity",
                  "type": "uint128"
                },
                {
                  "internalType": "uint256",
                  "name": "stakedBalance",
                  "type": "uint256"
                }
              ],
              "internalType": "struct PoolLiquidity",
              "name": "liquidity",
              "type": "tuple"
            }
          ],
          "internalType": "struct Pool",
          "name": "",
          "type": "tuple"
        }
      ],
      "stateMutability": "view",
      "type": "function"
    },
    {
      "inputs": [
        {
          "internalType": "contract Token",
          "name": "pool",
          "type": "address"
        }
      ],
      "name": "poolLiquidity",
      "outputs": [
        {
          "components": [
            {
              "internalType": "uint128",
              "name": "bntTradingLiquidity",
              "type": "uint128"
            },
            {
              "internalType": "uint128",
              "name": "baseTokenTradingLiquidity",
              "type": "uint128"
            },
            {
              "internalType": "uint256",
              "name": "stakedBalance",
              "type": "uint256"
            }
          ],
          "internalType": "struct PoolLiquidity",
          "name": "",
          "type": "tuple"
        }
      ],
      "stateMutability": "view",
      "type": "function"
    },
    {
      "inputs": [
        {
          "internalType": "contract Token",
          "name": "pool",
          "type": "address"
        }
      ],
      "name": "poolToken",
      "outputs": [
        {
          "internalType": "contract IPoolToken",
          "name": "",
          "type": "address"
        }
      ],
      "stateMutability": "view",
      "type": "function"
    },
    {
      "inputs": [
        {
          "internalType": "contract Token",
          "name": "pool",
          "type": "address"
        },
        {
          "internalType": "uint256",
          "name": "baseTokenAmountToDistribute",
          "type": "uint256"
        },
        {
          "internalType": "uint256",
          "name": "protocolPoolTokenAmount",
          "type": "uint256"
        }
      ],
      "name": "poolTokenAmountToBurn",
      "outputs": [
        {
          "internalType": "uint256",
          "name": "",
          "type": "uint256"
        }
      ],
      "stateMutability": "view",
      "type": "function"
    },
    {
      "inputs": [
        {
          "internalType": "contract Token",
          "name": "pool",
          "type": "address"
        },
        {
          "internalType": "uint256",
          "name": "poolTokenAmount",
          "type": "uint256"
        }
      ],
      "name": "poolTokenToUnderlying",
      "outputs": [
        {
          "internalType": "uint256",
          "name": "",
          "type": "uint256"
        }
      ],
      "stateMutability": "view",
      "type": "function"
    },
    {
      "inputs": [],
      "name": "poolType",
      "outputs": [
        {
          "internalType": "uint16",
          "name": "",
          "type": "uint16"
        }
      ],
      "stateMutability": "view",
      "type": "function"
    },
    {
      "inputs": [],
      "name": "pools",
      "outputs": [
        {
          "internalType": "contract Token[]",
          "name": "",
          "type": "address[]"
        }
      ],
      "stateMutability": "view",
      "type": "function"
    },
    {
      "inputs": [],
      "name": "protectionEnabled",
      "outputs": [
        {
          "internalType": "bool",
          "name": "",
          "type": "bool"
        }
      ],
      "stateMutability": "view",
      "type": "function"
    },
    {
      "inputs": [
        {
          "internalType": "uint32",
          "name": "newDefaultTradingFeePPM",
          "type": "uint32"
        }
      ],
      "name": "setDefaultTradingFeePPM",
      "outputs": [],
      "stateMutability": "nonpayable",
      "type": "function"
    },
    {
      "inputs": [
        {
          "internalType": "uint32",
          "name": "newNetworkFeePPM",
          "type": "uint32"
        }
      ],
      "name": "setNetworkFeePPM",
      "outputs": [],
      "stateMutability": "nonpayable",
      "type": "function"
    },
    {
      "inputs": [
        {
          "internalType": "contract Token",
          "name": "pool",
          "type": "address"
        },
        {
          "internalType": "uint32",
          "name": "newTradingFeePPM",
          "type": "uint32"
        }
      ],
      "name": "setTradingFeePPM",
      "outputs": [],
      "stateMutability": "nonpayable",
      "type": "function"
    },
    {
      "inputs": [
        {
          "internalType": "bytes32",
          "name": "contextId",
          "type": "bytes32"
        },
        {
          "internalType": "contract Token",
          "name": "sourceToken",
          "type": "address"
        },
        {
          "internalType": "contract Token",
          "name": "targetToken",
          "type": "address"
        },
        {
          "internalType": "uint256",
          "name": "sourceAmount",
          "type": "uint256"
        },
        {
          "internalType": "uint256",
          "name": "minReturnAmount",
          "type": "uint256"
        },
        {
          "internalType": "bool",
          "name": "ignoreFees",
          "type": "bool"
        }
      ],
      "name": "tradeBySourceAmount",
      "outputs": [
        {
          "components": [
            {
              "internalType": "uint256",
              "name": "amount",
              "type": "uint256"
            },
            {
              "internalType": "uint256",
              "name": "tradingFeeAmount",
              "type": "uint256"
            },
            {
              "internalType": "uint256",
              "name": "networkFeeAmount",
              "type": "uint256"
            }
          ],
          "internalType": "struct TradeAmountAndFee",
          "name": "",
          "type": "tuple"
        }
      ],
      "stateMutability": "nonpayable",
      "type": "function"
    },
    {
      "inputs": [
        {
          "internalType": "bytes32",
          "name": "contextId",
          "type": "bytes32"
        },
        {
          "internalType": "contract Token",
          "name": "sourceToken",
          "type": "address"
        },
        {
          "internalType": "contract Token",
          "name": "targetToken",
          "type": "address"
        },
        {
          "internalType": "uint256",
          "name": "targetAmount",
          "type": "uint256"
        },
        {
          "internalType": "uint256",
          "name": "maxSourceAmount",
          "type": "uint256"
        },
        {
          "internalType": "bool",
          "name": "ignoreFees",
          "type": "bool"
        }
      ],
      "name": "tradeByTargetAmount",
      "outputs": [
        {
          "components": [
            {
              "internalType": "uint256",
              "name": "amount",
              "type": "uint256"
            },
            {
              "internalType": "uint256",
              "name": "tradingFeeAmount",
              "type": "uint256"
            },
            {
              "internalType": "uint256",
              "name": "networkFeeAmount",
              "type": "uint256"
            }
          ],
          "internalType": "struct TradeAmountAndFee",
          "name": "",
          "type": "tuple"
        }
      ],
      "stateMutability": "nonpayable",
      "type": "function"
    },
    {
      "inputs": [
        {
          "internalType": "contract Token",
          "name": "sourceToken",
          "type": "address"
        },
        {
          "internalType": "contract Token",
          "name": "targetToken",
          "type": "address"
        },
        {
          "internalType": "uint256",
          "name": "targetAmount",
          "type": "uint256"
        }
      ],
      "name": "tradeInputAndFeeByTargetAmount",
      "outputs": [
        {
          "components": [
            {
              "internalType": "uint256",
              "name": "amount",
              "type": "uint256"
            },
            {
              "internalType": "uint256",
              "name": "tradingFeeAmount",
              "type": "uint256"
            },
            {
              "internalType": "uint256",
              "name": "networkFeeAmount",
              "type": "uint256"
            }
          ],
          "internalType": "struct TradeAmountAndFee",
          "name": "",
          "type": "tuple"
        }
      ],
      "stateMutability": "view",
      "type": "function"
    },
    {
      "inputs": [
        {
          "internalType": "contract Token",
          "name": "sourceToken",
          "type": "address"
        },
        {
          "internalType": "contract Token",
          "name": "targetToken",
          "type": "address"
        },
        {
          "internalType": "uint256",
          "name": "sourceAmount",
          "type": "uint256"
        }
      ],
      "name": "tradeOutputAndFeeBySourceAmount",
      "outputs": [
        {
          "components": [
            {
              "internalType": "uint256",
              "name": "amount",
              "type": "uint256"
            },
            {
              "internalType": "uint256",
              "name": "tradingFeeAmount",
              "type": "uint256"
            },
            {
              "internalType": "uint256",
              "name": "networkFeeAmount",
              "type": "uint256"
            }
          ],
          "internalType": "struct TradeAmountAndFee",
          "name": "",
          "type": "tuple"
        }
      ],
      "stateMutability": "view",
      "type": "function"
    },
    {
      "inputs": [
        {
          "internalType": "contract Token",
          "name": "pool",
          "type": "address"
        }
      ],
      "name": "tradingEnabled",
      "outputs": [
        {
          "internalType": "bool",
          "name": "",
          "type": "bool"
        }
      ],
      "stateMutability": "view",
      "type": "function"
    },
    {
      "inputs": [
        {
          "internalType": "contract Token",
          "name": "pool",
          "type": "address"
        }
      ],
      "name": "tradingFeePPM",
      "outputs": [
        {
          "internalType": "uint32",
          "name": "",
          "type": "uint32"
        }
      ],
      "stateMutability": "view",
      "type": "function"
    },
    {
      "inputs": [
        {
          "internalType": "address",
          "name": "ownerCandidate",
          "type": "address"
        }
      ],
      "name": "transferOwnership",
      "outputs": [],
      "stateMutability": "nonpayable",
      "type": "function"
    },
    {
      "inputs": [
        {
          "internalType": "contract Token",
          "name": "pool",
          "type": "address"
        },
        {
          "internalType": "uint256",
          "name": "baseTokenAmount",
          "type": "uint256"
        }
      ],
      "name": "underlyingToPoolToken",
      "outputs": [
        {
          "internalType": "uint256",
          "name": "",
          "type": "uint256"
        }
      ],
      "stateMutability": "view",
      "type": "function"
    },
    {
      "inputs": [
        {
          "internalType": "contract Token",
          "name": "pool",
          "type": "address"
        }
      ],
      "name": "updateTradingLiquidity",
      "outputs": [],
      "stateMutability": "nonpayable",
      "type": "function"
    },
    {
      "inputs": [],
      "name": "version",
      "outputs": [
        {
          "internalType": "uint16",
          "name": "",
          "type": "uint16"
        }
      ],
      "stateMutability": "view",
      "type": "function"
    },
    {
      "inputs": [
        {
          "internalType": "bytes32",
          "name": "contextId",
          "type": "bytes32"
        },
        {
          "internalType": "address",
          "name": "provider",
          "type": "address"
        },
        {
          "internalType": "contract Token",
          "name": "pool",
          "type": "address"
        },
        {
          "internalType": "uint256",
          "name": "poolTokenAmount",
          "type": "uint256"
        },
        {
          "internalType": "uint256",
          "name": "baseTokenAmount",
          "type": "uint256"
        }
      ],
      "name": "withdraw",
      "outputs": [
        {
          "internalType": "uint256",
          "name": "",
          "type": "uint256"
        }
      ],
      "stateMutability": "nonpayable",
      "type": "function"
    },
    {
      "inputs": [
        {
          "internalType": "contract Token",
          "name": "pool",
          "type": "address"
        },
        {
          "internalType": "uint256",
          "name": "poolTokenAmount",
          "type": "uint256"
        }
      ],
      "name": "withdrawalAmounts",
      "outputs": [
        {
          "components": [
            {
              "internalType": "uint256",
              "name": "totalAmount",
              "type": "uint256"
            },
            {
              "internalType": "uint256",
              "name": "baseTokenAmount",
              "type": "uint256"
            },
            {
              "internalType": "uint256",
              "name": "bntAmount",
              "type": "uint256"
            }
          ],
          "internalType": "struct WithdrawalAmounts",
          "name": "",
          "type": "tuple"
        }
      ],
      "stateMutability": "view",
      "type": "function"
    }
  ],
  "transactionHash": "0x06c7ecffc278dede9375a9371390d25180388a0f518a72b3e02e733548de3e8a",
  "args": [
    "0xeEF417e1D5CC832e619ae18D2F140De2999dD4fB",
    "0x1F573D6Fb3F13d689FF844B4cE37794d79a7FF1C",
    "0x83E1814ba31F7ea95D216204BB45FE75Ce09b14F",
    "0x649765821D9f64198c905eC0B2B037a4a52Bc373",
    "0x02651E355D26f3506C1E644bA393FDD9Ac95EaCa",
    "0xFd31662b3d54eddE9B6Bdd32c9c27C8E292cAD57",
    "0x9E912953DB31fE933BDa43374208E967058D9d5F",
    "0x97CeC0F2D355BF073619A5093F989709caE4a191"
  ],
  "numDeployments": 1,
  "solcInputHash": "e56f1a79e4d0bb7951ba6b01e2324a81",
  "bytecode": "0x6101806040526005805460ff60401b191690553480156200001f57600080fd5b50604051620063fd380380620063fd833981016040819052620000429162000298565b6200004d3362000109565b620000588862000163565b620000638762000163565b6200006e8662000163565b620000798562000163565b620000848462000163565b6200008f8362000163565b6200009a8262000163565b620000a58162000163565b6001600160a01b0380891660805287811660a05286811660c05285811660e052848116610100528381166101205282811661014052811661016052620000ed6107d06200018e565b620000fb62030d4062000201565b505050505050505062000359565b600080546001600160a01b038381166001600160a01b031980841682178555600180549091169055604051919092169283917f343765429aea5a34b3ff6a3785a98a5abb2597aca87bfbb58632c173d585373a9190a35050565b6001600160a01b0381166200018b5760405163e6c4247b60e01b815260040160405180910390fd5b50565b60055463ffffffff9081169082168103620001a7575050565b6005805463ffffffff191663ffffffff84811691821790925560408051928416835260208301919091527fb804b0ec3f0ea43004870df377170ce44cb789adca16d23286e337605558117f91015b60405180910390a15050565b60055463ffffffff6401000000009091048116908216810362000222575050565b6005805463ffffffff60201b191664010000000063ffffffff8581169182029290921790925560408051918416825260208201929092527f1f1f36475e04b1709caf649fc7f00350aa38c7f7f110f653e81f79011db0867c9101620001f5565b6001600160a01b03811681146200018b57600080fd5b600080600080600080600080610100898b031215620002b657600080fd5b8851620002c38162000282565b60208a0151909850620002d68162000282565b60408a0151909750620002e98162000282565b60608a0151909650620002fc8162000282565b60808a01519095506200030f8162000282565b60a08a0151909450620003228162000282565b60c08a0151909350620003358162000282565b60e08a0151909250620003488162000282565b809150509295985092959890939650565b60805160a05160c05160e05161010051610120516101405161016051615f816200047c600039600081816114780152611f1101526000611226015260008181612e1a01526133fe0152600081816123d10152818161249e015281816125700152818161316701528181613201015281816132550152818161334101526146e9015260008181611a380152818161225701528181612dbe01528181613282015281816133ce015281816134ae015261373c0152600081816108de0152818161117c01528181611a9e01528181611cee0152818161234501528181612e5a015261359b015260008181612a5101526143350152600081816107cc01528181610dfe01528181611135015281816116e801528181611e670152611fe50152615f816000f3fe608060405234801561001057600080fd5b50600436106102535760003560e01c8063915b994111610146578063c2cf4252116100c3578063df2c3ab411610087578063df2c3ab414610634578063ee4808fe14610647578063f2fde38b1461065a578063f525cb681461066d578063f6c5786114610675578063fba8cdee146106a357600080fd5b8063c2cf4252146105b5578063c5c51dca146105e8578063d1aebfc7146105fd578063d3df242414610610578063d4ee1d901461062357600080fd5b80639fc192311161010a5780639fc19231146104d7578063a135ef17146104e5578063aa55a9b114610568578063b1dd61b61461057b578063bedf95251461058257600080fd5b8063915b9941146104785780639181d2e31461048b578063921a929e1461049e5780639dad4613146104b15780639f5c734b146104c457600080fd5b806354fd4d50116101d45780637516baec116101985780637516baec1461042757806379ba50971461043957806381417585146104415780638da5cb5b146104545780639049f9d21461046557600080fd5b806354fd4d501461039157806356aca36f146103a75780635768adcf146103ba5780636161b626146103fe57806372d960e11461041457600080fd5b806330cdb3081161021b57806330cdb308146102df5780633376af511461032a57806334afba2b1461033d5780634ceea7531461035d578063541868c81461037e57600080fd5b8063136efb7a146102585780631510748b146102815780631c754cae146102965780632258cc69146102a957806327910565146102cc575b600080fd5b61026b6102663660046156e9565b6106b6565b6040516102789190615706565b60405180910390f35b61029461028f3660046157cc565b6107ca565b005b6102946102a43660046157f8565b61082a565b6102bc6102b73660046156e9565b610aa2565b6040519015158152602001610278565b6102946102da3660046156e9565b610adf565b6103156102ed3660046156e9565b6001600160a01b0316600090815260026020526040902054600160a01b900463ffffffff1690565b60405163ffffffff9091168152602001610278565b61029461033836600461583f565b610b41565b61035061034b36600461585c565b610b5c565b604051610278919061589d565b61037061036b3660046157cc565b610bd1565b604051908152602001610278565b61035061038c3660046157cc565b610c6a565b600b5b60405161ffff9091168152602001610278565b6103706103b53660046158be565b610dfa565b6103e66103c83660046156e9565b6001600160a01b039081166000908152600260205260409020541690565b6040516001600160a01b039091168152602001610278565b600554640100000000900463ffffffff16610315565b61035061042236600461585c565b610ff0565b600554600160401b900460ff166102bc565b61029461106c565b61029461044f36600461591e565b6110ae565b6000546001600160a01b03166103e6565b6102946104733660046156e9565b611133565b610294610486366004615957565b61146c565b61029461049936600461599a565b61151d565b6103706104ac3660046157f8565b6115ce565b6102946104bf3660046159c8565b6116a4565b6103706104d23660046159e5565b6116e4565b60055463ffffffff16610315565b61055b6104f33660046156e9565b6040805160608082018352600080835260208084018290529284018190526001600160a01b0394909416845260028252928290208251938401835260048101546001600160801b038082168652600160801b9091041691840191909152600501549082015290565b6040516102789190615a2d565b6102946105763660046156e9565b611ba0565b6001610394565b6102bc6105903660046156e9565b6001600160a01b0316600090815260026020526040902054600160c01b900460ff1690565b6102bc6105c33660046156e9565b6001600160a01b0316600090815260026020526040902054600160c81b900460ff1690565b6105f0611d91565b6040516102789190615a5c565b61035061060b366004615aa9565b611e41565b61029461061e366004615b10565b611f05565b6001546001600160a01b03166103e6565b610350610642366004615aa9565b611fbf565b6103706106553660046157cc565b61207b565b6102946106683660046156e9565b61210a565b610370612163565b6102bc6106833660046156e9565b6001600160a01b0390811660009081526002602052604090205416151590565b6102946106b136600461583f565b612174565b6106be615504565b506001600160a01b03908116600090815260026020818152604092839020835160c0810185528154958616815263ffffffff600160a01b870481168285015260ff600160c01b88048116151583880152600160c81b9097049096161515606080830191909152855180820187526001840154909716875285518087018752948301546001600160701b038082168752600160701b9182900481168787015288860196909652865180880188526003850154808816825291909104909516858501528686019490945260808101959095528351928301845260048101546001600160801b038082168552600160801b9091041691830191909152600501549181019190915260a082015290565b7f00000000000000000000000000000000000000000000000000000000000000006107f48161218f565b8115610825576000610805846121b8565b90508281600401600101600082825461081e9190615b54565b9091555050505b505050565b6108326121f5565b604080518082019091528281526020810182905261084f81612220565b600061085a856121b8565b8054909150600160c01b900460ff161561088757604051637952fbad60e11b815260040160405180910390fd5b6040516bffffffffffffffffffffffff1933606090811b8216602084015287901b166034820152604881018590526068810184905260009060880160405160208183030381529060405280519060200120905060007f00000000000000000000000000000000000000000000000000000000000000006001600160a01b03166387ba006a6040518163ffffffff1660e01b8152600401602060405180830381865afa15801561093a573d6000803e3d6000fd5b505050506040513d601f19601f8201168201806040525081019061095e9190615b6c565b905061096d8288858785612246565b60048301546001600160801b031681111561099b5760405163bb55fd2760e01b815260040160405180910390fd5b60006109a6856126a9565b905060405180606001604052806109ba4390565b63ffffffff1681526020018281526020016109d483612709565b905280516001868101805463ffffffff191663ffffffff909316929092179091556020808301518051600289018054928401516001600160701b039283166001600160e01b031994851617600160701b918416820217909155604095860151805160038c0180549290960151908416919094161792909116021790558554600160c01b60ff60c01b19909116178655905181906001600160a01b038b16907f162ed187f3ed3879ae360c5df2a0a5dcaac7a208a9d762c2cbbfb1f5fad8b81d90600090a45050505050505050565b6001600160a01b0381166000908152600260208190526040822090610ac682612763565b6002811115610ad757610ad7615b85565b149392505050565b610ae76121f5565b6000610af2826121b8565b6040805160608101825260048301546001600160801b038082168352600160801b909104166020820152600583015491810191909152909150610b3d906000908490849060016128d0565b5050565b610b496121f5565b80610b53816128f0565b610b3d8261291a565b610b8060405180606001604052806000815260200160008152602001600081525090565b81610b8a816129a2565b6000610b9c81878787600019846129c3565b9050610ba781612c01565b60408051606080820183528351825283015160208201526080909201519082015295945050505050565b6001600160a01b038083166000908152600260209081526040808320805482516318160ddd60e01b8152925194959194610c6094889492909316926318160ddd92600480820193918290030181865afa158015610c32573d6000803e3d6000fd5b505050506040513d601f19601f82011682018060405250810190610c569190615b6c565b6005840154612d2c565b9150505b92915050565b610c8e60405180606001604052806000815260200160008152602001600081525090565b82610c9881612d6f565b82610ca2816129a2565b6001600160a01b03808616600090815260026020908152604080832081516060810183526004808301546001600160801b038082168452600160801b9091041682860152600583015482850152825484516318160ddd60e01b8152945193979296959216936318160ddd93818301939290918290030181865afa158015610d2d573d6000803e3d6000fd5b505050506040513d601f19601f82011682018060405250810190610d519190615b6c565b90506000610d6488838560400151612d2c565b90506000610d8a8a8a84878960000160149054906101000a900463ffffffff1688612d96565b905060405180606001604052808260c001518360e00151610dab9190615b9b565b815260200182604001518360000151610dc49190615b54565b8152602001600560089054906101000a900460ff16610de4576000610dea565b82602001515b90529a9950505050505050505050565b60007f0000000000000000000000000000000000000000000000000000000000000000610e268161218f565b85610e3081612d6f565b84610e3a816129a2565b84610e44816129a2565b6000610e4f896121b8565b604080516060810182526004808401546001600160801b038082168452600160801b90910416602080840191909152600585015483850152845484516318160ddd60e01b8152945195965092946000946001600160a01b03909416936318160ddd938181019392918290030181865afa158015610ed0573d6000803e3d6000fd5b505050506040513d601f19601f82011682018060405250810190610ef49190615b6c565b90506000610f078b838560400151612d2c565b9050808a1115610f2a57604051633494a40d60e21b815260040160405180910390fd5b6001610f3585612763565b6002811115610f4657610f46615b85565b03610f64576040516301a6272960e41b815260040160405180910390fd5b6000610f888d8d8d878960000160149054906101000a900463ffffffff1688612d96565b9050610f978f8f8f8885612ff2565b8454600160c01b900460ff1615610fdd576040805180820190915260048601546001600160801b038082168352600160801b909104166020820152610fdd90869061378a565b519e9d5050505050505050505050505050565b61101460405180606001604052806000815260200160008152602001600081525090565b8161101e816129a2565b600061102f818787876001806129c3565b905061103a81612c01565b604051806060016040528082602001518152602001826060015181526020018260800151815250925050509392505050565b6001546001600160a01b0316331461109757604051634ca8886760e01b815260040160405180910390fd5b6001546110ac906001600160a01b0316613884565b565b6110b66121f5565b60006110c1836121b8565b8054909150821515600160c81b90910460ff161515036110e057505050565b805460ff60c81b1916600160c81b8315159081029190911782556040516001600160a01b038516907fa606e6917bc476eb72d24f486596af7f564fb7b50f73135c81c0e8e0553430cd90600090a3505050565b7f000000000000000000000000000000000000000000000000000000000000000061115d8161218f565b60405163b5af090f60e01b81526001600160a01b0383811660048301527f0000000000000000000000000000000000000000000000000000000000000000169063b5af090f90602401602060405180830381865afa1580156111c3573d6000803e3d6000fd5b505050506040513d601f19601f820116820180604052508101906111e79190615bb2565b61120457604051630b094f2760e31b815260040160405180910390fd5b604051632b625f2360e01b81526001600160a01b0383811660048301526000917f000000000000000000000000000000000000000000000000000000000000000090911690632b625f23906024016020604051808303816000875af1158015611271573d6000803e3d6000fd5b505050506040513d601f19601f820116820180604052508101906112959190615bcf565b9050806001600160a01b03166379ba50976040518163ffffffff1660e01b8152600401600060405180830381600087803b1580156112d257600080fd5b505af11580156112e6573d6000803e3d6000fd5b5050505060006040518060c00160405280836001600160a01b03168152602001600560009054906101000a900463ffffffff1663ffffffff1681526020016000151581526020016001151581526020016040518060600160405280600063ffffffff1681526020016113566138de565b81526020016113636138de565b9052815260408051606081018252600080825260208281018290529282015291015290506113918482613907565b60408082015190516000911515906001600160a01b038716907f162ed187f3ed3879ae360c5df2a0a5dcaac7a208a9d762c2cbbfb1f5fad8b81d908490a4836001600160a01b03167fa2d66c1e2cc4b2cc5daaabc06447542e989ed748a9fb22476b6c913dcc1c7f4b6000836020015160405161142192919063ffffffff92831681529116602082015260400190565b60405180910390a280606001511515846001600160a01b03167fa606e6917bc476eb72d24f486596af7f564fb7b50f73135c81c0e8e0553430cd60405160405180910390a350505050565b8161147681612d6f565b7f00000000000000000000000000000000000000000000000000000000000000006114a08161218f565b6114b8846114b336869003860186615d7f565b613907565b6114c560208401846156e9565b6001600160a01b03166379ba50976040518163ffffffff1660e01b8152600401600060405180830381600087803b1580156114ff57600080fd5b505af1158015611513573d6000803e3d6000fd5b5050505050505050565b6115256121f5565b8061152f816128f0565b600061153a846121b8565b805490915063ffffffff600160a01b9091048116908416810361155e575050505050565b815463ffffffff60a01b1916600160a01b63ffffffff86811691820292909217845560408051928416835260208301919091526001600160a01b038716917fa2d66c1e2cc4b2cc5daaabc06447542e989ed748a9fb22476b6c913dcc1c7f4b910160405180910390a25050505050565b6000826000036115e05750600061169d565b6001600160a01b038085166000908152600260209081526040808320805482516318160ddd60e01b81529251919516926318160ddd92600480820193918290030181865afa158015611636573d6000803e3d6000fd5b505050506040513d601f19601f8201168201806040525081019061165a9190615b6c565b905060006116688287615e52565b905061169781836116798882615b9b565b60058701546116889190615e52565b6116929085615b54565b613a60565b93505050505b9392505050565b6116ac6121f5565b60055460ff600160401b909104161515811515146116e1576005805468ff00000000000000001916600160401b831515021790555b50565b60007f00000000000000000000000000000000000000000000000000000000000000006117108161218f565b8461171a81612d6f565b83611724816129a2565b600061172f876121b8565b8054909150600160c81b900460ff1661175b576040516303a5be3f60e31b815260040160405180910390fd5b8054604080516318160ddd60e01b815290516000926001600160a01b0316916318160ddd9160048083019260209291908290030181865afa1580156117a4573d6000803e3d6000fd5b505050506040513d601f19601f820116820180604052508101906117c89190615b6c565b60058301549091506117d861555c565b821580156117e557508115155b1561186a576040805160608101825260048601546001600160801b038082168352600160801b909104166020820152600586015491810191909152600092506118328d8c878460036128d0565b6040518060600160405280600063ffffffff1681526020016118526138de565b815260200161185f6138de565b81525091505061192c565b604080516060808201835260048701546001600160801b038082168452600160801b9091048116602080850191825260058a0154858701528551938401865260018a015463ffffffff1684528551808701875260028b01546001600160701b038082168352600160701b91829004811683850152868401929092528751808901895260038d01548084168252919091049091168183015284870152855180870190965284518316865290519091169084015290916119289190613b2c565b9150505b60006119398a8585613ca0565b90506119458a84615b54565b600586015584546040516340c10f1960e01b81526001600160a01b038e8116600483015260248201849052909116906340c10f1990604401600060405180830381600087803b15801561199757600080fd5b505af11580156119ab573d6000803e3d6000fd5b505050508a6001600160a01b03168c6001600160a01b03168e7fecb7e4cd1580472adaeba712b36acf94439b2e1760af55fedb61960ca4422af38d856040516119fe929190918252602082015260400190565b60405180910390a46001600160a01b038b168d7f67c4863f17da9847c57c9fa043e63a0ddf4f5a86fd63a6f71ea69057a11c411a611a5c837f0000000000000000000000000000000000000000000000000000000000000000613cd4565b6005890154611a6b868a615b54565b6040805193845260208401929092529082015260600160405180910390a3611b238d8c87611a9c8660200151613d78565b7f00000000000000000000000000000000000000000000000000000000000000006001600160a01b03166387ba006a6040518163ffffffff1660e01b8152600401602060405180830381865afa158015611afa573d6000803e3d6000fd5b505050506040513d601f19601f82011682018060405250810190611b1e9190615b6c565b612246565b8454600160c01b900460ff1615611b90576040805160608101825260048701546001600160801b038082168352600160801b9091048116602080840191825260058a015484860152845180860190955283518316855290519091169083015290611b8e90879061378a565b505b9c9b505050505050505050505050565b611ba86121f5565b6000611bb3826121b8565b604080516060808201835260048401546001600160801b038082168452600160801b820490811660208086019190915260058701548587015294516bffffffffffffffffffffffff1933851b8116968201969096529288901b90941660348301526001600160801b0319608091821b8116604884015293901b909216605883015291925060009060680160408051601f198184030181528282528051602091820120606084018352600187015463ffffffff1684528251808401845260028801546001600160701b038082168352600160701b91829004811683860152868501929092528451808601865260038a01548084168252919091049091168184015284840152825180840190935285516001600160801b0390811684528683015116918301919091529250600091611ce891613b2c565b905060007f00000000000000000000000000000000000000000000000000000000000000006001600160a01b03166387ba006a6040518163ffffffff1660e01b8152600401602060405180830381865afa158015611d4a573d6000803e3d6000fd5b505050506040513d601f19601f82011682018060405250810190611d6e9190615b6c565b9050611d89838787611d838660200151613d78565b85612246565b505050505050565b60606000611d9f6003613db4565b905060008167ffffffffffffffff811115611dbc57611dbc615bec565b604051908082528060200260200182016040528015611de5578160200160208202803683370190505b50905060005b82811015611e3a57611dfe600382613dbe565b828281518110611e1057611e10615e71565b6001600160a01b039092166020928302919091019091015280611e3281615e87565b915050611deb565b5092915050565b611e6560405180606001604052806000815260200160008152602001600081525090565b7f0000000000000000000000000000000000000000000000000000000000000000611e8f8161218f565b84611e99816129a2565b84611ea3816129a2565b6000611eb48b8b8b8b8b60016129c3565b90508515611ec55760006101608201525b611ece81613dca565b6040518060600160405280826020015181526020018260600151815260200182608001518152509450505050509695505050505050565b80611f0f81612d6f565b7f0000000000000000000000000000000000000000000000000000000000000000611f398161218f565b6001600160a01b0380851660009081526002602052604090205416611f5d85613f06565b60405163f2fde38b60e01b81526001600160a01b03858116600483015282169063f2fde38b90602401600060405180830381600087803b158015611fa057600080fd5b505af1158015611fb4573d6000803e3d6000fd5b505050505050505050565b611fe360405180606001604052806000815260200160008152602001600081525090565b7f000000000000000000000000000000000000000000000000000000000000000061200d8161218f565b84612017816129a2565b84612021816129a2565b60006120328b8b8b8b8b60006129c3565b905085156120435760006101608201525b61204c81613dca565b6040805160608082018352835182528301516020820152608090920151908201529a9950505050505050505050565b6001600160a01b038083166000908152600260209081526040808320805482516318160ddd60e01b8152925194959194610c6094889492909316926318160ddd92600480820193918290030181865afa1580156120dc573d6000803e3d6000fd5b505050506040513d601f19601f820116820180604052508101906121009190615b6c565b6005840154613ca0565b6121126121f5565b6000546001600160a01b039081169082160361214157604051630a98f1f360e21b815260040160405180910390fd5b600180546001600160a01b0319166001600160a01b0392909216919091179055565b600061216f6003613db4565b905090565b61217c6121f5565b80612186816128f0565b610b3d82613f90565b336001600160a01b038216146116e157604051634ca8886760e01b815260040160405180910390fd5b6001600160a01b03808216600090815260026020526040812080549192909116610c645760405163b0ce759160e01b815260040160405180910390fd5b6000546001600160a01b031633146110ac57604051634ca8886760e01b815260040160405180910390fd5b61222981613ffa565b6116e157604051636a43f8d160e01b815260040160405180910390fd5b600061227b6001600160a01b0386167f0000000000000000000000000000000000000000000000000000000000000000613cd4565b90508060000361229e5760405163bb55fd2760e01b815260040160405180910390fd5b60016122a985612763565b60028111156122ba576122ba615b85565b036122c557506126a2565b6040805160608101825260048601546001600160801b038082168352600160801b90910416602082015260058601549181019190915261230484613ffa565b61231d576123168787878460026128d0565b50506126a2565b60405163467e55df60e01b81526001600160a01b0387811660048301526000916124449185917f00000000000000000000000000000000000000000000000000000000000000009091169063467e55df90602401602060405180830381865afa15801561238e573d6000803e3d6000fd5b505050506040513d601f19601f820116820180604052508101906123b29190615b6c565b604051637ea6a56960e11b81526001600160a01b038b811660048301527f0000000000000000000000000000000000000000000000000000000000000000169063fd4d4ad290602401602060405180830381865afa158015612418573d6000803e3d6000fd5b505050506040513d601f19601f8201168201806040525081019061243c9190615b6c565b858989614017565b8051909150612455575050506126a2565b6020810151158061246857506040810151155b156124835761247b8888888560026128d0565b5050506126a2565b81600001516001600160801b031681602001511115612555577f00000000000000000000000000000000000000000000000000000000000000006001600160a01b03166371c0feb7898985600001516001600160801b031685602001516124ea9190615b9b565b6040516001600160e01b031960e086901b16815260048101939093526001600160a01b0390911660248301526044820152606401600060405180830381600087803b15801561253857600080fd5b505af115801561254c573d6000803e3d6000fd5b50505050612623565b81600001516001600160801b031681602001511015612623577f00000000000000000000000000000000000000000000000000000000000000006001600160a01b0316631ebda06d8989846020015186600001516001600160801b03166125bc9190615b9b565b6040516001600160e01b031960e086901b16815260048101939093526001600160a01b0390911660248301526044820152606401600060405180830381600087803b15801561260a57600080fd5b505af115801561261e573d6000803e3d6000fd5b505050505b6000604051806060016040528061263d8460200151614286565b6001600160801b031681526020016126588460400151614286565b6001600160801b0390811682526040808701516020938401528351928401518216600160801b02929091169190911760048a015581015160058901559050611fb4898985846142f7565b5050505050565b604080518082019091526000808252602082015260006126d0836001600160701b0361441c565b9050604051806040016040528082600001516001600160701b0316815260200182602001516001600160701b0316815250915050919050565b6040805180820190915260008082526020820152604080518082019091526020838101516001600160701b03908116835284511690820181905215155b610c6457604051630d38a7e760e11b815260040160405180910390fd5b60408051808201825260048301546001600160801b038082168352600160801b909104166020808301919091528251606081018452600185015463ffffffff1681528351808501855260028601546001600160701b038082168352600160701b9182900481168386015283850192835286518088018852600389015480831682529290920416938101939093529381019190915291516000929061280683613ffa565b15806128185750612816816144ab565b155b1561282857506000949350505050565b6000612833846144da565b604084015190915061284482613ffa565b15806128565750612854816144ab565b155b15612868575060009695505050505050565b60006128748587613b2c565b905061288f6128868260200151613d78565b8761271061450f565b80156128af57506128af6128a68260400151613d78565b8461271061450f565b156128c257506002979650505050505050565b506001979650505050505050565b60048301546126a29086908690869086906001600160801b0316866145b1565b620f424063ffffffff821611156116e1576040516358d620b360e01b815260040160405180910390fd5b60055463ffffffff6401000000009091048116908216810361293a575050565b6005805467ffffffff00000000191664010000000063ffffffff8581169182029290921790925560408051918416825260208201929092527f1f1f36475e04b1709caf649fc7f00350aa38c7f7f110f653e81f79011db0867c91015b60405180910390a15050565b806000036116e157604051637c946ed760e01b815260040160405180910390fd5b612a44604051806101a00160405280600081526020016000815260200160008152602001600081526020016000815260200160008152602001600081526020016000815260200160006001600160a01b03168152602001600015158152602001600015158152602001600063ffffffff168152602001600080191681525090565b6001600160a01b038681167f0000000000000000000000000000000000000000000000000000000000000000821690811491871614818015612a84575080155b15612aa65760016101208401526001600160a01b038716610100840152612aec565b81158015612ab15750805b15612ad35760006101208401526001600160a01b038816610100840152612aec565b60405163b0ce759160e01b815260040160405180910390fd5b6000612afc8461010001516121b8565b8054909150600160c01b900460ff16612b285760405163bcb8b8fb60e01b815260040160405180910390fd5b61018084018a905284158015610140860152612b4657868452612b4e565b602084018790525b60408481018790528154600160a01b900463ffffffff16610160860152805160608101825260048301546001600160801b038082168352600160801b90910416602082015260058301549181019190915261012085015115612bcc5780516001600160801b0390811660a087015260208201511660c0860152612bea565b60208101516001600160801b0390811660a087015281511660c08601525b6040015160e0850152509198975050505050505050565b604080518082019091526000808252602082015281610140015115612c7257612c3d8260a001518360c00151846101600151856000015161478b565b80516020840181905260408401519192501015612c6d5760405163f31ee7a560e01b815260040160405180910390fd5b612cc5565b612c8f8260a001518360c00151846101600151856020015161481d565b80518084529091501580612ca7575060408201518251115b15612cc55760405163681c2ccd60e11b815260040160405180910390fd5b60208101516060830152815160a083018051612ce2908390615b54565b905250602082015160c083018051612cfb908390615b9b565b90525061012082015115612d235781606001518260e001818151612d1f9190615b54565b9052505b610b3d826148b9565b600082600003612d5c578115612d5557604051636a9c61e160e01b815260040160405180910390fd5b508261169d565b612d67848385613a60565b949350505050565b6001600160a01b0381166116e15760405163e6c4247b60e01b815260040160405180910390fd5b612d9e6155ad565b60208401516000906001600160801b0316612de26001600160a01b038a167f0000000000000000000000000000000000000000000000000000000000000000613cd4565b612dec9190615b9b565b90506000612ee686600001516001600160801b031687602001516001600160801b0316848960400151612e517f00000000000000000000000000000000000000000000000000000000000000008f6001600160a01b0316613cd490919063ffffffff16565b8a63ffffffff167f00000000000000000000000000000000000000000000000000000000000000006001600160a01b0316632aac012c6040518163ffffffff1660e01b8152600401602060405180830381865afa158015612eb6573d6000803e3d6000fd5b505050506040513d601f19601f82011682018060405250810190612eda9190615ea0565b63ffffffff168e614989565b905060405180610180016040528082606001518152602001826080015181526020018260a0015181526020018260400151815260200182600001518152602001826020015181526020018260c001518152602001888152602001898152602001858152602001826040015160200151612f7c576040830151516020890151612f7791906001600160801b0316615b54565b612f9a565b6040830151516020890151612f9a91906001600160801b0316615b9b565b8152602001826000015160200151612fc9578251518851612fc491906001600160801b0316615b54565b612fe1565b8251518851612fe191906001600160801b0316615b9b565b9052925050505b9695505050505050565b60408051606081018252600484810180546001600160801b038082168552600160801b90910416602084015260058601548385015285546101008601519451630852cd8d60e31b815292830194909452926001600160a01b0316906342966c6890602401600060405180830381600087803b15801561307057600080fd5b505af1158015613084573d6000803e3d6000fd5b5050505060008361010001518461012001516130a09190615b9b565b905060006130b8846001015483876101200151613a60565b90508084600101819055506130d1856101400151614286565b84546001600160801b03918216600160801b0291161784556101608501516130f890614286565b84546001600160801b0319166001600160801b039190911617845560a085015151156131cb578460a001516020015161313357613133615ebd565b60a085015151604051631ebda06d60e01b8152600481018b90526001600160a01b03898116602483015260448201929092527f000000000000000000000000000000000000000000000000000000000000000090911690631ebda06d906064015b600060405180830381600087803b1580156131ae57600080fd5b505af11580156131c2573d6000803e3d6000fd5b505050506132f1565b608085015151156132f1578460800151602001511561323857608085015151604051631538c64b60e31b815260048101919091527f00000000000000000000000000000000000000000000000000000000000000006001600160a01b03169063a9c6325890602401613194565b6080850151516040516340c10f1960e01b81526001600160a01b037f000000000000000000000000000000000000000000000000000000000000000016916340c10f19916132be917f0000000000000000000000000000000000000000000000000000000000000000916004016001600160a01b03929092168252602082015260400190565b600060405180830381600087803b1580156132d857600080fd5b505af11580156132ec573d6000803e3d6000fd5b505050505b6005546020860151600160401b90910460ff1690158015906133105750805b156133a05760208601516040516340c10f1960e01b81526001600160a01b038b8116600483015260248201929092527f0000000000000000000000000000000000000000000000000000000000000000909116906340c10f1990604401600060405180830381600087803b15801561338757600080fd5b505af115801561339b573d6000803e3d6000fd5b505050505b604086015115613476576040868101519051631c20fadd60e01b81526001600160a01b038a811660048301527f00000000000000000000000000000000000000000000000000000000000000008116602483015260448201929092527f000000000000000000000000000000000000000000000000000000000000000090911690631c20fadd90606401600060405180830381600087803b15801561344457600080fd5b505af1158015613458573d6000803e3d6000fd5b505050508560400151866000018181516134729190615b54565b9052505b85511561350d578551604051631c20fadd60e01b81526001600160a01b038a811660048301528b8116602483015260448201929092527f000000000000000000000000000000000000000000000000000000000000000090911690631c20fadd90606401600060405180830381600087803b1580156134f457600080fd5b505af1158015613508573d6000803e3d6000fd5b505050505b856101400151600003613599576135226138de565b80516002890180546020909301516001600160701b03908116600160701b026001600160e01b03199094169216919091179190911790556135616138de565b80516003890180546020909301516001600160701b03908116600160701b026001600160e01b03199094169216919091179190911790555b7f00000000000000000000000000000000000000000000000000000000000000006001600160a01b03166387ba006a6040518163ffffffff1660e01b8152600401602060405180830381865afa1580156135f7573d6000803e3d6000fd5b505050506040513d601f19601f8201168201806040525081019061361b9190615b6c565b86610160015110156136405761363b8a8989878a610160015160026145b1565b613682565b6040805160608101825286546001600160801b038082168352600160801b909104166020820152600187015491810191909152613682908b908a9087906142f7565b876001600160a01b0316896001600160a01b03168b7feab8ac9e9478a4b3c37a794ecef629b8a8bbcd96f9eaeac8ed26054d144da52d89600001518a61010001518b60400151876136d45760006136da565b8c602001515b60c08e0151604080519586526020860194909452928401919091526060830152608082015260a00160405180910390a46001600160a01b0388168a7f67c4863f17da9847c57c9fa043e63a0ddf4f5a86fd63a6f71ea69057a11c411a613760837f0000000000000000000000000000000000000000000000000000000000000000613cd4565b6040805191825260208201879052810187905260600160405180910390a350505050505050505050565b60408051606081018252600184015463ffffffff1681528151808301835260028501546001600160701b038082168352600160701b918290048116602084810191909152808501939093528451808601865260038801548083168252929092041691810191909152918101919091526138039082613b2c565b805160018401805463ffffffff191663ffffffff9092169190911790556020808201518051600286018054928401516001600160701b039283166001600160e01b031994851617600160701b918416820217909155604090940151805160039097018054919094015196821692169190911794169091029290921790915550565b600080546001600160a01b038381166001600160a01b031980841682178555600180549091169055604051919092169283917f343765429aea5a34b3ff6a3785a98a5abb2597aca87bfbb58632c173d585373a9190a35050565b604080518082018252600080825260209182018190528251808401909352825260019082015290565b613912600383614bff565b61392f5760405163119b4fd360e11b815260040160405180910390fd5b6001600160a01b039182166000908152600260208181526040928390208451815486840151878701516060890151939099166001600160c01b031990921691909117600160a01b63ffffffff928316021761ffff60c01b1916600160c01b9815159890980260ff60c81b191697909717600160c81b911515919091021781556080850151805160018301805463ffffffff191691909816179096558582015180519382018054918401516001600160701b039586166001600160e01b031993841617600160701b91871682021790915596850151805160038401805492860151918716929093169190911794169096029290921790945560a0909201518051938101516001600160801b03948516600160801b95909116949094029390931760048301559190910151600590910155565b600080613a6d8585614c14565b8051909150600003613a9157828160200151613a899190615ee9565b91505061169d565b80518311613ab257604051631a93c68960e11b815260040160405180910390fd5b6000613abf868686614c9b565b90506000613acd8383614cb6565b8051909150600003613af357848160200151613ae99190615ee9565b935050505061169d565b6000858103861690613b058383614d32565b90506000613b1b613b16848a615ee9565b614d69565b919091029998505050505050505050565b613b3461555c565b613b3d82613ffa565b613b77576040518060600160405280600063ffffffff168152602001613b616138de565b8152602001613b6e6138de565b90529050610c64565b8251439063ffffffff80831690821603613b95578492505050610c64565b6064613ba18284615efd565b63ffffffff16101580613bbe5750613bbc85602001516144ab565b155b80613bd35750613bd185604001516144ab565b155b15613c5557613be184613ffa565b15613c285760405180606001604052808363ffffffff168152602001613c06866126a9565b8152602001613c1c613c17876144da565b6126a9565b81525092505050610c64565b6040518060600160405280600063ffffffff168152602001613c486138de565b8152602001613c1c6138de565b60405180606001604052808363ffffffff168152602001613c7a876020015187614d94565b8152602001613c958760400151613c90886144da565b614d94565b905295945050505050565b600082600003613cc9578115612d5557604051636a9c61e160e01b815260040160405180910390fd5b612d67848484614e01565b600073eeeeeeeeeeeeeeeeeeeeeeeeeeeeeeeeeeeeeeee6001600160a01b03841603613d0b57506001600160a01b03811631610c64565b826040516370a0823160e01b81526001600160a01b03848116600483015291909116906370a0823190602401602060405180830381865afa158015613d54573d6000803e3d6000fd5b505050506040513d601f19601f8201168201806040525081019061169d9190615b6c565b6040805180820182526000808252602091820152815180830190925282516001600160701b039081168352928101519092169181019190915290565b6000610c64825490565b600061169d8383614e51565b6101008101516001600160a01b0316600090815260026020908152604091829020825160608101845260048201546001600160801b038082168352600160801b9091048116828501908152600584015483870152855180870190965282518216865251169284019290925291613e4190839061378a565b613e4a83612c01565b60006040518060600160405280613e78866101200151613e6e578660c00151614286565b8660a00151614286565b6001600160801b03168152602001613ea7866101200151613e9d578660a00151614286565b8660c00151614286565b6001600160801b031681526020018560e001518152509050613ed584610180015185610100015184846142f7565b805160208201516001600160801b03908116600160801b029116176004840155604001516005909201919091555050565b613f11600382614e7b565b613f2e5760405163b0ce759160e01b815260040160405180910390fd5b6001600160a01b03166000908152600260208190526040822080546001600160d01b031916815560018101805463ffffffff1916905590810180546001600160e01b031990811690915560038201805490911690556004810182905560050155565b60055463ffffffff9081169082168103613fa8575050565b6005805463ffffffff191663ffffffff84811691821790925560408051928416835260208301919091527fb804b0ec3f0ea43004870df377170ce44cb789adca16d23286e337605558117f9101612996565b60006140098260200151151590565b8015610c6457505051151590565b61403d604051806060016040528060001515815260200160008152602001600081525090565b83516001600160801b0316858711156140bc57600061405c8789615b9b565b9050600086602001516001600160801b03168a6140799190615b9b565b905060006140996140938389600001518a60200151613a60565b84614e90565b88519091506140b29082906001600160801b0316615b54565b93505050506140ed565b858710156140ed5760006140d08888615b9b565b90506140e986600001516001600160801b031682614ea6565b9150505b84516001600160801b03168103614126576040518060600160405280600015158152602001600081526020016000815250915050612fe8565b82811015614156576040518060600160405280600115158152602001600081526020016000815250915050612fe8565b60008086600001516001600160801b03168311156142285786516000906001600160801b031681036141945761418d600287615e52565b90506141ae565b87516141ab906002906001600160801b0316615e52565b90505b6141b88482614e90565b88519094506141d0906001600160801b031685615b9b565b92506141e58388602001518960000151613a60565b91506040518060600160405280600115158152602001858152602001838a602001516001600160801b031661421a9190615b54565b815250945050505050612fe8565b865161423e9084906001600160801b0316615b9b565b91506142538287602001518860000151613a60565b90506040518060600160405280600115158152602001848152602001610dea89602001516001600160801b031684614ea6565b60006001600160801b038211156142f35760405162461bcd60e51b815260206004820152602760248201527f53616665436173743a2076616c756520646f65736e27742066697420696e20316044820152663238206269747360c81b606482015260840160405180910390fd5b5090565b815181516001600160801b039081169116146143895781518151604080516001600160801b0393841681529290911660208301526001600160a01b037f00000000000000000000000000000000000000000000000000000000000000008116929086169187917f6e96dc5343d067ec486a9920e0304c3610ed05c65e45cc029d9b9fe7ecfa7620910160405180910390a45b81602001516001600160801b031681602001516001600160801b03161461441657826001600160a01b0316836001600160a01b0316857f6e96dc5343d067ec486a9920e0304c3610ed05c65e45cc029d9b9fe7ecfa76208560200151856020015160405161440d9291906001600160801b0392831681529116602082015260400190565b60405180910390a45b50505050565b6040805180820190915260008082526020820152600061444d61444785600001518660200151614ec0565b84614ed0565b90506000604051806040016040528083876000015161446c9190615ee9565b81526020018387602001516144819190615ee9565b81525090508060200151600003610c6057604051630d38a7e760e11b815260040160405180910390fd5b60006144c382602001516001600160701b0316151590565b8015610c64575050516001600160701b0316151590565b604080518082019091526000808252602082015260408051808201909152602083810151825283519082018190521515612746565b825160009081906145419061452785620f4240615efd565b63ffffffff16866020015161453c9190615e52565b614c14565b905060006145668660200151620f424063ffffffff16876000015161453c9190615e52565b86519091506000906145949061457f87620f4240615f22565b63ffffffff16886020015161453c9190615e52565b90506145a08383614f02565b801561169757506116978282614f02565b6000600485018190556040805160608101909152908152602081016145d46138de565b81526020016145e16138de565b9052805160018601805463ffffffff191663ffffffff9092169190911790556020808201518051600288018054928401516001600160701b039283166001600160e01b031994851617600160701b918416820217909155604090940151805160038a0180549290950151908316919093161791169092029190911790558354600160c01b900460ff16156146b657835460ff60c01b1916845560405160ff8216906000906001600160a01b038816907f162ed187f3ed3879ae360c5df2a0a5dcaac7a208a9d762c2cbbfb1f5fad8b81d908390a45b811561474657604051631ebda06d60e01b8152600481018790526001600160a01b038681166024830152604482018490527f00000000000000000000000000000000000000000000000000000000000000001690631ebda06d90606401600060405180830381600087803b15801561472d57600080fd5b505af1158015614741573d6000803e3d6000fd5b505050505b6040805160608101825260048601546001600160801b038082168352600160801b909104166020820152600586015491810191909152611d89908790879086906142f7565b60408051808201909152600080825260208201528415806147aa575083155b156147c85760405163bb55fd2760e01b815260040160405180910390fd5b60006147d98584611692818a615b54565b905060006147f18263ffffffff8716620f4240613a60565b90506040518060400160405280828461480a9190615b9b565b8152602001919091529695505050505050565b6040805180820190915260008082526020820152846000036148525760405163bb55fd2760e01b815260040160405180910390fd5b60006148778363ffffffff861661486c87620f4240615efd565b63ffffffff16613a60565b905060006148858285615b54565b905060006148988883611692818b615b9b565b60408051808201909152908152602081019390935250909695505050505050565b600554640100000000900463ffffffff166000036148d45750565b60608101516005546000916148fa91640100000000900463ffffffff16620f4240613a60565b9050808260c00181815161490e9190615b9b565b90525061012082015161492357608090910152565b6149388260c001518360a0015160008461478b565b51608083015260c082018051829190614952908390615b54565b905250608082015160a08301805161496b908390615b9b565b90525060e082018051829190614982908390615b9b565b9052505050565b614991615665565b6001600160801b038911806149ac57506001600160801b0388115b806149bd57506001600160801b0387115b806149ce57506001600160801b0386115b806149df57506001600160801b0385115b806149ec5750620f424084115b806149f95750620f424083115b80614a0357508582115b15614a21576040516318b103bd60e21b815260040160405180910390fd5b6000620f4240614a318582615b9b565b614a3b9085615e52565b614a459190615ee9565b9050614a51888a615b54565b620f4240614a5f8682615b9b565b614a69908a615e52565b614a739190615ee9565b1115614b68576000614a85898b615b54565b620f4240614a938782615b9b565b614a9d908b615e52565b614aa79190615ee9565b614ab19190615b9b565b90506000614abf8a8c615b54565b614ac9908a615b9b565b9050614ad78b8b8b88614f16565b8015614ae1575060005b15614afc57614af58c8c8b858b8a89614f40565b9350614b61565b8b15614b2e57614b0f8c8c8c8c87615019565b9350614b1f8c8c8b84878d61509a565b60a08601526080850152614b61565b88614b398b85615e52565b614b439190615ee9565b6060850152614b568c8c8b84878d61509a565b60a086015260808501525b5050614be3565b6000614b7d614b778a8c615b54565b89614ea6565b9050600081118015614b965750614b968a8a8a87614f16565b8015614bab5750614bab8a898389898961510f565b15614bc757614bc08b8b8a848a8a8a89615199565b9250614be1565b8a15614bd957614bc08b8b8b85615247565b606083018290525b505b614bed8184615b9b565b60c08301525098975050505050505050565b600061169d836001600160a01b0384166152b8565b60408051808201909152600080825260208201526000614c348484615307565b9050838302808210614c695760405180604001604052808284614c579190615b9b565b81526020018281525092505050610c64565b60405180604001604052806001614c808585900390565b614c8a9190615b9b565b815260200191909152949350505050565b60008180614cab57614cab615ed3565b838509949350505050565b604080518082019091526000808252602082015281836020015110614cfa57604051806040016040528084600001518152602001838560200151613b6e9190615b9b565b604051806040016040528060018560000151614d169190615b9b565b8152602001614d29856020015185900390565b90529392505050565b600080614d4a614d4484808403615ee9565b60010190565b9050828460200151614d5c9190615ee9565b8451820217949350505050565b60006001815b6008811015611e3a578382026002038202915080614d8c81615e87565b915050614d6f565b604080518082019091526000808252602082015282516020830151614dc2916001600160701b031690615e52565b60208401518351614ddc916001600160701b031690615e52565b03614de8575081610c64565b61169d613c17614df785613d78565b8460046001615316565b600080614e0f858585613a60565b90506000614e1e868686614c9b565b1115612d67576000198110614e4657604051631a93c68960e11b815260040160405180910390fd5b613a89816001615b54565b6000826000018281548110614e6857614e68615e71565b9060005260206000200154905092915050565b600061169d836001600160a01b0384166153a7565b6000818310614e9f578161169d565b5090919050565b6000818311614eb657600061169d565b61169d8284615b9b565b600081831015614e9f578161169d565b6000614edc8284615f4a565b15614ee8576001614eeb565b60005b60ff16614ef88385615ee9565b61169d9190615b54565b6000614f0e838361549a565b159392505050565b6000614f228284615b9b565b614f2c9085615e52565b614f368387615e52565b1095945050505050565b614f48615665565b6000614f5785620f4240615b9b565b614f619087615e52565b90506000614f7f89614f76620f42408b615e52565b878560016154c2565b9050614fc4614f98614f91878d615e52565b8484613a60565b604080518082019091526000808252602082015250604080518082019091529081526000602082015290565b8352615000614fd486898b613a60565b604080518082019091526000808252602082015250604080518082019091529081526001602082015290565b6040840152505060608101919091529695505050505050565b615021615665565b60006150496150308785615e52565b61503a8587615b9b565b6150449088615e52565b614ea6565b905061505d614fd48883611692888b615e52565b8083526020830152615072614fd48583615ee9565b604083015261508b836150858789615b54565b86613a60565b60608301525095945050505050565b600080806150a88686615e52565b905060006150b68886615e52565b9050808211156150f15760008a116150cf5760006150e7565b6150e78a6150dd8385615b9b565b6116928b8d615e52565b9350849250615102565b600093506150ff8883615ee9565b92505b5050965096945050505050565b60008061514b61511f888a615e52565b620f424061512d878b615e52565b615137898b615e52565b6151419190615b54565b61453c9190615e52565b9050600061518061515c8589615e52565b61516988620f4240615b9b565b615173888c615e52565b615137620f42408c615e52565b905061518c828261549a565b9998505050505050505050565b6151a1615665565b60006151ad8589615e52565b6151ba620f424089615e52565b6151c49190615b54565b905060006152048a6151d989620f4240615b9b565b6151e3908c615e52565b876151f18b620f4240615b9b565b6151fb9087615e52565b620f42406154e3565b9050615216614fd4614f91878e615e52565b835261522d614f988684611692620f42408e615e52565b604084015250506060810191909152979650505050505050565b61524f615665565b600061525b8385614ea6565b905061526b614fd4878388613a60565b80835260208301526152a381604080518082019091526000808252602082015250604080518082019091529081526001602082015290565b60408301525060608101919091529392505050565b60008181526001830160205260408120546152ff57508154600181810184556000848152602080822090930184905584548482528286019093526040902091909155610c64565b506000610c64565b60006000198284099392505050565b60408051808201909152600080825260208201526040518060400160405280838660000151886020015161534a9190615e52565b6153549190615e52565b60208701518851879161536691615e52565b6153709190615e52565b61537a9190615b54565b81526020016153898486615b54565b8660200151886020015161539d9190615e52565b613c959190615e52565b600081815260018301602052604081205480156154905760006153cb600183615b9b565b85549091506000906153df90600190615b9b565b90508181146154445760008660000182815481106153ff576153ff615e71565b906000526020600020015490508087600001848154811061542257615422615e71565b6000918252602080832090910192909255918252600188019052604090208390555b855486908061545557615455615f5e565b600190038181906000526020600020016000905590558560010160008681526020019081526020016000206000905560019350505050610c64565b6000915050610c64565b80518251600091108061169d57508151835114801561169d5750506020908101519101511190565b60006154cf848484613a60565b6154d98688615e52565b612fe89190615b9b565b60006154f0848484613a60565b6154fa8688615e52565b612fe89190615b54565b6040805160c08101825260008082526020820181905291810182905260608101919091526080810161553461555c565b815260408051606081018252600080825260208281018290529282015291015290565b905290565b6040518060600160405280600063ffffffff16815260200161558e604080518082019091526000808252602082015290565b8152602001615557604080518082019091526000808252602082015290565b6040518061018001604052806000815260200160008152602001600081526020016155ed6040518060400160405280600081526020016000151581525090565b81526020016156116040518060400160405280600081526020016000151581525090565b81526020016156356040518060400160405280600081526020016000151581525090565b81526020016000815260200160008152602001600081526020016000815260200160008152602001600081525090565b6040805161012081018252600060e082018181526101008301829052825282518084018452818152602080820183905280840191909152835180850185528281529081019190915290918201908152602001600081526020016000815260200160008152602001600081525090565b6001600160a01b03811681146116e157600080fd5b6000602082840312156156fb57600080fd5b813561169d816156d4565b81516001600160a01b0316815260208083015163ffffffff908116828401526040808501511515908401526060808501511515908401526080808501518051909216908401528082015180516001600160701b0390811660a08601529281015190921660c0840152610180830191506040015180516001600160701b0390811660e08501526020820151166101008401525060a083015180516001600160801b039081166101208501526020820151166101408401526040810151610160840152611e3a565b600080604083850312156157df57600080fd5b82356157ea816156d4565b946020939093013593505050565b60008060006060848603121561580d57600080fd5b8335615818816156d4565b95602085013595506040909401359392505050565b63ffffffff811681146116e157600080fd5b60006020828403121561585157600080fd5b813561169d8161582d565b60008060006060848603121561587157600080fd5b833561587c816156d4565b9250602084013561588c816156d4565b929592945050506040919091013590565b81518152602080830151908201526040808301519082015260608101610c64565b600080600080600060a086880312156158d657600080fd5b8535945060208601356158e8816156d4565b935060408601356158f8816156d4565b94979396509394606081013594506080013592915050565b80151581146116e157600080fd5b6000806040838503121561593157600080fd5b823561593c816156d4565b9150602083013561594c81615910565b809150509250929050565b6000808284036101a081121561596c57600080fd5b8335615977816156d4565b9250610180601f198201121561598c57600080fd5b506020830190509250929050565b600080604083850312156159ad57600080fd5b82356159b8816156d4565b9150602083013561594c8161582d565b6000602082840312156159da57600080fd5b813561169d81615910565b600080600080608085870312156159fb57600080fd5b843593506020850135615a0d816156d4565b92506040850135615a1d816156d4565b9396929550929360600135925050565b81516001600160801b039081168252602080840151909116908201526040808301519082015260608101610c64565b6020808252825182820181905260009190848201906040850190845b81811015615a9d5783516001600160a01b031683529284019291840191600101615a78565b50909695505050505050565b60008060008060008060c08789031215615ac257600080fd5b863595506020870135615ad4816156d4565b94506040870135615ae4816156d4565b9350606087013592506080870135915060a0870135615b0281615910565b809150509295509295509295565b60008060408385031215615b2357600080fd5b8235615b2e816156d4565b9150602083013561594c816156d4565b634e487b7160e01b600052601160045260246000fd5b60008219821115615b6757615b67615b3e565b500190565b600060208284031215615b7e57600080fd5b5051919050565b634e487b7160e01b600052602160045260246000fd5b600082821015615bad57615bad615b3e565b500390565b600060208284031215615bc457600080fd5b815161169d81615910565b600060208284031215615be157600080fd5b815161169d816156d4565b634e487b7160e01b600052604160045260246000fd5b60405160c0810167ffffffffffffffff81118282101715615c3357634e487b7160e01b600052604160045260246000fd5b60405290565b6040516060810167ffffffffffffffff81118282101715615c3357634e487b7160e01b600052604160045260246000fd5b80356001600160701b0381168114615c8157600080fd5b919050565b600060408284031215615c9857600080fd5b6040516040810181811067ffffffffffffffff82111715615cc957634e487b7160e01b600052604160045260246000fd5b604052905080615cd883615c6a565b8152615ce660208401615c6a565b60208201525092915050565b80356001600160801b0381168114615c8157600080fd5b600060608284031215615d1b57600080fd5b6040516060810181811067ffffffffffffffff82111715615d4c57634e487b7160e01b600052604160045260246000fd5b604052905080615d5b83615cf2565b8152615d6960208401615cf2565b6020820152604083013560408201525092915050565b6000818303610180811215615d9357600080fd5b615d9b615c02565b8335615da6816156d4565b81526020840135615db68161582d565b60208201526040840135615dc981615910565b60408201526060840135615ddc81615910565b606082015260a0607f1983011215615df357600080fd5b615dfb615c39565b91506080840135615e0b8161582d565b8252615e1a8560a08601615c86565b6020830152615e2c8560e08601615c86565b6040830152816080820152615e45856101208601615d09565b60a0820152949350505050565b6000816000190483118215151615615e6c57615e6c615b3e565b500290565b634e487b7160e01b600052603260045260246000fd5b600060018201615e9957615e99615b3e565b5060010190565b600060208284031215615eb257600080fd5b815161169d8161582d565b634e487b7160e01b600052600160045260246000fd5b634e487b7160e01b600052601260045260246000fd5b600082615ef857615ef8615ed3565b500490565b600063ffffffff83811690831681811015615f1a57615f1a615b3e565b039392505050565b600063ffffffff808316818516808303821115615f4157615f41615b3e565b01949350505050565b600082615f5957615f59615ed3565b500690565b634e487b7160e01b600052603160045260246000fdfea164736f6c634300080d000a",
  "devdoc": {
    "details": "Pool Collection contract notes: - the address of reserve token serves as the pool unique ID in both contract functions and events",
    "events": {
      "DefaultTradingFeePPMUpdated(uint32,uint32)": {
        "details": "triggered when the default trading fee is updated"
      },
      "DepositingEnabled(address,bool)": {
        "details": "triggered when depositing into a specific pool is enabled/disabled"
      },
      "NetworkFeePPMUpdated(uint32,uint32)": {
        "details": "triggered when the network fee is updated"
      },
      "TokensDeposited(bytes32,address,address,uint256,uint256)": {
        "details": "triggered when new liquidity is deposited into a pool"
      },
      "TokensWithdrawn(bytes32,address,address,uint256,uint256,uint256,uint256,uint256)": {
        "details": "triggered when existing liquidity is withdrawn from a pool"
      },
      "TotalLiquidityUpdated(bytes32,address,uint256,uint256,uint256)": {
        "details": "triggered when the total liquidity in a pool is updated"
      },
      "TradingEnabled(address,bool,uint8)": {
        "details": "triggered when trading in a specific pool is enabled/disabled"
      },
      "TradingFeePPMUpdated(address,uint32,uint32)": {
        "details": "triggered when a specific pool's trading fee is updated"
      },
      "TradingLiquidityUpdated(bytes32,address,address,uint256,uint256)": {
        "details": "triggered when the trading liquidity in a pool is updated"
      }
    },
    "kind": "dev",
    "methods": {
      "acceptOwnership()": {
        "details": "used by a new owner to accept an ownership transfer"
      },
      "constructor": {
        "details": "initializes a new PoolCollection contract"
      },
      "createPool(address)": {
        "details": "creates a new pool requirements: - the caller must be the network contract - the pool should have been whitelisted - the pool isn't already defined in the collection"
      },
      "defaultTradingFeePPM()": {
        "details": "returns the default trading fee (in units of PPM)"
      },
      "depositFor(bytes32,address,address,uint256)": {
        "details": "deposits base token liquidity on behalf of a specific provider and returns the respective pool token amount requirements: - the caller must be the network contract - assumes that the base token has been already deposited in the vault"
      },
      "depositingEnabled(address)": {
        "details": "returns whether depositing is enabled"
      },
      "disableTrading(address)": {
        "details": "disables trading in a given pool requirements: - the caller must be the owner of the contract"
      },
      "enableDepositing(address,bool)": {
        "details": "enables/disables depositing into a given pool requirements: - the caller must be the owner of the contract"
      },
      "enableProtection(bool)": {
        "details": "enables/disables protection requirements: - the caller must be the owner of the contract"
      },
      "enableTrading(address,uint256,uint256)": {
        "details": "enables trading in a given pool, by providing the funding rate as two virtual balances, and updates its trading liquidity note that the virtual balances should be derived from token prices, normalized to the smallest unit of tokens. In other words, the ratio between BNT and TKN virtual balances should be the ratio between the $ value of 1 wei of TKN and 1 wei of BNT, taking both of their decimals into account. For example: - if the price of one (10**18 wei) BNT is $X and the price of one (10**18 wei) TKN is $Y, then the virtual balances   should represent a ratio of X to Y - if the price of one (10**18 wei) BNT is $X and the price of one (10**6 wei) USDC is $Y, then the virtual balances   should represent a ratio of X to Y*10**12 requirements: - the caller must be the owner of the contract"
      },
      "isPoolStable(address)": {
        "details": "returns whether the pool is stable"
      },
      "isPoolValid(address)": {
        "details": "returns whether a pool is valid"
      },
      "migratePoolIn(address,(address,uint32,bool,bool,(uint32,(uint112,uint112),(uint112,uint112)),(uint128,uint128,uint256)))": {
        "details": "migrates a pool to this pool collection requirements: - the caller must be the pool migrator contract"
      },
      "migratePoolOut(address,address)": {
        "details": "migrates a pool from this pool collection requirements: - the caller must be the pool migrator contract"
      },
      "networkFeePPM()": {
        "details": "returns the network fee (in units of PPM)"
      },
      "newOwner()": {
        "details": "returns the address of the new owner candidate"
      },
      "onFeesCollected(address,uint256)": {
        "details": "notifies the pool of accrued fees requirements: - the caller must be the network contract"
      },
      "owner()": {
        "details": "returns the address of the current owner"
      },
      "poolCount()": {
        "details": "returns the number of all the pools which are managed by this pool collection"
      },
      "poolData(address)": {
        "details": "returns specific pool's data notes: - there is no guarantee that this function will remain forward compatible,   so relying on it should be avoided and instead, rely on specific getters   from the IPoolCollection interface"
      },
      "poolLiquidity(address)": {
        "details": "returns the overall liquidity in the pool"
      },
      "poolToken(address)": {
        "details": "returns the pool token of the pool"
      },
      "poolTokenAmountToBurn(address,uint256,uint256)": {
        "details": "returns the number of pool token to burn in order to increase everyone's underlying value by the specified amount"
      },
      "poolTokenToUnderlying(address,uint256)": {
        "details": "converts the specified pool token amount to the underlying base token amount"
      },
      "poolType()": {
        "details": "returns the type of the pool"
      },
      "pools()": {
        "details": "returns all the pools which are managed by this pool collection"
      },
      "protectionEnabled()": {
        "details": "returns the status of the protection"
      },
      "setDefaultTradingFeePPM(uint32)": {
        "details": "sets the default trading fee (in units of PPM) requirements: - the caller must be the owner of the contract"
      },
      "setNetworkFeePPM(uint32)": {
        "details": "sets the network fee (in units of PPM) requirements: - the caller must be the owner of the contract"
      },
      "setTradingFeePPM(address,uint32)": {
        "details": "sets the trading fee of a given pool requirements: - the caller must be the owner of the contract"
      },
      "tradeBySourceAmount(bytes32,address,address,uint256,uint256,bool)": {
        "details": "performs a trade by providing the source amount and returns the target amount and the associated fee requirements: - the caller must be the network contract"
      },
      "tradeByTargetAmount(bytes32,address,address,uint256,uint256,bool)": {
        "details": "performs a trade by providing the target amount and returns the required source amount and the associated fee requirements: - the caller must be the network contract"
      },
      "tradeInputAndFeeByTargetAmount(address,address,uint256)": {
        "details": "returns the input amount and fee when trading by providing the target amount"
      },
      "tradeOutputAndFeeBySourceAmount(address,address,uint256)": {
        "details": "returns the output amount and fee when trading by providing the source amount"
      },
      "tradingEnabled(address)": {
        "details": "returns whether trading is enabled"
      },
      "tradingFeePPM(address)": {
        "details": "returns the trading fee (in units of PPM)"
      },
      "transferOwnership(address)": {
        "details": "allows transferring the contract ownership requirements: - the caller must be the owner of the contract - the new owner still needs to accept the transfer"
      },
      "underlyingToPoolToken(address,uint256)": {
        "details": "converts the specified underlying base token amount to pool token amount"
      },
      "updateTradingLiquidity(address)": {
        "details": "adjusts the trading liquidity in the given pool based on the base token vault balance/funding limit requirements: - the caller must be the owner of the contract"
      },
      "withdraw(bytes32,address,address,uint256,uint256)": {
        "details": "handles some of the withdrawal-related actions and returns the withdrawn base token amount requirements: - the caller must be the network contract - the caller must have approved the collection to transfer/burn the pool token amount on its behalf"
      },
      "withdrawalAmounts(address,uint256)": {
        "details": "returns the amounts that would be returned if the position is currently withdrawn, along with the breakdown of the base token and the BNT compensation"
      }
    },
    "version": 1
  },
  "userdoc": {
    "kind": "user",
    "methods": {},
    "version": 1
  },
  "storageLayout": {
    "storage": [
      {
        "astId": 33574,
        "contract": "contracts/pools/PoolCollection.sol:PoolCollection",
        "label": "_owner",
        "offset": 0,
        "slot": "0",
        "type": "t_address"
      },
      {
        "astId": 33576,
        "contract": "contracts/pools/PoolCollection.sol:PoolCollection",
        "label": "_newOwner",
        "offset": 0,
        "slot": "1",
        "type": "t_address"
      },
      {
        "astId": 20697,
        "contract": "contracts/pools/PoolCollection.sol:PoolCollection",
        "label": "_poolData",
        "offset": 0,
        "slot": "2",
        "type": "t_mapping(t_contract(Token)31719,t_struct(Pool)26307_storage)"
      },
      {
        "astId": 20700,
        "contract": "contracts/pools/PoolCollection.sol:PoolCollection",
        "label": "_pools",
        "offset": 0,
        "slot": "3",
        "type": "t_struct(AddressSet)6608_storage"
      },
      {
        "astId": 20702,
        "contract": "contracts/pools/PoolCollection.sol:PoolCollection",
        "label": "_defaultTradingFeePPM",
        "offset": 0,
        "slot": "5",
        "type": "t_uint32"
      },
      {
        "astId": 20704,
        "contract": "contracts/pools/PoolCollection.sol:PoolCollection",
        "label": "_networkFeePPM",
        "offset": 4,
        "slot": "5",
        "type": "t_uint32"
      },
      {
        "astId": 20707,
        "contract": "contracts/pools/PoolCollection.sol:PoolCollection",
        "label": "_protectionEnabled",
        "offset": 8,
        "slot": "5",
        "type": "t_bool"
      }
    ],
    "types": {
      "t_address": {
        "encoding": "inplace",
        "label": "address",
        "numberOfBytes": "20"
      },
      "t_array(t_bytes32)dyn_storage": {
        "base": "t_bytes32",
        "encoding": "dynamic_array",
        "label": "bytes32[]",
        "numberOfBytes": "32"
      },
      "t_bool": {
        "encoding": "inplace",
        "label": "bool",
        "numberOfBytes": "1"
      },
      "t_bytes32": {
        "encoding": "inplace",
        "label": "bytes32",
        "numberOfBytes": "32"
      },
      "t_contract(IPoolToken)26684": {
        "encoding": "inplace",
        "label": "contract IPoolToken",
        "numberOfBytes": "20"
      },
      "t_contract(Token)31719": {
        "encoding": "inplace",
        "label": "contract Token",
        "numberOfBytes": "20"
      },
      "t_mapping(t_bytes32,t_uint256)": {
        "encoding": "mapping",
        "key": "t_bytes32",
        "label": "mapping(bytes32 => uint256)",
        "numberOfBytes": "32",
        "value": "t_uint256"
      },
      "t_mapping(t_contract(Token)31719,t_struct(Pool)26307_storage)": {
        "encoding": "mapping",
        "key": "t_contract(Token)31719",
        "label": "mapping(contract Token => struct Pool)",
        "numberOfBytes": "32",
        "value": "t_struct(Pool)26307_storage"
      },
      "t_struct(AddressSet)6608_storage": {
        "encoding": "inplace",
        "label": "struct EnumerableSet.AddressSet",
        "members": [
          {
            "astId": 6607,
            "contract": "contracts/pools/PoolCollection.sol:PoolCollection",
            "label": "_inner",
            "offset": 0,
            "slot": "0",
            "type": "t_struct(Set)6307_storage"
          }
        ],
        "numberOfBytes": "64"
      },
      "t_struct(AverageRates)26291_storage": {
        "encoding": "inplace",
        "label": "struct AverageRates",
        "members": [
          {
            "astId": 26284,
            "contract": "contracts/pools/PoolCollection.sol:PoolCollection",
            "label": "blockNumber",
            "offset": 0,
            "slot": "0",
            "type": "t_uint32"
          },
          {
            "astId": 26287,
            "contract": "contracts/pools/PoolCollection.sol:PoolCollection",
            "label": "rate",
            "offset": 0,
            "slot": "1",
            "type": "t_struct(Fraction112)32108_storage"
          },
          {
            "astId": 26290,
            "contract": "contracts/pools/PoolCollection.sol:PoolCollection",
            "label": "invRate",
            "offset": 0,
            "slot": "2",
            "type": "t_struct(Fraction112)32108_storage"
          }
        ],
        "numberOfBytes": "96"
      },
      "t_struct(Fraction112)32108_storage": {
        "encoding": "inplace",
        "label": "struct Fraction112",
        "members": [
          {
            "astId": 32105,
            "contract": "contracts/pools/PoolCollection.sol:PoolCollection",
            "label": "n",
            "offset": 0,
            "slot": "0",
            "type": "t_uint112"
          },
          {
            "astId": 32107,
            "contract": "contracts/pools/PoolCollection.sol:PoolCollection",
            "label": "d",
            "offset": 14,
            "slot": "0",
            "type": "t_uint112"
          }
        ],
        "numberOfBytes": "32"
      },
      "t_struct(Pool)26307_storage": {
        "encoding": "inplace",
        "label": "struct Pool",
        "members": [
          {
            "astId": 26294,
            "contract": "contracts/pools/PoolCollection.sol:PoolCollection",
            "label": "poolToken",
            "offset": 0,
            "slot": "0",
            "type": "t_contract(IPoolToken)26684"
          },
          {
            "astId": 26296,
            "contract": "contracts/pools/PoolCollection.sol:PoolCollection",
            "label": "tradingFeePPM",
            "offset": 20,
            "slot": "0",
            "type": "t_uint32"
          },
          {
            "astId": 26298,
            "contract": "contracts/pools/PoolCollection.sol:PoolCollection",
            "label": "tradingEnabled",
            "offset": 24,
            "slot": "0",
            "type": "t_bool"
          },
          {
            "astId": 26300,
            "contract": "contracts/pools/PoolCollection.sol:PoolCollection",
            "label": "depositingEnabled",
            "offset": 25,
            "slot": "0",
            "type": "t_bool"
          },
          {
            "astId": 26303,
            "contract": "contracts/pools/PoolCollection.sol:PoolCollection",
            "label": "averageRates",
            "offset": 0,
            "slot": "1",
            "type": "t_struct(AverageRates)26291_storage"
          },
          {
            "astId": 26306,
            "contract": "contracts/pools/PoolCollection.sol:PoolCollection",
            "label": "liquidity",
            "offset": 0,
            "slot": "4",
            "type": "t_struct(PoolLiquidity)26282_storage"
          }
        ],
        "numberOfBytes": "192"
      },
      "t_struct(PoolLiquidity)26282_storage": {
        "encoding": "inplace",
        "label": "struct PoolLiquidity",
        "members": [
          {
            "astId": 26277,
            "contract": "contracts/pools/PoolCollection.sol:PoolCollection",
            "label": "bntTradingLiquidity",
            "offset": 0,
            "slot": "0",
            "type": "t_uint128"
          },
          {
            "astId": 26279,
            "contract": "contracts/pools/PoolCollection.sol:PoolCollection",
            "label": "baseTokenTradingLiquidity",
            "offset": 16,
            "slot": "0",
            "type": "t_uint128"
          },
          {
            "astId": 26281,
            "contract": "contracts/pools/PoolCollection.sol:PoolCollection",
            "label": "stakedBalance",
            "offset": 0,
            "slot": "1",
            "type": "t_uint256"
          }
        ],
        "numberOfBytes": "64"
      },
      "t_struct(Set)6307_storage": {
        "encoding": "inplace",
        "label": "struct EnumerableSet.Set",
        "members": [
          {
            "astId": 6302,
            "contract": "contracts/pools/PoolCollection.sol:PoolCollection",
            "label": "_values",
            "offset": 0,
            "slot": "0",
            "type": "t_array(t_bytes32)dyn_storage"
          },
          {
            "astId": 6306,
            "contract": "contracts/pools/PoolCollection.sol:PoolCollection",
            "label": "_indexes",
            "offset": 0,
            "slot": "1",
            "type": "t_mapping(t_bytes32,t_uint256)"
          }
        ],
        "numberOfBytes": "64"
      },
      "t_uint112": {
        "encoding": "inplace",
        "label": "uint112",
        "numberOfBytes": "14"
      },
      "t_uint128": {
        "encoding": "inplace",
        "label": "uint128",
        "numberOfBytes": "16"
      },
      "t_uint256": {
        "encoding": "inplace",
        "label": "uint256",
        "numberOfBytes": "32"
      },
      "t_uint32": {
        "encoding": "inplace",
        "label": "uint32",
        "numberOfBytes": "4"
      }
    }
  }
}