{
  "address": "0x330EE79A0a4f310315D58629c3AFc20D384d198d",
  "abi": [
    {
      "inputs": [
        {
          "internalType": "contract IBancorNetwork",
          "name": "initNetwork",
          "type": "address"
        }
      ],
      "stateMutability": "nonpayable",
      "type": "constructor"
    },
    {
      "inputs": [],
      "name": "AccessDenied",
      "type": "error"
    },
    {
      "inputs": [],
      "name": "AlreadyExists",
      "type": "error"
    },
    {
      "inputs": [],
      "name": "AlreadyInitialized",
      "type": "error"
    },
    {
      "inputs": [],
      "name": "InvalidAddress",
      "type": "error"
    },
    {
      "inputs": [],
      "name": "InvalidPool",
      "type": "error"
    },
    {
      "inputs": [],
      "name": "InvalidPoolType",
      "type": "error"
    },
    {
      "inputs": [],
      "name": "UnsupportedVersion",
      "type": "error"
    },
    {
      "anonymous": false,
      "inputs": [
        {
          "indexed": true,
          "internalType": "bytes32",
          "name": "role",
          "type": "bytes32"
        },
        {
          "indexed": true,
          "internalType": "bytes32",
          "name": "previousAdminRole",
          "type": "bytes32"
        },
        {
          "indexed": true,
          "internalType": "bytes32",
          "name": "newAdminRole",
          "type": "bytes32"
        }
      ],
      "name": "RoleAdminChanged",
      "type": "event"
    },
    {
      "anonymous": false,
      "inputs": [
        {
          "indexed": true,
          "internalType": "bytes32",
          "name": "role",
          "type": "bytes32"
        },
        {
          "indexed": true,
          "internalType": "address",
          "name": "account",
          "type": "address"
        },
        {
          "indexed": true,
          "internalType": "address",
          "name": "sender",
          "type": "address"
        }
      ],
      "name": "RoleGranted",
      "type": "event"
    },
    {
      "anonymous": false,
      "inputs": [
        {
          "indexed": true,
          "internalType": "bytes32",
          "name": "role",
          "type": "bytes32"
        },
        {
          "indexed": true,
          "internalType": "address",
          "name": "account",
          "type": "address"
        },
        {
          "indexed": true,
          "internalType": "address",
          "name": "sender",
          "type": "address"
        }
      ],
      "name": "RoleRevoked",
      "type": "event"
    },
    {
      "inputs": [],
      "name": "DEFAULT_ADMIN_ROLE",
      "outputs": [
        {
          "internalType": "bytes32",
          "name": "",
          "type": "bytes32"
        }
      ],
      "stateMutability": "view",
      "type": "function"
    },
    {
      "inputs": [
        {
          "internalType": "bytes32",
          "name": "role",
          "type": "bytes32"
        }
      ],
      "name": "getRoleAdmin",
      "outputs": [
        {
          "internalType": "bytes32",
          "name": "",
          "type": "bytes32"
        }
      ],
      "stateMutability": "view",
      "type": "function"
    },
    {
      "inputs": [
        {
          "internalType": "bytes32",
          "name": "role",
          "type": "bytes32"
        },
        {
          "internalType": "uint256",
          "name": "index",
          "type": "uint256"
        }
      ],
      "name": "getRoleMember",
      "outputs": [
        {
          "internalType": "address",
          "name": "",
          "type": "address"
        }
      ],
      "stateMutability": "view",
      "type": "function"
    },
    {
      "inputs": [
        {
          "internalType": "bytes32",
          "name": "role",
          "type": "bytes32"
        }
      ],
      "name": "getRoleMemberCount",
      "outputs": [
        {
          "internalType": "uint256",
          "name": "",
          "type": "uint256"
        }
      ],
      "stateMutability": "view",
      "type": "function"
    },
    {
      "inputs": [
        {
          "internalType": "bytes32",
          "name": "role",
          "type": "bytes32"
        },
        {
          "internalType": "address",
          "name": "account",
          "type": "address"
        }
      ],
      "name": "grantRole",
      "outputs": [],
      "stateMutability": "nonpayable",
      "type": "function"
    },
    {
      "inputs": [
        {
          "internalType": "bytes32",
          "name": "role",
          "type": "bytes32"
        },
        {
          "internalType": "address",
          "name": "account",
          "type": "address"
        }
      ],
      "name": "hasRole",
      "outputs": [
        {
          "internalType": "bool",
          "name": "",
          "type": "bool"
        }
      ],
      "stateMutability": "view",
      "type": "function"
    },
    {
      "inputs": [],
      "name": "initialize",
      "outputs": [],
      "stateMutability": "nonpayable",
      "type": "function"
    },
    {
      "inputs": [
        {
          "internalType": "contract Token",
          "name": "pool",
          "type": "address"
        },
        {
          "internalType": "contract IPoolCollection",
          "name": "newPoolCollection",
          "type": "address"
        }
      ],
      "name": "migratePool",
      "outputs": [],
      "stateMutability": "nonpayable",
      "type": "function"
    },
    {
      "inputs": [
        {
          "internalType": "bytes",
          "name": "data",
          "type": "bytes"
        }
      ],
      "name": "postUpgrade",
      "outputs": [],
      "stateMutability": "nonpayable",
      "type": "function"
    },
    {
      "inputs": [
        {
          "internalType": "bytes32",
          "name": "role",
          "type": "bytes32"
        },
        {
          "internalType": "address",
          "name": "account",
          "type": "address"
        }
      ],
      "name": "renounceRole",
      "outputs": [],
      "stateMutability": "nonpayable",
      "type": "function"
    },
    {
      "inputs": [
        {
          "internalType": "bytes32",
          "name": "role",
          "type": "bytes32"
        },
        {
          "internalType": "address",
          "name": "account",
          "type": "address"
        }
      ],
      "name": "revokeRole",
      "outputs": [],
      "stateMutability": "nonpayable",
      "type": "function"
    },
    {
      "inputs": [],
      "name": "roleAdmin",
      "outputs": [
        {
          "internalType": "bytes32",
          "name": "",
          "type": "bytes32"
        }
      ],
      "stateMutability": "pure",
      "type": "function"
    },
    {
      "inputs": [
        {
          "internalType": "bytes4",
          "name": "interfaceId",
          "type": "bytes4"
        }
      ],
      "name": "supportsInterface",
      "outputs": [
        {
          "internalType": "bool",
          "name": "",
          "type": "bool"
        }
      ],
      "stateMutability": "view",
      "type": "function"
    },
    {
      "inputs": [],
      "name": "version",
      "outputs": [
        {
          "internalType": "uint16",
          "name": "",
          "type": "uint16"
        }
      ],
      "stateMutability": "pure",
      "type": "function"
    }
  ],
  "transactionHash": "0xc39131b4b1e33e5944cfa59eb347cd53f95bd4b26aa202dca6a685301ff2ccc2",
  "args": [
    "0xeEF417e1D5CC832e619ae18D2F140De2999dD4fB"
  ],
  "numDeployments": 5,
  "solcInputHash": "a927a6888186dffd8bd5cdda91c49d63",
  "bytecode": "0x60a060405234801561001057600080fd5b5060405161178f38038061178f83398101604081905261002f91610075565b806100398161004b565b506001600160a01b03166080526100a5565b6001600160a01b0381166100725760405163e6c4247b60e01b815260040160405180910390fd5b50565b60006020828403121561008757600080fd5b81516001600160a01b038116811461009e57600080fd5b9392505050565b6080516116c86100c760003960008181610324015261039401526116c86000f3fe608060405234801561001057600080fd5b50600436106100ea5760003560e01c80638cd2403d1161008c57806393867fb51161006657806393867fb5146101eb578063a217fddf14610211578063ca15c87314610219578063d547741f1461022c57600080fd5b80638cd2403d1461019a5780639010d07c146101ad57806391d14854146101d857600080fd5b806336568abe116100c857806336568abe1461015d57806354fd4d5014610170578063772b7e971461017f5780638129fc1c1461019257600080fd5b806301ffc9a7146100ef578063248a9ca3146101175780632f2ff15d14610148575b600080fd5b6101026100fd366004610fe4565b61023f565b60405190151581526020015b60405180910390f35b61013a61012536600461100e565b60009081526065602052604090206001015490565b60405190815260200161010e565b61015b61015636600461103c565b61026a565b005b61015b61016b36600461103c565b610295565b6040516005815260200161010e565b61015b61018d36600461106c565b610318565b61015b6105e2565b61015b6101a836600461109a565b6106a3565b6101c06101bb36600461110c565b6106f4565b6040516001600160a01b03909116815260200161010e565b6101026101e636600461103c565b610713565b7f2172861495e7b85edac73e3cd5fbb42dd675baadf627720e687bcfdaca02509661013a565b61013a600081565b61013a61022736600461100e565b61073e565b61015b61023a36600461103c565b610755565b60006001600160e01b03198216635a05180f60e01b148061026457506102648261077b565b92915050565b60008281526065602052604090206001015461028681336107b0565b6102908383610814565b505050565b6001600160a01b038116331461030a5760405162461bcd60e51b815260206004820152602f60248201527f416363657373436f6e74726f6c3a2063616e206f6e6c792072656e6f756e636560448201526e103937b632b9903337b91039b2b63360891b60648201526084015b60405180910390fd5b6103148282610836565b5050565b8061032281610858565b7f000000000000000000000000000000000000000000000000000000000000000061034c8161087f565b6001600160a01b0384166103725760405162820f3560e61b815260040160405180910390fd5b6040516309bca0e760e41b81526001600160a01b0385811660048301526000917f000000000000000000000000000000000000000000000000000000000000000090911690639bca0e7090602401602060405180830381865afa1580156103dd573d6000803e3d6000fd5b505050506040513d601f19601f82011682018060405250810190610401919061112e565b90506001600160a01b0381166104295760405162820f3560e61b815260040160405180910390fd5b836001600160a01b0316816001600160a01b03160361045b5760405163119b4fd360e11b815260040160405180910390fd5b836001600160a01b031663b1dd61b66040518163ffffffff1660e01b8152600401602060405180830381865afa158015610499573d6000803e3d6000fd5b505050506040513d601f19601f820116820180604052508101906104bd919061114b565b61ffff16816001600160a01b031663b1dd61b66040518163ffffffff1660e01b8152600401602060405180830381865afa1580156104ff573d6000803e3d6000fd5b505050506040513d601f19601f82011682018060405250810190610523919061114b565b61ffff161461054557604051632946cbf160e01b815260040160405180910390fd5b6005816001600160a01b03166354fd4d506040518163ffffffff1660e01b8152600401602060405180830381865afa158015610585573d6000803e3d6000fd5b505050506040513d601f19601f820116820180604052508101906105a9919061114b565b61ffff16106105c3576105bd8582866108a8565b506105dc565b60405163b01318a560e01b815260040160405180910390fd5b50505050565b600054610100900460ff166105fd5760005460ff1615610601565b303b155b6106645760405162461bcd60e51b815260206004820152602e60248201527f496e697469616c697a61626c653a20636f6e747261637420697320616c72656160448201526d191e481a5b9a5d1a585b1a5e995960921b6064820152608401610301565b600054610100900460ff16158015610686576000805461ffff19166101011790555b61068e610a3a565b80156106a0576000805461ff00191690555b50565b60c9546000906106b89061ffff166001611185565b905061ffff81166005146106de5760405162dc149f60e41b815260040160405180910390fd5b60c9805461ffff191661ffff8316179055505050565b600082815260976020526040812061070c9083610a73565b9392505050565b60009182526065602090815260408084206001600160a01b0393909316845291905290205460ff1690565b600081815260976020526040812061026490610a7f565b60008281526065602052604090206001015461077181336107b0565b6102908383610836565b60006001600160e01b03198216637965db0b60e01b148061026457506301ffc9a760e01b6001600160e01b0319831614610264565b6107ba8282610713565b610314576107d2816001600160a01b03166014610a89565b6107dd836020610a89565b6040516020016107ee9291906111d7565b60408051601f198184030181529082905262461bcd60e51b82526103019160040161124c565b61081e8282610c25565b60008281526097602052604090206102909082610cab565b6108408282610cc0565b60008281526097602052604090206102909082610d27565b6001600160a01b0381166106a05760405163e6c4247b60e01b815260040160405180910390fd5b336001600160a01b038216146106a057604051634ca8886760e01b815260040160405180910390fd5b6040516309b77dbd60e11b81526001600160a01b0384811660048301526000919084169063136efb7a9060240161018060405180830381865afa1580156108f3573d6000803e3d6000fd5b505050506040513d601f19601f820116820180604052508101906109179190611436565b60808082015160a0808401516040805160c08101825286516001600160a01b03908116825260208089015163ffffffff169083015282880151151582840152606080890151151590830152958101859052928301829052516334f7c90960e21b8152898516600482015287851660248201529495509193919290919087169063d3df242490604401600060405180830381600087803b1580156109b957600080fd5b505af11580156109cd573d6000803e3d6000fd5b505060405163915b994160e01b81526001600160a01b038816925063915b994191506109ff908a908590600401611501565b600060405180830381600087803b158015610a1957600080fd5b505af1158015610a2d573d6000803e3d6000fd5b5050505050505050505050565b600054610100900460ff16610a615760405162461bcd60e51b8152600401610301906115df565b610a69610d3c565b610a71610d73565b565b600061070c8383610d9a565b6000610264825490565b60606000610a9883600261162a565b610aa3906002611649565b67ffffffffffffffff811115610abb57610abb61127f565b6040519080825280601f01601f191660200182016040528015610ae5576020820181803683370190505b509050600360fc1b81600081518110610b0057610b00611661565b60200101906001600160f81b031916908160001a905350600f60fb1b81600181518110610b2f57610b2f611661565b60200101906001600160f81b031916908160001a9053506000610b5384600261162a565b610b5e906001611649565b90505b6001811115610bd6576f181899199a1a9b1b9c1cb0b131b232b360811b85600f1660108110610b9257610b92611661565b1a60f81b828281518110610ba857610ba8611661565b60200101906001600160f81b031916908160001a90535060049490941c93610bcf81611677565b9050610b61565b50831561070c5760405162461bcd60e51b815260206004820181905260248201527f537472696e67733a20686578206c656e67746820696e73756666696369656e746044820152606401610301565b610c2f8282610713565b6103145760008281526065602090815260408083206001600160a01b03851684529091529020805460ff19166001179055610c673390565b6001600160a01b0316816001600160a01b0316837f2f8788117e7eff1d82e926ec794901d17c78024a50270940304540a733656f0d60405160405180910390a45050565b600061070c836001600160a01b038416610dc4565b610cca8282610713565b156103145760008281526065602090815260408083206001600160a01b0385168085529252808320805460ff1916905551339285917ff6391f5c32d9c69d2a47ea670b442974b53935d1edc7fd64eb21e047a839171b9190a45050565b600061070c836001600160a01b038416610e13565b600054610100900460ff16610d635760405162461bcd60e51b8152600401610301906115df565b610d6b610d73565b610a71610f06565b600054610100900460ff16610a715760405162461bcd60e51b8152600401610301906115df565b6000826000018281548110610db157610db1611661565b9060005260206000200154905092915050565b6000818152600183016020526040812054610e0b57508154600181810184556000848152602080822090930184905584548482528286019093526040902091909155610264565b506000610264565b60008181526001830160205260408120548015610efc576000610e3760018361168e565b8554909150600090610e4b9060019061168e565b9050818114610eb0576000866000018281548110610e6b57610e6b611661565b9060005260206000200154905080876000018481548110610e8e57610e8e611661565b6000918252602080832090910192909255918252600188019052604090208390555b8554869080610ec157610ec16116a5565b600190038181906000526020600020016000905590558560010160008681526020019081526020016000206000905560019350505050610264565b6000915050610264565b600054610100900460ff16610f2d5760405162461bcd60e51b8152600401610301906115df565b60c9805461ffff19166001179055610f657f2172861495e7b85edac73e3cd5fbb42dd675baadf627720e687bcfdaca02509680610f8f565b610a717f2172861495e7b85edac73e3cd5fbb42dd675baadf627720e687bcfdaca02509633610fda565b600082815260656020526040808220600101805490849055905190918391839186917fbd79b86ffe0ab8e8776151514217cd7cacd52c909f66475c3af44e129f0b00ff9190a4505050565b6103148282610814565b600060208284031215610ff657600080fd5b81356001600160e01b03198116811461070c57600080fd5b60006020828403121561102057600080fd5b5035919050565b6001600160a01b03811681146106a057600080fd5b6000806040838503121561104f57600080fd5b82359150602083013561106181611027565b809150509250929050565b6000806040838503121561107f57600080fd5b823561108a81611027565b9150602083013561106181611027565b600080602083850312156110ad57600080fd5b823567ffffffffffffffff808211156110c557600080fd5b818501915085601f8301126110d957600080fd5b8135818111156110e857600080fd5b8660208285010111156110fa57600080fd5b60209290920196919550909350505050565b6000806040838503121561111f57600080fd5b50508035926020909101359150565b60006020828403121561114057600080fd5b815161070c81611027565b60006020828403121561115d57600080fd5b815161ffff8116811461070c57600080fd5b634e487b7160e01b600052601160045260246000fd5b600061ffff8083168185168083038211156111a2576111a261116f565b01949350505050565b60005b838110156111c65781810151838201526020016111ae565b838111156105dc5750506000910152565b7f416363657373436f6e74726f6c3a206163636f756e742000000000000000000081526000835161120f8160178501602088016111ab565b7001034b99036b4b9b9b4b733903937b6329607d1b60179184019182015283516112408160288401602088016111ab565b01602801949350505050565b602081526000825180602084015261126b8160408501602087016111ab565b601f01601f19169190910160400192915050565b634e487b7160e01b600052604160045260246000fd5b60405160c0810167ffffffffffffffff811182821017156112c657634e487b7160e01b600052604160045260246000fd5b60405290565b6040516060810167ffffffffffffffff811182821017156112c657634e487b7160e01b600052604160045260246000fd5b805163ffffffff8116811461131157600080fd5b919050565b8051801515811461131157600080fd5b80516001600160701b038116811461131157600080fd5b60006040828403121561134f57600080fd5b6040516040810181811067ffffffffffffffff8211171561138057634e487b7160e01b600052604160045260246000fd5b60405290508061138f83611326565b815261139d60208401611326565b60208201525092915050565b80516001600160801b038116811461131157600080fd5b6000606082840312156113d257600080fd5b6040516060810181811067ffffffffffffffff8211171561140357634e487b7160e01b600052604160045260246000fd5b604052905080611412836113a9565b8152611420602084016113a9565b6020820152604083015160408201525092915050565b600081830361018081121561144a57600080fd5b611452611295565b835161145d81611027565b815261146b602085016112fd565b602082015261147c60408501611316565b604082015261148d60608501611316565b606082015260a0607f19830112156114a457600080fd5b6114ac6112cc565b91506114ba608085016112fd565b82526114c98560a0860161133d565b60208301526114db8560e0860161133d565b60408301528160808201526114f48561012086016113c0565b60a0820152949350505050565b60006101a08201905060018060a01b03808516835280845116602084015250602083015163ffffffff8082166040850152604085015115156060850152606085015115156080850152608085015191508082511660a085015250602081015161158360c085018280516001600160701b03908116835260209182015116910152565b506040015180516001600160701b039081166101008501526020820151166101208401525060a083015180516001600160801b039081166101408501526020820151166101608401526040810151610180840152509392505050565b6020808252602b908201527f496e697469616c697a61626c653a20636f6e7472616374206973206e6f74206960408201526a6e697469616c697a696e6760a81b606082015260800190565b60008160001904831182151516156116445761164461116f565b500290565b6000821982111561165c5761165c61116f565b500190565b634e487b7160e01b600052603260045260246000fd5b6000816116865761168661116f565b506000190190565b6000828210156116a0576116a061116f565b500390565b634e487b7160e01b600052603160045260246000fdfea164736f6c634300080d000a",
  "devdoc": {
    "details": "Pool Migrator contract",
    "kind": "dev",
    "methods": {
      "constructor": {
        "details": "a \"virtual\" constructor that is only used to set immutable state variables"
      },
      "getRoleAdmin(bytes32)": {
        "details": "Returns the admin role that controls `role`. See {grantRole} and {revokeRole}. To change a role's admin, use {_setRoleAdmin}."
      },
      "getRoleMember(bytes32,uint256)": {
        "details": "Returns one of the accounts that have `role`. `index` must be a value between 0 and {getRoleMemberCount}, non-inclusive. Role bearers are not sorted in any particular way, and their ordering may change at any point. WARNING: When using {getRoleMember} and {getRoleMemberCount}, make sure you perform all queries on the same block. See the following https://forum.openzeppelin.com/t/iterating-over-elements-on-enumerableset-in-openzeppelin-contracts/2296[forum post] for more information."
      },
      "getRoleMemberCount(bytes32)": {
        "details": "Returns the number of accounts that have `role`. Can be used together with {getRoleMember} to enumerate all bearers of a role."
      },
      "grantRole(bytes32,address)": {
        "details": "Grants `role` to `account`. If `account` had not been already granted `role`, emits a {RoleGranted} event. Requirements: - the caller must have ``role``'s admin role."
      },
      "hasRole(bytes32,address)": {
        "details": "Returns `true` if `account` has been granted `role`."
      },
      "initialize()": {
        "details": "fully initializes the contract and its parents"
      },
      "migratePool(address,address)": {
        "details": "migrates a pool and returns the new pool collection it exists in notes: - invalid or incompatible pools will be skipped gracefully requirements: - the caller must be the network contract"
      },
      "postUpgrade(bytes)": {
        "details": "performs post-upgrade initialization requirements: - this must can be called only once per-upgrade"
      },
      "renounceRole(bytes32,address)": {
        "details": "Revokes `role` from the calling account. Roles are often managed via {grantRole} and {revokeRole}: this function's purpose is to provide a mechanism for accounts to lose their privileges if they are compromised (such as when a trusted device is misplaced). If the calling account had been revoked `role`, emits a {RoleRevoked} event. Requirements: - the caller must be `account`."
      },
      "revokeRole(bytes32,address)": {
        "details": "Revokes `role` from `account`. If `account` had been granted `role`, emits a {RoleRevoked} event. Requirements: - the caller must have ``role``'s admin role."
      },
      "roleAdmin()": {
        "details": "returns the admin role"
      },
      "supportsInterface(bytes4)": {
        "details": "See {IERC165-supportsInterface}."
      }
    },
    "version": 1
  },
  "userdoc": {
    "kind": "user",
    "methods": {},
    "version": 1
  },
  "storageLayout": {
    "storage": [
      {
        "astId": 644,
        "contract": "contracts/pools/PoolMigrator.sol:PoolMigrator",
        "label": "_initialized",
        "offset": 0,
        "slot": "0",
        "type": "t_bool"
      },
      {
        "astId": 647,
        "contract": "contracts/pools/PoolMigrator.sol:PoolMigrator",
        "label": "_initializing",
        "offset": 1,
        "slot": "0",
        "type": "t_bool"
      },
      {
        "astId": 1165,
        "contract": "contracts/pools/PoolMigrator.sol:PoolMigrator",
        "label": "__gap",
        "offset": 0,
        "slot": "1",
        "type": "t_array(t_uint256)50_storage"
      },
      {
        "astId": 1412,
        "contract": "contracts/pools/PoolMigrator.sol:PoolMigrator",
        "label": "__gap",
        "offset": 0,
        "slot": "51",
        "type": "t_array(t_uint256)50_storage"
      },
      {
        "astId": 250,
        "contract": "contracts/pools/PoolMigrator.sol:PoolMigrator",
        "label": "_roles",
        "offset": 0,
        "slot": "101",
        "type": "t_mapping(t_bytes32,t_struct(RoleData)245_storage)"
      },
      {
        "astId": 538,
        "contract": "contracts/pools/PoolMigrator.sol:PoolMigrator",
        "label": "__gap",
        "offset": 0,
        "slot": "102",
        "type": "t_array(t_uint256)49_storage"
      },
      {
        "astId": 99,
        "contract": "contracts/pools/PoolMigrator.sol:PoolMigrator",
        "label": "_roleMembers",
        "offset": 0,
        "slot": "151",
        "type": "t_mapping(t_bytes32,t_struct(AddressSet)1737_storage)"
      },
      {
        "astId": 209,
        "contract": "contracts/pools/PoolMigrator.sol:PoolMigrator",
        "label": "__gap",
        "offset": 0,
        "slot": "152",
        "type": "t_array(t_uint256)49_storage"
      },
      {
        "astId": 31429,
        "contract": "contracts/pools/PoolMigrator.sol:PoolMigrator",
        "label": "_initializations",
        "offset": 0,
        "slot": "201",
        "type": "t_uint16"
      },
      {
        "astId": 31435,
        "contract": "contracts/pools/PoolMigrator.sol:PoolMigrator",
        "label": "__gap",
        "offset": 0,
        "slot": "202",
        "type": "t_array(t_uint256)49_storage"
      },
      {
        "astId": 22937,
        "contract": "contracts/pools/PoolMigrator.sol:PoolMigrator",
        "label": "__gap",
        "offset": 0,
        "slot": "251",
        "type": "t_array(t_uint256)50_storage"
      }
    ],
    "types": {
      "t_address": {
        "encoding": "inplace",
        "label": "address",
        "numberOfBytes": "20"
      },
      "t_array(t_bytes32)dyn_storage": {
        "base": "t_bytes32",
        "encoding": "dynamic_array",
        "label": "bytes32[]",
        "numberOfBytes": "32"
      },
      "t_array(t_uint256)49_storage": {
        "base": "t_uint256",
        "encoding": "inplace",
        "label": "uint256[49]",
        "numberOfBytes": "1568"
      },
      "t_array(t_uint256)50_storage": {
        "base": "t_uint256",
        "encoding": "inplace",
        "label": "uint256[50]",
        "numberOfBytes": "1600"
      },
      "t_bool": {
        "encoding": "inplace",
        "label": "bool",
        "numberOfBytes": "1"
      },
      "t_bytes32": {
        "encoding": "inplace",
        "label": "bytes32",
        "numberOfBytes": "32"
      },
      "t_mapping(t_address,t_bool)": {
        "encoding": "mapping",
        "key": "t_address",
        "label": "mapping(address => bool)",
        "numberOfBytes": "32",
        "value": "t_bool"
      },
      "t_mapping(t_bytes32,t_struct(AddressSet)1737_storage)": {
        "encoding": "mapping",
        "key": "t_bytes32",
        "label": "mapping(bytes32 => struct EnumerableSetUpgradeable.AddressSet)",
        "numberOfBytes": "32",
        "value": "t_struct(AddressSet)1737_storage"
      },
      "t_mapping(t_bytes32,t_struct(RoleData)245_storage)": {
        "encoding": "mapping",
        "key": "t_bytes32",
        "label": "mapping(bytes32 => struct AccessControlUpgradeable.RoleData)",
        "numberOfBytes": "32",
        "value": "t_struct(RoleData)245_storage"
      },
      "t_mapping(t_bytes32,t_uint256)": {
        "encoding": "mapping",
        "key": "t_bytes32",
        "label": "mapping(bytes32 => uint256)",
        "numberOfBytes": "32",
        "value": "t_uint256"
      },
      "t_struct(AddressSet)1737_storage": {
        "encoding": "inplace",
        "label": "struct EnumerableSetUpgradeable.AddressSet",
        "members": [
          {
            "astId": 1736,
            "contract": "contracts/pools/PoolMigrator.sol:PoolMigrator",
            "label": "_inner",
            "offset": 0,
            "slot": "0",
            "type": "t_struct(Set)1436_storage"
          }
        ],
        "numberOfBytes": "64"
      },
      "t_struct(RoleData)245_storage": {
        "encoding": "inplace",
        "label": "struct AccessControlUpgradeable.RoleData",
        "members": [
          {
            "astId": 242,
            "contract": "contracts/pools/PoolMigrator.sol:PoolMigrator",
            "label": "members",
            "offset": 0,
            "slot": "0",
            "type": "t_mapping(t_address,t_bool)"
          },
          {
            "astId": 244,
            "contract": "contracts/pools/PoolMigrator.sol:PoolMigrator",
            "label": "adminRole",
            "offset": 0,
            "slot": "1",
            "type": "t_bytes32"
          }
        ],
        "numberOfBytes": "64"
      },
      "t_struct(Set)1436_storage": {
        "encoding": "inplace",
        "label": "struct EnumerableSetUpgradeable.Set",
        "members": [
          {
            "astId": 1431,
            "contract": "contracts/pools/PoolMigrator.sol:PoolMigrator",
            "label": "_values",
            "offset": 0,
            "slot": "0",
            "type": "t_array(t_bytes32)dyn_storage"
          },
          {
            "astId": 1435,
            "contract": "contracts/pools/PoolMigrator.sol:PoolMigrator",
            "label": "_indexes",
            "offset": 0,
            "slot": "1",
            "type": "t_mapping(t_bytes32,t_uint256)"
          }
        ],
        "numberOfBytes": "64"
      },
      "t_uint16": {
        "encoding": "inplace",
        "label": "uint16",
        "numberOfBytes": "2"
      },
      "t_uint256": {
        "encoding": "inplace",
        "label": "uint256",
        "numberOfBytes": "32"
      }
    }
  }
}