{
  "address": "0xd982e001491D414c857F2A1aaA4B43Ccf9f642B4",
  "abi": [
    {
      "inputs": [
        {
          "internalType": "contract IBancorNetwork",
          "name": "initNetwork",
          "type": "address"
        },
        {
          "internalType": "contract IERC20",
          "name": "initBNT",
          "type": "address"
        },
        {
          "internalType": "contract INetworkSettings",
          "name": "initNetworkSettings",
          "type": "address"
        },
        {
          "internalType": "contract IMasterVault",
          "name": "initMasterVault",
          "type": "address"
        },
        {
          "internalType": "contract IBNTPool",
          "name": "initBNTPool",
          "type": "address"
        },
        {
          "internalType": "contract IExternalProtectionVault",
          "name": "initExternalProtectionVault",
          "type": "address"
        },
        {
          "internalType": "contract IPoolTokenFactory",
          "name": "initPoolTokenFactory",
          "type": "address"
        },
        {
          "internalType": "contract IPoolMigrator",
          "name": "initPoolMigrator",
          "type": "address"
        }
      ],
      "stateMutability": "nonpayable",
      "type": "constructor"
    },
    {
      "inputs": [],
      "name": "AccessDenied",
      "type": "error"
    },
    {
      "inputs": [],
      "name": "AlreadyEnabled",
      "type": "error"
    },
    {
      "inputs": [],
      "name": "AlreadyExists",
      "type": "error"
    },
    {
      "inputs": [],
      "name": "DepositingDisabled",
      "type": "error"
    },
    {
      "inputs": [],
      "name": "DoesNotExist",
      "type": "error"
    },
    {
      "inputs": [],
      "name": "FundingLimitTooHigh",
      "type": "error"
    },
    {
      "inputs": [],
      "name": "InsufficientLiquidity",
      "type": "error"
    },
    {
      "inputs": [],
      "name": "InsufficientSourceAmount",
      "type": "error"
    },
    {
      "inputs": [],
      "name": "InsufficientTargetAmount",
      "type": "error"
    },
    {
      "inputs": [],
      "name": "InvalidAddress",
      "type": "error"
    },
    {
      "inputs": [],
      "name": "InvalidFee",
      "type": "error"
    },
    {
      "inputs": [],
      "name": "InvalidFraction",
      "type": "error"
    },
    {
      "inputs": [],
      "name": "InvalidParam",
      "type": "error"
    },
    {
      "inputs": [],
      "name": "InvalidRate",
      "type": "error"
    },
    {
      "inputs": [],
      "name": "InvalidStakedBalance",
      "type": "error"
    },
    {
      "inputs": [],
      "name": "NotWhitelisted",
      "type": "error"
    },
    {
      "inputs": [],
      "name": "Overflow",
      "type": "error"
    },
    {
      "inputs": [],
      "name": "PoolCollectionWithdrawalInputInvalid",
      "type": "error"
    },
    {
      "inputs": [],
      "name": "RateUnstable",
      "type": "error"
    },
    {
      "inputs": [],
      "name": "SameOwner",
      "type": "error"
    },
    {
      "inputs": [],
      "name": "TradingDisabled",
      "type": "error"
    },
    {
      "inputs": [],
      "name": "ZeroValue",
      "type": "error"
    },
    {
      "anonymous": false,
      "inputs": [
        {
          "indexed": false,
          "internalType": "uint32",
          "name": "prevFeePPM",
          "type": "uint32"
        },
        {
          "indexed": false,
          "internalType": "uint32",
          "name": "newFeePPM",
          "type": "uint32"
        }
      ],
      "name": "DefaultTradingFeePPMUpdated",
      "type": "event"
    },
    {
      "anonymous": false,
      "inputs": [
        {
          "indexed": true,
          "internalType": "contract Token",
          "name": "pool",
          "type": "address"
        },
        {
          "indexed": true,
          "internalType": "bool",
          "name": "newStatus",
          "type": "bool"
        }
      ],
      "name": "DepositingEnabled",
      "type": "event"
    },
    {
      "anonymous": false,
      "inputs": [
        {
          "indexed": false,
          "internalType": "uint32",
          "name": "prevFeePPM",
          "type": "uint32"
        },
        {
          "indexed": false,
          "internalType": "uint32",
          "name": "newFeePPM",
          "type": "uint32"
        }
      ],
      "name": "NetworkFeePPMUpdated",
      "type": "event"
    },
    {
      "anonymous": false,
      "inputs": [
        {
          "indexed": true,
          "internalType": "address",
          "name": "prevOwner",
          "type": "address"
        },
        {
          "indexed": true,
          "internalType": "address",
          "name": "newOwner",
          "type": "address"
        }
      ],
      "name": "OwnerUpdate",
      "type": "event"
    },
    {
      "anonymous": false,
      "inputs": [
        {
          "indexed": true,
          "internalType": "bytes32",
          "name": "contextId",
          "type": "bytes32"
        },
        {
          "indexed": true,
          "internalType": "address",
          "name": "provider",
          "type": "address"
        },
        {
          "indexed": true,
          "internalType": "contract Token",
          "name": "token",
          "type": "address"
        },
        {
          "indexed": false,
          "internalType": "uint256",
          "name": "baseTokenAmount",
          "type": "uint256"
        },
        {
          "indexed": false,
          "internalType": "uint256",
          "name": "poolTokenAmount",
          "type": "uint256"
        }
      ],
      "name": "TokensDeposited",
      "type": "event"
    },
    {
      "anonymous": false,
      "inputs": [
        {
          "indexed": true,
          "internalType": "bytes32",
          "name": "contextId",
          "type": "bytes32"
        },
        {
          "indexed": true,
          "internalType": "address",
          "name": "provider",
          "type": "address"
        },
        {
          "indexed": true,
          "internalType": "contract Token",
          "name": "token",
          "type": "address"
        },
        {
          "indexed": false,
          "internalType": "uint256",
          "name": "baseTokenAmount",
          "type": "uint256"
        },
        {
          "indexed": false,
          "internalType": "uint256",
          "name": "poolTokenAmount",
          "type": "uint256"
        },
        {
          "indexed": false,
          "internalType": "uint256",
          "name": "externalProtectionBaseTokenAmount",
          "type": "uint256"
        },
        {
          "indexed": false,
          "internalType": "uint256",
          "name": "bntAmount",
          "type": "uint256"
        },
        {
          "indexed": false,
          "internalType": "uint256",
          "name": "withdrawalFeeAmount",
          "type": "uint256"
        }
      ],
      "name": "TokensWithdrawn",
      "type": "event"
    },
    {
      "anonymous": false,
      "inputs": [
        {
          "indexed": true,
          "internalType": "bytes32",
          "name": "contextId",
          "type": "bytes32"
        },
        {
          "indexed": true,
          "internalType": "contract Token",
          "name": "pool",
          "type": "address"
        },
        {
          "indexed": false,
          "internalType": "uint256",
          "name": "liquidity",
          "type": "uint256"
        },
        {
          "indexed": false,
          "internalType": "uint256",
          "name": "stakedBalance",
          "type": "uint256"
        },
        {
          "indexed": false,
          "internalType": "uint256",
          "name": "poolTokenSupply",
          "type": "uint256"
        }
      ],
      "name": "TotalLiquidityUpdated",
      "type": "event"
    },
    {
      "anonymous": false,
      "inputs": [
        {
          "indexed": true,
          "internalType": "contract Token",
          "name": "pool",
          "type": "address"
        },
        {
          "indexed": true,
          "internalType": "bool",
          "name": "newStatus",
          "type": "bool"
        },
        {
          "indexed": true,
          "internalType": "uint8",
          "name": "reason",
          "type": "uint8"
        }
      ],
      "name": "TradingEnabled",
      "type": "event"
    },
    {
      "anonymous": false,
      "inputs": [
        {
          "indexed": true,
          "internalType": "contract Token",
          "name": "pool",
          "type": "address"
        },
        {
          "indexed": false,
          "internalType": "uint32",
          "name": "prevFeePPM",
          "type": "uint32"
        },
        {
          "indexed": false,
          "internalType": "uint32",
          "name": "newFeePPM",
          "type": "uint32"
        }
      ],
      "name": "TradingFeePPMUpdated",
      "type": "event"
    },
    {
      "anonymous": false,
      "inputs": [
        {
          "indexed": true,
          "internalType": "bytes32",
          "name": "contextId",
          "type": "bytes32"
        },
        {
          "indexed": true,
          "internalType": "contract Token",
          "name": "pool",
          "type": "address"
        },
        {
          "indexed": true,
          "internalType": "contract Token",
          "name": "token",
          "type": "address"
        },
        {
          "indexed": false,
          "internalType": "uint256",
          "name": "prevLiquidity",
          "type": "uint256"
        },
        {
          "indexed": false,
          "internalType": "uint256",
          "name": "newLiquidity",
          "type": "uint256"
        }
      ],
      "name": "TradingLiquidityUpdated",
      "type": "event"
    },
    {
      "inputs": [],
      "name": "acceptOwnership",
      "outputs": [],
      "stateMutability": "nonpayable",
      "type": "function"
    },
    {
      "inputs": [
        {
          "internalType": "contract Token",
          "name": "token",
          "type": "address"
        }
      ],
      "name": "createPool",
      "outputs": [],
      "stateMutability": "nonpayable",
      "type": "function"
    },
    {
      "inputs": [],
      "name": "defaultTradingFeePPM",
      "outputs": [
        {
          "internalType": "uint32",
          "name": "",
          "type": "uint32"
        }
      ],
      "stateMutability": "view",
      "type": "function"
    },
    {
      "inputs": [
        {
          "internalType": "bytes32",
          "name": "contextId",
          "type": "bytes32"
        },
        {
          "internalType": "address",
          "name": "provider",
          "type": "address"
        },
        {
          "internalType": "contract Token",
          "name": "pool",
          "type": "address"
        },
        {
          "internalType": "uint256",
          "name": "baseTokenAmount",
          "type": "uint256"
        }
      ],
      "name": "depositFor",
      "outputs": [
        {
          "internalType": "uint256",
          "name": "",
          "type": "uint256"
        }
      ],
      "stateMutability": "nonpayable",
      "type": "function"
    },
    {
      "inputs": [
        {
          "internalType": "contract Token",
          "name": "pool",
          "type": "address"
        }
      ],
      "name": "depositingEnabled",
      "outputs": [
        {
          "internalType": "bool",
          "name": "",
          "type": "bool"
        }
      ],
      "stateMutability": "view",
      "type": "function"
    },
    {
      "inputs": [
        {
          "internalType": "contract Token",
          "name": "pool",
          "type": "address"
        }
      ],
      "name": "disableTrading",
      "outputs": [],
      "stateMutability": "nonpayable",
      "type": "function"
    },
    {
      "inputs": [
        {
          "internalType": "contract Token",
          "name": "pool",
          "type": "address"
        },
        {
          "internalType": "bool",
          "name": "status",
          "type": "bool"
        }
      ],
      "name": "enableDepositing",
      "outputs": [],
      "stateMutability": "nonpayable",
      "type": "function"
    },
    {
      "inputs": [
        {
          "internalType": "bool",
          "name": "status",
          "type": "bool"
        }
      ],
      "name": "enableProtection",
      "outputs": [],
      "stateMutability": "nonpayable",
      "type": "function"
    },
    {
      "inputs": [
        {
          "internalType": "contract Token",
          "name": "pool",
          "type": "address"
        },
        {
          "internalType": "uint256",
          "name": "bntVirtualBalance",
          "type": "uint256"
        },
        {
          "internalType": "uint256",
          "name": "baseTokenVirtualBalance",
          "type": "uint256"
        }
      ],
      "name": "enableTrading",
      "outputs": [],
      "stateMutability": "nonpayable",
      "type": "function"
    },
    {
      "inputs": [
        {
          "internalType": "contract Token",
          "name": "pool",
          "type": "address"
        }
      ],
      "name": "isPoolStable",
      "outputs": [
        {
          "internalType": "bool",
          "name": "",
          "type": "bool"
        }
      ],
      "stateMutability": "view",
      "type": "function"
    },
    {
      "inputs": [
        {
          "internalType": "contract Token",
          "name": "pool",
          "type": "address"
        }
      ],
      "name": "isPoolValid",
      "outputs": [
        {
          "internalType": "bool",
          "name": "",
          "type": "bool"
        }
      ],
      "stateMutability": "view",
      "type": "function"
    },
    {
      "inputs": [
        {
          "internalType": "contract Token",
          "name": "pool",
          "type": "address"
        },
        {
          "components": [
            {
              "internalType": "contract IPoolToken",
              "name": "poolToken",
              "type": "address"
            },
            {
              "internalType": "uint32",
              "name": "tradingFeePPM",
              "type": "uint32"
            },
            {
              "internalType": "bool",
              "name": "tradingEnabled",
              "type": "bool"
            },
            {
              "internalType": "bool",
              "name": "depositingEnabled",
              "type": "bool"
            },
            {
              "components": [
                {
                  "internalType": "uint32",
                  "name": "blockNumber",
                  "type": "uint32"
                },
                {
                  "components": [
                    {
                      "internalType": "uint112",
                      "name": "n",
                      "type": "uint112"
                    },
                    {
                      "internalType": "uint112",
                      "name": "d",
                      "type": "uint112"
                    }
                  ],
                  "internalType": "struct Fraction112",
                  "name": "rate",
                  "type": "tuple"
                },
                {
                  "components": [
                    {
                      "internalType": "uint112",
                      "name": "n",
                      "type": "uint112"
                    },
                    {
                      "internalType": "uint112",
                      "name": "d",
                      "type": "uint112"
                    }
                  ],
                  "internalType": "struct Fraction112",
                  "name": "invRate",
                  "type": "tuple"
                }
              ],
              "internalType": "struct AverageRates",
              "name": "averageRates",
              "type": "tuple"
            },
            {
              "components": [
                {
                  "internalType": "uint128",
                  "name": "bntTradingLiquidity",
                  "type": "uint128"
                },
                {
                  "internalType": "uint128",
                  "name": "baseTokenTradingLiquidity",
                  "type": "uint128"
                },
                {
                  "internalType": "uint256",
                  "name": "stakedBalance",
                  "type": "uint256"
                }
              ],
              "internalType": "struct PoolLiquidity",
              "name": "liquidity",
              "type": "tuple"
            }
          ],
          "internalType": "struct Pool",
          "name": "data",
          "type": "tuple"
        }
      ],
      "name": "migratePoolIn",
      "outputs": [],
      "stateMutability": "nonpayable",
      "type": "function"
    },
    {
      "inputs": [
        {
          "internalType": "contract Token",
          "name": "pool",
          "type": "address"
        },
        {
          "internalType": "contract IPoolCollection",
          "name": "targetPoolCollection",
          "type": "address"
        }
      ],
      "name": "migratePoolOut",
      "outputs": [],
      "stateMutability": "nonpayable",
      "type": "function"
    },
    {
      "inputs": [],
      "name": "networkFeePPM",
      "outputs": [
        {
          "internalType": "uint32",
          "name": "",
          "type": "uint32"
        }
      ],
      "stateMutability": "view",
      "type": "function"
    },
    {
      "inputs": [],
      "name": "newOwner",
      "outputs": [
        {
          "internalType": "address",
          "name": "",
          "type": "address"
        }
      ],
      "stateMutability": "view",
      "type": "function"
    },
    {
      "inputs": [
        {
          "internalType": "contract Token",
          "name": "pool",
          "type": "address"
        },
        {
          "internalType": "uint256",
          "name": "feeAmount",
          "type": "uint256"
        }
      ],
      "name": "onFeesCollected",
      "outputs": [],
      "stateMutability": "nonpayable",
      "type": "function"
    },
    {
      "inputs": [],
      "name": "owner",
      "outputs": [
        {
          "internalType": "address",
          "name": "",
          "type": "address"
        }
      ],
      "stateMutability": "view",
      "type": "function"
    },
    {
      "inputs": [],
      "name": "poolCount",
      "outputs": [
        {
          "internalType": "uint256",
          "name": "",
          "type": "uint256"
        }
      ],
      "stateMutability": "view",
      "type": "function"
    },
    {
      "inputs": [
        {
          "internalType": "contract Token",
          "name": "pool",
          "type": "address"
        }
      ],
      "name": "poolData",
      "outputs": [
        {
          "components": [
            {
              "internalType": "contract IPoolToken",
              "name": "poolToken",
              "type": "address"
            },
            {
              "internalType": "uint32",
              "name": "tradingFeePPM",
              "type": "uint32"
            },
            {
              "internalType": "bool",
              "name": "tradingEnabled",
              "type": "bool"
            },
            {
              "internalType": "bool",
              "name": "depositingEnabled",
              "type": "bool"
            },
            {
              "components": [
                {
                  "internalType": "uint32",
                  "name": "blockNumber",
                  "type": "uint32"
                },
                {
                  "components": [
                    {
                      "internalType": "uint112",
                      "name": "n",
                      "type": "uint112"
                    },
                    {
                      "internalType": "uint112",
                      "name": "d",
                      "type": "uint112"
                    }
                  ],
                  "internalType": "struct Fraction112",
                  "name": "rate",
                  "type": "tuple"
                },
                {
                  "components": [
                    {
                      "internalType": "uint112",
                      "name": "n",
                      "type": "uint112"
                    },
                    {
                      "internalType": "uint112",
                      "name": "d",
                      "type": "uint112"
                    }
                  ],
                  "internalType": "struct Fraction112",
                  "name": "invRate",
                  "type": "tuple"
                }
              ],
              "internalType": "struct AverageRates",
              "name": "averageRates",
              "type": "tuple"
            },
            {
              "components": [
                {
                  "internalType": "uint128",
                  "name": "bntTradingLiquidity",
                  "type": "uint128"
                },
                {
                  "internalType": "uint128",
                  "name": "baseTokenTradingLiquidity",
                  "type": "uint128"
                },
                {
                  "internalType": "uint256",
                  "name": "stakedBalance",
                  "type": "uint256"
                }
              ],
              "internalType": "struct PoolLiquidity",
              "name": "liquidity",
              "type": "tuple"
            }
          ],
          "internalType": "struct Pool",
          "name": "",
          "type": "tuple"
        }
      ],
      "stateMutability": "view",
      "type": "function"
    },
    {
      "inputs": [
        {
          "internalType": "contract Token",
          "name": "pool",
          "type": "address"
        }
      ],
      "name": "poolLiquidity",
      "outputs": [
        {
          "components": [
            {
              "internalType": "uint128",
              "name": "bntTradingLiquidity",
              "type": "uint128"
            },
            {
              "internalType": "uint128",
              "name": "baseTokenTradingLiquidity",
              "type": "uint128"
            },
            {
              "internalType": "uint256",
              "name": "stakedBalance",
              "type": "uint256"
            }
          ],
          "internalType": "struct PoolLiquidity",
          "name": "",
          "type": "tuple"
        }
      ],
      "stateMutability": "view",
      "type": "function"
    },
    {
      "inputs": [
        {
          "internalType": "contract Token",
          "name": "pool",
          "type": "address"
        }
      ],
      "name": "poolToken",
      "outputs": [
        {
          "internalType": "contract IPoolToken",
          "name": "",
          "type": "address"
        }
      ],
      "stateMutability": "view",
      "type": "function"
    },
    {
      "inputs": [
        {
          "internalType": "contract Token",
          "name": "pool",
          "type": "address"
        },
        {
          "internalType": "uint256",
          "name": "baseTokenAmountToDistribute",
          "type": "uint256"
        },
        {
          "internalType": "uint256",
          "name": "protocolPoolTokenAmount",
          "type": "uint256"
        }
      ],
      "name": "poolTokenAmountToBurn",
      "outputs": [
        {
          "internalType": "uint256",
          "name": "",
          "type": "uint256"
        }
      ],
      "stateMutability": "view",
      "type": "function"
    },
    {
      "inputs": [
        {
          "internalType": "contract Token",
          "name": "pool",
          "type": "address"
        },
        {
          "internalType": "uint256",
          "name": "poolTokenAmount",
          "type": "uint256"
        }
      ],
      "name": "poolTokenToUnderlying",
      "outputs": [
        {
          "internalType": "uint256",
          "name": "",
          "type": "uint256"
        }
      ],
      "stateMutability": "view",
      "type": "function"
    },
    {
      "inputs": [],
      "name": "poolType",
      "outputs": [
        {
          "internalType": "uint16",
          "name": "",
          "type": "uint16"
        }
      ],
      "stateMutability": "view",
      "type": "function"
    },
    {
      "inputs": [],
      "name": "pools",
      "outputs": [
        {
          "internalType": "contract Token[]",
          "name": "",
          "type": "address[]"
        }
      ],
      "stateMutability": "view",
      "type": "function"
    },
    {
      "inputs": [],
      "name": "protectionEnabled",
      "outputs": [
        {
          "internalType": "bool",
          "name": "",
          "type": "bool"
        }
      ],
      "stateMutability": "view",
      "type": "function"
    },
    {
      "inputs": [
        {
          "internalType": "uint32",
          "name": "newDefaultTradingFeePPM",
          "type": "uint32"
        }
      ],
      "name": "setDefaultTradingFeePPM",
      "outputs": [],
      "stateMutability": "nonpayable",
      "type": "function"
    },
    {
      "inputs": [
        {
          "internalType": "uint32",
          "name": "newNetworkFeePPM",
          "type": "uint32"
        }
      ],
      "name": "setNetworkFeePPM",
      "outputs": [],
      "stateMutability": "nonpayable",
      "type": "function"
    },
    {
      "inputs": [
        {
          "internalType": "contract Token",
          "name": "pool",
          "type": "address"
        },
        {
          "internalType": "uint32",
          "name": "newTradingFeePPM",
          "type": "uint32"
        }
      ],
      "name": "setTradingFeePPM",
      "outputs": [],
      "stateMutability": "nonpayable",
      "type": "function"
    },
    {
      "inputs": [
        {
          "internalType": "bytes32",
          "name": "contextId",
          "type": "bytes32"
        },
        {
          "internalType": "contract Token",
          "name": "sourceToken",
          "type": "address"
        },
        {
          "internalType": "contract Token",
          "name": "targetToken",
          "type": "address"
        },
        {
          "internalType": "uint256",
          "name": "sourceAmount",
          "type": "uint256"
        },
        {
          "internalType": "uint256",
          "name": "minReturnAmount",
          "type": "uint256"
        }
      ],
      "name": "tradeBySourceAmount",
      "outputs": [
        {
          "components": [
            {
              "internalType": "uint256",
              "name": "amount",
              "type": "uint256"
            },
            {
              "internalType": "uint256",
              "name": "tradingFeeAmount",
              "type": "uint256"
            },
            {
              "internalType": "uint256",
              "name": "networkFeeAmount",
              "type": "uint256"
            }
          ],
          "internalType": "struct TradeAmountAndFee",
          "name": "",
          "type": "tuple"
        }
      ],
      "stateMutability": "nonpayable",
      "type": "function"
    },
    {
      "inputs": [
        {
          "internalType": "bytes32",
          "name": "contextId",
          "type": "bytes32"
        },
        {
          "internalType": "contract Token",
          "name": "sourceToken",
          "type": "address"
        },
        {
          "internalType": "contract Token",
          "name": "targetToken",
          "type": "address"
        },
        {
          "internalType": "uint256",
          "name": "targetAmount",
          "type": "uint256"
        },
        {
          "internalType": "uint256",
          "name": "maxSourceAmount",
          "type": "uint256"
        }
      ],
      "name": "tradeByTargetAmount",
      "outputs": [
        {
          "components": [
            {
              "internalType": "uint256",
              "name": "amount",
              "type": "uint256"
            },
            {
              "internalType": "uint256",
              "name": "tradingFeeAmount",
              "type": "uint256"
            },
            {
              "internalType": "uint256",
              "name": "networkFeeAmount",
              "type": "uint256"
            }
          ],
          "internalType": "struct TradeAmountAndFee",
          "name": "",
          "type": "tuple"
        }
      ],
      "stateMutability": "nonpayable",
      "type": "function"
    },
    {
      "inputs": [
        {
          "internalType": "contract Token",
          "name": "sourceToken",
          "type": "address"
        },
        {
          "internalType": "contract Token",
          "name": "targetToken",
          "type": "address"
        },
        {
          "internalType": "uint256",
          "name": "targetAmount",
          "type": "uint256"
        }
      ],
      "name": "tradeInputAndFeeByTargetAmount",
      "outputs": [
        {
          "components": [
            {
              "internalType": "uint256",
              "name": "amount",
              "type": "uint256"
            },
            {
              "internalType": "uint256",
              "name": "tradingFeeAmount",
              "type": "uint256"
            },
            {
              "internalType": "uint256",
              "name": "networkFeeAmount",
              "type": "uint256"
            }
          ],
          "internalType": "struct TradeAmountAndFee",
          "name": "",
          "type": "tuple"
        }
      ],
      "stateMutability": "view",
      "type": "function"
    },
    {
      "inputs": [
        {
          "internalType": "contract Token",
          "name": "sourceToken",
          "type": "address"
        },
        {
          "internalType": "contract Token",
          "name": "targetToken",
          "type": "address"
        },
        {
          "internalType": "uint256",
          "name": "sourceAmount",
          "type": "uint256"
        }
      ],
      "name": "tradeOutputAndFeeBySourceAmount",
      "outputs": [
        {
          "components": [
            {
              "internalType": "uint256",
              "name": "amount",
              "type": "uint256"
            },
            {
              "internalType": "uint256",
              "name": "tradingFeeAmount",
              "type": "uint256"
            },
            {
              "internalType": "uint256",
              "name": "networkFeeAmount",
              "type": "uint256"
            }
          ],
          "internalType": "struct TradeAmountAndFee",
          "name": "",
          "type": "tuple"
        }
      ],
      "stateMutability": "view",
      "type": "function"
    },
    {
      "inputs": [
        {
          "internalType": "contract Token",
          "name": "pool",
          "type": "address"
        }
      ],
      "name": "tradingEnabled",
      "outputs": [
        {
          "internalType": "bool",
          "name": "",
          "type": "bool"
        }
      ],
      "stateMutability": "view",
      "type": "function"
    },
    {
      "inputs": [
        {
          "internalType": "contract Token",
          "name": "pool",
          "type": "address"
        }
      ],
      "name": "tradingFeePPM",
      "outputs": [
        {
          "internalType": "uint32",
          "name": "",
          "type": "uint32"
        }
      ],
      "stateMutability": "view",
      "type": "function"
    },
    {
      "inputs": [
        {
          "internalType": "address",
          "name": "ownerCandidate",
          "type": "address"
        }
      ],
      "name": "transferOwnership",
      "outputs": [],
      "stateMutability": "nonpayable",
      "type": "function"
    },
    {
      "inputs": [
        {
          "internalType": "contract Token",
          "name": "pool",
          "type": "address"
        },
        {
          "internalType": "uint256",
          "name": "baseTokenAmount",
          "type": "uint256"
        }
      ],
      "name": "underlyingToPoolToken",
      "outputs": [
        {
          "internalType": "uint256",
          "name": "",
          "type": "uint256"
        }
      ],
      "stateMutability": "view",
      "type": "function"
    },
    {
      "inputs": [
        {
          "internalType": "contract Token",
          "name": "pool",
          "type": "address"
        }
      ],
      "name": "updateTradingLiquidity",
      "outputs": [],
      "stateMutability": "nonpayable",
      "type": "function"
    },
    {
      "inputs": [],
      "name": "version",
      "outputs": [
        {
          "internalType": "uint16",
          "name": "",
          "type": "uint16"
        }
      ],
      "stateMutability": "view",
      "type": "function"
    },
    {
      "inputs": [
        {
          "internalType": "bytes32",
          "name": "contextId",
          "type": "bytes32"
        },
        {
          "internalType": "address",
          "name": "provider",
          "type": "address"
        },
        {
          "internalType": "contract Token",
          "name": "pool",
          "type": "address"
        },
        {
          "internalType": "uint256",
          "name": "poolTokenAmount",
          "type": "uint256"
        },
        {
          "internalType": "uint256",
          "name": "baseTokenAmount",
          "type": "uint256"
        }
      ],
      "name": "withdraw",
      "outputs": [
        {
          "internalType": "uint256",
          "name": "",
          "type": "uint256"
        }
      ],
      "stateMutability": "nonpayable",
      "type": "function"
    },
    {
      "inputs": [
        {
          "internalType": "contract Token",
          "name": "pool",
          "type": "address"
        },
        {
          "internalType": "uint256",
          "name": "poolTokenAmount",
          "type": "uint256"
        }
      ],
      "name": "withdrawalAmounts",
      "outputs": [
        {
          "components": [
            {
              "internalType": "uint256",
              "name": "totalAmount",
              "type": "uint256"
            },
            {
              "internalType": "uint256",
              "name": "baseTokenAmount",
              "type": "uint256"
            },
            {
              "internalType": "uint256",
              "name": "bntAmount",
              "type": "uint256"
            }
          ],
          "internalType": "struct WithdrawalAmounts",
          "name": "",
          "type": "tuple"
        }
      ],
      "stateMutability": "view",
      "type": "function"
    }
  ],
  "transactionHash": "0x71a4d4346175abbd34047712edbef6d2adf6373cb59cd568251ba1c55b8790fb",
  "args": [
    "0xeEF417e1D5CC832e619ae18D2F140De2999dD4fB",
    "0x1F573D6Fb3F13d689FF844B4cE37794d79a7FF1C",
    "0x83E1814ba31F7ea95D216204BB45FE75Ce09b14F",
    "0x649765821D9f64198c905eC0B2B037a4a52Bc373",
    "0x02651E355D26f3506C1E644bA393FDD9Ac95EaCa",
    "0xFd31662b3d54eddE9B6Bdd32c9c27C8E292cAD57",
    "0x9E912953DB31fE933BDa43374208E967058D9d5F",
    "0x97CeC0F2D355BF073619A5093F989709caE4a191"
  ],
  "numDeployments": 1,
  "solcInputHash": "59f2c5d31059f33dccaa4b5db9be6b3c",
  "bytecode": "0x6101806040526005805460ff60401b1916680100000000000000001790553480156200002a57600080fd5b5060405162006381380380620063818339810160408190526200004d91620002a3565b620000583362000114565b62000063886200016e565b6200006e876200016e565b62000079866200016e565b62000084856200016e565b6200008f846200016e565b6200009a836200016e565b620000a5826200016e565b620000b0816200016e565b6001600160a01b0380891660805287811660a05286811660c05285811660e052848116610100528381166101205282811661014052811661016052620000f86107d062000199565b6200010662030d406200020c565b505050505050505062000364565b600080546001600160a01b038381166001600160a01b031980841682178555600180549091169055604051919092169283917f343765429aea5a34b3ff6a3785a98a5abb2597aca87bfbb58632c173d585373a9190a35050565b6001600160a01b038116620001965760405163e6c4247b60e01b815260040160405180910390fd5b50565b60055463ffffffff9081169082168103620001b2575050565b6005805463ffffffff191663ffffffff84811691821790925560408051928416835260208301919091527fb804b0ec3f0ea43004870df377170ce44cb789adca16d23286e337605558117f91015b60405180910390a15050565b60055463ffffffff640100000000909104811690821681036200022d575050565b6005805463ffffffff60201b191664010000000063ffffffff8581169182029290921790925560408051918416825260208201929092527f1f1f36475e04b1709caf649fc7f00350aa38c7f7f110f653e81f79011db0867c910162000200565b6001600160a01b03811681146200019657600080fd5b600080600080600080600080610100898b031215620002c157600080fd5b8851620002ce816200028d565b60208a0151909850620002e1816200028d565b60408a0151909750620002f4816200028d565b60608a015190965062000307816200028d565b60808a01519095506200031a816200028d565b60a08a01519094506200032d816200028d565b60c08a015190935062000340816200028d565b60e08a015190925062000353816200028d565b809150509295985092959890939650565b60805160a05160c05160e05161010051610120516101405161016051615efa620004876000396000818161152c0152611fad015260006112da015260008181612f36015261351a0152600081816123b10152818161247e01528181612550015281816132830152818161331d015281816133710152818161345d01526146c9015260008181611aec0152818161223701528181612eda0152818161339e015281816134ea015281816135ca01526138580152600081816108de0152818161123001528181611b5201528181611da20152818161232501528181612f7601526136b7015260008181612a3101526143150152600081816107cc01528181610c9001528181610eb2015281816111e90152818161179c0152611e6b0152615efa6000f3fe608060405234801561001057600080fd5b50600436106102535760003560e01c80639049f9d211610146578063b7fafb7a116100c3578063d4ee1d9011610087578063d4ee1d9014610636578063ee4808fe14610647578063f2fde38b1461065a578063f525cb681461066d578063f6c5786114610675578063fba8cdee146106a357600080fd5b8063b7fafb7a14610595578063bedf9525146105a8578063c2cf4252146105db578063c5c51dca1461060e578063d3df24241461062357600080fd5b80639f5c734b1161010a5780639f5c734b146104d75780639fc19231146104ea578063a135ef17146104f8578063aa55a9b11461057b578063b1dd61b61461058e57600080fd5b80639049f9d214610478578063915b99411461048b5780639181d2e31461049e578063921a929e146104b15780639dad4613146104c457600080fd5b8063541868c8116101d457806372d960e11161019857806372d960e1146104275780637516baec1461043a57806379ba50971461044c57806381417585146104545780638da5cb5b1461046757600080fd5b8063541868c81461039157806354fd4d50146103a457806356aca36f146103ba5780635768adcf146103cd5780636161b6261461041157600080fd5b806330cdb3081161021b57806330cdb308146102df5780633376af511461032a57806334afba2b1461033d5780634ceea7531461035d57806352c8f9901461037e57600080fd5b8063136efb7a146102585780631510748b146102815780631c754cae146102965780632258cc69146102a957806327910565146102cc575b600080fd5b61026b6102663660046156c9565b6106b6565b60405161027891906156e6565b60405180910390f35b61029461028f3660046157ac565b6107ca565b005b6102946102a43660046157d8565b61082a565b6102bc6102b73660046156c9565b610aa2565b6040519015158152602001610278565b6102946102da3660046156c9565b610adf565b6103156102ed3660046156c9565b6001600160a01b0316600090815260026020526040902054600160a01b900463ffffffff1690565b60405163ffffffff9091168152602001610278565b61029461033836600461581f565b610b41565b61035061034b36600461583c565b610b5c565b604051610278919061587d565b61037061036b3660046157ac565b610bd1565b604051908152602001610278565b61035061038c36600461589e565b610c6a565b61035061039f3660046157ac565b610d1e565b600a5b60405161ffff9091168152602001610278565b6103706103c836600461589e565b610eae565b6103f96103db3660046156c9565b6001600160a01b039081166000908152600260205260409020541690565b6040516001600160a01b039091168152602001610278565b600554640100000000900463ffffffff16610315565b61035061043536600461583c565b6110a4565b600554600160401b900460ff166102bc565b610294611120565b6102946104623660046158fe565b611162565b6000546001600160a01b03166103f9565b6102946104863660046156c9565b6111e7565b610294610499366004615937565b611520565b6102946104ac36600461597a565b6115d1565b6103706104bf3660046157d8565b611682565b6102946104d23660046159a8565b611758565b6103706104e53660046159c5565b611798565b60055463ffffffff16610315565b61056e6105063660046156c9565b6040805160608082018352600080835260208084018290529284018190526001600160a01b0394909416845260028252928290208251938401835260048101546001600160801b038082168652600160801b9091041691840191909152600501549082015290565b6040516102789190615a0d565b6102946105893660046156c9565b611c54565b60016103a7565b6103506105a336600461589e565b611e45565b6102bc6105b63660046156c9565b6001600160a01b0316600090815260026020526040902054600160c01b900460ff1690565b6102bc6105e93660046156c9565b6001600160a01b0316600090815260026020526040902054600160c81b900460ff1690565b610616611ef1565b6040516102789190615a3c565b610294610631366004615a89565b611fa1565b6001546001600160a01b03166103f9565b6103706106553660046157ac565b61205b565b6102946106683660046156c9565b6120ea565b610370612143565b6102bc6106833660046156c9565b6001600160a01b0390811660009081526002602052604090205416151590565b6102946106b136600461581f565b612154565b6106be6154e4565b506001600160a01b03908116600090815260026020818152604092839020835160c0810185528154958616815263ffffffff600160a01b870481168285015260ff600160c01b88048116151583880152600160c81b9097049096161515606080830191909152855180820187526001840154909716875285518087018752948301546001600160701b038082168752600160701b9182900481168787015288860196909652865180880188526003850154808816825291909104909516858501528686019490945260808101959095528351928301845260048101546001600160801b038082168552600160801b9091041691830191909152600501549181019190915260a082015290565b7f00000000000000000000000000000000000000000000000000000000000000006107f48161216f565b811561082557600061080584612198565b90508281600401600101600082825461081e9190615acd565b9091555050505b505050565b6108326121d5565b604080518082019091528281526020810182905261084f81612200565b600061085a85612198565b8054909150600160c01b900460ff161561088757604051637952fbad60e11b815260040160405180910390fd5b6040516bffffffffffffffffffffffff1933606090811b8216602084015287901b166034820152604881018590526068810184905260009060880160405160208183030381529060405280519060200120905060007f00000000000000000000000000000000000000000000000000000000000000006001600160a01b03166387ba006a6040518163ffffffff1660e01b8152600401602060405180830381865afa15801561093a573d6000803e3d6000fd5b505050506040513d601f19601f8201168201806040525081019061095e9190615ae5565b905061096d8288858785612226565b60048301546001600160801b031681111561099b5760405163bb55fd2760e01b815260040160405180910390fd5b60006109a685612689565b905060405180606001604052806109ba4390565b63ffffffff1681526020018281526020016109d4836126e9565b905280516001868101805463ffffffff191663ffffffff909316929092179091556020808301518051600289018054928401516001600160701b039283166001600160e01b031994851617600160701b918416820217909155604095860151805160038c0180549290960151908416919094161792909116021790558554600160c01b60ff60c01b19909116178655905181906001600160a01b038b16907f162ed187f3ed3879ae360c5df2a0a5dcaac7a208a9d762c2cbbfb1f5fad8b81d90600090a45050505050505050565b6001600160a01b0381166000908152600260208190526040822090610ac682612743565b6002811115610ad757610ad7615afe565b149392505050565b610ae76121d5565b6000610af282612198565b6040805160608101825260048301546001600160801b038082168352600160801b909104166020820152600583015491810191909152909150610b3d906000908490849060016128b0565b5050565b610b496121d5565b80610b53816128d0565b610b3d826128fa565b610b8060405180606001604052806000815260200160008152602001600081525090565b81610b8a81612982565b6000610b9c81878787600019846129a3565b9050610ba781612be1565b60408051606080820183528351825283015160208201526080909201519082015295945050505050565b6001600160a01b038083166000908152600260209081526040808320805482516318160ddd60e01b8152925194959194610c6094889492909316926318160ddd92600480820193918290030181865afa158015610c32573d6000803e3d6000fd5b505050506040513d601f19601f82011682018060405250810190610c569190615ae5565b6005840154612d0c565b9150505b92915050565b610c8e60405180606001604052806000815260200160008152602001600081525090565b7f0000000000000000000000000000000000000000000000000000000000000000610cb88161216f565b83610cc281612982565b83610ccc81612982565b6000610cdd8a8a8a8a8a60016129a3565b9050610ce881612d4f565b60405180606001604052808260200151815260200182606001518152602001826080015181525094505050505095945050505050565b610d4260405180606001604052806000815260200160008152602001600081525090565b82610d4c81612e8b565b82610d5681612982565b6001600160a01b03808616600090815260026020908152604080832081516060810183526004808301546001600160801b038082168452600160801b9091041682860152600583015482850152825484516318160ddd60e01b8152945193979296959216936318160ddd93818301939290918290030181865afa158015610de1573d6000803e3d6000fd5b505050506040513d601f19601f82011682018060405250810190610e059190615ae5565b90506000610e1888838560400151612d0c565b90506000610e3e8a8a84878960000160149054906101000a900463ffffffff1688612eb2565b905060405180606001604052808260c001518360e00151610e5f9190615b14565b815260200182604001518360000151610e789190615acd565b8152602001600560089054906101000a900460ff16610e98576000610e9e565b82602001515b90529a9950505050505050505050565b60007f0000000000000000000000000000000000000000000000000000000000000000610eda8161216f565b85610ee481612e8b565b84610eee81612982565b84610ef881612982565b6000610f0389612198565b604080516060810182526004808401546001600160801b038082168452600160801b90910416602080840191909152600585015483850152845484516318160ddd60e01b8152945195965092946000946001600160a01b03909416936318160ddd938181019392918290030181865afa158015610f84573d6000803e3d6000fd5b505050506040513d601f19601f82011682018060405250810190610fa89190615ae5565b90506000610fbb8b838560400151612d0c565b9050808a1115610fde57604051633494a40d60e21b815260040160405180910390fd5b6001610fe985612743565b6002811115610ffa57610ffa615afe565b03611018576040516301a6272960e41b815260040160405180910390fd5b600061103c8d8d8d878960000160149054906101000a900463ffffffff1688612eb2565b905061104b8f8f8f888561310e565b8454600160c01b900460ff1615611091576040805180820190915260048601546001600160801b038082168352600160801b9091041660208201526110919086906138a6565b519e9d5050505050505050505050505050565b6110c860405180606001604052806000815260200160008152602001600081525090565b816110d281612982565b60006110e3818787876001806129a3565b90506110ee81612be1565b604051806060016040528082602001518152602001826060015181526020018260800151815250925050509392505050565b6001546001600160a01b0316331461114b57604051634ca8886760e01b815260040160405180910390fd5b600154611160906001600160a01b03166139a0565b565b61116a6121d5565b600061117583612198565b8054909150821515600160c81b90910460ff1615150361119457505050565b805460ff60c81b1916600160c81b8315159081029190911782556040516001600160a01b038516907fa606e6917bc476eb72d24f486596af7f564fb7b50f73135c81c0e8e0553430cd90600090a3505050565b7f00000000000000000000000000000000000000000000000000000000000000006112118161216f565b60405163b5af090f60e01b81526001600160a01b0383811660048301527f0000000000000000000000000000000000000000000000000000000000000000169063b5af090f90602401602060405180830381865afa158015611277573d6000803e3d6000fd5b505050506040513d601f19601f8201168201806040525081019061129b9190615b2b565b6112b857604051630b094f2760e31b815260040160405180910390fd5b604051632b625f2360e01b81526001600160a01b0383811660048301526000917f000000000000000000000000000000000000000000000000000000000000000090911690632b625f23906024016020604051808303816000875af1158015611325573d6000803e3d6000fd5b505050506040513d601f19601f820116820180604052508101906113499190615b48565b9050806001600160a01b03166379ba50976040518163ffffffff1660e01b8152600401600060405180830381600087803b15801561138657600080fd5b505af115801561139a573d6000803e3d6000fd5b5050505060006040518060c00160405280836001600160a01b03168152602001600560009054906101000a900463ffffffff1663ffffffff1681526020016000151581526020016001151581526020016040518060600160405280600063ffffffff16815260200161140a6139fa565b81526020016114176139fa565b9052815260408051606081018252600080825260208281018290529282015291015290506114458482613a23565b60408082015190516000911515906001600160a01b038716907f162ed187f3ed3879ae360c5df2a0a5dcaac7a208a9d762c2cbbfb1f5fad8b81d908490a4836001600160a01b03167fa2d66c1e2cc4b2cc5daaabc06447542e989ed748a9fb22476b6c913dcc1c7f4b600083602001516040516114d592919063ffffffff92831681529116602082015260400190565b60405180910390a280606001511515846001600160a01b03167fa606e6917bc476eb72d24f486596af7f564fb7b50f73135c81c0e8e0553430cd60405160405180910390a350505050565b8161152a81612e8b565b7f00000000000000000000000000000000000000000000000000000000000000006115548161216f565b61156c8461156736869003860186615cf8565b613a23565b61157960208401846156c9565b6001600160a01b03166379ba50976040518163ffffffff1660e01b8152600401600060405180830381600087803b1580156115b357600080fd5b505af11580156115c7573d6000803e3d6000fd5b5050505050505050565b6115d96121d5565b806115e3816128d0565b60006115ee84612198565b805490915063ffffffff600160a01b90910481169084168103611612575050505050565b815463ffffffff60a01b1916600160a01b63ffffffff86811691820292909217845560408051928416835260208301919091526001600160a01b038716917fa2d66c1e2cc4b2cc5daaabc06447542e989ed748a9fb22476b6c913dcc1c7f4b910160405180910390a25050505050565b60008260000361169457506000611751565b6001600160a01b038085166000908152600260209081526040808320805482516318160ddd60e01b81529251919516926318160ddd92600480820193918290030181865afa1580156116ea573d6000803e3d6000fd5b505050506040513d601f19601f8201168201806040525081019061170e9190615ae5565b9050600061171c8287615dcb565b905061174b818361172d8882615b14565b600587015461173c9190615dcb565b6117469085615acd565b613b7c565b93505050505b9392505050565b6117606121d5565b60055460ff600160401b90910416151581151514611795576005805468ff00000000000000001916600160401b831515021790555b50565b60007f00000000000000000000000000000000000000000000000000000000000000006117c48161216f565b846117ce81612e8b565b836117d881612982565b60006117e387612198565b8054909150600160c81b900460ff1661180f576040516303a5be3f60e31b815260040160405180910390fd5b8054604080516318160ddd60e01b815290516000926001600160a01b0316916318160ddd9160048083019260209291908290030181865afa158015611858573d6000803e3d6000fd5b505050506040513d601f19601f8201168201806040525081019061187c9190615ae5565b600583015490915061188c61553c565b8215801561189957508115155b1561191e576040805160608101825260048601546001600160801b038082168352600160801b909104166020820152600586015491810191909152600092506118e68d8c878460036128b0565b6040518060600160405280600063ffffffff1681526020016119066139fa565b81526020016119136139fa565b8152509150506119e0565b604080516060808201835260048701546001600160801b038082168452600160801b9091048116602080850191825260058a0154858701528551938401865260018a015463ffffffff1684528551808701875260028b01546001600160701b038082168352600160701b91829004811683850152868401929092528751808901895260038d01548084168252919091049091168183015284870152855180870190965284518316865290519091169084015290916119dc9190613c48565b9150505b60006119ed8a8585613dbc565b90506119f98a84615acd565b600586015584546040516340c10f1960e01b81526001600160a01b038e8116600483015260248201849052909116906340c10f1990604401600060405180830381600087803b158015611a4b57600080fd5b505af1158015611a5f573d6000803e3d6000fd5b505050508a6001600160a01b03168c6001600160a01b03168e7fecb7e4cd1580472adaeba712b36acf94439b2e1760af55fedb61960ca4422af38d85604051611ab2929190918252602082015260400190565b60405180910390a46001600160a01b038b168d7f67c4863f17da9847c57c9fa043e63a0ddf4f5a86fd63a6f71ea69057a11c411a611b10837f0000000000000000000000000000000000000000000000000000000000000000613df0565b6005890154611b1f868a615acd565b6040805193845260208401929092529082015260600160405180910390a3611bd78d8c87611b508660200151613e94565b7f00000000000000000000000000000000000000000000000000000000000000006001600160a01b03166387ba006a6040518163ffffffff1660e01b8152600401602060405180830381865afa158015611bae573d6000803e3d6000fd5b505050506040513d601f19601f82011682018060405250810190611bd29190615ae5565b612226565b8454600160c01b900460ff1615611c44576040805160608101825260048701546001600160801b038082168352600160801b9091048116602080840191825260058a015484860152845180860190955283518316855290519091169083015290611c429087906138a6565b505b9c9b505050505050505050505050565b611c5c6121d5565b6000611c6782612198565b604080516060808201835260048401546001600160801b038082168452600160801b820490811660208086019190915260058701548587015294516bffffffffffffffffffffffff1933851b8116968201969096529288901b90941660348301526001600160801b0319608091821b8116604884015293901b909216605883015291925060009060680160408051601f198184030181528282528051602091820120606084018352600187015463ffffffff1684528251808401845260028801546001600160701b038082168352600160701b91829004811683860152868501929092528451808601865260038a01548084168252919091049091168184015284840152825180840190935285516001600160801b0390811684528683015116918301919091529250600091611d9c91613c48565b905060007f00000000000000000000000000000000000000000000000000000000000000006001600160a01b03166387ba006a6040518163ffffffff1660e01b8152600401602060405180830381865afa158015611dfe573d6000803e3d6000fd5b505050506040513d601f19601f82011682018060405250810190611e229190615ae5565b9050611e3d838787611e378660200151613e94565b85612226565b505050505050565b611e6960405180606001604052806000815260200160008152602001600081525090565b7f0000000000000000000000000000000000000000000000000000000000000000611e938161216f565b83611e9d81612982565b83611ea781612982565b6000611eb88a8a8a8a8a60006129a3565b9050611ec381612d4f565b6040805160608082018352835182528301516020820152608090920151908201529998505050505050505050565b60606000611eff6003613ed0565b905060008167ffffffffffffffff811115611f1c57611f1c615b65565b604051908082528060200260200182016040528015611f45578160200160208202803683370190505b50905060005b82811015611f9a57611f5e600382613eda565b828281518110611f7057611f70615dea565b6001600160a01b039092166020928302919091019091015280611f9281615e00565b915050611f4b565b5092915050565b80611fab81612e8b565b7f0000000000000000000000000000000000000000000000000000000000000000611fd58161216f565b6001600160a01b0380851660009081526002602052604090205416611ff985613ee6565b60405163f2fde38b60e01b81526001600160a01b03858116600483015282169063f2fde38b90602401600060405180830381600087803b15801561203c57600080fd5b505af1158015612050573d6000803e3d6000fd5b505050505050505050565b6001600160a01b038083166000908152600260209081526040808320805482516318160ddd60e01b8152925194959194610c6094889492909316926318160ddd92600480820193918290030181865afa1580156120bc573d6000803e3d6000fd5b505050506040513d601f19601f820116820180604052508101906120e09190615ae5565b6005840154613dbc565b6120f26121d5565b6000546001600160a01b039081169082160361212157604051630a98f1f360e21b815260040160405180910390fd5b600180546001600160a01b0319166001600160a01b0392909216919091179055565b600061214f6003613ed0565b905090565b61215c6121d5565b80612166816128d0565b610b3d82613f70565b336001600160a01b0382161461179557604051634ca8886760e01b815260040160405180910390fd5b6001600160a01b03808216600090815260026020526040812080549192909116610c645760405163b0ce759160e01b815260040160405180910390fd5b6000546001600160a01b0316331461116057604051634ca8886760e01b815260040160405180910390fd5b61220981613fda565b61179557604051636a43f8d160e01b815260040160405180910390fd5b600061225b6001600160a01b0386167f0000000000000000000000000000000000000000000000000000000000000000613df0565b90508060000361227e5760405163bb55fd2760e01b815260040160405180910390fd5b600161228985612743565b600281111561229a5761229a615afe565b036122a55750612682565b6040805160608101825260048601546001600160801b038082168352600160801b9091041660208201526005860154918101919091526122e484613fda565b6122fd576122f68787878460026128b0565b5050612682565b60405163467e55df60e01b81526001600160a01b0387811660048301526000916124249185917f00000000000000000000000000000000000000000000000000000000000000009091169063467e55df90602401602060405180830381865afa15801561236e573d6000803e3d6000fd5b505050506040513d601f19601f820116820180604052508101906123929190615ae5565b604051637ea6a56960e11b81526001600160a01b038b811660048301527f0000000000000000000000000000000000000000000000000000000000000000169063fd4d4ad290602401602060405180830381865afa1580156123f8573d6000803e3d6000fd5b505050506040513d601f19601f8201168201806040525081019061241c9190615ae5565b858989613ff7565b805190915061243557505050612682565b6020810151158061244857506040810151155b156124635761245b8888888560026128b0565b505050612682565b81600001516001600160801b031681602001511115612535577f00000000000000000000000000000000000000000000000000000000000000006001600160a01b03166371c0feb7898985600001516001600160801b031685602001516124ca9190615b14565b6040516001600160e01b031960e086901b16815260048101939093526001600160a01b0390911660248301526044820152606401600060405180830381600087803b15801561251857600080fd5b505af115801561252c573d6000803e3d6000fd5b50505050612603565b81600001516001600160801b031681602001511015612603577f00000000000000000000000000000000000000000000000000000000000000006001600160a01b0316631ebda06d8989846020015186600001516001600160801b031661259c9190615b14565b6040516001600160e01b031960e086901b16815260048101939093526001600160a01b0390911660248301526044820152606401600060405180830381600087803b1580156125ea57600080fd5b505af11580156125fe573d6000803e3d6000fd5b505050505b6000604051806060016040528061261d8460200151614266565b6001600160801b031681526020016126388460400151614266565b6001600160801b0390811682526040808701516020938401528351928401518216600160801b02929091169190911760048a015581015160058901559050612050898985846142d7565b5050505050565b604080518082019091526000808252602082015260006126b0836001600160701b036143fc565b9050604051806040016040528082600001516001600160701b0316815260200182602001516001600160701b0316815250915050919050565b6040805180820190915260008082526020820152604080518082019091526020838101516001600160701b03908116835284511690820181905215155b610c6457604051630d38a7e760e11b815260040160405180910390fd5b60408051808201825260048301546001600160801b038082168352600160801b909104166020808301919091528251606081018452600185015463ffffffff1681528351808501855260028601546001600160701b038082168352600160701b918290048116838601528385019283528651808801885260038901548083168252929092041693810193909352938101919091529151600092906127e683613fda565b15806127f857506127f68161448b565b155b1561280857506000949350505050565b6000612813846144ba565b604084015190915061282482613fda565b158061283657506128348161448b565b155b15612848575060009695505050505050565b60006128548587613c48565b905061286f6128668260200151613e94565b876127106144ef565b801561288f575061288f6128868260400151613e94565b846127106144ef565b156128a257506002979650505050505050565b506001979650505050505050565b60048301546126829086908690869086906001600160801b031686614591565b620f424063ffffffff82161115611795576040516358d620b360e01b815260040160405180910390fd5b60055463ffffffff6401000000009091048116908216810361291a575050565b6005805467ffffffff00000000191664010000000063ffffffff8581169182029290921790925560408051918416825260208201929092527f1f1f36475e04b1709caf649fc7f00350aa38c7f7f110f653e81f79011db0867c91015b60405180910390a15050565b8060000361179557604051637c946ed760e01b815260040160405180910390fd5b612a24604051806101a00160405280600081526020016000815260200160008152602001600081526020016000815260200160008152602001600081526020016000815260200160006001600160a01b03168152602001600015158152602001600015158152602001600063ffffffff168152602001600080191681525090565b6001600160a01b038681167f0000000000000000000000000000000000000000000000000000000000000000821690811491871614818015612a64575080155b15612a865760016101208401526001600160a01b038716610100840152612acc565b81158015612a915750805b15612ab35760006101208401526001600160a01b038816610100840152612acc565b60405163b0ce759160e01b815260040160405180910390fd5b6000612adc846101000151612198565b8054909150600160c01b900460ff16612b085760405163bcb8b8fb60e01b815260040160405180910390fd5b61018084018a905284158015610140860152612b2657868452612b2e565b602084018790525b60408481018790528154600160a01b900463ffffffff16610160860152805160608101825260048301546001600160801b038082168352600160801b90910416602082015260058301549181019190915261012085015115612bac5780516001600160801b0390811660a087015260208201511660c0860152612bca565b60208101516001600160801b0390811660a087015281511660c08601525b6040015160e0850152509198975050505050505050565b604080518082019091526000808252602082015281610140015115612c5257612c1d8260a001518360c00151846101600151856000015161476b565b80516020840181905260408401519192501015612c4d5760405163f31ee7a560e01b815260040160405180910390fd5b612ca5565b612c6f8260a001518360c0015184610160015185602001516147fd565b80518084529091501580612c87575060408201518251115b15612ca55760405163681c2ccd60e11b815260040160405180910390fd5b60208101516060830152815160a083018051612cc2908390615acd565b905250602082015160c083018051612cdb908390615b14565b90525061012082015115612d035781606001518260e001818151612cff9190615acd565b9052505b610b3d82614899565b600082600003612d3c578115612d3557604051636a9c61e160e01b815260040160405180910390fd5b5082611751565b612d47848385613b7c565b949350505050565b6101008101516001600160a01b0316600090815260026020908152604091829020825160608101845260048201546001600160801b038082168352600160801b9091048116828501908152600584015483870152855180870190965282518216865251169284019290925291612dc69083906138a6565b612dcf83612be1565b60006040518060600160405280612dfd866101200151612df3578660c00151614266565b8660a00151614266565b6001600160801b03168152602001612e2c866101200151612e22578660a00151614266565b8660c00151614266565b6001600160801b031681526020018560e001518152509050612e5a84610180015185610100015184846142d7565b805160208201516001600160801b03908116600160801b029116176004840155604001516005909201919091555050565b6001600160a01b0381166117955760405163e6c4247b60e01b815260040160405180910390fd5b612eba61558d565b60208401516000906001600160801b0316612efe6001600160a01b038a167f0000000000000000000000000000000000000000000000000000000000000000613df0565b612f089190615b14565b9050600061300286600001516001600160801b031687602001516001600160801b0316848960400151612f6d7f00000000000000000000000000000000000000000000000000000000000000008f6001600160a01b0316613df090919063ffffffff16565b8a63ffffffff167f00000000000000000000000000000000000000000000000000000000000000006001600160a01b0316632aac012c6040518163ffffffff1660e01b8152600401602060405180830381865afa158015612fd2573d6000803e3d6000fd5b505050506040513d601f19601f82011682018060405250810190612ff69190615e19565b63ffffffff168e614969565b905060405180610180016040528082606001518152602001826080015181526020018260a0015181526020018260400151815260200182600001518152602001826020015181526020018260c00151815260200188815260200189815260200185815260200182604001516020015161309857604083015151602089015161309391906001600160801b0316615acd565b6130b6565b60408301515160208901516130b691906001600160801b0316615b14565b81526020018260000151602001516130e55782515188516130e091906001600160801b0316615acd565b6130fd565b82515188516130fd91906001600160801b0316615b14565b9052925050505b9695505050505050565b60408051606081018252600484810180546001600160801b038082168552600160801b90910416602084015260058601548385015285546101008601519451630852cd8d60e31b815292830194909452926001600160a01b0316906342966c6890602401600060405180830381600087803b15801561318c57600080fd5b505af11580156131a0573d6000803e3d6000fd5b5050505060008361010001518461012001516131bc9190615b14565b905060006131d4846001015483876101200151613b7c565b90508084600101819055506131ed856101400151614266565b84546001600160801b03918216600160801b02911617845561016085015161321490614266565b84546001600160801b0319166001600160801b039190911617845560a085015151156132e7578460a001516020015161324f5761324f615e36565b60a085015151604051631ebda06d60e01b8152600481018b90526001600160a01b03898116602483015260448201929092527f000000000000000000000000000000000000000000000000000000000000000090911690631ebda06d906064015b600060405180830381600087803b1580156132ca57600080fd5b505af11580156132de573d6000803e3d6000fd5b5050505061340d565b6080850151511561340d578460800151602001511561335457608085015151604051631538c64b60e31b815260048101919091527f00000000000000000000000000000000000000000000000000000000000000006001600160a01b03169063a9c63258906024016132b0565b6080850151516040516340c10f1960e01b81526001600160a01b037f000000000000000000000000000000000000000000000000000000000000000016916340c10f19916133da917f0000000000000000000000000000000000000000000000000000000000000000916004016001600160a01b03929092168252602082015260400190565b600060405180830381600087803b1580156133f457600080fd5b505af1158015613408573d6000803e3d6000fd5b505050505b6005546020860151600160401b90910460ff16901580159061342c5750805b156134bc5760208601516040516340c10f1960e01b81526001600160a01b038b8116600483015260248201929092527f0000000000000000000000000000000000000000000000000000000000000000909116906340c10f1990604401600060405180830381600087803b1580156134a357600080fd5b505af11580156134b7573d6000803e3d6000fd5b505050505b604086015115613592576040868101519051631c20fadd60e01b81526001600160a01b038a811660048301527f00000000000000000000000000000000000000000000000000000000000000008116602483015260448201929092527f000000000000000000000000000000000000000000000000000000000000000090911690631c20fadd90606401600060405180830381600087803b15801561356057600080fd5b505af1158015613574573d6000803e3d6000fd5b5050505085604001518660000181815161358e9190615acd565b9052505b855115613629578551604051631c20fadd60e01b81526001600160a01b038a811660048301528b8116602483015260448201929092527f000000000000000000000000000000000000000000000000000000000000000090911690631c20fadd90606401600060405180830381600087803b15801561361057600080fd5b505af1158015613624573d6000803e3d6000fd5b505050505b8561014001516000036136b55761363e6139fa565b80516002890180546020909301516001600160701b03908116600160701b026001600160e01b031990941692169190911791909117905561367d6139fa565b80516003890180546020909301516001600160701b03908116600160701b026001600160e01b03199094169216919091179190911790555b7f00000000000000000000000000000000000000000000000000000000000000006001600160a01b03166387ba006a6040518163ffffffff1660e01b8152600401602060405180830381865afa158015613713573d6000803e3d6000fd5b505050506040513d601f19601f820116820180604052508101906137379190615ae5565b866101600151101561375c576137578a8989878a61016001516002614591565b61379e565b6040805160608101825286546001600160801b038082168352600160801b90910416602082015260018701549181019190915261379e908b908a9087906142d7565b876001600160a01b0316896001600160a01b03168b7feab8ac9e9478a4b3c37a794ecef629b8a8bbcd96f9eaeac8ed26054d144da52d89600001518a61010001518b60400151876137f05760006137f6565b8c602001515b60c08e0151604080519586526020860194909452928401919091526060830152608082015260a00160405180910390a46001600160a01b0388168a7f67c4863f17da9847c57c9fa043e63a0ddf4f5a86fd63a6f71ea69057a11c411a61387c837f0000000000000000000000000000000000000000000000000000000000000000613df0565b6040805191825260208201879052810187905260600160405180910390a350505050505050505050565b60408051606081018252600184015463ffffffff1681528151808301835260028501546001600160701b038082168352600160701b9182900481166020848101919091528085019390935284518086018652600388015480831682529290920416918101919091529181019190915261391f9082613c48565b805160018401805463ffffffff191663ffffffff9092169190911790556020808201518051600286018054928401516001600160701b039283166001600160e01b031994851617600160701b918416820217909155604090940151805160039097018054919094015196821692169190911794169091029290921790915550565b600080546001600160a01b038381166001600160a01b031980841682178555600180549091169055604051919092169283917f343765429aea5a34b3ff6a3785a98a5abb2597aca87bfbb58632c173d585373a9190a35050565b604080518082018252600080825260209182018190528251808401909352825260019082015290565b613a2e600383614bdf565b613a4b5760405163119b4fd360e11b815260040160405180910390fd5b6001600160a01b039182166000908152600260208181526040928390208451815486840151878701516060890151939099166001600160c01b031990921691909117600160a01b63ffffffff928316021761ffff60c01b1916600160c01b9815159890980260ff60c81b191697909717600160c81b911515919091021781556080850151805160018301805463ffffffff191691909816179096558582015180519382018054918401516001600160701b039586166001600160e01b031993841617600160701b91871682021790915596850151805160038401805492860151918716929093169190911794169096029290921790945560a0909201518051938101516001600160801b03948516600160801b95909116949094029390931760048301559190910151600590910155565b600080613b898585614bf4565b8051909150600003613bad57828160200151613ba59190615e62565b915050611751565b80518311613bce57604051631a93c68960e11b815260040160405180910390fd5b6000613bdb868686614c7b565b90506000613be98383614c96565b8051909150600003613c0f57848160200151613c059190615e62565b9350505050611751565b6000858103861690613c218383614d12565b90506000613c37613c32848a615e62565b614d49565b919091029998505050505050505050565b613c5061553c565b613c5982613fda565b613c93576040518060600160405280600063ffffffff168152602001613c7d6139fa565b8152602001613c8a6139fa565b90529050610c64565b8251439063ffffffff80831690821603613cb1578492505050610c64565b6064613cbd8284615e76565b63ffffffff16101580613cda5750613cd8856020015161448b565b155b80613cef5750613ced856040015161448b565b155b15613d7157613cfd84613fda565b15613d445760405180606001604052808363ffffffff168152602001613d2286612689565b8152602001613d38613d33876144ba565b612689565b81525092505050610c64565b6040518060600160405280600063ffffffff168152602001613d646139fa565b8152602001613d386139fa565b60405180606001604052808363ffffffff168152602001613d96876020015187614d74565b8152602001613db18760400151613dac886144ba565b614d74565b905295945050505050565b600082600003613de5578115612d3557604051636a9c61e160e01b815260040160405180910390fd5b612d47848484614de1565b600073eeeeeeeeeeeeeeeeeeeeeeeeeeeeeeeeeeeeeeee6001600160a01b03841603613e2757506001600160a01b03811631610c64565b826040516370a0823160e01b81526001600160a01b03848116600483015291909116906370a0823190602401602060405180830381865afa158015613e70573d6000803e3d6000fd5b505050506040513d601f19601f820116820180604052508101906117519190615ae5565b6040805180820182526000808252602091820152815180830190925282516001600160701b039081168352928101519092169181019190915290565b6000610c64825490565b60006117518383614e31565b613ef1600382614e5b565b613f0e5760405163b0ce759160e01b815260040160405180910390fd5b6001600160a01b03166000908152600260208190526040822080546001600160d01b031916815560018101805463ffffffff1916905590810180546001600160e01b031990811690915560038201805490911690556004810182905560050155565b60055463ffffffff9081169082168103613f88575050565b6005805463ffffffff191663ffffffff84811691821790925560408051928416835260208301919091527fb804b0ec3f0ea43004870df377170ce44cb789adca16d23286e337605558117f9101612976565b6000613fe98260200151151590565b8015610c6457505051151590565b61401d604051806060016040528060001515815260200160008152602001600081525090565b83516001600160801b03168587111561409c57600061403c8789615b14565b9050600086602001516001600160801b03168a6140599190615b14565b905060006140796140738389600001518a60200151613b7c565b84614e70565b88519091506140929082906001600160801b0316615acd565b93505050506140cd565b858710156140cd5760006140b08888615b14565b90506140c986600001516001600160801b031682614e86565b9150505b84516001600160801b03168103614106576040518060600160405280600015158152602001600081526020016000815250915050613104565b82811015614136576040518060600160405280600115158152602001600081526020016000815250915050613104565b60008086600001516001600160801b03168311156142085786516000906001600160801b031681036141745761416d600287615dcb565b905061418e565b875161418b906002906001600160801b0316615dcb565b90505b6141988482614e70565b88519094506141b0906001600160801b031685615b14565b92506141c58388602001518960000151613b7c565b91506040518060600160405280600115158152602001858152602001838a602001516001600160801b03166141fa9190615acd565b815250945050505050613104565b865161421e9084906001600160801b0316615b14565b91506142338287602001518860000151613b7c565b90506040518060600160405280600115158152602001848152602001610e9e89602001516001600160801b031684614e86565b60006001600160801b038211156142d35760405162461bcd60e51b815260206004820152602760248201527f53616665436173743a2076616c756520646f65736e27742066697420696e20316044820152663238206269747360c81b606482015260840160405180910390fd5b5090565b815181516001600160801b039081169116146143695781518151604080516001600160801b0393841681529290911660208301526001600160a01b037f00000000000000000000000000000000000000000000000000000000000000008116929086169187917f6e96dc5343d067ec486a9920e0304c3610ed05c65e45cc029d9b9fe7ecfa7620910160405180910390a45b81602001516001600160801b031681602001516001600160801b0316146143f657826001600160a01b0316836001600160a01b0316857f6e96dc5343d067ec486a9920e0304c3610ed05c65e45cc029d9b9fe7ecfa7620856020015185602001516040516143ed9291906001600160801b0392831681529116602082015260400190565b60405180910390a45b50505050565b6040805180820190915260008082526020820152600061442d61442785600001518660200151614ea0565b84614eb0565b90506000604051806040016040528083876000015161444c9190615e62565b81526020018387602001516144619190615e62565b81525090508060200151600003610c6057604051630d38a7e760e11b815260040160405180910390fd5b60006144a382602001516001600160701b0316151590565b8015610c64575050516001600160701b0316151590565b604080518082019091526000808252602082015260408051808201909152602083810151825283519082018190521515612726565b825160009081906145219061450785620f4240615e76565b63ffffffff16866020015161451c9190615dcb565b614bf4565b905060006145468660200151620f424063ffffffff16876000015161451c9190615dcb565b86519091506000906145749061455f87620f4240615e9b565b63ffffffff16886020015161451c9190615dcb565b90506145808383614ee2565b801561174b575061174b8282614ee2565b6000600485018190556040805160608101909152908152602081016145b46139fa565b81526020016145c16139fa565b9052805160018601805463ffffffff191663ffffffff9092169190911790556020808201518051600288018054928401516001600160701b039283166001600160e01b031994851617600160701b918416820217909155604090940151805160038a0180549290950151908316919093161791169092029190911790558354600160c01b900460ff161561469657835460ff60c01b1916845560405160ff8216906000906001600160a01b038816907f162ed187f3ed3879ae360c5df2a0a5dcaac7a208a9d762c2cbbfb1f5fad8b81d908390a45b811561472657604051631ebda06d60e01b8152600481018790526001600160a01b038681166024830152604482018490527f00000000000000000000000000000000000000000000000000000000000000001690631ebda06d90606401600060405180830381600087803b15801561470d57600080fd5b505af1158015614721573d6000803e3d6000fd5b505050505b6040805160608101825260048601546001600160801b038082168352600160801b909104166020820152600586015491810191909152611e3d908790879086906142d7565b604080518082019091526000808252602082015284158061478a575083155b156147a85760405163bb55fd2760e01b815260040160405180910390fd5b60006147b98584611746818a615acd565b905060006147d18263ffffffff8716620f4240613b7c565b9050604051806040016040528082846147ea9190615b14565b8152602001919091529695505050505050565b6040805180820190915260008082526020820152846000036148325760405163bb55fd2760e01b815260040160405180910390fd5b60006148578363ffffffff861661484c87620f4240615e76565b63ffffffff16613b7c565b905060006148658285615acd565b905060006148788883611746818b615b14565b60408051808201909152908152602081019390935250909695505050505050565b600554640100000000900463ffffffff166000036148b45750565b60608101516005546000916148da91640100000000900463ffffffff16620f4240613b7c565b9050808260c0018181516148ee9190615b14565b90525061012082015161490357608090910152565b6149188260c001518360a0015160008461476b565b51608083015260c082018051829190614932908390615acd565b905250608082015160a08301805161494b908390615b14565b90525060e082018051829190614962908390615b14565b9052505050565b614971615645565b6001600160801b0389118061498c57506001600160801b0388115b8061499d57506001600160801b0387115b806149ae57506001600160801b0386115b806149bf57506001600160801b0385115b806149cc5750620f424084115b806149d95750620f424083115b806149e357508582115b15614a01576040516318b103bd60e21b815260040160405180910390fd5b6000620f4240614a118582615b14565b614a1b9085615dcb565b614a259190615e62565b9050614a31888a615acd565b620f4240614a3f8682615b14565b614a49908a615dcb565b614a539190615e62565b1115614b48576000614a65898b615acd565b620f4240614a738782615b14565b614a7d908b615dcb565b614a879190615e62565b614a919190615b14565b90506000614a9f8a8c615acd565b614aa9908a615b14565b9050614ab78b8b8b88614ef6565b8015614ac1575060005b15614adc57614ad58c8c8b858b8a89614f20565b9350614b41565b8b15614b0e57614aef8c8c8c8c87614ff9565b9350614aff8c8c8b84878d61507a565b60a08601526080850152614b41565b88614b198b85615dcb565b614b239190615e62565b6060850152614b368c8c8b84878d61507a565b60a086015260808501525b5050614bc3565b6000614b5d614b578a8c615acd565b89614e86565b9050600081118015614b765750614b768a8a8a87614ef6565b8015614b8b5750614b8b8a89838989896150ef565b15614ba757614ba08b8b8a848a8a8a89615179565b9250614bc1565b8a15614bb957614ba08b8b8b85615227565b606083018290525b505b614bcd8184615b14565b60c08301525098975050505050505050565b6000611751836001600160a01b038416615298565b60408051808201909152600080825260208201526000614c1484846152e7565b9050838302808210614c495760405180604001604052808284614c379190615b14565b81526020018281525092505050610c64565b60405180604001604052806001614c608585900390565b614c6a9190615b14565b815260200191909152949350505050565b60008180614c8b57614c8b615e4c565b838509949350505050565b604080518082019091526000808252602082015281836020015110614cda57604051806040016040528084600001518152602001838560200151613c8a9190615b14565b604051806040016040528060018560000151614cf69190615b14565b8152602001614d09856020015185900390565b90529392505050565b600080614d2a614d2484808403615e62565b60010190565b9050828460200151614d3c9190615e62565b8451820217949350505050565b60006001815b6008811015611f9a578382026002038202915080614d6c81615e00565b915050614d4f565b604080518082019091526000808252602082015282516020830151614da2916001600160701b031690615dcb565b60208401518351614dbc916001600160701b031690615dcb565b03614dc8575081610c64565b611751613d33614dd785613e94565b84600460016152f6565b600080614def858585613b7c565b90506000614dfe868686614c7b565b1115612d47576000198110614e2657604051631a93c68960e11b815260040160405180910390fd5b613ba5816001615acd565b6000826000018281548110614e4857614e48615dea565b9060005260206000200154905092915050565b6000611751836001600160a01b038416615387565b6000818310614e7f5781611751565b5090919050565b6000818311614e96576000611751565b6117518284615b14565b600081831015614e7f5781611751565b6000614ebc8284615ec3565b15614ec8576001614ecb565b60005b60ff16614ed88385615e62565b6117519190615acd565b6000614eee838361547a565b159392505050565b6000614f028284615b14565b614f0c9085615dcb565b614f168387615dcb565b1095945050505050565b614f28615645565b6000614f3785620f4240615b14565b614f419087615dcb565b90506000614f5f89614f56620f42408b615dcb565b878560016154a2565b9050614fa4614f78614f71878d615dcb565b8484613b7c565b604080518082019091526000808252602082015250604080518082019091529081526000602082015290565b8352614fe0614fb486898b613b7c565b604080518082019091526000808252602082015250604080518082019091529081526001602082015290565b6040840152505060608101919091529695505050505050565b615001615645565b60006150296150108785615dcb565b61501a8587615b14565b6150249088615dcb565b614e86565b905061503d614fb48883611746888b615dcb565b8083526020830152615052614fb48583615e62565b604083015261506b836150658789615acd565b86613b7c565b60608301525095945050505050565b600080806150888686615dcb565b905060006150968886615dcb565b9050808211156150d15760008a116150af5760006150c7565b6150c78a6150bd8385615b14565b6117468b8d615dcb565b93508492506150e2565b600093506150df8883615e62565b92505b5050965096945050505050565b60008061512b6150ff888a615dcb565b620f424061510d878b615dcb565b615117898b615dcb565b6151219190615acd565b61451c9190615dcb565b9050600061516061513c8589615dcb565b61514988620f4240615b14565b615153888c615dcb565b615117620f42408c615dcb565b905061516c828261547a565b9998505050505050505050565b615181615645565b600061518d8589615dcb565b61519a620f424089615dcb565b6151a49190615acd565b905060006151e48a6151b989620f4240615b14565b6151c3908c615dcb565b876151d18b620f4240615b14565b6151db9087615dcb565b620f42406154c3565b90506151f6614fb4614f71878e615dcb565b835261520d614f788684611746620f42408e615dcb565b604084015250506060810191909152979650505050505050565b61522f615645565b600061523b8385614e86565b905061524b614fb4878388613b7c565b808352602083015261528381604080518082019091526000808252602082015250604080518082019091529081526001602082015290565b60408301525060608101919091529392505050565b60008181526001830160205260408120546152df57508154600181810184556000848152602080822090930184905584548482528286019093526040902091909155610c64565b506000610c64565b60006000198284099392505050565b60408051808201909152600080825260208201526040518060400160405280838660000151886020015161532a9190615dcb565b6153349190615dcb565b60208701518851879161534691615dcb565b6153509190615dcb565b61535a9190615acd565b81526020016153698486615acd565b8660200151886020015161537d9190615dcb565b613db19190615dcb565b600081815260018301602052604081205480156154705760006153ab600183615b14565b85549091506000906153bf90600190615b14565b90508181146154245760008660000182815481106153df576153df615dea565b906000526020600020015490508087600001848154811061540257615402615dea565b6000918252602080832090910192909255918252600188019052604090208390555b855486908061543557615435615ed7565b600190038181906000526020600020016000905590558560010160008681526020019081526020016000206000905560019350505050610c64565b6000915050610c64565b8051825160009110806117515750815183511480156117515750506020908101519101511190565b60006154af848484613b7c565b6154b98688615dcb565b6131049190615b14565b60006154d0848484613b7c565b6154da8688615dcb565b6131049190615acd565b6040805160c08101825260008082526020820181905291810182905260608101919091526080810161551461553c565b815260408051606081018252600080825260208281018290529282015291015290565b905290565b6040518060600160405280600063ffffffff16815260200161556e604080518082019091526000808252602082015290565b8152602001615537604080518082019091526000808252602082015290565b6040518061018001604052806000815260200160008152602001600081526020016155cd6040518060400160405280600081526020016000151581525090565b81526020016155f16040518060400160405280600081526020016000151581525090565b81526020016156156040518060400160405280600081526020016000151581525090565b81526020016000815260200160008152602001600081526020016000815260200160008152602001600081525090565b6040805161012081018252600060e082018181526101008301829052825282518084018452818152602080820183905280840191909152835180850185528281529081019190915290918201908152602001600081526020016000815260200160008152602001600081525090565b6001600160a01b038116811461179557600080fd5b6000602082840312156156db57600080fd5b8135611751816156b4565b81516001600160a01b0316815260208083015163ffffffff908116828401526040808501511515908401526060808501511515908401526080808501518051909216908401528082015180516001600160701b0390811660a08601529281015190921660c0840152610180830191506040015180516001600160701b0390811660e08501526020820151166101008401525060a083015180516001600160801b039081166101208501526020820151166101408401526040810151610160840152611f9a565b600080604083850312156157bf57600080fd5b82356157ca816156b4565b946020939093013593505050565b6000806000606084860312156157ed57600080fd5b83356157f8816156b4565b95602085013595506040909401359392505050565b63ffffffff8116811461179557600080fd5b60006020828403121561583157600080fd5b81356117518161580d565b60008060006060848603121561585157600080fd5b833561585c816156b4565b9250602084013561586c816156b4565b929592945050506040919091013590565b81518152602080830151908201526040808301519082015260608101610c64565b600080600080600060a086880312156158b657600080fd5b8535945060208601356158c8816156b4565b935060408601356158d8816156b4565b94979396509394606081013594506080013592915050565b801515811461179557600080fd5b6000806040838503121561591157600080fd5b823561591c816156b4565b9150602083013561592c816158f0565b809150509250929050565b6000808284036101a081121561594c57600080fd5b8335615957816156b4565b9250610180601f198201121561596c57600080fd5b506020830190509250929050565b6000806040838503121561598d57600080fd5b8235615998816156b4565b9150602083013561592c8161580d565b6000602082840312156159ba57600080fd5b8135611751816158f0565b600080600080608085870312156159db57600080fd5b8435935060208501356159ed816156b4565b925060408501356159fd816156b4565b9396929550929360600135925050565b81516001600160801b039081168252602080840151909116908201526040808301519082015260608101610c64565b6020808252825182820181905260009190848201906040850190845b81811015615a7d5783516001600160a01b031683529284019291840191600101615a58565b50909695505050505050565b60008060408385031215615a9c57600080fd5b8235615aa7816156b4565b9150602083013561592c816156b4565b634e487b7160e01b600052601160045260246000fd5b60008219821115615ae057615ae0615ab7565b500190565b600060208284031215615af757600080fd5b5051919050565b634e487b7160e01b600052602160045260246000fd5b600082821015615b2657615b26615ab7565b500390565b600060208284031215615b3d57600080fd5b8151611751816158f0565b600060208284031215615b5a57600080fd5b8151611751816156b4565b634e487b7160e01b600052604160045260246000fd5b60405160c0810167ffffffffffffffff81118282101715615bac57634e487b7160e01b600052604160045260246000fd5b60405290565b6040516060810167ffffffffffffffff81118282101715615bac57634e487b7160e01b600052604160045260246000fd5b80356001600160701b0381168114615bfa57600080fd5b919050565b600060408284031215615c1157600080fd5b6040516040810181811067ffffffffffffffff82111715615c4257634e487b7160e01b600052604160045260246000fd5b604052905080615c5183615be3565b8152615c5f60208401615be3565b60208201525092915050565b80356001600160801b0381168114615bfa57600080fd5b600060608284031215615c9457600080fd5b6040516060810181811067ffffffffffffffff82111715615cc557634e487b7160e01b600052604160045260246000fd5b604052905080615cd483615c6b565b8152615ce260208401615c6b565b6020820152604083013560408201525092915050565b6000818303610180811215615d0c57600080fd5b615d14615b7b565b8335615d1f816156b4565b81526020840135615d2f8161580d565b60208201526040840135615d42816158f0565b60408201526060840135615d55816158f0565b606082015260a0607f1983011215615d6c57600080fd5b615d74615bb2565b91506080840135615d848161580d565b8252615d938560a08601615bff565b6020830152615da58560e08601615bff565b6040830152816080820152615dbe856101208601615c82565b60a0820152949350505050565b6000816000190483118215151615615de557615de5615ab7565b500290565b634e487b7160e01b600052603260045260246000fd5b600060018201615e1257615e12615ab7565b5060010190565b600060208284031215615e2b57600080fd5b81516117518161580d565b634e487b7160e01b600052600160045260246000fd5b634e487b7160e01b600052601260045260246000fd5b600082615e7157615e71615e4c565b500490565b600063ffffffff83811690831681811015615e9357615e93615ab7565b039392505050565b600063ffffffff808316818516808303821115615eba57615eba615ab7565b01949350505050565b600082615ed257615ed2615e4c565b500690565b634e487b7160e01b600052603160045260246000fdfea164736f6c634300080d000a",
  "devdoc": {
    "details": "Pool Collection contract notes: - the address of reserve token serves as the pool unique ID in both contract functions and events",
    "events": {
      "DefaultTradingFeePPMUpdated(uint32,uint32)": {
        "details": "triggered when the default trading fee is updated"
      },
      "DepositingEnabled(address,bool)": {
        "details": "triggered when depositing into a specific pool is enabled/disabled"
      },
      "NetworkFeePPMUpdated(uint32,uint32)": {
        "details": "triggered when the network fee is updated"
      },
      "TokensDeposited(bytes32,address,address,uint256,uint256)": {
        "details": "triggered when new liquidity is deposited into a pool"
      },
      "TokensWithdrawn(bytes32,address,address,uint256,uint256,uint256,uint256,uint256)": {
        "details": "triggered when existing liquidity is withdrawn from a pool"
      },
      "TotalLiquidityUpdated(bytes32,address,uint256,uint256,uint256)": {
        "details": "triggered when the total liquidity in a pool is updated"
      },
      "TradingEnabled(address,bool,uint8)": {
        "details": "triggered when trading in a specific pool is enabled/disabled"
      },
      "TradingFeePPMUpdated(address,uint32,uint32)": {
        "details": "triggered when a specific pool's trading fee is updated"
      },
      "TradingLiquidityUpdated(bytes32,address,address,uint256,uint256)": {
        "details": "triggered when the trading liquidity in a pool is updated"
      }
    },
    "kind": "dev",
    "methods": {
      "acceptOwnership()": {
        "details": "used by a new owner to accept an ownership transfer"
      },
      "constructor": {
        "details": "initializes a new PoolCollection contract"
      },
      "createPool(address)": {
        "details": "creates a new pool requirements: - the caller must be the network contract - the pool should have been whitelisted - the pool isn't already defined in the collection"
      },
      "defaultTradingFeePPM()": {
        "details": "returns the default trading fee (in units of PPM)"
      },
      "depositFor(bytes32,address,address,uint256)": {
        "details": "deposits base token liquidity on behalf of a specific provider and returns the respective pool token amount requirements: - the caller must be the network contract - assumes that the base token has been already deposited in the vault"
      },
      "depositingEnabled(address)": {
        "details": "returns whether depositing is enabled"
      },
      "disableTrading(address)": {
        "details": "disables trading in a given pool requirements: - the caller must be the owner of the contract"
      },
      "enableDepositing(address,bool)": {
        "details": "enables/disables depositing into a given pool requirements: - the caller must be the owner of the contract"
      },
      "enableProtection(bool)": {
        "details": "enables/disables protection requirements: - the caller must be the owner of the contract"
      },
      "enableTrading(address,uint256,uint256)": {
        "details": "enables trading in a given pool, by providing the funding rate as two virtual balances, and updates its trading liquidity note that the virtual balances should be derived from token prices, normalized to the smallest unit of tokens. In other words, the ratio between BNT and TKN virtual balances should be the ratio between the $ value of 1 wei of TKN and 1 wei of BNT, taking both of their decimals into account. For example: - if the price of one (10**18 wei) BNT is $X and the price of one (10**18 wei) TKN is $Y, then the virtual balances   should represent a ratio of X to Y - if the price of one (10**18 wei) BNT is $X and the price of one (10**6 wei) USDC is $Y, then the virtual balances   should represent a ratio of X to Y*10**12 requirements: - the caller must be the owner of the contract"
      },
      "isPoolStable(address)": {
        "details": "returns whether the pool is stable"
      },
      "isPoolValid(address)": {
        "details": "returns whether a pool is valid"
      },
      "migratePoolIn(address,(address,uint32,bool,bool,(uint32,(uint112,uint112),(uint112,uint112)),(uint128,uint128,uint256)))": {
        "details": "migrates a pool to this pool collection requirements: - the caller must be the pool migrator contract"
      },
      "migratePoolOut(address,address)": {
        "details": "migrates a pool from this pool collection requirements: - the caller must be the pool migrator contract"
      },
      "networkFeePPM()": {
        "details": "returns the network fee (in units of PPM)"
      },
      "newOwner()": {
        "details": "returns the address of the new owner candidate"
      },
      "onFeesCollected(address,uint256)": {
        "details": "notifies the pool of accrued fees requirements: - the caller must be the network contract"
      },
      "owner()": {
        "details": "returns the address of the current owner"
      },
      "poolCount()": {
        "details": "returns the number of all the pools which are managed by this pool collection"
      },
      "poolData(address)": {
        "details": "returns specific pool's data notes: - there is no guarantee that this function will remain forward compatible,   so relying on it should be avoided and instead, rely on specific getters   from the IPoolCollection interface"
      },
      "poolLiquidity(address)": {
        "details": "returns the overall liquidity in the pool"
      },
      "poolToken(address)": {
        "details": "returns the pool token of the pool"
      },
      "poolTokenAmountToBurn(address,uint256,uint256)": {
        "details": "returns the number of pool token to burn in order to increase everyone's underlying value by the specified amount"
      },
      "poolTokenToUnderlying(address,uint256)": {
        "details": "converts the specified pool token amount to the underlying base token amount"
      },
      "poolType()": {
        "details": "returns the type of the pool"
      },
      "pools()": {
        "details": "returns all the pools which are managed by this pool collection"
      },
      "protectionEnabled()": {
        "details": "returns the status of the protection"
      },
      "setDefaultTradingFeePPM(uint32)": {
        "details": "sets the default trading fee (in units of PPM) requirements: - the caller must be the owner of the contract"
      },
      "setNetworkFeePPM(uint32)": {
        "details": "sets the network fee (in units of PPM) requirements: - the caller must be the owner of the contract"
      },
      "setTradingFeePPM(address,uint32)": {
        "details": "sets the trading fee of a given pool requirements: - the caller must be the owner of the contract"
      },
      "tradeBySourceAmount(bytes32,address,address,uint256,uint256)": {
        "details": "performs a trade by providing the source amount and returns the target amount and the associated fee requirements: - the caller must be the network contract"
      },
      "tradeByTargetAmount(bytes32,address,address,uint256,uint256)": {
        "details": "performs a trade by providing the target amount and returns the required source amount and the associated fee requirements: - the caller must be the network contract"
      },
      "tradeInputAndFeeByTargetAmount(address,address,uint256)": {
        "details": "returns the input amount and fee when trading by providing the target amount"
      },
      "tradeOutputAndFeeBySourceAmount(address,address,uint256)": {
        "details": "returns the output amount and fee when trading by providing the source amount"
      },
      "tradingEnabled(address)": {
        "details": "returns whether trading is enabled"
      },
      "tradingFeePPM(address)": {
        "details": "returns the trading fee (in units of PPM)"
      },
      "transferOwnership(address)": {
        "details": "allows transferring the contract ownership requirements: - the caller must be the owner of the contract - the new owner still needs to accept the transfer"
      },
      "underlyingToPoolToken(address,uint256)": {
        "details": "converts the specified underlying base token amount to pool token amount"
      },
      "updateTradingLiquidity(address)": {
        "details": "adjusts the trading liquidity in the given pool based on the base token vault balance/funding limit requirements: - the caller must be the owner of the contract"
      },
      "withdraw(bytes32,address,address,uint256,uint256)": {
        "details": "handles some of the withdrawal-related actions and returns the withdrawn base token amount requirements: - the caller must be the network contract - the caller must have approved the collection to transfer/burn the pool token amount on its behalf"
      },
      "withdrawalAmounts(address,uint256)": {
        "details": "returns the amounts that would be returned if the position is currently withdrawn, along with the breakdown of the base token and the BNT compensation"
      }
    },
    "version": 1
  },
  "userdoc": {
    "kind": "user",
    "methods": {},
    "version": 1
  },
  "storageLayout": {
    "storage": [
      {
        "astId": 31383,
        "contract": "contracts/pools/PoolCollection.sol:PoolCollection",
        "label": "_owner",
        "offset": 0,
        "slot": "0",
        "type": "t_address"
      },
      {
        "astId": 31385,
        "contract": "contracts/pools/PoolCollection.sol:PoolCollection",
        "label": "_newOwner",
        "offset": 0,
        "slot": "1",
        "type": "t_address"
      },
      {
        "astId": 18519,
        "contract": "contracts/pools/PoolCollection.sol:PoolCollection",
        "label": "_poolData",
        "offset": 0,
        "slot": "2",
        "type": "t_mapping(t_contract(Token)29554,t_struct(Pool)24107_storage)"
      },
      {
        "astId": 18522,
        "contract": "contracts/pools/PoolCollection.sol:PoolCollection",
        "label": "_pools",
        "offset": 0,
        "slot": "3",
        "type": "t_struct(AddressSet)6608_storage"
      },
      {
        "astId": 18524,
        "contract": "contracts/pools/PoolCollection.sol:PoolCollection",
        "label": "_defaultTradingFeePPM",
        "offset": 0,
        "slot": "5",
        "type": "t_uint32"
      },
      {
        "astId": 18526,
        "contract": "contracts/pools/PoolCollection.sol:PoolCollection",
        "label": "_networkFeePPM",
        "offset": 4,
        "slot": "5",
        "type": "t_uint32"
      },
      {
        "astId": 18529,
        "contract": "contracts/pools/PoolCollection.sol:PoolCollection",
        "label": "_protectionEnabled",
        "offset": 8,
        "slot": "5",
        "type": "t_bool"
      }
    ],
    "types": {
      "t_address": {
        "encoding": "inplace",
        "label": "address",
        "numberOfBytes": "20"
      },
      "t_array(t_bytes32)dyn_storage": {
        "base": "t_bytes32",
        "encoding": "dynamic_array",
        "label": "bytes32[]",
        "numberOfBytes": "32"
      },
      "t_bool": {
        "encoding": "inplace",
        "label": "bool",
        "numberOfBytes": "1"
      },
      "t_bytes32": {
        "encoding": "inplace",
        "label": "bytes32",
        "numberOfBytes": "32"
      },
      "t_contract(IPoolToken)24480": {
        "encoding": "inplace",
        "label": "contract IPoolToken",
        "numberOfBytes": "20"
      },
      "t_contract(Token)29554": {
        "encoding": "inplace",
        "label": "contract Token",
        "numberOfBytes": "20"
      },
      "t_mapping(t_bytes32,t_uint256)": {
        "encoding": "mapping",
        "key": "t_bytes32",
        "label": "mapping(bytes32 => uint256)",
        "numberOfBytes": "32",
        "value": "t_uint256"
      },
      "t_mapping(t_contract(Token)29554,t_struct(Pool)24107_storage)": {
        "encoding": "mapping",
        "key": "t_contract(Token)29554",
        "label": "mapping(contract Token => struct Pool)",
        "numberOfBytes": "32",
        "value": "t_struct(Pool)24107_storage"
      },
      "t_struct(AddressSet)6608_storage": {
        "encoding": "inplace",
        "label": "struct EnumerableSet.AddressSet",
        "members": [
          {
            "astId": 6607,
            "contract": "contracts/pools/PoolCollection.sol:PoolCollection",
            "label": "_inner",
            "offset": 0,
            "slot": "0",
            "type": "t_struct(Set)6307_storage"
          }
        ],
        "numberOfBytes": "64"
      },
      "t_struct(AverageRates)24091_storage": {
        "encoding": "inplace",
        "label": "struct AverageRates",
        "members": [
          {
            "astId": 24084,
            "contract": "contracts/pools/PoolCollection.sol:PoolCollection",
            "label": "blockNumber",
            "offset": 0,
            "slot": "0",
            "type": "t_uint32"
          },
          {
            "astId": 24087,
            "contract": "contracts/pools/PoolCollection.sol:PoolCollection",
            "label": "rate",
            "offset": 0,
            "slot": "1",
            "type": "t_struct(Fraction112)29917_storage"
          },
          {
            "astId": 24090,
            "contract": "contracts/pools/PoolCollection.sol:PoolCollection",
            "label": "invRate",
            "offset": 0,
            "slot": "2",
            "type": "t_struct(Fraction112)29917_storage"
          }
        ],
        "numberOfBytes": "96"
      },
      "t_struct(Fraction112)29917_storage": {
        "encoding": "inplace",
        "label": "struct Fraction112",
        "members": [
          {
            "astId": 29914,
            "contract": "contracts/pools/PoolCollection.sol:PoolCollection",
            "label": "n",
            "offset": 0,
            "slot": "0",
            "type": "t_uint112"
          },
          {
            "astId": 29916,
            "contract": "contracts/pools/PoolCollection.sol:PoolCollection",
            "label": "d",
            "offset": 14,
            "slot": "0",
            "type": "t_uint112"
          }
        ],
        "numberOfBytes": "32"
      },
      "t_struct(Pool)24107_storage": {
        "encoding": "inplace",
        "label": "struct Pool",
        "members": [
          {
            "astId": 24094,
            "contract": "contracts/pools/PoolCollection.sol:PoolCollection",
            "label": "poolToken",
            "offset": 0,
            "slot": "0",
            "type": "t_contract(IPoolToken)24480"
          },
          {
            "astId": 24096,
            "contract": "contracts/pools/PoolCollection.sol:PoolCollection",
            "label": "tradingFeePPM",
            "offset": 20,
            "slot": "0",
            "type": "t_uint32"
          },
          {
            "astId": 24098,
            "contract": "contracts/pools/PoolCollection.sol:PoolCollection",
            "label": "tradingEnabled",
            "offset": 24,
            "slot": "0",
            "type": "t_bool"
          },
          {
            "astId": 24100,
            "contract": "contracts/pools/PoolCollection.sol:PoolCollection",
            "label": "depositingEnabled",
            "offset": 25,
            "slot": "0",
            "type": "t_bool"
          },
          {
            "astId": 24103,
            "contract": "contracts/pools/PoolCollection.sol:PoolCollection",
            "label": "averageRates",
            "offset": 0,
            "slot": "1",
            "type": "t_struct(AverageRates)24091_storage"
          },
          {
            "astId": 24106,
            "contract": "contracts/pools/PoolCollection.sol:PoolCollection",
            "label": "liquidity",
            "offset": 0,
            "slot": "4",
            "type": "t_struct(PoolLiquidity)24082_storage"
          }
        ],
        "numberOfBytes": "192"
      },
      "t_struct(PoolLiquidity)24082_storage": {
        "encoding": "inplace",
        "label": "struct PoolLiquidity",
        "members": [
          {
            "astId": 24077,
            "contract": "contracts/pools/PoolCollection.sol:PoolCollection",
            "label": "bntTradingLiquidity",
            "offset": 0,
            "slot": "0",
            "type": "t_uint128"
          },
          {
            "astId": 24079,
            "contract": "contracts/pools/PoolCollection.sol:PoolCollection",
            "label": "baseTokenTradingLiquidity",
            "offset": 16,
            "slot": "0",
            "type": "t_uint128"
          },
          {
            "astId": 24081,
            "contract": "contracts/pools/PoolCollection.sol:PoolCollection",
            "label": "stakedBalance",
            "offset": 0,
            "slot": "1",
            "type": "t_uint256"
          }
        ],
        "numberOfBytes": "64"
      },
      "t_struct(Set)6307_storage": {
        "encoding": "inplace",
        "label": "struct EnumerableSet.Set",
        "members": [
          {
            "astId": 6302,
            "contract": "contracts/pools/PoolCollection.sol:PoolCollection",
            "label": "_values",
            "offset": 0,
            "slot": "0",
            "type": "t_array(t_bytes32)dyn_storage"
          },
          {
            "astId": 6306,
            "contract": "contracts/pools/PoolCollection.sol:PoolCollection",
            "label": "_indexes",
            "offset": 0,
            "slot": "1",
            "type": "t_mapping(t_bytes32,t_uint256)"
          }
        ],
        "numberOfBytes": "64"
      },
      "t_uint112": {
        "encoding": "inplace",
        "label": "uint112",
        "numberOfBytes": "14"
      },
      "t_uint128": {
        "encoding": "inplace",
        "label": "uint128",
        "numberOfBytes": "16"
      },
      "t_uint256": {
        "encoding": "inplace",
        "label": "uint256",
        "numberOfBytes": "32"
      },
      "t_uint32": {
        "encoding": "inplace",
        "label": "uint32",
        "numberOfBytes": "4"
      }
    }
  }
}