{
  "address": "0xAD3339099ae87f1ad6e984872B95E7be24b813A7",
  "abi": [
    {
      "inputs": [
        {
          "internalType": "contract IBancorNetwork",
          "name": "initNetwork",
          "type": "address"
        },
        {
          "internalType": "contract IERC20",
          "name": "initBNT",
          "type": "address"
        },
        {
          "internalType": "contract INetworkSettings",
          "name": "initNetworkSettings",
          "type": "address"
        },
        {
          "internalType": "contract IMasterVault",
          "name": "initMasterVault",
          "type": "address"
        },
        {
          "internalType": "contract IBNTPool",
          "name": "initBNTPool",
          "type": "address"
        },
        {
          "internalType": "contract IExternalProtectionVault",
          "name": "initExternalProtectionVault",
          "type": "address"
        },
        {
          "internalType": "contract IPoolTokenFactory",
          "name": "initPoolTokenFactory",
          "type": "address"
        },
        {
          "internalType": "contract IPoolMigrator",
          "name": "initPoolMigrator",
          "type": "address"
        }
      ],
      "stateMutability": "nonpayable",
      "type": "constructor"
    },
    {
      "inputs": [],
      "name": "AccessDenied",
      "type": "error"
    },
    {
      "inputs": [],
      "name": "AlreadyEnabled",
      "type": "error"
    },
    {
      "inputs": [],
      "name": "AlreadyExists",
      "type": "error"
    },
    {
      "inputs": [],
      "name": "DepositingDisabled",
      "type": "error"
    },
    {
      "inputs": [],
      "name": "DoesNotExist",
      "type": "error"
    },
    {
      "inputs": [],
      "name": "FundingLimitTooHigh",
      "type": "error"
    },
    {
      "inputs": [],
      "name": "InsufficientLiquidity",
      "type": "error"
    },
    {
      "inputs": [],
      "name": "InsufficientSourceAmount",
      "type": "error"
    },
    {
      "inputs": [],
      "name": "InsufficientTargetAmount",
      "type": "error"
    },
    {
      "inputs": [],
      "name": "InvalidAddress",
      "type": "error"
    },
    {
      "inputs": [],
      "name": "InvalidFee",
      "type": "error"
    },
    {
      "inputs": [],
      "name": "InvalidFraction",
      "type": "error"
    },
    {
      "inputs": [],
      "name": "InvalidParam",
      "type": "error"
    },
    {
      "inputs": [],
      "name": "InvalidRate",
      "type": "error"
    },
    {
      "inputs": [],
      "name": "InvalidStakedBalance",
      "type": "error"
    },
    {
      "inputs": [],
      "name": "NotWhitelisted",
      "type": "error"
    },
    {
      "inputs": [],
      "name": "Overflow",
      "type": "error"
    },
    {
      "inputs": [],
      "name": "PoolCollectionWithdrawalInputInvalid",
      "type": "error"
    },
    {
      "inputs": [],
      "name": "RateUnstable",
      "type": "error"
    },
    {
      "inputs": [],
      "name": "SameOwner",
      "type": "error"
    },
    {
      "inputs": [],
      "name": "TradingDisabled",
      "type": "error"
    },
    {
      "inputs": [],
      "name": "ZeroValue",
      "type": "error"
    },
    {
      "anonymous": false,
      "inputs": [
        {
          "indexed": false,
          "internalType": "uint32",
          "name": "prevFeePPM",
          "type": "uint32"
        },
        {
          "indexed": false,
          "internalType": "uint32",
          "name": "newFeePPM",
          "type": "uint32"
        }
      ],
      "name": "DefaultTradingFeePPMUpdated",
      "type": "event"
    },
    {
      "anonymous": false,
      "inputs": [
        {
          "indexed": true,
          "internalType": "contract Token",
          "name": "pool",
          "type": "address"
        },
        {
          "indexed": true,
          "internalType": "bool",
          "name": "newStatus",
          "type": "bool"
        }
      ],
      "name": "DepositingEnabled",
      "type": "event"
    },
    {
      "anonymous": false,
      "inputs": [
        {
          "indexed": true,
          "internalType": "address",
          "name": "prevOwner",
          "type": "address"
        },
        {
          "indexed": true,
          "internalType": "address",
          "name": "newOwner",
          "type": "address"
        }
      ],
      "name": "OwnerUpdate",
      "type": "event"
    },
    {
      "anonymous": false,
      "inputs": [
        {
          "indexed": true,
          "internalType": "bytes32",
          "name": "contextId",
          "type": "bytes32"
        },
        {
          "indexed": true,
          "internalType": "address",
          "name": "provider",
          "type": "address"
        },
        {
          "indexed": true,
          "internalType": "contract Token",
          "name": "token",
          "type": "address"
        },
        {
          "indexed": false,
          "internalType": "uint256",
          "name": "tokenAmount",
          "type": "uint256"
        },
        {
          "indexed": false,
          "internalType": "uint256",
          "name": "poolTokenAmount",
          "type": "uint256"
        }
      ],
      "name": "TokensDeposited",
      "type": "event"
    },
    {
      "anonymous": false,
      "inputs": [
        {
          "indexed": true,
          "internalType": "bytes32",
          "name": "contextId",
          "type": "bytes32"
        },
        {
          "indexed": true,
          "internalType": "address",
          "name": "provider",
          "type": "address"
        },
        {
          "indexed": true,
          "internalType": "contract Token",
          "name": "token",
          "type": "address"
        },
        {
          "indexed": false,
          "internalType": "uint256",
          "name": "tokenAmount",
          "type": "uint256"
        },
        {
          "indexed": false,
          "internalType": "uint256",
          "name": "poolTokenAmount",
          "type": "uint256"
        },
        {
          "indexed": false,
          "internalType": "uint256",
          "name": "externalProtectionBaseTokenAmount",
          "type": "uint256"
        },
        {
          "indexed": false,
          "internalType": "uint256",
          "name": "bntAmount",
          "type": "uint256"
        },
        {
          "indexed": false,
          "internalType": "uint256",
          "name": "withdrawalFeeAmount",
          "type": "uint256"
        }
      ],
      "name": "TokensWithdrawn",
      "type": "event"
    },
    {
      "anonymous": false,
      "inputs": [
        {
          "indexed": true,
          "internalType": "bytes32",
          "name": "contextId",
          "type": "bytes32"
        },
        {
          "indexed": true,
          "internalType": "contract Token",
          "name": "pool",
          "type": "address"
        },
        {
          "indexed": false,
          "internalType": "uint256",
          "name": "liquidity",
          "type": "uint256"
        },
        {
          "indexed": false,
          "internalType": "uint256",
          "name": "stakedBalance",
          "type": "uint256"
        },
        {
          "indexed": false,
          "internalType": "uint256",
          "name": "poolTokenSupply",
          "type": "uint256"
        }
      ],
      "name": "TotalLiquidityUpdated",
      "type": "event"
    },
    {
      "anonymous": false,
      "inputs": [
        {
          "indexed": true,
          "internalType": "contract Token",
          "name": "pool",
          "type": "address"
        },
        {
          "indexed": true,
          "internalType": "bool",
          "name": "newStatus",
          "type": "bool"
        },
        {
          "indexed": true,
          "internalType": "uint8",
          "name": "reason",
          "type": "uint8"
        }
      ],
      "name": "TradingEnabled",
      "type": "event"
    },
    {
      "anonymous": false,
      "inputs": [
        {
          "indexed": true,
          "internalType": "contract Token",
          "name": "pool",
          "type": "address"
        },
        {
          "indexed": false,
          "internalType": "uint32",
          "name": "prevFeePPM",
          "type": "uint32"
        },
        {
          "indexed": false,
          "internalType": "uint32",
          "name": "newFeePPM",
          "type": "uint32"
        }
      ],
      "name": "TradingFeePPMUpdated",
      "type": "event"
    },
    {
      "anonymous": false,
      "inputs": [
        {
          "indexed": true,
          "internalType": "bytes32",
          "name": "contextId",
          "type": "bytes32"
        },
        {
          "indexed": true,
          "internalType": "contract Token",
          "name": "pool",
          "type": "address"
        },
        {
          "indexed": true,
          "internalType": "contract Token",
          "name": "token",
          "type": "address"
        },
        {
          "indexed": false,
          "internalType": "uint256",
          "name": "prevLiquidity",
          "type": "uint256"
        },
        {
          "indexed": false,
          "internalType": "uint256",
          "name": "newLiquidity",
          "type": "uint256"
        }
      ],
      "name": "TradingLiquidityUpdated",
      "type": "event"
    },
    {
      "inputs": [],
      "name": "acceptOwnership",
      "outputs": [],
      "stateMutability": "nonpayable",
      "type": "function"
    },
    {
      "inputs": [
        {
          "internalType": "contract Token",
          "name": "token",
          "type": "address"
        }
      ],
      "name": "createPool",
      "outputs": [],
      "stateMutability": "nonpayable",
      "type": "function"
    },
    {
      "inputs": [],
      "name": "defaultTradingFeePPM",
      "outputs": [
        {
          "internalType": "uint32",
          "name": "",
          "type": "uint32"
        }
      ],
      "stateMutability": "view",
      "type": "function"
    },
    {
      "inputs": [
        {
          "internalType": "bytes32",
          "name": "contextId",
          "type": "bytes32"
        },
        {
          "internalType": "address",
          "name": "provider",
          "type": "address"
        },
        {
          "internalType": "contract Token",
          "name": "pool",
          "type": "address"
        },
        {
          "internalType": "uint256",
          "name": "tokenAmount",
          "type": "uint256"
        }
      ],
      "name": "depositFor",
      "outputs": [
        {
          "internalType": "uint256",
          "name": "",
          "type": "uint256"
        }
      ],
      "stateMutability": "nonpayable",
      "type": "function"
    },
    {
      "inputs": [
        {
          "internalType": "contract Token",
          "name": "pool",
          "type": "address"
        }
      ],
      "name": "depositingEnabled",
      "outputs": [
        {
          "internalType": "bool",
          "name": "",
          "type": "bool"
        }
      ],
      "stateMutability": "view",
      "type": "function"
    },
    {
      "inputs": [
        {
          "internalType": "contract Token",
          "name": "pool",
          "type": "address"
        }
      ],
      "name": "disableTrading",
      "outputs": [],
      "stateMutability": "nonpayable",
      "type": "function"
    },
    {
      "inputs": [
        {
          "internalType": "contract Token",
          "name": "pool",
          "type": "address"
        },
        {
          "internalType": "bool",
          "name": "status",
          "type": "bool"
        }
      ],
      "name": "enableDepositing",
      "outputs": [],
      "stateMutability": "nonpayable",
      "type": "function"
    },
    {
      "inputs": [
        {
          "internalType": "contract Token",
          "name": "pool",
          "type": "address"
        },
        {
          "internalType": "uint256",
          "name": "bntVirtualBalance",
          "type": "uint256"
        },
        {
          "internalType": "uint256",
          "name": "baseTokenVirtualBalance",
          "type": "uint256"
        }
      ],
      "name": "enableTrading",
      "outputs": [],
      "stateMutability": "nonpayable",
      "type": "function"
    },
    {
      "inputs": [
        {
          "internalType": "contract Token",
          "name": "pool",
          "type": "address"
        }
      ],
      "name": "isPoolStable",
      "outputs": [
        {
          "internalType": "bool",
          "name": "",
          "type": "bool"
        }
      ],
      "stateMutability": "view",
      "type": "function"
    },
    {
      "inputs": [
        {
          "internalType": "contract Token",
          "name": "pool",
          "type": "address"
        }
      ],
      "name": "isPoolValid",
      "outputs": [
        {
          "internalType": "bool",
          "name": "",
          "type": "bool"
        }
      ],
      "stateMutability": "view",
      "type": "function"
    },
    {
      "inputs": [
        {
          "internalType": "contract Token",
          "name": "pool",
          "type": "address"
        },
        {
          "components": [
            {
              "internalType": "contract IPoolToken",
              "name": "poolToken",
              "type": "address"
            },
            {
              "internalType": "uint32",
              "name": "tradingFeePPM",
              "type": "uint32"
            },
            {
              "internalType": "bool",
              "name": "tradingEnabled",
              "type": "bool"
            },
            {
              "internalType": "bool",
              "name": "depositingEnabled",
              "type": "bool"
            },
            {
              "components": [
                {
                  "internalType": "uint32",
                  "name": "blockNumber",
                  "type": "uint32"
                },
                {
                  "components": [
                    {
                      "internalType": "uint112",
                      "name": "n",
                      "type": "uint112"
                    },
                    {
                      "internalType": "uint112",
                      "name": "d",
                      "type": "uint112"
                    }
                  ],
                  "internalType": "struct Fraction112",
                  "name": "rate",
                  "type": "tuple"
                },
                {
                  "components": [
                    {
                      "internalType": "uint112",
                      "name": "n",
                      "type": "uint112"
                    },
                    {
                      "internalType": "uint112",
                      "name": "d",
                      "type": "uint112"
                    }
                  ],
                  "internalType": "struct Fraction112",
                  "name": "invRate",
                  "type": "tuple"
                }
              ],
              "internalType": "struct AverageRates",
              "name": "averageRates",
              "type": "tuple"
            },
            {
              "components": [
                {
                  "internalType": "uint128",
                  "name": "bntTradingLiquidity",
                  "type": "uint128"
                },
                {
                  "internalType": "uint128",
                  "name": "baseTokenTradingLiquidity",
                  "type": "uint128"
                },
                {
                  "internalType": "uint256",
                  "name": "stakedBalance",
                  "type": "uint256"
                }
              ],
              "internalType": "struct PoolLiquidity",
              "name": "liquidity",
              "type": "tuple"
            }
          ],
          "internalType": "struct Pool",
          "name": "data",
          "type": "tuple"
        }
      ],
      "name": "migratePoolIn",
      "outputs": [],
      "stateMutability": "nonpayable",
      "type": "function"
    },
    {
      "inputs": [
        {
          "internalType": "contract Token",
          "name": "pool",
          "type": "address"
        },
        {
          "internalType": "contract IPoolCollection",
          "name": "targetPoolCollection",
          "type": "address"
        }
      ],
      "name": "migratePoolOut",
      "outputs": [],
      "stateMutability": "nonpayable",
      "type": "function"
    },
    {
      "inputs": [],
      "name": "newOwner",
      "outputs": [
        {
          "internalType": "address",
          "name": "",
          "type": "address"
        }
      ],
      "stateMutability": "view",
      "type": "function"
    },
    {
      "inputs": [
        {
          "internalType": "contract Token",
          "name": "pool",
          "type": "address"
        },
        {
          "internalType": "uint256",
          "name": "feeAmount",
          "type": "uint256"
        }
      ],
      "name": "onFeesCollected",
      "outputs": [],
      "stateMutability": "nonpayable",
      "type": "function"
    },
    {
      "inputs": [],
      "name": "owner",
      "outputs": [
        {
          "internalType": "address",
          "name": "",
          "type": "address"
        }
      ],
      "stateMutability": "view",
      "type": "function"
    },
    {
      "inputs": [],
      "name": "poolCount",
      "outputs": [
        {
          "internalType": "uint256",
          "name": "",
          "type": "uint256"
        }
      ],
      "stateMutability": "view",
      "type": "function"
    },
    {
      "inputs": [
        {
          "internalType": "contract Token",
          "name": "pool",
          "type": "address"
        }
      ],
      "name": "poolData",
      "outputs": [
        {
          "components": [
            {
              "internalType": "contract IPoolToken",
              "name": "poolToken",
              "type": "address"
            },
            {
              "internalType": "uint32",
              "name": "tradingFeePPM",
              "type": "uint32"
            },
            {
              "internalType": "bool",
              "name": "tradingEnabled",
              "type": "bool"
            },
            {
              "internalType": "bool",
              "name": "depositingEnabled",
              "type": "bool"
            },
            {
              "components": [
                {
                  "internalType": "uint32",
                  "name": "blockNumber",
                  "type": "uint32"
                },
                {
                  "components": [
                    {
                      "internalType": "uint112",
                      "name": "n",
                      "type": "uint112"
                    },
                    {
                      "internalType": "uint112",
                      "name": "d",
                      "type": "uint112"
                    }
                  ],
                  "internalType": "struct Fraction112",
                  "name": "rate",
                  "type": "tuple"
                },
                {
                  "components": [
                    {
                      "internalType": "uint112",
                      "name": "n",
                      "type": "uint112"
                    },
                    {
                      "internalType": "uint112",
                      "name": "d",
                      "type": "uint112"
                    }
                  ],
                  "internalType": "struct Fraction112",
                  "name": "invRate",
                  "type": "tuple"
                }
              ],
              "internalType": "struct AverageRates",
              "name": "averageRates",
              "type": "tuple"
            },
            {
              "components": [
                {
                  "internalType": "uint128",
                  "name": "bntTradingLiquidity",
                  "type": "uint128"
                },
                {
                  "internalType": "uint128",
                  "name": "baseTokenTradingLiquidity",
                  "type": "uint128"
                },
                {
                  "internalType": "uint256",
                  "name": "stakedBalance",
                  "type": "uint256"
                }
              ],
              "internalType": "struct PoolLiquidity",
              "name": "liquidity",
              "type": "tuple"
            }
          ],
          "internalType": "struct Pool",
          "name": "",
          "type": "tuple"
        }
      ],
      "stateMutability": "view",
      "type": "function"
    },
    {
      "inputs": [
        {
          "internalType": "contract Token",
          "name": "pool",
          "type": "address"
        }
      ],
      "name": "poolLiquidity",
      "outputs": [
        {
          "components": [
            {
              "internalType": "uint128",
              "name": "bntTradingLiquidity",
              "type": "uint128"
            },
            {
              "internalType": "uint128",
              "name": "baseTokenTradingLiquidity",
              "type": "uint128"
            },
            {
              "internalType": "uint256",
              "name": "stakedBalance",
              "type": "uint256"
            }
          ],
          "internalType": "struct PoolLiquidity",
          "name": "",
          "type": "tuple"
        }
      ],
      "stateMutability": "view",
      "type": "function"
    },
    {
      "inputs": [
        {
          "internalType": "contract Token",
          "name": "pool",
          "type": "address"
        }
      ],
      "name": "poolToken",
      "outputs": [
        {
          "internalType": "contract IPoolToken",
          "name": "",
          "type": "address"
        }
      ],
      "stateMutability": "view",
      "type": "function"
    },
    {
      "inputs": [
        {
          "internalType": "contract Token",
          "name": "pool",
          "type": "address"
        },
        {
          "internalType": "uint256",
          "name": "tokenAmountToDistribute",
          "type": "uint256"
        },
        {
          "internalType": "uint256",
          "name": "protocolPoolTokenAmount",
          "type": "uint256"
        }
      ],
      "name": "poolTokenAmountToBurn",
      "outputs": [
        {
          "internalType": "uint256",
          "name": "",
          "type": "uint256"
        }
      ],
      "stateMutability": "view",
      "type": "function"
    },
    {
      "inputs": [
        {
          "internalType": "contract Token",
          "name": "pool",
          "type": "address"
        },
        {
          "internalType": "uint256",
          "name": "poolTokenAmount",
          "type": "uint256"
        }
      ],
      "name": "poolTokenToUnderlying",
      "outputs": [
        {
          "internalType": "uint256",
          "name": "",
          "type": "uint256"
        }
      ],
      "stateMutability": "view",
      "type": "function"
    },
    {
      "inputs": [],
      "name": "poolType",
      "outputs": [
        {
          "internalType": "uint16",
          "name": "",
          "type": "uint16"
        }
      ],
      "stateMutability": "pure",
      "type": "function"
    },
    {
      "inputs": [],
      "name": "pools",
      "outputs": [
        {
          "internalType": "contract Token[]",
          "name": "",
          "type": "address[]"
        }
      ],
      "stateMutability": "view",
      "type": "function"
    },
    {
      "inputs": [
        {
          "internalType": "uint32",
          "name": "newDefaultTradingFeePPM",
          "type": "uint32"
        }
      ],
      "name": "setDefaultTradingFeePPM",
      "outputs": [],
      "stateMutability": "nonpayable",
      "type": "function"
    },
    {
      "inputs": [
        {
          "internalType": "contract Token",
          "name": "pool",
          "type": "address"
        },
        {
          "internalType": "uint32",
          "name": "newTradingFeePPM",
          "type": "uint32"
        }
      ],
      "name": "setTradingFeePPM",
      "outputs": [],
      "stateMutability": "nonpayable",
      "type": "function"
    },
    {
      "inputs": [
        {
          "internalType": "bytes32",
          "name": "contextId",
          "type": "bytes32"
        },
        {
          "internalType": "contract Token",
          "name": "sourceToken",
          "type": "address"
        },
        {
          "internalType": "contract Token",
          "name": "targetToken",
          "type": "address"
        },
        {
          "internalType": "uint256",
          "name": "sourceAmount",
          "type": "uint256"
        },
        {
          "internalType": "uint256",
          "name": "minReturnAmount",
          "type": "uint256"
        }
      ],
      "name": "tradeBySourceAmount",
      "outputs": [
        {
          "components": [
            {
              "internalType": "uint256",
              "name": "amount",
              "type": "uint256"
            },
            {
              "internalType": "uint256",
              "name": "tradingFeeAmount",
              "type": "uint256"
            },
            {
              "internalType": "uint256",
              "name": "networkFeeAmount",
              "type": "uint256"
            }
          ],
          "internalType": "struct TradeAmountAndFee",
          "name": "",
          "type": "tuple"
        }
      ],
      "stateMutability": "nonpayable",
      "type": "function"
    },
    {
      "inputs": [
        {
          "internalType": "bytes32",
          "name": "contextId",
          "type": "bytes32"
        },
        {
          "internalType": "contract Token",
          "name": "sourceToken",
          "type": "address"
        },
        {
          "internalType": "contract Token",
          "name": "targetToken",
          "type": "address"
        },
        {
          "internalType": "uint256",
          "name": "targetAmount",
          "type": "uint256"
        },
        {
          "internalType": "uint256",
          "name": "maxSourceAmount",
          "type": "uint256"
        }
      ],
      "name": "tradeByTargetAmount",
      "outputs": [
        {
          "components": [
            {
              "internalType": "uint256",
              "name": "amount",
              "type": "uint256"
            },
            {
              "internalType": "uint256",
              "name": "tradingFeeAmount",
              "type": "uint256"
            },
            {
              "internalType": "uint256",
              "name": "networkFeeAmount",
              "type": "uint256"
            }
          ],
          "internalType": "struct TradeAmountAndFee",
          "name": "",
          "type": "tuple"
        }
      ],
      "stateMutability": "nonpayable",
      "type": "function"
    },
    {
      "inputs": [
        {
          "internalType": "contract Token",
          "name": "sourceToken",
          "type": "address"
        },
        {
          "internalType": "contract Token",
          "name": "targetToken",
          "type": "address"
        },
        {
          "internalType": "uint256",
          "name": "targetAmount",
          "type": "uint256"
        }
      ],
      "name": "tradeInputAndFeeByTargetAmount",
      "outputs": [
        {
          "components": [
            {
              "internalType": "uint256",
              "name": "amount",
              "type": "uint256"
            },
            {
              "internalType": "uint256",
              "name": "tradingFeeAmount",
              "type": "uint256"
            },
            {
              "internalType": "uint256",
              "name": "networkFeeAmount",
              "type": "uint256"
            }
          ],
          "internalType": "struct TradeAmountAndFee",
          "name": "",
          "type": "tuple"
        }
      ],
      "stateMutability": "view",
      "type": "function"
    },
    {
      "inputs": [
        {
          "internalType": "contract Token",
          "name": "sourceToken",
          "type": "address"
        },
        {
          "internalType": "contract Token",
          "name": "targetToken",
          "type": "address"
        },
        {
          "internalType": "uint256",
          "name": "sourceAmount",
          "type": "uint256"
        }
      ],
      "name": "tradeOutputAndFeeBySourceAmount",
      "outputs": [
        {
          "components": [
            {
              "internalType": "uint256",
              "name": "amount",
              "type": "uint256"
            },
            {
              "internalType": "uint256",
              "name": "tradingFeeAmount",
              "type": "uint256"
            },
            {
              "internalType": "uint256",
              "name": "networkFeeAmount",
              "type": "uint256"
            }
          ],
          "internalType": "struct TradeAmountAndFee",
          "name": "",
          "type": "tuple"
        }
      ],
      "stateMutability": "view",
      "type": "function"
    },
    {
      "inputs": [
        {
          "internalType": "contract Token",
          "name": "pool",
          "type": "address"
        }
      ],
      "name": "tradingEnabled",
      "outputs": [
        {
          "internalType": "bool",
          "name": "",
          "type": "bool"
        }
      ],
      "stateMutability": "view",
      "type": "function"
    },
    {
      "inputs": [
        {
          "internalType": "contract Token",
          "name": "pool",
          "type": "address"
        }
      ],
      "name": "tradingFeePPM",
      "outputs": [
        {
          "internalType": "uint32",
          "name": "",
          "type": "uint32"
        }
      ],
      "stateMutability": "view",
      "type": "function"
    },
    {
      "inputs": [
        {
          "internalType": "address",
          "name": "ownerCandidate",
          "type": "address"
        }
      ],
      "name": "transferOwnership",
      "outputs": [],
      "stateMutability": "nonpayable",
      "type": "function"
    },
    {
      "inputs": [
        {
          "internalType": "contract Token",
          "name": "pool",
          "type": "address"
        },
        {
          "internalType": "uint256",
          "name": "tokenAmount",
          "type": "uint256"
        }
      ],
      "name": "underlyingToPoolToken",
      "outputs": [
        {
          "internalType": "uint256",
          "name": "",
          "type": "uint256"
        }
      ],
      "stateMutability": "view",
      "type": "function"
    },
    {
      "inputs": [],
      "name": "version",
      "outputs": [
        {
          "internalType": "uint16",
          "name": "",
          "type": "uint16"
        }
      ],
      "stateMutability": "view",
      "type": "function"
    },
    {
      "inputs": [
        {
          "internalType": "bytes32",
          "name": "contextId",
          "type": "bytes32"
        },
        {
          "internalType": "address",
          "name": "provider",
          "type": "address"
        },
        {
          "internalType": "contract Token",
          "name": "pool",
          "type": "address"
        },
        {
          "internalType": "uint256",
          "name": "poolTokenAmount",
          "type": "uint256"
        },
        {
          "internalType": "uint256",
          "name": "baseTokenAmount",
          "type": "uint256"
        }
      ],
      "name": "withdraw",
      "outputs": [
        {
          "internalType": "uint256",
          "name": "",
          "type": "uint256"
        }
      ],
      "stateMutability": "nonpayable",
      "type": "function"
    },
    {
      "inputs": [
        {
          "internalType": "contract Token",
          "name": "pool",
          "type": "address"
        },
        {
          "internalType": "uint256",
          "name": "poolTokenAmount",
          "type": "uint256"
        }
      ],
      "name": "withdrawalAmounts",
      "outputs": [
        {
          "components": [
            {
              "internalType": "uint256",
              "name": "totalAmount",
              "type": "uint256"
            },
            {
              "internalType": "uint256",
              "name": "baseTokenAmount",
              "type": "uint256"
            },
            {
              "internalType": "uint256",
              "name": "bntAmount",
              "type": "uint256"
            }
          ],
          "internalType": "struct WithdrawalAmounts",
          "name": "",
          "type": "tuple"
        }
      ],
      "stateMutability": "view",
      "type": "function"
    }
  ],
  "transactionHash": "0xf6ba716b8d363ca1533b63857f0b4c1090d928b5177625461b3972209b6c0c47",
  "args": [
    "0xeEF417e1D5CC832e619ae18D2F140De2999dD4fB",
    "0x1F573D6Fb3F13d689FF844B4cE37794d79a7FF1C",
    "0x83E1814ba31F7ea95D216204BB45FE75Ce09b14F",
    "0x649765821D9f64198c905eC0B2B037a4a52Bc373",
    "0x02651E355D26f3506C1E644bA393FDD9Ac95EaCa",
    "0xFd31662b3d54eddE9B6Bdd32c9c27C8E292cAD57",
    "0x9E912953DB31fE933BDa43374208E967058D9d5F",
    "0x97CeC0F2D355BF073619A5093F989709caE4a191"
  ],
  "numDeployments": 1,
  "solcInputHash": "edfe059e720ed4bcd8e9c8ea7079ea2f",
  "bytecode": "0x6101806040523480156200001257600080fd5b5060405162005d7f38038062005d7f8339810160408190526200003591620002aa565b62000040336200019d565b876200004c81620001f7565b876200005881620001f7565b876200006481620001f7565b876200007081620001f7565b876200007c81620001f7565b876200008881620001f7565b876200009481620001f7565b87620000a081620001f7565b8f6001600160a01b03166080816001600160a01b0316815250508e6001600160a01b031660a0816001600160a01b0316815250508d6001600160a01b031660c0816001600160a01b0316815250508c6001600160a01b031660e0816001600160a01b0316815250508b6001600160a01b0316610100816001600160a01b0316815250508a6001600160a01b0316610120816001600160a01b031681525050896001600160a01b0316610140816001600160a01b031681525050886001600160a01b0316610160816001600160a01b031681525050620001876107d06200022260201b60201c565b505050505050505050505050505050506200036b565b600080546001600160a01b038381166001600160a01b031980841682178555600180549091169055604051919092169283917f343765429aea5a34b3ff6a3785a98a5abb2597aca87bfbb58632c173d585373a9190a35050565b6001600160a01b0381166200021f5760405163e6c4247b60e01b815260040160405180910390fd5b50565b60055463ffffffff90811690821681036200023b575050565b6005805463ffffffff191663ffffffff84811691821790925560408051928416835260208301919091527fb804b0ec3f0ea43004870df377170ce44cb789adca16d23286e337605558117f910160405180910390a15050565b6001600160a01b03811681146200021f57600080fd5b600080600080600080600080610100898b031215620002c857600080fd5b8851620002d58162000294565b60208a0151909850620002e88162000294565b60408a0151909750620002fb8162000294565b60608a01519096506200030e8162000294565b60808a0151909550620003218162000294565b60a08a0151909450620003348162000294565b60c08a0151909350620003478162000294565b60e08a01519092506200035a8162000294565b809150509295985092959890939650565b60805160a05160c05160e051610100516101205161014051610160516158ff620004806000396000818161146d0152611c1b0152600061121b015260008181612ac20152613139015260008181611fc40152818161208e0152818161216001528181612ebc01528181612f5601528181612faa0152818161307c0152613f9f015260008181611ea901528181612a6601528181612fd701528181613109015281816131e901526138f20152600081816107f3015281816111710152818161193501528181612b02015281816132d601526141000152600081816125c7015261428601526000818161073401528181610c2501528181610e2d0152818161112a0152818161169d0152611ad901526158ff6000f3fe608060405234801561001057600080fd5b506004361061021c5760003560e01c8063915b994111610125578063c2cf4252116100ad578063ee4808fe1161007c578063ee4808fe146105af578063f2fde38b146105c2578063f525cb68146105d5578063f6c57861146105dd578063fba8cdee1461060b57600080fd5b8063c2cf425214610543578063c5c51dca14610576578063d3df24241461058b578063d4ee1d901461059e57600080fd5b80639fc19231116100f45780639fc1923114610465578063a135ef1714610473578063b1dd61b6146104f6578063b7fafb7a146104fd578063bedf95251461051057600080fd5b8063915b9941146104195780639181d2e31461042c578063921a929e1461043f5780639f5c734b1461045257600080fd5b8063541868c8116101a857806372d960e11161017757806372d960e1146103c757806379ba5097146103da57806381417585146103e25780638da5cb5b146103f55780639049f9d21461040657600080fd5b8063541868c81461034757806354fd4d501461035a57806356aca36f146103705780635768adcf1461038357600080fd5b806327910565116101ef578063279105651461029557806330cdb308146102a857806334afba2b146102f35780634ceea7531461031357806352c8f9901461033457600080fd5b8063136efb7a146102215780631510748b1461024a5780631c754cae1461025f5780632258cc6914610272575b600080fd5b61023461022f3660046150eb565b61061e565b6040516102419190615108565b60405180910390f35b61025d6102583660046151ce565b610732565b005b61025d61026d3660046151fa565b610792565b6102856102803660046150eb565b6109f2565b6040519015158152602001610241565b61025d6102a33660046150eb565b610aca565b6102de6102b63660046150eb565b6001600160a01b0316600090815260026020526040902054600160a01b900463ffffffff1690565b60405163ffffffff9091168152602001610241565b61030661030136600461522f565b610af1565b6040516102419190615270565b6103266103213660046151ce565b610b66565b604051908152602001610241565b610306610342366004615291565b610bff565b6103066103553660046151ce565b610cb3565b60045b60405161ffff9091168152602001610241565b61032661037e366004615291565b610e29565b6103af6103913660046150eb565b6001600160a01b039081166000908152600260205260409020541690565b6040516001600160a01b039091168152602001610241565b6103066103d536600461522f565b610fe5565b61025d611061565b61025d6103f03660046152f1565b6110a3565b6000546001600160a01b03166103af565b61025d6104143660046150eb565b611128565b61025d61042736600461532a565b611461565b61025d61043a36600461537f565b611512565b61032661044d3660046151fa565b6115c3565b6103266104603660046153ad565b611699565b60055463ffffffff166102de565b6104e96104813660046150eb565b6040805160608082018352600080835260208084018290529284018190526001600160a01b0394909416845260028252928290208251938401835260048101546001600160801b038082168652600160801b9091041691840191909152600501549082015290565b60405161024191906153f5565b600161035d565b61030661050b366004615291565b611ab3565b61028561051e3660046150eb565b6001600160a01b0316600090815260026020526040902054600160c01b900460ff1690565b6102856105513660046150eb565b6001600160a01b0316600090815260026020526040902054600160c81b900460ff1690565b61057e611b5f565b6040516102419190615424565b61025d610599366004615471565b611c0f565b6001546001600160a01b03166103af565b6103266105bd3660046151ce565b611cca565b61025d6105d03660046150eb565b611d59565b610326611db2565b6102856105eb3660046150eb565b6001600160a01b0390811660009081526002602052604090205416151590565b61025d61061936600461549f565b611dc3565b610626614f06565b506001600160a01b03908116600090815260026020818152604092839020835160c0810185528154958616815263ffffffff600160a01b870481168285015260ff600160c01b88048116151583880152600160c81b9097049096161515606080830191909152855180820187526001840154909716875285518087018752948301546001600160701b038082168752600160701b9182900481168787015288860196909652865180880188526003850154808816825291909104909516858501528686019490945260808101959095528351928301845260048101546001600160801b038082168552600160801b9091041691830191909152600501549181019190915260a082015290565b7f000000000000000000000000000000000000000000000000000000000000000061075c81611dde565b811561078d57600061076d84611e0a565b90508281600401600101600082825461078691906154d2565b9091555050505b505050565b61079a611e47565b60408051808201909152828152602081018290526107b781611e72565b60006107c285611e0a565b8054909150600160c01b900460ff16156107ef57604051637952fbad60e11b815260040160405180910390fd5b60007f00000000000000000000000000000000000000000000000000000000000000006001600160a01b03166387ba006a6040518163ffffffff1660e01b8152600401602060405180830381865afa15801561084f573d6000803e3d6000fd5b505050506040513d601f19601f8201168201806040525081019061087391906154ea565b6040805160608101825260048501546001600160801b038082168352600160801b9091041660208201526005850154918101919091529091506108be90600090889085908786611e98565b60048201546001600160801b03168111156108ec5760405163bb55fd2760e01b815260040160405180910390fd5b60006108f784612322565b9050604051806060016040528061090b4390565b63ffffffff16815260200182815260200161092583612382565b905280516001858101805463ffffffff191663ffffffff909316929092179091556020808301518051600288018054928401516001600160701b039283166001600160e01b031994851617600160701b918416820217909155604095860151805160038b0180549290960151908416919094161792909116021790558454600160c01b60ff60c01b19909116178555905181906001600160a01b038a16907f162ed187f3ed3879ae360c5df2a0a5dcaac7a208a9d762c2cbbfb1f5fad8b81d90600090a450505050505050565b6001600160a01b038116600090815260026020818152604080842081516060808201845260048301546001600160801b038082168452600160801b909104168286015260058301548285015283519081018452600183015463ffffffff16815283518085018552838701546001600160701b038082168352600160701b918290048116838901528388019290925285518087018752600386015480841682529190910490911695810195909552928301939093529291610ab1916123dc565b6002811115610ac257610ac2615503565b149392505050565b610ad2611e47565b6000610add82611e0a565b9050610aed6000838360016124f4565b5050565b610b1560405180606001604052806000815260200160008152602001600081525090565b81610b1f81612518565b6000610b318187878760001984612539565b9050610b3c81612777565b60408051606080820183528351825283015160208201526080909201519082015295945050505050565b6001600160a01b038083166000908152600260209081526040808320805482516318160ddd60e01b8152925194959194610bf594889492909316926318160ddd92600480820193918290030181865afa158015610bc7573d6000803e3d6000fd5b505050506040513d601f19601f82011682018060405250810190610beb91906154ea565b6005840154612898565b9150505b92915050565b610c2360405180606001604052806000815260200160008152602001600081525090565b7f0000000000000000000000000000000000000000000000000000000000000000610c4d81611dde565b83610c5781612518565b83610c6181612518565b6000610c728a8a8a8a8a6001612539565b9050610c7d816128db565b60405180606001604052808260200151815260200182606001518152602001826080015181525094505050505095945050505050565b610cd760405180606001604052806000815260200160008152602001600081525090565b82610ce181612a17565b82610ceb81612518565b6001600160a01b03808616600090815260026020908152604080832081516060810183526004808301546001600160801b038082168452600160801b9091041682860152600583015482850152825484516318160ddd60e01b8152945193979296959216936318160ddd93818301939290918290030181865afa158015610d76573d6000803e3d6000fd5b505050506040513d601f19601f82011682018060405250810190610d9a91906154ea565b90506000610dad88838560400151612898565b90506000610dd38a8a84878960000160149054906101000a900463ffffffff1688612a3e565b905060405180606001604052808260c001518360e00151610df49190615519565b815260200182604001518360000151610e0d91906154d2565b8152602001826020015181525097505050505050505092915050565b60007f0000000000000000000000000000000000000000000000000000000000000000610e5581611dde565b85610e5f81612a17565b84610e6981612518565b84610e7381612518565b6000610e7e89611e0a565b604080516060810182526004808401546001600160801b038082168452600160801b90910416602080840191909152600585015483850152845484516318160ddd60e01b8152945195965092946000946001600160a01b03909416936318160ddd938181019392918290030181865afa158015610eff573d6000803e3d6000fd5b505050506040513d601f19601f82011682018060405250810190610f2391906154ea565b90506000610f368b838560400151612898565b9050808a1115610f5957604051633494a40d60e21b815260040160405180910390fd5b6000610f7d8d8d8d878960000160149054906101000a900463ffffffff1688612a3e565b9050610f8c8f8f8f8885612c98565b8454600160c01b900460ff1615610fd2576040805180820190915260048601546001600160801b038082168352600160801b909104166020820152610fd2908690613431565b519e9d5050505050505050505050505050565b61100960405180606001604052806000815260200160008152602001600081525090565b8161101381612518565b600061102481878787600180612539565b905061102f81612777565b604051806060016040528082602001518152602001826060015181526020018260800151815250925050509392505050565b6001546001600160a01b0316331461108c57604051634ca8886760e01b815260040160405180910390fd5b6001546110a1906001600160a01b0316613560565b565b6110ab611e47565b60006110b683611e0a565b8054909150821515600160c81b90910460ff161515036110d557505050565b805460ff60c81b1916600160c81b8315159081029190911782556040516001600160a01b038516907fa606e6917bc476eb72d24f486596af7f564fb7b50f73135c81c0e8e0553430cd90600090a3505050565b7f000000000000000000000000000000000000000000000000000000000000000061115281611dde565b60405163b5af090f60e01b81526001600160a01b0383811660048301527f0000000000000000000000000000000000000000000000000000000000000000169063b5af090f90602401602060405180830381865afa1580156111b8573d6000803e3d6000fd5b505050506040513d601f19601f820116820180604052508101906111dc9190615530565b6111f957604051630b094f2760e31b815260040160405180910390fd5b604051632b625f2360e01b81526001600160a01b0383811660048301526000917f000000000000000000000000000000000000000000000000000000000000000090911690632b625f23906024016020604051808303816000875af1158015611266573d6000803e3d6000fd5b505050506040513d601f19601f8201168201806040525081019061128a919061554d565b9050806001600160a01b03166379ba50976040518163ffffffff1660e01b8152600401600060405180830381600087803b1580156112c757600080fd5b505af11580156112db573d6000803e3d6000fd5b5050505060006040518060c00160405280836001600160a01b03168152602001600560009054906101000a900463ffffffff1663ffffffff1681526020016000151581526020016001151581526020016040518060600160405280600063ffffffff16815260200161134b6135ba565b81526020016113586135ba565b90528152604080516060810182526000808252602082810182905292820152910152905061138684826135e3565b60408082015190516000911515906001600160a01b038716907f162ed187f3ed3879ae360c5df2a0a5dcaac7a208a9d762c2cbbfb1f5fad8b81d908490a4836001600160a01b03167fa2d66c1e2cc4b2cc5daaabc06447542e989ed748a9fb22476b6c913dcc1c7f4b6000836020015160405161141692919063ffffffff92831681529116602082015260400190565b60405180910390a280606001511515846001600160a01b03167fa606e6917bc476eb72d24f486596af7f564fb7b50f73135c81c0e8e0553430cd60405160405180910390a350505050565b8161146b81612a17565b7f000000000000000000000000000000000000000000000000000000000000000061149581611dde565b6114ad846114a8368690038601866156fd565b6135e3565b6114ba60208401846150eb565b6001600160a01b03166379ba50976040518163ffffffff1660e01b8152600401600060405180830381600087803b1580156114f457600080fd5b505af1158015611508573d6000803e3d6000fd5b5050505050505050565b61151a611e47565b806115248161373c565b600061152f84611e0a565b805490915063ffffffff600160a01b90910481169084168103611553575050505050565b815463ffffffff60a01b1916600160a01b63ffffffff86811691820292909217845560408051928416835260208301919091526001600160a01b038716917fa2d66c1e2cc4b2cc5daaabc06447542e989ed748a9fb22476b6c913dcc1c7f4b910160405180910390a25050505050565b6000826000036115d557506000611692565b6001600160a01b038085166000908152600260209081526040808320805482516318160ddd60e01b81529251919516926318160ddd92600480820193918290030181865afa15801561162b573d6000803e3d6000fd5b505050506040513d601f19601f8201168201806040525081019061164f91906154ea565b9050600061165d82876157d0565b905061168c818361166e8882615519565b600587015461167d91906157d0565b61168790856154d2565b613766565b93505050505b9392505050565b60007f00000000000000000000000000000000000000000000000000000000000000006116c581611dde565b846116cf81612a17565b836116d981612518565b60006116e487611e0a565b8054909150600160c81b900460ff16611710576040516303a5be3f60e31b815260040160405180910390fd5b60058101548154604080516318160ddd60e01b815290516000926001600160a01b0316916318160ddd9160048281019260209291908290030181865afa15801561175e573d6000803e3d6000fd5b505050506040513d601f19601f8201168201806040525081019061178291906154ea565b90506000611791898385613835565b6040805160608101825260048701546001600160801b038082168352600160801b9091041660208201526005870154918101919091529091506117d48a856154d2565b600586015584546040516340c10f1960e01b81526001600160a01b038e8116600483015260248201859052909116906340c10f1990604401600060405180830381600087803b15801561182657600080fd5b505af115801561183a573d6000803e3d6000fd5b505050506119ba8d8c87886004016040518060600160405290816000820160009054906101000a90046001600160801b03166001600160801b03166001600160801b031681526020016000820160109054906101000a90046001600160801b03166001600160801b03166001600160801b031681526020016001820154815250506119338a6001016001016040518060400160405290816000820160009054906101000a90046001600160701b03166001600160701b03166001600160701b0316815260200160008201600e9054906101000a90046001600160701b03166001600160701b03166001600160701b031681525050613869565b7f00000000000000000000000000000000000000000000000000000000000000006001600160a01b03166387ba006a6040518163ffffffff1660e01b8152600401602060405180830381865afa158015611991573d6000803e3d6000fd5b505050506040513d601f19601f820116820180604052508101906119b591906154ea565b611e98565b8454600160c01b900460ff1615611a00576040805180820190915260048601546001600160801b038082168352600160801b909104166020820152611a00908690613431565b8a6001600160a01b03168c6001600160a01b03168e7fecb7e4cd1580472adaeba712b36acf94439b2e1760af55fedb61960ca4422af38d86604051611a4f929190918252602082015260400190565b60405180910390a4611aa38d8c611a6685876154d2565b6040805160608101825260048b01546001600160801b038082168352600160801b90910416602082015260058b01549181019190915285906138a5565b509b9a5050505050505050505050565b611ad760405180606001604052806000815260200160008152602001600081525090565b7f0000000000000000000000000000000000000000000000000000000000000000611b0181611dde565b83611b0b81612518565b83611b1581612518565b6000611b268a8a8a8a8a6000612539565b9050611b31816128db565b6040805160608082018352835182528301516020820152608090920151908201529998505050505050505050565b60606000611b6d600361393e565b905060008167ffffffffffffffff811115611b8a57611b8a61556a565b604051908082528060200260200182016040528015611bb3578160200160208202803683370190505b50905060005b82811015611c0857611bcc600382613948565b828281518110611bde57611bde6157ef565b6001600160a01b039092166020928302919091019091015280611c0081615805565b915050611bb9565b5092915050565b80611c1981612a17565b7f0000000000000000000000000000000000000000000000000000000000000000611c4381611dde565b6001600160a01b0380851660009081526002602052604090205416611c6785613954565b60405163f2fde38b60e01b81526001600160a01b03858116600483015282169063f2fde38b906024015b600060405180830381600087803b158015611cab57600080fd5b505af1158015611cbf573d6000803e3d6000fd5b505050505050505050565b6001600160a01b038083166000908152600260209081526040808320805482516318160ddd60e01b8152925194959194610bf594889492909316926318160ddd92600480820193918290030181865afa158015611d2b573d6000803e3d6000fd5b505050506040513d601f19601f82011682018060405250810190611d4f91906154ea565b6005840154613835565b611d61611e47565b6000546001600160a01b0390811690821603611d9057604051630a98f1f360e21b815260040160405180910390fd5b600180546001600160a01b0319166001600160a01b0392909216919091179055565b6000611dbe600361393e565b905090565b611dcb611e47565b80611dd58161373c565b610aed826139de565b336001600160a01b03821614611e0757604051634ca8886760e01b815260040160405180910390fd5b50565b6001600160a01b03808216600090815260026020526040812080549192909116610bf95760405163b0ce759160e01b815260040160405180910390fd5b6000546001600160a01b031633146110a157604051634ca8886760e01b815260040160405180910390fd5b611e7b81613a4f565b611e0757604051636a43f8d160e01b815260040160405180910390fd5b6000611ecd6001600160a01b0387167f0000000000000000000000000000000000000000000000000000000000000000613a6c565b905080600003611eea57611ee487878760026124f4565b5061231a565b600160408051606081018252600188015463ffffffff1681528151808301835260028901546001600160701b038082168352600160701b918290048116602084810191909152808501939093528451808601865260038c0154808316825292909204169181019190915291810191909152611f669086906123dc565b6002811115611f7757611f77615503565b03611f82575061231a565b611f8b83613a4f565b611f9c57611ee487878760026124f4565b604051638d0c782760e01b81526001600160a01b0387811660048301526000916120439184917f000000000000000000000000000000000000000000000000000000000000000090911690638d0c782790602401602060405180830381865afa15801561200d573d6000803e3d6000fd5b505050506040513d601f19601f8201168201806040525081019061203191906154ea565b87516001600160801b03168787613b10565b805190915061205357505061231a565b80602001516000036120735761206c88888860026124f4565b505061231a565b84600001516001600160801b031681602001511115612145577f00000000000000000000000000000000000000000000000000000000000000006001600160a01b03166371c0feb7898988600001516001600160801b031685602001516120da9190615519565b6040516001600160e01b031960e086901b16815260048101939093526001600160a01b0390911660248301526044820152606401600060405180830381600087803b15801561212857600080fd5b505af115801561213c573d6000803e3d6000fd5b50505050612213565b84600001516001600160801b031681602001511015612213577f00000000000000000000000000000000000000000000000000000000000000006001600160a01b0316631ebda06d8989846020015189600001516001600160801b03166121ac9190615519565b6040516001600160e01b031960e086901b16815260048101939093526001600160a01b0390911660248301526044820152606401600060405180830381600087803b1580156121fa57600080fd5b505af115801561220e573d6000803e3d6000fd5b505050505b600061222c826020015186602001518760000151613766565b9050600060405180606001604052806122488560200151613bef565b6001600160801b0316815260200161225f84613bef565b6001600160801b0390811682526040808b01516020938401528351848401518316600160801b029216919091176004808d01919091558382015160058d01558b5482516318160ddd60e01b81529251949550612315948f948f946001600160a01b03909316936318160ddd938082019391908290030181865afa1580156122ea573d6000803e3d6000fd5b505050506040513d601f19601f8201168201806040525081019061230e91906154ea565b8a856138a5565b505050505b505050505050565b60408051808201909152600080825260208201526000612349836001600160701b03613c60565b9050604051806040016040528082600001516001600160701b0316815260200182602001516001600160701b0316815250915050919050565b6040805180820190915260008082526020820152604080518082019091526020838101516001600160701b03908116835284511690820181905215155b610bf957604051630d38a7e760e11b815260040160405180910390fd5b6040805180820190915282516001600160801b039081168252602080850151909116818301528201516000919061241282613a4f565b1580612424575061242281613cef565b155b1561243457600092505050610bf9565b600061243f83613d1e565b604086015190915061245082613a4f565b1580612462575061246081613cef565b155b15612474576000945050505050610bf9565b4363ffffffff16866000015163ffffffff16146124a4576124958385613d53565b92506124a18183613d53565b90505b6124b96124b084613869565b85612710613dc5565b80156124d557506124d56124cc82613869565b83612710613dc5565b156124e7576002945050505050610bf9565b5060019695505050505050565b6004820154612512908590859085906001600160801b031685613e67565b50505050565b80600003611e0757604051637c946ed760e01b815260040160405180910390fd5b6125ba604051806101a00160405280600081526020016000815260200160008152602001600081526020016000815260200160008152602001600081526020016000815260200160006001600160a01b03168152602001600015158152602001600015158152602001600063ffffffff168152602001600080191681525090565b6001600160a01b038681167f00000000000000000000000000000000000000000000000000000000000000008216908114918716148180156125fa575080155b1561261c5760016101208401526001600160a01b038716610100840152612662565b811580156126275750805b156126495760006101208401526001600160a01b038816610100840152612662565b60405163b0ce759160e01b815260040160405180910390fd5b6000612672846101000151611e0a565b8054909150600160c01b900460ff1661269e5760405163bcb8b8fb60e01b815260040160405180910390fd5b61018084018a9052841580156101408601526126bc578684526126c4565b602084018790525b60408481018790528154600160a01b900463ffffffff16610160860152805160608101825260048301546001600160801b038082168352600160801b909104166020820152600583015491810191909152610120850151156127425780516001600160801b0390811660a087015260208201511660c0860152612760565b60208101516001600160801b0390811660a087015281511660c08601525b6040015160e0850152509198975050505050505050565b6040805180820190915260008082526020820152816101400151156127e8576127b38260a001518360c001518461016001518560000151613fce565b805160208401819052604084015191925010156127e35760405163f31ee7a560e01b815260040160405180910390fd5b612831565b6128058260a001518360c001518461016001518560200151614060565b8051808452604084015191925011156128315760405163681c2ccd60e11b815260040160405180910390fd5b60208101516060830152815160a08301805161284e9083906154d2565b905250602082015160c083018051612867908390615519565b9052506101208201511561288f5781606001518260e00181815161288b91906154d2565b9052505b610aed826140fc565b6000826000036128c85781156128c157604051636a9c61e160e01b815260040160405180910390fd5b5082611692565b6128d3848385613766565b949350505050565b6101008101516001600160a01b0316600090815260026020908152604091829020825160608101845260048201546001600160801b038082168352600160801b9091048116828501908152600584015483870152855180870190965282518216865251169284019290925291612952908390613431565b61295b83612777565b6000604051806060016040528061298986610120015161297f578660c00151613bef565b8660a00151613bef565b6001600160801b031681526020016129b88661012001516129ae578660a00151613bef565b8660c00151613bef565b6001600160801b031681526020018560e0015181525090506129e68461018001518561010001518484614248565b805160208201516001600160801b03908116600160801b029116176004840155604001516005909201919091555050565b6001600160a01b038116611e075760405163e6c4247b60e01b815260040160405180910390fd5b612a46614f5e565b60208401516000906001600160801b0316612a8a6001600160a01b038a167f0000000000000000000000000000000000000000000000000000000000000000613a6c565b612a949190615519565b90506000612b8e86600001516001600160801b031687602001516001600160801b0316848960400151612af97f00000000000000000000000000000000000000000000000000000000000000008f6001600160a01b0316613a6c90919063ffffffff16565b8a63ffffffff167f00000000000000000000000000000000000000000000000000000000000000006001600160a01b0316632aac012c6040518163ffffffff1660e01b8152600401602060405180830381865afa158015612b5e573d6000803e3d6000fd5b505050506040513d601f19601f82011682018060405250810190612b82919061581e565b63ffffffff168e61436c565b905060405180610180016040528082606001518152602001826080015181526020018260a0015181526020018260400151815260200182600001518152602001826020015181526020018260c001518152602001888152602001898152602001858152602001826040015160200151612c24576040830151516020890151612c1f91906001600160801b03166154d2565b612c42565b6040830151516020890151612c4291906001600160801b0316615519565b8152602001826000015160200151612c71578251518851612c6c91906001600160801b03166154d2565b612c89565b8251518851612c8991906001600160801b0316615519565b90529998505050505050505050565b60408051606080820183526004850180546001600160801b038082168552600160801b909104166020808501919091526005870154848601528451928301855260018088015463ffffffff1684528551808701875260028901546001600160701b038082168352600160701b91829004811683860152868501929092528751808901895260038b0154808416825291909104909116928101929092529483015292612d4383836123dc565b6002811115612d5457612d54615503565b03612d72576040516301a6272960e41b815260040160405180910390fd5b8454610100850151604051630852cd8d60e31b81526001600160a01b03909216916342966c6891612da99160040190815260200190565b600060405180830381600087803b158015612dc357600080fd5b505af1158015612dd7573d6000803e3d6000fd5b505050506000846101000151856101200151612df39190615519565b9050612e09846001015482876101200151613766565b6001850155610140850151612e1d90613bef565b84546001600160801b03918216600160801b029116178455610160850151612e4490613bef565b84546fffffffffffffffffffffffffffffffff19166001600160801b039190911617845560a08501515115612f20578460a0015160200151612e8857612e8861583b565b60a085015151604051631ebda06d60e01b8152600481018b90526001600160a01b03898116602483015260448201929092527f000000000000000000000000000000000000000000000000000000000000000090911690631ebda06d906064015b600060405180830381600087803b158015612f0357600080fd5b505af1158015612f17573d6000803e3d6000fd5b50505050613046565b608085015151156130465784608001516020015115612f8d57608085015151604051631538c64b60e31b815260048101919091527f00000000000000000000000000000000000000000000000000000000000000006001600160a01b03169063a9c6325890602401612ee9565b6080850151516040516340c10f1960e01b81526001600160a01b037f000000000000000000000000000000000000000000000000000000000000000016916340c10f1991613013917f0000000000000000000000000000000000000000000000000000000000000000916004016001600160a01b03929092168252602082015260400190565b600060405180830381600087803b15801561302d57600080fd5b505af1158015613041573d6000803e3d6000fd5b505050505b6020850151156130db5760208501516040516340c10f1960e01b81526001600160a01b038a8116600483015260248201929092527f0000000000000000000000000000000000000000000000000000000000000000909116906340c10f1990604401600060405180830381600087803b1580156130c257600080fd5b505af11580156130d6573d6000803e3d6000fd5b505050505b6040850151156131b1576040858101519051631c20fadd60e01b81526001600160a01b0389811660048301527f00000000000000000000000000000000000000000000000000000000000000008116602483015260448201929092527f000000000000000000000000000000000000000000000000000000000000000090911690631c20fadd90606401600060405180830381600087803b15801561317f57600080fd5b505af1158015613193573d6000803e3d6000fd5b505050508460400151856000018181516131ad91906154d2565b9052505b845115613248578451604051631c20fadd60e01b81526001600160a01b0389811660048301528a8116602483015260448201929092527f000000000000000000000000000000000000000000000000000000000000000090911690631c20fadd90606401600060405180830381600087803b15801561322f57600080fd5b505af1158015613243573d6000803e3d6000fd5b505050505b8461014001516000036132d45761325d6135ba565b80516002880180546020909301516001600160701b03908116600160701b026001600160e01b031990941692169190911791909117905561329c6135ba565b80516003880180546020909301516001600160701b03908116600160701b026001600160e01b03199094169216919091179190911790555b7f00000000000000000000000000000000000000000000000000000000000000006001600160a01b03166387ba006a6040518163ffffffff1660e01b8152600401602060405180830381865afa158015613332573d6000803e3d6000fd5b505050506040513d601f19601f8201168201806040525081019061335691906154ea565b8561016001511015613375576133758988888861016001516002613e67565b84516101008601516040808801516020808a015160c08b015184519687529186019490945291840152606083019190915260808201526001600160a01b0380891691908a16908b907feab8ac9e9478a4b3c37a794ecef629b8a8bbcd96f9eaeac8ed26054d144da52d9060a00160405180910390a46040805160608101825260048801546001600160801b038082168352600160801b909104166020820152600588015491810191909152611cbf908a908990849087906138a5565b6001820154439063ffffffff80831691161461078d576040805160608101825263ffffffff83168152815180830190925260028501546001600160701b038082168452600160701b909104166020838101919091529091908201906134969085613d53565b81526040805180820190915260038601546001600160701b038082168352600160701b90910416602082810191909152909101906134dc906134d786613d1e565b613d53565b9052805160018501805463ffffffff191663ffffffff9092169190911790556020808201518051600287018054928401516001600160701b039283166001600160e01b031994851617600160701b91841682021790915560409094015180516003909801805491909401519782169216919091179516909102939093179092555050565b600080546001600160a01b038381166001600160a01b031980841682178555600180549091169055604051919092169283917f343765429aea5a34b3ff6a3785a98a5abb2597aca87bfbb58632c173d585373a9190a35050565b604080518082018252600080825260209182018190528251808401909352825260019082015290565b6135ee6003836145ee565b61360b5760405163119b4fd360e11b815260040160405180910390fd5b6001600160a01b039182166000908152600260208181526040928390208451815486840151878701516060890151939099166001600160c01b031990921691909117600160a01b63ffffffff928316021761ffff60c01b1916600160c01b9815159890980260ff60c81b191697909717600160c81b911515919091021781556080850151805160018301805463ffffffff191691909816179096558582015180519382018054918401516001600160701b039586166001600160e01b031993841617600160701b91871682021790915596850151805160038401805492860151918716929093169190911794169096029290921790945560a0909201518051938101516001600160801b03948516600160801b95909116949094029390931760048301559190910151600590910155565b620f424063ffffffff82161115611e07576040516358d620b360e01b815260040160405180910390fd5b6000806137738585614603565b80519091506000036137975782816020015161378f9190615867565b915050611692565b805183116137b857604051631a93c68960e11b815260040160405180910390fd5b60006137c586868661468a565b905060006137d383836146a5565b80519091506000036137f9578481602001516137ef9190615867565b9350505050611692565b600085810386169061380b838361472a565b9050600061382161381c848a615867565b614761565b90508181025b9a9950505050505050505050565b60008260000361385e5781156128c157604051636a9c61e160e01b815260040160405180910390fd5b6128d384848461478c565b6040805180820182526000808252602091820152815180830190925282516001600160701b039081168352928101519092169181019190915290565b6138b185858484614248565b8160400151816040015114613937576001600160a01b038416857f67c4863f17da9847c57c9fa043e63a0ddf4f5a86fd63a6f71ea69057a11c411a613916837f0000000000000000000000000000000000000000000000000000000000000000613a6c565b60408086015181519283526020830152810187905260600160405180910390a35b5050505050565b6000610bf9825490565b600061169283836147dc565b61395f600382614806565b61397c5760405163b0ce759160e01b815260040160405180910390fd5b6001600160a01b03166000908152600260208190526040822080546001600160d01b031916815560018101805463ffffffff1916905590810180546001600160e01b031990811690915560038201805490911690556004810182905560050155565b60055463ffffffff90811690821681036139f6575050565b6005805463ffffffff191663ffffffff84811691821790925560408051928416835260208301919091527fb804b0ec3f0ea43004870df377170ce44cb789adca16d23286e337605558117f910160405180910390a15050565b6000613a5e8260200151151590565b8015610bf957505051151590565b600073eeeeeeeeeeeeeeeeeeeeeeeeeeeeeeeeeeeeeeee6001600160a01b03841603613aa357506001600160a01b03811631610bf9565b826040516370a0823160e01b81526001600160a01b03848116600483015291909116906370a0823190602401602060405180830381865afa158015613aec573d6000803e3d6000fd5b505050506040513d601f19601f8201168201806040525081019061169291906154ea565b60408051808201909152600080825260208201526000613b4b613b3c8886600001518760200151613766565b613b4688886154d2565b61481b565b905082811015613b71575050604080518082019091526001815260006020820152613be6565b84600003613bb4576000613b866002856157d0565b905081811115613bad57505060408051808201909152600080825260208201529050613be6565b9050613bcd565b848110613bcd57613bca81613b466002886157d0565b90505b6040805180820190915260018152602081019190915290505b95945050505050565b60006001600160801b03821115613c5c5760405162461bcd60e51b815260206004820152602760248201527f53616665436173743a2076616c756520646f65736e27742066697420696e20316044820152663238206269747360c81b606482015260840160405180910390fd5b5090565b60408051808201909152600080825260208201526000613c91613c8b85600001518660200151614831565b84614841565b905060006040518060400160405280838760000151613cb09190615867565b8152602001838760200151613cc59190615867565b81525090508060200151600003610bf557604051630d38a7e760e11b815260040160405180910390fd5b6000613d0782602001516001600160701b0316151590565b8015610bf9575050516001600160701b0316151590565b6040805180820190915260008082526020820152604080518082019091526020838101518252835190820181905215156123bf565b604080518082019091526000808252602082015282516020830151613d81916001600160701b0316906157d0565b60208401518351613d9b916001600160701b0316906157d0565b03613da7575081610bf9565b611692613dc0613db685613869565b8460046001614873565b612322565b82516000908190613df790613ddd85620f424061587b565b63ffffffff168660200151613df291906157d0565b614603565b90506000613e1c8660200151620f424063ffffffff168760000151613df291906157d0565b8651909150600090613e4a90613e3587620f42406158a0565b63ffffffff168860200151613df291906157d0565b9050613e56838361490f565b801561168c575061168c828261490f565b600060048401819055604080516060810190915290815260208101613e8a6135ba565b8152602001613e976135ba565b9052805160018501805463ffffffff191663ffffffff9092169190911790556020808201518051600287018054928401516001600160701b039283166001600160e01b031994851617600160701b91841682021790915560409094015180516003890180549290950151908316919093161791169092029190911790558254600160c01b900460ff1615613f6c57825460ff60c01b1916835560405160ff8216906000906001600160a01b038716907f162ed187f3ed3879ae360c5df2a0a5dcaac7a208a9d762c2cbbfb1f5fad8b81d908390a45b811561393757604051631ebda06d60e01b8152600481018690526001600160a01b038581166024830152604482018490527f00000000000000000000000000000000000000000000000000000000000000001690631ebda06d90606401611c91565b6040805180820190915260008082526020820152841580613fed575083155b1561400b5760405163bb55fd2760e01b815260040160405180910390fd5b600061401c8584611687818a6154d2565b905060006140348263ffffffff8716620f4240613766565b90506040518060400160405280828461404d9190615519565b8152602001919091529695505050505050565b6040805180820190915260008082526020820152846000036140955760405163bb55fd2760e01b815260040160405180910390fd5b60006140ba8363ffffffff86166140af87620f424061587b565b63ffffffff16613766565b905060006140c882856154d2565b905060006140db8883611687818b615519565b60408051808201909152908152602081019390935250909695505050505050565b60007f00000000000000000000000000000000000000000000000000000000000000006001600160a01b0316636161b6266040518163ffffffff1660e01b8152600401602060405180830381865afa15801561415c573d6000803e3d6000fd5b505050506040513d601f19601f82011682018060405250810190614180919061581e565b90508063ffffffff16600003614194575050565b60006141b483606001518363ffffffff16620f424063ffffffff16613766565b9050808360c0018181516141c89190615519565b9052506101208301516141e15760809092019190915250565b6141f68360c001518460a00151600084613fce565b51608084015260c0830180518291906142109083906154d2565b905250608083015160a084018051614229908390615519565b90525060e083018051829190614240908390615519565b905250505050565b815181516001600160801b039081169116146142da5781518151604080516001600160801b0393841681529290911660208301526001600160a01b037f00000000000000000000000000000000000000000000000000000000000000008116929086169187917f6e96dc5343d067ec486a9920e0304c3610ed05c65e45cc029d9b9fe7ecfa7620910160405180910390a45b81602001516001600160801b031681602001516001600160801b03161461251257826001600160a01b0316836001600160a01b0316857f6e96dc5343d067ec486a9920e0304c3610ed05c65e45cc029d9b9fe7ecfa76208560200151856020015160405161435e9291906001600160801b0392831681529116602082015260400190565b60405180910390a450505050565b614374615016565b6001600160801b0389118061438f57506001600160801b0388115b806143a057506001600160801b0387115b806143b157506001600160801b0386115b806143c257506001600160801b0385115b806143cf5750620f424084115b806143dc5750620f424083115b806143e657508582115b15614404576040516318b103bd60e21b815260040160405180910390fd5b6000620f42406144148582615519565b61441e90856157d0565b6144289190615867565b9050614434888a6154d2565b620f42406144428682615519565b61444c908a6157d0565b6144569190615867565b1115614557576000614468898b6154d2565b620f42406144768782615519565b614480908b6157d0565b61448a9190615867565b6144949190615519565b905060006144a28a8c6154d2565b6144ac908a615519565b90506144ba8b8b8b88614923565b80156144d057506144d08b8a84848b8b8b61494d565b156144eb576144e48c8c8b858b8a896149af565b9350614550565b8b1561451d576144fe8c8c8c8c87614a88565b935061450e8c8c8b84878d614b09565b60a08601526080850152614550565b886145288b856157d0565b6145329190615867565b60608501526145458c8c8b84878d614b09565b60a086015260808501525b50506145d2565b600061456c6145668a8c6154d2565b89614b7e565b905060008111801561458557506145858a8a8a87614923565b801561459a575061459a8a8983898989614b98565b156145b6576145af8b8b8a848a8a8a89614c22565b92506145d0565b8a156145c8576145af8b8b8b85614cd0565b606083018290525b505b6145dc8184615519565b60c08301525098975050505050505050565b6000611692836001600160a01b038416614d41565b604080518082019091526000808252602082015260006146238484614d90565b905083830280821061465857604051806040016040528082846146469190615519565b81526020018281525092505050610bf9565b6040518060400160405280600161466f8585900390565b6146799190615519565b815260200191909152949350505050565b6000818061469a5761469a615851565b838509949350505050565b6040805180820190915260008082526020820152818360200151106146f2576040518060400160405280846000015181526020018385602001516146e99190615519565b90529050610bf9565b60405180604001604052806001856000015161470e9190615519565b8152602001614721856020015185900390565b90529392505050565b60008061474261473c84808403615867565b60010190565b90508284602001516147549190615867565b8451820217949350505050565b60006001815b6008811015611c0857838202600203820291508061478481615805565b915050614767565b60008061479a858585613766565b905060006147a986868661468a565b11156128d35760001981106147d157604051631a93c68960e11b815260040160405180910390fd5b61378f8160016154d2565b60008260000182815481106147f3576147f36157ef565b9060005260206000200154905092915050565b6000611692836001600160a01b038416614d9f565b600081831061482a5781611692565b5090919050565b60008183101561482a5781611692565b600061484d82846158c8565b1561485957600161485c565b60005b60ff166148698385615867565b61169291906154d2565b6040805180820190915260008082526020820152604051806040016040528083866000015188602001516148a791906157d0565b6148b191906157d0565b6020870151885187916148c3916157d0565b6148cd91906157d0565b6148d791906154d2565b81526020016148e684866154d2565b866020015188602001516148fa91906157d0565b61490491906157d0565b905295945050505050565b600061491b8383614e92565b159392505050565b600061492f8284615519565b61493990856157d0565b61494383876157d0565b1095945050505050565b60008061497b61495d898b6157d0565b614967868b6157d0565b614971888b6157d0565b613df291906154d2565b905060006149a361498c858a6157d0565b61499988620f4240615519565b613df2908a6157d0565b90506138278282614e92565b6149b7615016565b60006149c685620f4240615519565b6149d090876157d0565b905060006149ee896149e5620f42408b6157d0565b87856001614eba565b9050614a33614a07614a00878d6157d0565b8484613766565b604080518082019091526000808252602082015250604080518082019091529081526000602082015290565b8352614a6f614a4386898b613766565b604080518082019091526000808252602082015250604080518082019091529081526001602082015290565b6040840152505060608101919091529695505050505050565b614a90615016565b6000614ab8614a9f87856157d0565b614aa98587615519565b614ab390886157d0565b614b7e565b9050614acc614a438883611687888b6157d0565b8083526020830152614ae1614a438583615867565b6040830152614afa83614af487896154d2565b86613766565b60608301525095945050505050565b60008080614b1786866157d0565b90506000614b2588866157d0565b905080821115614b605760008a11614b3e576000614b56565b614b568a614b4c8385615519565b6116878b8d6157d0565b9350849250614b71565b60009350614b6e8883615867565b92505b5050965096945050505050565b6000818311614b8e576000611692565b6116928284615519565b600080614bd4614ba8888a6157d0565b620f4240614bb6878b6157d0565b614bc0898b6157d0565b614bca91906154d2565b613df291906157d0565b90506000614c09614be585896157d0565b614bf288620f4240615519565b614bfc888c6157d0565b614bc0620f42408c6157d0565b9050614c158282614e92565b9998505050505050505050565b614c2a615016565b6000614c3685896157d0565b614c43620f4240896157d0565b614c4d91906154d2565b90506000614c8d8a614c6289620f4240615519565b614c6c908c6157d0565b87614c7a8b620f4240615519565b614c8490876157d0565b620f4240614ee5565b9050614c9f614a43614a00878e6157d0565b8352614cb6614a078684611687620f42408e6157d0565b604084015250506060810191909152979650505050505050565b614cd8615016565b6000614ce48385614b7e565b9050614cf4614a43878388613766565b8083526020830152614d2c81604080518082019091526000808252602082015250604080518082019091529081526001602082015290565b60408301525060608101919091529392505050565b6000818152600183016020526040812054614d8857508154600181810184556000848152602080822090930184905584548482528286019093526040902091909155610bf9565b506000610bf9565b60006000198284099392505050565b60008181526001830160205260408120548015614e88576000614dc3600183615519565b8554909150600090614dd790600190615519565b9050818114614e3c576000866000018281548110614df757614df76157ef565b9060005260206000200154905080876000018481548110614e1a57614e1a6157ef565b6000918252602080832090910192909255918252600188019052604090208390555b8554869080614e4d57614e4d6158dc565b600190038181906000526020600020016000905590558560010160008681526020019081526020016000206000905560019350505050610bf9565b6000915050610bf9565b8051825160009110806116925750815183511480156116925750506020908101519101511190565b6000614ec7848484613766565b614ed186886157d0565b614edb9190615519565b9695505050505050565b6000614ef2848484613766565b614efc86886157d0565b614edb91906154d2565b6040805160c081018252600080825260208201819052918101829052606081019190915260808101614f36615085565b815260408051606081018252600080825260208281018290529282015291015290565b905290565b604051806101800160405280600081526020016000815260200160008152602001614f9e6040518060400160405280600081526020016000151581525090565b8152602001614fc26040518060400160405280600081526020016000151581525090565b8152602001614fe66040518060400160405280600081526020016000151581525090565b81526020016000815260200160008152602001600081526020016000815260200160008152602001600081525090565b6040805161012081018252600060e082018181526101008301829052825282518084018452818152602080820183905280840191909152835180850185528281529081019190915290918201908152602001600081526020016000815260200160008152602001600081525090565b6040518060600160405280600063ffffffff1681526020016150b7604080518082019091526000808252602082015290565b8152602001614f59604080518082019091526000808252602082015290565b6001600160a01b0381168114611e0757600080fd5b6000602082840312156150fd57600080fd5b8135611692816150d6565b81516001600160a01b0316815260208083015163ffffffff908116828401526040808501511515908401526060808501511515908401526080808501518051909216908401528082015180516001600160701b0390811660a08601529281015190921660c0840152610180830191506040015180516001600160701b0390811660e08501526020820151166101008401525060a083015180516001600160801b039081166101208501526020820151166101408401526040810151610160840152611c08565b600080604083850312156151e157600080fd5b82356151ec816150d6565b946020939093013593505050565b60008060006060848603121561520f57600080fd5b833561521a816150d6565b95602085013595506040909401359392505050565b60008060006060848603121561524457600080fd5b833561524f816150d6565b9250602084013561525f816150d6565b929592945050506040919091013590565b81518152602080830151908201526040808301519082015260608101610bf9565b600080600080600060a086880312156152a957600080fd5b8535945060208601356152bb816150d6565b935060408601356152cb816150d6565b94979396509394606081013594506080013592915050565b8015158114611e0757600080fd5b6000806040838503121561530457600080fd5b823561530f816150d6565b9150602083013561531f816152e3565b809150509250929050565b6000808284036101a081121561533f57600080fd5b833561534a816150d6565b9250610180601f198201121561535f57600080fd5b506020830190509250929050565b63ffffffff81168114611e0757600080fd5b6000806040838503121561539257600080fd5b823561539d816150d6565b9150602083013561531f8161536d565b600080600080608085870312156153c357600080fd5b8435935060208501356153d5816150d6565b925060408501356153e5816150d6565b9396929550929360600135925050565b81516001600160801b039081168252602080840151909116908201526040808301519082015260608101610bf9565b6020808252825182820181905260009190848201906040850190845b818110156154655783516001600160a01b031683529284019291840191600101615440565b50909695505050505050565b6000806040838503121561548457600080fd5b823561548f816150d6565b9150602083013561531f816150d6565b6000602082840312156154b157600080fd5b81356116928161536d565b634e487b7160e01b600052601160045260246000fd5b600082198211156154e5576154e56154bc565b500190565b6000602082840312156154fc57600080fd5b5051919050565b634e487b7160e01b600052602160045260246000fd5b60008282101561552b5761552b6154bc565b500390565b60006020828403121561554257600080fd5b8151611692816152e3565b60006020828403121561555f57600080fd5b8151611692816150d6565b634e487b7160e01b600052604160045260246000fd5b60405160c0810167ffffffffffffffff811182821017156155b157634e487b7160e01b600052604160045260246000fd5b60405290565b6040516060810167ffffffffffffffff811182821017156155b157634e487b7160e01b600052604160045260246000fd5b80356001600160701b03811681146155ff57600080fd5b919050565b60006040828403121561561657600080fd5b6040516040810181811067ffffffffffffffff8211171561564757634e487b7160e01b600052604160045260246000fd5b604052905080615656836155e8565b8152615664602084016155e8565b60208201525092915050565b80356001600160801b03811681146155ff57600080fd5b60006060828403121561569957600080fd5b6040516060810181811067ffffffffffffffff821117156156ca57634e487b7160e01b600052604160045260246000fd5b6040529050806156d983615670565b81526156e760208401615670565b6020820152604083013560408201525092915050565b600081830361018081121561571157600080fd5b615719615580565b8335615724816150d6565b815260208401356157348161536d565b60208201526040840135615747816152e3565b6040820152606084013561575a816152e3565b606082015260a0607f198301121561577157600080fd5b6157796155b7565b915060808401356157898161536d565b82526157988560a08601615604565b60208301526157aa8560e08601615604565b60408301528160808201526157c3856101208601615687565b60a0820152949350505050565b60008160001904831182151516156157ea576157ea6154bc565b500290565b634e487b7160e01b600052603260045260246000fd5b600060018201615817576158176154bc565b5060010190565b60006020828403121561583057600080fd5b81516116928161536d565b634e487b7160e01b600052600160045260246000fd5b634e487b7160e01b600052601260045260246000fd5b60008261587657615876615851565b500490565b600063ffffffff83811690831681811015615898576158986154bc565b039392505050565b600063ffffffff8083168185168083038211156158bf576158bf6154bc565b01949350505050565b6000826158d7576158d7615851565b500690565b634e487b7160e01b600052603160045260246000fdfea164736f6c634300080d000a",
  "devdoc": {
    "details": "Pool Collection contract notes: - the address of reserve token serves as the pool unique ID in both contract functions and events",
    "events": {
      "DefaultTradingFeePPMUpdated(uint32,uint32)": {
        "details": "triggered when the default trading fee is updated"
      },
      "DepositingEnabled(address,bool)": {
        "details": "triggered when depositing into a specific pool is enabled/disabled"
      },
      "TokensDeposited(bytes32,address,address,uint256,uint256)": {
        "details": "triggered when new liquidity is deposited into a pool"
      },
      "TokensWithdrawn(bytes32,address,address,uint256,uint256,uint256,uint256,uint256)": {
        "details": "triggered when existing liquidity is withdrawn from a pool"
      },
      "TotalLiquidityUpdated(bytes32,address,uint256,uint256,uint256)": {
        "details": "triggered when the total liquidity in a pool is updated"
      },
      "TradingEnabled(address,bool,uint8)": {
        "details": "triggered when trading in a specific pool is enabled/disabled"
      },
      "TradingFeePPMUpdated(address,uint32,uint32)": {
        "details": "triggered when a specific pool's trading fee is updated"
      },
      "TradingLiquidityUpdated(bytes32,address,address,uint256,uint256)": {
        "details": "triggered when the trading liquidity in a pool is updated"
      }
    },
    "kind": "dev",
    "methods": {
      "acceptOwnership()": {
        "details": "used by a new owner to accept an ownership transfer"
      },
      "constructor": {
        "details": "initializes a new PoolCollection contract"
      },
      "createPool(address)": {
        "details": "creates a new pool requirements: - the caller must be the network contract - the pool should have been whitelisted - the pool isn't already defined in the collection"
      },
      "defaultTradingFeePPM()": {
        "details": "returns the default trading fee (in units of PPM)"
      },
      "depositFor(bytes32,address,address,uint256)": {
        "details": "deposits base token liquidity on behalf of a specific provider and returns the respective pool token amount requirements: - the caller must be the network contract - assumes that the base token has been already deposited in the vault"
      },
      "depositingEnabled(address)": {
        "details": "returns whether depositing is enabled"
      },
      "disableTrading(address)": {
        "details": "disables trading in a given pool requirements: - the caller must be the owner of the contract"
      },
      "enableDepositing(address,bool)": {
        "details": "enables/disables depositing into a given pool requirements: - the caller must be the owner of the contract"
      },
      "enableTrading(address,uint256,uint256)": {
        "details": "enables trading in a given pool, by providing the funding rate as two virtual balances, and updates its trading liquidity please note that the virtual balances should be derived from token prices, normalized to the smallest unit of tokens. For example: - if the price of one (10**18 wei) BNT is $X and the price of one (10**18 wei) TKN is $Y, then the virtual balances   should represent a ratio of X to Y - if the price of one (10**18 wei) BNT is $X and the price of one (10**6 wei) USDC is $Y, then the virtual balances   should represent a ratio of X to Y*10**12 requirements: - the caller must be the owner of the contract"
      },
      "isPoolStable(address)": {
        "details": "returns whether the pool is stable"
      },
      "isPoolValid(address)": {
        "details": "returns whether a pool is valid"
      },
      "migratePoolIn(address,(address,uint32,bool,bool,(uint32,(uint112,uint112),(uint112,uint112)),(uint128,uint128,uint256)))": {
        "details": "migrates a pool to this pool collection requirements: - the caller must be the pool migrator contract"
      },
      "migratePoolOut(address,address)": {
        "details": "migrates a pool from this pool collection requirements: - the caller must be the pool migrator contract"
      },
      "newOwner()": {
        "details": "returns the address of the new owner candidate"
      },
      "onFeesCollected(address,uint256)": {
        "details": "notifies the pool of accrued fees requirements: - the caller must be the network contract"
      },
      "owner()": {
        "details": "returns the address of the current owner"
      },
      "poolCount()": {
        "details": "returns the number of all the pools which are managed by this pool collection"
      },
      "poolData(address)": {
        "details": "returns specific pool's data notes: - there is no guarantee that this function will remains forward compatible, so please avoid relying on it and   rely on specific getters from the IPoolCollection interface instead"
      },
      "poolLiquidity(address)": {
        "details": "returns the overall liquidity in the pool"
      },
      "poolToken(address)": {
        "details": "returns the pool token of the pool"
      },
      "poolTokenAmountToBurn(address,uint256,uint256)": {
        "details": "returns the number of pool token to burn in order to increase everyone's underlying value by the specified amount"
      },
      "poolTokenToUnderlying(address,uint256)": {
        "details": "converts the specified pool token amount to the underlying base token amount"
      },
      "poolType()": {
        "details": "returns the type of the pool"
      },
      "pools()": {
        "details": "returns all the pools which are managed by this pool collection"
      },
      "setDefaultTradingFeePPM(uint32)": {
        "details": "sets the default trading fee (in units of PPM) requirements: - the caller must be the owner of the contract"
      },
      "setTradingFeePPM(address,uint32)": {
        "details": "sets the trading fee of a given pool requirements: - the caller must be the owner of the contract"
      },
      "tradeBySourceAmount(bytes32,address,address,uint256,uint256)": {
        "details": "performs a trade by providing the source amount and returns the target amount and the associated fee requirements: - the caller must be the network contract"
      },
      "tradeByTargetAmount(bytes32,address,address,uint256,uint256)": {
        "details": "performs a trade by providing the target amount and returns the required source amount and the associated fee requirements: - the caller must be the network contract"
      },
      "tradeInputAndFeeByTargetAmount(address,address,uint256)": {
        "details": "returns the input amount and fee when trading by providing the target amount"
      },
      "tradeOutputAndFeeBySourceAmount(address,address,uint256)": {
        "details": "returns the output amount and fee when trading by providing the source amount"
      },
      "tradingEnabled(address)": {
        "details": "returns whether trading is enabled"
      },
      "tradingFeePPM(address)": {
        "details": "returns the trading fee (in units of PPM)"
      },
      "transferOwnership(address)": {
        "details": "allows transferring the contract ownership requirements: - the caller must be the owner of the contract - the new owner still needs to accept the transfer"
      },
      "underlyingToPoolToken(address,uint256)": {
        "details": "converts the specified underlying base token amount to pool token amount"
      },
      "withdraw(bytes32,address,address,uint256,uint256)": {
        "details": "handles some of the withdrawal-related actions and returns the withdrawn base token amount requirements: - the caller must be the network contract - the caller must have approved the collection to transfer/burn the pool token amount on its behalf"
      },
      "withdrawalAmounts(address,uint256)": {
        "details": "returns the amounts that would be returned if the position is currently withdrawn, along with the breakdown of the base token and the BNT compensation"
      }
    },
    "version": 1
  },
  "userdoc": {
    "kind": "user",
    "methods": {},
    "version": 1
  },
  "storageLayout": {
    "storage": [
      {
        "astId": 31615,
        "contract": "contracts/pools/PoolCollection.sol:PoolCollection",
        "label": "_owner",
        "offset": 0,
        "slot": "0",
        "type": "t_address"
      },
      {
        "astId": 31617,
        "contract": "contracts/pools/PoolCollection.sol:PoolCollection",
        "label": "_newOwner",
        "offset": 0,
        "slot": "1",
        "type": "t_address"
      },
      {
        "astId": 19019,
        "contract": "contracts/pools/PoolCollection.sol:PoolCollection",
        "label": "_poolData",
        "offset": 0,
        "slot": "2",
        "type": "t_mapping(t_contract(Token)29739,t_struct(Pool)24252_storage)"
      },
      {
        "astId": 19022,
        "contract": "contracts/pools/PoolCollection.sol:PoolCollection",
        "label": "_pools",
        "offset": 0,
        "slot": "3",
        "type": "t_struct(AddressSet)6608_storage"
      },
      {
        "astId": 19024,
        "contract": "contracts/pools/PoolCollection.sol:PoolCollection",
        "label": "_defaultTradingFeePPM",
        "offset": 0,
        "slot": "5",
        "type": "t_uint32"
      }
    ],
    "types": {
      "t_address": {
        "encoding": "inplace",
        "label": "address",
        "numberOfBytes": "20"
      },
      "t_array(t_bytes32)dyn_storage": {
        "base": "t_bytes32",
        "encoding": "dynamic_array",
        "label": "bytes32[]",
        "numberOfBytes": "32"
      },
      "t_bool": {
        "encoding": "inplace",
        "label": "bool",
        "numberOfBytes": "1"
      },
      "t_bytes32": {
        "encoding": "inplace",
        "label": "bytes32",
        "numberOfBytes": "32"
      },
      "t_contract(IPoolToken)24616": {
        "encoding": "inplace",
        "label": "contract IPoolToken",
        "numberOfBytes": "20"
      },
      "t_contract(Token)29739": {
        "encoding": "inplace",
        "label": "contract Token",
        "numberOfBytes": "20"
      },
      "t_mapping(t_bytes32,t_uint256)": {
        "encoding": "mapping",
        "key": "t_bytes32",
        "label": "mapping(bytes32 => uint256)",
        "numberOfBytes": "32",
        "value": "t_uint256"
      },
      "t_mapping(t_contract(Token)29739,t_struct(Pool)24252_storage)": {
        "encoding": "mapping",
        "key": "t_contract(Token)29739",
        "label": "mapping(contract Token => struct Pool)",
        "numberOfBytes": "32",
        "value": "t_struct(Pool)24252_storage"
      },
      "t_struct(AddressSet)6608_storage": {
        "encoding": "inplace",
        "label": "struct EnumerableSet.AddressSet",
        "members": [
          {
            "astId": 6607,
            "contract": "contracts/pools/PoolCollection.sol:PoolCollection",
            "label": "_inner",
            "offset": 0,
            "slot": "0",
            "type": "t_struct(Set)6307_storage"
          }
        ],
        "numberOfBytes": "64"
      },
      "t_struct(AverageRates)24236_storage": {
        "encoding": "inplace",
        "label": "struct AverageRates",
        "members": [
          {
            "astId": 24229,
            "contract": "contracts/pools/PoolCollection.sol:PoolCollection",
            "label": "blockNumber",
            "offset": 0,
            "slot": "0",
            "type": "t_uint32"
          },
          {
            "astId": 24232,
            "contract": "contracts/pools/PoolCollection.sol:PoolCollection",
            "label": "rate",
            "offset": 0,
            "slot": "1",
            "type": "t_struct(Fraction112)30149_storage"
          },
          {
            "astId": 24235,
            "contract": "contracts/pools/PoolCollection.sol:PoolCollection",
            "label": "invRate",
            "offset": 0,
            "slot": "2",
            "type": "t_struct(Fraction112)30149_storage"
          }
        ],
        "numberOfBytes": "96"
      },
      "t_struct(Fraction112)30149_storage": {
        "encoding": "inplace",
        "label": "struct Fraction112",
        "members": [
          {
            "astId": 30146,
            "contract": "contracts/pools/PoolCollection.sol:PoolCollection",
            "label": "n",
            "offset": 0,
            "slot": "0",
            "type": "t_uint112"
          },
          {
            "astId": 30148,
            "contract": "contracts/pools/PoolCollection.sol:PoolCollection",
            "label": "d",
            "offset": 14,
            "slot": "0",
            "type": "t_uint112"
          }
        ],
        "numberOfBytes": "32"
      },
      "t_struct(Pool)24252_storage": {
        "encoding": "inplace",
        "label": "struct Pool",
        "members": [
          {
            "astId": 24239,
            "contract": "contracts/pools/PoolCollection.sol:PoolCollection",
            "label": "poolToken",
            "offset": 0,
            "slot": "0",
            "type": "t_contract(IPoolToken)24616"
          },
          {
            "astId": 24241,
            "contract": "contracts/pools/PoolCollection.sol:PoolCollection",
            "label": "tradingFeePPM",
            "offset": 20,
            "slot": "0",
            "type": "t_uint32"
          },
          {
            "astId": 24243,
            "contract": "contracts/pools/PoolCollection.sol:PoolCollection",
            "label": "tradingEnabled",
            "offset": 24,
            "slot": "0",
            "type": "t_bool"
          },
          {
            "astId": 24245,
            "contract": "contracts/pools/PoolCollection.sol:PoolCollection",
            "label": "depositingEnabled",
            "offset": 25,
            "slot": "0",
            "type": "t_bool"
          },
          {
            "astId": 24248,
            "contract": "contracts/pools/PoolCollection.sol:PoolCollection",
            "label": "averageRates",
            "offset": 0,
            "slot": "1",
            "type": "t_struct(AverageRates)24236_storage"
          },
          {
            "astId": 24251,
            "contract": "contracts/pools/PoolCollection.sol:PoolCollection",
            "label": "liquidity",
            "offset": 0,
            "slot": "4",
            "type": "t_struct(PoolLiquidity)24227_storage"
          }
        ],
        "numberOfBytes": "192"
      },
      "t_struct(PoolLiquidity)24227_storage": {
        "encoding": "inplace",
        "label": "struct PoolLiquidity",
        "members": [
          {
            "astId": 24222,
            "contract": "contracts/pools/PoolCollection.sol:PoolCollection",
            "label": "bntTradingLiquidity",
            "offset": 0,
            "slot": "0",
            "type": "t_uint128"
          },
          {
            "astId": 24224,
            "contract": "contracts/pools/PoolCollection.sol:PoolCollection",
            "label": "baseTokenTradingLiquidity",
            "offset": 16,
            "slot": "0",
            "type": "t_uint128"
          },
          {
            "astId": 24226,
            "contract": "contracts/pools/PoolCollection.sol:PoolCollection",
            "label": "stakedBalance",
            "offset": 0,
            "slot": "1",
            "type": "t_uint256"
          }
        ],
        "numberOfBytes": "64"
      },
      "t_struct(Set)6307_storage": {
        "encoding": "inplace",
        "label": "struct EnumerableSet.Set",
        "members": [
          {
            "astId": 6302,
            "contract": "contracts/pools/PoolCollection.sol:PoolCollection",
            "label": "_values",
            "offset": 0,
            "slot": "0",
            "type": "t_array(t_bytes32)dyn_storage"
          },
          {
            "astId": 6306,
            "contract": "contracts/pools/PoolCollection.sol:PoolCollection",
            "label": "_indexes",
            "offset": 0,
            "slot": "1",
            "type": "t_mapping(t_bytes32,t_uint256)"
          }
        ],
        "numberOfBytes": "64"
      },
      "t_uint112": {
        "encoding": "inplace",
        "label": "uint112",
        "numberOfBytes": "14"
      },
      "t_uint128": {
        "encoding": "inplace",
        "label": "uint128",
        "numberOfBytes": "16"
      },
      "t_uint256": {
        "encoding": "inplace",
        "label": "uint256",
        "numberOfBytes": "32"
      },
      "t_uint32": {
        "encoding": "inplace",
        "label": "uint32",
        "numberOfBytes": "4"
      }
    }
  }
}