{
  "address": "0xC1c7ca009b6bB9bE863E2782f6f1ad5d3A846219",
  "abi": [
    {
      "inputs": [
        {
          "internalType": "contract IBancorNetwork",
          "name": "initNetwork",
          "type": "address"
        }
      ],
      "stateMutability": "nonpayable",
      "type": "constructor"
    },
    {
      "inputs": [],
      "name": "AccessDenied",
      "type": "error"
    },
    {
      "inputs": [],
      "name": "AlreadyInitialized",
      "type": "error"
    },
    {
      "inputs": [],
      "name": "InvalidAddress",
      "type": "error"
    },
    {
      "inputs": [],
      "name": "InvalidPool",
      "type": "error"
    },
    {
      "inputs": [],
      "name": "InvalidPoolCollection",
      "type": "error"
    },
    {
      "inputs": [],
      "name": "UnsupportedVersion",
      "type": "error"
    },
    {
      "anonymous": false,
      "inputs": [
        {
          "indexed": true,
          "internalType": "contract Token",
          "name": "pool",
          "type": "address"
        },
        {
          "indexed": false,
          "internalType": "contract IPoolCollection",
          "name": "prevPoolCollection",
          "type": "address"
        },
        {
          "indexed": false,
          "internalType": "contract IPoolCollection",
          "name": "newPoolCollection",
          "type": "address"
        }
      ],
      "name": "PoolMigrated",
      "type": "event"
    },
    {
      "anonymous": false,
      "inputs": [
        {
          "indexed": true,
          "internalType": "bytes32",
          "name": "role",
          "type": "bytes32"
        },
        {
          "indexed": true,
          "internalType": "bytes32",
          "name": "previousAdminRole",
          "type": "bytes32"
        },
        {
          "indexed": true,
          "internalType": "bytes32",
          "name": "newAdminRole",
          "type": "bytes32"
        }
      ],
      "name": "RoleAdminChanged",
      "type": "event"
    },
    {
      "anonymous": false,
      "inputs": [
        {
          "indexed": true,
          "internalType": "bytes32",
          "name": "role",
          "type": "bytes32"
        },
        {
          "indexed": true,
          "internalType": "address",
          "name": "account",
          "type": "address"
        },
        {
          "indexed": true,
          "internalType": "address",
          "name": "sender",
          "type": "address"
        }
      ],
      "name": "RoleGranted",
      "type": "event"
    },
    {
      "anonymous": false,
      "inputs": [
        {
          "indexed": true,
          "internalType": "bytes32",
          "name": "role",
          "type": "bytes32"
        },
        {
          "indexed": true,
          "internalType": "address",
          "name": "account",
          "type": "address"
        },
        {
          "indexed": true,
          "internalType": "address",
          "name": "sender",
          "type": "address"
        }
      ],
      "name": "RoleRevoked",
      "type": "event"
    },
    {
      "inputs": [],
      "name": "DEFAULT_ADMIN_ROLE",
      "outputs": [
        {
          "internalType": "bytes32",
          "name": "",
          "type": "bytes32"
        }
      ],
      "stateMutability": "view",
      "type": "function"
    },
    {
      "inputs": [
        {
          "internalType": "bytes32",
          "name": "role",
          "type": "bytes32"
        }
      ],
      "name": "getRoleAdmin",
      "outputs": [
        {
          "internalType": "bytes32",
          "name": "",
          "type": "bytes32"
        }
      ],
      "stateMutability": "view",
      "type": "function"
    },
    {
      "inputs": [
        {
          "internalType": "bytes32",
          "name": "role",
          "type": "bytes32"
        },
        {
          "internalType": "uint256",
          "name": "index",
          "type": "uint256"
        }
      ],
      "name": "getRoleMember",
      "outputs": [
        {
          "internalType": "address",
          "name": "",
          "type": "address"
        }
      ],
      "stateMutability": "view",
      "type": "function"
    },
    {
      "inputs": [
        {
          "internalType": "bytes32",
          "name": "role",
          "type": "bytes32"
        }
      ],
      "name": "getRoleMemberCount",
      "outputs": [
        {
          "internalType": "uint256",
          "name": "",
          "type": "uint256"
        }
      ],
      "stateMutability": "view",
      "type": "function"
    },
    {
      "inputs": [
        {
          "internalType": "bytes32",
          "name": "role",
          "type": "bytes32"
        },
        {
          "internalType": "address",
          "name": "account",
          "type": "address"
        }
      ],
      "name": "grantRole",
      "outputs": [],
      "stateMutability": "nonpayable",
      "type": "function"
    },
    {
      "inputs": [
        {
          "internalType": "bytes32",
          "name": "role",
          "type": "bytes32"
        },
        {
          "internalType": "address",
          "name": "account",
          "type": "address"
        }
      ],
      "name": "hasRole",
      "outputs": [
        {
          "internalType": "bool",
          "name": "",
          "type": "bool"
        }
      ],
      "stateMutability": "view",
      "type": "function"
    },
    {
      "inputs": [],
      "name": "initialize",
      "outputs": [],
      "stateMutability": "nonpayable",
      "type": "function"
    },
    {
      "inputs": [
        {
          "internalType": "contract Token",
          "name": "pool",
          "type": "address"
        }
      ],
      "name": "migratePool",
      "outputs": [
        {
          "internalType": "contract IPoolCollection",
          "name": "",
          "type": "address"
        }
      ],
      "stateMutability": "nonpayable",
      "type": "function"
    },
    {
      "inputs": [
        {
          "internalType": "bytes",
          "name": "data",
          "type": "bytes"
        }
      ],
      "name": "postUpgrade",
      "outputs": [],
      "stateMutability": "nonpayable",
      "type": "function"
    },
    {
      "inputs": [
        {
          "internalType": "bytes32",
          "name": "role",
          "type": "bytes32"
        },
        {
          "internalType": "address",
          "name": "account",
          "type": "address"
        }
      ],
      "name": "renounceRole",
      "outputs": [],
      "stateMutability": "nonpayable",
      "type": "function"
    },
    {
      "inputs": [
        {
          "internalType": "bytes32",
          "name": "role",
          "type": "bytes32"
        },
        {
          "internalType": "address",
          "name": "account",
          "type": "address"
        }
      ],
      "name": "revokeRole",
      "outputs": [],
      "stateMutability": "nonpayable",
      "type": "function"
    },
    {
      "inputs": [],
      "name": "roleAdmin",
      "outputs": [
        {
          "internalType": "bytes32",
          "name": "",
          "type": "bytes32"
        }
      ],
      "stateMutability": "pure",
      "type": "function"
    },
    {
      "inputs": [
        {
          "internalType": "bytes4",
          "name": "interfaceId",
          "type": "bytes4"
        }
      ],
      "name": "supportsInterface",
      "outputs": [
        {
          "internalType": "bool",
          "name": "",
          "type": "bool"
        }
      ],
      "stateMutability": "view",
      "type": "function"
    },
    {
      "inputs": [],
      "name": "version",
      "outputs": [
        {
          "internalType": "uint16",
          "name": "",
          "type": "uint16"
        }
      ],
      "stateMutability": "pure",
      "type": "function"
    }
  ],
  "transactionHash": "0xd92d030ac96c31e75019e95baea4e322ec63fd3cca42c8af81007795e75735dc",
  "args": [
    "0xeEF417e1D5CC832e619ae18D2F140De2999dD4fB"
  ],
  "numDeployments": 1,
  "solcInputHash": "5b93454da0d19532f3d57b46d6368097",
  "bytecode": "0x60a060405234801561001057600080fd5b5060405161177d38038061177d83398101604081905261002f91610075565b806100398161004b565b506001600160a01b03166080526100a5565b6001600160a01b0381166100725760405163e6c4247b60e01b815260040160405180910390fd5b50565b60006020828403121561008757600080fd5b81516001600160a01b038116811461009e57600080fd5b9392505050565b6080516116af6100ce6000396000818161026e015281816102de01526103fe01526116af6000f3fe608060405234801561001057600080fd5b50600436106100ea5760003560e01c80638cd2403d1161008c57806393867fb51161006657806393867fb5146101eb578063a217fddf14610211578063ca15c87314610219578063d547741f1461022c57600080fd5b80638cd2403d146101b25780639010d07c146101c557806391d14854146101d857600080fd5b80632f2ff15d116100c85780632f2ff15d1461017357806336568abe1461018857806354fd4d501461019b5780638129fc1c146101aa57600080fd5b806301ffc9a7146100ef5780630874327f14610117578063248a9ca314610142575b600080fd5b6101026100fd36600461103a565b61023f565b60405190151581526020015b60405180910390f35b61012a610125366004611079565b61026a565b6040516001600160a01b03909116815260200161010e565b610165610150366004611096565b60009081526065602052604090206001015490565b60405190815260200161010e565b6101866101813660046110af565b610585565b005b6101866101963660046110af565b6105b0565b6040516001815260200161010e565b610186610633565b6101866101c03660046110df565b6106f4565b61012a6101d3366004611151565b610745565b6101026101e63660046110af565b610764565b7f2172861495e7b85edac73e3cd5fbb42dd675baadf627720e687bcfdaca025096610165565b610165600081565b610165610227366004611096565b61078f565b61018661023a3660046110af565b6107a6565b60006001600160e01b03198216635a05180f60e01b14806102645750610264826107cc565b92915050565b60007f000000000000000000000000000000000000000000000000000000000000000061029681610801565b6001600160a01b0383166102bc5760405162820f3560e61b815260040160405180910390fd5b6040516309bca0e760e41b81526001600160a01b0384811660048301526000917f000000000000000000000000000000000000000000000000000000000000000090911690639bca0e7090602401602060405180830381865afa158015610327573d6000803e3d6000fd5b505050506040513d601f19601f8201168201806040525081019061034b9190611173565b90506001600160a01b0381166103735760405162820f3560e61b815260040160405180910390fd5b6000816001600160a01b031663b1dd61b66040518163ffffffff1660e01b8152600401602060405180830381865afa1580156103b3573d6000803e3d6000fd5b505050506040513d601f19601f820116820180604052508101906103d79190611190565b60405163673cea6960e01b815261ffff821660048201529091506000906001600160a01b037f0000000000000000000000000000000000000000000000000000000000000000169063673cea6990602401602060405180830381865afa158015610445573d6000803e3d6000fd5b505050506040513d601f19601f820116820180604052508101906104699190611173565b9050826001600160a01b0316816001600160a01b03160361049d5760405163386c33d760e11b815260040160405180910390fd5b826001600160a01b03166354fd4d506040518163ffffffff1660e01b8152600401602060405180830381865afa1580156104db573d6000803e3d6000fd5b505050506040513d601f19601f820116820180604052508101906104ff9190611190565b61ffff166001036105665761051586848361082a565b604080516001600160a01b03858116825283811660208301528816917f6025aa229a22e34e03a63b6f5a863507b4780f2b2fcc1b775edb12d8691092cf910160405180910390a2935061057f915050565b60405163b01318a560e01b815260040160405180910390fd5b50919050565b6000828152606560205260409020600101546105a181336109e8565b6105ab8383610a4c565b505050565b6001600160a01b03811633146106255760405162461bcd60e51b815260206004820152602f60248201527f416363657373436f6e74726f6c3a2063616e206f6e6c792072656e6f756e636560448201526e103937b632b9903337b91039b2b63360891b60648201526084015b60405180910390fd5b61062f8282610a6e565b5050565b600054610100900460ff1661064e5760005460ff1615610652565b303b155b6106b55760405162461bcd60e51b815260206004820152602e60248201527f496e697469616c697a61626c653a20636f6e747261637420697320616c72656160448201526d191e481a5b9a5d1a585b1a5e995960921b606482015260840161061c565b600054610100900460ff161580156106d7576000805461ffff19166101011790555b6106df610a90565b80156106f1576000805461ff00191690555b50565b60c9546000906107099061ffff1660016111ca565b905061ffff811660011461072f5760405162dc149f60e41b815260040160405180910390fd5b60c9805461ffff191661ffff8316179055505050565b600082815260976020526040812061075d9083610ac9565b9392505050565b60009182526065602090815260408084206001600160a01b0393909316845291905290205460ff1690565b600081815260976020526040812061026490610ad5565b6000828152606560205260409020600101546107c281336109e8565b6105ab8383610a6e565b60006001600160e01b03198216637965db0b60e01b148061026457506301ffc9a760e01b6001600160e01b0319831614610264565b336001600160a01b038216146106f157604051634ca8886760e01b815260040160405180910390fd5b6040516309b77dbd60e11b81526001600160a01b0384811660048301526000919084169063136efb7a9060240161016060405180830381865afa158015610875573d6000803e3d6000fd5b505050506040513d601f19601f82011682018060405250810190610899919061133b565b6040805160e08101825282516001600160a01b03908116825260208085015163ffffffff1681840152848401511515838501526060808601511515818501526080808701519085015260a080870151908501528451908101855260c08087018051516001600160801b039081168452815185015116938301939093529151850151818601529083015291516334f7c90960e21b815287831660048201528583166024820152929350919085169063d3df242490604401600060405180830381600087803b15801561096957600080fd5b505af115801561097d573d6000803e3d6000fd5b5050604051637353510160e11b81526001600160a01b038616925063e6a6a20291506109af908890859060040161142c565b600060405180830381600087803b1580156109c957600080fd5b505af11580156109dd573d6000803e3d6000fd5b505050505050505050565b6109f28282610764565b61062f57610a0a816001600160a01b03166014610adf565b610a15836020610adf565b604051602001610a2692919061151e565b60408051601f198184030181529082905262461bcd60e51b825261061c91600401611593565b610a568282610c7b565b60008281526097602052604090206105ab9082610d01565b610a788282610d16565b60008281526097602052604090206105ab9082610d7d565b600054610100900460ff16610ab75760405162461bcd60e51b815260040161061c906115c6565b610abf610d92565b610ac7610dc9565b565b600061075d8383610df0565b6000610264825490565b60606000610aee836002611611565b610af9906002611630565b67ffffffffffffffff811115610b1157610b116111f0565b6040519080825280601f01601f191660200182016040528015610b3b576020820181803683370190505b509050600360fc1b81600081518110610b5657610b56611648565b60200101906001600160f81b031916908160001a905350600f60fb1b81600181518110610b8557610b85611648565b60200101906001600160f81b031916908160001a9053506000610ba9846002611611565b610bb4906001611630565b90505b6001811115610c2c576f181899199a1a9b1b9c1cb0b131b232b360811b85600f1660108110610be857610be8611648565b1a60f81b828281518110610bfe57610bfe611648565b60200101906001600160f81b031916908160001a90535060049490941c93610c258161165e565b9050610bb7565b50831561075d5760405162461bcd60e51b815260206004820181905260248201527f537472696e67733a20686578206c656e67746820696e73756666696369656e74604482015260640161061c565b610c858282610764565b61062f5760008281526065602090815260408083206001600160a01b03851684529091529020805460ff19166001179055610cbd3390565b6001600160a01b0316816001600160a01b0316837f2f8788117e7eff1d82e926ec794901d17c78024a50270940304540a733656f0d60405160405180910390a45050565b600061075d836001600160a01b038416610e1a565b610d208282610764565b1561062f5760008281526065602090815260408083206001600160a01b0385168085529252808320805460ff1916905551339285917ff6391f5c32d9c69d2a47ea670b442974b53935d1edc7fd64eb21e047a839171b9190a45050565b600061075d836001600160a01b038416610e69565b600054610100900460ff16610db95760405162461bcd60e51b815260040161061c906115c6565b610dc1610dc9565b610ac7610f5c565b600054610100900460ff16610ac75760405162461bcd60e51b815260040161061c906115c6565b6000826000018281548110610e0757610e07611648565b9060005260206000200154905092915050565b6000818152600183016020526040812054610e6157508154600181810184556000848152602080822090930184905584548482528286019093526040902091909155610264565b506000610264565b60008181526001830160205260408120548015610f52576000610e8d600183611675565b8554909150600090610ea190600190611675565b9050818114610f06576000866000018281548110610ec157610ec1611648565b9060005260206000200154905080876000018481548110610ee457610ee4611648565b6000918252602080832090910192909255918252600188019052604090208390555b8554869080610f1757610f1761168c565b600190038181906000526020600020016000905590558560010160008681526020019081526020016000206000905560019350505050610264565b6000915050610264565b600054610100900460ff16610f835760405162461bcd60e51b815260040161061c906115c6565b60c9805461ffff19166001179055610fbb7f2172861495e7b85edac73e3cd5fbb42dd675baadf627720e687bcfdaca02509680610fe5565b610ac77f2172861495e7b85edac73e3cd5fbb42dd675baadf627720e687bcfdaca02509633611030565b600082815260656020526040808220600101805490849055905190918391839186917fbd79b86ffe0ab8e8776151514217cd7cacd52c909f66475c3af44e129f0b00ff9190a4505050565b61062f8282610a4c565b60006020828403121561104c57600080fd5b81356001600160e01b03198116811461075d57600080fd5b6001600160a01b03811681146106f157600080fd5b60006020828403121561108b57600080fd5b813561075d81611064565b6000602082840312156110a857600080fd5b5035919050565b600080604083850312156110c257600080fd5b8235915060208301356110d481611064565b809150509250929050565b600080602083850312156110f257600080fd5b823567ffffffffffffffff8082111561110a57600080fd5b818501915085601f83011261111e57600080fd5b81358181111561112d57600080fd5b86602082850101111561113f57600080fd5b60209290920196919550909350505050565b6000806040838503121561116457600080fd5b50508035926020909101359150565b60006020828403121561118557600080fd5b815161075d81611064565b6000602082840312156111a257600080fd5b815161ffff8116811461075d57600080fd5b634e487b7160e01b600052601160045260246000fd5b600061ffff8083168185168083038211156111e7576111e76111b4565b01949350505050565b634e487b7160e01b600052604160045260246000fd5b60405160e0810167ffffffffffffffff8111828210171561123757634e487b7160e01b600052604160045260246000fd5b60405290565b6040805190810167ffffffffffffffff8111828210171561123757634e487b7160e01b600052604160045260246000fd5b805163ffffffff8116811461128257600080fd5b919050565b8051801515811461128257600080fd5b80516001600160701b038116811461128257600080fd5b80516001600160801b038116811461128257600080fd5b6000606082840312156112d757600080fd5b6040516060810181811067ffffffffffffffff8211171561130857634e487b7160e01b600052604160045260246000fd5b604052905080611317836112ae565b8152611325602084016112ae565b6020820152604083015160408201525092915050565b600081830361016081121561134f57600080fd5b611357611206565b835161136281611064565b81526113706020850161126e565b602082015261138160408501611287565b604082015261139260608501611287565b60608201526060607f19830112156113a957600080fd5b6113b161123d565b6113bd6080860161126e565b81526040609f19840112156113d157600080fd5b6113d961123d565b92506113e760a08601611297565b83526113f560c08601611297565b60208401528260208201528060808301525060e084015160a082015261141f8561010086016112c5565b60c0820152949350505050565b60006101808201905060018060a01b0380851683528084511660208401525063ffffffff602084015116604083015260408301511515606083015260608301511515608083015260808301516114ad60a0840182805163ffffffff16825260209081015180516001600160701b039081168385015291015116604090910152565b5060a083015161010083015260c09092015180516001600160801b039081166101208401526020820151166101408301526040015161016090910152919050565b60005b838110156115095781810151838201526020016114f1565b83811115611518576000848401525b50505050565b7f416363657373436f6e74726f6c3a206163636f756e74200000000000000000008152600083516115568160178501602088016114ee565b7001034b99036b4b9b9b4b733903937b6329607d1b60179184019182015283516115878160288401602088016114ee565b01602801949350505050565b60208152600082518060208401526115b28160408501602087016114ee565b601f01601f19169190910160400192915050565b6020808252602b908201527f496e697469616c697a61626c653a20636f6e7472616374206973206e6f74206960408201526a6e697469616c697a696e6760a81b606082015260800190565b600081600019048311821515161561162b5761162b6111b4565b500290565b60008219821115611643576116436111b4565b500190565b634e487b7160e01b600052603260045260246000fd5b60008161166d5761166d6111b4565b506000190190565b600082821015611687576116876111b4565b500390565b634e487b7160e01b600052603160045260246000fdfea164736f6c634300080d000a",
  "devdoc": {
    "details": "Pool Migrator contract",
    "events": {
      "PoolMigrated(address,address,address)": {
        "details": "triggered when an existing pool is migrated between pool collections"
      }
    },
    "kind": "dev",
    "methods": {
      "constructor": {
        "details": "a \"virtual\" constructor that is only used to set immutable state variables"
      },
      "getRoleAdmin(bytes32)": {
        "details": "Returns the admin role that controls `role`. See {grantRole} and {revokeRole}. To change a role's admin, use {_setRoleAdmin}."
      },
      "getRoleMember(bytes32,uint256)": {
        "details": "Returns one of the accounts that have `role`. `index` must be a value between 0 and {getRoleMemberCount}, non-inclusive. Role bearers are not sorted in any particular way, and their ordering may change at any point. WARNING: When using {getRoleMember} and {getRoleMemberCount}, make sure you perform all queries on the same block. See the following https://forum.openzeppelin.com/t/iterating-over-elements-on-enumerableset-in-openzeppelin-contracts/2296[forum post] for more information."
      },
      "getRoleMemberCount(bytes32)": {
        "details": "Returns the number of accounts that have `role`. Can be used together with {getRoleMember} to enumerate all bearers of a role."
      },
      "grantRole(bytes32,address)": {
        "details": "Grants `role` to `account`. If `account` had not been already granted `role`, emits a {RoleGranted} event. Requirements: - the caller must have ``role``'s admin role."
      },
      "hasRole(bytes32,address)": {
        "details": "Returns `true` if `account` has been granted `role`."
      },
      "initialize()": {
        "details": "fully initializes the contract and its parents"
      },
      "migratePool(address)": {
        "details": "migrates a pool and returns the new pool collection it exists in notes: - invalid or incompatible pools will be skipped gracefully requirements: - the caller must be the network contract"
      },
      "postUpgrade(bytes)": {
        "details": "performs post-upgrade initialization requirements: - this must can be called only once per-upgrade"
      },
      "renounceRole(bytes32,address)": {
        "details": "Revokes `role` from the calling account. Roles are often managed via {grantRole} and {revokeRole}: this function's purpose is to provide a mechanism for accounts to lose their privileges if they are compromised (such as when a trusted device is misplaced). If the calling account had been revoked `role`, emits a {RoleRevoked} event. Requirements: - the caller must be `account`."
      },
      "revokeRole(bytes32,address)": {
        "details": "Revokes `role` from `account`. If `account` had been granted `role`, emits a {RoleRevoked} event. Requirements: - the caller must have ``role``'s admin role."
      },
      "roleAdmin()": {
        "details": "returns the admin role"
      },
      "supportsInterface(bytes4)": {
        "details": "See {IERC165-supportsInterface}."
      }
    },
    "version": 1
  },
  "userdoc": {
    "kind": "user",
    "methods": {},
    "version": 1
  },
  "storageLayout": {
    "storage": [
      {
        "astId": 644,
        "contract": "contracts/pools/PoolMigrator.sol:PoolMigrator",
        "label": "_initialized",
        "offset": 0,
        "slot": "0",
        "type": "t_bool"
      },
      {
        "astId": 647,
        "contract": "contracts/pools/PoolMigrator.sol:PoolMigrator",
        "label": "_initializing",
        "offset": 1,
        "slot": "0",
        "type": "t_bool"
      },
      {
        "astId": 1165,
        "contract": "contracts/pools/PoolMigrator.sol:PoolMigrator",
        "label": "__gap",
        "offset": 0,
        "slot": "1",
        "type": "t_array(t_uint256)50_storage"
      },
      {
        "astId": 1412,
        "contract": "contracts/pools/PoolMigrator.sol:PoolMigrator",
        "label": "__gap",
        "offset": 0,
        "slot": "51",
        "type": "t_array(t_uint256)50_storage"
      },
      {
        "astId": 250,
        "contract": "contracts/pools/PoolMigrator.sol:PoolMigrator",
        "label": "_roles",
        "offset": 0,
        "slot": "101",
        "type": "t_mapping(t_bytes32,t_struct(RoleData)245_storage)"
      },
      {
        "astId": 538,
        "contract": "contracts/pools/PoolMigrator.sol:PoolMigrator",
        "label": "__gap",
        "offset": 0,
        "slot": "102",
        "type": "t_array(t_uint256)49_storage"
      },
      {
        "astId": 99,
        "contract": "contracts/pools/PoolMigrator.sol:PoolMigrator",
        "label": "_roleMembers",
        "offset": 0,
        "slot": "151",
        "type": "t_mapping(t_bytes32,t_struct(AddressSet)1737_storage)"
      },
      {
        "astId": 209,
        "contract": "contracts/pools/PoolMigrator.sol:PoolMigrator",
        "label": "__gap",
        "offset": 0,
        "slot": "152",
        "type": "t_array(t_uint256)49_storage"
      },
      {
        "astId": 31197,
        "contract": "contracts/pools/PoolMigrator.sol:PoolMigrator",
        "label": "_initializations",
        "offset": 0,
        "slot": "201",
        "type": "t_uint16"
      },
      {
        "astId": 31203,
        "contract": "contracts/pools/PoolMigrator.sol:PoolMigrator",
        "label": "__gap",
        "offset": 0,
        "slot": "202",
        "type": "t_array(t_uint256)49_storage"
      },
      {
        "astId": 24006,
        "contract": "contracts/pools/PoolMigrator.sol:PoolMigrator",
        "label": "__gap",
        "offset": 0,
        "slot": "251",
        "type": "t_array(t_uint256)50_storage"
      }
    ],
    "types": {
      "t_address": {
        "encoding": "inplace",
        "label": "address",
        "numberOfBytes": "20"
      },
      "t_array(t_bytes32)dyn_storage": {
        "base": "t_bytes32",
        "encoding": "dynamic_array",
        "label": "bytes32[]",
        "numberOfBytes": "32"
      },
      "t_array(t_uint256)49_storage": {
        "base": "t_uint256",
        "encoding": "inplace",
        "label": "uint256[49]",
        "numberOfBytes": "1568"
      },
      "t_array(t_uint256)50_storage": {
        "base": "t_uint256",
        "encoding": "inplace",
        "label": "uint256[50]",
        "numberOfBytes": "1600"
      },
      "t_bool": {
        "encoding": "inplace",
        "label": "bool",
        "numberOfBytes": "1"
      },
      "t_bytes32": {
        "encoding": "inplace",
        "label": "bytes32",
        "numberOfBytes": "32"
      },
      "t_mapping(t_address,t_bool)": {
        "encoding": "mapping",
        "key": "t_address",
        "label": "mapping(address => bool)",
        "numberOfBytes": "32",
        "value": "t_bool"
      },
      "t_mapping(t_bytes32,t_struct(AddressSet)1737_storage)": {
        "encoding": "mapping",
        "key": "t_bytes32",
        "label": "mapping(bytes32 => struct EnumerableSetUpgradeable.AddressSet)",
        "numberOfBytes": "32",
        "value": "t_struct(AddressSet)1737_storage"
      },
      "t_mapping(t_bytes32,t_struct(RoleData)245_storage)": {
        "encoding": "mapping",
        "key": "t_bytes32",
        "label": "mapping(bytes32 => struct AccessControlUpgradeable.RoleData)",
        "numberOfBytes": "32",
        "value": "t_struct(RoleData)245_storage"
      },
      "t_mapping(t_bytes32,t_uint256)": {
        "encoding": "mapping",
        "key": "t_bytes32",
        "label": "mapping(bytes32 => uint256)",
        "numberOfBytes": "32",
        "value": "t_uint256"
      },
      "t_struct(AddressSet)1737_storage": {
        "encoding": "inplace",
        "label": "struct EnumerableSetUpgradeable.AddressSet",
        "members": [
          {
            "astId": 1736,
            "contract": "contracts/pools/PoolMigrator.sol:PoolMigrator",
            "label": "_inner",
            "offset": 0,
            "slot": "0",
            "type": "t_struct(Set)1436_storage"
          }
        ],
        "numberOfBytes": "64"
      },
      "t_struct(RoleData)245_storage": {
        "encoding": "inplace",
        "label": "struct AccessControlUpgradeable.RoleData",
        "members": [
          {
            "astId": 242,
            "contract": "contracts/pools/PoolMigrator.sol:PoolMigrator",
            "label": "members",
            "offset": 0,
            "slot": "0",
            "type": "t_mapping(t_address,t_bool)"
          },
          {
            "astId": 244,
            "contract": "contracts/pools/PoolMigrator.sol:PoolMigrator",
            "label": "adminRole",
            "offset": 0,
            "slot": "1",
            "type": "t_bytes32"
          }
        ],
        "numberOfBytes": "64"
      },
      "t_struct(Set)1436_storage": {
        "encoding": "inplace",
        "label": "struct EnumerableSetUpgradeable.Set",
        "members": [
          {
            "astId": 1431,
            "contract": "contracts/pools/PoolMigrator.sol:PoolMigrator",
            "label": "_values",
            "offset": 0,
            "slot": "0",
            "type": "t_array(t_bytes32)dyn_storage"
          },
          {
            "astId": 1435,
            "contract": "contracts/pools/PoolMigrator.sol:PoolMigrator",
            "label": "_indexes",
            "offset": 0,
            "slot": "1",
            "type": "t_mapping(t_bytes32,t_uint256)"
          }
        ],
        "numberOfBytes": "64"
      },
      "t_uint16": {
        "encoding": "inplace",
        "label": "uint16",
        "numberOfBytes": "2"
      },
      "t_uint256": {
        "encoding": "inplace",
        "label": "uint256",
        "numberOfBytes": "32"
      }
    }
  }
}