{
  "address": "0x6248e4118818C9075a142EF8A12e09d49888aF58",
  "abi": [
    {
      "inputs": [
        {
          "internalType": "contract IBancorNetworkV3",
          "name": "initNetworkV3",
          "type": "address"
        },
        {
          "internalType": "contract ITokenGovernance",
          "name": "initBNTGovernance",
          "type": "address"
        },
        {
          "internalType": "bytes32",
          "name": "initMerkleRoot",
          "type": "bytes32"
        }
      ],
      "stateMutability": "nonpayable",
      "type": "constructor"
    },
    {
      "inputs": [],
      "name": "AccessDenied",
      "type": "error"
    },
    {
      "inputs": [],
      "name": "AlreadyClaimed",
      "type": "error"
    },
    {
      "inputs": [],
      "name": "InvalidAddress",
      "type": "error"
    },
    {
      "inputs": [],
      "name": "InvalidClaim",
      "type": "error"
    },
    {
      "inputs": [],
      "name": "ZeroValue",
      "type": "error"
    },
    {
      "anonymous": false,
      "inputs": [
        {
          "indexed": true,
          "internalType": "address",
          "name": "provider",
          "type": "address"
        },
        {
          "indexed": false,
          "internalType": "uint256",
          "name": "amount",
          "type": "uint256"
        }
      ],
      "name": "RewardsClaimed",
      "type": "event"
    },
    {
      "anonymous": false,
      "inputs": [
        {
          "indexed": true,
          "internalType": "address",
          "name": "provider",
          "type": "address"
        },
        {
          "indexed": false,
          "internalType": "uint256",
          "name": "amount",
          "type": "uint256"
        }
      ],
      "name": "RewardsStaked",
      "type": "event"
    },
    {
      "inputs": [
        {
          "internalType": "address",
          "name": "provider",
          "type": "address"
        },
        {
          "internalType": "uint256",
          "name": "fullAmount",
          "type": "uint256"
        },
        {
          "internalType": "bytes32[]",
          "name": "proof",
          "type": "bytes32[]"
        }
      ],
      "name": "claimRewards",
      "outputs": [],
      "stateMutability": "nonpayable",
      "type": "function"
    },
    {
      "inputs": [
        {
          "internalType": "address",
          "name": "account",
          "type": "address"
        }
      ],
      "name": "hasClaimed",
      "outputs": [
        {
          "internalType": "bool",
          "name": "",
          "type": "bool"
        }
      ],
      "stateMutability": "view",
      "type": "function"
    },
    {
      "inputs": [],
      "name": "merkleRoot",
      "outputs": [
        {
          "internalType": "bytes32",
          "name": "",
          "type": "bytes32"
        }
      ],
      "stateMutability": "view",
      "type": "function"
    },
    {
      "inputs": [
        {
          "internalType": "address",
          "name": "provider",
          "type": "address"
        },
        {
          "internalType": "uint256",
          "name": "fullAmount",
          "type": "uint256"
        },
        {
          "internalType": "bytes32[]",
          "name": "proof",
          "type": "bytes32[]"
        }
      ],
      "name": "stakeRewards",
      "outputs": [],
      "stateMutability": "nonpayable",
      "type": "function"
    },
    {
      "inputs": [],
      "name": "totalClaimed",
      "outputs": [
        {
          "internalType": "uint256",
          "name": "",
          "type": "uint256"
        }
      ],
      "stateMutability": "view",
      "type": "function"
    }
  ],
  "transactionHash": "0x4f379bdad252aa224da31d94dd7af4a7fb1f907cc56c95c606fc89353bbe6cbe",
  "args": [
    "0xeEF417e1D5CC832e619ae18D2F140De2999dD4fB",
    "0xa489C2b5b36835A327851Ab917A80562B5AFC244",
    "0x7a42a00c814c29ca24f246a263c89253216fc441f9bdad5b57442c77ed77be24"
  ],
  "numDeployments": 1,
  "solcInputHash": "8ee91408b32ce16879d1d3024fa187ef",
  "bytecode": "0x61010060405234801561001157600080fd5b5060405161098f38038061098f83398101604081905261003091610110565b8261003a816100d1565b82610044816100d1565b6001600160a01b03808616608052841660a081905260408051637e062a3560e11b8152905163fc0c546a916004808201926020929091908290030181865afa158015610094573d6000803e3d6000fd5b505050506040513d601f19601f820116820180604052508101906100b89190610153565b6001600160a01b031660c052505060e052506101779050565b6001600160a01b0381166100f85760405163e6c4247b60e01b815260040160405180910390fd5b50565b6001600160a01b03811681146100f857600080fd5b60008060006060848603121561012557600080fd5b8351610130816100fb565b6020850151909350610141816100fb565b80925050604084015190509250925092565b60006020828403121561016557600080fd5b8151610170816100fb565b9392505050565b60805160a05160c05160e0516107c46101cb60003960008181605e015261023c01526000818161038a01526104190152600081816102e2015261052401526000818161035b015261044801526107c46000f3fe608060405234801561001057600080fd5b50600436106100575760003560e01c80632eb4a7ab1461005c57806373b2e80e14610091578063d54ad2a1146100cd578063d64bc331146100d5578063e07582a7146100ea575b600080fd5b7f00000000000000000000000000000000000000000000000000000000000000005b6040519081526020015b60405180910390f35b6100bd61009f366004610673565b6001600160a01b031660009081526001602052604090205460ff1690565b6040519015158152602001610088565b60005461007e565b6100e86100e3366004610695565b6100fd565b005b6100e86100f8366004610695565b61011d565b8261010781610136565b6101163386868686600061015a565b5050505050565b8261012781610136565b6101163386868686600161015a565b8060000361015757604051637c946ed760e01b815260040160405180910390fd5b50565b846001600160a01b0316866001600160a01b03161461018c57604051634ca8886760e01b815260040160405180910390fd5b6001600160a01b03851660009081526001602052604090205460ff16156101c657604051630c8d9eab60e31b815260040160405180910390fd5b6040516bffffffffffffffffffffffff19606087901b166020820152603481018590526000906054016040516020818303038152906040528051906020012090506102678484808060200260200160405190810160405280939291908181526020018383602002808284376000920191909152507f000000000000000000000000000000000000000000000000000000000000000092508591506105cd9050565b61028457604051633b4f091f60e21b815260040160405180910390fd5b6001600160a01b03861660009081526001602081905260408220805460ff19169091179055805486919081906102bb908490610735565b909155505081156104fe576040516340c10f1960e01b8152306004820152602481018690527f00000000000000000000000000000000000000000000000000000000000000006001600160a01b0316906340c10f1990604401600060405180830381600087803b15801561032e57600080fd5b505af1158015610342573d6000803e3d6000fd5b505060405163095ea7b360e01b81526001600160a01b037f000000000000000000000000000000000000000000000000000000000000000081166004830152602482018990527f000000000000000000000000000000000000000000000000000000000000000016925063095ea7b391506044016020604051808303816000875af11580156103d5573d6000803e3d6000fd5b505050506040513d601f19601f820116820180604052508101906103f9919061074d565b5060405163b3db428b60e01b81526001600160a01b0387811660048301527f000000000000000000000000000000000000000000000000000000000000000081166024830152604482018790527f0000000000000000000000000000000000000000000000000000000000000000169063b3db428b906064016020604051808303816000875af1158015610491573d6000803e3d6000fd5b505050506040513d601f19601f820116820180604052508101906104b5919061076f565b50856001600160a01b03167fee7393505f4f8617cad79e74b3325ee5423113e8026ff3ae90ff72f8c0afcc61866040516104f191815260200190565b60405180910390a26105c4565b6040516340c10f1960e01b81526001600160a01b038781166004830152602482018790527f000000000000000000000000000000000000000000000000000000000000000016906340c10f1990604401600060405180830381600087803b15801561056857600080fd5b505af115801561057c573d6000803e3d6000fd5b50505050856001600160a01b03167ffc30cddea38e2bf4d6ea7d3f9ed3b6ad7f176419f4963bd81318067a4aee73fe866040516105bb91815260200190565b60405180910390a25b50505050505050565b6000826105da85846105e3565b14949350505050565b600081815b845181101561064f57600085828151811061060557610605610788565b6020026020010151905080831161062b576000838152602082905260409020925061063c565b600081815260208490526040902092505b50806106478161079e565b9150506105e8565b509392505050565b80356001600160a01b038116811461066e57600080fd5b919050565b60006020828403121561068557600080fd5b61068e82610657565b9392505050565b600080600080606085870312156106ab57600080fd5b6106b485610657565b935060208501359250604085013567ffffffffffffffff808211156106d857600080fd5b818701915087601f8301126106ec57600080fd5b8135818111156106fb57600080fd5b8860208260051b850101111561071057600080fd5b95989497505060200194505050565b634e487b7160e01b600052601160045260246000fd5b600082198211156107485761074861071f565b500190565b60006020828403121561075f57600080fd5b8151801515811461068e57600080fd5b60006020828403121561078157600080fd5b5051919050565b634e487b7160e01b600052603260045260246000fd5b6000600182016107b0576107b061071f565b506001019056fea164736f6c634300080d000a"
}