{
  "address": "0xDfe331e68CE634a2F9557E05d1D603a8Ea881F0d",
  "abi": [
    {
      "inputs": [
        {
          "internalType": "contract IBancorNetwork",
          "name": "initNetwork",
          "type": "address"
        },
        {
          "internalType": "contract INetworkSettings",
          "name": "initNetworkSettings",
          "type": "address"
        },
        {
          "internalType": "contract ITokenGovernance",
          "name": "initBNTGovernance",
          "type": "address"
        },
        {
          "internalType": "contract IERC20",
          "name": "initVBNT",
          "type": "address"
        },
        {
          "internalType": "contract IBNTPool",
          "name": "initBNTPool",
          "type": "address"
        }
      ],
      "stateMutability": "nonpayable",
      "type": "constructor"
    },
    {
      "inputs": [],
      "name": "AccessDenied",
      "type": "error"
    },
    {
      "inputs": [],
      "name": "AlreadyExists",
      "type": "error"
    },
    {
      "inputs": [],
      "name": "AlreadyInitialized",
      "type": "error"
    },
    {
      "inputs": [],
      "name": "ArrayNotUnique",
      "type": "error"
    },
    {
      "inputs": [],
      "name": "DoesNotExist",
      "type": "error"
    },
    {
      "inputs": [],
      "name": "InvalidAddress",
      "type": "error"
    },
    {
      "inputs": [],
      "name": "InvalidParam",
      "type": "error"
    },
    {
      "inputs": [],
      "name": "NativeTokenAmountMismatch",
      "type": "error"
    },
    {
      "inputs": [],
      "name": "NotWhitelisted",
      "type": "error"
    },
    {
      "inputs": [],
      "name": "ProgramInactive",
      "type": "error"
    },
    {
      "inputs": [],
      "name": "ProgramSuspended",
      "type": "error"
    },
    {
      "inputs": [],
      "name": "RewardsTooHigh",
      "type": "error"
    },
    {
      "inputs": [],
      "name": "ZeroValue",
      "type": "error"
    },
    {
      "anonymous": false,
      "inputs": [
        {
          "indexed": true,
          "internalType": "contract Token",
          "name": "pool",
          "type": "address"
        },
        {
          "indexed": true,
          "internalType": "uint256",
          "name": "programId",
          "type": "uint256"
        },
        {
          "indexed": true,
          "internalType": "contract Token",
          "name": "rewardsToken",
          "type": "address"
        },
        {
          "indexed": false,
          "internalType": "uint256",
          "name": "totalRewards",
          "type": "uint256"
        },
        {
          "indexed": false,
          "internalType": "uint32",
          "name": "startTime",
          "type": "uint32"
        },
        {
          "indexed": false,
          "internalType": "uint32",
          "name": "endTime",
          "type": "uint32"
        }
      ],
      "name": "ProgramCreated",
      "type": "event"
    },
    {
      "anonymous": false,
      "inputs": [
        {
          "indexed": true,
          "internalType": "contract Token",
          "name": "pool",
          "type": "address"
        },
        {
          "indexed": true,
          "internalType": "uint256",
          "name": "programId",
          "type": "uint256"
        },
        {
          "indexed": false,
          "internalType": "bool",
          "name": "paused",
          "type": "bool"
        }
      ],
      "name": "ProgramPaused",
      "type": "event"
    },
    {
      "anonymous": false,
      "inputs": [
        {
          "indexed": true,
          "internalType": "contract Token",
          "name": "pool",
          "type": "address"
        },
        {
          "indexed": true,
          "internalType": "uint256",
          "name": "programId",
          "type": "uint256"
        },
        {
          "indexed": false,
          "internalType": "uint32",
          "name": "endTime",
          "type": "uint32"
        }
      ],
      "name": "ProgramTerminated",
      "type": "event"
    },
    {
      "anonymous": false,
      "inputs": [
        {
          "indexed": true,
          "internalType": "contract Token",
          "name": "pool",
          "type": "address"
        },
        {
          "indexed": true,
          "internalType": "uint256",
          "name": "programId",
          "type": "uint256"
        },
        {
          "indexed": true,
          "internalType": "address",
          "name": "provider",
          "type": "address"
        },
        {
          "indexed": false,
          "internalType": "uint256",
          "name": "poolTokenAmount",
          "type": "uint256"
        },
        {
          "indexed": false,
          "internalType": "uint256",
          "name": "prevStake",
          "type": "uint256"
        }
      ],
      "name": "ProviderJoined",
      "type": "event"
    },
    {
      "anonymous": false,
      "inputs": [
        {
          "indexed": true,
          "internalType": "contract Token",
          "name": "pool",
          "type": "address"
        },
        {
          "indexed": true,
          "internalType": "uint256",
          "name": "programId",
          "type": "uint256"
        },
        {
          "indexed": true,
          "internalType": "address",
          "name": "provider",
          "type": "address"
        },
        {
          "indexed": false,
          "internalType": "uint256",
          "name": "poolTokenAmount",
          "type": "uint256"
        },
        {
          "indexed": false,
          "internalType": "uint256",
          "name": "remainingStake",
          "type": "uint256"
        }
      ],
      "name": "ProviderLeft",
      "type": "event"
    },
    {
      "anonymous": false,
      "inputs": [
        {
          "indexed": true,
          "internalType": "contract Token",
          "name": "pool",
          "type": "address"
        },
        {
          "indexed": true,
          "internalType": "uint256",
          "name": "programId",
          "type": "uint256"
        },
        {
          "indexed": true,
          "internalType": "address",
          "name": "provider",
          "type": "address"
        },
        {
          "indexed": false,
          "internalType": "uint256",
          "name": "amount",
          "type": "uint256"
        }
      ],
      "name": "RewardsClaimed",
      "type": "event"
    },
    {
      "anonymous": false,
      "inputs": [
        {
          "indexed": true,
          "internalType": "contract Token",
          "name": "pool",
          "type": "address"
        },
        {
          "indexed": true,
          "internalType": "uint256",
          "name": "programId",
          "type": "uint256"
        },
        {
          "indexed": true,
          "internalType": "address",
          "name": "provider",
          "type": "address"
        },
        {
          "indexed": false,
          "internalType": "uint256",
          "name": "amount",
          "type": "uint256"
        }
      ],
      "name": "RewardsStaked",
      "type": "event"
    },
    {
      "anonymous": false,
      "inputs": [
        {
          "indexed": true,
          "internalType": "bytes32",
          "name": "role",
          "type": "bytes32"
        },
        {
          "indexed": true,
          "internalType": "bytes32",
          "name": "previousAdminRole",
          "type": "bytes32"
        },
        {
          "indexed": true,
          "internalType": "bytes32",
          "name": "newAdminRole",
          "type": "bytes32"
        }
      ],
      "name": "RoleAdminChanged",
      "type": "event"
    },
    {
      "anonymous": false,
      "inputs": [
        {
          "indexed": true,
          "internalType": "bytes32",
          "name": "role",
          "type": "bytes32"
        },
        {
          "indexed": true,
          "internalType": "address",
          "name": "account",
          "type": "address"
        },
        {
          "indexed": true,
          "internalType": "address",
          "name": "sender",
          "type": "address"
        }
      ],
      "name": "RoleGranted",
      "type": "event"
    },
    {
      "anonymous": false,
      "inputs": [
        {
          "indexed": true,
          "internalType": "bytes32",
          "name": "role",
          "type": "bytes32"
        },
        {
          "indexed": true,
          "internalType": "address",
          "name": "account",
          "type": "address"
        },
        {
          "indexed": true,
          "internalType": "address",
          "name": "sender",
          "type": "address"
        }
      ],
      "name": "RoleRevoked",
      "type": "event"
    },
    {
      "inputs": [],
      "name": "DEFAULT_ADMIN_ROLE",
      "outputs": [
        {
          "internalType": "bytes32",
          "name": "",
          "type": "bytes32"
        }
      ],
      "stateMutability": "view",
      "type": "function"
    },
    {
      "inputs": [
        {
          "internalType": "uint256[]",
          "name": "ids",
          "type": "uint256[]"
        }
      ],
      "name": "claimRewards",
      "outputs": [
        {
          "internalType": "uint256",
          "name": "",
          "type": "uint256"
        }
      ],
      "stateMutability": "nonpayable",
      "type": "function"
    },
    {
      "inputs": [
        {
          "internalType": "contract Token",
          "name": "pool",
          "type": "address"
        },
        {
          "internalType": "uint256",
          "name": "totalRewards",
          "type": "uint256"
        },
        {
          "internalType": "uint32",
          "name": "startTime",
          "type": "uint32"
        },
        {
          "internalType": "uint32",
          "name": "endTime",
          "type": "uint32"
        }
      ],
      "name": "createProgram",
      "outputs": [
        {
          "internalType": "uint256",
          "name": "",
          "type": "uint256"
        }
      ],
      "stateMutability": "nonpayable",
      "type": "function"
    },
    {
      "inputs": [
        {
          "internalType": "uint256",
          "name": "id",
          "type": "uint256"
        },
        {
          "internalType": "uint256",
          "name": "tokenAmount",
          "type": "uint256"
        }
      ],
      "name": "depositAndJoin",
      "outputs": [],
      "stateMutability": "payable",
      "type": "function"
    },
    {
      "inputs": [
        {
          "internalType": "bytes32",
          "name": "role",
          "type": "bytes32"
        }
      ],
      "name": "getRoleAdmin",
      "outputs": [
        {
          "internalType": "bytes32",
          "name": "",
          "type": "bytes32"
        }
      ],
      "stateMutability": "view",
      "type": "function"
    },
    {
      "inputs": [
        {
          "internalType": "bytes32",
          "name": "role",
          "type": "bytes32"
        },
        {
          "internalType": "uint256",
          "name": "index",
          "type": "uint256"
        }
      ],
      "name": "getRoleMember",
      "outputs": [
        {
          "internalType": "address",
          "name": "",
          "type": "address"
        }
      ],
      "stateMutability": "view",
      "type": "function"
    },
    {
      "inputs": [
        {
          "internalType": "bytes32",
          "name": "role",
          "type": "bytes32"
        }
      ],
      "name": "getRoleMemberCount",
      "outputs": [
        {
          "internalType": "uint256",
          "name": "",
          "type": "uint256"
        }
      ],
      "stateMutability": "view",
      "type": "function"
    },
    {
      "inputs": [
        {
          "internalType": "bytes32",
          "name": "role",
          "type": "bytes32"
        },
        {
          "internalType": "address",
          "name": "account",
          "type": "address"
        }
      ],
      "name": "grantRole",
      "outputs": [],
      "stateMutability": "nonpayable",
      "type": "function"
    },
    {
      "inputs": [
        {
          "internalType": "bytes32",
          "name": "role",
          "type": "bytes32"
        },
        {
          "internalType": "address",
          "name": "account",
          "type": "address"
        }
      ],
      "name": "hasRole",
      "outputs": [
        {
          "internalType": "bool",
          "name": "",
          "type": "bool"
        }
      ],
      "stateMutability": "view",
      "type": "function"
    },
    {
      "inputs": [],
      "name": "initialize",
      "outputs": [],
      "stateMutability": "nonpayable",
      "type": "function"
    },
    {
      "inputs": [
        {
          "internalType": "uint256",
          "name": "id",
          "type": "uint256"
        }
      ],
      "name": "isProgramActive",
      "outputs": [
        {
          "internalType": "bool",
          "name": "",
          "type": "bool"
        }
      ],
      "stateMutability": "view",
      "type": "function"
    },
    {
      "inputs": [
        {
          "internalType": "uint256",
          "name": "id",
          "type": "uint256"
        }
      ],
      "name": "isProgramPaused",
      "outputs": [
        {
          "internalType": "bool",
          "name": "",
          "type": "bool"
        }
      ],
      "stateMutability": "view",
      "type": "function"
    },
    {
      "inputs": [
        {
          "internalType": "uint256",
          "name": "id",
          "type": "uint256"
        },
        {
          "internalType": "uint256",
          "name": "poolTokenAmount",
          "type": "uint256"
        }
      ],
      "name": "join",
      "outputs": [],
      "stateMutability": "nonpayable",
      "type": "function"
    },
    {
      "inputs": [
        {
          "internalType": "contract Token",
          "name": "pool",
          "type": "address"
        }
      ],
      "name": "latestProgramId",
      "outputs": [
        {
          "internalType": "uint256",
          "name": "",
          "type": "uint256"
        }
      ],
      "stateMutability": "view",
      "type": "function"
    },
    {
      "inputs": [
        {
          "internalType": "uint256",
          "name": "id",
          "type": "uint256"
        },
        {
          "internalType": "uint256",
          "name": "poolTokenAmount",
          "type": "uint256"
        }
      ],
      "name": "leave",
      "outputs": [],
      "stateMutability": "nonpayable",
      "type": "function"
    },
    {
      "inputs": [
        {
          "internalType": "uint256",
          "name": "id",
          "type": "uint256"
        },
        {
          "internalType": "bool",
          "name": "pause",
          "type": "bool"
        }
      ],
      "name": "pauseProgram",
      "outputs": [],
      "stateMutability": "nonpayable",
      "type": "function"
    },
    {
      "inputs": [
        {
          "internalType": "address",
          "name": "provider",
          "type": "address"
        },
        {
          "internalType": "uint256[]",
          "name": "ids",
          "type": "uint256[]"
        }
      ],
      "name": "pendingRewards",
      "outputs": [
        {
          "internalType": "uint256",
          "name": "",
          "type": "uint256"
        }
      ],
      "stateMutability": "view",
      "type": "function"
    },
    {
      "inputs": [
        {
          "internalType": "bytes",
          "name": "data",
          "type": "bytes"
        }
      ],
      "name": "postUpgrade",
      "outputs": [],
      "stateMutability": "nonpayable",
      "type": "function"
    },
    {
      "inputs": [],
      "name": "programIds",
      "outputs": [
        {
          "internalType": "uint256[]",
          "name": "",
          "type": "uint256[]"
        }
      ],
      "stateMutability": "view",
      "type": "function"
    },
    {
      "inputs": [
        {
          "internalType": "uint256",
          "name": "id",
          "type": "uint256"
        }
      ],
      "name": "programRewards",
      "outputs": [
        {
          "components": [
            {
              "internalType": "uint32",
              "name": "lastUpdateTime",
              "type": "uint32"
            },
            {
              "internalType": "uint256",
              "name": "rewardPerToken",
              "type": "uint256"
            }
          ],
          "internalType": "struct Rewards",
          "name": "",
          "type": "tuple"
        }
      ],
      "stateMutability": "view",
      "type": "function"
    },
    {
      "inputs": [
        {
          "internalType": "uint256",
          "name": "id",
          "type": "uint256"
        }
      ],
      "name": "programStake",
      "outputs": [
        {
          "internalType": "uint256",
          "name": "",
          "type": "uint256"
        }
      ],
      "stateMutability": "view",
      "type": "function"
    },
    {
      "inputs": [
        {
          "internalType": "uint256[]",
          "name": "ids",
          "type": "uint256[]"
        }
      ],
      "name": "programs",
      "outputs": [
        {
          "components": [
            {
              "internalType": "uint256",
              "name": "id",
              "type": "uint256"
            },
            {
              "internalType": "contract Token",
              "name": "pool",
              "type": "address"
            },
            {
              "internalType": "contract IPoolToken",
              "name": "poolToken",
              "type": "address"
            },
            {
              "internalType": "contract Token",
              "name": "rewardsToken",
              "type": "address"
            },
            {
              "internalType": "bool",
              "name": "isPaused",
              "type": "bool"
            },
            {
              "internalType": "uint32",
              "name": "startTime",
              "type": "uint32"
            },
            {
              "internalType": "uint32",
              "name": "endTime",
              "type": "uint32"
            },
            {
              "internalType": "uint256",
              "name": "rewardRate",
              "type": "uint256"
            },
            {
              "internalType": "uint256",
              "name": "remainingRewards",
              "type": "uint256"
            }
          ],
          "internalType": "struct ProgramData[]",
          "name": "",
          "type": "tuple[]"
        }
      ],
      "stateMutability": "view",
      "type": "function"
    },
    {
      "inputs": [
        {
          "internalType": "address",
          "name": "provider",
          "type": "address"
        }
      ],
      "name": "providerProgramIds",
      "outputs": [
        {
          "internalType": "uint256[]",
          "name": "",
          "type": "uint256[]"
        }
      ],
      "stateMutability": "view",
      "type": "function"
    },
    {
      "inputs": [
        {
          "internalType": "address",
          "name": "provider",
          "type": "address"
        },
        {
          "internalType": "uint256",
          "name": "id",
          "type": "uint256"
        }
      ],
      "name": "providerRewards",
      "outputs": [
        {
          "components": [
            {
              "internalType": "uint256",
              "name": "rewardPerTokenPaid",
              "type": "uint256"
            },
            {
              "internalType": "uint256",
              "name": "pendingRewards",
              "type": "uint256"
            },
            {
              "internalType": "uint256",
              "name": "reserved0",
              "type": "uint256"
            },
            {
              "internalType": "uint256",
              "name": "stakedAmount",
              "type": "uint256"
            }
          ],
          "internalType": "struct ProviderRewards",
          "name": "",
          "type": "tuple"
        }
      ],
      "stateMutability": "view",
      "type": "function"
    },
    {
      "inputs": [
        {
          "internalType": "address",
          "name": "provider",
          "type": "address"
        },
        {
          "internalType": "uint256",
          "name": "id",
          "type": "uint256"
        }
      ],
      "name": "providerStake",
      "outputs": [
        {
          "internalType": "uint256",
          "name": "",
          "type": "uint256"
        }
      ],
      "stateMutability": "view",
      "type": "function"
    },
    {
      "inputs": [
        {
          "internalType": "bytes32",
          "name": "role",
          "type": "bytes32"
        },
        {
          "internalType": "address",
          "name": "account",
          "type": "address"
        }
      ],
      "name": "renounceRole",
      "outputs": [],
      "stateMutability": "nonpayable",
      "type": "function"
    },
    {
      "inputs": [
        {
          "internalType": "bytes32",
          "name": "role",
          "type": "bytes32"
        },
        {
          "internalType": "address",
          "name": "account",
          "type": "address"
        }
      ],
      "name": "revokeRole",
      "outputs": [],
      "stateMutability": "nonpayable",
      "type": "function"
    },
    {
      "inputs": [],
      "name": "roleAdmin",
      "outputs": [
        {
          "internalType": "bytes32",
          "name": "",
          "type": "bytes32"
        }
      ],
      "stateMutability": "pure",
      "type": "function"
    },
    {
      "inputs": [
        {
          "internalType": "uint256[]",
          "name": "ids",
          "type": "uint256[]"
        }
      ],
      "name": "stakeRewards",
      "outputs": [
        {
          "components": [
            {
              "internalType": "uint256",
              "name": "stakedRewardAmount",
              "type": "uint256"
            },
            {
              "internalType": "uint256",
              "name": "poolTokenAmount",
              "type": "uint256"
            }
          ],
          "internalType": "struct StakeAmounts",
          "name": "",
          "type": "tuple"
        }
      ],
      "stateMutability": "nonpayable",
      "type": "function"
    },
    {
      "inputs": [
        {
          "internalType": "bytes4",
          "name": "interfaceId",
          "type": "bytes4"
        }
      ],
      "name": "supportsInterface",
      "outputs": [
        {
          "internalType": "bool",
          "name": "",
          "type": "bool"
        }
      ],
      "stateMutability": "view",
      "type": "function"
    },
    {
      "inputs": [
        {
          "internalType": "uint256",
          "name": "id",
          "type": "uint256"
        }
      ],
      "name": "terminateProgram",
      "outputs": [],
      "stateMutability": "nonpayable",
      "type": "function"
    },
    {
      "inputs": [],
      "name": "version",
      "outputs": [
        {
          "internalType": "uint16",
          "name": "",
          "type": "uint16"
        }
      ],
      "stateMutability": "pure",
      "type": "function"
    }
  ],
  "transactionHash": "0x72a24af19d5ad000a85d3e26278e966608243e6080d88be9ae65d458001a7e34",
  "args": [
    "0xeEF417e1D5CC832e619ae18D2F140De2999dD4fB",
    "0x83E1814ba31F7ea95D216204BB45FE75Ce09b14F",
    "0xa489C2b5b36835A327851Ab917A80562B5AFC244",
    "0x48Fb253446873234F2fEBbF9BdeAA72d9d387f94",
    "0x02651E355D26f3506C1E644bA393FDD9Ac95EaCa"
  ],
  "numDeployments": 4,
  "solcInputHash": "59f2c5d31059f33dccaa4b5db9be6b3c",
  "bytecode": "0x6101406040523480156200001257600080fd5b5060405162004332380380620043328339810160408190526200003591620001c8565b84620000418162000187565b846200004d8162000187565b84620000598162000187565b84620000658162000187565b84620000718162000187565b6001600160a01b03808b1660805289811660a052881660c081905260408051637e062a3560e11b8152905163fc0c546a916004808201926020929091908290030181865afa158015620000c8573d6000803e3d6000fd5b505050506040513d601f19601f82011682018060405250810190620000ee919062000248565b6001600160a01b0390811660e05287811661010052604080516332f7ce0b60e21b815290519188169163cbdf382c916004808201926020929091908290030181865afa15801562000143573d6000803e3d6000fd5b505050506040513d601f19601f8201168201806040525081019062000169919062000248565b6001600160a01b031661012052506200026f98505050505050505050565b6001600160a01b038116620001af5760405163e6c4247b60e01b815260040160405180910390fd5b50565b6001600160a01b0381168114620001af57600080fd5b600080600080600060a08688031215620001e157600080fd5b8551620001ee81620001b2565b60208701519095506200020181620001b2565b60408701519094506200021481620001b2565b60608701519093506200022781620001b2565b60808701519092506200023a81620001b2565b809150509295509295909350565b6000602082840312156200025b57600080fd5b81516200026881620001b2565b9392505050565b60805160a05160c05160e051610100516101205161403b620002f7600039600061133a015260006123880152600081816108740152818161130e01528181611566015281816116e101526123470152600081816108050152610a1a0152600061137d015260008181611424015281816121870152818161228301526122bf015261403b6000f3fe6080604052600436106101e35760003560e01c806391d1485411610102578063b738735e11610095578063d547741f11610064578063d547741f1461067f578063e02ae0751461069f578063ec9fce80146106bf578063f8996cda146106d257600080fd5b8063b738735e146105f3578063ca15c8731461062a578063cb49042a1461064a578063d430bd951461066a57600080fd5b8063a217fddf116100d1578063a217fddf1461054b578063ae3df63e14610560578063b04188d714610580578063b1ab6324146105a057600080fd5b806391d14854146104bd57806393867fb5146104dd5780639833d052146104fe5780639aa51eb11461052b57600080fd5b80635eac62391161017a57806387a7433b1161014957806387a7433b146104175780638cd2403d146104375780638ea2b2eb146104575780639010d07c1461048557600080fd5b80635eac6239146103a2578063795f4b6f146103c257806379e66b46146103e25780638129fc1c1461040257600080fd5b80632f2ff15d116101b65780632f2ff15d1461031757806336568abe1461033957806345b564501461035957806354fd4d501461038657600080fd5b806301ffc9a7146101e8578063175dbe2a1461021d57806317e852ee14610258578063248a9ca3146102d9575b600080fd5b3480156101f457600080fd5b506102086102033660046138f0565b610719565b60405190151581526020015b60405180910390f35b34801561022957600080fd5b5061023d610238366004613966565b610744565b60408051825181526020928301519281019290925201610214565b34801561026457600080fd5b506102b86102733660046139a8565b604080518082019091526000808252602082015250600090815261013160209081526040918290208251808401909352805463ffffffff168352600101549082015290565b60408051825163ffffffff1681526020928301519281019290925201610214565b3480156102e557600080fd5b506103096102f43660046139a8565b60009081526097602052604090206001015490565b604051908152602001610214565b34801561032357600080fd5b506103376103323660046139d6565b6108bc565b005b34801561034557600080fd5b506103376103543660046139d6565b6108e7565b34801561036557600080fd5b50610379610374366004613a06565b610965565b6040516102149190613a23565b34801561039257600080fd5b5060405160048152602001610214565b3480156103ae57600080fd5b506103096103bd366004613966565b61098a565b3480156103ce57600080fd5b506102086103dd3660046139a8565b610a8d565b3480156103ee57600080fd5b506103376103fd366004613a67565b610b2e565b34801561040e57600080fd5b50610337610c18565b34801561042357600080fd5b50610309610432366004613a89565b610cd9565b34801561044357600080fd5b50610337610452366004613ade565b610e9d565b34801561046357600080fd5b506103096104723660046139a8565b6000908152610133602052604090205490565b34801561049157600080fd5b506104a56104a0366004613a67565b610ef3565b6040516001600160a01b039091168152602001610214565b3480156104c957600080fd5b506102086104d83660046139d6565b610f12565b3480156104e957600080fd5b5060008051602061400f833981519152610309565b34801561050a57600080fd5b5061051e610519366004613966565b610f3d565b6040516102149190613b50565b34801561053757600080fd5b506102086105463660046139a8565b6110f7565b34801561055757600080fd5b50610309600081565b34801561056c57600080fd5b5061030961057b366004613c34565b61119b565b34801561058c57600080fd5b5061033761059b366004613c91565b611744565b3480156105ac57600080fd5b506105c06105bb366004613cb6565b61188f565b60405161021491908151815260208083015190820152604080830151908201526060918201519181019190915260800190565b3480156105ff57600080fd5b5061030961060e366004613a06565b6001600160a01b03166000908152610130602052604090205490565b34801561063657600080fd5b506103096106453660046139a8565b611915565b34801561065657600080fd5b506103376106653660046139a8565b61192c565b34801561067657600080fd5b50610379611b1e565b34801561068b57600080fd5b5061033761069a3660046139d6565b611bc7565b3480156106ab57600080fd5b506103376106ba366004613a67565b611bed565b6103376106cd366004613a67565b611ccb565b3480156106de57600080fd5b506103096106ed366004613cb6565b6001600160a01b0391909116600090815261013260209081526040808320938352929052206003015490565b60006001600160e01b03198216635a05180f60e01b148061073e575061073e82611da9565b92915050565b604080518082019091526000808252602082015282826107648282611dde565b61078157604051638b4f6a5d60e01b815260040160405180910390fd5b6002603354036107ac5760405162461bcd60e51b81526004016107a390613ce2565b60405180910390fd5b600260335560006107c03387876001611e73565b9050806000036107e95760405180604001604052806000815260200160008152509350506108af565b6040516340c10f1960e01b8152306004820152602481018290527f00000000000000000000000000000000000000000000000000000000000000006001600160a01b0316906340c10f1990604401600060405180830381600087803b15801561085157600080fd5b505af1158015610865573d6000803e3d6000fd5b505050506000610899333060007f0000000000000000000000000000000000000000000000000000000000000000866120f9565b6040805180820190915292835260208301525092505b5050600160335592915050565b6000828152609760205260409020600101546108d881336123bc565b6108e28383612420565b505050565b6001600160a01b03811633146109575760405162461bcd60e51b815260206004820152602f60248201527f416363657373436f6e74726f6c3a2063616e206f6e6c792072656e6f756e636560448201526e103937b632b9903337b91039b2b63360891b60648201526084016107a3565b6109618282612442565b5050565b6001600160a01b038116600090815261012e6020526040902060609061073e90612464565b600082826109988282611dde565b6109b557604051638b4f6a5d60e01b815260040160405180910390fd5b6002603354036109d75760405162461bcd60e51b81526004016107a390613ce2565b600260335560006109ea33878784611e73565b9050806000036109fe5760009350506108af565b6040516340c10f1960e01b8152336004820152602481018290527f00000000000000000000000000000000000000000000000000000000000000006001600160a01b0316906340c10f1990604401600060405180830381600087803b158015610a6657600080fd5b505af1158015610a7a573d6000803e3d6000fd5b5050600160335550909695505050505050565b600081815261012f602090815260408083208151610120810183528154815260018201546001600160a01b039081169482019490945260028201548416928101929092526003810154928316606083015260ff600160a01b84041615156080830181905263ffffffff600160a81b8504811660a0850152600160c81b90940490931660c0830152600481015460e0830152600501546101009091015261073e565b80610b3881612471565b600260335403610b5a5760405162461bcd60e51b81526004016107a390613ce2565b60026033819055600084815261012f60209081526040918290208251610120810184528154815260018201546001600160a01b0390811693820193909352938101548216928401929092526003820154908116606084015260ff600160a01b8204161515608084015263ffffffff600160a81b8204811660a0850152600160c81b9091041660c0830152600481015460e083015260050154610100820152610c0181612492565b610c0d338285336124a4565b505060016033555050565b600054610100900460ff16610c335760005460ff1615610c37565b303b155b610c9a5760405162461bcd60e51b815260206004820152602e60248201527f496e697469616c697a61626c653a20636f6e747261637420697320616c72656160448201526d191e481a5b9a5d1a585b1a5e995960921b60648201526084016107a3565b600054610100900460ff16158015610cbc576000805461ffff19166101011790555b610cc4612604565b8015610cd6576000805461ff00191690555b50565b60008282610ce78282611dde565b610d0457604051638b4f6a5d60e01b815260040160405180910390fd5b6000805b85811015610e92576000878783818110610d2457610d24613d19565b60209081029290920135600081815261012f84526040908190208151610120810183528154815260018201546001600160a01b039081169682019690965260028201548616928101929092526003810154948516606083015260ff600160a01b8604161515608083015263ffffffff600160a81b8604811660a0840152600160c81b90950490941660c0820152600484015460e08201526005909301546101008401529250610dd4905081612645565b6000828152610131602090815260408083208151808301909252805463ffffffff1682526001015491810191909152610e0e908390612670565b6001600160a01b038c166000908152610132602090815260408083208784528252918290208251608081018452815481526001820154928101929092526002810154928201929092526003909101546060820152909150610e6f8282612747565b610e799087613d45565b9550505050508080610e8a90613d5d565b915050610d08565b509695505050505050565b60fb54600090610eb29061ffff166001613d76565b905061ffff8116600414610ed85760405162dc149f60e41b815260040160405180910390fd5b60fb805461ffff191661ffff83161790556108e28383612788565b600082815260c960205260408120610f0b90836127ea565b9392505050565b60009182526097602090815260408084206001600160a01b0393909316845291905290205460ff1690565b60608282610f4b8282611dde565b610f6857604051638b4f6a5d60e01b815260040160405180910390fd5b8360008167ffffffffffffffff811115610f8457610f84613d9c565b604051908082528060200260200182016040528015610ffb57816020015b604080516101208101825260008082526020808301829052928201819052606082018190526080820181905260a0820181905260c0820181905260e082018190526101008201528252600019909201910181610fa25790505b50905060005b82811015610e925761012f600089898481811061102057611020613d19565b602090810292909201358352508181019290925260409081016000208151610120810183528154815260018201546001600160a01b039081169482019490945260028201548416928101929092526003810154928316606083015260ff600160a01b8404161515608083015263ffffffff600160a81b8404811660a0840152600160c81b90930490921660c0820152600482015460e082015260059091015461010082015282518390839081106110d9576110d9613d19565b602002602001018190525080806110ef90613d5d565b915050611001565b600081815261012f602090815260408083208151610120810183528154815260018201546001600160a01b039081169482019490945260028201548416928101929092526003810154928316606083015260ff600160a01b8404161515608083015263ffffffff600160a81b8404811660a0840152600160c81b90930490921660c0820152600482015460e082015260059091015461010082015261073e906127f6565b6000846111a781612873565b846111b181612471565b6111c960008051602061400f8339815191523361289a565b6002603354036111eb5760405162461bcd60e51b81526004016107a390613ce2565b600260335563ffffffff85164263ffffffff161115801561121757508363ffffffff168563ffffffff16105b61123457604051633494a40d60e21b815260040160405180910390fd5b6001600160a01b0380881660009081526101306020908152604080832054835261012f82529182902082516101208101845281548152600182015485169281019290925260028101548416928201929092526003820154928316606082015260ff600160a01b8404161515608082015263ffffffff600160a81b8404811660a0830152600160c81b90930490921660c0830152600481015460e0830152600501546101008201526112e4906127f6565b156113025760405163119b4fd360e11b815260040160405180910390fd5b60006001600160a01b037f000000000000000000000000000000000000000000000000000000000000000081169089160361135e57507f00000000000000000000000000000000000000000000000000000000000000006114fe565b60405163b5af090f60e01b81526001600160a01b0389811660048301527f0000000000000000000000000000000000000000000000000000000000000000169063b5af090f90602401602060405180830381865afa1580156113c4573d6000803e3d6000fd5b505050506040513d601f19601f820116820180604052508101906113e89190613db2565b61140557604051630b094f2760e31b815260040160405180910390fd5b6040516309bca0e760e41b81526001600160a01b0389811660048301527f00000000000000000000000000000000000000000000000000000000000000001690639bca0e7090602401602060405180830381865afa15801561146b573d6000803e3d6000fd5b505050506040513d601f19601f8201168201806040525081019061148f9190613dcf565b604051635768adcf60e01b81526001600160a01b038a811660048301529190911690635768adcf90602401602060405180830381865afa1580156114d7573d6000803e3d6000fd5b505050506040513d601f19601f820116820180604052508101906114fb9190613dcf565b90505b61012d80546000918261151083613d5d565b90915550905060006115228888613dec565b6115329063ffffffff168a613e11565b90506040518061012001604052808381526020018b6001600160a01b03168152602001846001600160a01b031681526020017f00000000000000000000000000000000000000000000000000000000000000006001600160a01b031681526020016000151581526020018963ffffffff1681526020018863ffffffff16815260200182815260200189896115c69190613dec565b6115d69063ffffffff1684613e33565b9052600083815261012f6020908152604080832084518155848301516001820180546001600160a01b03199081166001600160a01b03938416179091558684015160028401805490921690831617905560608087015160038401805460808a015160a08b015160c08c01519487166001600160a81b031990931692909217600160a01b911515919091021767ffffffffffffffff60a81b1916600160a81b63ffffffff9283160263ffffffff60c81b191617600160c81b9382169390930292909217905560e08801516004850155610100909701516005909301929092558f811680865261013085529483902088905582518f81528e871694810194909452948c16918301919091527f0000000000000000000000000000000000000000000000000000000000000000909316928592917f70204e3426c19a2e5d89ede43650413e05c4bff5c407a138ae4056220dfee584910160405180910390a450600160335598975050505050505050565b61175c60008051602061400f8339815191523361289a565b600082815261012f60209081526040918290208251610120810184528154815260018201546001600160a01b039081169382019390935260028201548316938101939093526003810154918216606084015260ff600160a01b8304161515608084015263ffffffff600160a81b8304811660a0850152600160c81b90920490911660c0830152600481015460e083015260058101546101008301529061180190612645565b6003810154600160a01b900460ff16821515811515036118215750505050565b600382018054841515600160a01b0260ff60a01b19909116179055600182015460405185916001600160a01b0316907fab9ac7639863a852a4a3e27a672228529aae565d3b46c78b052c0cdd4d301e079061188190871515815260200190565b60405180910390a350505050565b6118ba6040518060800160405280600081526020016000815260200160008152602001600081525090565b506001600160a01b038216600090815261013260209081526040808320848452825291829020825160808101845281548152600182015492810192909252600281015492820192909252600390910154606082015292915050565b600081815260c96020526040812061073e906128c1565b61194460008051602061400f8339815191523361289a565b600081815261012f60209081526040918290208251610120810184528154815260018201546001600160a01b039081169382019390935260028201548316938101939093526003810154918216606084015260ff600160a01b8304161515608084015263ffffffff600160a81b8304811660a0850152600160c81b90920490911660c0830152600481015460e08301526005810154610100830152906119e9906128cb565b6001810180546001600160a01b0390811660009081526101306020908152604080832092909255600385015482516101208101845286548152945484169185019190915260028501548316918401919091529081166060830152600160a01b810460ff161515608083015263ffffffff600160a81b8204811660a0840152600160c81b9091041660c08201819052600483015460e0830152600583015461010083015290611a96906128fa565b826005016000828254611aa99190613e52565b9091555042905060038301805463ffffffff60c81b1916600160c81b63ffffffff938416021790556001830154604051918316825284916001600160a01b03909116907f4c5ec5fda26bd2e86fabd1effc4ecd5fa7305e78bfb39653cb76d06d690e5c3f9060200160405180910390a3505050565b60606000600161012d54611b329190613e52565b905060008167ffffffffffffffff811115611b4f57611b4f613d9c565b604051908082528060200260200182016040528015611b78578160200160208202803683370190505b50905060005b82811015611bc057611b91600182613d45565b828281518110611ba357611ba3613d19565b602090810291909101015280611bb881613d5d565b915050611b7e565b5092915050565b600082815260976020526040902060010154611be381336123bc565b6108e28383612442565b80611bf781612471565b600260335403611c195760405162461bcd60e51b81526004016107a390613ce2565b60026033819055600084815261012f60209081526040918290208251610120810184528154815260018201546001600160a01b0390811693820193909352938101548216928401929092526003820154908116606084015260ff600160a01b8204161515608084015263ffffffff600160a81b8204811660a0850152600160c81b9091041660c0830152600481015460e083015260050154610100820152611cc081612645565b610c0d338285612943565b80611cd581612471565b600260335403611cf75760405162461bcd60e51b81526004016107a390613ce2565b60026033819055600084815261012f60209081526040918290208251610120810184528154815260018201546001600160a01b0390811693820193909352938101548216928401929092526003820154908116606084015260ff600160a01b8204161515608084015263ffffffff600160a81b8204811660a0850152600160c81b9091041660c0830152600481015460e083015260050154610100820152611d9e81612492565b610c0d338285612ab1565b60006001600160e01b03198216637965db0b60e01b148061073e57506301ffc9a760e01b6001600160e01b031983161461073e565b6000805b82811015611e69576000611df7826001613d45565b90505b83811015611e5657848482818110611e1457611e14613d19565b90506020020135858584818110611e2d57611e2d613d19565b9050602002013503611e445760009250505061073e565b80611e4e81613d5d565b915050611dfa565b5080611e6181613d5d565b915050611de2565b5060019392505050565b600080805b848110156120ef57600061012f6000888885818110611e9957611e99613d19565b602090810292909201358352508181019290925260409081016000208151610120810183528154815260018201546001600160a01b039081169482019490945260028201548416928101929092526003810154928316606083015260ff600160a01b8404161515608083015263ffffffff600160a81b8404811660a0840152600160c81b90930490921660c0820152600482015460e08201526005909101546101008201529050611f4981612ad3565b6000611f558983612aff565b805190915015611fd7576101008201518151811015611f87576040516370ea9fa360e11b815260040160405180910390fd5b8151611f939082613e52565b61012f60008b8b88818110611faa57611faa613d19565b60209081029290920135835250810191909152604001600020600501558151611fd39086613d45565b9450505b611fe0826127f6565b158015611fef57506020810151155b1561201a5781516001600160a01b038a16600090815261012e6020526040902061201891612b4a565b505b851561207f57886001600160a01b0316826000015183602001516001600160a01b03167f3ff5725427623025e4ed0428d535b925785efd453edae6d008f98d194b919511846000015160405161207291815260200190565b60405180910390a46120da565b886001600160a01b0316826000015183602001516001600160a01b03167fdbfc25ed048cf0d97618bb0b4f8014b0042d668c4ae0c0b6c1ff4cd976de4d2884600001516040516120d191815260200190565b60405180910390a45b505080806120e790613d5d565b915050611e78565b5095945050505050565b600080600085612109578761210b565b305b90506001600160a01b03878116301415906121449087166001600160a01b031673eeeeeeeeeeeeeeeeeeeeeeeeeeeeeeeeeeeeeeee1490565b1561223a5780156121705784341015612170576040516342f7487960e11b815260040160405180910390fd5b60405163b3db428b60e01b81526001600160a01b037f0000000000000000000000000000000000000000000000000000000000000000169063b3db428b9087906121c29086908b908490600401613e69565b60206040518083038185885af11580156121e0573d6000803e3d6000fd5b50505050506040513d601f19601f820116820180604052508101906122059190613e8d565b925080801561221357508434115b15612235576122356122258634613e52565b6001600160a01b038a1690612b56565b6123af565b3415612259576040516342f7487960e11b815260040160405180910390fd5b8015612274576122746001600160a01b038716893088612c6f565b6122a86001600160a01b0387167f000000000000000000000000000000000000000000000000000000000000000087612cb1565b60405163b3db428b60e01b81526001600160a01b037f0000000000000000000000000000000000000000000000000000000000000000169063b3db428b906122f89085908a908a90600401613e69565b6020604051808303816000875af1158015612317573d6000803e3d6000fd5b505050506040513d601f19601f8201168201806040525081019061233b9190613e8d565b925086801561237657507f00000000000000000000000000000000000000000000000000000000000000006001600160a01b03908116908716145b156123af576123af6001600160a01b037f0000000000000000000000000000000000000000000000000000000000000000168a85612cee565b5090979650505050505050565b6123c68282610f12565b610961576123de816001600160a01b03166014612d51565b6123e9836020612d51565b6040516020016123fa929190613ed2565b60408051601f198184030181529082905262461bcd60e51b82526107a391600401613f47565b61242a8282612eed565b600082815260c9602052604090206108e29082612f73565b61244c8282612f88565b600082815260c9602052604090206108e29082612fef565b60606000610f0b83613004565b80600003610cd657604051637c946ed760e01b815260040160405180910390fd5b61249b816128cb565b610cd681612ad3565b60006124b08486613060565b8451600090815261013360205260408120805492935085929091906124d6908490613d45565b909155505060038101546124ea8482613d45565b60038301556001600160a01b03831630146125785784604001516001600160a01b03166323b872dd8430876040518463ffffffff1660e01b815260040161253393929190613e69565b6020604051808303816000875af1158015612552573d6000803e3d6000fd5b505050506040513d601f19601f820116820180604052508101906125769190613db2565b505b84516001600160a01b038716600090815261012e6020526040902061259c91613176565b50856001600160a01b0316856000015186602001516001600160a01b03167fb384d273de683d05b3d588d7a878620076988341c706ac72ec4f0129ab766b4f87856040516125f4929190918252602082015260400190565b60405180910390a4505050505050565b600054610100900460ff1661262b5760405162461bcd60e51b81526004016107a390613f7a565b612633613182565b61263b6131b1565b6126436131e8565b565b60208101516001600160a01b0316610cd65760405163b0ce759160e01b815260040160405180910390fd5b60a082015160009063ffffffff428116911681101561269357600091505061073e565b835160009081526101336020526040812054908190036126ba57505050602081015161073e565b60006126d0838760c0015163ffffffff16613217565b905060006126f28760a0015163ffffffff16876000015163ffffffff1661322d565b905082670de0b6b3a76400008860e00151838561270f9190613e52565b6127199190613e33565b6127239190613e33565b61272d9190613e11565b866020015161273c9190613d45565b979650505050505050565b8051600090670de0b6b3a7640000906127609085613e52565b836060015161276f9190613e33565b6127799190613e11565b8260200151610f0b9190613d45565b6000600161012d5461279a9190613e52565b905060005b818110156127e45760006127b4600183613d45565b600090815261012f60205260409020600301805460ff60a01b1916905550806127dc81613d5d565b91505061279f565b50505050565b6000610f0b838361323d565b602081015160009042906001600160a01b03161515801561282757508063ffffffff168360a0015163ffffffff1611155b801561284357508260c0015163ffffffff168163ffffffff1611155b8015610f0b575082516020808501516001600160a01b031660009081526101309091526040902054149392505050565b6001600160a01b038116610cd65760405163e6c4247b60e01b815260040160405180910390fd5b6128a48282610f12565b61096157604051634ca8886760e01b815260040160405180910390fd5b600061073e825490565b6128d481612645565b6128dd816127f6565b610cd657604051632f96a58b60e11b815260040160405180910390fd5b6000804290508063ffffffff168360c0015163ffffffff161161291e576000610f0b565b808360c0015161292e9190613dec565b63ffffffff168360e00151610f0b9190613e33565b600061294f8385613060565b835160009081526101336020526040812080549293508492909190612975908490613e52565b9091555050600381015460009061298d908490613e52565b60038301819055604085810151905163a9059cbb60e01b81526001600160a01b0388811660048301526024820187905292935091169063a9059cbb906044016020604051808303816000875af11580156129eb573d6000803e3d6000fd5b505050506040513d601f19601f82011682018060405250810190612a0f9190613db2565b5080158015612a2057506001820154155b15612a4b5783516001600160a01b038616600090815261012e60205260409020612a4991612b4a565b505b846001600160a01b0316846000015185602001516001600160a01b03167ff7b6a7abba49a8b2bc59e9bd80920efac54edc9ef14350a01a9e103344d877a08685604051612aa2929190918252602082015260400190565b60405180910390a45050505050565b6000612ac5848560018660200151866120f9565b90506127e4848483306124a4565b612adc81612645565b806080015115610cd6576040516317b6045560e21b815260040160405180910390fd5b60408051808201909152600080825260208201526000612b1f8385613060565b6001810180546000909155604080518082019091529081526003909101546020820152949350505050565b6000610f0b8383613267565b80471015612ba65760405162461bcd60e51b815260206004820152601d60248201527f416464726573733a20696e73756666696369656e742062616c616e636500000060448201526064016107a3565b6000826001600160a01b03168260405160006040518083038185875af1925050503d8060008114612bf3576040519150601f19603f3d011682016040523d82523d6000602084013e612bf8565b606091505b50509050806108e25760405162461bcd60e51b815260206004820152603a60248201527f416464726573733a20756e61626c6520746f2073656e642076616c75652c207260448201527f6563697069656e74206d6179206861766520726576657274656400000000000060648201526084016107a3565b801580612c98575073eeeeeeeeeeeeeeeeeeeeeeeeeeeeeeeeeeeeeeee6001600160a01b038516145b6127e4576127e46001600160a01b03851684848461335a565b73eeeeeeeeeeeeeeeeeeeeeeeeeeeeeeeeeeeeeeee6001600160a01b03841603612cda57505050565b6108e26001600160a01b038416838361337b565b6040516001600160a01b0383166024820152604481018290526108e290849063a9059cbb60e01b906064015b60408051601f198184030181529190526020810180516001600160e01b03166001600160e01b03199093169290921790915261343a565b60606000612d60836002613e33565b612d6b906002613d45565b67ffffffffffffffff811115612d8357612d83613d9c565b6040519080825280601f01601f191660200182016040528015612dad576020820181803683370190505b509050600360fc1b81600081518110612dc857612dc8613d19565b60200101906001600160f81b031916908160001a905350600f60fb1b81600181518110612df757612df7613d19565b60200101906001600160f81b031916908160001a9053506000612e1b846002613e33565b612e26906001613d45565b90505b6001811115612e9e576f181899199a1a9b1b9c1cb0b131b232b360811b85600f1660108110612e5a57612e5a613d19565b1a60f81b828281518110612e7057612e70613d19565b60200101906001600160f81b031916908160001a90535060049490941c93612e9781613fc5565b9050612e29565b508315610f0b5760405162461bcd60e51b815260206004820181905260248201527f537472696e67733a20686578206c656e67746820696e73756666696369656e7460448201526064016107a3565b612ef78282610f12565b6109615760008281526097602090815260408083206001600160a01b03851684529091529020805460ff19166001179055612f2f3390565b6001600160a01b0316816001600160a01b0316837f2f8788117e7eff1d82e926ec794901d17c78024a50270940304540a733656f0d60405160405180910390a45050565b6000610f0b836001600160a01b03841661350c565b612f928282610f12565b156109615760008281526097602090815260408083206001600160a01b0385168085529252808320805460ff1916905551339285917ff6391f5c32d9c69d2a47ea670b442974b53935d1edc7fd64eb21e047a839171b9190a45050565b6000610f0b836001600160a01b038416613267565b60608160000180548060200260200160405190810160405280929190818152602001828054801561305457602002820191906000526020600020905b815481526020019060010190808311613040575b50505050509050919050565b81516000908152610131602090815260408083208151808301909252805463ffffffff168252600181015492820192909252829061309f908690612670565b9050816001015481146130b457600182018190555b60006130d04263ffffffff168760c0015163ffffffff16613217565b835490915063ffffffff808316911610156130f957825463ffffffff191663ffffffff82161783555b6001600160a01b038516600090815261013260209081526040808320895184528252808320815160808101835281548152600182015493810193909352600281015491830191909152600381015460608301529190613159908590612747565b9050801561316957600182018190555b5091825550949350505050565b6000610f0b838361350c565b600054610100900460ff166131a95760405162461bcd60e51b81526004016107a390613f7a565b61264361355b565b600054610100900460ff166131d85760405162461bcd60e51b81526004016107a390613f7a565b6131e0613589565b6126436135b0565b600054610100900460ff1661320f5760405162461bcd60e51b81526004016107a390613f7a565b600161012d55565b60008183106132265781610f0b565b5090919050565b6000818310156132265781610f0b565b600082600001828154811061325457613254613d19565b9060005260206000200154905092915050565b6000818152600183016020526040812054801561335057600061328b600183613e52565b855490915060009061329f90600190613e52565b90508181146133045760008660000182815481106132bf576132bf613d19565b90600052602060002001549050808760000184815481106132e2576132e2613d19565b6000918252602080832090910192909255918252600188019052604090208390555b855486908061331557613315613fdc565b60019003818190600052602060002001600090559055856001016000868152602001908152602001600020600090556001935050505061073e565b600091505061073e565b6127e4846323b872dd60e01b858585604051602401612d1a93929190613e69565b8060000361338857505050565b604051636eb1769f60e11b81523060048201526001600160a01b0383811660248301526000919085169063dd62ed3e90604401602060405180830381865afa1580156133d8573d6000803e3d6000fd5b505050506040513d601f19601f820116820180604052508101906133fc9190613e8d565b905081811061340b5750505050565b8015613426576134266001600160a01b038516846000613615565b6127e46001600160a01b0385168484613615565b600061348f826040518060400160405280602081526020017f5361666545524332303a206c6f772d6c6576656c2063616c6c206661696c6564815250856001600160a01b031661372a9092919063ffffffff16565b8051909150156108e257808060200190518101906134ad9190613db2565b6108e25760405162461bcd60e51b815260206004820152602a60248201527f5361666545524332303a204552433230206f7065726174696f6e20646964206e6044820152691bdd081cdd58d8d9595960b21b60648201526084016107a3565b60008181526001830160205260408120546135535750815460018181018455600084815260208082209093018490558454848252828601909352604090209190915561073e565b50600061073e565b600054610100900460ff166135825760405162461bcd60e51b81526004016107a390613f7a565b6001603355565b600054610100900460ff166126435760405162461bcd60e51b81526004016107a390613f7a565b600054610100900460ff166135d75760405162461bcd60e51b81526004016107a390613f7a565b60fb805461ffff191660011790556135fd60008051602061400f83398151915280613741565b61264360008051602061400f8339815191523361378c565b80158061368f5750604051636eb1769f60e11b81523060048201526001600160a01b03838116602483015284169063dd62ed3e90604401602060405180830381865afa158015613669573d6000803e3d6000fd5b505050506040513d601f19601f8201168201806040525081019061368d9190613e8d565b155b6136fa5760405162461bcd60e51b815260206004820152603660248201527f5361666545524332303a20617070726f76652066726f6d206e6f6e2d7a65726f60448201527520746f206e6f6e2d7a65726f20616c6c6f77616e636560501b60648201526084016107a3565b6040516001600160a01b0383166024820152604481018290526108e290849063095ea7b360e01b90606401612d1a565b60606137398484600085613796565b949350505050565b600082815260976020526040808220600101805490849055905190918391839186917fbd79b86ffe0ab8e8776151514217cd7cacd52c909f66475c3af44e129f0b00ff9190a4505050565b6109618282612420565b6060824710156137f75760405162461bcd60e51b815260206004820152602660248201527f416464726573733a20696e73756666696369656e742062616c616e636520666f6044820152651c8818d85b1b60d21b60648201526084016107a3565b6001600160a01b0385163b61384e5760405162461bcd60e51b815260206004820152601d60248201527f416464726573733a2063616c6c20746f206e6f6e2d636f6e747261637400000060448201526064016107a3565b600080866001600160a01b0316858760405161386a9190613ff2565b60006040518083038185875af1925050503d80600081146138a7576040519150601f19603f3d011682016040523d82523d6000602084013e6138ac565b606091505b509150915061273c828286606083156138c6575081610f0b565b8251156138d65782518084602001fd5b8160405162461bcd60e51b81526004016107a39190613f47565b60006020828403121561390257600080fd5b81356001600160e01b031981168114610f0b57600080fd5b60008083601f84011261392c57600080fd5b50813567ffffffffffffffff81111561394457600080fd5b6020830191508360208260051b850101111561395f57600080fd5b9250929050565b6000806020838503121561397957600080fd5b823567ffffffffffffffff81111561399057600080fd5b61399c8582860161391a565b90969095509350505050565b6000602082840312156139ba57600080fd5b5035919050565b6001600160a01b0381168114610cd657600080fd5b600080604083850312156139e957600080fd5b8235915060208301356139fb816139c1565b809150509250929050565b600060208284031215613a1857600080fd5b8135610f0b816139c1565b6020808252825182820181905260009190848201906040850190845b81811015613a5b57835183529284019291840191600101613a3f565b50909695505050505050565b60008060408385031215613a7a57600080fd5b50508035926020909101359150565b600080600060408486031215613a9e57600080fd5b8335613aa9816139c1565b9250602084013567ffffffffffffffff811115613ac557600080fd5b613ad18682870161391a565b9497909650939450505050565b60008060208385031215613af157600080fd5b823567ffffffffffffffff80821115613b0957600080fd5b818501915085601f830112613b1d57600080fd5b813581811115613b2c57600080fd5b866020828501011115613b3e57600080fd5b60209290920196919550909350505050565b602080825282518282018190526000919060409081850190868401855b82811015613c0e57815180518552868101516001600160a01b03168786015285810151613ba4878701826001600160a01b03169052565b506060818101516001600160a01b03169086015260808082015115159086015260a08082015163ffffffff9081169187019190915260c0808301519091169086015260e0808201519086015261010090810151908501526101209093019290850190600101613b6d565b5091979650505050505050565b803563ffffffff81168114613c2f57600080fd5b919050565b60008060008060808587031215613c4a57600080fd5b8435613c55816139c1565b935060208501359250613c6a60408601613c1b565b9150613c7860608601613c1b565b905092959194509250565b8015158114610cd657600080fd5b60008060408385031215613ca457600080fd5b8235915060208301356139fb81613c83565b60008060408385031215613cc957600080fd5b8235613cd4816139c1565b946020939093013593505050565b6020808252601f908201527f5265656e7472616e637947756172643a207265656e7472616e742063616c6c00604082015260600190565b634e487b7160e01b600052603260045260246000fd5b634e487b7160e01b600052601160045260246000fd5b60008219821115613d5857613d58613d2f565b500190565b600060018201613d6f57613d6f613d2f565b5060010190565b600061ffff808316818516808303821115613d9357613d93613d2f565b01949350505050565b634e487b7160e01b600052604160045260246000fd5b600060208284031215613dc457600080fd5b8151610f0b81613c83565b600060208284031215613de157600080fd5b8151610f0b816139c1565b600063ffffffff83811690831681811015613e0957613e09613d2f565b039392505050565b600082613e2e57634e487b7160e01b600052601260045260246000fd5b500490565b6000816000190483118215151615613e4d57613e4d613d2f565b500290565b600082821015613e6457613e64613d2f565b500390565b6001600160a01b039384168152919092166020820152604081019190915260600190565b600060208284031215613e9f57600080fd5b5051919050565b60005b83811015613ec1578181015183820152602001613ea9565b838111156127e45750506000910152565b7f416363657373436f6e74726f6c3a206163636f756e7420000000000000000000815260008351613f0a816017850160208801613ea6565b7001034b99036b4b9b9b4b733903937b6329607d1b6017918401918201528351613f3b816028840160208801613ea6565b01602801949350505050565b6020815260008251806020840152613f66816040850160208701613ea6565b601f01601f19169190910160400192915050565b6020808252602b908201527f496e697469616c697a61626c653a20636f6e7472616374206973206e6f74206960408201526a6e697469616c697a696e6760a81b606082015260800190565b600081613fd457613fd4613d2f565b506000190190565b634e487b7160e01b600052603160045260246000fd5b60008251614004818460208701613ea6565b919091019291505056fe2172861495e7b85edac73e3cd5fbb42dd675baadf627720e687bcfdaca025096a164736f6c634300080d000a",
  "devdoc": {
    "details": "Standard Rewards contract",
    "events": {
      "ProgramCreated(address,uint256,address,uint256,uint32,uint32)": {
        "details": "triggered when a program is created"
      },
      "ProgramPaused(address,uint256,bool)": {
        "details": "triggered when a program is paused/resumed"
      },
      "ProgramTerminated(address,uint256,uint32)": {
        "details": "triggered when a program is terminated prematurely"
      },
      "ProviderJoined(address,uint256,address,uint256,uint256)": {
        "details": "triggered when a provider joins a program"
      },
      "ProviderLeft(address,uint256,address,uint256,uint256)": {
        "details": "triggered when a provider leaves a program (even if partially)"
      },
      "RewardsClaimed(address,uint256,address,uint256)": {
        "details": "triggered when pending rewards are being claimed"
      },
      "RewardsStaked(address,uint256,address,uint256)": {
        "details": "triggered when pending rewards are being staked"
      }
    },
    "kind": "dev",
    "methods": {
      "claimRewards(uint256[])": {
        "details": "claims rewards and returns the claimed reward amount"
      },
      "constructor": {
        "details": "a \"virtual\" constructor that is only used to set immutable state variables"
      },
      "createProgram(address,uint256,uint32,uint32)": {
        "details": "creates a program for a pool and returns its ID requirements: - the caller must be the admin of the contract - the pool must not have an active program"
      },
      "depositAndJoin(uint256,uint256)": {
        "details": "deposits and adds provider's stake to the program requirements: - the caller must have approved the network contract to transfer the tokens its behalf (except for in the   native token case)"
      },
      "getRoleAdmin(bytes32)": {
        "details": "Returns the admin role that controls `role`. See {grantRole} and {revokeRole}. To change a role's admin, use {_setRoleAdmin}."
      },
      "getRoleMember(bytes32,uint256)": {
        "details": "Returns one of the accounts that have `role`. `index` must be a value between 0 and {getRoleMemberCount}, non-inclusive. Role bearers are not sorted in any particular way, and their ordering may change at any point. WARNING: When using {getRoleMember} and {getRoleMemberCount}, make sure you perform all queries on the same block. See the following https://forum.openzeppelin.com/t/iterating-over-elements-on-enumerableset-in-openzeppelin-contracts/2296[forum post] for more information."
      },
      "getRoleMemberCount(bytes32)": {
        "details": "Returns the number of accounts that have `role`. Can be used together with {getRoleMember} to enumerate all bearers of a role."
      },
      "grantRole(bytes32,address)": {
        "details": "Grants `role` to `account`. If `account` had not been already granted `role`, emits a {RoleGranted} event. Requirements: - the caller must have ``role``'s admin role."
      },
      "hasRole(bytes32,address)": {
        "details": "Returns `true` if `account` has been granted `role`."
      },
      "initialize()": {
        "details": "fully initializes the contract and its parents"
      },
      "isProgramActive(uint256)": {
        "details": "returns whether the specified program is active"
      },
      "isProgramPaused(uint256)": {
        "details": "returns whether the specified program is paused"
      },
      "join(uint256,uint256)": {
        "details": "adds a provider to the program requirements: - the caller must have approved the contract to transfer pool tokens on its behalf"
      },
      "latestProgramId(address)": {
        "details": "returns the ID of the latest program for a given pool (or 0 if no program is currently set)"
      },
      "leave(uint256,uint256)": {
        "details": "removes (some of) provider's stake from the program requirements: - the caller must have specified a valid and unused EIP712 typed signature"
      },
      "pauseProgram(uint256,bool)": {
        "details": "pauses/resumes a program requirements: - the caller must be the admin of the contract"
      },
      "pendingRewards(address,uint256[])": {
        "details": "returns provider's pending rewards requirements: - the specified program ids array needs to consist from unique and existing program ids with the same reward   token"
      },
      "postUpgrade(bytes)": {
        "details": "performs post-upgrade initialization requirements: - this must can be called only once per-upgrade"
      },
      "programIds()": {
        "details": "returns all program ids"
      },
      "programRewards(uint256)": {
        "details": "returns program rewards"
      },
      "programStake(uint256)": {
        "details": "returns the total staked amount in a specific program"
      },
      "programs(uint256[])": {
        "details": "returns program data for each specified program id"
      },
      "providerProgramIds(address)": {
        "details": "returns all the program ids that the provider participates in"
      },
      "providerRewards(address,uint256)": {
        "details": "returns provider rewards"
      },
      "providerStake(address,uint256)": {
        "details": "returns the total staked amount of a specific provider in a specific program"
      },
      "renounceRole(bytes32,address)": {
        "details": "Revokes `role` from the calling account. Roles are often managed via {grantRole} and {revokeRole}: this function's purpose is to provide a mechanism for accounts to lose their privileges if they are compromised (such as when a trusted device is misplaced). If the calling account had been revoked `role`, emits a {RoleRevoked} event. Requirements: - the caller must be `account`."
      },
      "revokeRole(bytes32,address)": {
        "details": "Revokes `role` from `account`. If `account` had been granted `role`, emits a {RoleRevoked} event. Requirements: - the caller must have ``role``'s admin role."
      },
      "roleAdmin()": {
        "details": "returns the admin role"
      },
      "stakeRewards(uint256[])": {
        "details": "claims and stake rewards and returns the claimed reward amount and the received pool token amount requirements: - the specified program ids array needs to consist from unique and existing program ids with the same reward   token - the rewards token must have been whitelisted with an existing pool"
      },
      "supportsInterface(bytes4)": {
        "details": "See {IERC165-supportsInterface}."
      },
      "terminateProgram(uint256)": {
        "details": "terminates a rewards program requirements: - the caller must be the admin of the contract - the program must exist and be the active program for its pool"
      }
    },
    "version": 1
  },
  "userdoc": {
    "kind": "user",
    "methods": {},
    "version": 1
  },
  "storageLayout": {
    "storage": [
      {
        "astId": 644,
        "contract": "contracts/rewards/StandardRewards.sol:StandardRewards",
        "label": "_initialized",
        "offset": 0,
        "slot": "0",
        "type": "t_bool"
      },
      {
        "astId": 647,
        "contract": "contracts/rewards/StandardRewards.sol:StandardRewards",
        "label": "_initializing",
        "offset": 1,
        "slot": "0",
        "type": "t_bool"
      },
      {
        "astId": 1165,
        "contract": "contracts/rewards/StandardRewards.sol:StandardRewards",
        "label": "__gap",
        "offset": 0,
        "slot": "1",
        "type": "t_array(t_uint256)50_storage"
      },
      {
        "astId": 836,
        "contract": "contracts/rewards/StandardRewards.sol:StandardRewards",
        "label": "_status",
        "offset": 0,
        "slot": "51",
        "type": "t_uint256"
      },
      {
        "astId": 880,
        "contract": "contracts/rewards/StandardRewards.sol:StandardRewards",
        "label": "__gap",
        "offset": 0,
        "slot": "52",
        "type": "t_array(t_uint256)49_storage"
      },
      {
        "astId": 1412,
        "contract": "contracts/rewards/StandardRewards.sol:StandardRewards",
        "label": "__gap",
        "offset": 0,
        "slot": "101",
        "type": "t_array(t_uint256)50_storage"
      },
      {
        "astId": 250,
        "contract": "contracts/rewards/StandardRewards.sol:StandardRewards",
        "label": "_roles",
        "offset": 0,
        "slot": "151",
        "type": "t_mapping(t_bytes32,t_struct(RoleData)245_storage)"
      },
      {
        "astId": 538,
        "contract": "contracts/rewards/StandardRewards.sol:StandardRewards",
        "label": "__gap",
        "offset": 0,
        "slot": "152",
        "type": "t_array(t_uint256)49_storage"
      },
      {
        "astId": 99,
        "contract": "contracts/rewards/StandardRewards.sol:StandardRewards",
        "label": "_roleMembers",
        "offset": 0,
        "slot": "201",
        "type": "t_mapping(t_bytes32,t_struct(AddressSet)1737_storage)"
      },
      {
        "astId": 209,
        "contract": "contracts/rewards/StandardRewards.sol:StandardRewards",
        "label": "__gap",
        "offset": 0,
        "slot": "202",
        "type": "t_array(t_uint256)49_storage"
      },
      {
        "astId": 31682,
        "contract": "contracts/rewards/StandardRewards.sol:StandardRewards",
        "label": "_initializations",
        "offset": 0,
        "slot": "251",
        "type": "t_uint16"
      },
      {
        "astId": 31688,
        "contract": "contracts/rewards/StandardRewards.sol:StandardRewards",
        "label": "__gap",
        "offset": 0,
        "slot": "252",
        "type": "t_array(t_uint256)49_storage"
      },
      {
        "astId": 27052,
        "contract": "contracts/rewards/StandardRewards.sol:StandardRewards",
        "label": "_nextProgramId",
        "offset": 0,
        "slot": "301",
        "type": "t_uint256"
      },
      {
        "astId": 27057,
        "contract": "contracts/rewards/StandardRewards.sol:StandardRewards",
        "label": "_programIdsByProvider",
        "offset": 0,
        "slot": "302",
        "type": "t_mapping(t_address,t_struct(UintSet)1894_storage)"
      },
      {
        "astId": 27062,
        "contract": "contracts/rewards/StandardRewards.sol:StandardRewards",
        "label": "_programs",
        "offset": 0,
        "slot": "303",
        "type": "t_mapping(t_uint256,t_struct(ProgramData)29242_storage)"
      },
      {
        "astId": 27067,
        "contract": "contracts/rewards/StandardRewards.sol:StandardRewards",
        "label": "_latestProgramIdByPool",
        "offset": 0,
        "slot": "304",
        "type": "t_mapping(t_contract(Token)29554,t_uint256)"
      },
      {
        "astId": 27072,
        "contract": "contracts/rewards/StandardRewards.sol:StandardRewards",
        "label": "_programRewards",
        "offset": 0,
        "slot": "305",
        "type": "t_mapping(t_uint256,t_struct(Rewards)29220_storage)"
      },
      {
        "astId": 27079,
        "contract": "contracts/rewards/StandardRewards.sol:StandardRewards",
        "label": "_providerRewards",
        "offset": 0,
        "slot": "306",
        "type": "t_mapping(t_address,t_mapping(t_uint256,t_struct(ProviderRewards)29251_storage))"
      },
      {
        "astId": 27083,
        "contract": "contracts/rewards/StandardRewards.sol:StandardRewards",
        "label": "_programStakes",
        "offset": 0,
        "slot": "307",
        "type": "t_mapping(t_uint256,t_uint256)"
      },
      {
        "astId": 27085,
        "contract": "contracts/rewards/StandardRewards.sol:StandardRewards",
        "label": "_deprecated0",
        "offset": 0,
        "slot": "308",
        "type": "t_uint256"
      },
      {
        "astId": 27091,
        "contract": "contracts/rewards/StandardRewards.sol:StandardRewards",
        "label": "__gap",
        "offset": 0,
        "slot": "309",
        "type": "t_array(t_uint256)42_storage"
      }
    ],
    "types": {
      "t_address": {
        "encoding": "inplace",
        "label": "address",
        "numberOfBytes": "20"
      },
      "t_array(t_bytes32)dyn_storage": {
        "base": "t_bytes32",
        "encoding": "dynamic_array",
        "label": "bytes32[]",
        "numberOfBytes": "32"
      },
      "t_array(t_uint256)42_storage": {
        "base": "t_uint256",
        "encoding": "inplace",
        "label": "uint256[42]",
        "numberOfBytes": "1344"
      },
      "t_array(t_uint256)49_storage": {
        "base": "t_uint256",
        "encoding": "inplace",
        "label": "uint256[49]",
        "numberOfBytes": "1568"
      },
      "t_array(t_uint256)50_storage": {
        "base": "t_uint256",
        "encoding": "inplace",
        "label": "uint256[50]",
        "numberOfBytes": "1600"
      },
      "t_bool": {
        "encoding": "inplace",
        "label": "bool",
        "numberOfBytes": "1"
      },
      "t_bytes32": {
        "encoding": "inplace",
        "label": "bytes32",
        "numberOfBytes": "32"
      },
      "t_contract(IPoolToken)24480": {
        "encoding": "inplace",
        "label": "contract IPoolToken",
        "numberOfBytes": "20"
      },
      "t_contract(Token)29554": {
        "encoding": "inplace",
        "label": "contract Token",
        "numberOfBytes": "20"
      },
      "t_mapping(t_address,t_bool)": {
        "encoding": "mapping",
        "key": "t_address",
        "label": "mapping(address => bool)",
        "numberOfBytes": "32",
        "value": "t_bool"
      },
      "t_mapping(t_address,t_mapping(t_uint256,t_struct(ProviderRewards)29251_storage))": {
        "encoding": "mapping",
        "key": "t_address",
        "label": "mapping(address => mapping(uint256 => struct ProviderRewards))",
        "numberOfBytes": "32",
        "value": "t_mapping(t_uint256,t_struct(ProviderRewards)29251_storage)"
      },
      "t_mapping(t_address,t_struct(UintSet)1894_storage)": {
        "encoding": "mapping",
        "key": "t_address",
        "label": "mapping(address => struct EnumerableSetUpgradeable.UintSet)",
        "numberOfBytes": "32",
        "value": "t_struct(UintSet)1894_storage"
      },
      "t_mapping(t_bytes32,t_struct(AddressSet)1737_storage)": {
        "encoding": "mapping",
        "key": "t_bytes32",
        "label": "mapping(bytes32 => struct EnumerableSetUpgradeable.AddressSet)",
        "numberOfBytes": "32",
        "value": "t_struct(AddressSet)1737_storage"
      },
      "t_mapping(t_bytes32,t_struct(RoleData)245_storage)": {
        "encoding": "mapping",
        "key": "t_bytes32",
        "label": "mapping(bytes32 => struct AccessControlUpgradeable.RoleData)",
        "numberOfBytes": "32",
        "value": "t_struct(RoleData)245_storage"
      },
      "t_mapping(t_bytes32,t_uint256)": {
        "encoding": "mapping",
        "key": "t_bytes32",
        "label": "mapping(bytes32 => uint256)",
        "numberOfBytes": "32",
        "value": "t_uint256"
      },
      "t_mapping(t_contract(Token)29554,t_uint256)": {
        "encoding": "mapping",
        "key": "t_contract(Token)29554",
        "label": "mapping(contract Token => uint256)",
        "numberOfBytes": "32",
        "value": "t_uint256"
      },
      "t_mapping(t_uint256,t_struct(ProgramData)29242_storage)": {
        "encoding": "mapping",
        "key": "t_uint256",
        "label": "mapping(uint256 => struct ProgramData)",
        "numberOfBytes": "32",
        "value": "t_struct(ProgramData)29242_storage"
      },
      "t_mapping(t_uint256,t_struct(ProviderRewards)29251_storage)": {
        "encoding": "mapping",
        "key": "t_uint256",
        "label": "mapping(uint256 => struct ProviderRewards)",
        "numberOfBytes": "32",
        "value": "t_struct(ProviderRewards)29251_storage"
      },
      "t_mapping(t_uint256,t_struct(Rewards)29220_storage)": {
        "encoding": "mapping",
        "key": "t_uint256",
        "label": "mapping(uint256 => struct Rewards)",
        "numberOfBytes": "32",
        "value": "t_struct(Rewards)29220_storage"
      },
      "t_mapping(t_uint256,t_uint256)": {
        "encoding": "mapping",
        "key": "t_uint256",
        "label": "mapping(uint256 => uint256)",
        "numberOfBytes": "32",
        "value": "t_uint256"
      },
      "t_struct(AddressSet)1737_storage": {
        "encoding": "inplace",
        "label": "struct EnumerableSetUpgradeable.AddressSet",
        "members": [
          {
            "astId": 1736,
            "contract": "contracts/rewards/StandardRewards.sol:StandardRewards",
            "label": "_inner",
            "offset": 0,
            "slot": "0",
            "type": "t_struct(Set)1436_storage"
          }
        ],
        "numberOfBytes": "64"
      },
      "t_struct(ProgramData)29242_storage": {
        "encoding": "inplace",
        "label": "struct ProgramData",
        "members": [
          {
            "astId": 29222,
            "contract": "contracts/rewards/StandardRewards.sol:StandardRewards",
            "label": "id",
            "offset": 0,
            "slot": "0",
            "type": "t_uint256"
          },
          {
            "astId": 29225,
            "contract": "contracts/rewards/StandardRewards.sol:StandardRewards",
            "label": "pool",
            "offset": 0,
            "slot": "1",
            "type": "t_contract(Token)29554"
          },
          {
            "astId": 29228,
            "contract": "contracts/rewards/StandardRewards.sol:StandardRewards",
            "label": "poolToken",
            "offset": 0,
            "slot": "2",
            "type": "t_contract(IPoolToken)24480"
          },
          {
            "astId": 29231,
            "contract": "contracts/rewards/StandardRewards.sol:StandardRewards",
            "label": "rewardsToken",
            "offset": 0,
            "slot": "3",
            "type": "t_contract(Token)29554"
          },
          {
            "astId": 29233,
            "contract": "contracts/rewards/StandardRewards.sol:StandardRewards",
            "label": "isPaused",
            "offset": 20,
            "slot": "3",
            "type": "t_bool"
          },
          {
            "astId": 29235,
            "contract": "contracts/rewards/StandardRewards.sol:StandardRewards",
            "label": "startTime",
            "offset": 21,
            "slot": "3",
            "type": "t_uint32"
          },
          {
            "astId": 29237,
            "contract": "contracts/rewards/StandardRewards.sol:StandardRewards",
            "label": "endTime",
            "offset": 25,
            "slot": "3",
            "type": "t_uint32"
          },
          {
            "astId": 29239,
            "contract": "contracts/rewards/StandardRewards.sol:StandardRewards",
            "label": "rewardRate",
            "offset": 0,
            "slot": "4",
            "type": "t_uint256"
          },
          {
            "astId": 29241,
            "contract": "contracts/rewards/StandardRewards.sol:StandardRewards",
            "label": "remainingRewards",
            "offset": 0,
            "slot": "5",
            "type": "t_uint256"
          }
        ],
        "numberOfBytes": "192"
      },
      "t_struct(ProviderRewards)29251_storage": {
        "encoding": "inplace",
        "label": "struct ProviderRewards",
        "members": [
          {
            "astId": 29244,
            "contract": "contracts/rewards/StandardRewards.sol:StandardRewards",
            "label": "rewardPerTokenPaid",
            "offset": 0,
            "slot": "0",
            "type": "t_uint256"
          },
          {
            "astId": 29246,
            "contract": "contracts/rewards/StandardRewards.sol:StandardRewards",
            "label": "pendingRewards",
            "offset": 0,
            "slot": "1",
            "type": "t_uint256"
          },
          {
            "astId": 29248,
            "contract": "contracts/rewards/StandardRewards.sol:StandardRewards",
            "label": "reserved0",
            "offset": 0,
            "slot": "2",
            "type": "t_uint256"
          },
          {
            "astId": 29250,
            "contract": "contracts/rewards/StandardRewards.sol:StandardRewards",
            "label": "stakedAmount",
            "offset": 0,
            "slot": "3",
            "type": "t_uint256"
          }
        ],
        "numberOfBytes": "128"
      },
      "t_struct(Rewards)29220_storage": {
        "encoding": "inplace",
        "label": "struct Rewards",
        "members": [
          {
            "astId": 29217,
            "contract": "contracts/rewards/StandardRewards.sol:StandardRewards",
            "label": "lastUpdateTime",
            "offset": 0,
            "slot": "0",
            "type": "t_uint32"
          },
          {
            "astId": 29219,
            "contract": "contracts/rewards/StandardRewards.sol:StandardRewards",
            "label": "rewardPerToken",
            "offset": 0,
            "slot": "1",
            "type": "t_uint256"
          }
        ],
        "numberOfBytes": "64"
      },
      "t_struct(RoleData)245_storage": {
        "encoding": "inplace",
        "label": "struct AccessControlUpgradeable.RoleData",
        "members": [
          {
            "astId": 242,
            "contract": "contracts/rewards/StandardRewards.sol:StandardRewards",
            "label": "members",
            "offset": 0,
            "slot": "0",
            "type": "t_mapping(t_address,t_bool)"
          },
          {
            "astId": 244,
            "contract": "contracts/rewards/StandardRewards.sol:StandardRewards",
            "label": "adminRole",
            "offset": 0,
            "slot": "1",
            "type": "t_bytes32"
          }
        ],
        "numberOfBytes": "64"
      },
      "t_struct(Set)1436_storage": {
        "encoding": "inplace",
        "label": "struct EnumerableSetUpgradeable.Set",
        "members": [
          {
            "astId": 1431,
            "contract": "contracts/rewards/StandardRewards.sol:StandardRewards",
            "label": "_values",
            "offset": 0,
            "slot": "0",
            "type": "t_array(t_bytes32)dyn_storage"
          },
          {
            "astId": 1435,
            "contract": "contracts/rewards/StandardRewards.sol:StandardRewards",
            "label": "_indexes",
            "offset": 0,
            "slot": "1",
            "type": "t_mapping(t_bytes32,t_uint256)"
          }
        ],
        "numberOfBytes": "64"
      },
      "t_struct(UintSet)1894_storage": {
        "encoding": "inplace",
        "label": "struct EnumerableSetUpgradeable.UintSet",
        "members": [
          {
            "astId": 1893,
            "contract": "contracts/rewards/StandardRewards.sol:StandardRewards",
            "label": "_inner",
            "offset": 0,
            "slot": "0",
            "type": "t_struct(Set)1436_storage"
          }
        ],
        "numberOfBytes": "64"
      },
      "t_uint16": {
        "encoding": "inplace",
        "label": "uint16",
        "numberOfBytes": "2"
      },
      "t_uint256": {
        "encoding": "inplace",
        "label": "uint256",
        "numberOfBytes": "32"
      },
      "t_uint32": {
        "encoding": "inplace",
        "label": "uint32",
        "numberOfBytes": "4"
      }
    }
  }
}